:100000003DC100006CC100006AC1000068C1000071
:1000100066C1000064C1000062C1000060C1000050
:100020005EC100005CC100005AC1000058C1000060
:1000300056C1000054C1000052C1000050C1000070
:100040004EC100004CC100004AC1000048C1000080
:1000500046C1000044C1000042C100000C94671278
:100060003EC100000C944C0A0C94230A38C10000D5
:1000700036C1000034C1000032C1000030C10000B0
:100080002EC100002CC100002AC1000028C10000C0
:1000900026C1000024C1000022C1000020C10000D0
:1000A0001EC100001CC100001AC1000018C10000E0
:1000B00016C1000014C1000012C1000010C10000F0
:1000C0000EC100000CC100000AC1000008C1000000
:1000D00006C1000004C1000002C1000000C1000010
:1000E000FEC000000F06A60635077707AC07FB0722
:1000F00045081E0E210E100E140E1A0E580E250E57
:10010000290E2F0E330E370E3D0E410E450E580EA2
:100110004B0E4F0E530E5C116111661170117A1166
:10012000F31184118C1194119E11A811B211C111F7
:10013000CB11F311D511DF11E91105A84CCDB2D4C3
:100140004EB93836A9020C50B9918688083CA6AA47
:10015000AA2ABE000000803F0000210024002700E2
:100160002A002D00300033000101000004010701C6
:100170000A0100002200250028002B002E0031007B
:10018000340002010000050108010B0100002000FD
:100190002300260029002C002F003200000100005F
:1001A00003010601090105050505070508080808FA
:1001B000020202020A0A08080404040401010101FF
:1001C00001010101030303030303030304070707FA
:1001D0000C0C0C0C0C0C0C0C02020202060606069F
:1001E000060606060B0B0B0B0B0B0B0B010210206C
:1001F000200808102040102040800201020108045D
:1002000002010102040810204080804020100804F0
:100210000201800402018040201008040201080449
:10022000020101020408102040800102040810208D
:10023000408000000A0B02090C0D0E0807030401A0
:1002400000000000000000000000000000000000AE
:10025000000000000000000000000000000012117B
:10026000100000000000000000000000000000007E
:1002700000000000000000002216161611241FBE08
:10028000CFEFD1E2DEBFCDBF00E00CBF15E0A0E0B4
:10029000B2E0E2EAF2E400E00BBF02C007900D9288
:1002A000AA3CB107D9F728E0AAECB5E001C01D923D
:1002B000A732B207E1F711E0CDE3D1E000E006C0DC
:1002C00021970109802FFE010E942721CC33D107FD
:1002D00080E00807A9F70E943E170C94402190CEB9
:1002E0000C946B1D0C946B1D0C946B1D0C946B1D6E
:1002F0000C946B1D2F923F924F925F926F927F9260
:100300008F929F92AF92BF92CF92DF92EF92FF9225
:100310000F931F93CF93DF93CDB7DEB728970FB618
:10032000F894DEBF0FBECDBF98878F83DC01129695
:10033000CD90DD90ED90FC9015970E945B126C15AE
:100340007D058E059F0508F4EEC1EF81F885858552
:100350009685009721F0019709F454C0E4C1AA24BE
:10036000AA94BA2CCA2CD12CE12CF12C870121EFB4
:100370003FEF41EF5FEF61EF7FEFAF81B8851996F7
:100380008D919C911A970E948C0D6C01AF81B8855C
:100390001996ED91FC911A97828193810E94140C19
:1003A00021EF3FEF41EF5FEF61EF7FEFEF81F885E6
:1003B000838594850E94EF0EC80ED91EAF81B88543
:1003C0001B96ED91FC911C97828193810E94140CE5
:1003D0001C141D0474F40E945B12DC01CB0188968E
:1003E000A11DB11DEF81F88582839383A483B5831A
:1003F0009AC181E090E0AF81B8851E969C938E9360
:100400001D9791C1F0EFAF2EBA2CCA2CD12CE12C44
:1004100018E0F12E00E010E026EF3FEF49EF5FEF2C
:1004200066EF7FEFEF81F885818592850E948C0DC4
:10043000AF81B8851996ED91FC911A9784818F5FF1
:10044000883110F4848301C01482648170E020E25A
:1004500030E240E250E0828193810E94A80BAF819C
:10046000B8851996ED91FC911A97828193810E942B
:10047000140C0E945B12A0900708B090080827E0B7
:100480002A9D80012B9D100D1124012E000C220BA2
:10049000330BDC01CB01801B910BA20BB30BC2967B
:1004A000A11DB11DEF81F88582839383A483B58359
:1004B0000E945B12AF81B88557960D911D912D91C9
:1004C0003C915A97061717072807390700F5B50119
:1004D000660F771F60957095E12CF12C87019B01C9
:1004E000AB011B968D919C911C970E94EF0E0E9470
:1004F0005B12DC01CB01855B9F4FAF4FBF4FEF819C
:10050000F885878B908FA18FB28F11E001C010E02A
:100510000E945B12AF81B8855396CD90DD90ED902F
:10052000FC905697C616D706E806F90608F0D7C01D
:1005300080910708909108088730910540F4FC01EC
:10054000EC50FD4F8081282E880F330803C06AE0ED
:10055000262E312C85E08A9D60018B9DD00C1124C4
:1005600000E010E0C601C2969C01990F440B550BA8
:100570002B833C834D835E833EE1C30ED11C0D2C47
:10058000000CEE08FF08021513050CF04DC02B817E
:100590003C814D815E816AE070E080E090E032D77E
:1005A0002B013C01A701960160E070E0CB012AD746
:1005B0004B015C01A701960160E070E0CB0122D7FE
:1005C000CB01770FAA0BBB0BBA2FA92F982F882727
:1005D000092C000CAA08BB08882A992AAA2ABB2A37
:1005E000BA2CA92C982C8824052C000C66087708B6
:1005F000482859286A287B28AF81B8851B96AD907A
:10060000BC901C972DE530E040E050E060E070E0E9
:10061000CB01F8D6A3019201F501828193810E945A
:10062000A80B0F5F1F4FAFCF65EF70E080E090E049
:10063000C5D64B015C016BEE70E080E090E0BED669
:100640006B017C016BEE70E080E090E0B7D6DC01DE
:10065000CB014496A11DB11D092E000CAA0BBB0BAA
:10066000BA2FA92F982F8827F4E1CF0ED11CE11CB7
:10067000F11C0D2C000CEE08FF08C82AD92AEA2A22
:10068000FB2AFE2CED2CDC2CCC24D501C4010A96CF
:10069000A11DB11D092E000CAA0BBB0BA7019601D1
:1006A000282B392B4A2B5B2BAF81B8851B96ED91FC
:1006B000FC911C9764E070E0828193810E94A80BFA
:1006C0000E945B12DC01CB01885E9E4FAF4FBF4F93
:1006D000EF81F885838B948BA58BB68B02C0112399
:1006E00011F1AF81B8851B96ED91FC911C97828129
:1006F000938128960FB6F894DEBF0FBECDBFDF9171
:10070000CF911F910F91FF90EF90DF90CF90BF900E
:10071000AF909F908F907F906F905F904F903F90A1
:100720002F900C94140C28960FB6F894DEBF0FBED1
:10073000CDBFDF91CF911F910F91FF90EF90DF9090
:10074000CF90BF90AF909F908F907F906F905F9071
:100750004F903F902F900895CF92DF92EF92FF92AB
:100760000F931F93CF93DF93EC010E945B120E94C3
:10077000ED0E85E394E00E94B60E8DE092E00E94BB
:10078000B60E80E20E94B70E89E394E00E94B60E96
:1007900081E594E00E94B60E8AE290E00E94C20ECB
:1007A00083E594E00E94B60E87E594E00E94AA0ECD
:1007B000EB85FC850481158160E085E00E94CA100C
:1007C0000E945B12F801C280D380E480F580DC01D6
:1007D000CB018C0D9D1DAE1DBF1D848F958FA68FE7
:1007E000B78F0E945B12688B798B8A8B9B8BE98514
:1007F000FA8515821F861E861D861A821B821C8220
:100800001D820E945B120E94ED0E85E394E00E941F
:10081000B60E8DE092E00E94B60E80E20E94B70E06
:1008200089E394E00E94B60E81E594E00E94B60E42
:1008300082E390E00E94C20E83E594E00E94B60E2F
:1008400087E594E0DF91CF911F910F91FF90EF909A
:10085000DF90CF900C94AA0E08950895CF92DF9266
:10086000EF92FF920F931F93CF93DF938C016A0156
:100870007B01C0E0D0E0A7019601BE01F8018281B2
:10088000938166D72196CE35D105A9F7F8018281EB
:100890009381DF91CF911F910F91FF90EF90DF90A7
:1008A000CF90C2C7CF93DF93EC0140E850E86FEFE1
:1008B00070E089859A850E94680D40E850E86FEFE6
:1008C00070E08B859C85CADF6CE271E080E090E08F
:1008D0000E94231240E050E0BA0189859A850E9467
:1008E000680D40E050E0BA018B859C85B7DF64EF6E
:1008F00071E080E090E0DF91CF910C9423128F9211
:100900009F92AF92BF92CF92DF92EF92FF920F939E
:100910001F93CF93DF93EC018A809B80AC80BD80D6
:100920000E945B12681579058A059B0508F4BAC018
:100930008D849E8481E08816910409F450C082E081
:100940008816910409F46BC0892809F0ABC0CE0168
:100950000E94E915CE01A6DFCE010E94E915CE0165
:10096000A1DF64EF71E080E090E00E942312CE01ED
:1009700099DFCE010E94E915CE0194DFCE0192DF0E
:1009800064EF71E080E090E00E942312CE018ADFE4
:10099000CE010E94E91564EF71E080E090E00E94D2
:1009A0002312CE017FDFCE010E94E915CE017ADF4E
:1009B00064EF71E080E090E00E942312CE0172DFCC
:1009C00064EF71E080E090E00E94231268EE73E033
:1009D00080E090E00E94231281E090E01DC04FEF84
:1009E00050E060E070E089859A850E94680D4FEFC5
:1009F00050E060E070E08B859C8530DF0E945B12E8
:100A0000DC01CB018C509E4FAF4FBF4F8A839B833D
:100A1000AC83BD8382E090E09E878D8743C0AA248B
:100A2000AA94BA2CCA2CD12CE12CF12C87012CEEE3
:100A30003FEF4CEE5FEF66EF7FEF89859A850E946E
:100A40008C0D9C8B8B8BE985FA8582819381ECD60A
:100A50002CEE3FEF41EF5FEF64EF7FEF8B859C85DE
:100A60000E94EF0E2B893C89820F931F9C8B8B8BEE
:100A7000EB85FC8582819381D7D68B899C8918165A
:100A8000190674F40E945B12DC01CB018896A11D4B
:100A9000B11D8A839B83AC83BD839E868D8602C0F5
:100AA00081E08887DF91CF911F910F91FF90EF90A8
:100AB000DF90CF90BF90AF909F908F900895CF938D
:100AC000DF93EC010E945B120E94ED0E85E394E03F
:100AD0000E94B60E8BEF92E00E94B60E80E20E945A
:100AE000B70E86E794E00E94B60E81E594E00E947E
:100AF000B60E89E290E00E94C20E83E594E00E9467
:100B0000B60E89E694E00E94AA0E1A821B821C820D
:100B10001D8240E050E0BA0189859A85D9D740E02E
:100B200050E0BA018B859C8599DE0E945B126F872D
:100B3000788B898B9A8B1E861D861886DF91CF91C4
:100B40000895CF93DF93EC010E945B120E94ED0E9B
:100B500085E394E00E94B60E87EC92E00E94B60E08
:100B600080E20E94B70E87E894E00E94B60E81E50D
:100B700094E00E94B60E87E290E00E94C20E83E5E8
:100B800094E00E94B60E80EA94E00E94AA0E1A82B7
:100B90001B821C821D821E861D8640EF50E060E095
:100BA00070E089859A8594D74FEF50E060E070E05F
:100BB0008B859C8553DE0E945B126F87788B898BB7
:100BC0009A8B6F8B788F898F9A8F6B8B7C8B8D8BA9
:100BD0009E8BDF91CF910895AF92BF92CF92DF921B
:100BE000EF92FF920F931F93CF93DF93EC01CA8094
:100BF000DB80EC80FD800E945B126C157D058E050C
:100C00009F0508F483C2ED85FE85E730F10508F005
:100C10007DC28827EE58FF4F8F4F0C9427210E94EA
:100C20005B12088919892A893B89601B710B820B29
:100C3000930B0E94B31F2BED3FE049E450E40E9468
:100C4000412020E030E04AE754E40E941A1F9B0153
:100C5000AC010E94B61E0E94A42020E030E040E8D3
:100C60005FE30E94B61E20E030E040EA52E40E94BA
:100C700041202DEC3CEC4CE45FE30E94412020E05D
:100C800030E040E252E40E94B61E0E94821FAB0197
:100C9000770F660B770BBA015527442789859A850C
:100CA00017D70E945B12DC01CB01C296A11DB11DBA
:100CB0008A839B83AC83BD83C888D988EA88FB88F4
:100CC0008CEDC80E85E0D81EE11CF11C0E945B1261
:100CD000C616D706E806F90608F018C20E945B128D
:100CE000688B798B8A8B9B8B1F8681E090E09E8737
:100CF0008D870E945B120E94ED0E85E394E00E94B6
:100D0000B60E82EA92E00E94B60E80E20E94B70E12
:100D100089E394E00E94B60E81E594E00E94B60E4D
:100D200086E990E00E94C20E83E594E00E94B60E30
:100D300080EC94E0DF91CF911F910F91FF90EF90A5
:100D4000DF90CF90BF90AF900C94AA0E0E945B12E0
:100D5000088919892A893B89601B710B820B930BC7
:100D60000E94B31F2BED3FE049E450E40E94412074
:100D700020E030E04AE754E40E941A1F9B01AC01D6
:100D80000E94B61E0E94A42020E030E040E85FE30D
:100D90000E94B61E20E030E040EA52E40E9441206A
:100DA0002DEC3CEC4CE45FE30E94412020E030E07D
:100DB00040E252E40E94B61E0E94821F6B01770F30
:100DC000EE08FF087601DD24CC24B701A601898551
:100DD0009A857ED60E945B12088919892A893B89E7
:100DE000601B710B820B930B28E230E040E050E077
:100DF0000E94841E2F8700E010E08F8590E0EB8535
:100E0000FC85081719074CF4A7019601B8018281E7
:100E100093819ED40F5F1F4FF0CF8281938104D5C1
:100E20008F858E3510F08DE58F870E945B12DC0177
:100E3000CB01C296A11DB11D8A839B83AC83BD8368
:100E4000C888D988EA88FB88E0EACE0EEFE0DE1E8B
:100E5000E11CF11C0E945B12C616D706E806F906D3
:100E600008F054C182E090E046C1AA24AA94BA2CAA
:100E7000CA2CD12CE12CF12C00E210E021EF3FEF45
:100E800041EF5FEF6BEF7FEF89859A8545D6D82ECE
:100E9000E985FA8582819381C7D4E12CF12C08E0A1
:100EA00010E021EF3FEF41EF5FEF6BEF7FEF8B85BE
:100EB0009C8595D7182FEB85FC8582819381B4D4CE
:100EC0000E945B12DC01CB01C296A11DB11D8A8379
:100ED0009B83AC83BD831D0D09F018C10E945B127A
:100EE0006A837B838C839D8383E090E004C10E94AE
:100EF0005B1273D785E394E039D780E892E036D768
:100F000080E235D789E394E031D781E594E02ED7AC
:100F100083EC90E037D783E594E028D788ED94E020
:100F200019D740E050E0BA0189859A85D1D540E8CB
:100F30005FEF6FEF70E08B859C8590DC0E945B1209
:100F4000DC01CB014E96A11DB11D8A839B83AC832E
:100F5000BD8384E090E0CFC00E945B123ED785E362
:100F600094E004D78BE592E001D780E200D789E3D3
:100F700094E0FCD681E594E0F9D68CEC90E002D7C1
:100F800083E594E0F3D68FED94E0E4D60E945B1203
:100F900024D785E394E0EAD68BE592E0E7D680E2B9
:100FA000E6D689E394E0E2D681E594E0DFD68DECE5
:100FB00090E0E8D683E594E0D9D688ED94E0CAD6EF
:100FC00040E050E0BA0189859A8582D540E050E042
:100FD000BA018B859C8542DC0E945B12DC01CB014F
:100FE00080579E4FAF4FBF4F8A839B83AC83BD8397
:100FF00085E090E080C00E945B12EFD685E394E02C
:10100000B5D689E392E0B2D680E2B1D689E394E026
:10101000ADD681E594E0AAD687ED90E0B3D683E51E
:1010200094E0A4D68AEE94E095D6EB85FC85048105
:10103000158160E082E00E94CA100E945B12F801F4
:10104000C280D380E480F580DC01CB018C0D9D1D36
:10105000AE1DBF1D808F918FA28FB38F4FEF5FEFBB
:101060006FEF70E089859A8533D540E85FEF6FEFC9
:1010700070E08B859C85F2DB0E945B12DC01CB016A
:10108000825A9E4FAF4FBF4F30C0AA24AA94BA2CA9
:10109000CA2CD12CE12CF12C870127EE3FEF42EF37
:1010A0005FEF62EF7FEF89859A8536D5D82EE98587
:1010B000FA8582819381B8D32CEE3FEF44EF5FEF46
:1010C00068EF7FEF8B859C858AD6182FEB85FC8592
:1010D00082819381A9D31D0D89F00E945B12DC01EE
:1010E000CB018C599F4FAF4FBF4F8A839B83AC83FB
:1010F000BD8386E090E09E878D8708C080E09CE5F8
:10110000A6E2B5E08A839B83AC83BD83DF91CF9158
:101110001F910F91FF90EF90DF90CF90BF90AF9015
:101120000895089508950895CF92DF92EF92FF9267
:101130000F931F93CF93DF936C017A018B01C0E073
:10114000D0E0CE15DF0589F0D8016D918D01D60173
:10115000ED91FC910190F081E02DC6011995892B4C
:1011600011F47E0102C02196ECCFC701DF91CF912F
:101170001F910F91FF90EF90DF90CF900895089509
:1011800080E090E00895FC01538D448D252F30E0E0
:10119000842F90E0821B930B541710F0CF96089584
:1011A00001970895FC01918D828D981761F0828DD1
:1011B000DF01A80FB11D5D968C91928D9F5F9F738B
:1011C000928F90E008958FEF9FEF0895FC01918D2D
:1011D000828D981731F0828DE80FF11D858D90E09A
:1011E00008958FEF9FEF0895FC01918D228D892F37
:1011F00090E0805C9F4F821B91098F73992708951F
:101200008AEC95E0F1DF21E0892B09F420E0822FC0
:101210000895FC01848DDF01A80FB11DA35ABF4FB3
:101220002C91848D90E001968F739927848FA689E5
:10123000B7892C93A089B1898C9180648C93938D0C
:10124000848D981306C00288F389E02D80818F7DFC
:1012500080830895EF92FF920F931F93CF93DF93B4
:10126000EC0181E0888F9B8D8C8D981305C0E889F7
:10127000F989808185FD23C0F62E0B8D10E00F5F6C
:101280001F4F0F731127E02E8C8DE8120BC00FB685
:1012900007FCFACFE889F989808185FFF5CFCE0177
:1012A000B8DFF2CF8B8DFE01E80FF11DE35AFF4F3F
:1012B000F0820B8FEA89FB898081806207C0EE890A
:1012C000FF896083E889F98980818064808381E077
:1012D00090E0DF91CF911F910F91FF90EF900895D3
:1012E000CF93DF93EC01888D8823C1F0EA89FB89D5
:1012F000808185FD05C0A889B9898C9186FD0EC0C5
:101300000FB607FCF5CF808185FFF2CFA889B98998
:101310008C9185FFEDCFCE017CDFE8CFDF91CF91BF
:10132000089580E090E0892B19F06ADF811125C0D3
:1013300080E090E0892B41F080E090E0892B21F063
:101340000E94000081111CC080E090E0892B41F0D8
:1013500080E090E0892B21F00E940000811113C0F1
:1013600080E090E0892BA1F080E090E0892B81F073
:101370000E94000081110AC008950E940000D8CF89
:101380000E940000E1CF0E940000EACF0C94000010
:101390000895CF93DF93EC0188859985009711F02C
:1013A0000E946B1D8E8187FD04C060E0DF91CF91AC
:1013B00020C7DF91CF9108950C946B1DCF93DF93DD
:1013C00000D01F92CDB7DEB761157105810591057B
:1013D00079F09B01AC0169833A834B835C830E9463
:1013E0004C1E29813A814B815C810E94581E03C0AA
:1013F00060E070E0CB010F900F900F900F90DF91A5
:10140000CF910895CF92DF92EF92FF920F931F93A7
:1014100062177307840795077CF489019A016B01B1
:101420007C01C901B8016C197D098E099F09C6DFCD
:101430006C0D7D1D8E1D9F1D1F910F91FF90EF90D4
:10144000DF90CF9008951F920F920FB60F92112444
:101450000BB60F922F933F934F935F936F937F93AE
:101460008F939F93AF93BF93EF93FF938AEC95E095
:10147000D0DEFF91EF91BF91AF919F918F917F91BE
:101480006F915F914F913F912F910F900BBE0F90F5
:101490000FBE0F901F9018951F920F920FB60F92CC
:1014A00011240BB60F922F938F939F93EF93FF937B
:1014B000E091DA05F091DB058081E091E005F091A3
:1014C000E10582FD12C090818091E3058F5F8F73EB
:1014D0002091E405821751F0E091E305F0E0E65336
:1014E000FA4F958F8093E30501C08081FF91EF91C2
:1014F0009F918F912F910F900BBE0F900FBE0F9069
:101500001F9018954F925F926F927F928F929F9249
:10151000AF92BF92CF92DF92EF92FF920F931F9301
:10152000CF93DF93DC0112968D919C9113976817EE
:10153000790708F0F9C01D968C911D971A96EC90CA
:101540001A971896ED91FC91199717968C9017970A
:10155000482F50E01B961C911B971C960C91EB0199
:101560008E1164C0CC0FDD1FC60FD71FCE0FDF1F3B
:10157000882009F443C0912CA12CB12CFE01E40F6A
:10158000F51F608170E0762F6627072E000C880B10
:10159000990BA50194010E94841E3901552444240D
:1015A000FE01E10FF11D608170E0762F6627072EA6
:1015B000000C880B990BA50194010E94841EB42F86
:1015C000A32F922F882773016201C82AD92AEA2AF9
:1015D000FB2AC00FD11D688170E0762F6627072E89
:1015E000000C880B990BA50194010E94841EC70171
:1015F000B601622B732B842B952B99C0FE01E40F4F
:10160000F51F2081FE01E10FF11D6081862F90E022
:10161000A0E0B0E0BA2FA92F982F8827A22BC00FE7
:10162000D11D2881BC01CD01622B81C0CC0FDD1FF3
:10163000CC0FDD1FCE0FDF1FF12C882009F458C01E
:10164000912CA12CB12CFE01E40FF51F608170E0FC
:10165000762F6627072E000C880B990BA5019401A5
:101660000E94841E722E662455244424FE01EE0D31
:10167000FF1D608170E0762F6627072E000C880B17
:10168000990BA50194010E94841E7901DD24CC24CC
:10169000C428D528E628F728FE01E00FF11D608157
:1016A00070E0762F6627072E000C880B990BA5019A
:1016B00094010E94841EC22AD32AE42AF52AC10F6B
:1016C000D11D688170E0762F6627072E000C880BED
:1016D000990BA50194010E94841EB42FA32F922F71
:1016E0008827BC01CD016C297D298E299F291FC027
:1016F000FE01E40FF51F2081FE01EE0DFF1D60814C
:10170000862F90E0A0E0B0E0DC0199278827B22B7B
:10171000FE01E00FF11D2081822BC10FD11D288118
:10172000BC01CD01722B03C060E070E0CB01DF9102
:10173000CF911F910F91FF90EF90DF90CF90BF90CE
:10174000AF909F908F907F906F905F904F90089593
:101750008F929F92AF92BF92CF92DF92EF92FF92C1
:101760000F931F93CF93DF93FC01828193816817BE
:10177000790708F04CC04A01AA24BB24B82DC32E17
:10178000D42EE52EFF24AC2D922F8781882361F083
:10179000889E40011124B92DC89E60011124AD2DF1
:1017A000289FE00111249D2FD584C285E084F18417
:1017B000DC1208C09B01220F331F620F731F6E0DD6
:1017C0007F1D16C0660F771F660F771F6E0D7F1D7A
:1017D000052F112722273327EB01CD0DD11D88239B
:1017E00029F0089F90011124232F01C0202F288366
:1017F0008285EB01C80FD11DB8838385EB01C80F2B
:10180000D11DA8838485FB01E80FF11D9083DF9132
:10181000CF911F910F91FF90EF90DF90CF90BF90ED
:10182000AF909F908F900895CF92DF92EF92FF92AA
:101830000F931F93CF93DF93CDB7DEB729970FB6E2
:10184000F894DEBF0FBECDBF8C01DC0118968D91E0
:101850009C911997892B09F4A1C0D0D5F801C684B1
:10186000D784E088F188DC01CB018C199D09AE0991
:10187000BF098C329140A105B10578F3F894D801E5
:1018800014968D919C9115979A8389831896ED9162
:10189000FC9119977F01BFEFEB1AFB0A80818987C2
:1018A000F80190810288F389E02DD80154968C913B
:1018B000992309F430C09081982B98879081809566
:1018C00089238F838F818C8388E08B8358856F81F8
:1018D00049853B812C8189819A81D701508347FDBD
:1018E000252F3A952083262F39F0441F00C0000091
:1018F0006083000000C0F2CF38E04D9160830000AB
:10190000019761F7D8015396FC93EE93529749875C
:101910003B832C833AC09081982B98879081809547
:1019200089238F838F818E8388E08D8358856F8193
:1019300049853D812E8189819A81D701508347FD58
:10194000252F00C000C0208300C000C000C000C020
:1019500000C060830000262F3A9541F0441F00002C
:1019600000C000C000C000C000C0E8CF38E04D910A
:1019700000C0608300C0019709F7D8015396FC931B
:10198000EE93529749873D832E839A838983789477
:1019900035D5F80166877787808B918B29960FB6AE
:1019A000F894DEBF0FBECDBFDF91CF911F910F9195
:1019B000FF90EF90DF90CF900895CF93DF93EC01ED
:1019C0008E8187FD05C061E014D460E08E81E2D392
:1019D00081E08983DF91CF910895CF92DF92EF92DA
:1019E000FF921F93CF93DF93EC017B01142F198299
:1019F0001F821E861F86188A198AC90146E096959D
:101A000087954A95E1F7482F43704D87C90154E007
:101A1000969587955A95E1F783708A87B9017695EF
:101A200067957695679563706B87922F93709C8707
:101A300091E02F3F310511F008F090E098834817AE
:101A400019F084E090E002C083E090E08E9D600198
:101A50008F9DD00C9E9DD00C1124DD82CC82C601BE
:101A60000E94D61C99878887009741F0A60160E004
:101A700070E00E943921FB82EA8204C01D821C8230
:101A80001B821A821E838981882331F061E0812FB5
:101A9000B0D360E0812F7ED3812F90E0FC01EA5526
:101AA000FE4FE491F0E0EE0FFF1FEE58FE4F259140
:101AB00034913B8B2A8BFC01E451FE4FE491EC8B7B
:101AC000DF91CF911F91FF90EF90DF90CF9008951D
:101AD000CF92DF92EF92FF920F931F93CF93DF93FA
:101AE0008C016A017B01C0E0D0E0A7019601BE0134
:101AF000F801828193812CDE2196C831D105A9F7A6
:101B0000F80182819381DF91CF911F910F91FF9016
:101B1000EF90DF90CF9088CE2F923F924F925F92BE
:101B20006F927F928F929F92AF92BF92CF92DF92ED
:101B3000EF92FF920F931F93CF93DF93CDB7DEB752
:101B400060970FB6F894DEBF0FBECDBF3C017A831D
:101B500069835C834B833E832D83EF82F8860987FC
:101B60001A87AB86BC86CD86DE86188A1F866F856F
:101B70007889F30182819381C5DC1B012C018B8460
:101B80009C84AD84BE84CF80D884E984FA848B01A0
:101B90009C014D815E816B817C8189819A8184D792
:101BA0006B017C019B01AC016F857889F301828117
:101BB0009381CEDD8F8598890196988B8F87489782
:101BC000B1F681E090E02C143D044E045F0411F462
:101BD00080E090E060960FB6F894DEBF0FBECDBFF8
:101BE000DF91CF911F910F91FF90EF90DF90CF90F9
:101BF000BF90AF909F908F907F906F905F904F902D
:101C00003F902F90089590E0FC013197E231F1056B
:101C100008F04EC08827E758FF4F8F4F0C942721BC
:101C2000809180008F7703C0809180008F7D8093AA
:101C30008000089580918000877FF9CF84B58F77E9
:101C400002C084B58F7D84BD08958091B0008F77E8
:101C500003C08091B0008F7D8093B0000895809183
:101C600090008F7707C0809190008F7D03C0809196
:101C70009000877F8093900008958091A0008F77D7
:101C800007C08091A0008F7D03C08091A000877F56
:101C90008093A0000895809120018F7707C08091E4
:101CA00020018F7D03C080912001877F80932001D8
:101CB0000895009761F0FC0101900020E9F7319749
:101CC000AF01481B590BBC018AEC95E02DCA80E09E
:101CD00090E008958F929F92AF92BF920F931F93BF
:101CE000CF93DF93CDB7DEB7A1970FB6F894DEBFE1
:101CF0000FBECDBF19A2423008F44AE08E010F5D3D
:101D00001F4F842E912CA12CB12CA50194010E946F
:101D1000841EE62FB901CA0101501109EA3014F4FA
:101D2000E05D01C0E95CD801EC93232B242B252B2B
:101D300061F7C801BEDFA1960FB6F894DEBF0FBEF3
:101D4000CDBFDF91CF911F910F91BF90AF909F902A
:101D50008F900895CF93DF93ACDFEC0181EF94E097
:101D6000A8DF8C0F9D1FDF91CF910895A2CFE09146
:101D7000CA05F091CB050190F081E02D682F8AEC27
:101D800095E01994CF92DF92EF92FF92CF93DF9379
:101D90006C01990FEE08FF08F7FE15C08DE2E7DF32
:101DA000EC0166277727CB016C197D098E099F0905
:101DB0004AE090DF8C0F9D1FDF91CF91FF90EF9055
:101DC000DF90CF9008954AE0C701B601DF91CF912F
:101DD000FF90EF90DF90CF907DCF4AE07BCF2F92A6
:101DE0003F924F925F926F927F928F929F92AF92AB
:101DF000BF92CF92DF92EF92FF920F931F93CF93F8
:101E0000DF93CDB7DEB72C970FB6F894DEBF0FBEC9
:101E1000CDBF3C017A8369835C834B833E832D83F2
:101E2000EF82F88609871A871C861B866B857C855E
:101E3000F3018281938166DB1B012C0188248A9443
:101E4000982CA82CB12CCF80D884E984FA849201F4
:101E500081014D815E816B817C8189819A8124D64B
:101E60006B017C019B01AC016B857C85F301828158
:101E700093816EDC8B859C8501969C878B878E3544
:101E80009105A1F681E090E02C143D044E045F041E
:101E900011F480E090E02C960FB6F894DEBF0FBEF0
:101EA000CDBFDF91CF911F910F91FF90EF90DF9009
:101EB000CF90BF90AF909F908F907F906F905F90EA
:101EC0004F903F902F9008952F923F924F925F92A4
:101ED0006F927F928F929F92AF92BF92CF92DF923A
:101EE000EF92FF920F931F93CF93DF93CDB7DEB79F
:101EF0002D970FB6F894DEBF0FBECDBF1C017F83B8
:101F00006E83598748873B872A879C012E5F3F4F06
:101F10003D872C8707969D838C831982EC85FD85F0
:101F2000FB83EA83608170E0F10185859685EADABA
:101F30002B013C0188248A94982CA82CB12CC12C0C
:101F4000D12C7601930182014A855B85688579856C
:101F50008E819F81A9D59B01AC0146165706680664
:101F6000790611F0F1E0F9838C859D8501969D87B6
:101F70008C87EA81FB818081682F70E0F101858583
:101F80009685E6DB2C853D858C819D812817390758
:101F900029F689812D960FB6F894DEBF0FBECDBF0E
:101FA000DF91CF911F910F91FF90EF90DF90CF9035
:101FB000BF90AF909F908F907F906F905F904F9069
:101FC0003F902F9008952F923F924F925F926F9281
:101FD0007F928F929F92AF92BF92CF92DF92EF92B9
:101FE000FF920F931F93CF93DF93CDB7DEB72B975D
:101FF0000FB6F894DEBF0FBECDBF1C017F836E838A
:10200000598748879C01295F3F4F3B872A870C9659
:102010009D838C831982EA85FB85FB83EA8360813B
:1020200070E0F101858596856DDA2B013C018824ED
:102030008A94982CA82CB12CC12CD12C7601930118
:102040008201488559856E817F8181EF9FEF2CD574
:102050009B01AC01461657066806790611F0F1E0BF
:10206000F9838A859B8501969B878A87EA81FB8114
:102070008081682F70E0F1018585968569DB2A856E
:102080003B858C819D812817390729F689812B96FC
:102090000FB6F894DEBF0FBECDBFDF91CF911F9179
:1020A0000F91FF90EF90DF90CF90BF90AF909F90F7
:1020B0008F907F906F905F904F903F902F900895FA
:1020C000CF92DF92EF92FF92CF93DF936C01990F43
:1020D000EE08FF08F7FE10C08DE249DEEC0166272E
:1020E0007727CB016C197D098E099F094AE0F2DD43
:1020F0007C01EC0EFD1E05C04AE0C701B601EADD19
:102100007C0181EF94E0D5DD8E0D9F1DDF91CF9195
:10211000FF90EF90DF90CF900895CF93DF93282F1B
:1021200030E0F901EE5CFD4F8491F901E451FE4F7E
:10213000D491F901EA55FE4FC491CC2389F0811165
:1021400062DDEC2FF0E0EE0FFF1FE457FE4FA5918C
:10215000B491EC91ED2381E090E021F480E002C0A5
:1021600080E090E0DF91CF910895CF93DF93C0E0BE
:10217000D0E0809100028C0FD0DF892B21F4D09326
:102180000202C09301022196C630D10591F7DF917A
:10219000CF9108951F93CF93DF93282F30E0F9015B
:1021A000EE5CFD4F8491F901E451FE4FD491F901A9
:1021B000EA55FE4FC491CC23C1F0162F811123DDC7
:1021C000EC2FF0E0EE0FFF1FEE58FE4FA591B491FB
:1021D0008FB7F894111105C09C91ED2FE095E9237C
:1021E00002C0EC91ED2BEC938FBFDF91CF911F914B
:1021F0000895CF93DF9390E0FC01E451FE4F2491CA
:10220000FC01EA55FE4F8491882361F190E0880F2C
:10221000991FFC01E85AFE4FC591D491FC01EE587C
:10222000FE4FA591B491611109C09FB7F8948881C0
:10223000209582238883EC912E230BC0623061F4B9
:102240009FB7F8943881822F809583238883EC91FF
:102250002E2B2C939FBF06C08FB7F894E8812E2BAE
:1022600028838FBFDF91CF9108951F93CF93DF9382
:10227000182FEB0161E0BDDF209711F460E004C08E
:10228000CF3FD10531F461E0812FDF91CF911F91D4
:1022900081CFE12FF0E0EE5CFD4FE4914E2F50E056
:1022A000FA013197E231F10508F09DC08827E55722
:1022B000FF4F8F4F0C94272184B5806884BDC7BD24
:1022C00097C084B5806284BDC8BD92C080918000F3
:1022D000806880938000D0938900C093880088C074
:1022E00080918000806280938000D0938B00C093A7
:1022F0008A007EC080918000886080938000D093A7
:102300008D00C0938C0074C08091B0008068809371
:10231000B000C093B3006CC08091B0008062809325
:10232000B000C093B40064C0809190008068809336
:102330009000D0939900C09398005AC0809190006B
:10234000806280939000D0939B00C0939A0050C00D
:1023500080919000886080939000D0939D00C093FE
:102360009C0046C08091A00080688093A00080916E
:10237000A0008F7B8093A000D093A900C093A800F9
:1023800037C08091A00080628093A000D093AB0002
:10239000C093AA002DC08091A00088608093A00007
:1023A000D093AD00C093AC0023C080912001806821
:1023B00080932001D0932901C093280119C08091F6
:1023C0002001806280932001D0932B01C0932A01C9
:1023D0000FC080912001886080932001D0932D014F
:1023E000C0932C0105C0C038D1050CF04CCF46CFAE
:1023F000DF91CF911F9108950E9435213FB7F89446
:1024000080911F0890912008A0912108B091220886
:1024100026B5A89B05C02F3F19F00196A11DB11D3F
:102420003FBFBA2FA92F982F8827820F911DA11D7A
:10243000B11DBC01CD0142E0660F771F881F991FB7
:102440004A95D1F708958F929F92AF92BF92CF9203
:10245000DF92EF92FF926B017C01D0DF4B015C01B8
:10246000C114D104E104F104E9F0C8DFDC01CB01BF
:1024700088199909AA09BB09883E9340A105B105AD
:1024800078F321E0C21AD108E108F10888EE880E3D
:1024900083E0981EA11CB11CC114D104E104F10415
:1024A00021F7DECFFF90EF90DF90CF90BF90AF90FD
:1024B0009F908F9008952FB7F89460911B087091AA
:1024C0001C0880911D0890911E082FBF08951F922F
:1024D0000F920FB60F9211242F933F938F939F93D8
:1024E000AF93BF9380911B0890911C08A0911D0889
:1024F000B0911E0830911A0823E0230F2D3720F4E5
:102500000196A11DB11D05C026E8230F0296A11D4D
:10251000B11D20931A0880931B0890931C08A09368
:102520001D08B0931E0880911F0890912008A0916B
:102530002108B09122080196A11DB11D80931F08AA
:1025400090932008A0932108B0932208BF91AF91E7
:102550009F918F913F912F910F900FBE0F901F90E1
:1025600018958F929F92AF92BF92CF92DF92EF9287
:10257000FF920F931F93CF93DF93EC01CA80DB8010
:10258000EC80FD8098DF6C157D058E059F0508F4B5
:1025900083C08B859C858130910509F447C0ACF5DB
:1025A000892B09F079C065E070E080E090E00E943E
:1025B000DE094B015C012FEF821A920AA20AB20ACD
:1025C000E985FA85048510E00150110974DF6B017B
:1025D0007C0120E931E0D8010E942F21C60ED71ED0
:1025E000E81EF91EA0EDB7E0A50194010E94741E3B
:1025F000DC01CB018C0D9D1DAE1DBF1D8A839B830D
:10260000AC83BD8381E090E026C08230910531F13A
:10261000039709F041C04FDFDC01CB01945AA94D6B
:10262000BA4F8A839B83AC83BD8336C044DFDC0111
:10263000CB0188519C4FAF4FBF4F8A839B83AC83A4
:10264000BD838FEF8D87E985FA856FEF70E0878511
:102650000CDE82E090E09C878B871EC02CDFDC01C3
:10266000CB018896A11DB11D8A839B83AC83BD835A
:102670006D856E516D8770E0E985FA858785F5DD9A
:102680008D85893248F41D86E985FA8560E070E021
:102690008785EBDD1C861B86DF91CF911F910F9103
:1026A000FF90EF90DF90CF90BF90AF909F908F9072
:1026B0000895CF92DF92EF92FF920F931F93CF93E3
:1026C000DF93EC01F8DE89DB85E394E04FDB86E005
:1026D00094E04CDB80E24BDB87E395E047DB81E570
:1026E00094E044DB89E290E04DDB83E594E03EDB5F
:1026F00082E595E02FDBE984FA8487010E5F1F4FA6
:10270000670187E0C80ED11CF80161918F0170E06C
:1027100020E030E0A901F7018585968519D80C15D0
:102720001D0591F7E984FA848701095F1F4F67014E
:10273000FCE0CF0ED11CF80161918F0170E020E028
:1027400030E0A901F7018585968502D80C151D0595
:1027500091F7E985FA858585968566D81C861B865E
:102760001A821B821C821D82E985FA8581E0818B99
:10277000DF91CF911F910F91FF90EF90DF90CF905D
:1027800008950C946B1D0C946B1D0C946B1DCF92D3
:10279000DF92EF92FF920F931F93CF93DF93EC01A1
:1027A000CA80DB80EC80FD8086DE6C157D058E05A1
:1027B0009F0508F4B5C08B859C858130910509F48F
:1027C0004BC08230910509F47DC0892B09F0A8C067
:1027D000E984FA8487010E5F1F4F670187E0C80E06
:1027E000D11CF80161918F0170E02FEF3FEF4FEFA7
:1027F00050E0F701858596850E94A80B0C151D05F4
:1028000081F7E984FA848701095F1F4F6701FCE0C3
:10281000CF0ED11CF80161918F0170E020EF30EFF5
:102820004FEF50E0F701858596850E94A80B0C15A7
:102830001D0581F7E985FA85858596850E94140C2A
:1028400082E090E09C878B8736DEDC01CB018C50E8
:102850009E4FAF4FBF4F60C021EF3FEF41EF5FEFA3
:102860006FEF7FEF89859A852FDB082F47EE5FEFAB
:1028700067EE7FEF89859A85A6DB182FE985FA85B3
:10288000858596850E94140C16DEDC01CB010A9624
:10289000A11DB11D8A839B83AC83BD832E813F81A3
:1028A000215031093F832E83100F09F039C082E097
:1028B00090E09C878B87FFDDDC01CB010596A11D95
:1028C000B11D2AC02CEE3FEF4CEE5FEF66EF7FEFBD
:1028D00089859A85F9DA082F42EE5FEF62EE7FEF85
:1028E00089859A8570DB182FE985FA858585968517
:1028F0000E94140CE0DDDC01CB010596A11DB11D89
:102900008A839B83AC83BD83100F51F4D4DDDC013B
:10291000CB01945AA94DBA4F8A839B83AC83BD8364
:10292000DF91CF911F910F91FF90EF90DF90CF90AB
:102930000895CF92DF92EF92FF920F931F93CF9360
:10294000DF93EC011C861B861A821B821C821D826F
:10295000B2DD43DA85E394E009DA86EA93E006DA49
:1029600080E205DA84E795E001DA81E594E0FED9BA
:1029700089E290E007DA83E594E0F8D98DE895E004
:10298000E9D9E985FA850289138960E085E002DCEE
:1029900092DDF801C280D380E480F580DC01CB01B8
:1029A0008C0D9D1DAE1DBF1D848F958FA68FB78F7B
:1029B000E985FA85118A60E070E08785DF91CF9123
:1029C0001F910F91FF90EF90DF90CF904ECC089524
:1029D000FC01728761876FDD00DA85E394E0C6D978
:1029E00083ED93E0C3D980E2C2D987E395E0BED9F5
:1029F00081E594E0BBD98CE190E0C4D983E594E013
:102A0000B5D98DEA95E0A6C908950895CF93DF93CF
:102A1000EC018C858330D9F050F4813091F0823014
:102A200009F58BE18F8783E2888B88E21CC08430B4
:102A300099F08530B9F48EE18F8786E2888B84E146
:102A400012C08AE18F8782E2888B8EE10CC08CE114
:102A50008F8784E2888B06C08DE18F8785E2888B23
:102A60008AE001C080E0FE0137969E01245F3F4F5F
:102A70008193DF01169791E0980F9C938E5FE21788
:102A8000F307B1F761E08F85B4DB62E08889DF91FD
:102A9000CF91AFCBFC01808940DB21E0892B09F489
:102AA00020E0822F089508952F923F924F925F92D7
:102AB0006F927F928F929F92AF92BF92CF92DF924E
:102AC000EF92FF920F931F93CF93DF93CDB7DEB7B3
:102AD0002A970FB6F894DEBF0FBECDBF5A8749873D
:102AE000412E522E632E77244D825E826F8278862D
:102AF000160133244D2C5E2C6F2C7724F201FF2716
:102B0000AE2DB0E0A40155275A834983FF24EB2C56
:102B1000DA2CC92CDD24EA2CF12C820F911D8A17A6
:102B20009B070CF4CD014D805E805524460E571E48
:102B30004E165F060CF42F01112769847A84060D66
:102B4000171D021513050CF48101C414D5040CF4EF
:102B50002601052C000C66087708762C652C542C71
:102B6000442429813A81201731070CF48901012E70
:102B7000000C220B330B402A512A622A732AE816D2
:102B8000F9060CF4C701092E000CAA0BBB0BDC01E3
:102B900099278827BC01CD016429752986299729A1
:102BA0002A960FB6F894DEBF0FBECDBFDF91CF914E
:102BB0001F910F91FF90EF90DF90CF90BF90AF905B
:102BC0009F908F907F906F905F904F903F902F904D
:102BD0000895CF93DF93EC0140E850E86FEF70E089
:102BE00089859A850E94680D40E850E86FEF70E093
:102BF0008B859C850E942E046CEB72E080E090E057
:102C000022DC40E050E0BA0189859A850E94680D77
:102C100040E050E0BA018B859C850E942E0464EF51
:102C200071E080E090E0DF91CF910DCC88EC97E0EF
:102C30000E94C9098DED97E00E94C90982EF97E0D3
:102C40000C94C909EAECF5E01382128288EE93E055
:102C5000A0E0B0E084839583A683B78384E293E009
:102C60009183808385EC90E09587848784EC90E065
:102C70009787868780EC90E0918B808B81EC90E049
:102C8000938B828B82EC90E0958B848B86EC90E02A
:102C9000978B868B118E128E138E148E26E030E069
:102CA00049E262E370E082EF97E00E94ED0C26E0DB
:102CB00030E048E26EE570E08DED97E00E94ED0CAB
:102CC00022E530E04AE268E170E088EC97E00E949B
:102CD000ED0CE2EAF7E086E2DF011D928A95E9F762
:102CE00088EC90E0A0E0B0E082839383A483B58376
:102CF00021E030E03187208782E090E0938782876F
:102D000083E090E09587848784E090E097878687CA
:102D100085E090E0918B808B86E090E0938B828BB6
:102D200086E993E090938F0780938E0790937B07BB
:102D300080937A0790936707809366079093530771
:102D40008093520790933F0780933E07E0E3F7E0BC
:102D50001282138214821582108682E893E0918396
:102D60008083E2E2F7E012821382148215821086D9
:102D700091838083E4E1F7E012821382148215824A
:102D8000108691838083E6E0F7E01282138214823A
:102D90001582108691838083E8EFF6E01282138219
:102DA00014821582108691838083EBEEF6E0128206
:102DB00013821482158210868AE693E091838083C1
:102DC00014861386EEEDF6E01282138214821582C9
:102DD00010869183808314861386E1EDF6E01282DB
:102DE0001382148215821086918380831486138641
:102DF000E4ECF6E01282138214821582108691832D
:102E0000808314861386E7EBF6E012821382148225
:102E1000158210869183808314861386E2EAF6E099
:102E2000128213821482158210868EE593E09183BC
:102E3000808386E593E090939D0680939C068EE4C4
:102E400093E09093970680939606EBE7F6E0128264
:102E5000138214821582108682E493E0918380832A
:102E6000E7E6F6E01282138214821582108686E36A
:102E700093E091838083368725870895789484B57D
:102E8000826084BD84B5816084BD85B5826085BD66
:102E900085B5816085BD80916E00816080936E00F4
:102EA00010928100809181008260809381008091E6
:102EB0008100816080938100809180008160809397
:102EC00080008091B10084608093B1008091B00057
:102ED00081608093B0008091910082608093910026
:102EE0008091910081608093910080919000816039
:102EF000809390008091A10082608093A1008091D6
:102F0000A10081608093A1008091A00081608093E6
:102F1000A000809121018260809321018091210194
:102F20008160809321018091200181608093200144
:102F300080917A00846080937A0080917A00826028
:102F400080937A0080917A00816080937A008091EA
:102F50007A00806880937A001092C100E091DA05CF
:102F6000F091DB0582E08083E091D605F091D705F2
:102F70001082E091D805F091D9058FEC80831092F2
:102F8000E205E091DE05F091DF0586E08083E091C7
:102F9000DC05F091DD05808180618083E091DC05B6
:102FA000F091DD05808188608083E091DC05F091FF
:102FB000DD05808180688083E091DC05F091DD058E
:102FC00080818F7D808361E08DE013D9C0E08091A6
:102FD000000262E08C0F0DD9CF5FC630C1F7C5D8B3
:102FE00080E092E09093C7078093C60700E010E06E
:102FF000C2EAD7E0E090A207F090A307E00EF11E2E
:1030000061E08E2DF6D861E08E2DC4D80F5F1F4F82
:103010000830110569F780E09CE5A6E2B5E08093F1
:10302000BA079093BB07A093BC07B093BD078093EA
:10303000BE079093BF07A093C007B093C1078093CA
:10304000C2079093C307A093C407B093C5078DED43
:1030500097E00E94DD0C8DED97E00E94140C82EF4A
:1030600097E00E94DD0C82EF97E00E94140C88EC40
:1030700097E00E94DD0C88EC97E00E94140CD0933E
:10308000A107C093A007FF24F394F0929A0702EFE0
:1030900017E010939C0700939B078EE897E0B6DC3F
:1030A000D0938D07C0938C0782E08093860710939E
:1030B0008807009387078AE797E0A8DCD093790711
:1030C000C093780783E0809372071093740700938E
:1030D000730786E697E09ADCD0936507C093640790
:1030E00084E080935E071093600700935F0782E59A
:1030F00097E08CDCD0935107C093500785E0809314
:103100004A0710934C0700934B078EE397E07EDC51
:103110008EE897E09093F5068093F4068AE797E0AF
:103120009093E8068093E70686E697E09093DB06A7
:103130008093DA0682E597E09093CE068093CD06E1
:103140008EE397E09093C1068093C0066EE877E027
:1031500080E397E03DDC6AE777E082E297E038DCE5
:1031600066E677E084E197E033DC62E577E086E0CD
:1031700097E02EDC6EE377E088EF96E029DC0CE93F
:1031800016E088EC97E090939F0680939E0610923D
:10319000A006F092A10662E087E22BD886E996E0CD
:1031A0002DED37E03093990620939806D0939B0637
:1031B000C0939A061093710600937006909373065D
:1031C00080937206909387068093860610938506F7
:1031D000009384069093AE068093AD061093AC06E0
:1031E0000093AB0680E397E090931908809318084A
:1031F00082E297E0909317088093160884E197E0A5
:10320000909315088093140886E097E09093130834
:103210008093120888EF96E090931108809310082D
:103220008BE796E090930F0880930E080E94B510EC
:103230008091010290910202029731F482EA96E0B5
:1032400090930F0880930E08E0913007F0913107BA
:103250000480F581E02D80E397E0199580911608B0
:1032600090911708DC01ED91FC910480F581E02D2F
:1032700019958091140890911508DC01ED91FC914D
:103280000480F581E02D1995809112089091130822
:10329000DC01ED91FC910480F581E02D1995809180
:1032A000100890911108DC01ED91FC910480F581EA
:1032B000E02D199580910E0890910F08DC01ED9199
:1032C000FC910480F581E02D1995F5D860930A08EA
:1032D00070930B0880930C0890930D08812C8CE55B
:1032E000982E86E2A82E85E0B82E9EED292E96E037
:1032F000392EC1EDD6E004EC16E027E6E22E26E0FA
:10330000F22E3BE7C32E36E0D32ED5D82B013C015D
:103310008091BA079091BB07A091BC07B091BD07FF
:1033200084159505A605B70560F461E082E00E946A
:10333000CA108092BA079092BB07A092BC07B092C5
:10334000BD078091BE079091BF07A091C007B091C3
:10335000C10784159505A605B70560F461E085E011
:103360000E94CA108092BE079092BF07A092C00729
:10337000B092C1078091C2079091C307A091C40782
:10338000B091C50784159505A605B70560F461E001
:1033900086E00E94CA108092C2079092C307A09252
:1033A000C407B092C50780919F07811105C08EE8C0
:1033B00097E070DB81115FC180918B07811105C09F
:1033C0008AE797E067DB811190C1809177078111CF
:1033D00005C086E697E05EDB811197C180916307A7
:1033E000811105C082E597E055DB81119DC1809177
:1033F0004F07811105C08EE397E04CDB8111A4C11A
:1034000080919F07882331F08EE897E043DB882383
:1034100009F4A9C180918B07882331F08AE797E0EE
:1034200039DB882309F4DAC180917707882331F0EA
:1034300086E697E02FDB882309F40AC280916307B0
:10344000882331F082E597E025DB882309F43AC22E
:1034500080914F07882331F08EE397E01BDB8823B0
:1034600009F46AC28091A1068823E9F187E20E94EB
:103470008D10892BC1F51FD80E94ED0E85E394E0D5
:103480000E94B60E8AE993E00E94B60E80E20E9486
:10349000B70E84EF94E00E94B60E81E594E00E949E
:1034A000B60E87EF90E00E94C20E83E594E00E9482
:1034B000B60E89E095E00E94B60E84E594E00E9485
:1034C000B60E88E195E00E94AA0EF0920F08E092F5
:1034D0000E08E0916706F09168060480F581E02D02
:1034E00087E696E0199510920808109207088EE872
:1034F00097E0D0DA811106C081E090E0909308084F
:10350000809307088AE797E0C5DA811109C08091A6
:10351000070890910808019690930808809307087F
:1035200086E697E0B7DA811109C08091070890918B
:1035300008080196909308088093070882E597E0B1
:10354000A9DA811109C080910708909108080196B5
:1035500090930808809307088EE397E09BDA811127
:1035600009C0809107089091080801969093080877
:10357000809307088091180890911908DC01ED915B
:10358000FC910680F781E02D1995809116089091A5
:103590001708DC01ED91FC910680F781E02D19956B
:1035A0008091140890911508DC01ED91FC91068042
:1035B000F781E02D19958091120890911308DC0194
:1035C000ED91FC910680F781E02D1995809110080E
:1035D00090911108DC01ED91FC910680F781E02DBE
:1035E000199580910E0890910F08DC01ED91FC91E6
:1035F0000680F781E02D1995E0910E08F0910F08F3
:103600008085882321F0D0920F08C0920E080E9476
:103610005B1240900A0850900B0860900C08709064
:103620000D08DC01CB0184199509A609B709893E6B
:103630009340A105B105E0F00E945B1260930A0877
:1036400070930B0880930C0890930D0880910908E3
:10365000811108C061E08DE00E94CA1081E0809372
:10366000090806C060E08DE00E94CA1010920908A7
:103670000E9491094ACE0E945B120E94ED0E85E3E2
:1036800094E00E94B60E8AE993E00E94B60E80E2B2
:103690000E94B70E84EF94E00E94B60E81E594E09C
:1036A0000E94B60E87EA90E00E94C20E83E594E085
:1036B0000E94B60E8DE195E00E94B60E84E594E07E
:1036C0000E94B60E81E090E00E94601080E397E0D7
:1036D0009093190880931808E0913007F091310712
:1036E0000480F581E02D199567CEA2E2B7E0B09392
:1036F0001708A0931608E0912207F0912307048091
:10370000F581E02DCD01199560CE84E197E090938D
:10371000150880931408E0911407F09115070480B0
:10372000F581E02D19955ACEA6E0B7E0B0931308C5
:10373000A0931208E0910607F09107070480F58135
:10374000E02DCD01199553CE88EF96E090931108A6
:1037500080931008E091F806F091F9060480F58155
:10376000E02D19954DCE0E945B120E94ED0E85E36F
:1037700094E00E94B60E8AE993E00E94B60E80E2C1
:103780000E94B70E84EF94E00E94B60E81E594E0AB
:103790000E94B60E82ED90E00E94C20E83E594E096
:1037A0000E94B60E89E295E00E94B60E84E594E090
:1037B0000E94B60E81E090E00E946010ABEEB6E091
:1037C000B0931908A0931808E091EB06F091EC066D
:1037D0000480F581E02DCD0119951CCE0E945B126D
:1037E0000E94ED0E85E394E00E94B60E8AE993E014
:1037F0000E94B60E80E20E94B70E84EF94E00E9411
:10380000B60E81E594E00E94B60E8AED90E00E942B
:10381000C20E83E594E00E94B60E89E295E00E9414
:10382000B60E84E594E00E94B60E82E090E00E941D
:1038300060103092170820921608E091DE06F09191
:10384000DF060480F581E02D8EED96E01995ECCD34
:103850000E945B120E94ED0E85E394E00E94B60E7A
:103860008AE993E00E94B60E80E20E94B70E84EFD0
:1038700094E00E94B60E81E594E00E94B60E80EEC0
:1038800090E00E94C20E83E594E00E94B60E89E2A9
:1038900095E00E94B60E84E594E00E94B60E83E0A7
:1038A00090E00E946010D0931508C0931408E09136
:1038B000D106F091D2060480F581E02D81ED96E0ED
:1038C0001995BCCD0E945B120E94ED0E85E394E039
:1038D0000E94B60E8AE993E00E94B60E80E20E9432
:1038E000B70E84EF94E00E94B60E81E594E00E944A
:1038F000B60E86EE90E00E94C20E83E594E00E9430
:10390000B60E89E295E00E94B60E84E594E00E942E
:10391000B60E84E090E00E946010109313080093AC
:103920001208E091C406F091C5060480F581E02DEF
:1039300084EC96E019958CCD0E945B120E94ED0EEE
:1039400085E394E00E94B60E8AE993E00E94B60EE9
:1039500080E20E94B70E84EF94E00E94B60E81E5EB
:1039600094E00E94B60E8DEE90E00E94C20E83E5B8
:1039700094E00E94B60E89E295E00E94B60E84E5BE
:1039800094E00E94B60E85E090E00E94601087EB04
:1039900096E09093110880931008E091B706F0919B
:1039A000B8060480F581E02D19955CCDCF93DF93A7
:1039B0008230910510F482E090E0E0912508F091CA
:1039C000260820E030E0C0E0D0E0309711F14081DF
:1039D000518148175907C0F04817590761F482818F
:1039E0009381209719F09B838A832BC0909326089C
:1039F0008093250826C02115310519F04217530779
:103A000018F49A01BE01DF01EF010280F381E02D7D
:103A1000DCCF2115310509F1281B390B2430310584
:103A200090F412968D919C9113976115710521F078
:103A3000FB019383828304C090932608809325081A
:103A4000FD01329644C0FD01E20FF31F8193919373
:103A5000225031092D933C933AC020912308309194
:103A60002408232B41F42091050230910602309363
:103A70002408209323082091030230910402211589
:103A8000310541F42DB73EB740910702509108022D
:103A9000241B350BE0912308F0912408E217F3076B
:103AA000A0F42E1B3F0B2817390778F0AC014E5FAE
:103AB0005F4F2417350748F04E0F5F1F50932408BF
:103AC000409323088193919302C0E0E0F0E0CF019E
:103AD000DF91CF9108950F931F93CF93DF930097BA
:103AE00009F48CC0FC0132971382128200912508E0
:103AF000109126080115110581F420813181820F72
:103B0000931F20912308309124082817390779F54D
:103B1000F0932408E093230871C0D80140E050E0FE
:103B2000AE17BF0750F412962D913C911397AD013B
:103B30002115310509F1D901F3CF9D01DA01338354
:103B4000228360817181860F971F8217930769F422
:103B5000EC0128813981260F371F2E5F3F4F3183BB
:103B600020838A819B8193838283452B29F4F09360
:103B70002608E093250842C01396FC93EE93129713
:103B8000ED01499159919E01240F351FE217F3076A
:103B900071F480819181840F951F029611969C93F8
:103BA0008E938281938113969C938E931297E0E07B
:103BB000F0E0D80112968D919C911397009719F01F
:103BC000F8018C01F6CF8D919C9198012E5F3F4FAB
:103BD000820F931F2091230830912408281739075A
:103BE00069F4309729F4109226081092250802C033
:103BF000138212821093240800932308DF91CF913F
:103C00001F910F9108958F929F92AF92BF92CF9282
:103C1000DF92EF92FF92CF93DF93EC01688179817D
:103C20008A819B81611571058105910521F464E20A
:103C300079ED8BE597E02DE133EF41E050E038D0AE
:103C400049015A019B01AC01A7EAB1E44DD06B01D7
:103C50007C01ACEEB4EFA501940152D0DC01CB01A4
:103C60008C0D9D1DAE1DBF1DB7FF03C00197A1099F
:103C7000B04888839983AA83BB83BC01CD019F7719
:103C8000DF91CF91FF90EF90DF90CF90BF90AF90FA
:103C90009F908F900895B7CF89E092E0B4CF609362
:103CA000090270930A0280930B0290930C0208950C
:103CB000052E97FB16F400940FD057FD05D024D0A5
:103CC00007FC02D046F408C05095409530952195E8
:103CD0003F4F4F4F5F4F0895909580957095619538
:103CE0007F4F8F4F9F4F089531D0A59F900DB49F68
:103CF000900DA49F800D911D11240895B7FFF4CF5E
:103D0000F3DF821B930B0895A1E21A2EAA1BBB1BA3
:103D1000FD010DC0AA1FBB1FEE1FFF1FA217B30797
:103D2000E407F50720F0A21BB30BE40BF50B661FAD
:103D3000771F881F991F1A9469F760957095809571
:103D400090959B01AC01BD01CF010895A29FB001E8
:103D5000B39FC001A39F700D811D1124911DB29FBF
:103D6000700D811D1124911D08955058BB27AA275D
:103D70000ED04DC13ED130F043D120F031F49F3F01
:103D800011F41EF433C10EF4E095E7FB29C1E92FCD
:103D90004FD180F3BA17620773078407950718F0AD
:103DA00071F49EF567C10EF4E0950B2EBA2FA02D8D
:103DB0000B01B90190010C01CA01A0011124FF27D8
:103DC000591B99F0593F50F4503E68F11A16F040D3
:103DD000A22F232F342F4427585FF3CF46953795D2
:103DE0002795A795F0405395C9F77EF41F16BA0B97
:103DF000620B730B840BBAF09150A1F0FF0FBB1F45
:103E0000661F771F881FC2F70EC0BA0F621F731F8D
:103E1000841F48F4879577956795B795F7959E3FEA
:103E200008F0B3CF9395880F08F09927EE0F979578
:103E3000879508950CD0EBC0E3D040F0DAD030F095
:103E400021F45F3F19F0CCC0511115C1CFC0F0D0A3
:103E500098F39923C9F35523B1F3951B550BBB2751
:103E6000AA2762177307840738F09F5F5F4F220FFE
:103E7000331F441FAA1FA9F333D00E2E3AF0E0E8F7
:103E800030D091505040E695001CCAF729D0FE2F43
:103E900027D0660F771F881FBB1F261737074807D5
:103EA000AB07B0E809F0BB0B802DBF01FF2793588B
:103EB0005F4F2AF09E3F510568F092C0DCC05F3F23
:103EC000ECF3983EDCF3869577956795B795F79573
:103ED0009F5FC9F7880F911D9695879597F908956B
:103EE000E1E0660F771F881FBB1F62177307840707
:103EF000BA0720F0621B730B840BBA0BEE1F88F716
:103F0000E095089504D06894B111B5C0089598D093
:103F100088F09F5790F0B92F9927B751A0F0D1F0B2
:103F2000660F771F881F991F1AF0BA95C9F712C03C
:103F3000B13081F09FD0B1E008959CC0672F782FF9
:103F40008827B85F39F0B93FCCF3869577956795A8
:103F5000B395D9F73EF490958095709561957F4F14
:103F60008F4F9F4F0895E89409C097FB3EF49095BA
:103F70008095709561957F4F8F4F9F4F9923A9F042
:103F8000F92F96E9BB279395F695879577956795D1
:103F9000B795F111F8CFFAF4BB0F11F460FF1BC015
:103FA0006F5F7F4F8F4F9F4F16C0882311F096E9A8
:103FB00011C0772321F09EE8872F762F05C0662356
:103FC00071F096E8862F70E060E02AF09A95660F0F
:103FD000771F881FDAF7880F9695879597F90895C8
:103FE00097F99F6780E870E060E008959FEF80ECAC
:103FF000089500240A94161617061806090608954F
:1040000000240A9412161306140605060895092EB4
:104010000394000C11F4882352F0BB0F40F4BF2B23
:1040200011F460FF04C06F5F7F4F8F4F9F4F089563
:1040300057FD9058440F551F59F05F3F71F0479559
:10404000880F97FB991F61F09F3F79F0879508953E
:10405000121613061406551FF2CF4695F1DF08C05D
:10406000161617061806991FF1CF8695710561057A
:1040700008940895E894BB2766277727CB0197F922
:1040800008950BD0C4CFB5DF28F0BADF18F0952320
:1040900009F0A6CFABCF1124EECFCADFA0F3959FD6
:1040A000D1F3950F50E0551F629FF001729FBB271F
:1040B000F00DB11D639FAA27F00DB11DAA1F649FCB
:1040C0006627B00DA11D661F829F2227B00DA11D7E
:1040D000621F739FB00DA11D621F839FA00D611D04
:1040E000221F749F3327A00D611D231F849F600D25
:1040F000211D822F762F6A2F11249F5750408AF05E
:10410000E1F088234AF0EE0FFF1FBB1F661F771FE9
:10411000881F91505040A9F79E3F510570F060CF25
:10412000AACF5F3FECF3983EDCF3869577956795D1
:10413000B795F795E7959F5FC1F7FE2B880F911D07
:104140009695879597F908959F9305D00F9007FC52
:10415000EE5F28C04BCF74DFE8F3E894E0E0BB27C4
:104160009F57F0F02AED3FE049EC06C0EE0FBB0F81
:10417000661F771F881F28F0B23A6207730784070B
:1041800028F0B25A620B730B840BE3959A9572F781
:10419000803830F49A95BB0F661F771F881FD2F7BF
:1041A000904813C0EF93E0FF06C0A2EA2AED3FE07B
:1041B00049EC5FEBECDD2BDF0F90039401FC905892
:1041C000EAE3F1E00EC09F3F31F0915020F4879573
:1041D00077956795B795880F911D9695879597F96F
:1041E00008959F938F937F936F93FF93EF939B011A
:1041F000AC0147DFEF91FF9105D02F913F914F9197
:104200005F913FCFDF93CF931F930F93FF92EF9276
:10421000DF927B018C01689405C0DA2EEF013DDF4F
:10422000FE01E894A5912591359145915591AEF304
:10423000EF01ADDDFE019701A801DA9479F7DF9077
:10424000EF90FF900F911F91CF91DF910895EE0FA6
:10425000FF1F881F8BBF0790F691E02D199476DD24
:10426000B7FF0895821B930B089581E090E0F894C6
:1042700007C0DC0101C06D9341505040E0F7089544
:1042800011E0CDE3D1E000E005C0802FFE01DFDFCB
:104290002196011DCE33D10780E00807B1F7F894CD
:0242A000FFCF4E
:1042A2000E000000002708800001000000766972FD
:1042B2007475616C20766F6964204465617468531B
:1042C2007461724578706C6F64653A3A73746172A6
:1042D20074536365656E282900766F6964204465AE
:1042E200617468537461724578706C6F64653A3AB0
:1042F200646F466C61736832282900766F696420A6
:104302004465617468537461724578706C6F64655A
:104312003A3A646F46617374426C61636B28290098
:10432200766F69642044656174685374617245787C
:10433200706C6F64653A3A646F466C6173683128D9
:104342002900766F696420446561746853746172F0
:104352004578706C6F64653A3A646F52696E67545F
:1043620068726F622829007669727475616C2076B2
:104372006F696420446561746853746172506C6142
:104382007947616D653A3A73746172745363656516
:104392006E2829000204080C141E2D7669727475A9
:1043A200616C20766F6964204D6F727365436F6430
:1043B200653A3A7374617274536365656E282900B5
:1043C200000000002A099408C3087009F408D20802
:1043D200E6080000000093087601AC03EC0500003B
:1043E20000002D047001A1057A010000000091086F
:1043F200740100000000E714DC09000000002C0436
:1044020072015F057F04000000000515C3139914B3
:10441200C7130000000000000000FC11FC110000A6
:1044220000000415C1135913B112000000009208D4
:104432007801000000005315C513766F6964206C83
:104442006F6F702829007669727475616C20766FBF
:104452006964205469654669676874657245787055
:104462006C6F64653A3A7374617274536365656E16
:10447200282900766F696420546965466967687403
:104482006572506C61797347616D653A3A6C696E19
:104492006B4669676874657228546965466967681E
:1044A2007465722A29007669727475616C20766F60
:1044B20069642054696546696768746572506C6105
:1044C200797347616D653A3A7374617274536365C7
:1044D200656E2829003A5B20002E2E5C44656174CB
:1044E20068537461724578706C6F64652E63707086
:1044F200003A005D20200044656174685374617263
:104502004578706C6F64653A3A7374617274536380
:1045120065656E2829002E2E5C4D6F727365436FA0
:1045220064652E637070002E2E5C4465617468535E
:10453200746172506C617947616D652E63707000B1
:10454200446561746853746172506C617947616D3E
:10455200653A3A7374617274536365656E28290013
:1045620072696E67205468726F62206368616E6759
:104572006520737461746500466C6173683100462E
:1045820061737420426C61636B00466C61736832C4
:10459200000D0A002E2E5C446561746853746172CA
:1045A200323031382E696E6F0056656E7420506F4E
:1045B20072742048697420005472756500546172E7
:1045C20067657420757020200054617267657420DD
:1045D200446F776E2020002E2E5C54696546696711
:1045E20068746572506C61797347616D652E637092
:1045F200700054696546696768746572506C6179C8
:104602007347616D653A3A73746172745363656599
:104612006E2829002E2E5C546965466967687465A8
:10462200724578706C6F64652E63707000546965B2
:10463200466967687465724578706C6F64653A3A6A
:104642007374617274536365656E282900546965D9
:1046520046696768746572506C61797347616D650C
:0A4662003A3A4C696E6B6564200063
:00000001FF
