:100000003DC100006CC100006AC1000068C1000071
:1000100066C1000064C1000062C1000060C1000050
:100020005EC100005CC100005AC1000058C1000060
:1000300056C1000054C1000052C1000050C1000070
:100040004EC100004CC100004AC1000048C1000080
:1000500046C1000044C1000042C100000C940311DD
:100060003EC1000098C700006DC7000038C1000005
:1000700036C1000034C1000032C1000030C10000B0
:100080002EC100002CC100002AC1000028C10000C0
:1000900026C1000024C1000022C1000020C10000D0
:1000A0001EC100001CC100001AC1000018C10000E0
:1000B00016C1000014C1000012C1000010C10000F0
:1000C0000EC100000CC100000AC1000008C1000000
:1000D00006C1000004C1000002C1000000C1000010
:1000E000FEC00000B2033904B904110548059705A4
:1000F000C805650F680F570F5B0F610F9F0F6C0FDF
:10010000700F760F7A0F7E0F840F880F8C0F9F0F62
:10011000920F960F9A0F321037103C104610501065
:10012000C9105A1062106A1074107E10881097104F
:10013000A110C910AB10B510BF1005A84CCDB2D49A
:100140004EB93836A9020C50B9918688083CA6AA47
:10015000AA2ABE000000803F0000200023002600E5
:1001600029002C002F0032000001000003010601CD
:10017000090105050505070508080808020202022D
:100180000A0A080804040404010101010101010133
:100190000303030303030303040707070C0C0C0CFE
:1001A0000C0C0C0C020202020606060606060606E7
:1001B0000B0B0B0B0B0B0B0B010210202008081074
:1001C00020401020408002010201080402010102C7
:1001D00004081020408080402010080402018004A0
:1001E00002018040201008040201080402010102FB
:1001F0000408102040800102040810204080000004
:100200000A0B02090C0D0E08070304010000000090
:1002100000000000000000000000000000000000DE
:10022000000000000000000000001211100000009B
:1002300000000000000000000000000000000000BE
:100240000000000000002100240027002A002D00EB
:100250003000330001010000040107010A01000021
:100260002200250028002B002E003100340002015E
:100270000000050108010B010316F71511241FBE2C
:10028000CFEFD1E2DEBFCDBF00E00CBF15E0A0E0B4
:10029000B2E0E2EBF6E300E00BBF02C007900D9284
:1002A000A03FB107D9F727E0A0EFB5E001C01D924C
:1002B000AF3DB207E1F711E0CDE3D1E000E006C0C9
:1002C00021970109802FFE010E942F1BCC33D107FB
:1002D00080E00807A9F70E944D110C94481B90CEAE
:1002E000CF93DF93EC010E94F7100E94450D85E447
:1002F00094E00E940E0D8CE993E00E940E0D80E2C6
:100300000E940F0D89E494E00E940E0D84E694E0B3
:100310000E940E0D87E290E00E941A0D86E694E09E
:100320000E940E0D8AE694E00E94020D1B861A863A
:100330001A821B821C821D82E885F98581E08787ED
:10034000DF91CF910895FC011282138214821582ED
:10035000138612860E94F7100E94450D85E494E0F2
:100360000E940E0D8FE093E00E940E0D80E20E942D
:100370000F0D8CE894E00E940E0D84E694E00E943C
:100380000E0D86E290E00E941A0D86E694E00E942F
:100390000E0D85EA94E00C94020DCF93DF93EC01EF
:1003A0000E94F7106F87788B898B9A8B1E861D862B
:1003B0001C861A821B821C821D820E94F7100E94DA
:1003C000450D85E494E00E940E0D8AE092E00E94C3
:1003D0000E0D80E20E940F0D85EC94E00E940E0D40
:1003E00084E694E00E940E0D80E390E00E941A0DD6
:1003F00086E694E00E940E0D8DED94E0DF91CF91A2
:100400000C94020D0C9478170C9478170C947817B0
:100410000C9478170C9478170C9478170C94781720
:10042000CF92DF92EF92FF920F931F93CF93DF93C0
:100430008C016A017B01C0E0D0E0A7019601BE01FA
:10044000F801828193810E94560A2196C233D10518
:10045000A1F7F80182819381DF91CF911F910F91D4
:10046000FF90EF90DF90CF900C94C20ACF92DF9272
:10047000EF92FF920F931F93CF93DF93EC01CA800B
:10048000DB80EC80FD800E94F7106C157D058E05E9
:100490009F0508F4B4C08A859B858130910509F4D5
:1004A00048C08230910509F47DC0892B09F0A7C0AE
:1004B00008851985F801628170E02FEF3FEF4FEF5B
:1004C00050E083859485F2D7F801638170E02FEFC7
:1004D0003FEF4FEF50E083859485E8D7E884F984B7
:1004E00087010C5F1F4F6701FAE0CF0ED11CF801A6
:1004F00061918F0170E020EF30EF4FEF50E0F70196
:1005000083859485D3D70C151D0589F7E885F98572
:10051000838594850E94C20A82E090E09B878A8747
:100520000E94F710DC01CB01845D9E4FAF4FBF4F9F
:1005300062C06EEF7FEF888599850E941B0E082FA1
:1005400047EE5FEF67EE7FEF888599850E94870E03
:10055000182FE885F985838594850E94C20A61E099
:1005600089E20E94A00F0E94F710DC01CB010596E2
:10057000A11DB11D8A839B83AC83BD832E813F81E6
:10058000215031093F832E83100FC9F582E090E09E
:100590009B878A870E94F710DC01CB010596A11D7D
:1005A000B11D29C066EF7FEF888599850E941B0EDB
:1005B000082F42EE5FEF62EE7FEF888599850E94FB
:1005C000870E182FE885F98583859485DBD70E94EF
:1005D000F710DC01CB010596A11DB11D8A839B8319
:1005E000AC83BD83100F59F40E94F710DC01CB01DE
:1005F000945AA94DBA4F8A839B83AC83BD83DF9104
:10060000CF911F910F91FF90EF90DF90CF900895C1
:10061000CF93DF93EC011B861A861A821B821C8201
:100620001D820E94F7100E94450D85E494E00E940F
:100630000E0D8CE393E00E940E0D80E20E940F0DE0
:100640008CEF94E00E940E0D84E694E00E940E0D63
:1006500088E290E00E941A0D86E694E00E940E0D5A
:1006600085E195E00E94020D61E089E20E94A00F01
:10067000E885F985178660E070E08585DF91CF9188
:100680000C940B10CF92DF92EF92FF920F931F9377
:10069000CF93DF93EC01CA80DB80EC80FD800E9469
:1006A000F7106C157D058E059F0590F18A859B8559
:1006B000892B71F500E010E720E030E047EE5FEFB6
:1006C00067EE7FEF888599850E94B10DE885F985F1
:1006D00084818F5F883110F4848301C01482648127
:1006E00070E020ED30ED40ED50E082819381DED668
:1006F000E885F9858281938145D70E94F710DC0156
:10070000CB01C296A11DB11D8A839B83AC83BD839F
:10071000DF91CF911F910F91FF90EF90DF90CF90DD
:100720000895CF92DF92EF92FF920F931F93CF9392
:10073000DF93EC01CA80DB80EC80FD800E94F71023
:100740006C157D058E059F0508F476C2EC85FD8548
:10075000E730F10508F070C28827EE58FF4F8F4F41
:100760000C942F1B0E94F71042E3C42ED12CE12CD5
:10077000F12CA70196010E949118CA01B901A701A5
:1007800096010E9491180E945B192BED3FE049E40D
:1007900050E40E94E91920E030E048E452E40E946D
:1007A000C2180E944C1A20E030E04FE753E40E9448
:1007B000E9190E942A19AB01770F660B770BBA0172
:1007C00055274427888599850E94170C0E94F710A9
:1007D000DC01CB01C296A11DB11D8A839B83AC8332
:1007E000BD83CF84D888E988FA8880EDC80E87E079
:1007F000D81EE11CF11C0E94F710C616D706E806A9
:10080000F90608F019C20E94F7106F87788B898B60
:100810009A8B1E8681E090E09D878C870E94F7105E
:100820000E94450D85E494E00E940E0D8AEE92E050
:100830000E940E0D80E20E940F0D85EC94E00E9454
:100840000E0D84E694E00E940E0D8DE790E00E946C
:100850001A0D86E694E00E940E0D85E395E0DF9187
:10086000CF911F910F91FF90EF90DF90CF900C945C
:10087000020D0E94F71022E3C22ED12CE12CF12CA4
:10088000A70196010E949118CA01B901A70196011A
:100890000E9491180E945B192BED3FE049E450E45F
:1008A0000E94E91920E030E048E452E40E94C218B6
:1008B0000E944C1A20E030E04FE753E40E94E9190F
:1008C0000E942A196B01770FEE08FF087601DD24DC
:1008D000CC24B701A60188859985A9D70E94F71075
:1008E0000F85188929893A89601B710B820B930B3C
:1008F00026E930E040E050E00E9491182E8700E0A9
:1009000010E08E8590E0EA85FB85081719074CF406
:10091000A7019601B80182819381C8D50F5F1F4F4F
:10092000F0CF828193812ED68E85823310F081E3C1
:100930008E870E94F710DC01CB01C296A11DB11D6C
:100940008A839B83AC83BD83CF84D888E988FA8867
:1009500088E2C80E83E2D81EE11CF11C0E94F71049
:10096000C616D706E806F90608F066C182E090E0F0
:1009700058C10E94F7100E94450D85E494E00E9442
:100980000E0D86EC92E00E940E0D80E20E940F0D8B
:1009900085EC94E00E940E0D84E694E00E940E0D1A
:1009A00085EC90E00E941A0D86E694E00E940E0D00
:1009B0008DE495E00E94020D00E010E020E430E0BC
:1009C0004CEE5FEF60E070E0888599850E94B10D84
:1009D000F82EE885F98582819381D4D500E010E076
:1009E00020E430E04CEE5FEF66EF7FEF8A859B8579
:1009F0000E94470D182FEA85FB8582819381C2D51D
:100A00000E94F710DC01CB01C296A11DB11D8A83A3
:100A10009B83AC83BD831F0D09F00EC183E090E082
:100A200000C10E94F7100E94450D85E494E0F6D7BE
:100A300084EA92E0F3D780E2F2D785EC94E0EED737
:100A400084E694E0EBD787EA90E0F4D786E694E07A
:100A5000E5D78DE595E0D6D74FEF5FEF6FEF70E00C
:100A600088859985E4D640E85FEF6FEF70E08A856E
:100A70009B85D6DC0E94F710DC01CB014E96A11DB0
:100A8000B11D8A839B83AC83BD8384E090E0C9C0A1
:100A90000E94F710FAD785E494E0C0D78FE792E080
:100AA000BDD780E2BCD785EC94E0B8D784E694E06B
:100AB000B5D780EB90E0BED786E694E0AFD784E66A
:100AC00095E0A0D70E94F710E0D785E494E0A6D780
:100AD0008FE792E0A3D780E2A2D785EC94E09ED77F
:100AE00084E694E09BD781EB90E0A4D786E694E07F
:100AF00095D78DE595E086D740E050E0BA0188852E
:100B0000998595D640E050E0BA018A859B8588DCBE
:100B10000E94F710DC01CB0180579E4FAF4FBF4FB3
:100B20008A839B83AC83BD8385E090E07AC00E947A
:100B3000F710ABD785E494E071D78DE592E06ED7DE
:100B400080E26DD785EC94E069D784E694E066D7BF
:100B50008BEB90E06FD786E694E060D78FE695E068
:100B600051D74FEF5FEF6FEF70E0888599855FD6C3
:100B700040E85FEF6FEF70E08A859B8551DC0E9453
:100B8000F710DC01CB0184549D4FAF4FBF4F43C0E2
:100B90000E94F7107AD785E494E040D786E392E08C
:100BA0003DD780E23CD785EC94E038D784E694E0EA
:100BB00035D788ED90E03ED786E694E02FD786E7DC
:100BC00095E020D700E010E098014CEE5FEF66EF73
:100BD0007FEF88859985C5D7F82EE885F9858281CC
:100BE0009381D0D400E010E0980141EF5FEF64EF13
:100BF0007FEF8A859B854BD7182FEA85FB858281FD
:100C00009381C0D41F0D81F00E94F710DC01CB014D
:100C10004496A11DB11D8A839B83AC83BD8386E06E
:100C200090E09D878C8708C080E09CE5A6E2B5E057
:100C30008A839B83AC83BD83DF91CF911F910F91FA
:100C4000FF90EF90DF90CF900895FC01718760874F
:100C50000E94F7101AD785E494E0E0D689E693E085
:100C6000DDD680E2DCD689E494E0D8D684E694E050
:100C7000D5D68AE190E0DED686E694E0CFD684E849
:100C800095E0C0C608950895CF93DF93EC018A855F
:100C9000833009F445C0C8F4813081F1823009F015
:100CA00066C088E08D8780E28E878DE08A838EE043
:100CB0008B838AE08C838BE08D838CE08E838FE046
:100CC0008F8380E1888781E151C08430E9F18530EC
:100CD00009F04DC08BE08D8783E28E878BE28A839B
:100CE0008CE28B8388E28C8389E28D838AE28E8317
:100CF0008DE28F838EE288878FE238C097E09D87F0
:100D00002FE12E8723E02A8324E02B831C828D830E
:100D100082E08E8385E08F8386E08887998727C06D
:100D200089E08D8781E28E8787E18A8388E18B83E2
:100D300084E18C8385E18D8386E18E8389E18F83D5
:100D40008AE188878BE112C08AE08D8782E28E87F4
:100D500091E29A838B838EE18C838FE18D8380E295
:100D60008E8383E28F8384E2888785E2898761E0CE
:100D70008D850E94CF0F62E08E85DF91CF910C941C
:100D8000CF0FFC0186850E94220F21E0892B09F4F8
:100D900020E0822F089508950895089508950895F4
:100DA000CF92DF92EF92FF920F931F93CF93DF9337
:100DB0006C017A018B01C0E0D0E0CE15DF0589F02F
:100DC000D8016D918D01D601ED91FC910190F081DA
:100DD000E02DC6011995892B11F47E0102C02196E0
:100DE000ECCFC701DF91CF911F910F91FF90EF9052
:100DF000DF90CF900895089580E090E00895FC0181
:100E0000538D448D252F30E0842F90E0821B930B6F
:100E1000541710F0CF96089501970895FC01918D15
:100E2000828D981761F0828DDF01A80FB11D5D964C
:100E30008C91928D9F5F9F73928F90E008958FEFBA
:100E40009FEF0895FC01918D828D981731F0828D6E
:100E5000E80FF11D858D90E008958FEF9FEF0895C5
:100E60000E943D1B81E096E0CCD021E0892B09F463
:100E700020E0822F0895EF92FF920F931F93CF935C
:100E8000DF93EC0181E0888F9B8D8C8D981305C0DA
:100E9000E889F989808185FD23C0F62E0B8D10E04D
:100EA0000F5F1F4F0F731127E02E8C8DE8120BC0C0
:100EB0000FB607FCFACFE889F989808185FFF5CF65
:100EC000CE01ADD1F2CF8B8DFE01E80FF11DE35ABB
:100ED000FF4FF0820B8FEA89FB898081806207C017
:100EE000EE89FF896083E889F98980818064808345
:100EF00081E090E0DF91CF911F910F91FF90EF90F3
:100F00000895CF93DF93EC01888D8823C1F0EA899F
:100F1000FB89808185FD05C0A889B9898C9186FDF2
:100F20000EC00FB607FCF5CF808185FFF2CFA889F0
:100F3000B9898C9185FFEDCFCE0171D1E8CFDF91DA
:100F4000CF9108951F920F920FB60F9211240BB6F6
:100F50000F922F933F934F935F936F937F938F9352
:100F60009F93AF93BF93EF93FF9381E096E057D1A8
:100F7000FF91EF91BF91AF919F918F917F916F9171
:100F80005F914F913F912F910F900BBE0F900FBE2D
:100F90000F901F9018951F920F920FB60F92112469
:100FA0000BB60F922F938F939F93EF93FF93E09144
:100FB0001106F09112068081E0911706F091180653
:100FC00082FD12C0908180911A068F5F8F732091ED
:100FD0001B06821751F0E0911A06F0E0EF5FF94F1F
:100FE000958F80931A0601C08081FF91EF919F91A8
:100FF0008F912F910F900BBE0F900FBE0F901F90EF
:101000001895FC01918D228D892F90E0805C9F4F77
:10101000821B91098F739927089580E090E0892BB6
:1010200019F020DF811125C080E090E0892B41F08C
:1010300080E090E0892B21F00E94000081111CC00B
:1010400080E090E0892B41F080E090E0892B21F056
:101050000E940000811113C080E090E0892BA1F074
:1010600080E090E0892B81F00E94000081110AC08D
:1010700008950E940000D8CF0E940000E1CF0E9496
:101080000000EACF0C9400000895CF93DF93EC01A9
:1010900088859985009711F00E9478178E8187FDC9
:1010A00004C060E0DF91CF917AC7DF91CF910895BE
:1010B0000C9478178F929F92AF92BF92CF92DF924B
:1010C000EF92FF920F931F93CF93DF93EC01CA80AF
:1010D000DB80EC80FD800E94F7106C157D058E058D
:1010E0009F0508F48FC08A859B858130910509F49E
:1010F0004BC0C4F5892B09F085C00E94591825E022
:1011000030E040E050E00E9465184B015C012FEF99
:10111000821A920AA20AB20AE885F985028510E0CD
:10112000015011090E94F7106B017C0120E931E0A8
:10113000D8010E94371BC60ED71EE81EF91EA0ED6F
:10114000B7E0A50194010E948118DC01CB018C0D50
:101150009D1DAE1DBF1D8A839B83AC83BD8381E033
:1011600090E02BC08230910559F1039709F04AC0F5
:101170000E94F710DC01CB01945AA94DBA4F8A8323
:101180009B83AC83BD833EC060E088E2D9D60E94D9
:10119000F710DC01CB0188519C4FAF4FBF4F8A83C2
:1011A0009B83AC83BD838FEF8C87E885F9856FEFD8
:1011B00070E0858530D782E090E09B878A8722C0E7
:1011C00060E088E2BDD60E94F710DC01CB01889672
:1011D000A11DB11D8A839B83AC83BD836C856E5139
:1011E0006C8770E0E885F985858515D78C8589320F
:1011F00048F41C86E885F98560E070E085850BD7AA
:101200001B861A86DF91CF911F910F91FF90EF906F
:10121000DF90CF90BF90AF909F908F900895FC018A
:10122000848DDF01A80FB11DA35ABF4F2C91848D6F
:1012300090E001968F739927848FA689B7892C93A4
:10124000A089B1898C9180648C93938D848D98133F
:1012500006C00288F389E02D80818F7D8083089508
:101260004F925F926F927F928F929F92AF92BF92B6
:10127000CF92DF92EF92FF920F931F93CF93DF9362
:10128000DC0112968D919C9113976817790708F0ED
:10129000F9C01D968C911D971A96EC901A97189686
:1012A000ED91FC91199717968C901797482F50E065
:1012B0001B961C911B971C960C91EB018E1164C020
:1012C000CC0FDD1FC60FD71FCE0FDF1F882009F4FC
:1012D00043C0912CA12CB12CFE01E40FF51F6081BD
:1012E00070E0762F6627072E000C880B990BA5015E
:1012F00094010E949118390155244424FE01E10F04
:10130000F11D608170E0762F6627072E000C880B98
:10131000990BA50194010E949118B42FA32F922F2D
:10132000882773016201C82AD92AEA2AFB2AC00F3A
:10133000D11D688170E0762F6627072E000C880B80
:10134000990BA50194010E949118C701B601622B67
:10135000732B842B952B99C0FE01E40FF51F208180
:10136000FE01E10FF11D6081862F90E0A0E0B0E06A
:10137000BA2FA92F982F8827A22BC00FD11D288103
:10138000BC01CD01622B81C0CC0FDD1FCC0FDD1F56
:10139000CE0FDF1FF12C882009F458C0912CA12C0E
:1013A000B12CFE01E40FF51F608170E0762F6627F7
:1013B000072E000C880B990BA50194010E9491182F
:1013C000722E662455244424FE01EE0DFF1D60811B
:1013D00070E0762F6627072E000C880B990BA5016D
:1013E00094010E9491187901DD24CC24C428D528C9
:1013F000E628F728FE01E00FF11D608170E0762FEE
:101400006627072E000C880B990BA50194010E94FA
:101410009118C22AD32AE42AF52AC10FD11D688166
:1014200070E0762F6627072E000C880B990BA5011C
:1014300094010E949118B42FA32F922F8827BC01EA
:10144000CD016C297D298E299F291FC0FE01E40F43
:10145000F51F2081FE01EE0DFF1D6081862F90E0BB
:10146000A0E0B0E0DC0199278827B22BFE01E00F55
:10147000F11D2081822BC10FD11D2881BC01CD011E
:10148000722B03C060E070E0CB01DF91CF911F9120
:101490000F91FF90EF90DF90CF90BF90AF909F9013
:1014A0008F907F906F905F904F9008958F929F9252
:1014B000AF92BF92CF92DF92EF92FF920F931F9362
:1014C000CF93DF93FC01828193816817790708F03D
:1014D0004CC04A01AA24BB24B82DC32ED42EE52E1D
:1014E000FF24AC2D922F8781882361F0889E4001D4
:1014F0001124B92DC89E60011124AD2D289FE00153
:1015000011249D2FD584C285E084F184DC1208C0AB
:101510009B01220F331F620F731F6E0D7F1D16C0BC
:10152000660F771F660F771F6E0D7F1D052F112722
:1015300022273327EB01CD0DD11D882329F0089FE9
:1015400090011124232F01C0202F28838285EB01D5
:10155000C80FD11DB8838385EB01C80FD11DA883A7
:101560008485FB01E80FF11D9083DF91CF911F91DE
:101570000F91FF90EF90DF90CF90BF90AF909F9032
:101580008F900895CF92DF92EF92FF920F931F9367
:10159000CF93DF93CDB7DEB729970FB6F894DEBFB0
:1015A0000FBECDBF8C01DC0118968D919C911997CF
:1015B000892B09F4A1C0F6D5F801C684D784E08848
:1015C000F188DC01CB018C199D09AE09BF098C3271
:1015D0009140A105B10578F3F894D80114968D9146
:1015E0009C9115979A8389831896ED91FC91199790
:1015F0007F01BFEFEB1AFB0A80818987F801908198
:101600000288F389E02DD80154968C91992309F42E
:1016100030C09081982B98879081809589238F8303
:101620008F818C8388E08B8358856F8149853B81CE
:101630002C8189819A81D701508347FD252F3A95C6
:101640002083262F39F0441F00C000006083000073
:1016500000C0F2CF38E04D9160830000019761F740
:10166000D8015396FC93EE93529749873B832C8382
:101670003AC09081982B98879081809589238F8399
:101680008F818E8388E08D8358856F8149853D8168
:101690002E8189819A81D701508347FD252F00C073
:1016A00000C0208300C000C000C000C000C0608334
:1016B0000000262F3A9541F0441F000000C000C0F2
:1016C00000C000C000C0E8CF38E04D9100C060838A
:1016D00000C0019709F7D8015396FC93EE935297F7
:1016E00049873D832E839A83898378945BD5F8015B
:1016F00066877787808B918B29960FB6F894DEBF2B
:101700000FBECDBFDF91CF911F910F91FF90EF9052
:10171000DF90CF900895CF93DF93EC018E8187FD0A
:1017200005C061E03CD460E08E810AD481E0898309
:10173000DF91CF910895CF92DF92EF92FF921F93A6
:10174000CF93DF93EC017B01142F19821F821E8639
:101750001F86188A198AC90146E0969587954A9589
:10176000E1F7482F43704D87C90154E0969587955E
:101770005A95E1F783708A87B901769567957695D2
:10178000679563706B87922F93709C8791E02F3FD2
:10179000310511F008F090E09883481719F084E0C3
:1017A00090E002C083E090E08E9D60018F9DD00CA0
:1017B0009E9DD00C1124DD82CC82C6010E94E316CE
:1017C00099878887009741F0A60160E070E00E9449
:1017D000411BFB82EA8204C01D821C821B821A828A
:1017E0001E838981882331F061E0812FD8D360E0A6
:1017F000812FA6D3812F90E0FC01EE58FE4FE4919B
:10180000F0E0EE0FFF1FE25AFD4F259134913B8B24
:101810002A8BFC01E854FE4FE491EC8BDF91CF91D1
:101820001F91FF90EF90DF90CF9008950895CF9291
:10183000DF92EF92FF920F931F93CF93DF938C0170
:101840006A017B01C0E0D0E0A7019601BE01F8016A
:10185000828193812BDE2196C831D105A9F7F80149
:1018600082819381DF91CF911F910F91FF90EF9033
:10187000DF90CF9087CE6F927F928F929F92AF92A0
:10188000BF92CF92DF92EF92FF920F931F93CF936D
:10189000DF9338017724812E922EA32EBB24F401EE
:1018A000FF27D601BB278D2C9E2CAF2CBB245401C7
:1018B000BB24CE2DD0E0820F911D8C179D073CF0EC
:1018C0008F3F910529F024F08FEF90E001C0CE0109
:1018D0008F01060F171F0A151B053CF00F3F11055E
:1018E00029F024F00FEF10E001C08501460D571DCF
:1018F0004A175B073CF04F3F510529F024F04FEFAA
:1019000050E001C0AD01012E000C220B330B322F31
:10191000212F102F0027092E000CAA0BBB0BDC0176
:1019200099278827802B912BA22BB32B052E000CF7
:10193000660B770B8C019D01042B152B262B372B67
:10194000C901B801DF91CF911F910F91FF90EF90E6
:10195000DF90CF90BF90AF909F908F907F906F90CF
:101960000895009761F0FC0101900020E9F731979C
:10197000AF01481B590BBC0181E096E011CA80E021
:1019800090E008958F929F92AF92BF920F931F9312
:10199000CF93DF93CDB7DEB7A1970FB6F894DEBF34
:1019A0000FBECDBF19A2423008F44AE08E010F5D90
:1019B0001F4F842E912CA12CB12CA50194010E94C3
:1019C0009118E62FB901CA0101501109EA3014F447
:1019D000E05D01C0E95CD801EC93232B242B252B7F
:1019E00061F7C801BEDFA1960FB6F894DEBF0FBE47
:1019F000CDBFDF91CF911F910F91BF90AF909F907E
:101A00008F900895CF93DF93ACDFEC018DEE95E0DE
:101A1000A8DF8C0F9D1FDF91CF910895A2CFE09199
:101A20000106F09102060190F081E02D682F81E01F
:101A300096E01994CF92DF92EF92FF92CF93DF93CB
:101A40006C01990FEE08FF08F7FE15C08DE2E7DF85
:101A5000EC0166277727CB016C197D098E099F0958
:101A60004AE090DF8C0F9D1FDF91CF91FF90EF90A8
:101A7000DF90CF9008954AE0C701B601DF91CF9182
:101A8000FF90EF90DF90CF907DCF4AE07BCF2F92F9
:101A90003F924F925F926F927F928F929F92AF92FE
:101AA000BF92CF92DF92EF92FF920F931F93CF934B
:101AB000DF93CDB7DEB728970FB6F894DEBF0FBE21
:101AC000CDBF9A8389835B011A010B831C832D830D
:101AD0003E8318861F82E981FA81828093806F811C
:101AE0007885C401BDDB2B013C01CB80DC80ED801F
:101AF000FE808B019C014CEE5FEFB101C501BBDEA6
:101B00006B017C019B01AC016F817885C401CEDC47
:101B10008F819885019698878F83C297E1F681E03F
:101B200090E04C145D046E047F0411F480E090E0BA
:101B300028960FB6F894DEBF0FBECDBFDF91CF91D0
:101B40001F910F91FF90EF90DF90CF90BF90AF90DB
:101B50009F908F907F906F905F904F903F902F90CD
:101B600008952F923F924F925F926F927F928F9241
:101B70009F92AF92BF92CF92DF92EF92FF920F931C
:101B80001F93CF93DF93CDB7DEB728970FB6F894A6
:101B9000DEBF0FBECDBF9A8389835B011A010B8321
:101BA0001C832D833E8318861F82E981FA818280FF
:101BB00093806F817885C40153DB2B013C01CB807E
:101BC000DC80ED80FE808B019C01A1016CEE7FEF3B
:101BD000C50151DE6B017C019B01AC016F817885F1
:101BE000C40164DC8F819885019698878F8348971C
:101BF000E1F681E090E04C145D046E047F0411F482
:101C000080E090E028960FB6F894DEBF0FBECDBFFF
:101C1000DF91CF911F910F91FF90EF90DF90CF90C8
:101C2000BF90AF909F908F907F906F905F904F90FC
:101C30003F902F9008952F923F924F925F926F9214
:101C40007F928F929F92AF92BF92CF92DF92EF924C
:101C5000FF920F931F93CF93DF93CDB7DEB72797F4
:101C60000FB6F894DEBF0FBECDBF5C017D836C83E1
:101C70001C0122E0220E311C04969B838A83198268
:101C8000F10181911F01282F30E03F832E83F50160
:101C900083849484B901C401E3DA2B013C01C12C93
:101CA000D12C76018B019C014CEE5FEF6CEE7FEF47
:101CB0008C819D81E0DD9B01AC01461657066806CC
:101CC000790611F0F1E0F9836E817F81C401EEDBCA
:101CD0002A813B812216330699F6898127960FB611
:101CE000F894DEBF0FBECDBFDF91CF911F910F9152
:101CF000FF90EF90DF90CF90BF90AF909F908F902C
:101D00007F906F905F904F903F902F9008952F920B
:101D10003F924F925F926F927F928F929F92AF927B
:101D2000BF92CF92DF92EF92FF920F931F93CF93C8
:101D3000DF93CDB7DEB729970FB6F894DEBF0FBE9D
:101D4000CDBF5C017D836C835F834E831C0124E0E7
:101D5000220E311C0A969B838A831982F10181919C
:101D60001F01282F30E039872887F5018384948468
:101D7000B901C40175DA2B013C01C12CD12C7601CB
:101D80008B019C014E815F816C817D8181EF9FEF92
:101D900072DD9B01AC01461657066806790611F004
:101DA000F1E0F98368857985C40180DB2A813B8174
:101DB0002216330699F6898129960FB6F894DEBF6C
:101DC0000FBECDBFDF91CF911F910F91FF90EF908C
:101DD000DF90CF90BF90AF909F908F907F906F904B
:101DE0005F904F903F902F900895CF92DF92EF92A7
:101DF000FF92CF93DF936C01990FEE08FF08F7FE77
:101E000010C08DE20CDEEC0166277727CB016C1940
:101E10007D098E099F094AE0B5DD7C01EC0EFD1EAF
:101E200005C04AE0C701B601ADDD7C018DEE95E04D
:101E300098DD8E0D9F1DDF91CF91FF90EF90DF9089
:101E4000CF900895CF93DF93282F30E0F901E2502F
:101E5000FE4F8491F901E854FE4FD491F901EE58F8
:101E6000FE4FC491CC2389F0811114D0EC2FF0E007
:101E7000EE0FFF1FE85AFE4FA591B491EC91ED23B0
:101E800081E090E021F480E002C080E090E0DF910A
:101E9000CF91089590E0FC013197E231F10508F00F
:101EA0004EC08827E758FF4F8F4F0C942F1B80910F
:101EB00080008F7703C0809180008F7D80938000A9
:101EC000089580918000877FF9CF84B58F7702C015
:101ED00084B58F7D84BD08958091B0008F7703C055
:101EE0008091B0008F7D8093B00008958091900024
:101EF0008F7707C0809190008F7D03C08091900004
:101F0000877F8093900008958091A0008F7707C00D
:101F10008091A0008F7D03C08091A000877F809377
:101F2000A0000895809120018F7707C08091200143
:101F30008F7D03C080912001877F809320010895C9
:101F40001F93CF93DF93282F30E0F901E250FE4F2B
:101F50008491F901E854FE4FD491F901EE58FE4FF7
:101F6000C491CC23C1F0162F811194DFEC2FF0E047
:101F7000EE0FFF1FE25AFD4FA591B4918FB7F89471
:101F8000111105C09C91ED2FE095E92302C0EC9161
:101F9000ED2BEC938FBFDF91CF911F910895CF93DD
:101FA000DF9390E0FC01E854FE4F2491FC01EE58D1
:101FB000FE4F8491882361F190E0880F991FFC0106
:101FC000EC5BFD4FC591D491FC01E25AFD4FA59108
:101FD000B491611109C09FB7F8948881209582233C
:101FE0008883EC912E230BC0623061F49FB7F89484
:101FF0003881822F809583238883EC912E2B2C931C
:102000009FBF06C08FB7F894E8812E2B28838FBF1F
:10201000DF91CF9108951F93CF93DF93182FEB019A
:1020200061E0BDDF209711F460E004C0CF3FD1052F
:1020300031F461E0812FDF91CF911F9181CFE12FAA
:10204000F0E0E250FE4FE4914E2F50E0FA0131975C
:10205000E231F10508F09DC08827E557FF4F8F4F0B
:102060000C942F1B84B5806884BDC7BD97C084B510
:10207000806284BDC8BD92C08091800080688093DA
:102080008000D0938900C093880088C08091800030
:10209000806280938000D0938B00C0938A007EC0C2
:1020A00080918000886080938000D0938D00C093E1
:1020B0008C0074C08091B00080688093B000C093A1
:1020C000B3006CC08091B00080628093B000C09378
:1020D000B40064C080919000806880939000D09399
:1020E0009900C09398005AC08091900080628093BC
:1020F0009000D0939B00C0939A0050C080919000B4
:10210000886080939000D0939D00C0939C0046C04F
:102110008091A00080688093A0008091A0008F7BB8
:102120008093A000D093A900C093A80037C08091ED
:10213000A00080628093A000D093AB00C093AA005F
:102140002DC08091A00088608093A000D093AD0046
:10215000C093AC0023C0809120018068809320014F
:10216000D0932901C093280119C080912001806279
:1021700080932001D0932B01C0932A010FC080913E
:102180002001886080932001D0932D01C0932C0101
:1021900005C0C038D1050CF04CCF46CFDF91CF91B0
:1021A0001F9108953FB7F8948091D7079091D80771
:1021B000A091D907B091DA0726B5A89B05C02F3F9B
:1021C00019F00196A11DB11D3FBFBA2FA92F982F5D
:1021D0008827820F911DA11DB11DBC01CD0142E0D8
:1021E000660F771F881F991F4A95D1F708952FB75B
:1021F000F8946091D3077091D4078091D50790919E
:10220000D6072FBF08951F920F920FB60F92112479
:102210002F933F938F939F93AF93BF938091D30757
:102220009091D407A091D507B091D6073091D207ED
:1022300023E0230F2D3720F40196A11DB11D05C009
:1022400026E8230F0296A11DB11D2093D20780938B
:10225000D3079093D407A093D507B093D607809166
:10226000D7079091D807A091D907B091DA070196C6
:10227000A11DB11D8093D7079093D807A093D907CC
:10228000B093DA07BF91AF919F918F913F912F91BA
:102290000F900FBE0F901F901895CF93DF931F9252
:1022A0001F92CDB7DEB7789484B5826084BD84B5C3
:1022B000816084BD85B5826085BD85B5816085BD41
:1022C00080916E00816080936E00109281008091F9
:1022D0008100826080938100809181008160809381
:1022E0008100809180008160809380008091B100A6
:1022F00084608093B1008091B00081608093B000D1
:102300008091910082608093910080919100816022
:1023100080939100809190008160809390008091E3
:10232000A10082608093A1008091A10081608093D0
:10233000A1008091A00081608093A0008091210184
:10234000826080932101809121018160809321012D
:102350008091200181608093200180917A008460C7
:1023600080937A0080917A00826080937A008091D5
:102370007A00816080937A0080917A0080688093EF
:102380007A001092C100E0911106F091120682E0ED
:10239000F82EF082E0910D06F0910E061082E09189
:1023A0000F06F09110068FEC808310921906E091D1
:1023B0001506F091160686E08083E0911306F091F1
:1023C0001406808180618083E0911306F0911406E9
:1023D000808188608083E0911306F09114068081EB
:1023E00080688083E0911306F091140680818F7DD0
:1023F000808361E08DE0D3DD8DEB97E08CD98DEBB0
:1024000097E0C0D888EA97E086D988EA97E0BAD8FA
:1024100083E997E080D983E997E0B4D881E080939D
:102420008D070DEB17E010938F0700938E0783E85D
:1024300097E00E944406F0927D0710937F07009377
:102440007E0783E797E00E94440683E080936D0750
:1024500010936F0700936E0783E697E00E9444068F
:1024600084E080935D0710935F0700935E0783E528
:1024700097E00E94440685E080934D0710934F0734
:1024800000934E0783E497E00E94440683E897E0B8
:102490009093FF068093FE0683E797E09093F30600
:1024A0008093F20683E697E09093E7068093E60632
:1024B00083E597E09093DB068093DA0683E497E068
:1024C0009093CF068093CE0663E877E086E397E0AB
:1024D0000E94250663E777E089E297E00E942506DF
:1024E00063E677E08CE197E00E94250663E577E0FC
:1024F0008FE097E00E94250663E477E082E097E0B2
:102500000E94250681EC96E023E937E03093C4066B
:102510002093C3061092C50628EA37E03093C00620
:102520002093BF069093A7068093A6062DEB36E076
:102530003093A9062093A8069093BA068093B90613
:1025400086E397E0909300068093FF0589E297E089
:102550009093FE058093FD058CE197E09093FC0538
:102560008093FB058FE097E09093FA058093F9053F
:1025700082E097E09093F8058093F7058EE996E066
:102580009093F6058093F505E0913607F0913707B3
:102590000480F581E02D86E397E019958091FD0593
:1025A0009091FE05DC01ED91FC910480F581E02D18
:1025B00019958091FB059091FC05DC01ED91FC9152
:1025C0000480F581E02D19958091F9059091FA0527
:1025D000DC01ED91FC910480F581E02D199580914D
:1025E000F7059091F805DC01ED91FC910480F581EF
:1025F000E02D19958091F5059091F605DC01ED919E
:10260000FC910480F581E02D1995F1DD6093F105D1
:102610007093F2058093F3059093F40592E0292ED0
:1026200097E0392E8E010F5F1F4F26EF422E26E0D6
:10263000522EC8018F5D97403C013AEEE32E36E002
:10264000F32E4EEDC42E46E0D42E52EDA52E56E0CC
:10265000B52E66EC862E66E0962E8091920781114B
:1026600006C083E897E00E94C10681112BC18091CA
:102670008207811106C083E797E00E94C10681119D
:102680004FC180917207811106C083E697E00E94D6
:10269000C106811155C180916207811106C083E591
:1026A00097E00E94C10681115AC1809152078111A1
:1026B00006C083E497E00E94C106811160C1809149
:1026C0009207882309F45BC083E897E00E94C10663
:1026D000811155C08CDDD9D985E494E09FD98BEC6C
:1026E00093E09CD980E29BD981EA95E097D984E672
:1026F00094E094D989EA90E09DD986E694E08ED959
:1027000082EC95E08BD987E694E088D981E090E06F
:102710006CDB6DDDBAD985E494E080D98BEC93E075
:102720007DD980E27CD981EA95E078D984E694E08D
:1027300075D98AEA90E07ED986E694E06FD980ED7B
:1027400095E06CD987E694E069D98091DB07909198
:10275000DC07009709F022C17A82698289819A8117
:1027600044DB509200064092FF05E091F606F0919E
:10277000F7060480F581E02D86EF96E019958091AB
:102780008207882339F083E797E00E94C1068823F7
:1027900009F41FC180917207882339F083E697E01E
:1027A0000E94C106882309F442C1809162078823F0
:1027B00039F083E597E00E94C106882309F46EC1D1
:1027C00080915207882339F083E497E00E94C10684
:1027D000882309F49BC184E235DB892B09F0CEC143
:1027E0008091FF0590910006DC01ED91FC9106803F
:1027F000F781E02D19958091FD059091FE05DC0192
:10280000ED91FC910680F781E02D19958091FB05F3
:102810009091FC05DC01ED91FC910680F781E02DA3
:1028200019958091F9059091FA05DC01ED91FC91E3
:102830000680F781E02D19958091F7059091F805B4
:10284000DC01ED91FC910680F781E02D19958091D6
:10285000F5059091F605DC01ED91FC910680F7817C
:10286000E02D1995C4DC2091F1053091F2054091DD
:10287000F3055091F405DC01CB01821B930BA40BF3
:10288000B50B893E9340A105B105C8F0B0DC60935B
:10289000F1057093F2058093F3059093F405809110
:1028A000F005811107C061E08DE04ADB81E0809393
:1028B000F00505C060E08DE043DB1092F0050E945A
:1028C0000D08CBCE94DCE1D885E494E0A7D88BEC5E
:1028D00093E0A4D880E2A3D881EA95E09FD884E66B
:1028E00094E09CD888E890E0A5D886E694E096D855
:1028F00086EB95E093D887E694E090D881E090E06D
:1029000074DA86E397E0909300068093FF05E091E8
:102910003607F09137070480F581E02D1995A7CE91
:10292000A9E2B7E0B093FE05A093FD05E091290769
:10293000F0912A070480F581E02DCD011995A1CEF3
:102940008CE197E09093FC058093FB05E0911C07D8
:10295000F0911D070480F581E02D19959CCEAFE024
:10296000B7E0B093FA05A093F905E0910F07F09155
:1029700010070480F581E02DCD01199596CE309297
:10298000F8052092F705E0910207F0910307048013
:10299000F581E02D82E097E0199591CEA801481BC2
:1029A000590BE091DD07F091DE0780E090E0309771
:1029B00059F09C012E5F3F4F80819181820F931FC0
:1029C0000280F381E02DF3CF840F951F9A838983D2
:1029D000C5CE0DDC5AD885E494E020D88BEC93E08A
:1029E0001DD880E21CD881EA95E018D884E694E0EE
:1029F00015D881EB90E01ED886E694E00FD882ECE3
:102A000095E00CD887E694E009D882E090E0EDD913
:102A1000F092FE05E092FD05E091EA06F091EB06EA
:102A20000480F581E02D8AEE96E01995B3CEDFDBC8
:102A30002CD885E494E00E940E0D8BEC93E00E946C
:102A40000E0D80E20E940F0D81EA95E00E940E0DAE
:102A500084E694E00E940E0D87EB90E00E941A0D30
:102A600086E694E00E940E0D82EC95E00E940E0D29
:102A700087E694E00E940E0D83E090E0B6D9D092F4
:102A8000FC05C092FB05E091DE06F091DF060480B4
:102A9000F581E02D8EED96E0199587CEA8DB0E949A
:102AA000450D85E494E00E940E0D8BEC93E00E94AE
:102AB0000E0D80E20E940F0D81EA95E00E940E0D3E
:102AC00084E694E00E940E0D8DEB90E00E941A0DBA
:102AD00086E694E00E940E0D82EC95E00E940E0DB9
:102AE00087E694E00E940E0D84E090E07ED9B092DB
:102AF000FA05A092F905E091D206F091D306048080
:102B0000F581E02D82ED96E019955ACE70DB0E949A
:102B1000450D85E494E00E940E0D8BEC93E00E943D
:102B20000E0D80E20E940F0D81EA95E00E940E0DCD
:102B300084E694E00E940E0D84EC90E00E941A0D51
:102B400086E694E00E940E0D82EC95E00E940E0D48
:102B500087E694E00E940E0D85E090E046D99092C1
:102B6000F8058092F705E091C606F091C70604804B
:102B7000F581E02D86EC96E019952DCE38DB0E948C
:102B8000450D85E494E00E940E0D8BEC93E00E94CD
:102B90000E0D80E20E940F0D81EA95E00E940E0D5D
:102BA00084E694E00E940E0D8EEC90E00E941A0DD7
:102BB00086E694E00E940E0D89ED95E00E940E0DD0
:102BC00087E694E00E940E0D88EE95E00E94020DCB
:102BD0008EE996E09093F6058093F505E0919E06C8
:102BE000F0919F060480F581E02D1995F9CD83E9D8
:102BF00097E00E94450888EA97E00E9445088DEB1F
:102C000097E00C944508E1E0F6E01382128288EE2A
:102C100093E0A0E0B0E084839583A683B7838BED37
:102C200093E09183808385EC90E09587848784ECA2
:102C300090E09787868780EC90E0918B808B81EC89
:102C400090E0938B828B82EC90E0958B848B86EC6A
:102C500090E0978B868B118E128E138E148E26E049
:102C600030E046E162E370E08DEB97E00E949B0B61
:102C700026E030E047E162E370E088EA97E00E94F6
:102C80009B0B22E530E048E168E170E083E997E0E2
:102C90000E949B0B81E494E09093840780938307C8
:102CA00090937407809373079093640780936307EE
:102CB000909354078093530790934407809343075E
:102CC000E6E3F7E012821382148215828DE294E02B
:102CD00091838083E9E2F7E01282138214821582E5
:102CE00091838083ECE1F7E01282138214821582D3
:102CF00091838083EFE0F7E01282138214821582C1
:102D000091838083E2E0F7E01282138214821582BD
:102D100091838083E6EFF6E012821382148215829B
:102D200085E194E09183808313861286EAEEF6E0D3
:102D300012821382148215829183808313861286F5
:102D4000EEEDF6E012821382148215829183808365
:102D500013861286E2EDF6E0128213821482158247
:102D60009183808313861286E6ECF6E0128213824A
:102D70001482158291838083138612868DE094E0FD
:102D80009093C2068093C10685E094E09093BE06BE
:102D90008093BD06E1EBF6E0128213821482158265
:102DA00089EF93E091838083EEE9F6E0128213824B
:102DB000148215828DEE93E09183808381E090E010
:102DC000958784870895CF93DF938230910510F41F
:102DD00082E090E0E091DD07F091DE0720E030E056
:102DE000C0E0D0E0309711F1408151814817590778
:102DF000C0F04817590761F482819381209719F038
:102E00009B838A832BC09093DE078093DD0726C0C7
:102E10002115310519F04217530718F49A01BE0124
:102E2000DF01EF010280F381E02DDCCF21153105B8
:102E300009F1281B390B2430310590F412968D913D
:102E40009C9113976115710521F0FB019383828397
:102E500004C09093DE078093DD07FD01329644C0E5
:102E6000FD01E20FF31F81939193225031092D93BD
:102E70003C933AC02091DB073091DC07232B41F4CF
:102E800020910202309103023093DC072093DB078C
:102E900020910002309101022115310541F42DB736
:102EA0003EB74091040250910502241B350BE0917E
:102EB000DB07F091DC07E217F307A0F42E1B3F0BB2
:102EC0002817390778F0AC014E5F5F4F241735079C
:102ED00048F04E0F5F1F5093DC074093DB07819350
:102EE000919302C0E0E0F0E0CF01DF91CF9108952F
:102EF0000F931F93CF93DF93009709F48CC0FC01CD
:102F00003297138212820091DD071091DE070115BE
:102F1000110581F420813181820F931F2091DB07FD
:102F20003091DC072817390779F5F093DC07E09337
:102F3000DB0771C0D80140E050E0AE17BF0750F486
:102F400012962D913C911397AD012115310509F190
:102F5000D901F3CF9D01DA0133832283608171812E
:102F6000860F971F8217930769F4EC012881398136
:102F7000260F371F2E5F3F4F318320838A819B812D
:102F800093838283452B29F4F093DE07E093DD07DA
:102F900042C01396FC93EE931297ED01499159911B
:102FA0009E01240F351FE217F30771F48081918190
:102FB000840F951F029611969C938E938281938124
:102FC00013969C938E931297E0E0F0E0D80112964E
:102FD0008D919C911397009719F0F8018C01F6CF11
:102FE0008D919C9198012E5F3F4F820F931F2091EE
:102FF000DB073091DC072817390769F4309729F48B
:103000001092DE071092DD0702C013821282109325
:10301000DC070093DB07DF91CF911F910F9108959B
:103020008F929F92AF92BF92CF92DF92EF92FF92D8
:10303000CF93DF93EC01688179818A819B8161154F
:1030400071058105910521F464E279ED8BE597E046
:103050002DE133EF41E050E038D049015A019B01A6
:10306000AC01A7EAB1E44DD06B017C01ACEEB4EF4A
:10307000A501940152D0DC01CB018C0D9D1DAE1D2C
:10308000BF1DB7FF03C00197A109B048888399838A
:10309000AA83BB83BC01CD019F77DF91CF91FF90C5
:1030A000EF90DF90CF90BF90AF909F908F9008955A
:1030B000B7CF86E092E0B4CF609306027093070228
:1030C00080930802909309020895052E97FB16F449
:1030D00000940FD057FD05D024D007FC02D046F451
:1030E00008C050954095309521953F4F4F4F5F4F09
:1030F000089590958095709561957F4F8F4F9F4F64
:10310000089531D0A59F900DB49F900DA49F800D80
:10311000911D11240895B7FFF4CFF3DF821B930BA9
:103120000895A1E21A2EAA1BBB1BFD010DC0AA1F08
:10313000BB1FEE1FFF1FA217B307E407F50720F020
:10314000A21BB30BE40BF50B661F771F881F991F9B
:103150001A9469F760957095809590959B01AC01E4
:10316000BD01CF010895A29FB001B39FC001A39FED
:10317000700D811D1124911DB29F700D811D1124B0
:10318000911D08950CD0EBC0E3D040F0DAD030F0C0
:1031900021F45F3F19F0CCC0511115C1CFC0F0D060
:1031A00098F39923C9F35523B1F3951B550BBB270E
:1031B000AA2762177307840738F09F5F5F4F220FBB
:1031C000331F441FAA1FA9F333D00E2E3AF0E0E8B4
:1031D00030D091505040E695001CCAF729D0FE2F00
:1031E00027D0660F771F881FBB1F26173707480792
:1031F000AB07B0E809F0BB0B802DBF01FF27935848
:103200005F4F2AF09E3F510568F092C0DCC05F3FDF
:10321000ECF3983EDCF3869577956795B795F7952F
:103220009F5FC9F7880F911D9695879597F9089527
:10323000E1E0660F771F881FBB1F621773078407C3
:10324000BA0720F0621B730B840BBA0BEE1F88F7D2
:10325000E095089504D06894B111B5C0089598D050
:1032600088F09F5790F0B92F9927B751A0F0D1F06F
:10327000660F771F881F991F1AF0BA95C9F712C0F9
:10328000B13081F09FD0B1E008959CC0672F782FB6
:103290008827B85F39F0B93FCCF386957795679565
:1032A000B395D9F73EF490958095709561957F4FD1
:1032B0008F4F9F4F0895E89409C097FB3EF4909577
:1032C0008095709561957F4F8F4F9F4F9923A9F0FF
:1032D000F92F96E9BB279395F6958795779567958E
:1032E000B795F111F8CFFAF4BB0F11F460FF1BC0D2
:1032F0006F5F7F4F8F4F9F4F16C0882311F096E965
:1033000011C0772321F09EE8872F762F05C0662312
:1033100071F096E8862F70E060E02AF09A95660FCB
:10332000771F881FDAF7880F9695879597F9089584
:1033300097F99F6780E870E060E008959FEF80EC68
:10334000089500240A94161617061806090608950B
:1033500000240A9412161306140605060895092E71
:103360000394000C11F4882352F0BB0F40F4BF2BE0
:1033700011F460FF04C06F5F7F4F8F4F9F4F089520
:1033800057FD9058440F551F59F05F3F71F0479516
:10339000880F97FB991F61F09F3F79F087950895FB
:1033A000121613061406551FF2CF4695F1DF08C01A
:1033B000161617061806991FF1CF86957105610537
:1033C00008940895E894BB2766277727CB0197F9DF
:1033D00008950BD0C4CFB5DF28F0BADF18F09523DD
:1033E00009F0A6CFABCF1124EECFCADFA0F3959F93
:1033F000D1F3950F50E0551F629FF001729FBB27DC
:10340000F00DB11D639FAA27F00DB11DAA1F649F87
:103410006627B00DA11D661F829F2227B00DA11D3A
:10342000621F739FB00DA11D621F839FA00D611DC0
:10343000221F749F3327A00D611D231F849F600DE1
:10344000211D822F762F6A2F11249F5750408AF01A
:10345000E1F088234AF0EE0FFF1FBB1F661F771FA6
:10346000881F91505040A9F79E3F510570F060CFE2
:10347000AACF5F3FECF3983EDCF38695779567958E
:10348000B795F795E7959F5FC1F7FE2B880F911DC4
:103490009695879597F908959F9305D00F9007FC0F
:1034A000EE5F28C04BCF74DFE8F3E894E0E0BB2781
:1034B0009F57F0F02AED3FE049EC06C0EE0FBB0F3E
:1034C000661F771F881F28F0B23A620773078407C8
:1034D00028F0B25A620B730B840BE3959A9572F73E
:1034E000803830F49A95BB0F661F771F881FD2F77C
:1034F000904873C0EF93E0FF06C0A2EA2AED3FE0D8
:1035000049EC5FEB15D02BDF0F90039401FC905832
:10351000EAE3F1E06EC015DF30F01ADF20F031F49D
:103520009F3F11F41EF40ACF0EF4E095E7FB00CFA5
:10353000E92F26DF80F3BA17620773078407950720
:1035400018F071F49EF53ECF0EF4E0950B2EBA2FD5
:10355000A02D0B01B90190010C01CA01A001112499
:10356000FF27591B99F0593F50F4503E68F11A1645
:10357000F040A22F232F342F4427585FF3CF4695D6
:1035800037952795A795F0405395C9F77EF41F16F8
:10359000BA0B620B730B840BBAF09150A1F0FF0FC2
:1035A000BB1F661F771F881FC2F70EC0BA0F621FAE
:1035B000731F841F48F4879577956795B795F7959E
:1035C0009E3F08F0B3CF9395880F08F09927EE0F30
:1035D0009795879508959F3F31F0915020F48795F6
:1035E00077956795B795880F911D9695879597F96B
:1035F00008959F938F937F936F93FF93EF939B0116
:10360000AC01E7DEEF91FF9105D02F913F914F91F3
:103610005F91DFCEDF93CF931F930F93FF92EF92D3
:10362000DF927B018C01689405C0DA2EEF01DDDEAC
:10363000FE01E894A5912591359145915591AEF300
:10364000EF0176DFFE019701A801DA9479F7DF90A8
:10365000EF90FF900F911F91CF91DF910895EE0FA2
:10366000FF1F881F8BBF0790F691E02D19947BDD1B
:10367000B7FF0895821B930B089581E090E0F894C2
:1036800007C0DC0101C06D9341505040E0F7089540
:1036900011E0CDE3D1E000E005C0802FFE01DFDFC7
:1036A0002196011DCE33D10780E00807B1F7F894C9
:0236B000FFCF4A
:1036B2000000DF0780000100000076697274756106
:1036C2006C20766F6964204465617468537461721A
:1036D2004578706C6F64653A3A73746172745363BF
:1036E20065656E282900766F696420446561746897
:1036F200537461724578706C6F64653A3A646F46D0
:10370200616465546F426C61636B282900766F694E
:1037120064204465617468537461724578706C6F9B
:1037220064653A3A646F466C6173683228290076A0
:103732006F6964204465617468537461724578707E
:103742006C6F64653A3A646F46617374426C61638C
:103752006B282900766F696420446561746853742C
:1037620061724578706C6F64653A3A646F466C6159
:10377200736831282900766F696420446561746832
:10378200537461724578706C6F64653A3A646F5431
:10379200726F6246616465282900766F696420440D
:1037A20065617468537461724578706C6F64653AD0
:1037B2003A646F52696E675468726F6228290076A4
:1037C20069727475616C20766F69642044656174F6
:1037D2006853746172506C617947616D653A3A73EE
:1037E20074617274536365656E2829007669727418
:1037F20075616C20766F69642054696546696768F3
:103802007465724578706C6F64653A3A737461726C
:1038120074536365656E282900766F696420546964
:103822006546696768746572506C61797347616D4A
:10383200653A3A6C696E6B466967687465722854BA
:103842006965466967687465722A290076697274C7
:1038520075616C20766F6964205469654669676892
:10386200746572506C61797347616D653A3A73742D
:10387200617274536365656E282900766F696420EE
:103882006C6F6F70282900000000003B07D006FF14
:1038920006810701080E07220700000000CF06027A
:1038A20002CD01910300000000CD060A02A30142ED
:1038B2000300000000CE060C0200000000160C58A7
:1038C200080000000043060602080336020000005A
:1038D200000000000030073007000000004206042C
:1038E2000270015A0800000000CC060E020000001F
:1038F20000CB0608023A5B20002E2E5C5469654616
:10390200696768746572506C61797347616D652E81
:10391200637070003A005D20200054696546696753
:1039220068746572506C61797347616D653A3A7378
:1039320074617274536365656E2829002E2E5C448F
:103942006561746853746172506C617947616D6529
:103952002E63707000446561746853746172506CB8
:10396200617947616D653A3A737461727453636544
:10397200656E2829002E2E5C44656174685374615B
:10398200724578706C6F64652E6370700044656177
:103992007468537461724578706C6F64653A3A73F7
:1039A20074617274536365656E2829002E2E5C540F
:1039B2006965466967687465724578706C6F64659D
:1039C2002E63707000546965466967687465724554
:1039D20078706C6F64653A3A73746172745363659C
:1039E200656E28290072696E67205468726F6220C2
:1039F2006368616E67652073746174650054726FE9
:103A020062204661646520466164652000466C61FF
:103A1200736831004661737420426C61636B0046C7
:103A22006C61736832004661646520546F20426C99
:103A320061636B0054696546696768746572506CAE
:103A420061797347616D653A3A4C696E6B656420C2
:103A5200002E2E5C44656174685374617232303199
:103A6200382E696E6F00546172676574207570201C
:103A7200200054617267657420446F776E202000C5
:103A820046726565204D656D0056656E7420506FF7
:103A9200727420486974200054727565000D0A0022
:00000001FF
