:1000000008C1000037C1000035C1000033C1000045
:1000100031C100002FC100002DC100002BC1000024
:1000200029C1000027C1000025C1000023C1000034
:1000300021C100001FC100001DC100001BC1000044
:1000400019C1000017C1000015C1000013C1000054
:1000500011C100000FC100000DC100004DC400001F
:1000600009C10000BCC4000091C4000003C100002D
:1000700001C10000FFC00000FDC00000FBC0000087
:10008000F9C00000F7C00000F5C00000F3C0000098
:10009000F1C00000EFC00000EDC00000EBC00000A8
:1000A000E9C00000E7C00000E5C00000E3C00000B8
:1000B000E1C00000DFC00000DDC00000DBC00000C8
:1000C000D9C00000D7C00000D5C00000D3C00000D8
:1000D000D1C00000CFC00000CDC00000CBC00000E8
:1000E000C9C000006A016D015C0160016401A401E6
:1000F000710175017B017F01830189018D019101EE
:10010000A40197019B019F0100002100240027000A
:100110002A002D0030003300010100000401070116
:100120000A0100002200250028002B002E003100CB
:10013000340002010000050108010B010505050559
:10014000070508080808020202020A0A080804044F
:10015000040401010101010101010303030303037D
:100160000303040707070C0C0C0C0C0C0C0C02020C
:10017000020206060606060606060B0B0B0B0B0B09
:100180000B0B010210202008081020401020408096
:10019000020102010804020101020408102040804B
:1001A00080402010080402018004020180402010D9
:1001B0000804020108040201010204081020408022
:1001C000010204081020408000000A0B02090C0DF7
:1001D0000E080703040100000000000000000000FA
:1001E000000000000000000000000000000000000F
:1001F00000000000121110000000000000000000CC
:100200000000000000000000000000000000470D9A
:100210003F0D11241FBECFEFD1E2DEBFCDBF00E006
:100220000CBF13E0A0E0B2E0EAEEFEE100E00BBF9D
:1002300002C007900D92AE36B107D9F724E0AEE6C2
:10024000B3E001C01D92A53DB207E1F711E0C8E09F
:10025000D1E000E006C021970109802FFE010E9435
:10026000240EC730D10780E00807A9F70E94CA0B07
:100270000C94640FC5CE362F90E0FC01E853FE4F7E
:100280004491FC01EE57FE4F2491FC01E45CFE4FCB
:100290009491992309F46BC0442309F455C050E0AC
:1002A000FA013197E231F10508F04EC08827EE5887
:1002B000FF4F8F4F0C94240E809180008F7707C0E2
:1002C000809180008F7D03C080918000877F809324
:1002D00080003AC084B58F7702C084B58F7D84BD1D
:1002E00033C08091B0008F7703C08091B0008F7DC4
:1002F0008093B00029C0809190008F7707C08091D3
:1003000090008F7D03C080919000877F8093900044
:100310001BC08091A0008F7707C08091A0008F7DC7
:1003200003C08091A000877F8093A0000DC08091C2
:1003300020018F7707C0809120018F7D03C08091BD
:100340002001877F80932001E92FF0E0EE0FFF1F4F
:10035000EE5DFE4FA591B4918FB7F894EC913111F9
:1003600003C020952E2301C02E2B2C938FBF089500
:10037000CF93DF9390E0FC01EE57FE4F2491FC01F8
:10038000E45CFE4F8491882361F190E0880F991F0F
:10039000FC01E85FFE4FC591D491FC01EE5DFE4F7C
:1003A000A591B491611109C09FB7F89488812095F7
:1003B00082238883EC912E230BC0623061F49FB7B7
:1003C000F8943881822F809583238883EC912E2B9B
:1003D0002C939FBF06C08FB7F894E8812E2B2883FB
:1003E0008FBFDF91CF9108953FB7F8948091780344
:1003F00090917903A0917A03B0917B0326B5A89BD5
:1004000005C02F3F19F00196A11DB11D3FBFBA2FA6
:10041000A92F982F8827820F911DA11DB11DBC0106
:10042000CD0142E0660F771F881F991F4A95D1F7CB
:100430000895CF92DF92EF92FF920F931F93CF9385
:10044000DF936C017A018B01C0E0D0E0CE15DF05AF
:1004500089F0D8016D918D01D601ED91FC9101904B
:10046000F081E02DC6011995892B11F47E0102C09F
:100470002196ECCFC701DF91CF911F910F91FF9093
:10048000EF90DF90CF900895089580E090E0089578
:10049000FC01538D448D252F30E0842F90E0821B8A
:1004A000930B541710F0CF96089501970895FC010F
:1004B000918D828D981761F0828DDF01A80FB11D9B
:1004C0005D968C91928D9F5F9F73928F90E00895BF
:1004D0008FEF9FEF0895FC01918D828D981731F079
:1004E000828DE80FF11D858D90E008958FEF9FEFCD
:1004F0000895FC01918D228D892F90E0805C9F4FA3
:10050000821B91098F73992708958CE793E0F1DF9F
:1005100021E0892B09F420E0822F0895FC01848DCD
:10052000DF01A80FB11DA35ABF4F2C91848D90E01D
:1005300001968F739927848FA689B7892C93A089F8
:10054000B1898C9180648C93938D848D981306C0AF
:100550000288F389E02D80818F7D80830895EF925A
:10056000FF920F931F93CF93DF93EC0181E0888F6D
:100570009B8D8C8D981305C0E889F989808185FD54
:1005800023C0F62E0B8D10E00F5F1F4F0F73112746
:10059000E02E8C8DE8120BC00FB607FCFACFE8896D
:1005A000F989808185FFF5CFCE01B8DFF2CF8B8D41
:1005B000FE01E80FF11DE35AFF4FF0820B8FEA892D
:1005C000FB898081806207C0EE89FF896083E889AA
:1005D000F98980818064808381E090E0DF91CF9110
:1005E0001F910F91FF90EF900895CF93DF93EC014F
:1005F000888D8823C1F0EA89FB89808185FD05C04B
:10060000A889B9898C9186FD0EC00FB607FCF5CF7D
:10061000808185FFF2CFA889B9898C9185FFEDCFC4
:10062000CE017CDFE8CFDF91CF91089580E090E0AC
:10063000892B19F06ADF811125C080E090E0892BB9
:1006400041F080E090E0892B21F00E9400008111B0
:100650001CC080E090E0892B41F080E090E0892B85
:1006600021F00E940000811113C080E090E0892BEE
:10067000A1F080E090E0892B81F00E9400008111C0
:100680000AC008950E940000D8CF0E940000E1CF68
:100690000E940000EACF0C9400000895CF92DF92F0
:1006A000EF92FF920F931F93CF93DF93CDB7DEB7F7
:1006B00029970FB6F894DEBF0FBECDBF8C01DC01C9
:1006C00018968D919C911997892B09F4A1C08CDE05
:1006D000F801C684D784E088F188DC01CB018C194D
:1006E0009D09AE09BF098C329140A105B10578F38F
:1006F000F894D80114968D919C9115979A838983CB
:100700001896ED91FC9119977F01BFEFEB1AFB0A48
:1007100080818987F80190810288F389E02DD801D2
:1007200054968C91992309F430C09081982B988726
:100730009081809589238F838F818C8388E08B8340
:1007400058856F8149853B812C8189819A81D701A8
:10075000508347FD252F3A952083262F39F0441FDB
:1007600000C000006083000000C0F2CF38E04D916F
:1007700060830000019761F7D8015396FC93EE93D4
:10078000529749873B832C833AC09081982B988756
:100790009081809589238F838F818E8388E08D83DC
:1007A00058856F8149853D812E8189819A81D70144
:1007B000508347FD252F00C000C0208300C000C02B
:1007C00000C000C000C060830000262F3A9541F0B1
:1007D000441F000000C000C000C000C000C0E8CF3F
:1007E00038E04D9100C0608300C0019709F7D8013F
:1007F0005396FC93EE93529749873D832E839A83B9
:1008000089837894F1DDF80166877787808B918BF7
:1008100029960FB6F894DEBF0FBECDBFDF91CF9102
:100820001F910F91FF90EF90DF90CF900895CF939D
:10083000DF93EC018E8187FD05C061E099DD60E00A
:100840008E8119DD81E08983DF91CF910895FC01CC
:1008500013861286128213821482158261E089E265
:100860000ACD0E94590FCF93DF93EC0188859985BB
:10087000009711F00E94C10E8E8187FD04C060E0D8
:10088000DF91CF9175CDDF91CF9108950C94C10E7A
:100890000C94C10E0C94C10E0C94C10E0C94C10E9C
:1008A0002FB7F8946091740370917503809176036B
:1008B000909177032FBF0895FC0112821382148256
:1008C000158213861286ECDF87D480EC92E04DD43B
:1008D00086E092E04AD480E249D484EC92E045D4A8
:1008E0008CED92E042D487E290E04BD48EED92E022
:1008F0003CD482EE92E02DC41F920F920FB60F925D
:1009000011242F933F938F939F93AF93BF93809125
:10091000740390917503A0917603B09177033091A1
:10092000730323E0230F2D3720F40196A11DB11D81
:1009300005C026E8230F0296A11DB11D2093730365
:100940008093740390937503A0937603B093770319
:100950008091780390917903A0917A03B0917B0301
:100960000196A11DB11D8093780390937903A09304
:100970007A03B0937B03BF91AF919F918F913F9189
:100980002F910F900FBE0F901F9018951F920F92EE
:100990000FB60F9211240BB60F922F933F934F93E4
:1009A0005F936F937F938F939F93AF93BF93EF93D7
:1009B000FF938CE793E0B2DDFF91EF91BF91AF9190
:1009C0009F918F917F916F915F914F913F912F9167
:1009D0000F900BBE0F900FBE0F901F9018951F9297
:1009E0000F920FB60F9211240BB60F922F938F9385
:1009F0009F93EF93FF93E0918C03F0918D0380819F
:100A0000E0919203F091930382FD12C09081809156
:100A100095038F5F8F7320919603821751F0E091B9
:100A20009503F0E0E458FC4F958F8093950301C047
:100A30008081FF91EF919F918F912F910F900BBE2D
:100A40000F900FBE0F901F9018954F925F926F926C
:100A50007F928F929F92AF92BF92CF92DF92EF924E
:100A6000FF920F931F93CF93DF93DC011D968C9120
:100A70001D971A96EC901A971896ED91FC9119977C
:100A800017968C901797482F50E01B961C911B9738
:100A90001C960C91EB018E1164C0CC0FDD1FC60FAC
:100AA000D71FCE0FDF1F882009F443C0912CA12C43
:100AB000B12CFE01E40FF51F608170E0762F6627F0
:100AC000072E000C880B990BA50194010E94020EC1
:100AD000390155244424FE01E10FF11D608170E0CD
:100AE000762F6627072E000C880B990BA501940121
:100AF0000E94020EB42FA32F922F88277301620148
:100B0000C82AD92AEA2AFB2AC00FD11D688170E0C1
:100B1000762F6627072E000C880B990BA5019401F0
:100B20000E94020EC701B601622B732B842B952BFA
:100B300094C0FE01E40FF51F2081FE01E10FF11DBD
:100B40006081862F90E0A0E0B0E0BA2FA92F982F07
:100B50008827A22BC00FD11D2881BC01CD01622B9B
:100B60007CC0CC0FDD1FCC0FDD1FCE0FDF1FF12CA3
:100B7000882009F457C0912CA12CB12CFE01E40F60
:100B8000F51F608170E0762F6627072E000C880B1A
:100B9000990BA50194010E94020E722E6624552421
:100BA0004424FE01EE0DFF1D608170E0762F662764
:100BB000072E000C880B990BA50194010E94020ED0
:100BC0007901DD24CC24C428D528E628F728FE01A5
:100BD000E00FF11D608170E0762F6627072E000C74
:100BE000880B990BA50194010E94020EC22AD32AF8
:100BF000E42AF52AC10FD11D688170E0762F66279F
:100C0000072E000C880B990BA5019401FBD7B42F7C
:100C1000A32F922F8827BC01CD016C297D298E2915
:100C20009F291BC0FE01E40FF51F2081FE01EE0D80
:100C3000FF1D6081862F90E0A0E0B0E0DC019927E5
:100C40008827B22BFE01E00FF11D2081822BC10FFE
:100C5000D11D2881BC01CD01722BDF91CF911F9155
:100C60000F91FF90EF90DF90CF90BF90AF909F904B
:100C70008F907F906F905F904F9008958F929F928A
:100C8000AF92BF92CF92DF92EF92FF920F931F939A
:100C9000CF93DF93FC01828193816817790708F075
:100CA0004CC04A01AA24BB24B82DC32ED42EE52E55
:100CB000FF24AC2D922F8781882361F0889E40010C
:100CC0001124B92DC89E60011124AD2D289FE0018B
:100CD00011249D2FD584C285E084F184DC1208C0E4
:100CE0009B01220F331F620F731F6E0D7F1D16C0F5
:100CF000660F771F660F771F6E0D7F1D052F11275B
:100D000022273327EB01CD0DD11D882329F0089F21
:100D100090011124232F01C0202F28838285EB010D
:100D2000C80FD11DB8838385EB01C80FD11DA883DF
:100D30008485FB01E80FF11D9083DF91CF911F9116
:100D40000F91FF90EF90DF90CF90BF90AF909F906A
:100D50008F900895CF92DF92EF92FF920F931F939F
:100D6000CF93DF93EC01CA80DB80EC80FD8098DDBF
:100D70006C157D058E059F0508F49CC08A859B85B2
:100D80008130910509F446C08230910509F46FC0A5
:100D9000892B09F08FC008851985F801628170E000
:100DA0002FEF3FEF4FEF50E08385948567DFF80129
:100DB000638170E02FEF3FEF4FEF50E08385948524
:100DC0005DDFE884F98487010C5F1F4F6701FAE05B
:100DD000CF0ED11CF80161918F0170E020EF30EF50
:100DE0004FEF50E0F7018385948548DF0C151D0512
:100DF00089F7E885F9858385948550DC82E090E069
:100E00009B878A874DDDDC01CB01845D9E4FAF4F10
:100E1000BF4F4CC088859985DDD3082F888599857B
:100E200049D4182FE885F9858385948537DC61E0FE
:100E300089E221DA35DDDC01CB010596A11DB11D6A
:100E40008A839B83AC83BD832E813F8121503109EE
:100E50003F832E83100F71F582E090E09B878A8795
:100E60001FDDDC01CB010596A11DB11D1FC08885CA
:100E70009985B0D3082F888599851CD4182FE885CB
:100E8000F985838594850ADC0BDDDC01CB010596B1
:100E9000A11DB11D8A839B83AC83BD83100F51F4C8
:100EA000FFDCDC01CB01945AA94DBA4F8A839B83A6
:100EB000AC83BD83DF91CF911F910F91FF90EF9095
:100EC000DF90CF9008958F929F92AF92BF92CF9272
:100ED000DF92EF92FF920F931F93CF93DF93EC017A
:100EE0008A809B80AC80BD80DBDC681579058A0533
:100EF0009B0508F455C08A859B85892B09F050C055
:100F000088849984A12CB12CF40182819381FC0105
:100F100022813381A216B30628F4B50196DD8B0138
:100F20009C0103C000E010E09801C12C80E7D82E9E
:100F3000E12CF12C47EE5FEF6CEE7FEF87EE9FEF39
:100F40004DD19B01AC01B501F4018281938196DE04
:100F5000FFEFAF1ABF0A88E1A816B104A9F6E88529
:100F6000F98584818F5F883110F4848301C01482F5
:100F7000648170E020ED30ED40ED50E0828193819E
:100F80007DDEE885F9858281938188DB89DCDC015F
:100F9000CB010396A11DB11D8A839B83AC83BD83C6
:100FA000DF91CF911F910F91FF90EF90DF90CF9045
:100FB000BF90AF909F908F9008951F93CF93DF9332
:100FC000EC01162F8981882329F08E8187FD02C0CC
:100FD00060E0CED91E838981882331F061E0812FC2
:100FE000C7D960E0812F47D9812F90E0FC01E45CF4
:100FF000FE4FE491F0E0EE0FFF1FEE5DFE4F2591F6
:1010000034913B8B2A8BFC01EE57FE4FE491EC8B25
:10101000DF91CF911F910895EF92FF920F931F934D
:10102000CF93DF93EC017B0188859985009709F0C8
:10103000A8D69D858A85981719F084E090E002C0B3
:1010400083E090E08E9D80018F9D100D9E9D100D80
:1010500011241D830C83C801FFD5998788870097C9
:1010600039F0A80160E070E028D7FB82EA8204C072
:101070001D821C821B821A82DF91CF911F910F91DA
:10108000FF90EF90089508950895089508950895A4
:10109000009761F0FC0101900020E9F73197AF0162
:1010A000481B590BBC018CE793E0C3C980E090E07A
:1010B00008958F929F92AF92BF920F931F93CF93F9
:1010C000DF93CDB7DEB7A1970FB6F894DEBF0FBEA2
:1010D000CDBF19A2423008F44AE08E010F5D1F4FC8
:1010E000842E912CA12CB12CA50194018BD5E62F37
:1010F000B901CA0101501109EA3014F4E05D01C0E0
:10110000E95CD801EC93232B242B252B69F7C8012C
:10111000BFDFA1960FB6F894DEBF0FBECDBFDF9143
:10112000CF911F910F91BF90AF909F908F90089596
:10113000CF93DF93682F70E080E090E04AE0B9DF62
:10114000EC0186E293E0A4DF8C0F9D1FDF91CF912D
:101150000895CF93DF939CDFEC0186E293E098DF64
:101160008C0F9D1FDF91CF91089592CFE0917C036A
:10117000F0917D030190F081E02D682F8CE793E0E2
:101180001994CF92DF92EF92FF92CF93DF936C018D
:10119000990FEE08FF08F7FE15C08DE2E7DFEC01BE
:1011A00066277727CB016C197D098E099F094AE0D4
:1011B00080DF8C0F9D1FDF91CF91FF90EF90DF902C
:1011C000CF9008954AE0C701B601DF91CF91FF901B
:1011D000EF90DF90CF906DCF4AE06BCF6F927F9210
:1011E0008F929F92AF92BF92CF92DF92EF92FF9237
:1011F0000F931F93CF93DF9338017724812E922E84
:10120000A32EBB24F401FF27D601BB278D2C9E2CD7
:10121000AF2CBB245401BB24CE2DD0E0820F911DF6
:101220008C179D073CF08F3F910529F024F08FEF3C
:1012300090E001C0CE018F01060F171F0A151B0594
:101240003CF00F3F110529F024F00FEF10E001C032
:101250008501460D571D4A175B073CF04F3F51056E
:1012600029F024F04FEF50E001C0AD01012E000C39
:10127000220B330B322F212F102F0027092E000CA9
:10128000AA0BBB0BDC0199278827802B912BA22B63
:10129000B32B052E000C660B770B8C019D01042BE4
:1012A000152B262B372BC901B801DF91CF911F9148
:1012B0000F91FF90EF90DF90CF90BF90AF909F90F5
:1012C0008F907F906F900895CF93DF93EC016A87A2
:1012D0008CEB94E09C878B876330C1F1A8F461307C
:1012E00039F1623009F052C08DE08A838EE08B8341
:1012F0008AE08C838BE08D838CE08E838FE08F83FC
:1013000080E1888781E141C0643081F16530F1F589
:101310008BE28A838CE28B8388E28C8389E28D83E3
:101320008AE28E838DE28F838EE288878FE22DC0E2
:1013300083E08A8384E08B831C826D8382E08E83CA
:1013400085E08F8386E0888787E01FC087E18A83F6
:1013500088E18B8384E18C8385E18D8386E18E83B4
:1013600089E18F838AE188878BE10FC081E28A83DC
:1013700082E28B838EE18C838FE18D8380E28E838A
:1013800083E28F8384E2888785E2898789DA24DF94
:1013900080EC92E0EADE8EE392E0E7DE80E2E6DED9
:1013A00089E293E0E2DE8CED92E0DFDE87E190E01F
:1013B000E8DE8EED92E0D9DE8BE393E0CADE70DAF0
:1013C0000BDF80EC92E0D1DE8EE392E0CEDE80E2B5
:1013D000CDDE89E293E0C9DE8CED92E0C6DE88E1E5
:1013E00090E0CFDE8EED92E0C0DE80E090E0C9DEDE
:1013F0008FED92E0BADE8A819BDE52DAEDDE80EC80
:1014000092E0B3DE8EE392E0B0DE80E2AFDE89E20E
:1014100093E0ABDE8CED92E0A8DE89E190E0B1DEF6
:101420008EED92E0A2DE81E090E0ABDE8FED92E007
:101430009CDE8B817DDE34DACFDE80EC92E095DEBF
:101440008EE392E092DE80E291DE89E293E08DDE2F
:101450008CED92E08ADE8CE190E093DE8EED92E0FE
:1014600084DE85E593E075DE1BDAB6DE80EC92E083
:101470007CDE8EE392E079DE80E278DE89E293E042
:1014800074DE8CED92E071DE8DE190E07ADE8EED1F
:1014900092E06BDE80E090E074DE8FED92E065DE3E
:1014A0008C8146DEFDD998DE80EC92E05EDE8EE334
:1014B00092E05BDE80E25ADE89E293E056DE8CED5C
:1014C00092E053DE8EE190E05CDE8EED92E04DDE48
:1014D00081E090E056DE8FED92E047DE8D8128DEE0
:1014E000DFD97ADE80EC92E040DE8EE392E03DDEF2
:1014F00080E23CDE89E293E038DE8CED92E035DE7E
:101500008FE190E03EDE8EED92E02FDE82E090E013
:1015100038DE8FED92E029DE8E810ADEC1D95CDEF5
:1015200080EC92E022DE8EE392E01FDE80E21EDE9F
:1015300089E293E01ADE8CED92E017DE80E290E023
:1015400020DE8EED92E011DE83E090E01ADE8FED7A
:1015500092E00BDE8F81ECDDA3D93EDE80EC92E0E1
:1015600004DE8EE392E001DE80E200DE89E293E0B9
:10157000FCDD8CED92E0F9DD81E290E002DE8EEDA3
:1015800092E0F3DD84E090E0FCDD8FED92E0EDDDB4
:101590008885CEDD85D920DE80EC92E0E6DD8EE325
:1015A00092E0E3DD80E2E2DD89E293E0DEDD8CEDD6
:1015B00092E0DBDD82E290E0E4DD8EED92E0D5DDCD
:1015C00085E090E0DEDD8FED92E0CFDD8985DF9173
:1015D000CF91AECD2F923F924F925F926F927F92BA
:1015E0008F929F92AF92BF92CF92DF92EF92FF9233
:1015F0000F931F93CF93DF9300D01F921F92CDB70D
:10160000DEB74C011C0122E0220E311C04969B83A4
:101610008A831982F10181911F01282F30E03D83D7
:101620002C83F401A384B484F5018281938128176B
:10163000390730F4B901C50108DA2B013C0103C0B8
:10164000412C512C3201C12CD12C76019301820105
:1016500046EE5FEF66EE7FEF8CEE9FEFBFDD9B0106
:10166000AC01461657066806790611F0F1E0F983D9
:101670006C817D81C50102DB2A813B812216330604
:1016800049F689810F900F900F900F900F90DF9186
:10169000CF911F910F91FF90EF90DF90CF90BF906F
:1016A000AF909F908F907F906F905F904F903F9002
:1016B0002F9008952F923F924F925F926F927F9258
:1016C0008F929F92AF92BF92CF92DF92EF92FF9252
:1016D0000F931F93CF93DF9300D01F921F92CDB72C
:1016E000DEB74C011C0124E0220E311C0A969B83BC
:1016F0008A831982F10181911F01282F30E03D83F7
:101700002C83F401A384B484F5018281938128178A
:10171000390730F4B901C50198D92B013C0103C048
:10172000412C512C3201C12CD12C76019301820124
:1017300042EE5FEF62EE7FEF82EE9FEF4FDD9B01A7
:10174000AC01461657066806790611F0F1E0F983F8
:101750006C817D81C50192DA2A813B812216330694
:1017600049F689810F900F900F900F900F90DF91A5
:10177000CF911F910F91FF90EF90DF90CF90BF908E
:10178000AF909F908F907F906F905F904F903F9021
:101790002F900895789484B5826084BD84B581606B
:1017A00084BD85B5826085BD85B5816085BD80912C
:1017B0006E00816080936E001092810080918100A4
:1017C000826080938100809181008160809381009C
:1017D000809180008160809380008091B10084605E
:1017E0008093B1008091B00081608093B0008091BF
:1017F000910082608093910080919100816080933C
:101800009100809190008160809390008091A10070
:1018100082608093A1008091A10081608093A100EB
:101820008091A00081608093A0008091210182605E
:101830008093210180912101816080932101809119
:10184000200181608093200180917A0084608093E0
:101850007A0080917A00826080937A0080917A0089
:10186000816080937A0080917A00806880937A000A
:101870001092C100E0918C03F0918D0382E080838F
:10188000E0918803F09189031082E0918A03F0913E
:101890008B038FEC808310929403E0919003F0917E
:1018A000910386E08083E0918E03F0918F03808125
:1018B00080618083E0918E03F0918F038081886046
:1018C0008083E0918E03F0918F0380818068808314
:1018D000E0918E03F0918F0380818F7D808361E0A2
:1018E0008DE00E94B8018CEB94E00E9417048CEB11
:1018F00094E00E944E0387EA94E00E94170487EA6E
:1019000094E00E944E0361E08AE994E0DDDC8AE91C
:1019100094E090939704809396048EE894E00E945C
:10192000270462E081E894E0CFDC81E894E09093C2
:101930007E0480937D0485E794E00E94270487EA73
:1019400094E090932804809327041092290485E260
:1019500094E0909322048093210489E194E00E9412
:101960005C040E94500460936F0370937003809333
:101970007103909372038EE894E0ECD985E794E0CC
:10198000E9D989E194E09FDA0E94F4014B015C01FE
:1019900082E3C82ED12CE12CF12C0E94F401DC0151
:1019A000CB0188199909AA09BB09883E9340A10572
:1019B000B10558F021E0C21AD108E108F10888EE1B
:1019C000880E83E0981EA11CB11CC114D104E1044F
:1019D000F10419F70E945004C0906F03D090700377
:1019E000E0907103F0907203DC01CB018C199D092A
:1019F000AE09BF0981379741A105B10508F43CC084
:101A00000E945004E9DB80EC92E0AFDB82E392E0DD
:101A1000ACDB80E2ABDB81E093E0A7DB8CED92E016
:101A2000A4DB84E790E0ADDB8EED92E09EDB86E107
:101A300093E08FDB0E94500460936F0370937003F8
:101A4000809371039093720380916E0381110AC099
:101A500061E08DE00E943B0181E080936E0385E7A9
:101A600094E008C060E08DE00E943B0110926E039C
:101A70008EE894E00E9427040E9416037CCF87EA38
:101A800094E00E9433048CEB94E00C943304CF93E5
:101A9000DF93ECE7F3E01382128288EE93E0A0E09C
:101AA000B0E084839583A683B78386E792E0918331
:101AB000808385EC90E09587848784EC90E097871D
:101AC000868780EC90E0918B808B81EC90E0938B0B
:101AD000828B82EC90E0958B848B86EC90E0978BE8
:101AE000868B118E128E138E148EECEBF4E0118225
:101AF00017821186108616861786108A118A158617
:101B00001286C1E0C387D2E0D487C08362E370E06D
:101B1000CF0182DA66E18CEB94E04FDAE7EAF4E099
:101B2000118217821186108616861786108A118AEE
:101B3000C587C2871386D487C08368E170E0CF0170
:101B40006BDA68E187EA94E038DA2CEB32E0309324
:101B50009B0420939A04EEE8F4E01282138214822C
:101B6000158288EA92E091838083138612863093EF
:101B7000820420938104E5E7F4E012821382148248
:101B80001582918380831386128630936904209393
:101B90006804ECE5F4E012821382148215829183CA
:101BA0008083138612863093500420934F04E3E41D
:101BB000F4E012821382148215829183808313864B
:101BC00012863093370420933604EAE2F4E012825E
:101BD000138214821582918380831386128684E98E
:101BE00092E09093260480932504E9E1F4E01282C8
:101BF00013821482158288E892E091838083DF91BA
:101C0000CF910895A1E21A2EAA1BBB1BFD010DC0A6
:101C1000AA1FBB1FEE1FFF1FA217B307E407F5079C
:101C200020F0A21BB30BE40BF50B661F771F881F78
:101C3000991F1A9469F760957095809590959B010E
:101C4000AC01BD01CF010895EE0FFF1F881F8BBFB0
:101C50000790F691E02D1994CF93DF938230910590
:101C600010F482E090E0E091D304F091D40420E0FD
:101C700030E0C0E0D0E0309711F140815181481749
:101C80005907C0F04817590761F482819381209762
:101C900019F09B838A832BC09093D4048093D30440
:101CA00026C02115310519F04217530718F49A017F
:101CB000BE01DF01EF010280F381E02DDCCF2115B1
:101CC000310509F1281B390B2430310590F41296A7
:101CD0008D919C9113976115710521F0FB01938300
:101CE000828304C09093D4048093D304FD01329680
:101CF00044C0FD01E20FF31F8193919322503109FB
:101D00002D933C933AC02091D1043091D204232BDF
:101D100041F420910202309103023093D2042093C7
:101D2000D10420910002309101022115310541F4C6
:101D30002DB73EB74091040250910502241B350B8C
:101D4000E091D104F091D204E217F307A0F42E1B26
:101D50003F0B2817390778F0AC014E5F5F4F24170F
:101D6000350748F04E0F5F1F5093D2044093D104C3
:101D70008193919302C0E0E0F0E0CF01DF91CF9139
:101D800008950F931F93CF93DF93009709F48CC0AE
:101D9000FC013297138212820091D3041091D40473
:101DA0000115110581F420813181820F931F20914B
:101DB000D1043091D2042817390779F5F093D20471
:101DC000E093D10471C0D80140E050E0AE17BF07E6
:101DD00050F412962D913C911397AD0121153105C8
:101DE00009F1D901F3CF9D01DA01338322836081A8
:101DF0007181860F971F8217930769F4EC01288180
:101E00003981260F371F2E5F3F4F318320838A8110
:101E10009B8193838283452B29F4F093D404E09330
:101E2000D30442C01396FC93EE931297ED014991AF
:101E300059919E01240F351FE217F30771F4808139
:101E40009181840F951F029611969C938E938281A7
:101E5000938113969C938E931297E0E0F0E0D80163
:101E600012968D919C911397009719F0F8018C01AF
:101E7000F6CF8D919C9198012E5F3F4F820F931F5B
:101E80002091D1043091D2042817390769F4309792
:101E900029F41092D4041092D30402C01382128247
:101EA0001093D2040093D104DF91CF911F910F9131
:101EB000089581E090E0F89407C0DC0101C06D93C3
:101EC00041505040E0F7089511E0C8E0D1E000E053
:101ED00005C0802FFE01B8DE2196011DC930D10753
:0A1EE00080E00807B1F7F894FFCF87
:101EEA000000D50480007669727475616C20766F83
:101EFA006964204465617468537461724578706CD2
:101F0A006F64653A3A7374617274536365656E28D7
:101F1A002900766F6964206C6F6F70282900766FCC
:101F2A00696420546965466967687465723A3A73E8
:101F3A00657455702875696E74385F742C20416415
:101F4A006166727569745F4E656F506978656C2A4F
:101F5A00290000000000AF0219024802F5027902C6
:101F6A0057026B020000000047084E045C04630736
:101F7A0000000000460848040000000000000000BD
:101F8A00310431040000000045084A042704AA0667
:101F9A0000000000440846040000000043084C0406
:101FAA003A5B20002E2E5C4465617468537461723A
:101FBA004578706C6F64652E637070003A005D201E
:101FCA0020004465617468537461724578706C6F5F
:101FDA0064653A3A7374617274536365656E28294D
:101FEA00002E2E5C4465617468537461723230311C
:101FFA00382E696E6F004B656570416C6976652095
:10200A006669726564000D0A002E2E5C5469654685
:10201A006967687465722E63707000506F737420FC
:10202A00696E697420696E6E6572206C696768747E
:10203A002069647300706F737420696E6974206F0D
:0E204A00757465724C69676874696473000090
:00000001FF
