:100000003DC100006CC100006AC1000068C1000071
:1000100066C1000064C1000062C1000060C1000050
:100020005EC100005CC100005AC1000058C1000060
:1000300056C1000054C1000052C1000050C1000070
:100040004EC100004CC100004AC1000048C1000080
:1000500046C1000044C1000042C10000E1C10000EF
:100060003EC100000C94610D0C94380D38C10000A5
:1000700036C1000034C1000032C1000030C10000B0
:100080002EC100002CC100002AC1000028C10000C0
:1000900026C1000024C1000022C1000020C10000D0
:1000A0001EC100001CC100001AC1000018C10000E0
:1000B00016C1000014C1000012C1000010C10000F0
:1000C0000EC100000CC100000AC1000008C1000000
:1000D00006C1000004C1000002C1000000C1000010
:1000E000FEC00000BA02BD02AC02B002B602F402C9
:1000F000C102C502CB02CF02D302D902DD02E10266
:10010000F402E702EB02EF0209060E0613061D06D3
:100110002706A0063106390641064B0655065F063E
:100120006E067806A00682068C0696069B09250AAE
:10013000B50AF80A2D0B810BD20B05A84CCDB2D411
:100140004EB93836A9020C50B9918688083CA6AA47
:10015000AA2ABE000000803F0000210024002700E2
:100160002A002D00300033000101000004010701C6
:100170000A0100002200250028002B002E0031007B
:10018000340002010000050108010B0100002000FD
:100190002300260029002C002F003200000100005F
:1001A00003010601090105050505070508080808FA
:1001B000020202020A0A08080404040401010101FF
:1001C00001010101030303030303030304070707FA
:1001D0000C0C0C0C0C0C0C0C02020202060606069F
:1001E000060606060B0B0B0B0B0B0B0B010210206C
:1001F000200808102040102040800201020108045D
:1002000002010102040810204080804020100804F0
:100210000201800402018040201008040201080449
:10022000020101020408102040800102040810208D
:10023000408000000A0B02090C0D0E0807030401A0
:1002400000000000000000000000000000000000AE
:10025000000000000000000000000000000012117B
:10026000100000000000000000000000000000007E
:100270000000000000000000AC1BC81C11241FBEC1
:10028000CFEFD1E2DEBFCDBF00E00CBF15E0A0E0B4
:10029000B2E0EEE9F2E400E00BBF02C007900D927D
:1002A000A43CB107D9F728E0A4ECB5E001C01D9249
:1002B000A132B207E1F711E0CDE3D1E000E006C0E2
:1002C00021970109802FFE010E942521CC33D107FF
:1002D00080E00807A9F70E9404160C943E2190CEF6
:1002E000CF92DF92EF92FF920F931F93CF93DF9302
:1002F0006C017A018B01C0E0D0E0CE15DF0589F0FA
:10030000D8016D918D01D601ED91FC910190F081A4
:10031000E02DC6011995892B11F47E0102C02196AA
:10032000ECCFC701DF91CF911F910F91FF90EF901C
:10033000DF90CF9008950E94332180EE95E00E94D7
:10034000580C21E0892B09F420E0822F08953FB753
:10035000F8948091DC059091DD05A091DE05B091C7
:10036000DF0526B5A89B05C02F3F19F00196A11DFA
:10037000B11D3FBFBA2FA92F982F8827820F911D3B
:10038000A11DB11DBC01CD0142E0660F771F881F82
:10039000991F4A95D1F708958F929F92AF92BF927D
:1003A000CF92DF92EF92FF926B017C01D0DF4B0185
:1003B0005C01C114D104E104F104E9F0C8DFDC01FF
:1003C000CB0188199909AA09BB09883E9340A10568
:1003D000B10578F321E0C21AD108E108F10888EEEE
:1003E000880E83E0981EA11CB11CC114D104E10445
:1003F000F10421F7DECFFF90EF90DF90CF90BF9018
:10040000AF909F908F9008952FB7F8946091D80582
:100410007091D9058091DA059091DB052FBF089581
:100420001F920F920FB60F9211242F933F938F9329
:100430009F93AF93BF938091D8059091D905A091D8
:10044000DA05B091DB053091D70523E0230F2D3776
:1004500020F40196A11DB11D05C026E8230F0296C8
:10046000A11DB11D2093D7058093D8059093D90580
:10047000A093DA05B093DB058091DC059091DD0552
:10048000A091DE05B091DF050196A11DB11D8093FD
:10049000DC059093DD05A093DE05B093DF05BF91E9
:1004A000AF919F918F913F912F910F900FBE0F9021
:1004B0001F901895CF93DF9300D01F92CDB7DEB772
:1004C000611571058105910579F09B01AC01698386
:1004D0003A834B835C830E944A1E29813A814B8177
:1004E0005C810E94561E03C060E070E0CB010F905B
:1004F0000F900F900F90DF91CF910895CF92DF92E0
:10050000EF92FF920F931F9362177307840795076B
:100510007CF489019A016B017C01C901B8016C1955
:100520007D098E099F09C6DF6C0D7D1D8E1D9F1DE7
:100530001F910F91FF90EF90DF90CF90089590E082
:10054000FC013197E231F10508F04EC08827EE58E2
:10055000FF4F8F4F0C942521809180008F7703C02F
:10056000809180008F7D809380000895809180002D
:10057000877FF9CF84B58F7702C084B58F7D84BD26
:1005800008958091B0008F7703C08091B0008F7D77
:100590008093B0000895809190008F7707C080917C
:1005A00090008F7D03C080919000877F80939000A2
:1005B00008958091A0008F7707C08091A0008F7D63
:1005C00003C08091A000877F8093A0000895809150
:1005D00020018F7707C0809120018F7D03C080911B
:1005E0002001877F809320010895009761F0FC012E
:1005F00001900020E9F73197AF01481B590BBC016E
:1006000080EE95E06DCE80E090E008958F929F920D
:10061000AF92BF920F931F93CF93DF93CDB7DEB707
:10062000A1970FB6F894DEBF0FBECDBF19A242301E
:1006300008F44AE08E010F5D1F4F842E912CA12CEF
:10064000B12CA50194010E94821EE62FB901CA01B6
:1006500001501109EA3014F4E05D01C0E95CD801F1
:10066000EC93232B242B252B61F7C801BEDFA19629
:100670000FB6F894DEBF0FBECDBFDF91CF911F91B3
:100680000F91BF90AF909F908F900895CF93DF937D
:10069000ACDFEC018BE794E0A8DF8C0F9D1FDF91AE
:1006A000CF910895A2CFE091E005F091E10501908E
:1006B000F081E02D682F80EE95E01994CF92DF92C3
:1006C000EF92FF92CF93DF936C01990FEE08FF0832
:1006D000F7FE15C08DE2E7DFEC0166277727CB0137
:1006E0006C197D098E099F094AE090DF8C0F9D1FD0
:1006F000DF91CF91FF90EF90DF90CF9008954AE087
:10070000C701B601DF91CF91FF90EF90DF90CF90BE
:100710007DCF4AE07BCF2F923F924F925F926F92B4
:100720007F928F929F92AF92BF92CF92DF92EF9281
:10073000FF920F931F93CF93DF93CDB7DEB72C9724
:100740000FB6F894DEBF0FBECDBF3C017A8369833C
:100750005C834B833E832D83EF82F88609871A875B
:100760001C861B866B857C85F301828193810E94A8
:10077000970D1B012C0188248A94982CA82CB12C4D
:10078000CF80D884E984FA84920181014D815E8111
:100790006B817C8189819A810E941C146B017C0190
:1007A0009B01AC016B857C85F301828193810E9462
:1007B000BD0E8B859C8501969C878B878E35910518
:1007C00089F681E090E02C143D044E045F0411F49E
:1007D00080E090E02C960FB6F894DEBF0FBECDBF40
:1007E000DF91CF911F910F91FF90EF90DF90CF900D
:1007F000BF90AF909F908F907F906F905F904F9041
:100800003F902F900895CF92DF92EF92FF92CF9377
:10081000DF93EC016A017B012DE530E040E050E020
:1008200060E070E0CB016ADEA70196018A819B81BE
:10083000DF91CF91FF90EF90DF90CF900C94BD0EA1
:100840002F923F924F925F926F927F928F929F92E0
:10085000AF92BF92CF92DF92EF92FF920F931F93CE
:10086000CF93DF93CDB7DEB72D970FB6F894DEBFE9
:100870000FBECDBF1C017F836E83598748873B879E
:100880002A879C012E5F3F4F3D872C8707969D83CB
:100890008C831982EC85FD85FB83EA83608170E09F
:1008A000F101858596850E94970D2B013C018824D6
:1008B0008A94982CA82CB12CC12CD12C76019301B0
:1008C00082014A855B85688579858E819F810E943A
:1008D0001C149B01AC01461657066806790611F0F8
:1008E000F1E0F9838C859D8501969D878C87EA814F
:1008F000FB818081682F70E0F101858596850E94DB
:10090000BD0E2C853D858C819D812817390711F6F8
:1009100089812D960FB6F894DEBF0FBECDBFDF9153
:10092000CF911F910F91FF90EF90DF90CF90BF90EC
:10093000AF909F908F907F906F905F904F903F907F
:100940002F9008952F923F924F925F926F927F92D5
:100950008F929F92AF92BF92CF92DF92EF92FF92CF
:100960000F931F93CF93DF93CDB7DEB72B970FB6BF
:10097000F894DEBF0FBECDBF1C017F836E83598705
:1009800048879C01295F3F4F3B872A870C969D83B0
:100990008C831982EA85FB85FB83EA83608170E0A2
:1009A000F101858596850E94970D2B013C018824D5
:1009B0008A94982CA82CB12CC12CD12C76019301AF
:1009C0008201488559856E817F8181EF9FEF0E946A
:1009D0001C149B01AC01461657066806790611F0F7
:1009E000F1E0F9838A859B8501969B878A87EA8156
:1009F000FB818081682F70E0F101858596850E94DA
:100A0000BD0E2A853B858C819D812817390711F6FB
:100A100089812B960FB6F894DEBF0FBECDBFDF9154
:100A2000CF911F910F91FF90EF90DF90CF90BF90EB
:100A3000AF909F908F907F906F905F904F903F907E
:100A40002F900895CF92DF92EF92FF92CF93DF9392
:100A50006C01990FEE08FF08F7FE10C08DE223DE4F
:100A6000EC0166277727CB016C197D098E099F0958
:100A70004AE0CCDD7C01EC0EFD1E05C04AE0C7015A
:100A8000B601C4DD7C018BE794E0AFDD8E0D9F1DC8
:100A9000DF91CF91FF90EF90DF90CF900895CF93AB
:100AA000DF93282F30E0F901EE5CFD4F8491F901CE
:100AB000E451FE4FD491F901EA55FE4FC491CC2385
:100AC00089F081113CDDEC2FF0E0EE0FFF1FE457C1
:100AD000FE4FA591B491EC91ED2381E090E021F4DB
:100AE00080E002C080E090E0DF91CF9108951F93F5
:100AF000CF93DF93282F30E0F901EE5CFD4F849116
:100B0000F901E451FE4FD491F901EA55FE4FC49129
:100B1000CC23C1F0162F811112DDEC2FF0E0EE0F87
:100B2000FF1FEE58FE4FA591B4918FB7F8941111A5
:100B300005C09C91ED2FE095E92302C0EC91ED2BCF
:100B4000EC938FBFDF91CF911F910895CF93DF93E7
:100B500090E0FC01E451FE4F2491FC01EA55FE4F68
:100B60008491882361F190E0880F991FFC01E85A75
:100B7000FE4FC591D491FC01EE58FE4FA591B49162
:100B8000611109C09FB7F8948881209582238883DA
:100B9000EC912E230BC0623061F49FB7F89438813A
:100BA000822F809583238883EC912E2B2C939FBFDB
:100BB00006C08FB7F894E8812E2B28838FBFDF9172
:100BC000CF9108951F93CF93DF93182FEB0161E02E
:100BD000BDDF209711F460E004C0CF3FD10531F4B0
:100BE00061E0812FDF91CF911F9181CFE12FF0E064
:100BF000EE5CFD4FE4914E2F50E0FA013197E23167
:100C0000F10508F09DC08827EC57FF4F8F4F0C94DB
:100C1000252184B5806884BDC7BD97C084B5806236
:100C200084BDC8BD92C080918000806880938000A0
:100C3000D0938900C093880088C080918000806232
:100C400080938000D0938B00C0938A007EC08091F7
:100C50008000886080938000D0938D00C0938C00CA
:100C600074C08091B00080688093B000C093B300DE
:100C70006CC08091B00080628093B000C093B400DB
:100C800064C080919000806880939000D093990018
:100C9000C09398005AC08091900080628093900029
:100CA000D0939B00C0939A0050C0809190008860C0
:100CB00080939000D0939D00C0939C0046C080918B
:100CC000A00080688093A0008091A0008F7B80931B
:100CD000A000D093A900C093A80037C08091A000C5
:100CE00080628093A000D093AB00C093AA002DC077
:100CF0008091A00088608093A000D093AD00C09345
:100D0000AC0023C080912001806880932001D093A3
:100D10002901C093280119C080912001806280932D
:100D20002001D0932B01C0932A010FC08091200194
:100D3000886080932001D0932D01C0932C0105C0C1
:100D4000C038D1050CF04CCF46CFDF91CF911F9129
:100D500008954F925F926F927F928F929F92AF927F
:100D6000BF92CF92DF92EF92FF920F931F93CF9398
:100D7000DF93EC01CA80DB80EC80FD8045DB6C15E5
:100D80007D058E059F0508F4CEC18D859E85892B36
:100D900009F0C9C1F0EFAF2EBA2CCA2CD12CE12C2E
:100DA00018E0F12E00E010E026EF3FEF49EF5FEF93
:100DB00066EF7FEF89859A850E94B114E985FA85EF
:100DC00084818F5F883110F4848301C01482648130
:100DD00070E020E230E240E250E082819381CDD7A2
:100DE000E985FA85828193810E94290F0DDBA0900D
:100DF000C405B090C50527E02A9D60012B9DD00C4D
:100E000011240D2C000CEE08FF08DC01CB018C191D
:100E10009D09AE09BF09C296A11DB11D8A839B839E
:100E2000AC83BD83F1DACF88D88CE98CFA8CC616F6
:100E3000D706E806F906E0F4B501660F771F660FDE
:100E4000771F60957095E12CF12C87019B01AB0118
:100E50008B859C8560DCD8DADC01CB01855B9F4FFC
:100E6000AF4FBF4F8F8B988FA98FBA8F11E001C002
:100E700010E0CADACB88DC88ED88FE88C616D70673
:100E8000E806F90608F038C185E08A9D60018B9D6F
:100E9000D00C112496012E5C3F4F032E000C440B06
:100EA000550B6AE070E080E090E028DB4B015C01CC
:100EB0002EE1C20ED11C0D2C000CEE08FF08A7017C
:100EC000960160E070E0CB0119DB2B013C01A7012A
:100ED000960160E070E0CB0111DB6B01770FEE084B
:100EE000FF08FE2CED2CDC2CCC24052C000C660815
:100EF00077084C285D286E287F28762C652C542C8A
:100F000044246401990CEE08FF08C428D528E6287B
:100F1000F728B701A6018B859C8575DC8091C405F7
:100F20009091C505181619062CF4B701A6018B85FA
:100F30009C8569DC8091C4059091C50502972CF0D1
:100F4000B701A6018B859C855EDC8091C4059091DC
:100F5000C50502972CF0B701A6018B859C8553DC53
:100F60008091C4059091C50503972CF0B701A601A7
:100F70008B859C8548DC8091C4059091C5050397BD
:100F80002CF0B701A6018B859C853DDC8091C405C2
:100F90009091C50503972CF0B701A6018B859C8520
:100FA00032DC8091C4059091C50504972CF0B701FF
:100FB000A6018B859C8527DC8091C4059091C50591
:100FC00004972CF0B701A6018B859C851CDC8091D1
:100FD000C4059091C50504972CF0B701A6018B8537
:100FE0009C8511DC8091C4059091C50505972CF076
:100FF000B701A6018B859C8506DC8091C405909184
:10100000C50505972CF0B701A6018B859C85FBDBF8
:101010008091C4059091C50505972CF0B701A601F4
:101020008B859C85F0DB8091C4059091C505059763
:101030002CF0B701A6018B859C85E5DB8091C4056A
:101040009091C50505972CF0B701A6018B859C856D
:10105000DADB65EF70E080E090E02CDA4B015C01B8
:101060006BEE70E080E090E025DA6B017C016BEEC6
:1010700070E080E090E01EDADC01CB014496A11D17
:10108000B11D092E000CAA0BBB0BBA2FA92F982F4C
:10109000882724E1C20ED11CE11CF11C0D2C000C90
:1010A000EE08FF08C82AD92AEA2AFB2AFE2CED2CD2
:1010B000DC2CCC24D501C4010A96A11DB11D092E3A
:1010C000000CAA0BBB0BA7019601282B392B4A2B2E
:1010D0005B2BEB85FC8564E070E0828193814DD6CB
:1010E00093D9DC01CB01885E9E4FAF4FBF4F8B8BF6
:1010F0009C8BAD8BBE8B02C01123A9F0EB85FC85C8
:1011000082819381DF91CF911F910F91FF90EF909A
:10111000DF90CF90BF90AF909F908F907F906F9017
:101120005F904F9096C6DF91CF911F910F91FF90E6
:10113000EF90DF90CF90BF90AF909F908F907F9077
:101140006F905F904F9008950C94691D0C94691DE9
:101150000C94691D0C94691DCF92DF92EF92FF925F
:101160000F931F93CF93DF93EC014ED9D2DA8EE227
:1011700094E098DA83E992E095DA80E294DA8EE7F7
:1011800094E090DA87E494E08DDA8AE290E096DAEF
:1011900089E494E087DA86E994E078DAEB85FC85E7
:1011A0000481158160E085E0A2DC2ED9F801C280BF
:1011B000D380E480F580DC01CB018C0D9D1DAE1D3C
:1011C000BF1D848F958FA68FB78F1ED9688B798BA3
:1011D0008A8B9B8BE985FA8515821F861E861D8664
:1011E0001A821B821C821D820FD993DA8EE294E050
:1011F00059DA83E992E056DA80E255DA8EE794E034
:1012000051DA87E494E04EDA82E390E057DA89E439
:1012100094E048DA86E994E0DF91CF911F910F9135
:10122000FF90EF90DF90CF9031CA0895CF92DF9278
:10123000EF92FF920F931F93CF93DF938C016A017C
:101240007B01C0E0D0E0A7019601BE01F8018281D8
:10125000938193D52196CE35D105A9F7F8018281E6
:101260009381DF91CF911F910F91FF90EF90DF90CD
:10127000CF90EFC5CF93DF93EC01C6D84ADA8EE268
:1012800094E010DA8DE493E00DDA80E20CDA85EB7D
:1012900094E008DA87E494E005DA87E290E00EDA79
:1012A00089E494E0FFD98EEC94E0F0D91A821B8295
:1012B0001C821D821E861D8640E050E0BA01898591
:1012C0009A850E94E11240E050E0BA018B859C852E
:1012D000ADDF9AD86F87788B898B9A8B6F8B788FDD
:1012E000898F9A8F6B8B7C8B8D8B9E8BDF91CF91AF
:1012F0000895AF92BF92CF92DF92EF92FF920F9339
:101300001F93CF93DF93EC01CA80DB80EC80FD80DC
:101310007BD86C157D058E059F0508F486C2ED858A
:10132000FE85E730F10508F080C28827EA56FF4FB6
:101330008F4F0C94252168D8088919892A893B89FF
:10134000601B710B820B930B0E94B11F2BED3FE0D2
:1013500049E450E40E943F2020E030E04AE754E4B2
:101360000E94181F9B01AC010E94B41E0E94A22083
:1013700020E030E040E85FE30E94B41E20E030E06F
:1013800040EA52E40E943F202DEC3CEC4CE45FE349
:101390000E943F2020E030E040E252E40E94B41E70
:1013A0000E94801FAB01770F660B770BBA015527A0
:1013B000442789859A850E94E11226D8DC01CB0159
:1013C000C296A11DB11D8A839B83AC83BD83C8884F
:1013D000D988EA88FB888CEDC80E85E0D81EE11C10
:1013E000F11C12D8C616D706E806F90608F01DC289
:1013F0000BD8688B798B8A8B9B8B1F8681E090E062
:101400009E878D8701D885D98EE294E04BD988E2FA
:1014100093E048D980E247D98EE794E043D987E446
:1014200094E040D986E990E049D989E494E03AD93A
:101430008EEE94E0DF91CF911F910F91FF90EF908E
:10144000DF90CF90BF90AF9021C90E94040208891D
:1014500019892A893B89601B710B820B930B0E94AF
:10146000B11F2BED3FE049E450E40E943F2020E013
:1014700030E04AE754E40E94181F9B01AC010E942F
:10148000B41E0E94A22020E030E040E85FE30E940A
:10149000B41E20E030E040EA52E40E943F202DECF0
:1014A0003CEC4CE45FE30E943F2020E030E040E26F
:1014B00052E40E94B41E0E94801F6B01770FEE0859
:1014C000FF087601DD24CC24B701A60189859A8521
:1014D0000E94E1120E940402088919892A893B8925
:1014E000601B710B820B930B28E230E040E050E070
:1014F0000E94821E2F8700E010E08F8590E0EB8530
:10150000FC85081719074CF4A7019601B8018281E0
:10151000938133D40F5F1F4FF0CF8281938199D491
:101520008F858E3510F08DE58F870E940402DC01D7
:10153000CB01C296A11DB11D8A839B83AC83BD8361
:10154000C888D988EA88FB88E0EACE0EEFE0DE1E84
:10155000E11CF11C0E940402C616D706E806F90633
:1015600008F063C182E090E055C1AA24AA94BA2C85
:10157000CA2CD12CE12CF12C00E210E021EF3FEF3E
:1015800041EF5FEF6BEF7FEF89859A850E94B11481
:10159000D82EE985FA85828193815BD4E12CF12CE8
:1015A00008E010E021EF3FEF41EF5FEF6BEF7FEFDF
:1015B0008B859C85B0D8182FEB85FC858281938123
:1015C00048D40E940402DC01CB01C296A11DB11DCA
:1015D0008A839B83AC83BD831D0D09F026C10E94C5
:1015E00004026A837B838C839D8383E090E012C135
:1015F0000E9404028ED88EE294E054D886E093E0F4
:1016000051D880E250D88EE794E04CD887E494E03B
:1016100049D883EC90E052D889E494E043D886E03E
:1016200095E034D840E050E0BA0189859A85C9D761
:1016300040E85FEF6FEF70E08B859C85F7DD0E94DF
:101640000402DC01CB014E96A11DB11D8A839B8350
:10165000AC83BD8384E090E0DDC00E94040259D8D1
:101660008EE294E01FD881EE92E01CD880E21BD875
:101670008EE794E017D887E494E014D88CEC90E0DF
:101680001DD889E494E00ED88DE095E00E944603D1
:101690000E9404023ED88EE294E004D881EE92E0EB
:1016A00001D880E200D88EE794E00E94520387E4DC
:1016B00094E00E9452038DEC90E000D889E494E01D
:1016C0000E94520386E095E00E94460340E050E00D
:1016D000BA0189859A8575D740E050E0BA018B85BB
:1016E0009C85A4DD0E940402DC01CB0180579E4F43
:1016F000AF4FBF4F8A839B83AC83BD8385E090E06F
:1017000089C00E94040205D88EE294E00E94520330
:101710008FEB92E00E94520380E20E9453038EE717
:1017200094E00E94520387E494E00E94520387ED04
:1017300090E00E945E0389E494E00E94520388E1F5
:1017400095E00E944603EB85FC850481158160E0ED
:1017500082E0CDD90E940402F801C280D380E480E7
:10176000F580DC01CB018C0D9D1DAE1DBF1D808F52
:10177000918FA28FB38F4FEF5FEF6FEF70E089858E
:101780009A851FD740E85FEF6FEF70E08B859C85EF
:101790004DDD0E940402DC01CB01825A9E4FAF4F07
:1017A000BF4F32C0AA24AA94BA2CCA2CD12CE12C47
:1017B000F12C870127EE3FEF42EF5FEF62EF7FEF03
:1017C00089859A850E94B114D82EE985FA8582818F
:1017D00093813FD32CEE3FEF44EF5FEF68EF7FEF55
:1017E0008B859C850E948B03182FEB85FC8582815D
:1017F00093812FD31D0D89F00E940402DC01CB01DF
:101800008C599F4FAF4FBF4F8A839B83AC83BD835F
:1018100086E090E09E878D8708C080E09CE5A6E288
:10182000B5E08A839B83AC83BD83DF91CF911F9109
:101830000F91FF90EF90DF90CF90BF90AF90089501
:10184000089508950895089580E090E00895FC01BA
:10185000538D448D252F30E0842F90E0821B930B15
:10186000541710F0CF96089501970895FC01918DBB
:10187000828D981761F0828DDF01A80FB11D5D96F2
:101880008C91928D9F5F9F73928F90E008958FEF60
:101890009FEF0895FC01918D828D981731F0828D14
:1018A000E80FF11D858D90E008958FEF9FEF08956B
:1018B000FC01918D228D892F90E0805C9F4F821BCF
:1018C00091098F7399270895FC01848DDF01A80F7A
:1018D000B11DA35ABF4F2C91848D90E001968F7358
:1018E0009927848FA689B7892C93A089B1898C9177
:1018F00080648C93938D848D981306C00288F3893D
:10190000E02D80818F7D80830895EF92FF920F9369
:101910001F93CF93DF93EC0181E0888F9B8D8C8D9B
:10192000981305C0E889F989808185FD23C0F62ECA
:101930000B8D10E00F5F1F4F0F731127E02E8C8D62
:10194000E8120BC00FB607FCFACFE889F98980814D
:1019500085FFF5CFCE01B8DFF2CF8B8DFE01E80F0A
:10196000F11DE35AFF4FF0820B8FEA89FB898081DA
:10197000806207C0EE89FF896083E889F9898081E8
:101980008064808381E090E0DF91CF911F910F917F
:10199000FF90EF900895CF93DF93EC01888D88231B
:1019A000C1F0EA89FB89808185FD05C0A889B989D4
:1019B0008C9186FD0EC00FB607FCF5CF808185FFA8
:1019C000F2CFA889B9898C9185FFEDCFCE017CDF5C
:1019D000E8CFDF91CF91089580E090E0892B21F04E
:1019E0000E949D01811125C080E090E0892B41F08B
:1019F00080E090E0892B21F00E94000081111CC042
:101A000080E090E0892B41F080E090E0892B21F08C
:101A10000E940000811113C080E090E0892BA1F0AA
:101A200080E090E0892B81F00E94000081110AC0C3
:101A300008950E940000D8CF0E940000E1CF0E94CC
:101A40000000EACF0C9400000895CF93DF93EC01DF
:101A500088859985009711F00E94691D8E8187FD08
:101A600004C060E0DF91CF9171C8DF91CF910895FC
:101A70001F920F920FB60F9211240BB60F922F9355
:101A80003F934F935F936F937F938F939F93AF9306
:101A9000BF93EF93FF9380EE95E016DFFF91EF91F8
:101AA000BF91AF919F918F917F916F915F914F9176
:101AB0003F912F910F900BBE0F900FBE0F901F9074
:101AC00018951F920F920FB60F9211240BB60F921A
:101AD0002F938F939F93EF93FF93E091F005F091F5
:101AE000F1058081E091F605F091F70582FD12C0C5
:101AF00090818091F9058F5F8F732091FA0582178D
:101B000051F0E091F905F0E0E052FA4F958F8093A3
:101B1000F90501C08081FF91EF919F918F912F91E5
:101B20000F900BBE0F900FBE0F901F9018954F9205
:101B30005F926F927F928F929F92AF92BF92CF925D
:101B4000DF92EF92FF920F931F93CF93DF93DC010D
:101B500012968D919C9113976817790708F0F9C038
:101B60001D968C911D971A96EC901A971896ED91E8
:101B7000FC91199717968C901797482F50E01B9659
:101B80001C911B971C960C91EB018E1164C0CC0F1D
:101B9000DD1FC60FD71FCE0FDF1F882009F443C0FB
:101BA000912CA12CB12CFE01E40FF51F608170E097
:101BB000762F6627072E000C880B990BA501940140
:101BC0000E94821E390155244424FE01E10FF11DBB
:101BD000608170E0762F6627072E000C880B990B2A
:101BE000A50194010E94821EB42FA32F922F882753
:101BF00073016201C82AD92AEA2AFB2AC00FD11D23
:101C0000688170E0762F6627072E000C880B990BF1
:101C1000A50194010E94821EC701B601622B732B9D
:101C2000842B952B99C0FE01E40FF51F2081FE0146
:101C3000E10FF11D6081862F90E0A0E0B0E0BA2FA7
:101C4000A92F982F8827A22BC00FD11D2881BC0156
:101C5000CD01622B81C0CC0FDD1FCC0FDD1FCE0F5D
:101C6000DF1FF12C882009F458C0912CA12CB12C35
:101C7000FE01E40FF51F608170E0762F6627072EC6
:101C8000000C880B990BA50194010E94821E722EF4
:101C9000662455244424FE01EE0DFF1D608170E092
:101CA000762F6627072E000C880B990BA50194014F
:101CB0000E94821E7901DD24CC24C428D528E62880
:101CC000F728FE01E00FF11D608170E0762F662796
:101CD000072E000C880B990BA50194010E94821E0F
:101CE000C22AD32AE42AF52AC10FD11D688170E0E7
:101CF000762F6627072E000C880B990BA5019401FF
:101D00000E94821EB42FA32F922F8827BC01CD01E1
:101D10006C297D298E299F291FC0FE01E40FF51F24
:101D20002081FE01EE0DFF1D6081862F90E0A0E076
:101D3000B0E0DC0199278827B22BFE01E00FF11DEE
:101D40002081822BC10FD11D2881BC01CD01722BB6
:101D500003C060E070E0CB01DF91CF911F910F9144
:101D6000FF90EF90DF90CF90BF90AF909F908F90BB
:101D70007F906F905F904F9008958F929F92AF9257
:101D8000BF92CF92DF92EF92FF920F931F93CF9368
:101D9000DF93FC01828193816817790708F04CC0BA
:101DA0004A01AA24BB24B82DC32ED42EE52EFF242D
:101DB000AC2D922F8781882361F0889E40011124E9
:101DC000B92DC89E60011124AD2D289FE00111247A
:101DD0009D2FD584C285E084F184DC1208C09B016C
:101DE000220F331F620F731F6E0D7F1D16C0660F0B
:101DF000771F660F771F6E0D7F1D052F1127222776
:101E00003327EB01CD0DD11D882329F0089F9001C8
:101E10001124232F01C0202F28838285EB01C80FB6
:101E2000D11DB8838385EB01C80FD11DA88384859C
:101E3000FB01E80FF11D9083DF91CF911F910F916E
:101E4000FF90EF90DF90CF90BF90AF909F908F90DA
:101E50000895CF92DF92EF92FF920F931F93CF934B
:101E6000DF93CDB7DEB729970FB6F894DEBF0FBE6C
:101E7000CDBF8C01DC0118968D919C911997892B0F
:101E800009F4A3C00E94A701F801C684D784E088A2
:101E9000F188DC01CB018C199D09AE09BF098C3298
:101EA0009140A105B10570F3F894D80114968D9175
:101EB0009C9115979A8389831896ED91FC911997B7
:101EC0007F01BFEFEB1AFB0A80818987F8019081BF
:101ED0000288F389E02DD80154968C91992309F456
:101EE00030C09081982B98879081809589238F832B
:101EF0008F818C8388E08B8358856F8149853B81F6
:101F00002C8189819A81D701508347FD252F3A95ED
:101F10002083262F39F0441F00C00000608300009A
:101F200000C0F2CF38E04D9160830000019761F767
:101F3000D8015396FC93EE93529749873B832C83A9
:101F40003AC09081982B98879081809589238F83C0
:101F50008F818E8388E08D8358856F8149853D818F
:101F60002E8189819A81D701508347FD252F00C09A
:101F700000C0208300C000C000C000C000C060835B
:101F80000000262F3A9541F0441F000000C000C019
:101F900000C000C000C0E8CF38E04D9100C06083B1
:101FA00000C0019709F7D8015396FC93EE9352971E
:101FB00049873D832E839A83898378940E94A70161
:101FC000F80166877787808B918B29960FB6F894F6
:101FD000DEBF0FBECDBFDF91CF911F910F91FF905C
:101FE000EF90DF90CF900895CF93DF93EC018E8137
:101FF00087FD07C061E00E94A60560E08E810E9417
:10200000770581E08983DF91CF910895CF92DF92A8
:10201000EF92FF921F93CF93DF93EC017B01142F7C
:1020200019821F821E861F86188A198AC90146E0F6
:10203000969587954A95E1F7482F43704D87C901DA
:1020400054E0969587955A95E1F783708A87B90190
:10205000769567957695679563706B87922F9370E9
:102060009C8791E02F3F310511F008F090E09883B4
:10207000481719F084E090E002C083E090E08E9D64
:1020800060018F9DD00C9E9DD00C1124DD82CC82EE
:10209000C6010E94D41C99878887009741F0A60149
:1020A00060E070E00E943721FB82EA8204C01D825A
:1020B0001C821B821A821E838981882341F061E081
:1020C000812F0E94A60560E0812F0E947705812F55
:1020D00090E0FC01EA55FE4FE491F0E0EE0FFF1FA7
:1020E000EE58FE4F259134913B8B2A8BFC01E45135
:1020F000FE4FE491EC8BDF91CF911F91FF90EF9019
:10210000DF90CF9008950C94691D0C94691D0C9478
:10211000691D0C94691D0C94691D8F929F92AF925A
:10212000BF92CF92DF92EF92FF920F931F93CF93C4
:10213000DF93EC01CA80DB80EC80FD800E9404020A
:102140006C157D058E059F0508F48AC08B859C85DE
:102150008130910509F449C0B4F5892B09F080C09C
:1021600065E070E080E090E00E945A024B015C0163
:102170002FEF821A920AA20AB20AE985FA8504852B
:1021800010E0015011090E9404026B017C0120E95A
:1021900031E0D8010E942D21C60ED71EE81EF91E7F
:1021A000A0EDB7E0A50194010E94721EDC01CB01F5
:1021B0008C0D9D1DAE1DBF1D8A839B83AC83BD838B
:1021C00081E090E029C08230910549F1039709F040
:1021D00047C00E940402DC01CB01945AA94DBA4FBA
:1021E0008A839B83AC83BD833BC00E940402DC01D5
:1021F000CB0188519C4FAF4FBF4F8A839B83AC83E9
:10220000BD838FEF8D87E985FA856FEF70E0878555
:102210000E94E20582E090E09C878B8721C00E94AB
:102220000402DC01CB018896A11DB11D8A839B832A
:10223000AC83BD836D856E516D8770E0E985FA854D
:1022400087850E94E2058D85893250F41D86E985D7
:10225000FA8560E070E087850E94E2051C861B8697
:10226000DF91CF911F910F91FF90EF90DF90CF9072
:10227000BF90AF909F908F900895CF92DF92EF9292
:10228000FF920F931F93CF93DF93EC010E94040200
:102290000E9489038EE294E00E9452038FEF93E044
:1022A0000E94520380E20E9453038FE195E00E9456
:1022B000520387E494E00E94520389E290E00E9476
:1022C0005E0389E494E00E9452038AE395E00E9451
:1022D0004603E984FA8487010E5F1F4F670187E098
:1022E000C80ED11CF80161918F0170E020E030E050
:1022F000A901F7018585968540DD0C151D0591F72F
:10230000E984FA848701095F1F4F6701FCE0CF0E63
:10231000D11CF80161918F0170E020E030E0A9014B
:10232000F7018585968529DD0C151D0591F7E98551
:10233000FA85858596858DDD1C861B861A821B8213
:102340001C821D82E985FA8581E0818BDF91CF9126
:102350001F910F91FF90EF90DF90CF900895CF9253
:10236000DF92EF92FF920F931F93CF93DF93EC01D5
:10237000CA80DB80EC80FD800E9404026C157D0524
:102380008E059F0508F4B9C08B859C858130910529
:1023900009F449C08230910509F47EC0892B09F007
:1023A000ACC0E984FA8487010E5F1F4F670187E0A4
:1023B000C80ED11CF80161918F0170E02FEF3FEF43
:1023C0004FEF50E0F70185859685D7DC0C151D058C
:1023D00089F7E984FA848701095F1F4F6701FCE0F0
:1023E000CF0ED11CF80161918F0170E020EF30EF2A
:1023F0004FEF50E0F70185859685BFDC0C151D0574
:1024000089F7E985FA858585968523DD82E090E068
:102410009C878B870E940402DC01CB018C509E4F6D
:10242000AF4FBF4F66C021EF3FEF41EF5FEF6FEF60
:102430007FEF89859A850E942004082F47EE5FEF81
:1024400067EE7FEF89859A850E94A204182FE9859F
:10245000FA8585859685FDDC0E940402DC01CB01AE
:102460000A96A11DB11D8A839B83AC83BD832E81F7
:102470003F81215031093F832E83100F09F03DC069
:1024800082E090E09C878B870E940402DC01CB01F4
:102490000596A11DB11D2DC02CEE3FEF4CEE5FEF58
:1024A00066EF7FEF89859A850E942004082F42EE0F
:1024B0005FEF62EE7FEF89859A850E94A204182F54
:1024C000E985FA8585859685C4DC0E940402DC01D5
:1024D000CB010596A11DB11D8A839B83AC83BD836F
:1024E000100F59F40E940402DC01CB01945AA94D4B
:1024F000BA4F8A839B83AC83BD83DF91CF911F91B9
:102500000F91FF90EF90DF90CF900895CF92DF92E0
:10251000EF92FF920F931F93CF93DF93EC011C86F2
:102520001B861A821B821C821D820E9404020E944A
:1025300089038EE294E00E9452038FE993E00E94A7
:10254000520380E20E9453038CE595E00E945203FF
:1025500087E494E00E94520389E290E00E945E03C7
:1025600089E494E00E94520385E795E00E944603C7
:10257000E985FA850289138960E085E00E94770584
:102580000E940402F801C280D380E480F580DC015F
:10259000CB018C0D9D1DAE1DBF1D848F958FA68F09
:1025A000B78FE985FA85118A60E070E08785DF9151
:1025B000CF911F910F91FF90EF90DF90CF900C94EF
:1025C000E205CF92DF92EF92FF920F931F93CF938A
:1025D000DF938C016A017B01C0E0D0E0A701960186
:1025E000BE01F80182819381C8DB2196C831D105F3
:1025F000A9F7F80182819381DF91CF911F910F910B
:10260000FF90EF90DF90CF9024CCCF93DF93EC013D
:1026100040E850E86FEF70E089859A85D2DF40E8A6
:1026200050E86FEF70E08B859C850E9416096CEB7B
:1026300072E080E090E00E94CC0140E050E0BA01FE
:1026400089859A85BEDF40E050E0BA018B859C8584
:102650000E94160964EF71E080E090E0DF91CF9175
:102660000C94CC01CF93DF93EC0140E850E86FEF7E
:1026700070E089859A85A5DF40E850E86FEF70E04B
:102680008B859C850E9416096CE271E080E090E0E9
:102690000E94CC0140E050E0BA0189859A8591DF23
:1026A00040E050E0BA018B859C850E94160964EFDA
:1026B00071E080E090E0DF91CF910C94CC01CF935A
:1026C000DF93EC010E9404020E9489038EE294E0F1
:1026D0000E9452038AE793E00E94520380E20E9424
:1026E000530385E995E00E94520387E494E00E9439
:1026F000520389E290E00E945E0389E494E00E9424
:10270000520388EA94E00E9446031A821B821C82CC
:102710001D8240E050E0BA0189859A8552DF40E091
:1027200050E0BA018B859C850E9416090E94040224
:102730006F87788B898B9A8B1E861D861886DF9112
:10274000CF9108950895FC01728761870E94040269
:102750000E9489038EE294E00E9452038CEC93E085
:102760000E94520380E20E9453038FE195E00E9491
:10277000520387E494E00E9452038CE190E00E94AF
:102780005E0389E494E00E94520386EA95E00C948B
:10279000460308950895CF93DF93EC018C85833031
:1027A000D9F050F4813091F0823009F58BE18F87B8
:1027B00083E2888B88E21CC0843099F08530B9F4BC
:1027C0008EE18F8786E2888B84E112C08AE18F8751
:1027D00082E2888B8EE10CC08CE18F8784E2888B4B
:1027E00006C08DE18F8785E2888B8AE001C080E09A
:1027F000FE0137969E01245F3F4F8193DF011697BC
:1028000091E0980F9C938E5FE217F307B1F761E0B8
:102810008F850E94A60562E08889DF91CF910C9494
:10282000A605FC0180890E944F0521E0892B09F44F
:1028300020E0822F089508952F923F924F925F9249
:102840006F927F928F929F92AF92BF92CF92DF92C0
:10285000EF92FF920F931F93CF93DF93CDB7DEB725
:102860002A970FB6F894DEBF0FBECDBF5A874987AF
:10287000412E522E632E77244D825E826F8278869F
:10288000160133244D2C5E2C6F2C7724F201FF2788
:10289000AE2DB0E0A40155275A834983FF24EB2CC9
:1028A000DA2CC92CDD24EA2CF12C820F911D8A1719
:1028B0009B070CF4CD014D805E805524460E571EBB
:1028C0004E165F060CF42F01112769847A84060DD9
:1028D000171D021513050CF48101C414D5040CF462
:1028E0002601052C000C66087708762C652C542CE4
:1028F000442429813A81201731070CF48901012EE3
:10290000000C220B330B402A512A622A732AE81644
:10291000F9060CF4C701092E000CAA0BBB0BDC0155
:1029200099278827BC01CD01642975298629972913
:102930002A960FB6F894DEBF0FBECDBFDF91CF91C0
:102940001F910F91FF90EF90DF90CF90BF90AF90CD
:102950009F908F907F906F905F904F903F902F90BF
:1029600008952F923F924F925F926F927F928F9233
:102970009F92AF92BF92CF92DF92EF92FF920F930E
:102980001F93CF93DF93CDB7DEB762970FB6F8945E
:10299000DEBF0FBECDBF9A8389837C836B835E834A
:1029A0004D8338872F83E986FA860B871C87AD868F
:1029B000BE86CF86D88A1A8A198AE981FA8162800E
:1029C000738069897A89C301B2D81B012C018D8477
:1029D0009E84AF84B888C984DA84EB84FC848B013C
:1029E0009C014F8158856D817E818B819C8124DF84
:1029F0006B017C019B01AC0169897A89C301BDD956
:102A000089899A8901969A8B898B4897B1F681E0DA
:102A100090E02C143D044E045F0411F480E090E03B
:102A200062960FB6F894DEBF0FBECDBFDF91CF9197
:102A30001F910F91FF90EF90DF90CF90BF90AF90DC
:102A40009F908F907F906F905F904F903F902F90CE
:102A500008958F929F92AF92BF92CF92DF92EF92A2
:102A6000FF920F931F93CF93DF93EC018A809B809B
:102A7000AC80BD800E940402681579058A059B051B
:102A800008F4B4C08D849E8481E08816910409F412
:102A90004BC082E08816910409F466C0892809F0C9
:102AA000A5C0CE01B2DDCE01DDDDCE01AEDDCE01B1
:102AB000D9DD64EF71E080E090E00E94CC01CE01AE
:102AC000D1DDCE01A2DDCE01CDDDCE01CBDD64EFC7
:102AD00071E080E090E00E94CC01CE01C3DDCE0128
:102AE00094DD64EF71E080E090E00E94CC01CE01C3
:102AF000B9DDCE018ADDCE01B5DD64EF71E080E0A5
:102B000090E00E94CC01CE01ADDD64EF71E080E089
:102B100090E00E94CC0168EE73E080E090E00E94BB
:102B2000CC0181E090E01DC04FEF50E060E070E02C
:102B300089859A8546DD4FEF50E060E070E08B8537
:102B40009C850E9416090E940402DC01CB018C5076
:102B50009E4FAF4FBF4F8A839B83AC83BD8382E080
:102B600090E09E878D8742C0AA24AA94BA2CCA2CD2
:102B7000D12CE12CF12C87012CEE3FEF4CEE5FEFD6
:102B800066EF7FEF89859A85ECDE9C8B8B8BE985E0
:102B9000FA85828193815DD92CEE3FEF41EF5FEFA3
:102BA00064EF7FEF8B859C850E948B032B893C898A
:102BB000820F931F9C8B8B8BEB85FC85828193818D
:102BC00048D98B899C891816190674F40E9404024E
:102BD000DC01CB018896A11DB11D8A839B83AC8348
:102BE000BD839E868D8602C081E08887DF91CF916C
:102BF0001F910F91FF90EF90DF90CF90BF90AF901B
:102C00009F908F9008950895789484B5826084BDD4
:102C100084B5816084BD85B5826085BD85B58160E0
:102C200085BD80916E00816080936E00109281005E
:102C30008091810082608093810080918100816019
:102C400080938100809180008160809380008091DA
:102C5000B10084608093B1008091B0008160809366
:102C6000B0008091910082608093910080919100EA
:102C700081608093910080919000816080939000AA
:102C80008091A10082608093A1008091A100816069
:102C90008093A1008091A00081608093A00080912A
:102CA00021018260809321018091210181608093C4
:102CB00021018091200181608093200180917A0020
:102CC000846080937A0080917A00826080937A0099
:102CD00080917A00816080937A0080917A00806888
:102CE00080937A001092C100E091F005F091F10517
:102CF00082E08083E091EC05F091ED051082E09197
:102D0000EE05F091EF058FEC80831092F805E091CD
:102D1000F405F091F50586E08083E091F205F091ED
:102D2000F305808180618083E091F205F091F305E5
:102D3000808188608083E091F205F091F3058081C5
:102D400080688083E091F205F091F30580818F7DAA
:102D5000808361E08DE00E94A605C0E080910002C2
:102D600062E08C0F0E94A605CF5FC630B9F7C0E0C5
:102D7000D0E0809100028C0F0E944F05892B21F436
:102D8000D0930202C09301022196C630D10589F783
:102D900080E092E09093DD078093DC0700E010E094
:102DA000C8EBD7E0E090B807F090B907E00EF11E4D
:102DB00061E08E2D0E94A60561E08E2D0E947705B0
:102DC0000F5F1F4F0830110559F780E09CE5A6E220
:102DD000B5E08093D0079093D107A093D207B0932A
:102DE000D3078093D4079093D507A093D607B093C9
:102DF000D7078093D8079093D907A093DA07B093A9
:102E0000DB0788E098E0F0D888E098E022D883EFEC
:102E100097E0EAD883EF97E01CD88EED97E0E4D8EE
:102E20008EED97E016D8D093B707C093B607FF246E
:102E3000F394F092B00708E018E01093B207009303
:102E4000B10784EA97E0A7DCD093A307C093A20759
:102E500082E080939C0710939E0700939D0780E972
:102E600097E099DCD0938F07C0938E0783E080931F
:102E7000880710938A07009389078CE797E08BDC1B
:102E8000D0937B07C0937A0784E0809374071093F4
:102E900076070093750788E697E07DDCD093670797
:102EA000C093660785E080936007109362070093E4
:102EB000610784E597E06FDC84EA97E090930B0765
:102EC00080930A0780E997E09093FE068093FD06C1
:102ED0008CE797E09093F1068093F00688E697E000
:102EE0009093E4068093E30684E597E09093D706F9
:102EF0008093D60664EA77E086E497E024DC60E914
:102F000077E088E397E01FDC6CE777E08AE297E000
:102F10001ADC68E677E08CE197E015DC64E577E0A1
:102F20008EE097E010DC02EB16E08EED97E09093D8
:102F3000B5068093B4061092B606F092B70662E02A
:102F400087E20E94A6058CEA96E023EF37E03093F3
:102F5000AF062093AE06D093B106C093B00610938F
:102F6000870600938606909389068093880690933F
:102F70009D0680939C0610939B0600939A0690935F
:102F8000C4068093C3061093C2060093C10686E46C
:102F900097E09093D6058093D50588E397E09093CA
:102FA000D4058093D3058AE297E09093D20580936D
:102FB000D1058CE197E09093D0058093CF058EE00A
:102FC00097E09093CE058093CD0581E996E09093AC
:102FD000CC058093CB058091010290910202069767
:102FE00031F488EB96E09093CC058093CB05E0918B
:102FF0004607F09147070480F581E02D86E497E0CD
:1030000019958091D3059091D405DC01ED91FC9147
:103010000480F581E02D19958091D1059091D2051C
:10302000DC01ED91FC910480F581E02D19958091F2
:10303000CF059091D005DC01ED91FC910480F581E4
:10304000E02D19958091CD059091CE05DC01ED9193
:10305000FC910480F581E02D19958091CB0590912C
:10306000CC05DC01ED91FC910480F581E02D1995F2
:103070000E9404026093C7057093C8058093C90538
:103080009093CA05812C8CE5982E86E2A82E85E0C7
:10309000B82E94EF292E96E0392EC7EED6E00AED31
:1030A00016E02DE7E22E26E0F22E31E9C32E36E0BF
:1030B000D32E0E9404022B013C018091D0079091F5
:1030C000D107A091D207B091D30784159505A60525
:1030D000B70560F461E082E00E9477058092D00736
:1030E0009092D107A092D207B092D3078091D407D3
:1030F0009091D507A091D607B091D7078415950573
:10310000A605B70560F461E085E00E94770580922E
:10311000D4079092D507A092D607B092D707809196
:10312000D8079091D907A091DA07B091DB078415F1
:103130009505A605B70560F461E086E00E94770575
:103140008092D8079092D907A092DA07B092DB0755
:103150008091B507811105C084EA97E062DB811197
:1031600060C18091A107811105C080E997E059DB1A
:10317000811191C180918D07811105C08CE797E085
:1031800050DB811198C180917907811105C088E6D3
:1031900097E047DB81119EC180916507811105C0D1
:1031A00084E597E03EDB8111A5C18091B5078823B6
:1031B00031F084EA97E035DB882309F4AAC18091D5
:1031C000A107882331F080E997E02BDB882309F4FD
:1031D000DBC180918D07882331F08CE797E021DBFC
:1031E000882309F40BC280917907882331F088E69F
:1031F00097E017DB882309F43BC280916507882399
:1032000031F084E597E00DDB882309F46BC28091EF
:10321000B7068823F1F187E20E944F05892BC9F593
:103220000E9404020E9489038EE294E00E945203ED
:103230008DE092E00E94520380E20E94530382E3F9
:1032400094E00E94520387E494E00E94520387EFC7
:1032500090E00E945E0389E494E00E9452038DE4B2
:1032600094E00E9452038AE494E00E9452038CE5A9
:1032700094E00E944603F092CC05E092CB05E091E9
:103280007D06F0917E060480F581E02D8DE796E0C5
:1032900019951092C5051092C40584EA97E0C1DA29
:1032A000811106C081E090E09093C5058093C4052C
:1032B00080E997E0B6DA811109C08091C405909148
:1032C000C50501969093C5058093C4058CE797E0EA
:1032D000A8DA811109C08091C4059091C5050196B5
:1032E0009093C5058093C40588E697E09ADA81112A
:1032F00009C08091C4059091C50501969093C505BC
:103300008093C40584E597E08CDA811109C080912F
:10331000C4059091C50501969093C5058093C40599
:103320008091D5059091D605DC01ED91FC91068048
:10333000F781E02D19958091D3059091D405DC019A
:10334000ED91FC910680F781E02D19958091D105D2
:103350009091D205DC01ED91FC910680F781E02D82
:1033600019958091CF059091D005DC01ED91FC91EC
:103370000680F781E02D19958091CD059091CE05BD
:10338000DC01ED91FC910680F781E02D199580918B
:10339000CB059091CC05DC01ED91FC910680F78185
:1033A000E02D1995E091CB05F091CC05808588231F
:1033B00021F0D092CC05C092CB050E94040240902F
:1033C000C7055090C8056090C9057090CA05DC011A
:1033D000CB0184199509A609B709893E9340A10537
:1033E000B105E0F00E9404026093C7057093C80520
:1033F0008093C9059093CA058091C605811108C0C4
:1034000061E08DE00E94770581E08093C60506C0EB
:1034100060E08DE00E9477051092C6050E94EC0CDA
:1034200048CE0E9404020E9489038EE294E00E942A
:1034300052038DE092E00E94520380E20E94530307
:1034400082E394E00E94520387E494E00E945203D6
:1034500087EA90E00E945E0389E494E00E945203B0
:1034600081E694E00E9452038AE494E00E945203B1
:1034700081E090E00E94220586E497E09093D605D3
:103480008093D505E0914607F09147070480F581C8
:10349000E02D199566CEA8E3B7E0B093D405A093CC
:1034A000D305E0913807F09139070480F581E02DCC
:1034B000CD0119955FCE8AE297E09093D205809373
:1034C000D105E0912A07F0912B070480F581E02DCA
:1034D000199559CEACE1B7E0B093D005A093CF05D4
:1034E000E0911C07F0911D070480F581E02DCD01CE
:1034F000199552CE8EE097E09093CE058093CD053E
:10350000E0910E07F0910F070480F581E02D1995E9
:103510004CCE0E9404020E9489038EE294E00E9435
:1035200052038DE092E00E94520380E20E94530316
:1035300082E394E00E94520387E494E00E945203E5
:1035400082ED90E00E945E0389E494E00E945203C1
:103550008DE694E00E9452038AE494E00E945203B4
:1035600081E090E00E942205A1E0B7E0B093D6058B
:10357000A093D505E0910107F09102070480F58141
:10358000E02DCD0119951BCE0E9404020E948903F3
:103590008EE294E00E9452038DE092E00E9452037A
:1035A00080E20E94530382E394E00E94520387E486
:1035B00094E00E9452038AED90E00E945E0389E449
:1035C00094E00E9452038DE694E00E9452038AE444
:1035D00094E00E94520382E090E00E942205309223
:1035E000D4052092D305E091F406F091F50604800D
:1035F000F581E02D84EF96E01995EBCD0E94040251
:103600000E9489038EE294E00E9452038DE092E0D2
:103610000E94520380E20E94530382E394E00E94DE
:10362000520387E494E00E94520380EE90E00E94EF
:103630005E0389E494E00E9452038DE694E00E94C8
:1036400052038AE494E00E94520383E090E00E94D7
:103650002205D093D205C093D105E091E706F09101
:10366000E8060480F581E02D87EE96E01995BBCD44
:103670000E9404020E9489038EE294E00E94520399
:103680008DE092E00E94520380E20E94530382E3A5
:1036900094E00E94520387E494E00E94520386EE75
:1036A00090E00E945E0389E494E00E9452038DE65C
:1036B00094E00E9452038AE494E00E94520384E062
:1036C00090E00E9422051093D0050093CF05E09171
:1036D000DA06F091DB060480F581E02D8AED96E0B4
:1036E00019958BCD0E9404020E9489038EE294E01A
:1036F0000E9452038DE092E00E94520380E20E94F9
:10370000530382E394E00E94520387E494E00E9412
:1037100052038DEE90E00E945E0389E494E00E94E3
:1037200052038DE694E00E9452038AE494E00E94E2
:10373000520385E090E00E9422058DEC96E0909384
:10374000CE058093CD05E091CD06F091CE060480A4
:10375000F581E02D19955BCDE0EEF5E01382128244
:1037600088EE93E0A0E0B0E084839583A683B783DE
:103770008DE192E09183808385EC90E0958784874A
:1037800084EC90E09787868780EC90E0918B808B2B
:1037900081EC90E0938B828B82EC90E0958B848B14
:1037A00086EC90E0978B868B118E128E138E148E82
:1037B00026E030E049E262E370E088E098E00E94B1
:1037C000061026E030E048E26EE570E083EF97E017
:1037D0000E94061022E530E04AE268E170E08EEDDA
:1037E00097E00E940610E8EBF7E086E2DF011D9209
:1037F0008A95E9F788EC90E0A0E0B0E082839383BB
:10380000A483B58321E030E03187208782E090E017
:103810009387828783E090E09587848784E090E0B7
:103820009787868785E090E0918B808B86E090E09B
:10383000938B828B8FE892E09093A5078093A407E7
:10384000909391078093900790937D0780937C07D6
:103850009093690780936807909355078093540766
:10386000E6E4F7E0128213821482158210868BE759
:1038700092E091838083E8E3F7E01282138214825E
:103880001582108691838083EAE2F7E01282138228
:1038900014821582108691838083ECE1F7E0128216
:1038A000138214821582108691838083EEE0F7E004
:1038B0001282138214821582108691838083E1E044
:1038C000F7E01282138214821582108683E692E05A
:1038D0009183808314861386E4EFF6E012821382CC
:1038E0001482158210869183808314861386E7EEF6
:1038F000F6E01282138214821582108691838083EF
:1039000014861386EAEDF6E0128213821482158281
:1039100010869183808314861386EDECF6E0128284
:1039200013821482158210869183808314861386F5
:10393000E8EBF6E01282138214821582108687E586
:1039400092E0918380838FE492E09093B30680931A
:10395000B20687E492E09093AD068093AC06E1E96D
:10396000F6E0128213821482158210868BE392E0B5
:1039700091838083EDE7F6E0128213821482158230
:1039800010868FE292E091838083368725870895A1
:103990008EED97E00E94250D83EF97E00E94250DA4
:1039A00088E098E00C94250DCF93DF938230910549
:1039B00010F482E090E0E0911F08F091200820E0F0
:1039C00030E0C0E0D0E0309711F1408151814817DC
:1039D0005907C0F04817590761F4828193812097F5
:1039E00019F09B838A832BC09093200880931F0833
:1039F00026C02115310519F04217530718F49A0112
:103A0000BE01DF01EF010280F381E02DDCCF211543
:103A1000310509F1281B390B2430310590F4129639
:103A20008D919C9113976115710521F0FB01938392
:103A3000828304C09093200880931F08FD01329672
:103A400044C0FD01E20FF31F81939193225031098D
:103A50002D933C933AC020911D0830911E08232BD2
:103A600041F4209105023091060230931E08209304
:103A70001D0820910302309104022115310541F403
:103A80002DB73EB74091070250910802241B350B19
:103A9000E0911D08F0911E08E217F307A0F42E1B19
:103AA0003F0B2817390778F0AC014E5F5F4F2417A2
:103AB000350748F04E0F5F1F50931E0840931D08B6
:103AC0008193919302C0E0E0F0E0CF01DF91CF91CC
:103AD00008950F931F93CF93DF93009709F48CC041
:103AE000FC0132971382128200911F081091200866
:103AF0000115110581F420813181820F931F2091DE
:103B00001D0830911E082817390779F5F0931E0813
:103B1000E0931D0871C0D80140E050E0AE17BF0728
:103B200050F412962D913C911397AD01211531055A
:103B300009F1D901F3CF9D01DA013383228360813A
:103B40007181860F971F8217930769F4EC01288112
:103B50003981260F371F2E5F3F4F318320838A81A3
:103B60009B8193838283452B29F4F0932008E09373
:103B70001F0842C01396FC93EE931297ED014991F2
:103B800059919E01240F351FE217F30771F48081CC
:103B90009181840F951F029611969C938E9382813A
:103BA000938113969C938E931297E0E0F0E0D801F6
:103BB00012968D919C911397009719F0F8018C0142
:103BC000F6CF8D919C9198012E5F3F4F820F931FEE
:103BD00020911D0830911E082817390769F4309785
:103BE00029F41092200810921F0802C0138212823A
:103BF00010931E0800931D08DF91CF911F910F9124
:103C000008958F929F92AF92BF92CF92DF92EF92E0
:103C1000FF92CF93DF93EC01688179818A819B8148
:103C2000611571058105910521F464E279ED8BE55B
:103C300097E02DE133EF41E050E038D049015A01DF
:103C40009B01AC01A7EAB1E44DD06B017C01ACEE65
:103C5000B4EFA501940152D0DC01CB018C0D9D1D68
:103C6000AE1DBF1DB7FF03C00197A109B0488883EF
:103C70009983AA83BB83BC01CD019F77DF91CF914C
:103C8000FF90EF90DF90CF90BF90AF909F908F907C
:103C90000895B7CF89E092E0B4CF609309027093A2
:103CA0000A0280930B0290930C020895052E97FB55
:103CB00016F400940FD057FD05D024D007FC02D095
:103CC00046F408C050954095309521953F4F4F4F91
:103CD0005F4F089590958095709561957F4F8F4FB8
:103CE0009F4F089531D0A59F900DB49F900DA49F34
:103CF000800D911D11240895B7FFF4CFF3DF821BCF
:103D0000930B0895A1E21A2EAA1BBB1BFD010DC047
:103D1000AA1FBB1FEE1FFF1FA217B307E407F5077B
:103D200020F0A21BB30BE40BF50B661F771F881F57
:103D3000991F1A9469F760957095809590959B01ED
:103D4000AC01BD01CF010895A29FB001B39FC00196
:103D5000A39F700D811D1124911DB29F700D811DB7
:103D60001124911D08955058BB27AA270ED04DC18C
:103D70003ED130F043D120F031F49F3F11F41EF4D6
:103D800033C10EF4E095E7FB29C1E92F4FD180F351
:103D9000BA17620773078407950718F071F49EF548
:103DA00067C10EF4E0950B2EBA2FA02D0B01B901BF
:103DB00090010C01CA01A0011124FF27591B99F0A1
:103DC000593F50F4503E68F11A16F040A22F232FAD
:103DD000342F4427585FF3CF469537952795A795FD
:103DE000F0405395C9F77EF41F16BA0B620B730BA4
:103DF000840BBAF09150A1F0FF0FBB1F661F771F15
:103E0000881FC2F70EC0BA0F621F731F841F48F4C9
:103E1000879577956795B795F7959E3F08F0B3CF4F
:103E20009395880F08F09927EE0F97958795089539
:103E30000CD0EBC0E3D040F0DAD030F021F45F3F9B
:103E400019F0CCC0511115C1CFC0F0D098F399230F
:103E5000C9F35523B1F3951B550BBB27AA2762174E
:103E60007307840738F09F5F5F4F220F331F441F93
:103E7000AA1FA9F333D00E2E3AF0E0E830D09150CB
:103E80005040E695001CCAF729D0FE2F27D0660FB8
:103E9000771F881FBB1F261737074807AB07B0E8F7
:103EA00009F0BB0B802DBF01FF2793585F4F2AF00D
:103EB0009E3F510568F092C0DCC05F3FECF3983E36
:103EC000DCF3869577956795B795F7959F5FC9F76A
:103ED000880F911D9695879597F90895E1E0660FF3
:103EE000771F881FBB1F621773078407BA0720F06C
:103EF000621B730B840BBA0BEE1F88F7E0950895D5
:103F000004D06894B111B5C0089598D088F09F5737
:103F100090F0B92F9927B751A0F0D1F0660F771F15
:103F2000881F991F1AF0BA95C9F712C0B13081F0F5
:103F30009FD0B1E008959CC0672F782F8827B85F85
:103F400039F0B93FCCF3869577956795B395D9F756
:103F50003EF490958095709561957F4F8F4F9F4F60
:103F60000895E89409C097FB3EF49095809570956C
:103F700061957F4F8F4F9F4F9923A9F0F92F96E9B5
:103F8000BB279395F695879577956795B795F1112A
:103F9000F8CFFAF4BB0F11F460FF1BC06F5F7F4FC7
:103FA0008F4F9F4F16C0882311F096E911C07723D9
:103FB00021F09EE8872F762F05C0662371F096E8E2
:103FC000862F70E060E02AF09A95660F771F881FB1
:103FD000DAF7880F9695879597F9089597F99F676F
:103FE00080E870E060E008959FEF80EC0895002481
:103FF0000A941616170618060906089500240A944E
:1040000012161306140605060895092E0394000CD3
:1040100011F4882352F0BB0F40F4BF2B11F460FF62
:1040200004C06F5F7F4F8F4F9F4F089557FD90588B
:10403000440F551F59F05F3F71F04795880F97FB6C
:10404000991F61F09F3F79F0879508951216130626
:104050001406551FF2CF4695F1DF08C01616170655
:104060001806991FF1CF869571056105089408958A
:10407000E894BB2766277727CB0197F908950BD0E3
:10408000C4CFB5DF28F0BADF18F0952309F0A6CF2A
:10409000ABCF1124EECFCADFA0F3959FD1F3950FDC
:1040A00050E0551F629FF001729FBB27F00DB11DBC
:1040B000639FAA27F00DB11DAA1F649F6627B00D4C
:1040C000A11D661F829F2227B00DA11D621F739F35
:1040D000B00DA11D621F839FA00D611D221F749F43
:1040E0003327A00D611D231F849F600D211D822F8A
:1040F000762F6A2F11249F5750408AF0E1F08823D1
:104100004AF0EE0FFF1FBB1F661F771F881F9150DD
:104110005040A9F79E3F510570F060CFAACF5F3F96
:10412000ECF3983EDCF3869577956795B795F79510
:10413000E7959F5FC1F7FE2B880F911D9695879598
:1041400097F908959F9305D00F9007FCEE5F28C064
:104150004BCF74DFE8F3E894E0E0BB279F57F0F023
:104160002AED3FE049EC06C0EE0FBB0F661F771F3C
:10417000881F28F0B23A62077307840728F0B25A02
:10418000620B730B840BE3959A9572F7803830F4C9
:104190009A95BB0F661F771F881FD2F7904813C0F0
:1041A000EF93E0FF06C0A2EA2AED3FE049EC5FEBA7
:1041B000ECDD2BDF0F90039401FC9058EAE3F1E073
:1041C0000EC09F3F31F0915020F487957795679509
:1041D000B795880F911D9695879597F908959F93A8
:1041E0008F937F936F93FF93EF939B01AC0147DF16
:1041F000EF91FF9105D02F913F914F915F913FCF6C
:10420000DF93CF931F930F93FF92EF92DF927B0187
:104210008C01689405C0DA2EEF013DDFFE01E894C1
:10422000A5912591359145915591AEF3EF01ADDD05
:10423000FE019701A801DA9479F7DF90EF90FF90E3
:104240000F911F91CF91DF910895EE0FFF1F881FEF
:104250008BBF0790F691E02D199476DDB7FF089596
:10426000821B930B089581E090E0F89407C0DC0175
:1042700001C06D9341505040E0F7089511E0CDE347
:10428000D1E000E005C0802FFE01DFDF2196011D97
:0E429000CE33D10780E00807B1F7F894FFCFD6
:10429E000E000000002108800001000000766F690A
:1042AE0064206C6F6F7028290000000000850C7070
:1042BE0001270CCB0C580C360C4A0C0000000022C7
:1042CE000CA808AC087909000000001509A4083AEA
:1042DE0009A90600000000200CA60800000000A29C
:1042EE0013851000000000031683105F13291500BC
:1042FE00000000CA1389108612AF110000000000E2
:10430E000000009B019B0100000000C91387103DB7
:10431E00118D1000000000210CAA08000000001BE7
:10432E00148B107669727475616C20766F696420D7
:10433E004465617468537461724578706C6F64651E
:10434E003A3A7374617274536365656E2829007608
:10435E006F69642044656174685374617245787046
:10436E006C6F64653A3A646F466C617368322829E3
:10437E0000766F6964204465617468537461724598
:10438E0078706C6F64653A3A646F46617374426C10
:10439E0061636B282900766F6964204465617468D7
:1043AE00537461724578706C6F64653A3A646F4607
:1043BE006C61736831282900766F696420446561E9
:1043CE007468537461724578706C6F64653A3A64C0
:1043DE006F52696E675468726F622829007669722F
:1043EE007475616C20766F696420446561746853DE
:1043FE00746172506C617947616D653A3A7374619C
:10440E007274536365656E282900766972747561DE
:10441E006C20766F6964204D6F727365436F6465AF
:10442E003A3A7374617274536365656E2829007627
:10443E0069727475616C20766F6964205469654683
:10444E006967687465724578706C6F64653A3A7323
:10445E0074617274536365656E282900766F6964A2
:10446E002054696546696768746572506C6179732A
:10447E0047616D653A3A6C696E6B4669676874653B
:10448E007228546965466967687465722A290076D0
:10449E0069727475616C20766F6964205469654623
:1044AE00696768746572506C61797347616D653ABE
:1044BE003A7374617274536365656E2829003A5BB2
:1044CE0020002E2E5C446561746853746172323024
:1044DE0031382E696E6F003A005D20200056656EF1
:1044EE007420506F72742048697420005472756580
:1044FE0000546172676574207570202000546172DB
:10450E0067657420446F776E2020000D0A002E2EF2
:10451E005C4465617468537461724578706C6F6445
:10452E00652E6370700044656174685374617245E2
:10453E0078706C6F64653A3A737461727453636524
:10454E00656E2829002E2E5C446561746853746173
:10455E0072506C617947616D652E637070004465B1
:10456E0061746853746172506C617947616D653A1C
:10457E003A7374617274536365656E2829007269AB
:10458E006E67205468726F62206368616E67652083
:10459E00737461746500466C6173683100466173B3
:1045AE007420426C61636B00466C61736832002E3E
:1045BE002E5C54696546696768746572506C6179E2
:1045CE007347616D652E6370700054696546696747
:1045DE0068746572506C61797347616D653A3A73B0
:1045EE0074617274536365656E2829002E2E5C54B7
:1045FE006965466967687465724578706C6F646545
:10460E002E637070005469654669676874657245FB
:10461E0078706C6F64653A3A737461727453636543
:10462E00656E2829002E2E5C4D6F727365436F6484
:10463E00652E6370700054696546696768746572AB
:10464E00506C61797347616D653A3A4C696E6B6572
:04465E0064200000D4
:00000001FF
