:100000003DC100006CC100006AC1000068C1000071
:1000100066C1000064C1000062C1000060C1000050
:100020005EC100005CC100005AC1000058C1000060
:1000300056C1000054C1000052C1000050C1000070
:100040004EC100004CC100004AC1000048C1000080
:1000500046C1000044C1000042C100000C94BA1423
:100060003EC100000C94150C0C94EC0B38C1000040
:1000700036C1000034C1000032C1000030C10000B0
:100080002EC100002CC100002AC1000028C10000C0
:1000900026C1000024C1000022C1000020C10000D0
:1000A0001EC100001CC100001AC1000018C10000E0
:1000B00016C1000014C1000012C1000010C10000F0
:1000C0000EC100000CC100000AC1000008C1000000
:1000D00006C1000004C1000002C1000000C1000010
:1000E000FEC000008B018E017D0181018701C501E9
:1000F000920196019C01A001A401AA01AE01B201E6
:10010000C501B801BC01C001BE04C304C804D204C7
:10011000DC045505E604EE04F60400050A051405A2
:1001200023052D055505370541054B05B908470938
:10013000D6091F0A5D0ABE0AF80A05A84CCDB2D43A
:100140004EB93836A9020C50B9918688083CA6AA47
:10015000AA2ABE000000803F0000210024002700E2
:100160002A002D00300033000101000004010701C6
:100170000A0100002200250028002B002E0031007B
:10018000340002010000050108010B0100002000FD
:100190002300260029002C002F003200000100005F
:1001A00003010601090105050505070508080808FA
:1001B000020202020A0A08080404040401010101FF
:1001C00001010101030303030303030304070707FA
:1001D0000C0C0C0C0C0C0C0C02020202060606069F
:1001E000060606060B0B0B0B0B0B0B0B010210206C
:1001F000200808102040102040800201020108045D
:1002000002010102040810204080804020100804F0
:100210000201800402018040201008040201080449
:10022000020101020408102040800102040810208D
:10023000408000000A0B02090C0D0E0807030401A0
:1002400000000000000000000000000000000000AE
:10025000000000000000000000000000000012117B
:10026000100000000000000000000000000000007E
:10027000000000000000000004158F1A11241FBEAA
:10028000CFEFD1E2DEBFCDBF00E00CBF15E0A0E0B4
:10029000B2E0ECE2FEE300E00BBF02C007900D927B
:1002A000A03CB107D9F727E0A0ECB5E001C01D9252
:1002B000A93EB207E1F711E0CDE3D1E000E006C0CE
:1002C00021970109802FFE010E94EC1ECC33D1073B
:1002D00080E00807A9F70E94F8150C94051F90CE3E
:1002E00090E0FC013197E231F10508F04EC088271B
:1002F000EE58FF4F8F4F0C94EC1E809180008F774B
:1003000003C0809180008F7D80938000089580914C
:100310008000877FF9CF84B58F7702C084B58F7D49
:1003200084BD08958091B0008F7703C08091B000A4
:100330008F7D8093B0000895809190008F7707C0E3
:10034000809190008F7D03C080919000877F809383
:10035000900008958091A0008F7707C08091A00041
:100360008F7D03C08091A000877F8093A0000895B7
:10037000809120018F7707C0809120018F7D03C07D
:1003800080912001877F809320010895009769F074
:10039000FC0101900020E9F73197AF01481B590B90
:1003A000BC0180EC95E00C94480B80E090E008954F
:1003B0008F929F92AF92BF920F931F93CF93DF9331
:1003C000CDB7DEB7A1970FB6F894DEBF0FBECDBF95
:1003D00019A2423008F44AE08E010F5D1F4F842EAF
:1003E000912CA12CB12CA50194010E94491CE62F4F
:1003F000B901CA0101501109EA3014F4E05D01C0ED
:10040000E95CD801EC93232B242B252B61F7C80141
:10041000BDDFA1960FB6F894DEBF0FBECDBFDF9152
:10042000CF911F910F91BF90AF909F908F900895A3
:10043000CF93DF93ABDFEC018BE294E0A7DF8C0F6F
:100440009D1FDF91CF910895A1CFE091C005F0915C
:10045000C1050190F081E02D682F80EC95E01994A2
:10046000CF92DF92EF92FF92CF93DF936C01990FBF
:10047000EE08FF08F7FE15C08DE2E7DFEC01662706
:100480007727CB016C197D098E099F094AE090DF1F
:100490008C0F9D1FDF91CF91FF90EF90DF90CF9059
:1004A00008954AE0C701B601DF91CF91FF90EF9028
:1004B000DF90CF907DCF4AE07BCF2F923F924F923B
:1004C0005F926F927F928F929F92AF92BF92CF92E4
:1004D000DF92EF92FF920F931F93CF93DF93CDB7ED
:1004E000DEB72C970FB6F894DEBF0FBECDBF3C0130
:1004F0007A8369835C834B833E832D83EF82F88606
:1005000009871A871C861B866B857C85F30182818F
:1005100093810E94160D1B012C0188248A94982C2B
:10052000A82CB12CCF80D884E984FA84920181016F
:100530004D815E816B817C8189819A810E94221329
:100540006B017C019B01AC016B857C85F301828191
:1005500093810E943C0E8B859C8501969C878B879E
:100560008E35910589F681E090E02C143D044E040F
:100570005F0411F480E090E02C960FB6F894DEBF93
:100580000FBECDBFDF91CF911F910F91FF90EF90E4
:10059000DF90CF90BF90AF909F908F907F906F90A3
:1005A0005F904F903F902F9008952F923F924F92DF
:1005B0005F926F927F928F929F92AF92BF92CF92F3
:1005C000DF92EF92FF920F931F93CF93DF93CDB7FC
:1005D000DEB72D970FB6F894DEBF0FBECDBF1C015E
:1005E0007F836E83598748873B872A879C012E5FCC
:1005F0003F4F3D872C8706969D838C831982EC851F
:10060000FD85FB83EA83608170E0F1018585968535
:100610000E94160D2B013C0188248A94982CA82C4A
:10062000B12CC12CD12C7601930182014A855B85C6
:10063000688579858E819F810E9422139B01AC0180
:10064000461657066806790611F0F1E0F9838C85A5
:100650009D8501969D878C87EA81FB818081682F2B
:1006600070E0F101858596850E943C0E2C853D85C4
:100670008C819D812817390711F689812D960FB637
:10068000F894DEBF0FBECDBFDF91CF911F910F91C8
:10069000FF90EF90DF90CF90BF90AF909F908F90A2
:1006A0007F906F905F904F903F902F9008952F9282
:1006B0003F924F925F926F927F928F929F92AF92F2
:1006C000BF92CF92DF92EF92FF920F931F93CF933F
:1006D000DF93CDB7DEB72B970FB6F894DEBF0FBE12
:1006E000CDBF1C017F836E83598748879C012A5F99
:1006F0003F4F3B872A870C969D838C831982EA851E
:10070000FB85FB83EA83608170E0F1018585968536
:100710000E94160D2B013C0188248A94982CA82C49
:10072000B12CC12CD12C76019301820148855985C9
:100730006E817F8181EF9FEF0E9422139B01AC01AC
:10074000461657066806790611F0F1E0F9838A85A6
:100750009B8501969B878A87EA81FB818081682F30
:1007600070E0F101858596850E943C0E2A853B85C7
:100770008C819D812817390711F689812B960FB638
:10078000F894DEBF0FBECDBFDF91CF911F910F91C7
:10079000FF90EF90DF90CF90BF90AF909F908F90A1
:1007A0007F906F905F904F903F902F900895CF92E1
:1007B000DF92EF92FF92CF93DF936C01990FEE08D7
:1007C000FF08F7FE10C08DE240DEEC0166277727B8
:1007D000CB016C197D098E099F094AE0E9DD7C0196
:1007E000EC0EFD1E05C04AE0C701B601E1DD7C014B
:1007F0008BE294E0CBDD8E0D9F1DDF91CF91FF90BA
:10080000EF90DF90CF900895CF93DF93282F30E0C3
:10081000F901EE5CFD4F8491F901E451FE4FD49152
:10082000F901EA55FE4FC491CC2389F0811158DDBE
:10083000EC2FF0E0EE0FFF1FE457FE4FA591B491AF
:10084000EC91ED2381E090E021F480E002C080E0B3
:1008500090E0DF91CF9108951F93CF93DF93282FDE
:1008600030E0F901EE5CFD4F8491F901E451FE4F57
:10087000D491F901EA55FE4FC491CC23C1F0162F53
:1008800081112EDDEC2FF0E0EE0FFF1FEE58FE4F32
:10089000A591B4918FB7F894111105C09C91ED2FDB
:1008A000E095E92302C0EC91ED2BEC938FBFDF9133
:1008B000CF911F910895CF93DF9390E0FC01E45115
:1008C000FE4F2491FC01EA55FE4F8491882361F18B
:1008D00090E0880F991FFC01E85AFE4FC591D49112
:1008E000FC01EE58FE4FA591B491611109C09FB76C
:1008F000F8948881209582238883EC912E230BC065
:10090000623061F49FB7F8943881822F80958323F9
:100910008883EC912E2B2C939FBF06C08FB7F89441
:10092000E8812E2B28838FBFDF91CF9108951F93ED
:10093000CF93DF93182FEB0161E0BDDF209711F417
:1009400060E004C0CF3FD10531F461E0812FDF9139
:10095000CF911F9181CFE12FF0E0EE5CFD4FE4914C
:100960004E2F50E0FA013197E231F10508F09DC0B9
:100970008827EC57FF4F8F4F0C94EC1E84B580688E
:1009800084BDC7BD97C084B5806284BDC8BD92C018
:1009900080918000806880938000D0938900C0930C
:1009A000880088C080918000806280938000D0930E
:1009B0008B00C0938A007EC0809180008860809305
:1009C0008000D0938D00C0938C0074C08091B000E3
:1009D00080688093B000C093B3006CC08091B00079
:1009E00080628093B000C093B40064C08091900096
:1009F000806880939000D0939900C09398005AC06B
:100A000080919000806280939000D0939B00C0936F
:100A10009A0050C080919000886080939000D0939D
:100A20009D00C0939C0046C08091A0008068809388
:100A3000A0008091A0008F7B8093A000D093A9009C
:100A4000C093A80037C08091A00080628093A0006E
:100A5000D093AB00C093AA002DC08091A000886005
:100A60008093A000D093AD00C093AC0023C08091D0
:100A70002001806880932001D0932901C093280130
:100A800019C080912001806280932001D0932B01B6
:100A9000C0932A010FC080912001886080932001BB
:100AA000D0932D01C0932C0105C0C038D1050CF0A6
:100AB0004CCF46CFDF91CF911F9108958F929F9297
:100AC000AF92BF92CF92DF92EF92FF926B017C01C7
:100AD0000E9489144B015C01C114D104E104F104AA
:100AE000F1F00E948914DC01CB0188199909AA0947
:100AF000BB09883E9340A105B10570F321E0C21AFD
:100B0000D108E108F10888EE880E83E0981EA11C48
:100B1000B11CC114D104E104F10419F7DDCFFF9039
:100B2000EF90DF90CF90BF90AF909F908F900895FF
:100B3000CF93DF93EC010E94AE14BDDC8EE294E013
:100B400083DC84E892E080DC80E27FDC82E394E076
:100B50007BDC8AE494E078DC8BE290E081DC8CE45E
:100B600094E072DC80E594E063DC0E94AE14688B54
:100B7000798B8A8B9B8BE985FA8515821F861E8669
:100B80001D861A821B821C821D820E94AE1493DC79
:100B90008EE294E059DC84E892E056DC80E255DC99
:100BA00082E394E051DC8AE494E04EDC83E390E05D
:100BB00057DC8CE494E048DC80E594E0DF91CF9151
:100BC00037CC0C94301B0C94301B0C94301B0C94C1
:100BD000301B0C94301B6F927F928F929F92AF923A
:100BE000BF92CF92DF92EF92FF920F931F93CF931A
:100BF000DF9300D01F92CDB7DEB73C01DC01129627
:100C0000CD90DD90ED90FC9015970E94AE146C1580
:100C10007D058E059F0508F4F5C0F3018585968551
:100C2000892B09F0EFC040EFA42EBA2CCA2CD12C8E
:100C3000E12C18E0F12E00E010E026EF3FEF49EF45
:100C40005FEF66EF7FEF818592850E94B713D30136
:100C50001996ED91FC911A9784818F5F883110F479
:100C6000848301C01482648170E020E230E240E2BB
:100C700050E0828193810E943C0ED3011996ED9140
:100C8000FC911A97828193810E94A80E0E94AE1453
:100C9000DC01CB01C296A11DB11DF30182839383B8
:100CA000A483B5830E94AE14D3015796CD90DD90F6
:100CB000ED90FC905A97C616D706E806F906E0F4C0
:100CC000E12CF12C87012FEF3FEF4FEF5FEF6FEF3C
:100CD0007FEF1B968D919C911C97EFDB0E94AE14C9
:100CE000DC01CB01C296A11DB11DF301878B908F52
:100CF000A18FB28F11E001C010E00E94AE14D301A9
:100D00005396CD90DD90ED90FC905697C616D70681
:100D1000E806F90608F05AC062E370E080E090E06F
:100D200037D56B017C0168E270E080E090E030D55F
:100D30004B015C0168E270E080E090E029D5CB01D6
:100D4000770FAA0BBB0BBA2FA92F982F8827092C36
:100D5000000CAA08BB0888299929AA29BB29BA2FFF
:100D6000A92F982F8827EAE0CE0ED11CE11CF11C98
:100D70000D2C000CEE08FF089C01AD012C293D292B
:100D80004E295F29D3011B96ED90FC901C976DE5D1
:100D900070E080E090E029833A834B835C83F8D451
:100DA00029813A814B815C81F7018281938164D7EB
:100DB0000E94AE14DC01CB0186509F4FAF4FBF4F56
:100DC000F301838B948BA58BB68B02C01123D1F0DA
:100DD000D3011B96ED91FC911C97828193810F901A
:100DE0000F900F900F90DF91CF911F910F91FF9077
:100DF000EF90DF90CF90BF90AF909F908F907F90BB
:100E00006F90A6C70F900F900F900F90DF91CF912A
:100E10001F910F91FF90EF90DF90CF90BF90AF9018
:100E20009F908F907F906F90089508950895CF922E
:100E3000DF92EF92FF920F931F93CF93DF938C017A
:100E40006A017B01C0E0D0E0A7019601BE01F80174
:100E50008281938111D72196CE35D105A9F7F8016A
:100E600082819381DF91CF911F910F91FF90EF903D
:100E7000DF90CF906DC78F929F92AF92BF92CF922B
:100E8000DF92EF92FF920F931F93CF93DF93EC01CA
:100E90008A809B80AC80BD800E94AE146815790565
:100EA0008A059B0508F4BCC08D849E8481E0881669
:100EB000910409F453C082E08816910409F46EC0CD
:100EC000892809F0ADC0CE010E942F14CE010E94E6
:100ED0005C14CE010E942F14CE010E945C1464EFBA
:100EE00071E080E090E0EADDCE010E945C14CE016A
:100EF0000E942F14CE010E945C14CE010E945C144B
:100F000064EF71E080E090E0D9DDCE010E945C14D6
:100F1000CE010E942F1464EF71E080E090E0CEDDFE
:100F2000CE010E945C14CE010E942F14CE010E94BB
:100F30005C1464EF71E080E090E0C0DDCE010E94BF
:100F40005C1464EF71E080E090E0B8DD68EE73E07F
:100F500080E090E0B3DD81E090E01DC04FEF50E015
:100F600060E070E089859A850E9400104FEF50E0A4
:100F700060E070E08B859C855ADF0E94AE14DC0136
:100F8000CB018C509E4FAF4FBF4F8A839B83AC8366
:100F9000BD8382E090E09E878D8742C0AA24AA94F8
:100FA000BA2CCA2CD12CE12CF12C87012CEE3FEF6E
:100FB0004CEE5FEF66EF7FEF89859A850E94B7134D
:100FC0009C8B8B8BE985FA8582819381C1D62CEE2F
:100FD0003FEF41EF5FEF64EF7FEF8B859C856DDA2C
:100FE0002B893C89820F931F9C8B8B8BEB85FC8517
:100FF00082819381ADD68B899C891816190674F469
:101000000E94AE14DC01CB018896A11DB11D8A831C
:101010009B83AC83BD839E868D8602C081E08887DA
:10102000DF91CF911F910F91FF90EF90DF90CF90C4
:10103000BF90AF909F908F900895CF93DF93EC0176
:101040000E94AE1438DA8EE294E0FED98BE693E08B
:10105000FBD980E2FAD98FE694E0F6D98AE494E0ED
:10106000F3D98AE290E0FCD98CE494E0EDD982E6F1
:1010700094E0DED91A821B821C821D8240E050E07F
:10108000BA0189859A85BCD740E050E0BA018B85CA
:101090009C85CDDE0E94AE146F87788B898B9A8BEE
:1010A0001E861D861886DF91CF910895CF93DF931A
:1010B000EC010E94AE14FFD98EE294E0C5D98EE314
:1010C00093E0C2D980E2C1D980E894E0BDD98AE436
:1010D00094E0BAD987E290E0C3D98CE494E0B4D923
:1010E00089E994E0A5D91A821B821C821D821E8682
:1010F0001D8640E050E0BA0189859A8581D740E09D
:1011000050E0BA018B859C8592DE0E94AE146F87F9
:10111000788B898B9A8B6F8B788F898F9A8F6B8B5B
:101120007C8B8D8B9E8BDF91CF910895AF92BF9278
:10113000CF92DF92EF92FF920F931F93CF93DF93A3
:10114000EC01CA80DB80EC80FD800E94AE146C153F
:101150007D058E059F0508F48DC2ED85FE85E7307F
:10116000F10508F087C28827EA56FF4F8F4F0C948D
:10117000EC1E0E94AE14088919892A893B89601BDC
:10118000710B820B930B0E94781D2BED3FE049E41D
:1011900050E40E94061E20E030E04AE754E40E943A
:1011A000DF1C9B01AC010E947B1C0E94691E20E099
:1011B00030E040E85FE30E947B1C20E030E040EA42
:1011C00052E40E94061E2DEC3CEC4CE45FE30E94CE
:1011D000061E20E030E040E252E40E947B1C0E94A8
:1011E000471DAB01770F660B770BBA0155274427D4
:1011F00089859A8505D70E94AE14DC01CB01C29681
:10120000A11DB11D8A839B83AC83BD83C888D98807
:10121000EA88FB8880EDC80E87E0D81EE11CF11C2F
:101220000E94AE14C616D706E806F90608F022C2D8
:101230000E94AE14688B798B8A8B9B8B1F8681E012
:1012400090E09E878D870E94AE1435D98EE294E09F
:10125000FBD889E193E0F8D880E2F7D882E394E004
:10126000F3D88AE494E0F0D887E990E0F9D88CE4E8
:1012700094E0EAD889EB94E0DF91CF911F910F9130
:10128000FF90EF90DF90CF90BF90AF90D1C80E94B9
:10129000AE14088919892A893B89601B710B820B5E
:1012A000930B0E94781D2BED3FE049E450E40E942F
:1012B000061E20E030E04AE754E40E94DF1C9B0158
:1012C000AC010E947B1C0E94691E20E030E040E8D7
:1012D0005FE30E947B1C20E030E040EA52E40E9481
:1012E000061E2DEC3CEC4CE45FE30E94061E20E061
:1012F00030E040E252E40E947B1C0E94471D6B01DB
:10130000770FEE08FF087601DD24CC24B701A60193
:1013100089859A8575D60E94AE14088919892A890B
:101320003B89601B710B820B930B24E630E040E09D
:1013300050E00E94491C2F8700E010E08F8590E06C
:10134000EB85FC85081719074CF4A7019601B80135
:101350008281938191D40F5F1F4FF0CF828193815F
:10136000F7D48F858E3510F08DE58F870E94AE14EF
:10137000DC01CB01C296A11DB11D8A839B83AC8386
:10138000BD83C888D988EA88FB8880E1C80E87E2D7
:10139000D81EE11CF11C0E94AE14C616D706E80642
:1013A000F90608F067C182E090E059C1AA24AA9426
:1013B000BA2CCA2CD12CE12CF12C00E210E021EF48
:1013C0003FEF41EF5FEF6BEF7FEF89859A850E94DA
:1013D000B713D82EE985FA8582819381B9D4E12C9F
:1013E000F12C08E010E021EF3FEF41EF5FEF6BEFF2
:1013F0007FEF8B859C8561D8182FEB85FC858281DA
:101400009381A6D40E94AE14DC01CB01C296A11D2B
:10141000B11D8A839B83AC83BD831D0D09F02AC156
:101420000E94AE14DC01CB01845D9E4FAF4FBF4FD5
:101430008A839B83AC83BD8383E090E010C10E94CC
:10144000AE1439D88EE294E00E94240287EF92E035
:101450000E94240280E20E94250282E394E00E941E
:1014600024028AE494E00E94240284EC90E00E942A
:1014700030028CE494E00E94240281ED94E00E940A
:1014800018024FEF5FEF6FEF70E089859A85B8D54E
:1014900040E85FEF6FEF70E08B859C85C8DC0E94B1
:1014A000AE14DC01CB014E96A11DB11D8A839B8336
:1014B000AC83BD8384E090E0D2C00E94AE140E9451
:1014C0005B028EE294E00E94240282ED92E00E9490
:1014D000240280E20E94250282E394E00E9424021A
:1014E0008AE494E00E9424028DEC90E00E94300295
:1014F0008CE494E00E94240288ED94E00E9418029B
:101500000E94AE140E945B028EE294E00E942402CC
:1015100082ED92E00E94240280E20E94250282E392
:1015200094E00E9424028AE494E00E9424028EEC5B
:1015300090E00E9430028CE494E00E94240281ED4D
:1015400094E00E94180240E050E0BA0189859A8533
:1015500057D540E050E0BA018B859C8568DC0E943D
:10156000AE14DC01CB0180579E4FAF4FBF4F8A8333
:101570009B83AC83BD8385E090E071C00E94AE1474
:101580000E945B028EE294E00E94240280EB92E0D3
:101590000E94240280E20E94250282E394E00E94DD
:1015A00024028AE494E00E94240288ED90E00E94E4
:1015B00030028CE494E00E94240283EE94E00E94C6
:1015C00018024FEF5FEF6FEF70E089859A8518D5AD
:1015D00040E85FEF6FEF70E08B859C8528DC0E9410
:1015E000AE14DC01CB0184549D4FAF4FBF4F31C0CF
:1015F000AA24AA94BA2CCA2CD12CE12CF12C870154
:101600002CEE3FEF4CEE5FEF66EF7FEF89859A851A
:101610000E94B713D82EE985FA858281938198D3E9
:101620002CEE3FEF41EF5FEF64EF7FEF8B859C8502
:101630000E945D02182FEB85FC858281938188D3FF
:101640001D0D81F00E94AE14DC01CB018896A11D16
:10165000B11D8A839B83AC83BD8386E090E09E8727
:101660008D8708C080E09CE5A6E2B5E08A839B8375
:10167000AC83BD83DF91CF911F910F91FF90EF90CD
:10168000DF90CF90BF90AF9008950895089508958A
:10169000CF92DF92EF92FF920F931F93CF93DF933E
:1016A0006C017A018B01C0E0D0E0CE15DF0589F036
:1016B000D8016D918D01D601ED91FC910190F081E1
:1016C000E02DC6011995892B11F47E0102C02196E7
:1016D000ECCFC701DF91CF911F910F91FF90EF9059
:1016E000DF90CF900895089580E090E008950E94E3
:1016F000FA1E80EC95E000D121E0892B09F420E06E
:10170000822F0895EF92FF920F931F93CF93DF9351
:10171000EC0181E0888F9B8D8C8D981305C0E88942
:10172000F989808185FD23C0F62E0B8D10E00F5FB7
:101730001F4F0F731127E02E8C8DE8120BC00FB6D0
:1017400007FCFACFE889F989808185FFF5CFCE01C2
:101750002BD1F2CF8B8DFE01E80FF11DE35AFF4F25
:10176000F0820B8FEA89FB898081806207C0EE8955
:10177000FF896083E889F98980818064808381E0C2
:1017800090E0DF91CF911F910F91FF90EF9008951E
:10179000CF93DF9300D01F92CDB7DEB761157105EF
:1017A0008105910579F09B01AC0169833A834B83F4
:1017B0005C830E94111C29813A814B815C810E94CB
:1017C0001D1C03C060E070E0CB010F900F900F90E4
:1017D0000F90DF91CF9108951F920F920FB60F9245
:1017E00011240BB60F922F933F934F935F936F93F8
:1017F0007F938F939F93AF93BF93EF93FF9380EC6F
:1018000095E0D2D0FF91EF91BF91AF919F918F91D1
:101810007F916F915F914F913F912F910F900BBEF0
:101820000F900FBE0F901F9018951F920F920FB63A
:101830000F9211240BB60F922F938F939F93EF93D8
:10184000FF93E091D005F091D1058081E091D6051C
:10185000F091D70582FD12C090818091D9058F5FEC
:101860008F732091DA05821751F0E091D905F0E0ED
:10187000E054FA4F958F8093D90501C08081FF9184
:10188000EF919F918F912F910F900BBE0F900FBEF4
:101890000F901F901895FC01538D448D252F30E03B
:1018A000842F90E0821B930B541710F0CF9608956D
:1018B00001970895FC01918D828D981761F0828DBA
:1018C000DF01A80FB11D5D968C91928D9F5F9F7374
:1018D000928F90E008958FEF9FEF0895FC01918D16
:1018E000828D981731F0828DE80FF11D858D90E083
:1018F00008958FEF9FEF0895FC01918D228D892F20
:1019000090E0805C9F4F821B91098F739927089507
:1019100080E090E0892B19F0ECDE811125C080E099
:1019200090E0892B41F080E090E0892B21F00E942B
:10193000000081111CC080E090E0892B41F080E024
:1019400090E0892B21F00E940000811113C080E0FB
:1019500090E0892BA1F080E090E0892B81F00E943B
:10196000000081110AC008950E940000D8CF0E9493
:101970000000E1CF0E940000EACF0C94000008951F
:10198000CF93DF93EC0188859985009711F00E9431
:10199000301B8E8187FD05C060E0DF91CF910C94F4
:1019A0005B04DF91CF910895FC01848DDF01A80FC6
:1019B000B11DA35ABF4F2C91848D90E001968F7377
:1019C0009927848FA689B7892C93A089B1898C9196
:1019D00080648C93938D848D981306C00288F3895C
:1019E000E02D80818F7D80830895CF93DF93EC017C
:1019F000888D8823C1F0EA89FB89808185FD05C037
:101A0000A889B9898C9186FD0EC00FB607FCF5CF69
:101A1000808185FFF2CFA889B9898C9185FFEDCFB0
:101A2000CE01C2DFE8CFDF91CF9108954F925F9250
:101A30006F927F928F929F92AF92BF92CF92DF92DE
:101A4000EF92FF920F931F93CF93DF93DC011296D7
:101A50008D919C9113976817790708F0F9C01D962E
:101A60008C911D971A96EC901A971896ED91FC910F
:101A7000199717968C901797482F50E01B961C913A
:101A80001B971C960C91EB018E1164C0CC0FDD1FCF
:101A9000C60FD71FCE0FDF1F882009F443C0912C3B
:101AA000A12CB12CFE01E40FF51F608170E0762FB0
:101AB0006627072E000C880B990BA50194010E9444
:101AC000491C390155244424FE01E10FF11D6081B8
:101AD00070E0762F6627072E000C880B990BA50166
:101AE00094010E94491CB42FA32F922F88277301C1
:101AF0006201C82AD92AEA2AFB2AC00FD11D6881AF
:101B000070E0762F6627072E000C880B990BA50135
:101B100094010E94491CC701B601622B732B842BD0
:101B2000952B99C0FE01E40FF51F2081FE01E10F06
:101B3000F11D6081862F90E0A0E0B0E0BA2FA92FC0
:101B4000982F8827A22BC00FD11D2881BC01CD0161
:101B5000622B81C0CC0FDD1FCC0FDD1FCE0FDF1F2E
:101B6000F12C882009F458C0912CA12CB12CFE0135
:101B7000E40FF51F608170E0762F6627072E000CBA
:101B8000880B990BA50194010E94491C722E6624B2
:101B900055244424FE01EE0DFF1D608170E0762F78
:101BA0006627072E000C880B990BA50194010E9453
:101BB000491C7901DD24CC24C428D528E628F7283F
:101BC000FE01E00FF11D608170E0762F6627072E81
:101BD000000C880B990BA50194010E94491CC22A94
:101BE000D32AE42AF52AC10FD11D688170E0762F2F
:101BF0006627072E000C880B990BA50194010E9403
:101C0000491CB42FA32F922F8827BC01CD016C292A
:101C10007D298E299F291FC0FE01E40FF51F208119
:101C2000FE01EE0DFF1D6081862F90E0A0E0B0E088
:101C3000DC0199278827B22BFE01E00FF11D2081DE
:101C4000822BC10FD11D2881BC01CD01722B03C095
:101C500060E070E0CB01DF91CF911F910F91FF9079
:101C6000EF90DF90CF90BF90AF909F908F907F903C
:101C70006F905F904F9008958F929F92AF92BF9216
:101C8000CF92DF92EF92FF920F931F93CF93DF9348
:101C9000FC01828193816817790708F04CC04A01E2
:101CA000AA24BB24B82DC32ED42EE52EFF24AC2DA0
:101CB000922F8781882361F0889E40011124B92DDD
:101CC000C89E60011124AD2D289FE00111249D2F95
:101CD000D584C285E084F184DC1208C09B01220F08
:101CE000331F620F731F6E0D7F1D16C0660F771FA7
:101CF000660F771F6E0D7F1D052F112722273327B3
:101D0000EB01CD0DD11D882329F0089F90011124EE
:101D1000232F01C0202F28838285EB01C80FD11DFE
:101D2000B8838385EB01C80FD11DA8838485FB018F
:101D3000E80FF11D9083DF91CF911F910F91FF90DC
:101D4000EF90DF90CF90BF90AF909F908F900895CD
:101D5000CF92DF92EF92FF920F931F93CF93DF9377
:101D6000CDB7DEB729970FB6F894DEBF0FBECDBF53
:101D70008C01DC0118968D919C911997892B09F49F
:101D8000A1C0C7D5F801C684D784E088F188DC01FA
:101D9000CB018C199D09AE09BF098C329140A10578
:101DA000B10578F3F894D80114968D919C9115970C
:101DB0009A8389831896ED91FC9119977F01BFEF63
:101DC000EB1AFB0A80818987F80190810288F389E8
:101DD000E02DD80154968C91992309F430C090815C
:101DE000982B98879081809589238F838F818C830E
:101DF00088E08B8358856F8149853B812C8189815F
:101E00009A81D701508347FD252F3A952083262FAD
:101E100039F0441F00C000006083000000C0F2CF12
:101E200038E04D9160830000019761F7D801539627
:101E3000FC93EE93529749873B832C833AC0908161
:101E4000982B98879081809589238F838F818E83AB
:101E500088E08D8358856F8149853D812E818981F8
:101E60009A81D701508347FD252F00C000C02083F1
:101E700000C000C000C000C000C060830000262F6A
:101E80003A9541F0441F000000C000C000C000C0EF
:101E900000C0E8CF38E04D9100C0608300C00197DA
:101EA00009F7D8015396FC93EE93529749873D83E7
:101EB0002E839A83898378942CD5F8016687778757
:101EC000808B918B29960FB6F894DEBF0FBECDBFE5
:101ED000DF91CF911F910F91FF90EF90DF90CF9006
:101EE0000895CF93DF93EC018E8187FD07C061E0F9
:101EF0000E945B0460E08E810E942C0481E0898353
:101F0000DF91CF910895CF92DF92EF92FF921F93CE
:101F1000CF93DF93EC017B01142F19821F821E8661
:101F20001F86188A198AC90146E0969587954A95B1
:101F3000E1F7482F43704D87C90154E09695879586
:101F40005A95E1F783708A87B901769567957695FA
:101F5000679563706B87922F93709C8791E02F3FFA
:101F6000310511F008F090E09883481719F084E0EB
:101F700090E002C083E090E08E9D60018F9DD00CC8
:101F80009E9DD00C1124DD82CC82C6010E949B1A3A
:101F900099878887009741F0A60160E070E00E9471
:101FA000FE1EFB82EA8204C01D821C821B821A82F2
:101FB0001E838981882341F061E0812F0E945B04A8
:101FC00060E0812F0E942C04812F90E0FC01EA55F3
:101FD000FE4FE491F0E0EE0FFF1FEE58FE4F25910B
:101FE00034913B8B2A8BFC01E451FE4FE491EC8B46
:101FF000DF91CF911F91FF90EF90DF90CF900895E8
:10200000CF92DF92EF92FF920F931F93CF93DF93C4
:102010008C016A017B01C0E0D0E0A7019601BE01FE
:10202000F8018281938128DE2196C831D105A9F774
:10203000F80182819381DF91CF911F910F91FF90E1
:10204000EF90DF90CF9084CE0C94301B0C94301B1B
:102050000C94301B0C94301B8F929F92AF92BF92C6
:10206000CF92DF92EF92FF920F931F93CF93DF9364
:10207000EC01CA80DB80EC80FD8070D46C157D059E
:102080008E059F0508F48DC08B859C858130910558
:1020900009F446C0A4F5892B09F083C065E070E01F
:1020A00080E090E075DB4B015C012FEF821A920A11
:1020B000A20AB20AE985FA85048510E001501109E7
:1020C0004DD46B017C0120E931E0D8010E94F41E5F
:1020D000C60ED71EE81EF91EA0EDB7E0A5019401BB
:1020E0000E94391CDC01CB018C0D9D1DAE1DBF1D56
:1020F0008A839B83AC83BD8381E090E02BC08230D8
:10210000910559F1039709F04CC028D4DC01CB01AB
:10211000945AA94DBA4F8A839B83AC83BD8341C037
:1021200060E088E20E942C0419D4DC01CB018851C4
:102130009C4FAF4FBF4F8A839B83AC83BD838FEF90
:102140008D87E985FA856FEF70E087850E94970497
:1021500082E090E09C878B8724C060E088E20E9448
:102160002C04FCD3DC01CB018896A11DB11D8A8310
:102170009B83AC83BD836D856E516D8770E0E9856F
:10218000FA8587850E9497048D85893250F41D86D3
:10219000E985FA8560E070E087850E9497041C86D7
:1021A0001B86DF91CF911F910F91FF90EF90DF90F1
:1021B000CF90BF90AF909F908F900895CF93DF9373
:1021C000EC011C861B861A821B821C821D82C6D3D0
:1021D0000E945B028EE294E00E9424028CE993E06C
:1021E0000E94240280E20E9425028DE295E00E9476
:1021F00024028AE494E00E94240288E290E00E9493
:1022000030028CE494E00E94240286E495E00E946F
:10221000180261E089E20E942C04E985FA85118A9E
:1022200060E070E08785DF91CF910C949704CF92A6
:10223000DF92EF92FF920F931F93CF93DF93EC0106
:102240008DD30E945B028EE294E00E9424028CEF08
:1022500093E00E94240280E20E94250286E695E037
:102260000E9424028AE494E00E94240288E290E022
:102270000E9430028CE494E00E94240281E895E000
:102280000E941802E984FA8487010E5F1F4F6701DC
:1022900086E0C80ED11CF80161918F0170E020E04A
:1022A00030E0A901F70185859685E6DC0C151D0552
:1022B00091F7E984FA8487010A5F1F4F6701FCE008
:1022C000CF0ED11CF80161918F0170E020E030E069
:1022D000A901F70185859685CFDC0C151D0591F7C1
:1022E000E985FA858585968533DD1C861B861A82ED
:1022F0001B821C821D82E985FA8581E0818BDF913A
:10230000CF911F910F91FF90EF90DF90CF900895A4
:10231000CF92DF92EF92FF920F931F93CF93DF93B1
:10232000EC01CA80DB80EC80FD8018D36C157D0544
:102330008E059F0508F4B8C08B859C85813091057A
:1023400009F448C08230910509F47FC0892B09F057
:10235000ABC0E984FA8487010E5F1F4F670186E0F6
:10236000C80ED11CF80161918F0170E02FEF3FEF93
:102370004FEF50E0F701858596857EDC0C151D0535
:1023800089F7E984FA8487010A5F1F4F6701FCE03F
:10239000CF0ED11CF80161918F0170E020EF30EF7A
:1023A0004FEF50E0F7018585968566DC0C151D051D
:1023B00089F7E985FA8585859685CADC82E090E013
:1023C0009C878B87CBD2DC01CB018C509E4FAF4FCB
:1023D000BF4F66C021EF3FEF41EF5FEF6FEF7FEF41
:1023E00089859A850E94D502082F47EE5FEF67EE38
:1023F0007FEF89859A850E945703182FE985FA8512
:1024000085859685A5DC61E089E20E942C04A6D230
:10241000DC01CB010A96A11DB11D8A839B83AC838D
:10242000BD832E813F81215031093F832E83100FC0
:1024300009F03AC082E090E09C878B878FD2DC0164
:10244000CB010596A11DB11D2BC02CEE3FEF4CEE2C
:102450005FEF66EF7FEF89859A850E94D502082F8E
:1024600042EE5FEF62EE7FEF89859A850E94570307
:10247000182FE985FA85858596856ADC6FD2DC019F
:10248000CB010596A11DB11D8A839B83AC83BD83BF
:10249000100F51F463D2DC01CB01945AA94DBA4F0D
:1024A0008A839B83AC83BD83DF91CF911F910F9172
:1024B000FF90EF90DF90CF9008950895FC01728710
:1024C00061874CD20E945B028EE294E00E9424025B
:1024D00089EC93E00E94240280E20E94250286E6B5
:1024E00095E00E9424028AE494E00E9424028BE199
:1024F00090E00E9430028CE494E00E94240283EA7F
:1025000095E00C94180208950895CF93DF93EC01A1
:102510008C85833009F452C0E8F48130C9F18230EF
:1025200009F07BC088E08F8780E2888B8DE08A830A
:102530008EE08B8382E18C8383E18D838AE08E83BE
:102540008BE08F838CE088878FE0898780E18A87A2
:1025500081E162C0843009F449C0853009F05DC072
:102560008BE08F8783E2888B8BE28A838CE28B837C
:1025700080E38C8381E38D8388E28E8389E28F837D
:102580008AE288878DE289878EE28A878FE244C05B
:1025900097E09F872FE1288B23E02A8324E02B8379
:1025A00028E02C8329E02D831E828F8382E0888798
:1025B00085E0898786E08A879B872FC089E08F879F
:1025C00081E2888B87E18A8388E18B838CE18C832D
:1025D0008DE18D8384E18E8385E18F8386E1888719
:1025E00089E189878AE18A878BE116C08AE08F8733
:1025F00082E2888B91E29A838B8386E28C8387E2E6
:102600008D838EE18E838FE18F8380E2888783E2E2
:10261000898784E28A8785E28B8761E08F850E94C3
:102620005B0462E08889DF91CF910C945B04FC012C
:1026300080890E94040421E0892B09F420E0822F84
:10264000089508952F923F924F925F926F927F92DA
:102650008F929F92AF92BF92CF92DF92EF92FF92B2
:102660000F931F93CF93DF93CDB7DEB72A970FB6A3
:10267000F894DEBF0FBECDBF5A874987412E522E38
:10268000632E77244D825E826F8278861601332412
:102690004D2C5E2C6F2C7724F201FF27AE2DB0E07D
:1026A000A40155275A834983FF24EB2CDA2CC92C2B
:1026B000DD24EA2CF12C820F911D8A179B070CF464
:1026C000CD014D805E805524460E571E4E165F0686
:1026D0000CF42F01112769847A84060D171D021549
:1026E00013050CF48101C414D5040CF42601052C47
:1026F000000C66087708762C652C542C442429811C
:102700003A81201731070CF48901012E000C220BAD
:10271000330B402A512A622A732AE816F9060CF470
:10272000C701092E000CAA0BBB0BDC0199278827D7
:10273000BC01CD0164297529862997292A960FB6EF
:10274000F894DEBF0FBECDBFDF91CF911F910F91E7
:10275000FF90EF90DF90CF90BF90AF909F908F90C1
:102760007F906F905F904F903F902F9008952F92A1
:102770003F924F925F926F927F928F929F92AF9211
:10278000BF92CF92DF92EF92FF920F931F93CF935E
:10279000DF93CDB7DEB762970FB6F894DEBF0FBEFA
:1027A000CDBF9A8389837C836B835E834D83388717
:1027B0002F83E986FA860B871C87AD86BE86CF8677
:1027C000D88A1A8A198AE981FA81628073806989B4
:1027D0007A89C3012BD91B012C018D849E84AF847F
:1027E000B888C984DA84EB84FC848B019C014F8116
:1027F00058856D817E818B819C8124DF6B017C01FA
:102800009B01AC0169897A89C30136DA89899A8981
:1028100001969A8B898B4897B1F681E090E02C1451
:102820003D044E045F0411F480E090E062960FB620
:10283000F894DEBF0FBECDBFDF91CF911F910F91F6
:10284000FF90EF90DF90CF90BF90AF909F908F90D0
:102850007F906F905F904F903F902F900895CF930F
:10286000DF93EC0140E850E86FEF70E089859A85CE
:10287000C7DB40E850E86FEF70E08B859C850E94D5
:1028800017076CEB72E080E090E00E945E0540E08C
:1028900050E0BA0189859A85B3DB40E050E0BA0187
:1028A0008B859C850E94170764EF71E080E090E0C3
:1028B000DF91CF910C945E05CF93DF93EC0140E85C
:1028C00050E86FEF70E089859A859ADB40E850E820
:1028D0006FEF70E08B859C850E9417076CE271E0BA
:1028E00080E090E00E945E0540E050E0BA018985FA
:1028F0009A8586DB40E050E0BA018B859C850E947A
:10290000170764EF71E080E090E0DF91CF910C94C5
:102910005E053FB7F8948091E1079091E207A0919E
:10292000E307B091E40726B5A89B05C02F3F19F037
:102930000196A11DB11D3FBFBA2FA92F982F88273F
:10294000820F911DA11DB11DBC01CD0142E0660F9A
:10295000771F881F991F4A95D1F708952FB7F894CC
:102960006091DD077091DE078091DF079091E007AD
:102970002FBF08951F920F920FB60F9211242F931D
:102980003F938F939F93AF93BF938091DD07909177
:10299000DE07A091DF07B091E0073091DC0723E06C
:1029A000230F2D3720F40196A11DB11D05C026E887
:1029B000230F0296A11DB11D2093DC078093DD0734
:1029C0009093DE07A093DF07B093E0078091E107C3
:1029D0009091E207A091E307B091E4070196A11D51
:1029E000B11D8093E1079093E207A093E307B093B2
:1029F000E407BF91AF919F918F913F912F910F90DD
:102A00000FBE0F901F901895E0ECF5E01382128234
:102A100088EE93E0A0E0B0E084839583A683B7833B
:102A20008EE092E09183808385EC90E095878487A7
:102A300084EC90E09787868780EC90E0918B808B88
:102A400081EC90E0938B828B82EC90E0958B848B71
:102A500086EC90E0978B868B118E128E138E148EDF
:102A600026E030E046E162E370E086EB97E04BDA87
:102A700026E030E047E16EE570E081EA97E043DA76
:102A800022E530E048E168E170E08CE897E03BDA6D
:102A900080E892E090937B0780937A079093690790
:102AA0008093680790935707809356079093450744
:102AB000809344079093330780933207E4E2F7E072
:102AC000128213821482158210868CE692E0918322
:102AD0008083E6E1F7E01282138214821582108669
:102AE00091838083E8E0F7E01282138214821582DA
:102AF000108691838083EAEFF6E0128213821482BB
:102B00001582108691838083ECEEF6E012821382A8
:102B100014821582108691838083EFEDF6E0128295
:102B2000138214821582108684E592E0918380835B
:102B300014861386E2EDF6E0128213821482158267
:102B400010869183808314861386E5ECF6E012826A
:102B500013821482158210869183808314861386D3
:102B6000E8EBF6E0128213821482158210869183BC
:102B7000808314861386EBEAF6E0128213821482B5
:102B8000158210869183808314861386E6E9F6E029
:102B90001282138214821582108688E492E0918357
:102BA000808380E492E0909391068093900688E37E
:102BB00092E090938D0680938C06E1E7F6E0128216
:102BC00013821482158210868CE292E091838083B6
:102BD000EDE5F6E01282138214821582108680E2FF
:102BE00092E09183808381E090E0968785870895C5
:102BF000789484B5826084BD84B5816084BD85B5D8
:102C0000826085BD85B5816085BD80916E008160E3
:102C100080936E0010928100809181008260809389
:102C2000810080918100816080938100809180008B
:102C30008160809380008091B10084608093B100B6
:102C40008091B00081608093B0008091910082609B
:102C50008093910080919100816080939100809198
:102C600090008160809390008091A10082608093A9
:102C7000A1008091A10081608093A1008091A000BB
:102C800081608093A0008091210182608093210166
:102C900080912101816080932101809120018160D8
:102CA0008093200180917A00846080937A008091E3
:102CB0007A00826080937A0080917A0081608093AC
:102CC0007A0080917A00806880937A001092C10027
:102CD000E091D005F091D10502E00083E091CC05B0
:102CE000F091CD051082E091CE05F091CF058FECEB
:102CF00080831092D805E091D405F091D50586E047
:102D00008083E091D205F091D3058081806180833A
:102D1000E091D205F091D305808188608083E091B5
:102D2000D205F091D305808180688083E091D2053F
:102D3000F091D30580818F7D808361E08DE00E94DA
:102D40005B0486EB97E0CDD886EB97E001D881EA6B
:102D500097E0C7D881EA97E00E94A80E8CE897E038
:102D6000C0D88CE897E00E94A80E11E01093860767
:102D7000C6EBD7E0D0938807C09387078AE797E030
:102D8000C4DB00937407D0937607C093750788E679
:102D900097E0BBDB83E080936207D0936407C09326
:102DA000630786E597E0B1DB84E080935007D0931A
:102DB0005207C093510784E497E0A7DB85E0809336
:102DC0003E07D0934007C0933F0782E397E09DDB27
:102DD0008AE797E09093E9068093E80688E697E013
:102DE0009093DC068093DB0686E597E09093CF0610
:102DF0008093CE0684E497E09093C2068093C10648
:102E000082E397E09093B5068093B4066AE777E093
:102E100084E297E053DB68E677E086E197E04EDBFB
:102E200066E577E088E097E049DB64E477E08AEFE5
:102E300096E044DB62E377E08CEE96E03FDBC0E9AE
:102E4000D6E08CE897E090939306809392061092D8
:102E500094061093950662E084E20E945B048CE87D
:102E600096E021EA37E030938F0620938E06D093C8
:102E70006706C093660690936906809368069093F0
:102E80007D0680937C06D0937B06C0937A06909350
:102E9000A2068093A106D093A006C0939F0684E269
:102EA00097E09093DB078093DA0786E197E09093B1
:102EB000D9078093D80788E097E09093D70780934D
:102EC000D6078AEF96E09093D5078093D4078CEECF
:102ED00096E09093D3078093D20786E996E090938B
:102EE000D1078093D007E0912407F0912507048053
:102EF000F581E02D84E297E019958091D8079091B3
:102F0000D907DC01ED91FC910480F581E02D199544
:102F10008091D6079091D707DC01ED91FC91048058
:102F2000F581E02D19958091D4079091D507DC01AA
:102F3000ED91FC910480F581E02D19958091D207E7
:102F40009091D307DC01ED91FC910480F581E02D97
:102F500019958091D0079091D107DC01ED91FC91FA
:102F60000480F581E02D1995F9DC6093CC0770930E
:102F7000CD078093CE079093CF0788E0282E87E077
:102F8000382E9AEF492E96E0592E2CEE622E26E02E
:102F9000722ECFEDD6E002ED16E035ECE32E36E0F2
:102FA000F32E48EBC42E46E0D42E5DE5A52E56E068
:102FB000B52E61E7862E66E0962E80918B078111F3
:102FC00005C08AE797E033DB811116C1809179074C
:102FD000811105C088E697E02ADB811146C1809106
:102FE0006707811105C086E597E021DB81114DC19E
:102FF00080915507811105C084E497E018DB8111A9
:1030000053C180914307811105C082E397E00FDB34
:10301000811159C180918B07882331F08AE797E0AD
:1030200006DB882309F45EC180917907882331F09B
:1030300088E697E0FCDA882309F48DC18091670760
:10304000882331F086E597E0F2DA882309F4BCC1E1
:1030500080915507882331F084E497E0E8DA8823EB
:1030600009F4EBC180914307882331F082E397E0B4
:10307000DEDA882309F41AC2809195068823E9F1E3
:1030800084E20E940404892BC1F568DC0E945B0283
:103090008EE294E00E94240280E993E00E942402E0
:1030A00080E20E9425028AEE94E00E9424028AE4D3
:1030B00094E00E94240281EE90E00E9430028CE4B1
:1030C00094E00E9424028FEF94E00E9424028DE499
:1030D00094E00E9424028EE095E00E941802B092D3
:1030E000D107A092D007E0915D06F0915E060480C2
:1030F000F581E02D8DE596E019958091DA079091A4
:10310000DB07DC01ED91FC910680F781E02D19953C
:103110008091D8079091D907DC01ED91FC91068050
:10312000F781E02D19958091D6079091D707DC01A2
:10313000ED91FC910680F781E02D19958091D407DF
:103140009091D507DC01ED91FC910680F781E02D8F
:1031500019958091D2079091D307DC01ED91FC91F4
:103160000680F781E02D19958091D0079091D107C5
:10317000DC01ED91FC910680F781E02D1995E0913D
:10318000D007F091D1078085882321F09092D10754
:103190008092D007E3DB2091CC073091CD0740919E
:1031A000CE075091CF07DC01CB01821B930BA40B00
:1031B000B50B893E9340A105B105D8F0CFDB6093F4
:1031C000CC077093CD078093CE079093CF07809163
:1031D000CB07811108C061E08DE00E942C0481E0E2
:1031E0008093CB0706C060E08DE00E942C04109213
:1031F000CB070E94880CE1CEB1DB0E945B028EE21D
:1032000094E00E94240280E993E00E94240280E27C
:103210000E9425028AEE94E00E9424028AE494E04F
:103220000E9424028BE990E00E9430028CE494E03A
:103230000E94240283E195E00E9424028DE494E040
:103240000E94240281E090E00E94D70384E297E08C
:103250009093DB078093DA07E0912407F09125072C
:103260000480F581E02D1995B1CEA6E1B7E0B093C9
:10327000D907A093D807E0911607F09117070480AB
:10328000F581E02DCD011995AACE3092D707209275
:10329000D607E0910807F09109070480F581E02D39
:1032A00088E097E01995A4CE5092D5074092D407B4
:1032B000E091FA06F091FB060480F581E02D8AEF9B
:1032C00096E019959ECE7092D3076092D207E09156
:1032D000EC06F091ED060480F581E02D8CEE96E091
:1032E000199598CE3BDB0E945B028EE294E00E942F
:1032F000240280E993E00E94240280E20E942502D9
:103300008AEE94E00E9424028AE494E00E9424025F
:103310008CEB90E00E9430028CE494E00E94240246
:103320008FE195E00E9424028DE494E00E94240243
:1033300081E090E00E94D703D093DB07C093DA07C7
:10334000E091DF06F091E0060480F581E02D8FED3D
:1033500096E0199569CE02DB0E945B028EE294E052
:103360000E94240280E993E00E94240280E20E94ED
:1033700025028AEE94E00E9424028AE494E00E94EE
:10338000240284EC90E00E9430028CE494E00E94DD
:1033900024028FE195E00E9424028DE494E00E94D3
:1033A000240282E090E00E94D7031093D907009393
:1033B000D807E091D206F091D3060480F581E02D84
:1033C00082ED96E019953ACEC9DA0E945B028EE250
:1033D00094E00E94240280E993E00E94240280E2AB
:1033E0000E9425028AEE94E00E9424028AE494E07E
:1033F0000E9424028AEC90E00E9430028CE494E067
:103400000E9424028FE195E00E9424028DE494E062
:103410000E94240283E090E00E94D703F092D70735
:10342000E092D607E091C506F091C6060480F581CA
:10343000E02D85EC96E019950BCE90DA0E945B02A8
:103440008EE294E00E94240280E993E00E9424022C
:1034500080E20E9425028AEE94E00E9424028AE41F
:1034600094E00E94240280ED90E00E9430028CE4FF
:1034700094E00E9424028FE195E00E9424028DE4F2
:1034800094E00E94240284E090E00E94D703D0924E
:10349000D507C092D407E091B806F091B906048030
:1034A000F581E02D88EB96E01995DCCD57DA0E9486
:1034B0005B028EE294E00E94240280E993E00E9485
:1034C000240280E20E9425028AEE94E00E942402F7
:1034D0008AE494E00E94240287ED90E00E9430028A
:1034E0008CE494E00E9424028FE195E00E94240283
:1034F0008DE494E00E94240285E090E00E94D703CE
:103500008BEA96E09093D3078093D207E091AB06C5
:10351000F091AC060480F581E02D1995ADCD8CE8D5
:1035200097E00E94C00C81EA97E00E94C00C86EBF5
:1035300097E00C94C00CCF93DF938230910510F488
:1035400082E090E0E091E707F091E80720E030E0CA
:10355000C0E0D0E0309711F1408151814817590700
:10356000C0F04817590761F482819381209719F0C0
:103570009B838A832BC09093E8078093E70726C03C
:103580002115310519F04217530718F49A01BE01AD
:10359000DF01EF010280F381E02DDCCF2115310541
:1035A00009F1281B390B2430310590F412968D91C6
:1035B0009C9113976115710521F0FB019383828320
:1035C00004C09093E8078093E707FD01329644C05A
:1035D000FD01E20FF31F81939193225031092D9346
:1035E0003C933AC02091E5073091E607232B41F444
:1035F00020910202309103023093E6072093E50701
:1036000020910002309101022115310541F42DB7BE
:103610003EB74091040250910502241B350BE09106
:10362000E507F091E607E217F307A0F42E1B3F0B26
:103630002817390778F0AC014E5F5F4F2417350724
:1036400048F04E0F5F1F5093E6074093E5078193C4
:10365000919302C0E0E0F0E0CF01DF91CF910895B7
:103660000F931F93CF93DF93009709F48CC0FC0155
:103670003297138212820091E7071091E807011533
:10368000110581F420813181820F931F2091E5077C
:103690003091E6072817390779F5F093E607E093AC
:1036A000E50771C0D80140E050E0AE17BF0750F405
:1036B00012962D913C911397AD012115310509F119
:1036C000D901F3CF9D01DA013383228360817181B7
:1036D000860F971F8217930769F4EC0128813981BF
:1036E000260F371F2E5F3F4F318320838A819B81B6
:1036F00093838283452B29F4F093E807E093E7074F
:1037000042C01396FC93EE931297ED0149915991A3
:103710009E01240F351FE217F30771F48081918118
:10372000840F951F029611969C938E9382819381AC
:1037300013969C938E931297E0E0F0E0D8011296D6
:103740008D919C911397009719F0F8018C01F6CF99
:103750008D919C9198012E5F3F4F820F931F209176
:10376000E5073091E6072817390769F4309729F4FF
:103770001092E8071092E70702C01382128210939A
:10378000E6070093E507DF91CF911F910F91089510
:103790008F929F92AF92BF92CF92DF92EF92FF9261
:1037A000CF93DF93EC01688179818A819B816115D8
:1037B00071058105910521F464E279ED8BE597E0CF
:1037C0002DE133EF41E050E038D049015A019B012F
:1037D000AC01A7EAB1E44DD06B017C01ACEEB4EFD3
:1037E000A501940152D0DC01CB018C0D9D1DAE1DB5
:1037F000BF1DB7FF03C00197A109B0488883998313
:10380000AA83BB83BC01CD019F77DF91CF91FF904D
:10381000EF90DF90CF90BF90AF909F908F900895E2
:10382000B7CF86E092E0B4CF6093060270930702B0
:1038300080930802909309020895052E97FB16F4D1
:1038400000940FD057FD05D024D007FC02D046F4D9
:1038500008C050954095309521953F4F4F4F5F4F91
:10386000089590958095709561957F4F8F4F9F4FEC
:10387000089531D0A59F900DB49F900DA49F800D09
:10388000911D11240895B7FFF4CFF3DF821B930B32
:103890000895A1E21A2EAA1BBB1BFD010DC0AA1F91
:1038A000BB1FEE1FFF1FA217B307E407F50720F0A9
:1038B000A21BB30BE40BF50B661F771F881F991F24
:1038C0001A9469F760957095809590959B01AC016D
:1038D000BD01CF010895A29FB001B39FC001A39F76
:1038E000700D811D1124911DB29F700D811D112439
:1038F000911D08955058BB27AA270ED04DC13ED127
:1039000030F043D120F031F49F3F11F41EF433C165
:103910000EF4E095E7FB29C1E92F4FD180F3BA17E8
:10392000620773078407950718F071F49EF567C165
:103930000EF4E0950B2EBA2FA02D0B01B9019001CA
:103940000C01CA01A0011124FF27591B99F0593F0E
:1039500050F4503E68F11A16F040A22F232F342F56
:103960004427585FF3CF469537952795A795F040A4
:103970005395C9F77EF41F16BA0B620B730B840BB9
:10398000BAF09150A1F0FF0FBB1F661F771F881F71
:10399000C2F70EC0BA0F621F731F841F48F48795C9
:1039A00077956795B795F7959E3F08F0B3CF9395B8
:1039B000880F08F09927EE0F9795879508950CD0FA
:1039C000EBC0E3D040F0DAD030F021F45F3F19F0E3
:1039D000CCC0511115C1CFC0F0D098F39923C9F3D1
:1039E0005523B1F3951B550BBB27AA276217730705
:1039F000840738F09F5F5F4F220F331F441FAA1FB9
:103A0000A9F333D00E2E3AF0E0E830D09150504078
:103A1000E695001CCAF729D0FE2F27D0660F771F26
:103A2000881FBB1F261737074807AB07B0E809F008
:103A3000BB0B802DBF01FF2793585F4F2AF09E3F9D
:103A4000510568F092C0DCC05F3FECF3983EDCF3B8
:103A5000869577956795B795F7959F5FC9F7880F16
:103A6000911D9695879597F90895E1E0660F771F68
:103A7000881FBB1F621773078407BA0720F0621BF9
:103A8000730B840BBA0BEE1F88F7E095089504D0F2
:103A90006894B111B5C0089598D088F09F5790F000
:103AA000B92F9927B751A0F0D1F0660F771F881F63
:103AB000991F1AF0BA95C9F712C0B13081F09FD0A2
:103AC000B1E008959CC0672F782F8827B85F39F040
:103AD000B93FCCF3869577956795B395D9F73EF4C2
:103AE00090958095709561957F4F8F4F9F4F08956A
:103AF000E89409C097FB3EF4909580957095619588
:103B00007F4F8F4F9F4F9923A9F0F92F96E9BB273D
:103B10009395F695879577956795B795F111F8CFB9
:103B2000FAF4BB0F11F460FF1BC06F5F7F4F8F4F24
:103B30009F4F16C0882311F096E911C0772321F01A
:103B40009EE8872F762F05C0662371F096E8862FB2
:103B500070E060E02AF09A95660F771F881FDAF709
:103B6000880F9695879597F9089597F99F6780E84C
:103B700070E060E008959FEF80EC089500240A94BF
:103B80001616170618060906089500240A94121638
:103B90001306140605060895092E0394000C11F46B
:103BA000882352F0BB0F40F4BF2B11F460FF04C018
:103BB0006F5F7F4F8F4F9F4F089557FD9058440F71
:103BC000551F59F05F3F71F04795880F97FB991F7C
:103BD00061F09F3F79F08795089512161306140639
:103BE000551FF2CF4695F1DF08C0161617061806C6
:103BF000991FF1CF86957105610508940895E894A1
:103C0000BB2766277727CB0197F908950BD0C4CF40
:103C1000B5DF28F0BADF18F0952309F0A6CFABCFB7
:103C20001124EECFCADFA0F3959FD1F3950F50E09A
:103C3000551F629FF001729FBB27F00DB11D639F5E
:103C4000AA27F00DB11DAA1F649F6627B00DA11D04
:103C5000661F829F2227B00DA11D621F739FB00DAA
:103C6000A11D621F839FA00D611D221F749F33271A
:103C7000A00D611D231F849F600D211D822F762FB3
:103C80006A2F11249F5750408AF0E1F088234AF0B0
:103C9000EE0FFF1FBB1F661F771F881F91505040FC
:103CA000A9F79E3F510570F060CFAACF5F3FECF3BC
:103CB000983EDCF3869577956795B795F795E795E8
:103CC0009F5FC1F7FE2B880F911D9695879597F9F9
:103CD00008959F9305D00F9007FCEE5F28C04BCF4F
:103CE00074DFE8F3E894E0E0BB279F57F0F02AED9B
:103CF0003FE049EC06C0EE0FBB0F661F771F881F21
:103D000028F0B23A62077307840728F0B25A620BB0
:103D1000730B840BE3959A9572F7803830F49A957B
:103D2000BB0F661F771F881FD2F7904813C0EF9311
:103D3000E0FF06C0A2EA2AED3FE049EC5FEBECDDD4
:103D40002BDF0F90039401FC9058EAE3F1E00EC0E2
:103D50009F3F31F0915020F4879577956795B795FF
:103D6000880F911D9695879597F908959F938F9346
:103D70007F936F93FF93EF939B01AC0147DFEF912C
:103D8000FF9105D02F913F914F915F913FCFDF93EE
:103D9000CF931F930F93FF92EF92DF927B018C01E1
:103DA000689405C0DA2EEF013DDFFE01E894A5918D
:103DB0002591359145915591AEF3EF01ADDDFE01B1
:103DC0009701A801DA9479F7DF90EF90FF900F91B7
:103DD0001F91CF91DF910895EE0FFF1F881F8BBFBA
:103DE0000790F691E02D199476DDB7FF0895821BB8
:103DF000930B089581E090E0F89407C0DC0101C0C6
:103E00006D9341505040E0F7089511E0CDE3D1E0CB
:103E100000E005C0802FFE01DFDF2196011DCE33BB
:0C3E2000D10780E00807B1F7F894FFCF4D
:103E2C000000E90780000100000000000000820B88
:103E3C00480B4B0CF50C7C0C5A0C6E0C0000000063
:103E4C00470BE10598059608000000001607E505EC
:103E5C005608EB0500000000450BE70500000000CC
:103E6C005D122410000000001507E3051D083B0738
:103E7C000000000084122810DE10881100000000E1
:103E8C0000000000770B770B000000008312261057
:103E9C0017112C1000000000460BE9050000000073
:103EAC0021132A107669727475616C20766F6964BF
:103EBC00204465617468537461724578706C6F64EA
:103ECC00653A3A7374617274536365656E282900A0
:103EDC00766F6964204465617468537461724578C7
:103EEC00706C6F64653A3A646F466C617368322823
:103EFC002900766F6964204465617468537461723B
:103F0C004578706C6F64653A3A646F4661737442BD
:103F1C006C61636B282900766F6964204465617459
:103F2C0068537461724578706C6F64653A3A646F6B
:103F3C00466C61736831282900766F69642044658A
:103F4C00617468537461724578706C6F64653A3A49
:103F5C00646F52696E675468726F622829007669C3
:103F6C00727475616C20766F696420446561746845
:103F7C0053746172506C617947616D653A3A737430
:103F8C00617274536365656E282900766972747565
:103F9C00616C20766F6964204D6F727365436F643A
:103FAC00653A3A7374617274536365656E282900BF
:103FBC00766F6964206C6F6F702829007669727453
:103FCC0075616C20766F6964205469654669676811
:103FDC007465724578706C6F64653A3A737461728B
:103FEC0074536365656E282900766F696420546983
:103FFC006546696768746572506C61797347616D69
:10400C00653A3A6C696E6B466967687465722854D8
:10401C006965466967687465722A290076697274E5
:10402C0075616C20766F69642054696546696768B0
:10403C00746572506C61797347616D653A3A73744B
:10404C00617274536365656E2829000D0A003A5B32
:10405C0020002E2E5C44656174685374617245783F
:10406C00706C6F64652E637070003A005D202000E8
:10407C004465617468537461724578706C6F6465E3
:10408C003A3A7374617274536365656E2829002E15
:10409C002E5C4D6F727365436F64652E6370700098
:1040AC002E2E5C446561746853746172506C617936
:1040BC0047616D652E63707000446561746853745C
:1040CC006172506C617947616D653A3A73746172D3
:1040DC0074536365656E28290072696E6720546895
:1040EC00726F62206368616E6765207374617465BA
:1040FC0000466C61736831004661737420426C61D8
:10410C00636B00466C61736832002E2E5C446561F3
:10411C00746853746172323031382E696E6F005688
:10412C00656E7420506F727420486974200054724C
:10413C007565005461726765742075702020005499
:10414C00617267657420446F776E2020002E2E5CA0
:10415C00546965466967687465724578706C6F64FC
:10416C00652E637070005469654669676874657282
:10417C004578706C6F64653A3A737461727453630A
:10418C0065656E2829002E2E5C5469654669676842
:10419C00746572506C61797347616D652E637070D4
:1041AC000054696546696768746572506C6179730F
:1041BC0047616D653A3A7374617274536365656EE9
:1041CC0028290054696546696768746572506C618A
:1041DC00797347616D653A3A4C696E6B6564200082
:00000001FF
