:1000000008C1000036C1000034C1000032C1000048
:1000100030C100002EC100002CC100002AC1000028
:1000200028C1000026C1000024C1000022C1000038
:1000300020C100001EC100001CC100001AC1000048
:1000400018C1000016C1000014C1000012C1000058
:1000500010C100000EC100000CC100000C94E108AA
:1000600008C1000091C2000066C2000002C1000089
:1000700000C10000FEC00000FCC00000FAC000008B
:10008000F8C00000F6C00000F4C00000F2C000009C
:10009000F0C00000EEC00000ECC00000EAC00000AC
:1000A000E8C00000E6C00000E4C00000E2C00000BC
:1000B000E0C00000DEC00000DCC00000DAC00000CC
:1000C000D8C00000D6C00000D4C00000D2C00000DC
:1000D000D0C00000CEC00000CCC00000CAC00000EC
:1000E000C8C000002608290818081C082008600855
:1000F0002D08310837083B083F08450849084D08D6
:100100006008530857085B080000210024002700FE
:100110002A002D0030003300010100000401070116
:100120000A0100000A0B02090C0D0E080703040166
:1001300000000000000000000000000000000000BF
:10014000000000000000000000000000000012118C
:10015000100000000000000000000000000000008F
:10016000000000000000000001021020200808101C
:100170002040102040800201020108040201010217
:1001800004081020408080402010080402018004F0
:10019000020180402010080402010804020101024B
:1001A0000408102040800102040810204080000054
:1001B0002200250028002B002E003100340002010F
:1001C0000000050108010B010505050507050808E4
:1001D0000808020202020A0A0808040404040101D1
:1001E00001010101010103030303030303030407E6
:1001F00007070C0C0C0C0C0C0C0C0202020206067D
:100200000606060606060B0B0B0B0B0B0B0BFB0B6C
:10021000ED0B11241FBECFEFD1E2DEBFCDBF00E05A
:100220000CBF14E0A0E0B2E0E6E3FCE100E00BBFAD
:1002300002C007900D92A430B107D9F724E0A4E0E2
:10024000B4E001C01D92A13EB207E1F711E0C8E0A1
:10025000D1E000E006C021970109802FFE010E9435
:10026000D10CC730D10780E00807A9F7F4D70C9468
:100270000A0EC6CECF92DF92EF92FF920F931F939A
:10028000CF93DF936C017A018B01C0E0D0E0CE15F3
:10029000DF0589F0D8016D918D01D601ED91FC91BA
:1002A0000190F081E02DC6011995892B11F47E0192
:1002B00002C02196ECCFC701DF91CF911F910F9122
:1002C000FF90EF90DF90CF9008950E94060E089562
:1002D00080E090E00895FC01538D448D252F30E09F
:1002E000842F90E0821B930B541710F0CF96089543
:1002F00001970895FC01918D828D981761F0828D90
:10030000DF01A80FB11D5D968C91928D9F5F9F7349
:10031000928F90E008958FEF9FEF0895FC01918DEB
:10032000828D981731F0828DE80FF11D858D90E058
:1003300008958FEF9FEF0895FC01918D228D892FF5
:1003400090E0805C9F4F821B91098F7399270895DD
:1003500089E094E0F1DF21E0892B09F420E0822F8D
:100360000895FC01848DDF01A80FB11DA35ABF4F72
:100370002C91848D90E001968F739927848FA689A4
:10038000B7892C93A089B1898C9180648C93938DCB
:10039000848D981306C00288F389E02D80818F7DBB
:1003A00080830895EF92FF920F931F93CF93DF9373
:1003B000EC0181E0888F9B8D8C8D981305C0E889B6
:1003C000F989808185FD23C0F62E0B8D10E00F5F2B
:1003D0001F4F0F731127E02E8C8DE8120BC00FB644
:1003E00007FCFACFE889F989808185FFF5CFCE0136
:1003F000B8DFF2CF8B8DFE01E80FF11DE35AFF4FFE
:10040000F0820B8FEA89FB898081806207C0EE89C8
:10041000FF896083E889F98980818064808381E035
:1004200090E0DF91CF911F910F91FF90EF90089591
:10043000CF93DF93EC01888D8823C1F0EA89FB8993
:10044000808185FD05C0A889B9898C9186FD0EC083
:100450000FB607FCF5CF808185FFF2CFA889B98957
:100460008C9185FFEDCFCE017CDFE8CFDF91CF917E
:10047000089580E090E0892B19F06ADF811125C092
:1004800080E090E0892B41F080E090E0892B21F022
:100490000E94000081111CC080E090E0892B41F097
:1004A00080E090E0892B21F00E940000811113C0B0
:1004B00080E090E0892BA1F080E090E0892B81F032
:1004C0000E94000081110AC008950E940000D8CF48
:1004D0000E940000E1CF0E940000EACF0C940000CF
:1004E00008950C946E0D0C946E0D0C946E0DFC0121
:1004F00013861286128213821482158256D64AE01F
:100500002CD48EEF92E079D486E492E076D480E227
:1005100075D484E893E071D484E193E06ED488E2EA
:1005200090E077D486E193E068D48DE993E09CD4A1
:1005300061E08BE05DC51F920F920FB60F92112400
:100540000BB60F922F933F934F935F936F937F93CD
:100550008F939F93AF93BF93EF93FF9389E094E0C2
:1005600000DFFF91EF91BF91AF919F918F917F91AC
:100570006F915F914F913F912F910F900BBE0F9014
:100580000FBE0F901F9018951F920F920FB60F92EB
:1005900011240BB60F922F938F939F93EF93FF939A
:1005A000E0911904F0911A048081E0911F04F09108
:1005B000200482FD12C09081809122048F5F8F738E
:1005C00020912304821751F0E0912204F0E0E75FCC
:1005D000FB4F958F8093220401C08081FF91EF91A2
:1005E0009F918F912F910F900BBE0F900FBE0F9088
:1005F0001F9018954F925F926F927F928F929F9269
:10060000AF92BF92CF92DF92EF92FF920F931F9320
:10061000CF93DF93DC011D968C911D971A96EC9079
:100620001A971896ED91FC91199717968C90179739
:10063000482F50E01B961C911B971C960C91EB01C8
:100640008E1164C0CC0FDD1FC60FD71FCE0FDF1F6A
:10065000882009F443C0912CA12CB12CFE01E40F99
:10066000F51F608170E0762F6627072E000C880B3F
:10067000990BA50194010E94AF0C39015524442423
:10068000FE01E10FF11D608170E0762F6627072ED5
:10069000000C880B990BA50194010E94AF0CB42F9C
:1006A000A32F922F882773016201C82AD92AEA2A28
:1006B000FB2AC00FD11D688170E0762F6627072EB8
:1006C000000C880B990BA50194010E94AF0CC70187
:1006D000B601622B732B842B952B95C0FE01E40F82
:1006E000F51F2081FE01E10FF11D6081862F90E052
:1006F000A0E0B0E0BA2FA92F982F8827A22BC00F17
:10070000D11D2881BC01CD01622B7DC0CC0FDD1F26
:10071000CC0FDD1FCE0FDF1FF12C882009F458C04D
:10072000912CA12CB12CFE01E40FF51F608170E02B
:10073000762F6627072E000C880B990BA5019401D4
:100740000E94AF0C722E662455244424FE01EE0D47
:10075000FF1D608170E0762F6627072E000C880B46
:10076000990BA50194010E94AF0C7901DD24CC24E2
:10077000C428D528E628F728FE01E00FF11D608186
:1007800070E0762F6627072E000C880B990BA501C9
:1007900094010E94AF0CC22AD32AE42AF52AC10F81
:1007A000D11D688170E0762F6627072E000C880B1C
:1007B000990BA50194010E94AF0CB42FA32F922F87
:1007C0008827BC01CD016C297D298E299F291BC05A
:1007D000FE01E40FF51F2081FE01EE0DFF1D60817B
:1007E000862F90E0A0E0B0E0DC0199278827B22BAB
:1007F000FE01E00FF11D2081822BC10FD11D288148
:10080000BC01CD01722BDF91CF911F910F91FF9011
:10081000EF90DF90CF90BF90AF909F908F907F90A0
:100820006F905F904F900895CF92DF92EF92FF927A
:100830000F931F93CF93DF93CDB7DEB729970FB6F2
:10084000F894DEBF0FBECDBF8C018AD4D8011E96AE
:10085000CD90DD90ED90FC905197DC01CB018C198F
:100860009D09AE09BF098C329140A105B10568F31D
:10087000F894D80114968D919C9115979A83898349
:100880001896ED91FC9119977F01BFEFEB1AFB0AC7
:1008900080818B83F80190810288F389E02DD80153
:1008A00054968C91992309F430C09081982B9C83A5
:1008B0009081809589238D838D818E8388E08F83BD
:1008C0005C816D814B813F812E8189819A81D70125
:1008D000508347FD252F3A952083262F39F0441F5A
:1008E00000C000006083000000C0F2CF38E04D91EE
:1008F00060830000019761F7D8015396FC93EE9353
:1009000052974B833F832E833AC09081982B9C83D0
:100910009081809589238D838D81888788E0898760
:100920005C816D814B813985288589819A81D701C8
:10093000508347FD252F00C000C0208300C000C0A9
:1009400000C000C000C060830000262F3A9541F02F
:10095000441F000000C000C000C000C000C0E8CFBD
:1009600038E04D9100C0608300C0019709F7D801BD
:100970005396FC93EE9352974B83398728879A833B
:1009800089837894EDD3F80166877787808B918B84
:1009900029960FB6F894DEBF0FBECDBFDF91CF9181
:1009A0001F910F91FF90EF90DF90CF9008958F925D
:1009B0009F92AF92BF92CF92DF92EF92FF920F93EE
:1009C0001F93CF93DF93FC0182819381681779078E
:1009D00008F04CC04A01AA24BB24B82DC32ED42E43
:1009E000E52EFF24AC2D922F8781882361F0889E0D
:1009F00040011124B92DC89E60011124AD2D289FFE
:100A0000E00111249D2FD584C285E084F184DC129D
:100A100008C09B01220F331F620F731F6E0D7F1DD5
:100A200016C0660F771F660F771F6E0D7F1D052F8F
:100A3000112722273327EB01CD0DD11D882329F063
:100A4000089F90011124232F01C0202F2883828525
:100A5000EB01C80FD11DB8838385EB01C80FD11DF1
:100A6000A8838485FB01E80FF11D9083DF91CF916E
:100A70001F910F91FF90EF90DF90CF90BF90AF90BC
:100A80009F908F900895CF92DF92EF92FF920F93F5
:100A90001F93CF93DF93EC01CA80DB80EC80FD8055
:100AA00084D36C157D058E059F0508F4DEC08A850C
:100AB0009B858130910509F465C08230910509F468
:100AC00092C0892B09F0D1C070D34AE046D18EEF95
:100AD00092E093D18BE992E090D180E28FD184E8CB
:100AE00093E08BD184E193E088D187E590E091D1C8
:100AF00086E193E082D18DEB93E0B6D1088519852C
:100B0000F801628170E02FEF3FEF4FEF50E08385F7
:100B100094854DDFF801638170E02FEF3FEF4FEFD9
:100B200050E08385948543DFE884F98487010C5F76
:100B30001F4F6701FAE0CF0ED11CF80161918F01C0
:100B400070E020EF30EF4FEF50E0F70183859485A0
:100B50002EDF0C151D0589F7E885F98583859485B9
:100B6000FC0120853185232B09F05EDE82E090E0D8
:100B70009B878A871AD3DC01CB01845D9E4FAF4FE0
:100B8000BF4F6FC0888599857BD1182F888599853F
:100B9000D3D1180FE885F98583859485FC012085DC
:100BA0003185232B09F040DE61E08BE021D2FDD2BC
:100BB000DC01CB010596A11DB11D8A839B83AC830B
:100BC000BD838E819F8101979F838E8311114DC0BC
:100BD00082E090E09B878A87E8D2DC01CB01059612
:100BE000A11DB11D3EC0888599854AD1182F8885E1
:100BF0009985A2D1180FE885F98583859485FC0134
:100C000020853185232B09F00FDECFD2DC01CB010B
:100C10000596A11DB11D8A839B83AC83BD831111F1
:100C200024C0C3D24AE099D08EEF92E0E6D083E7A9
:100C300092E0E3D080E2E2D084E893E0DED084E189
:100C400093E0DBD08BE990E0E4D086E193E0D5D06F
:100C500081EE93E009D1A9D2DC01CB01945AA94DD0
:100C6000BA4F8A839B83AC83BD83DF91CF911F9161
:100C70000F91FF90EF90DF90CF9008950895089521
:100C80000895CF92DF92EF92FF920F931F93F80196
:100C9000FF27C12ED22EE32EFF24DD24820F911DCB
:100CA00097FD07C08F3F910531F02CF08FEF90E05A
:100CB00002C080E090E08601060F171F17FD07C0F5
:100CC0000F3F110531F02CF00FEF10E002C000E0F3
:100CD00010E04E0F5F1F57FD07C04F3F510531F029
:100CE0002CF04FEF50E002C040E050E0012E000C2D
:100CF000220B330B322F212F102F0027092E000C2F
:100D0000AA0BBB0BDC0199278827802B912BA22BE8
:100D1000B32B052E000C660B770B8C019D01042B69
:100D2000152B262B372BC901B8011F910F91FF906E
:100D3000EF90DF90CF900895009761F0FC01019053
:100D40000020E9F73197AF01481B590BBC0189E03E
:100D500094E090CA80E090E008958F929F92AF92C5
:100D6000BF920F931F93CF93DF93CDB7DEB7A197B9
:100D70000FB6F894DEBF0FBECDBF19A2423008F403
:100D80004AE08E010F5D1F4F842E912CA12CB12CB7
:100D9000A5019401E4D5E62FB901CA01015011095A
:100DA000EA3014F4E05D01C0E95CD801EC93232B38
:100DB000242B252B69F7C801BFDFA1960FB6F89445
:100DC000DEBF0FBECDBFDF91CF911F910F91BF90BE
:100DD000AF909F908F900895CF93DF93682F70E02E
:100DE00080E090E040E1B9DFEC0181E893E0A4DF2E
:100DF0008C0F9D1FDF91CF9108959ECFE091090444
:100E0000F0910A040190F081E02D682F89E094E0D0
:100E10001994CF92DF92EF92FF92CF93DF936C0100
:100E2000990FEE08FF08F7FE15C08DE2E7DFEC0131
:100E300066277727CB016C197D098E099F094AE047
:100E40008CDF8C0F9D1FDF91CF91FF90EF90DF9093
:100E5000CF9008954AE0C701B601DF91CF91FF908E
:100E6000EF90DF90CF9079CFCF93DF9365DFEC01E8
:100E700081E893E061DF8C0F9D1FDF91CF91089592
:100E80003F924F925F926F927F928F929F92AF921A
:100E9000BF92CF92DF92EF92FF920F931F93CF9367
:100EA000DF935C017C0182E0E80EF11C4501E4E087
:100EB0008E0E911C312CF701C1917F01D0E0F5011C
:100EC000C384D484F60182819381C817D90730F492
:100ED000BE01C6018FDB2B013C0103C0412C512C0C
:100EE00032019301820146EE5FEF66EE7FEF8CEEFA
:100EF0009FEFC7DE9B01AC014616570668067906D0
:100F000011F033243394BE01C60151DDE814F90415
:100F100091F6832DDF91CF911F910F91FF90EF906C
:100F2000DF90CF90BF90AF909F908F907F906F9009
:100F30005F904F903F9008953F924F925F926F92D3
:100F40007F928F929F92AF92BF92CF92DF92EF9259
:100F5000FF920F931F93CF93DF935C017C0184E09A
:100F6000E80EF11C4501EAE08E0E911C312CF701D0
:100F7000C1917F01D0E0F501C384D484F601828160
:100F80009381C817D90730F4BE01C60133DB2B01AA
:100F90003C0103C0412C512C32019301820142EEED
:100FA0005FEF62EE7FEF82EE9FEF6BDE9B01AC01A5
:100FB000461657066806790611F033243394BE01AD
:100FC000C601F5DCE814F90491F6832DDF91CF9189
:100FD0001F910F91FF90EF90DF90CF90BF90AF9057
:100FE0009F908F907F906F905F904F903F9008956B
:100FF000362F90E0FC01EE5DFE4F4491FC01E85974
:10100000FE4F2491FC01E853FE4F9491992309F47B
:101010006AC0442309F454C050E0FA013197E23128
:10102000F10508F04DC08827EE58FF4F8F4FB9C427
:10103000809180008F7707C0809180008F7D03C0F2
:1010400080918000877F809380003AC084B58F773D
:1010500002C084B58F7D84BD33C08091B0008F778E
:1010600003C08091B0008F7D8093B00029C0809133
:1010700090008F7707C0809190008F7D03C0809192
:101080009000877F809390001BC08091A0008F7795
:1010900007C08091A0008F7D03C08091A000877F52
:1010A0008093A0000DC0809120018F7707C08091B0
:1010B00020018F7D03C080912001877F80932001D4
:1010C000E92FF0E0EE0FFF1FE255FE4FA591B4911E
:1010D0008FB7F894EC91311103C020952E2301C0F5
:1010E0002E2B2C938FBF0895CF93DF9390E0FC01BC
:1010F000E859FE4F2491FC01E853FE4F8491882368
:1011000061F190E0880F991FFC01E85FFE4FC591E7
:10111000D491FC01E255FE4FA591B491611109C033
:101120009FB7F8948881209582238883EC912E23A1
:101130000BC0623061F49FB7F8943881822F80959C
:1011400083238883EC912E2B2C939FBF06C08FB7EF
:10115000F894E8812E2B28838FBFDF91CF910895DB
:101160003FB7F8948091D9049091DA04A091DB0400
:10117000B091DC0426B5A89B05C02F3F19F001965D
:10118000A11DB11D3FBFBA2FA92F982F8827820F0D
:10119000911DA11DB11DBC01CD0142E0660F771F5D
:1011A000881F991F4A95D1F708952FB7F894609139
:1011B000D5047091D6048091D7049091D8042FBFA4
:1011C00008951F920F920FB60F9211242F933F9301
:1011D0008F939F93AF93BF938091D5049091D60442
:1011E000A091D704B091D8043091D40423E0230F08
:1011F0002D3720F40196A11DB11D05C026E8230F4F
:101200000296A11DB11D2093D4048093D504909320
:10121000D604A093D704B093D8048091D9049091B8
:10122000DA04A091DB04B091DC040196A11DB11D8C
:101230008093D9049093DA04A093DB04B093DC0488
:10124000BF91AF919F918F913F912F910F900FBEC2
:101250000F901F901895789484B5826084BD84B5F2
:10126000816084BD85B5826085BD85B5816085BDA1
:1012700080916E00816080936E0010928100809159
:1012800081008260809381008091810081608093E1
:101290008100809180008160809380008091B10006
:1012A00084608093B1008091B00081608093B00031
:1012B0008091910082608093910080919100816083
:1012C0008093910080919000816080939000809144
:1012D000A10082608093A1008091A1008160809331
:1012E000A1008091A00081608093A00080912101E5
:1012F000826080932101809121018160809321018E
:101300008091200181608093200180917A00846027
:1013100080937A0080917A00826080937A00809135
:101320007A00816080937A0080917A00806880934F
:101330007A001092C100E0911904F0911A04D2E0F1
:10134000D083E0911504F09116041082E091170407
:10135000F09118048FEC808310922104E0911D0419
:10136000F0911E04C6E0C083E0911B04F0911C04C0
:10137000808180618083E0911B04F0911C04808156
:1013800088608083E0911B04F0911C048081806858
:101390008083E0911B04F0911C0480818F7D808309
:1013A00061E08DE0A1DE81E08093BC042FEB34E0AE
:1013B0003093BE042093BD0493E09093B40494E072
:1013C0009093B5041092B6048093B704D093B804F8
:1013D00085E08093B904C093BA0487E08093BB048E
:1013E000E4DE4AE0BADC8EEF92E007DD86E092E0D0
:1013F00004DD80E203DD82E093E0FFDC84E193E042
:10140000FCDC87E190E005DD86E193E0F6DC8AE133
:1014100093E02ADDCADE4AE0A0DC8EEF92E0EDDC4C
:1014200086E092E0EADC80E2E9DC82E093E0E5DC61
:1014300084E193E0E2DC88E190E0EBDC86E193E09C
:10144000DCDC80E090E0E5DC87E193E0D6DC8091B5
:10145000B404C2DCAADE4AE080DC8EEF92E0CDDC90
:1014600086E092E0CADC80E2C9DC82E093E0C5DC81
:1014700084E193E0C2DC89E190E0CBDC86E193E09B
:10148000BCDC81E090E0C5DC87E193E0B6DC8091D4
:10149000B504A2DC8ADE4AE060DC8EEF92E0ADDCCF
:1014A00086E092E0AADC80E2A9DC82E093E0A5DCA1
:1014B00084E193E0A2DC8DE190E0ABDC86E193E097
:1014C0009CDC84E393E0D0DC70DE4AE046DC8EEF07
:1014D00092E093DC86E092E090DC80E28FDC82E0B8
:1014E00093E08BDC84E193E088DC8EE190E091DC9A
:1014F00086E193E082DC80E090E08BDC87E193E0A2
:101500007CDC8091B60468DC50DE4AE026DC8EEF9D
:1015100092E073DC86E092E070DC80E26FDC82E0D7
:1015200093E06BDC84E193E068DC8FE190E071DCB8
:1015300086E193E062DC81E090E06BDC87E193E0A0
:101540005CDC8091B70448DC30DE4AE006DC8EEFDC
:1015500092E053DC86E092E050DC80E24FDC82E0F7
:1015600093E04BDC84E193E048DC80E290E051DCE6
:1015700086E193E042DC82E090E04BDC87E193E09F
:101580003CDC8091B80428DC10DE4AE0E6DB8EEF1C
:1015900092E033DC86E092E030DC80E22FDC82E017
:1015A00093E02BDC84E193E028DC81E290E031DC05
:1015B00086E193E022DC83E090E02BDC87E193E09E
:1015C0001CDC8091B90408DCF0DD4AE0C6DB8EEF5C
:1015D00092E013DC86E092E010DC80E20FDC82E037
:1015E00093E00BDC84E193E008DC82E290E011DC24
:1015F00086E193E002DC84E090E00BDC87E193E09D
:10160000FCDB8091BA04E8DBD0DD4AE0A6DB8EEF9C
:1016100092E0F3DB86E092E0F0DB80E2EFDB82E059
:1016200093E0EBDB84E193E0E8DB83E290E0F1DB45
:1016300086E193E0E2DB85E090E0EBDB87E193E09D
:10164000DCDB8091BB04C8DB82EB94E09093AF04B9
:101650008093AE0486EA94E00E9477028091C504EC
:1016600087FD06C061E040DD60E08091C504C0DC1C
:1016700081E08093C0048091C7049091C804892BB5
:1016800019F08FEB94E0D0D890DD6093050470934F
:101690000604809307049093080486EA94E0F3D943
:1016A0005FDD4B015C0182E3C82ED12CE12CF12CD3
:1016B00057DDDC01CB0188199909AA09BB09883ECD
:1016C0009340A105B10558F021E0C21AD108E10804
:1016D000F10888EE880E83E0981EA11CB11CC1148D
:1016E000D104E104F10421F760DDC0900504D0903D
:1016F0000604E0900704F0900804DC01CB018C198B
:101700009D09AE09BF0981379741A105B10508F4CC
:1017100061C04BDD4AE021DB8EEF92E06EDB8AE3B5
:1017200092E06BDB80E26ADB8CE493E066DB84E1D1
:1017300093E063DB85E490E06CDB86E193E05DDBC6
:1017400081E693E091DB31DD4AE007DB8EEF92E04A
:1017500054DB8AE392E051DB80E250DB8CE493E0DF
:101760004CDB84E193E049DB86E490E052DB86E1E8
:1017700093E043DB81E793E040DB87E193E03DDBEF
:10178000609105047091060480910704909108040B
:101790004AE0E3DA81E893E0CFDA07DD60930504FD
:1017A00070930604809307049093080480910404C6
:1017B000811107C061E08DE01BDC81E080930404AF
:1017C00005C060E08DE014DC1092040486EA94E029
:1017D0000E9477020E94390260CF8091C7049091E5
:1017E000C804009709F07AD18091C50487FD02C032
:1017F00060E07ACC089510920C0410920B0488EEED
:1018000093E0A0E0B0E080930D0490930E04A093C9
:101810000F04B093100488EC92E090930A04809334
:10182000090485EC90E0909316048093150484ECF1
:1018300090E0909318048093170480EC90E09093CC
:101840001A048093190481EC90E090931C04809317
:101850001B0482EC90E090931E0480931D0486ECA0
:1018600090E09093200480931F0410922204109221
:10187000230410922404109225041092C0041092A4
:10188000C6041092CD041092CE041092CF04109290
:10189000D0041092CC041092C90481E08093CA0451
:1018A00092E09093CB048093BF0486E990E09093FC
:1018B000C4048093C3047DD09093C8048093C7046C
:1018C000009761F026E9FC0111922A95E9F782E37D
:1018D00090E09093C2048093C10408C01092C404A5
:1018E0001092C3041092C2041092C1048EE180933E
:1018F000C5048091C004882331F061E08EE1F4DBFF
:1019000060E08EE175DBE6EEF1E0E491F0E0EE0FF1
:10191000FF1FE255FE4F859194919093D2048093DE
:10192000D104E6E8F1E0E491E093D3048AEF92E099
:101930009093B3048093B2041092A8041092A90467
:101940001092AA041092AB0486EE92E09093A70442
:101950008093A6041092B1041092B0040895A1E2FD
:101960001A2EAA1BBB1BFD010DC0AA1FBB1FEE1F19
:10197000FF1FA217B307E407F50720F0A21BB30B64
:10198000E40BF50B661F771F881F991F1A9469F7E0
:1019900060957095809590959B01AC01BD01CF013C
:1019A0000895EE0FFF1F881F8BBF0790F691E02D63
:1019B0001994CF93DF938230910510F482E090E088
:1019C000E091DF04F091E00420E030E0C0E0D0E0FE
:1019D000309711F14081518148175907C0F04817DD
:1019E000590761F482819381209719F09B838A8340
:1019F0002BC09093E0048093DF0426C021153105AD
:101A000019F04217530718F49A01BE01DF01EF01E4
:101A10000280F381E02DDCCF2115310509F1281B6F
:101A2000390B2430310590F412968D919C911397C7
:101A30006115710521F0FB019383828304C09093AB
:101A4000E0048093DF04FD01329644C0FD01E20F03
:101A5000F31F81939193225031092D933C933AC007
:101A60002091DD043091DE04232B41F42091020209
:101A7000309103023093DE042093DD0420910002B4
:101A8000309101022115310541F42DB73EB7409147
:101A9000040250910502241B350BE091DD04F09106
:101AA000DE04E217F307A0F42E1B3F0B28173907BB
:101AB00078F0AC014E5F5F4F2417350748F04E0FAA
:101AC0005F1F5093DE044093DD048193919302C025
:101AD000E0E0F0E0CF01DF91CF9108950F931F93E5
:101AE000CF93DF93009709F48CC0FC0132971382E7
:101AF00012820091DF041091E0040115110581F4B8
:101B000020813181820F931F2091DD043091DE040A
:101B10002817390779F5F093DE04E093DD0471C0EE
:101B2000D80140E050E0AE17BF0750F412962D9157
:101B30003C911397AD012115310509F1D901F3CF7E
:101B40009D01DA013383228360817181860F971FA3
:101B50008217930769F4EC0128813981260F371F1A
:101B60002E5F3F4F318320838A819B8193838283C1
:101B7000452B29F4F093E004E093DF0442C0139670
:101B8000FC93EE931297ED01499159919E01240F18
:101B9000351FE217F30771F480819181840F951F3F
:101BA000029611969C938E938281938113969C93B7
:101BB0008E931297E0E0F0E0D80112968D919C91FF
:101BC0001397009719F0F8018C01F6CF8D919C9135
:101BD00098012E5F3F4F820F931F2091DD043091BB
:101BE000DE042817390769F4309729F41092E004CD
:101BF0001092DF0402C0138212821093DE0400935D
:101C0000DD04DF91CF911F910F91089581E090E065
:101C1000F89400C011E0C8E0D1E000E005C0802FDA
:101C2000FE01BFDE2196011DC930D10780E0080703
:061C3000B1F7F894FFCFAC
:101C36000000E1048000766F696420546965466996
:101C460067687465723A3A73657455702875696E7B
:101C560074385F742C2041646166727569745F4ED6
:101C6600656F506978656C2A2900766F6964206C07
:101C76006F6F702829007669727475616C20766FB3
:101C86006964205469654669676874657245787049
:101C96006C6F64653A3A7374617274536365656E0A
:101CA600282900766F6964205469654669676874F7
:101CB60065724578706C6F64653A3A646F46616424
:101CC60065546F426C61636B282900766F696420E6
:101CD600546965466967687465724578706C6F64A7
:101CE600653A3A646F496E697469616C466C6173F2
:101CF6006828290000000000D2013A016B01180291
:101D06009C017A018E0100000000000000006501C0
:101D160065010000000040067302770243050000DB
:101D260000003F067102000000003E0675023A5BA5
:101D360020002E2E5C546965466967687465722EAC
:101D4600637070003A005D202000506F7374206944
:101D56006E697420696E6E6572206C69676874209E
:101D660069647300706F737420696E6974206F758F
:101D76007465724C69676874696473002E2E5C44DE
:101D86006561746853746172323031382E696E6FD2
:101D9600004B656570416C6976652066697265649D
:101DA600006B656570416C6976652076616C75655A
:101DB600000D0A002E2E5C546965466967687465D5
:101DC600724578706C6F64652E6370700054696537
:101DD600466967687465724578706C6F64653A3AEF
:101DE6007374617274536365656E2829005469655E
:101DF600466967687465724578706C6F64653A3ACF
:101E0600646F496E697469616C466C6173682829F0
:101E160000546965466967687465724578706C6FC9
:101E260064653A3A20736365656E20697320646F52
:041E36006E650000D5
:00000001FF
