:100000003DC100006CC100006AC1000068C1000071
:1000100066C1000064C1000062C1000060C1000050
:100020005EC100005CC100005AC1000058C1000060
:1000300056C1000054C1000052C1000050C1000070
:100040004EC100004CC100004AC1000048C1000080
:1000500046C1000044C1000042C100000C9481145C
:100060003EC100000C941E110C94F51038C1000024
:1000700036C1000034C1000032C1000030C10000B0
:100080002EC100002CC100002AC1000028C10000C0
:1000900026C1000024C1000022C1000020C10000D0
:1000A0001EC100001CC100001AC1000018C10000E0
:1000B00016C1000014C1000012C1000010C10000F0
:1000C0000EC100000CC100000AC1000008C1000000
:1000D00006C1000004C1000002C1000000C1000010
:1000E000FEC000001605A50537068206B8060707FC
:1000F00038074408470836083A0840087E084B0885
:100100004F08550859085D08630867086B087E08A2
:100110007108750879088D0B920B970BA10BAB0B2F
:10012000240CB50BBD0BC50BCF0BD90BE30BF20B9E
:10013000FC0B240C060C100C1A0C05A84CCDB2D4E8
:100140004EB93836A9020C50B9918688083CA6AA47
:10015000AA2ABE000000803F0000210024002700E2
:100160002A002D00300033000101000004010701C6
:100170000A0100002200250028002B002E0031007B
:10018000340002010000050108010B0100002000FD
:100190002300260029002C002F003200000100005F
:1001A00003010601090105050505070508080808FA
:1001B000020202020A0A08080404040401010101FF
:1001C00001010101030303030303030304070707FA
:1001D0000C0C0C0C0C0C0C0C02020202060606069F
:1001E000060606060B0B0B0B0B0B0B0B010210206C
:1001F000200808102040102040800201020108045D
:1002000002010102040810204080804020100804F0
:100210000201800402018040201008040201080449
:10022000020101020408102040800102040810208D
:10023000408000000A0B02090C0D0E0807030401A0
:1002400000000000000000000000000000000000AE
:10025000000000000000000000000000000012117B
:10026000100000000000000000000000000000007E
:100270000000000000000000CB14BF1511241FBEB9
:10028000CFEFD1E2DEBFCDBF00E00CBF15E0A0E0B4
:10029000B2E0E2EBFEE300E00BBF02C007900D927C
:1002A000AE3CB107D9F727E0AEECB5E001C01D9236
:1002B000A93FB207E1F711E0CDE3D1E000E006C0CD
:1002C00021970109802FFE010E942F1FCC33D107F7
:1002D00080E00807A9F70E94C8150C94481F90CE2B
:1002E0000C94731B0C94731B0C94731B0C94731B56
:1002F0000C94731B0C94731BCF93DF93EC010E943F
:10030000751491D78BE294E057D78AE092E054D7E6
:1003100080E253D78FE294E04FD787E494E04CD744
:100320008BE290E055D789E494E046D78DE494E0E1
:1003300037D70E947514688B798B8A8B9B8BE985E4
:10034000FA8515821F861E861D861A821B821C82D4
:100350001D820E94751467D78BE294E02DD78AE046
:1003600092E02AD780E229D78FE294E025D787E46C
:1003700094E022D783E390E02BD789E494E01CD764
:100380008DE494E0DF91CF910BC7CF92DF92EF9293
:10039000FF920F931F93CF93DF938C016A017B0130
:1003A000C0E0D0E0A7019601BE01F80182819381EF
:1003B0000E947A122196CE35D105A1F7F8018281EB
:1003C0009381DF91CF911F910F91FF90EF90DF907C
:1003D000CF900C94E612CF93DF93EC0140E850E805
:1003E0006FEF70E089859A850E94860E40E850E89C
:1003F0006FEF70E08B859C85C8DF6CEB72E080E06E
:1004000090E00E942D0C40E050E0BA0189859A8569
:100410000E94860E40E050E0BA018B859C85B5DFD6
:1004200064EF71E080E090E0DF91CF910C942D0CAF
:10043000CF93DF93EC0140E850E86FEF70E08985DF
:100440009A850E94860E40E850E86FEF70E08B8539
:100450009C859BDF6CE271E080E090E00E942D0CB7
:1004600040E050E0BA0189859A850E94860E40E0FE
:1004700050E0BA018B859C8588DF64EF71E080E0F5
:1004800090E0DF91CF910C942D0C8F929F92AF92C0
:10049000BF92CF92DF92EF92FF920F931F93CF9371
:1004A000DF93EC018A809B80AC80BD800E94751434
:1004B000681579058A059B0508F4B6C08D849E846D
:1004C00081E08816910409F44BC082E088169104FB
:1004D00009F466C0892809F0A7C0CE017CDFCE01EF
:1004E000A7DFCE0178DFCE01A3DF64EF71E080E00B
:1004F00090E00E942D0CCE019BDFCE016CDFCE017F
:1005000097DFCE0195DF64EF71E080E090E00E941C
:100510002D0CCE018DDFCE015EDF64EF71E080E057
:1005200090E00E942D0CCE0183DFCE0154DFCE017E
:100530007FDF64EF71E080E090E00E942D0CCE013F
:1005400077DF64EF71E080E090E00E942D0C68EEB0
:1005500073E080E090E00E942D0C81E090E01DC0EF
:100560004FEF50E060E070E089859A850E94860E2A
:100570004FEF50E060E070E08B859C8506DF0E94C5
:100580007514DC01CB018C509E4FAF4FBF4F8A8357
:100590009B83AC83BD8382E090E09E878D8744C0BF
:1005A000AA24AA94BA2CCA2CD12CE12CF12C8701B4
:1005B0002CEE3FEF4CEE5FEF66EF7FEF89859A857B
:1005C0000E94AA0E9C8B8B8BE985FA858281938190
:1005D0000E94E6122CEE3FEF41EF5FEF64EF7FEFFA
:1005E0008B859C8522D62B893C89820F931F9C8BFF
:1005F0008B8BEB85FC85828193810E94E6128B892F
:100600009C891816190674F40E947514DC01CB013C
:100610008896A11DB11D8A839B83AC83BD839E8672
:100620008D8602C081E08887DF91CF911F910F9165
:10063000FF90EF90DF90CF90BF90AF909F908F9002
:100640000895CF93DF93EC010E947514ECD58BE2F3
:1006500094E0B2D581EF92E0AFD580E2AED58CE6E2
:1006600094E0AAD587E494E0A7D58AE290E0B0D5DB
:1006700089E494E0A1D58FE594E092D51A821B829B
:100680001C821D8240E050E0BA0189859A850E9453
:10069000860E40E050E0BA018B859C8576DE0E9494
:1006A00075146F87788B898B9A8B1E861D861886AA
:1006B000DF91CF910895CF93DF93EC010E947514E1
:1006C000B2D58BE294E078D584EC92E075D580E2E7
:1006D00074D58DE794E070D587E494E06DD587E21A
:1006E00090E076D589E494E067D586E994E058D522
:1006F0001A821B821C821D821E861D8640E050E0ED
:10070000BA0189859A850E94860E40E050E0BA01C0
:100710008B859C853ADE0E9475146F87788B898B58
:100720009A8B6F8B788F898F9A8F6B8B7C8B8D8B4D
:100730009E8BDF91CF9108954F925F926F927F923F
:100740008F929F92AF92BF92CF92DF92EF92FF92E1
:100750000F931F93CF93DF93EC01CA80DB80EC8073
:10076000FD800E9475146C157D058E059F0508F4AB
:1007700029C18D859E85892B09F024C140EFA42EC7
:10078000BA2CCA2CD12CE12C18E0F12E00E010E09C
:1007900026EF3FEF49EF5FEF66EF7FEF89859A85A0
:1007A0000E94AA0EE985FA8584818F5F883110F452
:1007B000848301C01482648170E020E230E240E270
:1007C00050E0828193810E947A12E985FA858281C4
:1007D00093810E94E6120E9475142091D9073091EE
:1007E000DA0747E0429F6001439FD00C11240D2C93
:1007F000000CEE08FF08DC01CB018C199D09AE0945
:10080000BF09C296A11DB11D8A839B83AC83BD83A2
:1008100085E0829F2001839F500C11240E94751453
:10082000CF88D88CE98CFA8CC616D706E806F9066C
:10083000C0F4E12CF12C8701B201609570959B0109
:10084000AB018B859C85F1D40E947514DC01CB0132
:10085000C296A11DB11D8F8B988FA98FBA8F11E001
:1008600001C010E00E947514CB88DC88ED88FE88FA
:10087000C616D706E806F90608F08CC092012E5C71
:100880003F4F032E000C440B550B6AE070E080E0F4
:1008900090E00E94AE0F4B015C018EE1480E511CAE
:1008A000052C000C66087708A301920160E070E057
:1008B000CB010E94AE0F6B017C01A301920160E0AD
:1008C00070E0CB010E94AE0FCB01770FAA0BBB0BE0
:1008D000BA2FA92F982F88270D2C000CEE08FF089F
:1008E000C82AD92AEA2AFB2AFE2CED2CDC2CCC249F
:1008F000092C000CAA08BB08C828D928EA28FB281C
:10090000B701A6018B859C8507D58091D907909169
:10091000DA07181619062CF4B701A6018B859C85F9
:10092000FBD48091D9079091DA0702972CF0B70198
:10093000A6018B859C85F0D48091D9079091DA0728
:1009400003972CF0B701A6018B859C85E5D4809197
:10095000D9079091DA0704972CF0B701A6018B858F
:100960009C85DAD48091D9079091DA0705972CF00D
:10097000B701A6018B859C85CFD40E947514DC013C
:10098000CB01885E9E4FAF4FBF4F8B8B9C8BAD8B47
:10099000BE8B02C01123B1F0EB85FC85828193816F
:1009A000DF91CF911F910F91FF90EF90DF90CF904B
:1009B000BF90AF909F908F907F906F905F904F907F
:1009C0000C94E612DF91CF911F910F91FF90EF9061
:1009D000DF90CF90BF90AF909F908F907F906F905F
:1009E0005F904F900895AF92BF92CF92DF92EF92B7
:1009F000FF920F931F93CF93DF93EC01CA80DB80AC
:100A0000EC80FD800E9475146C157D058E059F0598
:100A100008F470C2ED85FE85E730F10508F06AC282
:100A20008827EE58FF4F8F4F0C942F1F0E9475148C
:100A3000088919892A893B89601B710B820B930BEA
:100A40000E94BB1D2BED3FE049E450E40E94491E8B
:100A500020E030E04AE754E40E94221D9B01AC01F3
:100A60000E94BE1C0E94AC1E20E030E040E85FE324
:100A70000E94BE1C20E030E040EA52E40E94491E81
:100A80002DEC3CEC4CE45FE30E94491E20E030E09A
:100A900040E252E40E94BE1C0E948A1DAB01770F07
:100AA000660B770BBA015527442789859A850E94E2
:100AB000860E0E947514DC01CB01C296A11DB11DEA
:100AC0008A839B83AC83BD83C888D988EA88FB88E6
:100AD00080EDC80E87E0D81EE11CF11C0E94751441
:100AE000C616D706E806F90608F004C20E94751477
:100AF000688B798B8A8B9B8B1F8681E090E09E8729
:100B00008D870E9475148FD38BE294E055D38FE9C3
:100B100092E052D380E251D38FE294E04DD387E448
:100B200094E04AD387E990E053D389E494E044D336
:100B300086EB94E0DF91CF911F910F91FF90EF90A2
:100B4000DF90CF90BF90AF902BC30E94751408899F
:100B500019892A893B89601B710B820B930B0E94B8
:100B6000BB1D2BED3FE049E450E40E94491E20E00C
:100B700030E04AE754E40E94221D9B01AC010E9430
:100B8000BE1C0E94AC1E20E030E040E85FE30E9403
:100B9000BE1C20E030E040EA52E40E94491E2DECE9
:100BA0003CEC4CE45FE30E94491E20E030E040E270
:100BB00052E40E94BE1C0E948A1D6B01770FEE0852
:100BC000FF087601DD24CC24B701A60189859A852A
:100BD0000E94860E0E947514088919892A893B890A
:100BE000601B710B820B930B24E630E040E050E079
:100BF0000E948C1C2F8700E010E08F8590E0EB8531
:100C0000FC850817190754F4A7019601B8018281E1
:100C100093810E947A120F5F1F4FEFCF82819381E1
:100C20000E94E6128F858E3510F08DE58F870E9429
:100C30007514DC01CB01C296A11DB11D8A839B8373
:100C4000AC83BD83C888D988EA88FB8880E1C80E58
:100C500087E2D81EE11CF11C0E947514C616D70647
:100C6000E806F90608F046C182E090E038C1AA24FF
:100C7000AA94BA2CCA2CD12CE12CF12C00E210E061
:100C800021EF3FEF41EF5FEF6BEF7FEF89859A85B3
:100C90000E94AA0ED82EE985FA85828193810E944E
:100CA000E612E12CF12C08E010E021EF3FEF41EFDC
:100CB0005FEF6BEF7FEF8B859C85B7D2182FEB85AD
:100CC000FC85828193810E94E6120E947514DC01EA
:100CD000CB01C296A11DB11D8A839B83AC83BD83CA
:100CE0001D0D09F007C10E947514DC01CB01845D64
:100CF0009E4FAF4FBF4F8A839B83AC83BD8383E0FE
:100D000090E0EDC00E9475148ED28BE294E054D234
:100D10008DE792E051D280E250D28FE294E04CD243
:100D200087E494E049D284EC90E052D289E494E0E4
:100D300043D28EEC94E034D24FEF5FEF6FEF70E070
:100D400089859A85E3D740E85FEF6FEF70E08B8588
:100D50009C851BDB0E947514DC01CB014E96A11D06
:100D6000B11D8A839B83AC83BD8384E090E0B7C0D0
:100D70000E94751458D28BE294E01ED288E592E06E
:100D80001BD280E21AD28FE294E016D287E494E07C
:100D900013D28DEC90E01CD289E494E00DD285ED65
:100DA00094E0FED10E9475143ED28BE294E004D20E
:100DB00088E592E001D280E200D28FE294E0FCD19B
:100DC00087E494E0F9D18EEC90E002D289E494E0DB
:100DD000F3D18EEC94E0E4D140E050E0BA01898593
:100DE0009A8594D740E050E0BA018B859C85CDDA96
:100DF0000E947514DC01CB0180579E4FAF4FBF4F4F
:100E00008A839B83AC83BD8385E090E068C00E94A9
:100E1000751409D28BE294E0CFD186E392E0CCD175
:100E200080E2CBD18FE294E0C7D187E494E0C4D1D3
:100E300088ED90E0CDD189E494E0BED180EE94E0DD
:100E4000AFD14FEF5FEF6FEF70E089859A855ED786
:100E500040E85FEF6FEF70E08B859C8596DA0E942B
:100E60007514DC01CB0184549D4FAF4FBF4F31C08F
:100E7000AA24AA94BA2CCA2CD12CE12CF12C8701DB
:100E80002CEE3FEF4CEE5FEF66EF7FEF89859A85A2
:100E900061D7D82EE985FA85828193810E94E61276
:100EA0002CEE3FEF41EF5FEF64EF7FEF8B859C858A
:100EB000BCD1182FEB85FC85828193810E94E612BC
:100EC0001D0D81F00E947514DC01CB018896A11DD7
:100ED000B11D8A839B83AC83BD8386E090E09E87AF
:100EE0008D8708C080E09CE5A6E2B5E08A839B83FD
:100EF000AC83BD83DF91CF911F910F91FF90EF9055
:100F0000DF90CF90BF90AF900895FC0180894BD3C4
:100F100021E0892B09F420E0822F08950895089597
:100F20002F923F924F925F926F927F928F929F92F9
:100F3000AF92BF92CF92DF92EF92FF920F931F93E7
:100F4000CF93DF93CDB7DEB72A970FB6F894DEBF05
:100F50000FBECDBF5A874987412E522E632E77246C
:100F60004D825E826F827886160133244D2C5E2C72
:100F70006F2C7724F201FF27AE2DB0E0A401552796
:100F80005A834983FF24EB2CDA2CC92CDD24EA2C6C
:100F9000F12C820F911D8A179B070CF4CD014D8017
:100FA0005E805524460E571E4E165F060CF42F0128
:100FB000112769847A84060D171D021513050CF498
:100FC0008101C414D5040CF42601052C000C66081C
:100FD0007708762C652C542C442429813A812017DB
:100FE00031070CF48901012E000C220B330B402A2F
:100FF000512A622A732AE816F9060CF4C701092E51
:10100000000CAA0BBB0BDC0199278827BC01CD0182
:1010100064297529862997292A960FB6F894DEBF88
:101020000FBECDBFDF91CF911F910F91FF90EF9039
:10103000DF90CF90BF90AF909F908F907F906F90F8
:101040005F904F903F902F900895089508950895D0
:10105000089590E0FC013197E231F10508F04EC0AF
:101060008827E758FF4F8F4F0C942F1F80918000E7
:101070008F7703C0809180008F7D809380000895DA
:1010800080918000877FF9CF84B58F7702C084B5C7
:101090008F7D84BD08958091B0008F7703C08091CB
:1010A000B0008F7D8093B0000895809190008F777D
:1010B00007C0809190008F7D03C080919000877F52
:1010C0008093900008958091A0008F7707C0809151
:1010D000A0008F7D03C08091A000877F8093A00037
:1010E0000895809120018F7707C0809120018F7D26
:1010F00003C080912001877F80932001089500978D
:1011000061F0FC0101900020E9F73197AF01481B25
:10111000590BBC018EEC95E0F4C680E090E0089598
:101120008F929F92AF92BF920F931F93CF93DF93B3
:10113000CDB7DEB7A1970FB6F894DEBF0FBECDBF17
:1011400019A2423008F44AE08E010F5D1F4F842E31
:10115000912CA12CB12CA50194010E948C1CE62F8E
:10116000B901CA0101501109EA3014F4E05D01C06F
:10117000E95CD801EC93232B242B252B61F7C801C4
:10118000BEDFA1960FB6F894DEBF0FBECDBFDF91D4
:10119000CF911F910F91BF90AF909F908F90089526
:1011A000CF93DF93ACDFEC0187EE94E0A8DF8C0FE8
:1011B0009D1FDF91CF910895A2CFE091CE05F091D0
:1011C000CF050190F081E02D682F8EEC95E0199409
:1011D000CF92DF92EF92FF92CF93DF936C01990F42
:1011E000EE08FF08F7FE15C08DE2E7DFEC01662789
:1011F0007727CB016C197D098E099F094AE090DFA2
:101200008C0F9D1FDF91CF91FF90EF90DF90CF90DB
:1012100008954AE0C701B601DF91CF91FF90EF90AA
:10122000DF90CF907DCF4AE07BCF2F923F924F92BD
:101230005F926F927F928F929F92AF92BF92CF9266
:10124000DF92EF92FF920F931F93CF93DF93CDB76F
:10125000DEB72C970FB6F894DEBF0FBECDBF3C01B2
:101260007A8369835C834B833E832D83EF82F88688
:1012700009871A871C861B866B857C85F301828112
:1012800093810E9454111B012C0188248A94982C6C
:10129000A82CB12CCF80D884E984FA8492018101F2
:1012A0004D815E816B817C8189819A8139DE6B0100
:1012B0007C019B01AC016B857C85F301828193816C
:1012C0000E947A128B859C8501969C878B878E3530
:1012D000910591F681E090E02C143D044E045F04EA
:1012E00011F480E090E02C960FB6F894DEBF0FBEAC
:1012F000CDBFDF91CF911F910F91FF90EF90DF90C5
:10130000CF90BF90AF909F908F907F906F905F90A5
:101310004F903F902F900895CF92DF92EF92FF92DF
:10132000CF93DF93EC016A017B012DE530E040E0D3
:1013300050E060E070E0CB0111D6A70196018A81F0
:101340009B81DF91CF91FF90EF90DF90CF900C9435
:101350007A122F923F924F925F926F927F928F926A
:101360009F92AF92BF92CF92DF92EF92FF920F9334
:101370001F93CF93DF93CDB7DEB72D970FB6F894B9
:10138000DEBF0FBECDBF1C017F836E8359874887A8
:101390003B872A879C012E5F3F4F3D872C8707960E
:1013A0009D838C831982EC85FD85FB83EA836081B4
:1013B00070E0F1018585968577D72B013C01882463
:1013C0008A94982CA82CB12CC12CD12C7601930195
:1013D00082014A855B85688579858E819F81A0DD44
:1013E0009B01AC01461657066806790611F0F1E03C
:1013F000F9838C859D8501969D878C87EA81FB8189
:101400008081682F70E0F101858596850E947A12AF
:101410002C853D858C819D812817390721F689818E
:101420002D960FB6F894DEBF0FBECDBFDF91CF91E2
:101430001F910F91FF90EF90DF90CF90BF90AF90F2
:101440009F908F907F906F905F904F903F902F90E4
:1014500008952F923F924F925F926F927F928F9258
:101460009F92AF92BF92CF92DF92EF92FF920F9333
:101470001F93CF93DF93CDB7DEB72B970FB6F894BA
:10148000DEBF0FBECDBF1C017F836E8359874887A7
:101490009C01295F3F4F3B872A870C969D838C8355
:1014A0001982EA85FB85FB83EA83608170E0F101A4
:1014B00085859685F9D62B013C0188248A94982C41
:1014C000A82CB12CC12CD12C760193018201488526
:1014D00059856E817F8181EF9FEF22DD9B01AC01F9
:1014E000461657066806790611F0F1E0F9838A85F9
:1014F0009B8501969B878A87EA81FB818081682F83
:1015000070E0F10185859685F5D72A853B858C812C
:101510009D812817390729F689812B960FB6F894F3
:10152000DEBF0FBECDBFDF91CF911F910F91FF9016
:10153000EF90DF90CF90BF90AF909F908F907F9073
:101540006F905F904F903F902F900895CF92DF92D1
:10155000EF92FF92CF93DF936C01990FEE08FF0893
:10156000F7FE10C08DE229DEEC0166277727CB015C
:101570006C197D098E099F094AE0D2DD7C01EC0ED1
:10158000FD1E05C04AE0C701B601CADD7C0187EE39
:1015900094E0B5DD8E0D9F1DDF91CF91FF90EF9010
:1015A000DF90CF900895CF93DF93282F30E0F9019B
:1015B000EE5CFD4F8491F901E451FE4FD491F901A5
:1015C000EA55FE4FC491CC2389F0811142DDEC2F06
:1015D000F0E0EE0FFF1FE457FE4FA591B491EC91A0
:1015E000ED2381E090E021F480E002C080E090E013
:1015F000DF91CF9108951F93CF93DF93282F30E091
:10160000F901EE5CFD4F8491F901E451FE4FD49154
:10161000F901EA55FE4FC491CC23C1F0162F811178
:1016200018DDEC2FF0E0EE0FFF1FEE58FE4FA591F6
:10163000B4918FB7F894111105C09C91ED2FE095EE
:10164000E92302C0EC91ED2BEC938FBFDF91CF919A
:101650001F910895CF93DF9390E0FC01E451FE4F7A
:101660002491FC01EA55FE4F8491882361F190E0BA
:10167000880F991FFC01E85AFE4FC591D491FC01D7
:10168000EE58FE4FA591B491611109C09FB7F8942F
:101690008881209582238883EC912E230BC06230B1
:1016A00061F49FB7F8943881822F809583238883D3
:1016B000EC912E2B2C939FBF06C08FB7F894E88136
:1016C0002E2B28838FBFDF91CF9108951F93CF9347
:1016D000DF93182FEB0161E0BDDF209711F460E08C
:1016E00004C0CF3FD10531F461E0812FDF91CF916C
:1016F0001F9181CFE12FF0E0EE5CFD4FE4914E2F82
:1017000050E0FA013197E231F10508F09DC08827D9
:10171000E557FF4F8F4F0C942F1F84B5806884BD11
:10172000C7BD97C084B5806284BDC8BD92C080919A
:101730008000806880938000D0938900C0938800E7
:1017400088C080918000806280938000D0938B005D
:10175000C0938A007EC08091800088608093800062
:10176000D0938D00C0938C0074C08091B0008068CD
:101770008093B000C093B3006CC08091B0008062D1
:101780008093B000C093B40064C0809190008068E2
:1017900080939000D0939900C09398005AC0809194
:1017A0009000806280939000D0939B00C0939A0039
:1017B00050C080919000886080939000D0939D00ED
:1017C000C0939C0046C08091A00080688093A000D8
:1017D0008091A0008F7B8093A000D093A900C0933C
:1017E000A80037C08091A00080628093A000D093B1
:1017F000AB00C093AA002DC08091A00088608093A8
:10180000A000D093AD00C093AC0023C08091200114
:10181000806880932001D0932901C093280119C0CA
:1018200080912001806280932001D0932B01C0938E
:101830002A010FC080912001886080932001D093FD
:101840002D01C0932C0105C0C038D1050CF04CCF40
:1018500046CFDF91CF911F9108958F929F92AF92C3
:10186000BF92CF92DF92EF92FF926B017C010E94B8
:1018700050144B015C01C114D104E104F104F1F0F6
:101880000E945014DC01CB0188199909AA09BB09EF
:10189000883E9340A105B10570F321E0C21AD1083A
:1018A000E108F10888EE880E83E0981EA11CB11CA7
:1018B000C114D104E104F10419F7DDCFFF90EF90DA
:1018C000DF90CF90BF90AF909F908F9008950C9431
:1018D000731B0C94731B0C94731B8F929F92AF928B
:1018E000BF92CF92DF92EF92FF920F931F93CF930D
:1018F000DF93EC01CA80DB80EC80FD80F6D76C15AD
:101900007D058E059F0508F48BC08B859C858130F5
:10191000910509F449C0BCF5892B09F081C00E94EA
:10192000541C25E030E040E050E00E94601C4B0178
:101930005C012FEF821A920AA20AB20AE985FA859F
:10194000048510E001501109D0D76B017C0120E91A
:1019500031E0D8010E94371FC60ED71EE81EF91EBF
:10196000A0EDB7E0A50194010E947C1CDC01CB0135
:101970008C0D9D1DAE1DBF1D8A839B83AC83BD83D3
:1019800081E090E029C08230910549F1039709F088
:1019900047C0ABD7DC01CB01945AA94DBA4F8A831B
:1019A0009B83AC83BD833CC060E080E024DE9DD798
:1019B000DC01CB0188519C4FAF4FBF4F8A839B8383
:1019C000AC83BD838FEF8D87E985FA856FEF70E07B
:1019D00087857CDE82E090E09C878B8721C060E079
:1019E00080E009DE82D7DC01CB018896A11DB11D04
:1019F0008A839B83AC83BD836D856E516D8770E058
:101A0000E985FA85878562DE8D85893248F41D86F1
:101A1000E985FA8560E070E0878558DE1C861B86C4
:101A2000DF91CF911F910F91FF90EF90DF90CF90BA
:101A3000BF90AF909F908F900895CF92DF92EF92DA
:101A4000FF920F931F93CF93DF93EC014ED7EBDB05
:101A50008BE294E0B1DB80EF93E0AEDB80E2ADDBC4
:101A60008AEE94E0A9DB87E494E0A6DB88E290E0CC
:101A7000AFDB89E494E0A0DB85E095E091DBE984CD
:101A8000FA8487010E5F1F4F670187E0C80ED11CE3
:101A9000F80161918F0170E020E030E0A901F701C9
:101AA0008585968527D50C151D0591F7E984FA845F
:101AB0008701095F1F4F6701FCE0CF0ED11CF801C1
:101AC00061918F0170E020E030E0A901F701858588
:101AD000968510D50C151D0591F7E985FA85858544
:101AE000968574D51C861B861A821B821C821D82D9
:101AF000E985FA8581E0818BDF91CF911F910F916C
:101B0000FF90EF90DF90CF900895CF93DF93EC019B
:101B10001C861B861A821B821C821D82E6D683DBF2
:101B20008BE294E049DB80E993E046DB80E245DB31
:101B300087E295E041DB87E494E03EDB88E290E0D9
:101B400047DB89E494E038DB80E495E029DB61E061
:101B500081E051DDE985FA85118A60E070E08785D2
:101B6000DF91CF91B3CDCF92DF92EF92FF920F939F
:101B70001F93CF93DF93EC01CA80DB80EC80FD8064
:101B8000B4D66C157D058E059F0508F4B3C08B8512
:101B90009C858130910509F448C08230910509F493
:101BA0007CC0892B09F0A6C0E984FA8487010E5F06
:101BB0001F4F670187E0C80ED11CF80161918F01AA
:101BC00070E02FEF3FEF4FEF50E0F70185859685EE
:101BD00091D40C151D0589F7E984FA848701095F02
:101BE0001F4F6701FCE0CF0ED11CF80161918F01FE
:101BF00070E020EF30EF4FEF50E0F70185859685DC
:101C000079D40C151D0589F7E985FA8585859685B2
:101C1000DDD482E090E09C878B8767D6DC01CB0126
:101C20008C509E4FAF4FBF4F61C021EF3FEF41EF50
:101C30005FEF6FEF7FEF89859A858BDB082F47EE8B
:101C40005FEF67EE7FEF89859A8503DC182FE985C2
:101C5000FA8585859685BAD461E081E0CCDC45D6ED
:101C6000DC01CB010A96A11DB11D8A839B83AC8345
:101C7000BD832E813F81215031093F832E83100F78
:101C800009F038C082E090E09C878B872ED6DC017B
:101C9000CB010596A11DB11D29C02CEE3FEF4CEEE6
:101CA0005FEF66EF7FEF89859A8553DB082F42EE61
:101CB0005FEF62EE7FEF89859A85CBDB182FE98590
:101CC000FA858585968582D410D6DC01CB010596F0
:101CD000A11DB11D8A839B83AC83BD83100F51F47A
:101CE00004D6DC01CB01945AA94DBA4F8A839B8359
:101CF000AC83BD83DF91CF911F910F91FF90EF9047
:101D0000DF90CF900895089508950895CF92DF92BF
:101D1000EF92FF920F931F93CF93DF938C016A0191
:101D20007B01C0E0D0E0A7019601BE01F8018281ED
:101D30009381E0D32196C831D105A9F7F8018281BA
:101D40009381DF91CF911F910F91FF90EF90DF90E2
:101D5000CF903CC42F923F924F925F926F927F92AE
:101D60008F929F92AF92BF92CF92DF92EF92FF92AB
:101D70000F931F93CF93DF93CDB7DEB760970FB666
:101D8000F894DEBF0FBECDBF3C017A8369835C83CC
:101D90004B833E832D83EF82F88609871A87AB86B3
:101DA000BC86CD86DE86188A1F866F857889F3010A
:101DB0008281938179D21B012C018B849C84AD8418
:101DC000BE84CF80D884E984FA848B019C014D8144
:101DD0005E816B817C8189819A81A2D86B017C01B3
:101DE0009B01AC016F857889F3018281938182D355
:101DF0008F8598890196988B8F874897B1F681E0F7
:101E000090E02C143D044E045F0411F480E090E057
:101E100060960FB6F894DEBF0FBECDBFDF91CF91B5
:101E20001F910F91FF90EF90DF90CF90BF90AF90F8
:101E30009F908F907F906F905F904F903F902F90EA
:101E40000895FC017287618750D5EDD98BE294E04B
:101E5000B3D98DEB93E0B0D980E2AFD98AEE94E0AC
:101E6000ABD987E494E0A8D98BE190E0B1D989E4BB
:101E700094E0A2D980E695E093C9CF93DF93EC017B
:101E80008C858330D9F050F4813091F0823009F59F
:101E900083E28F878BE1888B88E21CC0843099F0C5
:101EA0008530B9F486E28F878EE1888B84E112C099
:101EB00082E28F878AE1888B8EE10CC084E28F8773
:101EC0008CE1888B06C085E28F878DE1888B8AE064
:101ED00001C080E0FE0137969E01245F3F4F819351
:101EE000DF01169791E0980F9C938E5FE217F3073E
:101EF000B1F761E08F85AEDB62E08889DF91CF9139
:101F0000A9CBCF92DF92EF92FF920F931F93CF93C3
:101F1000DF936C017A018B01C0E0D0E0CE15DF05C4
:101F200089F0D8016D918D01D601ED91FC91019060
:101F3000F081E02DC6011995892B11F47E0102C0B4
:101F40002196ECCFC701DF91CF911F910F91FF90A8
:101F5000EF90DF90CF9008950E943D1FCF92DF92C7
:101F6000EF92FF920F931F93CF93DF9300D01F92B6
:101F7000CDB7DEB76217730784079507FCF48901B4
:101F80009A016B017C01A9019801261B370B480BB4
:101F9000590B69F029833A834B835C830E94541C5C
:101FA00029813A814B815C810E94601C03C060E002
:101FB00070E0CB016C0D7D1D8E1D9F1D0F900F904D
:101FC0000F900F90DF91CF911F910F91FF90EF90A5
:101FD000DF90CF900895089580E090E00895FC018F
:101FE000538D448D252F30E0842F90E0821B930B7E
:101FF000541710F0CF96089501970895FC01918D24
:10200000828D981761F0828DDF01A80FB11D5D965A
:102010008C91928D9F5F9F73928F90E008958FEFC8
:102020009FEF0895FC01918D828D981731F0828D7C
:10203000E80FF11D858D90E008958FEF9FEF0895D3
:10204000FC01918D228D892F90E0805C9F4F821B37
:1020500091098F73992708958EEC95E0F1DF21E0C7
:10206000892B09F420E0822F0895FC01848DDF0183
:10207000A80FB11DA35ABF4F2C91848D90E00196FB
:102080008F739927848FA689B7892C93A089B189EA
:102090008C9180648C93938D848D981306C00288F4
:1020A000F389E02D80818F7D80830895EF92FF92E8
:1020B0000F931F93CF93DF93EC0181E0888F9B8D6B
:1020C0008C8D981305C0E889F989808185FD23C02E
:1020D000F62E0B8D10E00F5F1F4F0F731127E02EB0
:1020E0008C8DE8120BC00FB607FCFACFE889F9898E
:1020F000808185FFF5CFCE01B8DFF2CF8B8DFE0159
:10210000E80FF11DE35AFF4FF0820B8FEA89FB893C
:102110008081806207C0EE89FF896083E889F98940
:1021200080818064808381E090E0DF91CF911F9176
:102130000F91FF90EF900895CF93DF93EC01888D7E
:102140008823C1F0EA89FB89808185FD05C0A889C3
:10215000B9898C9186FD0EC00FB607FCF5CF808142
:1021600085FFF2CFA889B9898C9185FFEDCFCE018B
:102170007CDFE8CFDF91CF91089580E090E0892B5C
:1021800019F06ADF811125C080E090E0892B41F0D1
:1021900080E090E0892B21F00E94000081111CC09A
:1021A00080E090E0892B41F080E090E0892B21F0E5
:1021B0000E940000811113C080E090E0892BA1F003
:1021C00080E090E0892B81F00E94000081110AC01C
:1021D00008950E940000D8CF0E940000E1CF0E9425
:1021E0000000EACF0C94000008951F920F920FB6E2
:1021F0000F9211240BB60F922F933F934F935F933F
:102200006F937F938F939F93AF93BF93EF93FF93BE
:102210008EEC95E02ADFFF91EF91BF91AF919F91F6
:102220008F917F916F915F914F913F912F910F907F
:102230000BBE0F900FBE0F901F9018951F920F921C
:102240000FB60F9211240BB60F922F938F939F937B
:10225000EF93FF93E091DE05F091DF058081E0913F
:10226000E405F091E50582FD12C090818091E705BB
:102270008F5F8F732091E805821751F0E091E70599
:10228000F0E0E253FA4F958F8093E70501C080811B
:10229000FF91EF919F918F912F910F900BBE0F9017
:1022A0000FBE0F901F9018954F925F926F927F9282
:1022B0008F929F92AF92BF92CF92DF92EF92FF9256
:1022C0000F931F93CF93DF93DC0112968D919C9116
:1022D00013976817790708F0F9C01D968C911D9720
:1022E0001A96EC901A971896ED91FC9119971796FB
:1022F0008C901797482F50E01B961C911B971C96AB
:102300000C91EB018E1164C0CC0FDD1FC60FD71FDF
:10231000CE0FDF1F882009F443C0912CA12CB12CD3
:10232000FE01E40FF51F608170E0762F6627072E0F
:10233000000C880B990BA50194010E948C1C39019B
:1023400055244424FE01E10FF11D608170E0762FD9
:102350006627072E000C880B990BA50194010E949B
:102360008C1CB42FA32F922F882773016201C82AD7
:10237000D92AEA2AFB2AC00FD11D688170E0762F86
:102380006627072E000C880B990BA50194010E946B
:102390008C1CC701B601622B732B842B952B99C023
:1023A000FE01E40FF51F2081FE01E10FF11D6081A8
:1023B000862F90E0A0E0B0E0BA2FA92F982F8827B1
:1023C000A22BC00FD11D2881BC01CD01622B81C081
:1023D000CC0FDD1FCC0FDD1FCE0FDF1FF12C8820AF
:1023E00009F458C0912CA12CB12CFE01E40FF51F6B
:1023F000608170E0762F6627072E000C880B990B02
:10240000A50194010E948C1C722E6624552444243C
:10241000FE01EE0DFF1D608170E0762F6627072E0E
:10242000000C880B990BA50194010E948C1C79016A
:10243000DD24CC24C428D528E628F728FE01E00FA7
:10244000F11D608170E0762F6627072E000C880B47
:10245000990BA50194010E948C1CC22AD32AE42A5C
:10246000F52AC10FD11D688170E0762F6627072EEF
:10247000000C880B990BA50194010E948C1CB42FB1
:10248000A32F922F8827BC01CD016C297D298E298D
:102490009F291FC0FE01E40FF51F2081FE01EE0DF4
:1024A000FF1D6081862F90E0A0E0B0E0DC0199275D
:1024B0008827B22BFE01E00FF11D2081822BC10F76
:1024C000D11D2881BC01CD01722B03C060E070E0FA
:1024D000CB01DF91CF911F910F91FF90EF90DF9093
:1024E000CF90BF90AF909F908F907F906F905F90B4
:1024F0004F9008958F929F92AF92BF92CF92DF92AA
:10250000EF92FF920F931F93CF93DF93FC01828191
:1025100093816817790708F04CC04A01AA24BB24AC
:10252000B82DC32ED42EE52EFF24AC2D922F8781FB
:10253000882361F0889E40011124B92DC89E600156
:102540001124AD2D289FE00111249D2FD584C28533
:10255000E084F184DC1208C09B01220F331F620F5C
:10256000731F6E0D7F1D16C0660F771F660F771FD6
:102570006E0D7F1D052F112722273327EB01CD0D6F
:10258000D11D882329F0089F90011124232F01C019
:10259000202F28838285EB01C80FD11DB883838546
:1025A000EB01C80FD11DA8838485FB01E80FF11D45
:1025B0009083DF91CF911F910F91FF90EF90DF906B
:1025C000CF90BF90AF909F908F900895CF92DF9261
:1025D000EF92FF920F931F93CF93DF93CDB7DEB7A8
:1025E00029970FB6F894DEBF0FBECDBF8C01DC017A
:1025F00018968D919C911997892B09F4A1C050D1FF
:10260000F801C684D784E088F188DC01CB018C19FD
:102610009D09AE09BF098C329140A105B10578F33F
:10262000F894D80114968D919C9115979A8389837B
:102630001896ED91FC9119977F01BFEFEB1AFB0AF9
:1026400080818987F80190810288F389E02DD80183
:1026500054968C91992309F430C09081982B9887D7
:102660009081809589238F838F818C8388E08B83F1
:1026700058856F8149853B812C8189819A81D70159
:10268000508347FD252F3A952083262F39F0441F8C
:1026900000C000006083000000C0F2CF38E04D9120
:1026A00060830000019761F7D8015396FC93EE9385
:1026B000529749873B832C833AC09081982B988707
:1026C0009081809589238F838F818E8388E08D838D
:1026D00058856F8149853D812E8189819A81D701F5
:1026E000508347FD252F00C000C0208300C000C0DC
:1026F00000C000C000C060830000262F3A9541F062
:10270000441F000000C000C000C000C000C0E8CFEF
:1027100038E04D9100C0608300C0019709F7D801EF
:102720005396FC93EE93529749873D832E839A8369
:1027300089837894B5D0F80166877787808B918BF1
:1027400029960FB6F894DEBF0FBECDBFDF91CF91B3
:102750001F910F91FF90EF90DF90CF900895CF934E
:10276000DF93EC018E8187FD07C061E00E942A0B98
:1027700060E08E810E94FB0A81E08983DF91CF9126
:102780000895CF93DF93EC0188859985009709F030
:10279000AAD78E8187FD05C060E0DF91CF910C94B0
:1027A0002A0BDF91CF910895CF92DF92EF92FF92A3
:1027B0001F93CF93DF93EC017B01142F19821F82AB
:1027C0001E861F86188A198AC90146E09695879544
:1027D0004A95E1F7482F43704D87C90154E096951B
:1027E00087955A95E1F783708A87B9017695679541
:1027F0007695679563706B87922F93709C8791E0B5
:102800002F3F310511F008F090E09883481719F038
:1028100084E090E002C083E090E08E9D60018F9D97
:10282000D00C9E9DD00C1124DD82CC82C601C6D670
:1028300099878887009741F0A60160E070E00E94C8
:10284000411FFB82EA8204C01D821C821B821A8205
:102850001E838981882341F061E0812F0E942A0B29
:1028600060E0812F0E94FB0A812F90E0FC01EA5575
:10287000FE4FE491F0E0EE0FFF1FEE58FE4F259162
:1028800034913B8B2A8BFC01E451FE4FE491EC8B9D
:10289000DF91CF911F91FF90EF90DF90CF9008953F
:1028A0003FB7F8948091F1079091F207A091F30758
:1028B000B091F40726B5A89B05C02F3F19F00196EB
:1028C000A11DB11D3FBFBA2FA92F982F8827820FB6
:1028D000911DA11DB11DBC01CD0142E0660F771F06
:1028E000881F991F4A95D1F708952FB7F8946091E2
:1028F000ED077091EE078091EF079091F0072FBFE1
:1029000008951F920F920FB60F9211242F933F93A9
:102910008F939F93AF93BF938091ED079091EE07B4
:10292000A091EF07B091F0073091EC0723E0230F5F
:102930002D3720F40196A11DB11D05C026E8230FF7
:102940000296A11DB11D2093EC078093ED07909393
:10295000EE07A093EF07B093F0078091F1079091F5
:10296000F207A091F307B091F4070196A11DB11DE4
:102970008093F1079093F207A093F307B093F407C5
:10298000BF91AF919F918F913F912F910F900FBE6B
:102990000F901F901895EEECF5E01382128288EEEE
:1029A00093E0A0E0B0E084839583A683B7838AE1B7
:1029B00093E09183808385EC90E09587848784EC15
:1029C00090E09787868780EC90E0918B808B81ECFC
:1029D00090E0938B828B82EC90E0958B848B86ECDD
:1029E00090E0978B868B118E128E138E148E26E0BC
:1029F00030E049E262E370E084EC97E0D5DE26E067
:102A000030E048E26EE570E08FEA97E0CDDE22E547
:102A100030E04AE268E170E08AE997E0C5DE8CE8E0
:102A200093E090938907809388079093770780932A
:102A3000760790936507809364079093530780937C
:102A400052079093410780934007E2E3F7E0128238
:102A5000138214821582108688E793E09183808325
:102A6000E4E2F7E0128213821482158210869183C9
:102A70008083E6E1F7E012821382148215821086C9
:102A800091838083E8E0F7E012821382148215823A
:102A9000108691838083EAEFF6E01282138214821B
:102AA0001582108691838083EDEEF6E01282138208
:102AB00014821582108680E693E0918380831486C9
:102AC0001386E0EEF6E012821382148215821086DD
:102AD0009183808314861386E3EDF6E012821382DD
:102AE0001482158210869183808314861386E6EC07
:102AF000F6E01282138214821582108691838083FD
:102B000014861386E9EBF6E0128213821482158292
:102B100010869183808314861386E4EAF6E012829D
:102B2000138214821582108684E593E0918380835A
:102B30008CE493E090939F0680939E0684E493E058
:102B400090939B0680939A06EFE7F6E01282138239
:102B500014821582108688E393E091838083EBE6EC
:102B6000F6E0128213821482158210868CE293E0C2
:102B70009183808381E090E09687858708958AE934
:102B800097E0FFDD8FEA97E0FCDD84EC97E0F9CD7C
:102B9000789484B5826084BD84B5816084BD85B538
:102BA000826085BD85B5816085BD80916E00816044
:102BB00080936E00109281008091810082608093EA
:102BC00081008091810081608093810080918000EC
:102BD0008160809380008091B10084608093B10017
:102BE0008091B00081608093B000809191008260FC
:102BF00080939100809191008160809391008091F9
:102C000090008160809390008091A1008260809309
:102C1000A1008091A10081608093A1008091A0001B
:102C200081608093A00080912101826080932101C6
:102C30008091210181608093210180912001816038
:102C40008093200180917A00846080937A00809143
:102C50007A00826080937A0080917A00816080930C
:102C60007A0080917A00806880937A001092C10087
:102C7000E091DE05F091DF0502E00083E091DA05E6
:102C8000F091DB051082E091DC05F091DD058FEC21
:102C900080831092E605E091E205F091E30586E07D
:102CA0008083E091E005F091E1058081806180837F
:102CB000E091E005F091E105808188608083E091FA
:102CC000E005F091E105808180688083E091E00576
:102CD000F091E10580818F7D808361E08DE00E942D
:102CE0002A0B84EC97E03BDD84EC97E06FDC8FEA05
:102CF00097E035DD8FEA97E069DC8AE997E02FDD20
:102D00008AE997E063DC11E010939407C4ECD7E004
:102D1000D0939607C093950788E897E0AED80093C4
:102D20008207D0938407C093830786E797E0A5D8EE
:102D300083E080937007D0937207C093710784E695
:102D400097E09BD884E080935E07D0936007C093A0
:102D50005F0782E597E091D885E080934C07D09398
:102D60004E07C0934D0780E497E087D888E897E046
:102D70009093F7068093F60686E797E09093EA062D
:102D80008093E90684E697E09093DD068093DC0665
:102D900082E597E09093D0068093CF0680E497E099
:102DA0009093C3068093C20668E877E082E397E0D9
:102DB00048D866E777E084E297E043D864E677E0B6
:102DC00086E197E03ED862E577E088E097E039D881
:102DD00060E477E08AEF96E034D8CEE9D6E08AE97D
:102DE00097E09093A1068093A0061092A2061093FC
:102DF000A30662E08FE10E942A0B8AE996E02FEA9F
:102E000037E030939D0620939C06D0937506C093BF
:102E10007406909377068093760690938B06809342
:102E20008A06D0938906C09388069093B006809353
:102E3000AF06D093AE06C093AD0682E397E09093C1
:102E4000EB078093EA0784E297E09093E907809389
:102E5000E80786E197E09093E7078093E60788E02C
:102E600097E09093E5078093E4078AEF96E09093CC
:102E7000E3078093E20784EA96E09093E10780936A
:102E8000E007E0913207F09133070480F581E02DEF
:102E900082E397E019958091E8079091E907DC01BA
:102EA000ED91FC910480F581E02D19958091E60764
:102EB0009091E707DC01ED91FC910480F581E02D14
:102EC00019958091E4079091E507DC01ED91FC9163
:102ED0000480F581E02D19958091E2079091E30738
:102EE000DC01ED91FC910480F581E02D1995809134
:102EF000E0079091E107DC01ED91FC910480F58100
:102F0000E02D1995F2DC6093DC077093DD07809368
:102F1000DE079093DF0786E1282E87E0382E98E0C1
:102F2000492E97E0592E2AEF622E26E0722ECDEE22
:102F3000D6E000EE16E033EDE32E36E0F32E46EC5D
:102F4000C42E46E0D42E5BE6A52E56E0B52E6FE7E4
:102F5000862E66E0962E80919907811106C088E83A
:102F600097E00E948507811196C1809187078111A2
:102F700006C086E797E00E9485078111C5C1809150
:102F80007507811106C084E697E00E9485078111CC
:102F9000CBC180916307811106C082E597E00E9452
:102FA00085078111D0C180915107811106C080E44D
:102FB00097E00E9485078111D5C1809199078823E8
:102FC00039F088E897E00E948507882309F4D9C181
:102FD00080918707882339F086E797E00E9485076C
:102FE000882309F407C280917507882339F084E6A5
:102FF00097E00E948507882309F435C28091630712
:10300000882339F082E597E00E948507882309F438
:1030100063C280915107882339F080E497E00E94D1
:103020008507882309F491C28091A3068823E9F1DA
:103030008FE10E94D30A892BC1F557DC0E94130946
:103040008BE294E00E94DC088FE194E00E94DC08AF
:1030500080E20E94DD088DE795E00E94DC0887E4AD
:1030600094E00E94DC0881EE90E00E94E80889E488
:1030700094E00E94DC0882E995E00E94DC088AE482
:1030800094E00E94DC0881EA95E00E94D008B092AA
:10309000E107A092E007E0916B06F0916C060480D6
:1030A000F581E02D8BE696E019951092DA071092E3
:1030B000D90788E897E00E948507811106C081E062
:1030C00090E09093DA078093D90786E797E00E9413
:1030D0008507811109C08091D9079091DA0701967F
:1030E0009093DA078093D90784E697E00E948507DA
:1030F000811109C08091D9079091DA0701969093C8
:10310000DA078093D90782E597E00E94850781114D
:1031100009C08091D9079091DA0701969093DA0758
:103120008093D90780E497E00E948507811109C048
:103130008091D9079091DA0701969093DA078093EE
:10314000D9078091EA079091EB07DC01ED91FC91A2
:103150000680F781E02D19958091E8079091E907A5
:10316000DC01ED91FC910680F781E02D19958091AD
:10317000E6079091E707DC01ED91FC910680F7816D
:10318000E02D19958091E4079091E507DC01ED9120
:10319000FC910680F781E02D19958091E2079091CE
:1031A000E307DC01ED91FC910680F781E02D199594
:1031B0008091E0079091E107DC01ED91FC910680A0
:1031C000F781E02D1995E091E007F091E107808506
:1031D000882321F09092E1078092E00786DB20911E
:1031E000DC073091DD074091DE075091DF07DC01FD
:1031F000CB01821B930BA40BB50B893E9340A10519
:10320000B10508F445C071DB6093DC077093DD07FE
:103210008093DE079093DF078091DB07811132C036
:1032200061E08DE00E94FB0A81E08093DB075DDBBB
:103230000E9413098BE294E00E94DC088FE194E085
:103240000E94DC0880E20E94DD088DE795E00E9484
:10325000DC0887E494E00E94DC0889E091E00E94A9
:10326000E80889E494E00E94DC0886EA95E00E9480
:10327000DC088AE494E00E94DC0881E090E00E948F
:10328000A60A06C060E08DE00E94FB0A1092DB07F0
:103290000E94BD1060CE29DB0E9413098BE294E0EE
:1032A0000E94DC088FE194E00E94DC0880E20E942A
:1032B000DD088DE795E00E94DC0887E494E00E9439
:1032C000DC088BE990E00E94E80889E494E00E9421
:1032D000DC0884EB95E00E94DC088AE494E00E941C
:1032E000DC0881E090E00E94A60A82E397E09093D8
:1032F000EB078093EA07E0913207F09133070480EF
:10330000F581E02D199531CEA4E2B7E0B093E9073D
:10331000A093E807E0912407F09125070480F58148
:10332000E02DCD0119952BCE3092E7072092E607CC
:10333000E0911607F09117070480F581E02D86E1F2
:1033400097E0199526CE5092E5074092E407E09168
:103350000807F09109070480F581E02D88E097E0E7
:10336000199521CE7092E3076092E207E091FA0688
:10337000F091FB060480F581E02D8AEF96E0199527
:103380001CCEB3DA0E9413098BE294E00E94DC08A1
:103390008FE194E00E94DC0880E20E94DD088DE766
:1033A00095E00E94DC0887E494E00E94DC088CEB46
:1033B00090E00E94E80889E494E00E94DC0880EC38
:1033C00095E00E94DC088AE494E00E94DC0881E039
:1033D00090E00E94A60AD093EB07C093EA07E09121
:1033E000ED06F091EE060480F581E02D8DEE96E07D
:1033F0001995EECD7ADA0E9413098BE294E00E94CF
:10340000DC088FE194E00E94DC0880E20E94DD0885
:103410008DE795E00E94DC0887E494E00E94DC08D8
:1034200084EC90E00E94E80889E494E00E94DC08C3
:1034300080EC95E00E94DC088AE494E00E94DC08BD
:1034400082E090E00E94A60A1093E9070093E80743
:10345000E091E006F091E1060480F581E02D80EE38
:1034600096E01995C0CD41DA0E9413098BE294E0F1
:103470000E94DC088FE194E00E94DC0880E20E9458
:10348000DD088DE795E00E94DC0887E494E00E9467
:10349000DC088AEC90E00E94E80889E494E00E944D
:1034A000DC0880EC95E00E94DC088AE494E00E944D
:1034B000DC0883E090E00E94A60AF092E707E09221
:1034C000E607E091D306F091D4060480F581E02D63
:1034D00083ED96E0199592CD08DA0E9413098BE2EC
:1034E00094E00E94DC088FE194E00E94DC0880E216
:1034F0000E94DD088DE795E00E94DC0887E494E0F7
:103500000E94DC0880ED90E00E94E80889E494E0E5
:103510000E94DC0880EC95E00E94DC088AE494E0DC
:103520000E94DC0884E090E00E94A60AD092E507A1
:10353000C092E407E091C606F091C7060480F581C9
:10354000E02D86EC96E0199564CDCFD90E94130941
:103550008BE294E00E94DC088FE194E00E94DC089A
:1035600080E20E94DD088DE795E00E94DC0887E498
:1035700094E00E94DC0887ED90E00E94E80889E46E
:1035800094E00E94DC0880EC95E00E94DC088AE46C
:1035900094E00E94DC0885E090E00E94A60A89EB96
:1035A00096E09093E3078093E207E091B906F091EB
:1035B000BA060480F581E02D199536CDCF93DF93BF
:1035C0008230910510F482E090E0E091F707F091ED
:1035D000F80720E030E0C0E0D0E0309711F1408102
:1035E000518148175907C0F04817590761F4828183
:1035F0009381209719F09B838A832BC09093F807BF
:103600008093F70726C02115310519F0421753079B
:1036100018F49A01BE01DF01EF010280F381E02D71
:10362000DCCF2115310509F1281B390B2430310578
:1036300090F412968D919C9113976115710521F06C
:10364000FB019383828304C09093F8078093F7076C
:10365000FD01329644C0FD01E20FF31F8193919367
:10366000225031092D933C933AC02091F5073091B7
:10367000F607232B41F4209102023091030230938C
:10368000F6072093F50720910002309101022115E1
:10369000310541F42DB73EB7409104025091050227
:1036A000241B350BE091F507F091F607E217F307BD
:1036B000A0F42E1B3F0B2817390778F0AC014E5FA2
:1036C0005F4F2417350748F04E0F5F1F5093F607E2
:1036D0004093F5078193919302C0E0E0F0E0CF01C1
:1036E000DF91CF9108950F931F93CF93DF930097AE
:1036F00009F48CC0FC013297138212820091F70703
:103700001091F8070115110581F420813181820F94
:10371000931F2091F5073091F6072817390779F59F
:10372000F093F607E093F50771C0D80140E050E050
:10373000AE17BF0750F412962D913C911397AD012F
:103740002115310509F1D901F3CF9D01DA01338348
:10375000228360817181860F971F8217930769F416
:10376000EC0128813981260F371F2E5F3F4F3183AF
:1037700020838A819B8193838283452B29F4F09354
:10378000F807E093F70742C01396FC93EE93129765
:10379000ED01499159919E01240F351FE217F3075E
:1037A00071F480819181840F951F029611969C93EC
:1037B0008E938281938113969C938E931297E0E06F
:1037C000F0E0D80112968D919C911397009719F013
:1037D000F8018C01F6CF8D919C9198012E5F3F4F9F
:1037E000820F931F2091F5073091F60728173907AC
:1037F00069F4309729F41092F8071092F70702C085
:10380000138212821093F6070093F507DF91CF9190
:103810001F910F9108958F929F92AF92BF92CF9276
:10382000DF92EF92FF92CF93DF93EC016881798171
:103830008A819B81611571058105910521F464E2FE
:1038400079ED8BE597E02DE133EF41E050E038D0A2
:1038500049015A019B01AC01A7EAB1E44DD06B01CB
:103860007C01ACEEB4EFA501940152D0DC01CB0198
:103870008C0D9D1DAE1DBF1DB7FF03C00197A10993
:10388000B04888839983AA83BB83BC01CD019F770D
:10389000DF91CF91FF90EF90DF90CF90BF90AF90EE
:1038A0009F908F900895B7CF86E092E0B4CF609359
:1038B000060270930702809308029093090208950C
:1038C000052E97FB16F400940FD057FD05D024D099
:1038D00007FC02D046F408C05095409530952195DC
:1038E0003F4F4F4F5F4F089590958095709561952C
:1038F0007F4F8F4F9F4F089531D0A59F900DB49F5C
:10390000900DA49F800D911D11240895B7FFF4CF51
:10391000F3DF821B930B0895A1E21A2EAA1BBB1B97
:10392000FD010DC0AA1FBB1FEE1FFF1FA217B3078B
:10393000E407F50720F0A21BB30BE40BF50B661FA1
:10394000771F881F991F1A9469F760957095809565
:1039500090959B01AC01BD01CF010895A29FB001DC
:10396000B39FC001A39F700D811D1124911DB29FB3
:10397000700D811D1124911D08955058BB27AA2751
:103980000ED04DC13ED130F043D120F031F49F3FF5
:1039900011F41EF433C10EF4E095E7FB29C1E92FC1
:1039A0004FD180F3BA17620773078407950718F0A1
:1039B00071F49EF567C10EF4E0950B2EBA2FA02D81
:1039C0000B01B90190010C01CA01A0011124FF27CC
:1039D000591B99F0593F50F4503E68F11A16F040C7
:1039E000A22F232F342F4427585FF3CF46953795C6
:1039F0002795A795F0405395C9F77EF41F16BA0B8B
:103A0000620B730B840BBAF09150A1F0FF0FBB1F38
:103A1000661F771F881FC2F70EC0BA0F621F731F81
:103A2000841F48F4879577956795B795F7959E3FDE
:103A300008F0B3CF9395880F08F09927EE0F97956C
:103A4000879508950CD0EBC0E3D040F0DAD030F089
:103A500021F45F3F19F0CCC0511115C1CFC0F0D097
:103A600098F39923C9F35523B1F3951B550BBB2745
:103A7000AA2762177307840738F09F5F5F4F220FF2
:103A8000331F441FAA1FA9F333D00E2E3AF0E0E8EB
:103A900030D091505040E695001CCAF729D0FE2F37
:103AA00027D0660F771F881FBB1F261737074807C9
:103AB000AB07B0E809F0BB0B802DBF01FF2793587F
:103AC0005F4F2AF09E3F510568F092C0DCC05F3F17
:103AD000ECF3983EDCF3869577956795B795F79567
:103AE0009F5FC9F7880F911D9695879597F908955F
:103AF000E1E0660F771F881FBB1F621773078407FB
:103B0000BA0720F0621B730B840BBA0BEE1F88F709
:103B1000E095089504D06894B111B5C0089598D087
:103B200088F09F5790F0B92F9927B751A0F0D1F0A6
:103B3000660F771F881F991F1AF0BA95C9F712C030
:103B4000B13081F09FD0B1E008959CC0672F782FED
:103B50008827B85F39F0B93FCCF38695779567959C
:103B6000B395D9F73EF490958095709561957F4F08
:103B70008F4F9F4F0895E89409C097FB3EF49095AE
:103B80008095709561957F4F8F4F9F4F9923A9F036
:103B9000F92F96E9BB279395F695879577956795C5
:103BA000B795F111F8CFFAF4BB0F11F460FF1BC009
:103BB0006F5F7F4F8F4F9F4F16C0882311F096E99C
:103BC00011C0772321F09EE8872F762F05C066234A
:103BD00071F096E8862F70E060E02AF09A95660F03
:103BE000771F881FDAF7880F9695879597F90895BC
:103BF00097F99F6780E870E060E008959FEF80ECA0
:103C0000089500240A941616170618060906089542
:103C100000240A9412161306140605060895092EA8
:103C20000394000C11F4882352F0BB0F40F4BF2B17
:103C300011F460FF04C06F5F7F4F8F4F9F4F089557
:103C400057FD9058440F551F59F05F3F71F047954D
:103C5000880F97FB991F61F09F3F79F08795089532
:103C6000121613061406551FF2CF4695F1DF08C051
:103C7000161617061806991FF1CF8695710561056E
:103C800008940895E894BB2766277727CB0197F916
:103C900008950BD0C4CFB5DF28F0BADF18F0952314
:103CA00009F0A6CFABCF1124EECFCADFA0F3959FCA
:103CB000D1F3950F50E0551F629FF001729FBB2713
:103CC000F00DB11D639FAA27F00DB11DAA1F649FBF
:103CD0006627B00DA11D661F829F2227B00DA11D72
:103CE000621F739FB00DA11D621F839FA00D611DF8
:103CF000221F749F3327A00D611D231F849F600D19
:103D0000211D822F762F6A2F11249F5750408AF051
:103D1000E1F088234AF0EE0FFF1FBB1F661F771FDD
:103D2000881F91505040A9F79E3F510570F060CF19
:103D3000AACF5F3FECF3983EDCF3869577956795C5
:103D4000B795F795E7959F5FC1F7FE2B880F911DFB
:103D50009695879597F908959F9305D00F9007FC46
:103D6000EE5F28C04BCF74DFE8F3E894E0E0BB27B8
:103D70009F57F0F02AED3FE049EC06C0EE0FBB0F75
:103D8000661F771F881F28F0B23A620773078407FF
:103D900028F0B25A620B730B840BE3959A9572F775
:103DA000803830F49A95BB0F661F771F881FD2F7B3
:103DB000904813C0EF93E0FF06C0A2EA2AED3FE06F
:103DC00049EC5FEBECDD2BDF0F90039401FC905886
:103DD000EAE3F1E00EC09F3F31F0915020F4879567
:103DE00077956795B795880F911D9695879597F963
:103DF00008959F938F937F936F93FF93EF939B010E
:103E0000AC0147DFEF91FF9105D02F913F914F918A
:103E10005F913FCFDF93CF931F930F93FF92EF926A
:103E2000DF927B018C01689405C0DA2EEF013DDF43
:103E3000FE01E894A5912591359145915591AEF3F8
:103E4000EF01ADDDFE019701A801DA9479F7DF906B
:103E5000EF90FF900F911F91CF91DF910895EE0F9A
:103E6000FF1F881F8BBF0790F691E02D199476DD18
:103E7000B7FF0895821B930B089581E090E0F894BA
:103E800007C0DC0101C06D9341505040E0F7089538
:103E900011E0CDE3D1E000E005C0802FFE01DFDFBF
:103EA0002196011DCE33D10780E00807B1F7F894C1
:023EB000FFCF42
:103EB2000000F907800001000000766972747561E4
:103EC2006C20766F69642044656174685374617212
:103ED2004578706C6F64653A3A73746172745363B7
:103EE20065656E282900766F69642044656174688F
:103EF200537461724578706C6F64653A3A646F46C8
:103F02006C61736832282900766F696420446561A8
:103F12007468537461724578706C6F64653A3A6480
:103F22006F46617374426C61636B282900766F6916
:103F320064204465617468537461724578706C6F73
:103F420064653A3A646F466C617368312829007679
:103F52006F69642044656174685374617245787056
:103F62006C6F64653A3A646F52696E675468726F37
:103F7200622829007669727475616C20766F6964B3
:103F820020446561746853746172506C6179476151
:103F92006D653A3A7374617274536365656E28296C
:103FA200007669727475616C20766F6964204D6F5A
:103FB200727365436F64653A3A73746172745363E2
:103FC20065656E282900000000005610810FEF0F72
:103FD2009C102010FE0F121000000000280878012B
:103FE2007C01F30400000000260870015B039C03BF
:103FF200000000002708760100000000850E670C13
:1040020000000000250874012103450200000000A1
:10401200840E6B0C850DB30D000000000000000043
:10402200AC0FAC0F00000000830E690C1D0D6D0C6F
:10403200000000008F077A01000000008E07720165
:104042007669727475616C20766F69642054696553
:10405200466967687465724578706C6F64653A3A50
:104062007374617274536365656E282900766F6993
:10407200642054696546696768746572506C617939
:104082007347616D653A3A6C696E6B46696768742D
:10409200657228546965466967687465722A2900E1
:1040A2007669727475616C20766F696420546965F3
:1040B20046696768746572506C61797347616D65B2
:1040C2003A3A7374617274536365656E2829007697
:1040D2006F6964206C6F6F702829003A5B20002E94
:1040E2002E5C4465617468537461724578706C6FBC
:1040F20064652E637070003A005D202000446561A3
:104102007468537461724578706C6F64653A3A737F
:1041120074617274536365656E2829002E2E5C4D9E
:104122006F727365436F64652E637070002E2E5C30
:10413200446561746853746172506C617947616D52
:10414200652E6370700044656174685374617250C7
:104152006C617947616D653A3A7374617274536345
:1041620065656E28290072696E67205468726F62F5
:10417200206368616E676520737461746500466CC4
:1041820061736831004661737420426C61636B0035
:10419200466C61736832000D0A002E2E5C5469650C
:1041A20046696768746572506C61797347616D65C1
:1041B2002E63707000546965466967687465725051
:1041C2006C61797347616D653A3A737461727453C5
:1041D2006365656E2829002E2E5C54696546696701
:1041E200687465724578706C6F64652E63707000D8
:1041F200546965466967687465724578706C6F6466
:10420200653A3A7374617274536365656E28290066
:1042120054696546696768746572506C6179734761
:10422200616D653A3A4C696E6B656420002E2E5CB6
:10423200446561746853746172323031382E696E2C
:104242006F0056656E7420506F7274204869742036
:104252000054727565006B65657020616C697665E6
:1042620020484200546172676574207570202000F6
:0E42720054617267657420446F776E202000DF
:00000001FF
