:100000000C945D000C9485000C9485000C94850084
:100010000C9485000C9485000C9485000C9485004C
:100020000C9485000C9485000C9485000C9485003C
:100030000C9485000C9485000C9485000C9485002C
:100040000C94C8020C9485000C9438030C94120391
:100050000C9485000C9485000C9485000C9485000C
:100060000C9485000C9485000000000024002700FB
:100070002A0000000000250028002B0004040404CE
:100080000404040402020202020203030303030342
:10009000010204081020408001020408102001021F
:1000A00004081020000000080002010000030407FB
:1000B0000000000000000000730411241FBECFEFF9
:1000C000D8E0DEBFCDBF11E0A0E0B1E0E8EFFBE09B
:1000D00002C005900D92A235B107D9F721E0A2E543
:1000E000B1E001C01D92AC3FB207E1F710E0CDE5F1
:1000F000D0E004C02197FE010E94C204CC35D10794
:10010000C9F70E946A030C94FA050C940000E09170
:100110005B01F0915C010190F081E02D682F8BE58F
:1001200091E00994E1EBF0E02491EDE9F0E09491A5
:10013000E9E8F0E0E491EE2309F43BC0222339F131
:10014000233091F038F42130A9F0223001F524B5A4
:100150002F7D12C0273091F02830A1F02430B9F45F
:10016000209180002F7D03C0209180002F77209365
:1001700080000DC024B52F7724BD09C02091B000A8
:100180002F7703C02091B0002F7D2093B000F0E0C6
:10019000EE0FFF1FEE58FF4FA591B4912FB7F894C3
:1001A000EC91811103C090959E2301C09E2B9C93DE
:1001B0002FBF08953FB7F89480915701909158014F
:1001C000A0915901B0915A0126B5A89B05C02F3FB7
:1001D00019F00196A11DB11D3FBFBA2FA92F982F6D
:1001E0008827820F911DA11DB11DBC01CD0142E0E8
:1001F000660F771F881F991F4A95D1F708958F9230
:100200009F92AF92BF92CF92DF92EF92FF920E94A5
:10021000DA004B015C0180EDC82E87E0D82EE12C7E
:10022000F12C0E94DA00DC01CB0188199909AA0996
:10023000BB09883E9340A105B10558F021E0C21AE0
:10024000D108E108F10888EE880E83E0981EA11C11
:10025000B11CC114D104E104F10419F7FF90EF902F
:10026000DF90CF90BF90AF909F908F900895CF92E6
:10027000DF92EF92FF920F931F93CF93DF936C0166
:100280007A018B01C0E0D0E0CE15DF0589F0D801FE
:100290006D918D01D601ED91FC910190F081E02DE1
:1002A000C6010995892B11F47E0102C02196ECCF7D
:1002B000C701DF91CF911F910F91FF90EF90DF90D9
:1002C000CF900895089580E090E00895FC01538D4B
:1002D000448D252F30E0842F90E0821B930B541720
:1002E00010F0CF96089501970895FC01918D828DAD
:1002F000981761F0828DDF01A80FB11D5D968C917A
:10030000928D9F5F9F73928F90E008958FEF9FEF84
:100310000895FC01918D828D981731F0828DE80F40
:10032000F11D858D90E008958FEF9FEF0895FC01FA
:10033000918D228D892F90E0805C9F4F821B9109C7
:100340008F73992708958BE591E00E94970121E032
:10035000892B09F420E0822F0895FC01848DDF01B0
:10036000A80FB11DA35ABF4F2C91848D90E0019628
:100370008F739927848FA689B7892C93A089B18917
:100380008C9180648C93938D848D981306C0028821
:10039000F389E02D80818F7D80830895EF92FF9215
:1003A0000F931F93CF93DF93EC0181E0888F9B8D98
:1003B0008C8D981305C0E889F989808185FD24C05A
:1003C000F62E0B8D10E00F5F1F4F0F731127E02EDD
:1003D0008C8DE8120CC00FB607FCFACFE889F989BA
:1003E000808185FFF5CFCE010E94AD01F1CF8B8DCD
:1003F000FE01E80FF11DE35AFF4FF0820B8FEA89EF
:10040000FB898081806207C0EE89FF896083E8896B
:10041000F98980818064808381E090E0DF91CF91D1
:100420001F910F91FF90EF900895CF93DF93EC0110
:10043000888D8823C9F0EA89FB89808185FD05C004
:10044000A889B9898C9186FD0FC00FB607FCF5CF3E
:10045000808185FFF2CFA889B9898C9185FFEDCF86
:10046000CE010E94AD01E7CFDF91CF91089580E0EA
:1004700090E0892B29F00E94A30181110C940000C7
:10048000089508950895009769F0FC0101900020F7
:10049000E9F73197AF01481B590BBC018BE591E09F
:1004A0000C94370180E090E008958F929F92AF9274
:1004B000BF920F931F93CF93DF93CDB7DEB7A19772
:1004C0000FB6F894DEBF0FBECDBF19A2423008F4BC
:1004D0004AE08E010F5D1F4F842E912CA12CB12C70
:1004E000A50194010E94A004E62FB901CA010150A0
:1004F0001109EA3014F4E05D01C0E95CD801EC9325
:10050000232B242B252B61F7C8010E944302A196BF
:100510000FB6F894DEBF0FBECDBFDF91CF911F9114
:100520000F91BF90AF909F908F900895CF92DF92E0
:10053000EF92FF92CF93DF936C01990FEE08FF08C3
:10054000F7FE17C08DE20E948700EC01662777272F
:10055000CB016C197D098E099F094AE00E94550262
:100560008C0F9D1FDF91CF91FF90EF90DF90CF9088
:1005700008954AE0C701B601DF91CF91FF90EF9057
:10058000DF90CF900C9455020E94F5050C945D0508
:100590001F920F920FB60F9211242F933F938F93B8
:1005A0009F93AF93BF938091530190915401A09179
:1005B0005501B09156013091520123E0230F2D37A0
:1005C00020F40196A11DB11D05C026E8230F029657
:1005D000A11DB11D209352018093530190935401AA
:1005E000A0935501B0935601809157019091580105
:1005F000A0915901B0915A010196A11DB11D80939E
:10060000570190935801A0935901B0935A01BF919B
:10061000AF919F918F913F912F910F900FBE0F90AF
:100620001F9018951F920F920FB60F9211242F93BF
:100630003F934F935F936F937F938F939F93AF936A
:10064000BF93EF93FF938BE591E00E94AD01FF9183
:10065000EF91BF91AF919F918F917F916F915F913A
:100660004F913F912F910F900FBE0F901F901895B3
:100670001F920F920FB60F9211242F938F939F9377
:10068000EF93FF93E0916B01F0916C018081E09119
:100690007101F091720182FD12C09081809174010C
:1006A0008F5F8F7320917501821751F0E091740173
:1006B000F0E0E55AFE4F958F8093740101C0808170
:1006C000FF91EF919F918F912F910F900FBE0F90FF
:1006D0001F901895789484B5826084BD84B581603C
:1006E00084BD85B5826085BD85B5816085BD8091FD
:1006F0006E00816080936E00109281008091810075
:10070000826080938100809181008160809381006C
:10071000809180008160809380008091B10084602E
:100720008093B1008091B00081608093B00080918F
:100730007A00846080937A0080917A00826080934E
:100740007A0080917A00816080937A0080917A00AB
:10075000806880937A001092C100E0916B01F09163
:100760006C0182E08083E0916701F0916801108262
:10077000E0916901F0916A018FEC8083109273011E
:10078000E0916F01F091700186E08083E0916D014E
:10079000F0916E01808180618083E0916D01F09124
:1007A0006E01808188608083E0916D01F0916E011F
:1007B000808180688083E0916D01F0916E0180817D
:1007C0008F7D8083EDE9F0E02491E9E8F0E0849109
:1007D000882399F090E0880F991FFC01E859FF4F9A
:1007E000A591B491FC01EE58FF4F859194918FB77C
:1007F000F894EC91E22BEC938FBF8FE090E00E9495
:10080000C8042CE131E0FC013183208321E02687FC
:1008100081E00E9492002FB7F8946091530170918B
:10082000540180915501909156012FBF4AE00E94DA
:1008300055028EE291E00E94430282E291E00E9422
:10084000430280E20E94870081E391E00E9443021C
:100850008AE30E94870081E290E00E94960280E293
:100860000E94870086E491E00E9443028BE491E0BD
:100870000E9443020E94FF0080E00E9492002FB776
:10088000F8946091530170915401809155019091B9
:1008900056012FBF4AE00E9455028EE291E00E946D
:1008A000430282E291E00E94430280E20E948700BC
:1008B00081E391E00E9443028AE30E94870085E27F
:1008C00090E00E94960280E20E9487008EE491E010
:1008D0000E9443028BE491E00E9443020E94FF00C9
:1008E0000E94370295CFEBE5F1E01382128288EE89
:1008F00093E0A0E0B0E084839583A683B7838AE089
:1009000091E09183808385EC90E09587848784ECE7
:1009100090E09787868780EC90E0918B808B81ECCC
:1009200090E0938B828B82EC90E0958B848B86ECAD
:1009300090E0978B868B118E128E138E148E0895F5
:10094000A1E21A2EAA1BBB1BFD010DC0AA1FBB1FD3
:10095000EE1FFF1FA217B307E407F50720F0A21B45
:10096000B30BE40BF50B661F771F881F991F1A94B2
:1009700069F760957095809590959B01AC01BD01DC
:10098000CF010895EE0FFF1F0590F491E02D09941B
:10099000CF93DF938230910510F482E090E0E091F4
:1009A000FA01F091FB0120E030E0C0E0D0E03097A8
:1009B00011F14081518148175907C0F04817590774
:1009C00061F482819381209719F09B838A832BC0E5
:1009D0009093FB018093FA0126C02115310519F08F
:1009E0004217530718F49A01BE01DF01EF0102809C
:1009F000F381E02DDCCF2115310509F1281B390BDE
:100A00002430310590F412968D919C9113976115C5
:100A1000710521F0FB019383828304C09093FB0155
:100A20008093FA01FD01329644C0FD01E20FF31FED
:100A300081939193225031092D933C933AC0209198
:100A4000F8013091F901232B41F4209102013091FA
:100A500003013093F9012093F801209100013091B6
:100A600001012115310541F42DB73EB74091040134
:100A700050910501241B350BE091F801F091F9012B
:100A8000E217F307A0F42E1B3F0B2817390778F065
:100A9000AC014E5F5F4F2417350748F04E0F5F1FC4
:100AA0005093F9014093F8018193919302C0E0E0E3
:100AB000F0E0CF01DF91CF9108950F931F93CF9373
:100AC000DF93009709F48CC0FC01329713821282E5
:100AD0000091FA011091FB010115110581F42081AB
:100AE0003181820F931F2091F8013091F90128176D
:100AF000390779F5F093F901E093F80171C0D80155
:100B000040E050E0AE17BF0750F412962D913C9193
:100B10001397AD012115310509F1D901F3CF9D01DD
:100B2000DA013383228360817181860F971F8217D8
:100B3000930769F4EC0128813981260F371F2E5F56
:100B40003F4F318320838A819B8193838283452B0E
:100B500029F4F093FB01E093FA0142C01396FC9351
:100B6000EE931297ED01499159919E01240F351F83
:100B7000E217F30771F480819181840F951F02962B
:100B800011969C938E938281938113969C938E935E
:100B90001297E0E0F0E0D80112968D919C911397A6
:100BA000009719F0F8018C01F6CF8D919C91980176
:100BB0002E5F3F4F820F931F2091F8013091F90172
:100BC0002817390769F4309729F41092FB01109225
:100BD000FA0102C0138212821093F9010093F80106
:100BE000DF91CF911F910F91089581E090E0F894EB
:080BF0000C94FA05F894FFCF04
:100BF8000000FC01800000000000CE013701660102
:100C08001502970175018901000000004202C60221
:100C18004102766F6964206C6F6F702829003A2052
:100C2800002E2E5C446561746853746172323031F1
:100C3800382E696E6F0048696768000D0A004C6FAE
:020C4800770033
:00000001FF
