:100000000C945E000C9486000C9486000C94860080
:100010000C9486000C9486000C9486000C94860048
:100020000C9486000C9486000C9486000C94860038
:100030000C9486000C9486000C9486000C94860028
:100040000C9470080C9486000C9483010C945D0150
:100050000C9486000C9486000C9486000C94860008
:100060000C9486000C9486000000000024002700F9
:100070002A0000000008000201000003040700003D
:10008000000000000000010204081020408001026E
:1000900004081020010204081020000000002500C0
:1000A00028002B00040404040404040402020202D5
:1000B0000202030303030303F60BE60B11241FBE26
:1000C000CFEFD8E0DEBFCDBF13E0A0E0B1E0E8E2C3
:1000D000FCE102C005900D92A033B107D9F724E0EE
:1000E000A0E3B3E001C01D92AD30B207E1F710E02C
:1000F000CDE5D0E004C02197FE010E94CF0CCC35A5
:10010000D107C9F70E94BA080C94070E0C9400009E
:10011000CF92DF92EF92FF920F931F93CF93DF93D3
:100120006C017A018B01C0E0D0E0CE15DF0589F0CB
:10013000D8016D918D01D601ED91FC910190F08176
:10014000E02DC6010995892B11F47E0102C021968C
:10015000ECCFC701DF91CF911F910F91FF90EF90EE
:10016000DF90CF900895089580E090E00895FC011D
:10017000538D448D252F30E0842F90E0821B930B0C
:10018000541710F0CF96089501970895FC01918DB2
:10019000828D981761F0828DDF01A80FB11D5D96E9
:1001A0008C91928D9F5F9F73928F90E008958FEF57
:1001B0009FEF0895FC01918D828D981731F0828D0B
:1001C000E80FF11D858D90E008958FEF9FEF089562
:1001D0000E94020E85E393E00E94B50121E0892B85
:1001E00009F420E0822F0895EF92FF920F931F935E
:1001F000CF93DF93EC0181E0888F9B8D8C8D9813DA
:1002000005C0E889F989808185FD24C0F62E0B8D13
:1002100010E00F5F1F4F0F731127E02E8C8DE81237
:100220000CC00FB607FCFACFE889F989808185FFF9
:10023000F5CFCE010E940002F1CF8B8DFE01E80FB9
:10024000F11DE35AFF4FF0820B8FEA89FB89808111
:10025000806207C0EE89FF896083E889F98980811F
:100260008064808381E090E0DF91CF911F910F91B6
:10027000FF90EF900895CF93DF93EC01888D882352
:10028000C9F0EA89FB89808185FD05C0A889B98903
:100290008C9186FD0FC00FB607FCF5CF808185FFDE
:1002A000F2CFA889B9898C9185FFEDCFCE010E944C
:1002B0000002E7CFDF91CF9108951F920F920FB602
:1002C0000F9211242F933F934F935F936F937F93DC
:1002D0008F939F93AF93BF93EF93FF9385E393E047
:1002E0000E940002FF91EF91BF91AF919F918F917A
:1002F0007F916F915F914F913F912F910F900FBE22
:100300000F901F9018951F920F920FB60F92112405
:100310002F938F939F93EF93FF93E0914503F09179
:1003200046038081E0914B03F0914C0382FD12C0A3
:10033000908180914E038F5F8F7320914F038217BE
:1003400051F0E0914E03F0E0EB5CFC4F958F809311
:100350004E0301C08081FF91EF919F918F912F916A
:100360000F900FBE0F901F901895FC01918D228D5C
:10037000892F90E0805C9F4F821B91098F73992792
:10038000089580E090E0892B29F00E94EA00811115
:100390000C94000008950C946A0D0C946A0D0C9452
:1003A0006A0DFC0113861286128213821482158252
:1003B0000E9464084AE00E9434068EEF91E00E9499
:1003C000880686E491E00E94880680E20E948A0600
:1003D00084E892E00E94880684E192E00E94880608
:1003E00088E290E00E94950686E192E00E948806ED
:1003F0008DE992E00E94C30661E085E10C94B707A5
:10040000FC01848DDF01A80FB11DA35ABF4F2C91B1
:10041000848D90E001968F739927848FA689B78980
:100420002C93A089B1898C9180648C93938D848D59
:10043000981306C00288F389E02D80818F7D808328
:1004400008954F925F926F927F928F929F92AF9298
:10045000BF92CF92DF92EF92FF920F931F93CF93B1
:10046000DF93DC011D968C911D971A96EC901A97DC
:100470001896ED91FC91199717968C901797482F25
:1004800050E01B961C911B971C960C91EB018E1152
:1004900064C0CC0FDD1FC60FD71FCE0FDF1F882013
:1004A00009F443C0912CA12CB12CFE01E40FF51FDF
:1004B000608170E0762F6627072E000C880B990B61
:1004C000A50194010E94AD0C390155244424FE017C
:1004D000E10FF11D608170E0762F6627072E000C7A
:1004E000880B990BA50194010E94AD0CB42FA32F8A
:1004F000922F882773016201C82AD92AEA2AFB2A87
:10050000C00FD11D688170E0762F6627072E000C82
:10051000880B990BA50194010E94AD0CC701B6018F
:10052000622B732B842B952B95C0FE01E40FF51FD6
:100530002081FE01E10FF11D6081862F90E0A0E097
:10054000B0E0BA2FA92F982F8827A22BC00FD11D5A
:100550002881BC01CD01622B7DC0CC0FDD1FCC0FEB
:10056000DD1FCE0FDF1FF12C882009F458C0912C1D
:10057000A12CB12CFE01E40FF51F608170E0762FF5
:100580006627072E000C880B990BA50194010E9489
:10059000AD0C722E662455244424FE01EE0DFF1D81
:1005A000608170E0762F6627072E000C880B990B70
:1005B000A50194010E94AD0C7901DD24CC24C4284E
:1005C000D528E628F728FE01E00FF11D608170E0D4
:1005D000762F6627072E000C880B990BA501940136
:1005E0000E94AD0CC22AD32AE42AF52AC10FD11DDC
:1005F000688170E0762F6627072E000C880B990B18
:10060000A50194010E94AD0CB42FA32F922F88272F
:10061000BC01CD016C297D298E299F291BC0FE01BB
:10062000E40FF51F2081FE01EE0DFF1D6081862F76
:1006300090E0A0E0B0E0DC0199278827B22BFE0112
:10064000E00FF11D2081822BC10FD11D2881BC013B
:10065000CD01722BDF91CF911F910F91FF90EF9001
:10066000DF90CF90BF90AF909F908F907F906F90D2
:100670005F904F900895CF92DF92EF92FF920F9389
:100680001F93CF93DF93CDB7DEB729970FB6F894BA
:10069000DEBF0FBECDBF8C010E943F08D8011E9661
:1006A000CD90DD90ED90FC905197DC01CB018C1941
:1006B0009D09AE09BF098C329140A105B10560F3D7
:1006C000F894D80114968D919C9115979A838983FB
:1006D0001896ED91FC9119977F01BFEFEB1AFB0A79
:1006E00080818B83F80190810288F389E02DD80105
:1006F00054968C91992309F430C09081982B9C8357
:100700009081809589238D838D818E8388E08F836E
:100710005C816D814B813F812E8189819A81D701D6
:10072000508347FD252F3A952083262F39F0441F0B
:1007300000C000006083000000C0F2CF38E04D919F
:1007400060830000019761F7D8015396FC93EE9304
:1007500052974B833F832E833AC09081982B9C8382
:100760009081809589238D838D81888788E0898712
:100770005C816D814B813985288589819A81D7017A
:10078000508347FD252F00C000C0208300C000C05B
:1007900000C000C000C060830000262F3A9541F0E1
:1007A000441F000000C000C000C000C000C0E8CF6F
:1007B00038E04D9100C0608300C0019709F7D8016F
:1007C0005396FC93EE9352974B83398728879A83ED
:1007D000898378940E943F08F80166877787808B29
:1007E000918B29960FB6F894DEBF0FBECDBFDF9177
:1007F000CF911F910F91FF90EF90DF90CF900895D0
:100800008F929F92AF92BF92CF92DF92EF92FF9220
:100810000F931F93CF93DF93FC018281938168171D
:10082000790708F04CC04A01AA24BB24B82DC32E76
:10083000D42EE52EFF24AC2D922F8781882361F0E2
:10084000889E40011124B92DC89E60011124AD2D50
:10085000289FE00111249D2FD584C285E084F18476
:10086000DC1208C09B01220F331F620F731F6E0D35
:100870007F1D16C0660F771F660F771F6E0D7F1DD9
:10088000052F112722273327EB01CD0DD11D8823FA
:1008900029F0089F90011124232F01C0202F2883C5
:1008A0008285EB01C80FD11DB8838385EB01C80F8A
:1008B000D11DA8838485FB01E80FF11D9083DF9192
:1008C000CF911F910F91FF90EF90DF90CF90BF904D
:1008D000AF909F908F900895CF92DF92EF92FF920A
:1008E0000F931F93CF93DF93EC01CA80DB80EC80E2
:1008F000FD800E9464086C157D058E059F0508F437
:100900003AC18A859B858130910509F474C0823093
:10091000910509F4B1C0892B09F02DC10E9464082A
:100920004AE00E9434068EEF91E00E9488068BE92F
:1009300091E00E94880680E20E948A0684E892E0A4
:100940000E94880684E192E00E94880687E590E094
:100950000E94950686E192E00E9488068DEB92E067
:100960000E94C30608851985F801628170E02FEFA7
:100970003FEF4FEF50E0838594850E940004F8011B
:10098000638170E02FEF3FEF4FEF50E08385948558
:100990000E940004E884F98487010C5F1F4F6701FF
:1009A000FAE0CF0ED11CF80161918F0170E020EFC9
:1009B00030EF4FEF50E0F701838594850E940004EB
:1009C0000C151D0581F7E885F98583859485FC0163
:1009D00020853185232B11F00E943B0381E090E0BC
:1009E0009B878A870E946408DC01CB01845D9E4F4F
:1009F000AF4FBF4FBCC026EE3FEF46EE5FEF6CEE51
:100A00007FEF888599850E94D106182F42EE5FEF0F
:100A100062EE7FEF888599850E944707180FE88569
:100A2000F98583859485FC0120853185232B11F080
:100A30000E943B0361E085E10E94B7070E946408C1
:100A4000DC01CB010596A11DB11D8A839B83AC837C
:100A5000BD838E819F8101979F838E8311118BC0EF
:100A600082E090E09B878A870E946408DC01CB01CA
:100A70000596A11DB11D7BC00E9464084AE00E943A
:100A800034068EEF91E00E94880683E791E00E9491
:100A9000880680E20E948A0684E892E00E94880626
:100AA00084E192E00E9488068BE890E00E9495061F
:100AB00086E192E00E94880681EE92E00E94C306E1
:100AC0002DED3FEF4DED5FEF67EE7FEF8885998568
:100AD0000E94D106182F4EEC5FEF6EEC7FEF8885F9
:100AE00099850E944707180FE885F98583859485C5
:100AF000FC0120853185232B11F00E943B030E94CD
:100B00006408DC01CB010596A11DB11D8A839B837E
:100B1000AC83BD8311112FC00E9464084AE00E947B
:100B200034068EEF91E00E94880683E791E00E94F0
:100B3000880680E20E948A0684E892E00E94880685
:100B400084E192E00E94880689E990E00E9495067F
:100B500086E192E00E9488068DE093E00E94C30641
:100B60000E946408DC01CB01945AA94DBA4F8A83D4
:100B70009B83AC83BD83DF91CF911F910F91FF9039
:100B8000EF90DF90CF900895089508950895CF9243
:100B9000DF92EF92FF920F931F93F801FF27C12E70
:100BA000D22EE32EFF24DD24820F911D97FD07C076
:100BB0008F3F910531F02CF08FEF90E002C080E084
:100BC00090E08601060F171F17FD07C00F3F1105A4
:100BD00031F02CF00FEF10E002C000E010E04E0FFB
:100BE0005F1F57FD07C04F3F510531F02CF04FEF0D
:100BF00050E002C040E050E0012E000C220B330B0D
:100C0000322F212F102F0027092E000CAA0BBB0B0F
:100C1000DC0199278827802B912BA22BB32B052E43
:100C2000000C660B770B8C019D01042B152B262BDA
:100C3000372BC901B8011F910F91FF90EF90DF9002
:100C4000CF900895009769F0FC0101900020E9F72A
:100C50003197AF01481B590BBC0185E393E00C941D
:100C6000880080E090E008958F929F92AF92BF92AB
:100C70000F931F93CF93DF93CDB7DEB7A1970FB636
:100C8000F894DEBF0FBECDBF19A2423008F44AE08F
:100C90008E010F5D1F4F842E912CA12CB12CA5012C
:100CA00094010E94AD0CE62FB901CA01015011094F
:100CB000EA3014F4E05D01C0E95CD801EC93232B29
:100CC000242B252B61F7C8010E942206A1960FB69E
:100CD000F894DEBF0FBECDBFDF91CF911F910F9172
:100CE000BF90AF909F908F900895CF93DF93682F20
:100CF00070E080E090E040E10E943406EC0181E881
:100D000092E00E9422068C0F9D1FDF91CF910895E3
:100D10000C942206E0913503F09136030190F081A6
:100D2000E02D682F85E393E00994CF92DF92EF9254
:100D3000FF92CF93DF936C01990FEE08FF08F7FE47
:100D400017C08DE20E948A06EC0166277727CB0147
:100D50006C197D098E099F094AE00E9434068C0FA8
:100D60009D1FDF91CF91FF90EF90DF90CF9008957E
:100D70004AE0C701B601DF91CF91FF90EF90DF907D
:100D8000CF900C943406CF93DF930E942206EC019F
:100D900081E892E00E9422068C0F9D1FDF91CF9187
:100DA00008952F923F924F925F926F927F928F920F
:100DB0009F92AF92BF92CF92DF92EF92FF920F93EA
:100DC0001F93CF93DF93CDB7DEB727970FB6F89475
:100DD000DEBF0FBECDBF5C017D836C831A0149016C
:100DE0007C0122E0E20EF11C04969B838A83198227
:100DF000F70181917F01282F30E03F832E83F50199
:100E0000C384D484F601828193812817390738F48A
:100E1000B901C6010E9421022B013C0103C0412CF3
:100E2000512C320193018201A401B1018C819D8179
:100E30000E94C7059B01AC01461657066806790655
:100E400011F0F1E0F9836E817F81C6010E940004F8
:100E50002A813B81E216F30659F6898127960FB65F
:100E6000F894DEBF0FBECDBFDF91CF911F910F91E0
:100E7000FF90EF90DF90CF90BF90AF909F908F90BA
:100E80007F906F905F904F903F902F9008952F929A
:100E90003F924F925F926F927F928F929F92AF920A
:100EA000BF92CF92DF92EF92FF920F931F93CF9357
:100EB000DF9300D000D01F92CDB7DEB75C011B01DD
:100EC0004A017C0124E0E20EF11C0A969B838A838E
:100ED0001982F70181917F01282F30E03D832C8317
:100EE000F501C384D484F6018281938128173907E0
:100EF00038F4B901C6010E9421022B013C0103C054
:100F0000412C512C320193018201A401B10182EEE6
:100F10009FEF0E94C7059B01AC0146165706680665
:100F2000790611F0F1E0F9836C817D81C6010E94A0
:100F300000042A813B81E216F30659F689810F905D
:100F40000F900F900F900F90DF91CF911F910F9105
:100F5000FF90EF90DF90CF90BF90AF909F908F90D9
:100F60007F906F905F904F903F902F90089590E00A
:100F7000FC01EE58FF4F3491FC01EA57FF4F2491DA
:100F8000FC01EC55FF4FE491EE2309F43BC0332301
:100F900039F1333091F038F43130A9F0323001F5C5
:100FA00084B58F7D12C0373091F03830A1F03430E5
:100FB000B9F4809180008F7D03C0809180008F778D
:100FC000809380000DC084B58F7784BD09C0809167
:100FD000B0008F7703C08091B0008F7D8093B00008
:100FE000F0E0EE0FFF1FE656FF4FA591B4918FB7CB
:100FF000F894EC91611103C020952E2301C02E2B93
:101000002C938FBF0895CF93DF9390E0FC01EA57B4
:10101000FF4F2491FC01EC55FF4F8491882361F12F
:1010200090E0880F991FFC01E859FF4FC591D491BA
:10103000FC01E656FF4FA591B491611109C09FB71D
:10104000F8948881209582238883EC912E230BC00D
:10105000623061F49FB7F8943881822F80958323A2
:101060008883EC912E2B2C939FBF06C08FB7F894EA
:10107000E8812E2B28838FBFDF91CF9108953FB752
:10108000F8948091050490910604A0910704B09112
:10109000080426B5A89B05C02F3F19F00196A11D95
:1010A000B11D3FBFBA2FA92F982F8827820F911DFE
:1010B000A11DB11DBC01CD0142E0660F771F881F45
:1010C000991F4A95D1F708952FB7F89460910104BC
:1010D0007091020480910304909104042FBF08953D
:1010E0001F920F920FB60F9211242F933F938F935D
:1010F0009F93AF93BF938091010490910204A091BC
:101100000304B09104043091000423E0230F2D3731
:1011100020F40196A11DB11D05C026E8230F0296FB
:10112000A11DB11D2093000480930104909302043B
:10113000A0930304B09304048091050490910604E5
:10114000A0910704B09108040196A11DB11D8093E0
:10115000050490930604A0930704B0930804BF917C
:10116000AF919F918F913F912F910F900FBE0F9054
:101170001F901895789484B5826084BD84B5816091
:1011800084BD85B5826085BD85B5816085BD809152
:101190006E00816080936E001092810080918100CA
:1011A00082608093810080918100816080938100C2
:1011B000809180008160809380008091B100846084
:1011C0008093B1008091B00081608093B0008091E5
:1011D0007A00846080937A0080917A0082608093A4
:1011E0007A0080917A00816080937A0080917A0001
:1011F000806880937A001092C100E0914503F091DD
:101200004603D2E0D083E0914103F0914203108283
:10121000E0914303F09144038FEC808310924D03DF
:10122000E0914903F0914A03C6E0C083E09147038F
:10123000F0914803808180618083E0914703F091C1
:101240004803808188608083E0914703F0914803E0
:10125000808180688083E0914703F091480380811A
:101260008F7D808361E08DE00E94030881E08093A0
:10127000E8032BEE33E03093EA032093E90393E095
:101280009093E00394E09093E1031092E203809343
:10129000E303D093E40385E08093E503C093E60382
:1012A00087E08093E7030E9464084AE00E943406C6
:1012B0008EEF91E00E94880686E091E00E94880609
:1012C00080E20E948A0682E092E00E94880684E121
:1012D00092E00E94880687E190E00E94950686E1F0
:1012E00092E00E9488068AE192E00E94C3060E9472
:1012F00064084AE00E9434068EEF91E00E9488065E
:1013000086E091E00E94880680E20E948A0682E0E0
:1013100092E00E94880684E192E00E94880688E1BB
:1013200090E00E94950686E192E00E94880680E0A7
:1013300090E00E94950687E192E00E9488068091E5
:10134000E0030E9475060E9464084AE00E94340689
:101350008EEF91E00E94880686E091E00E94880668
:1013600080E20E948A0682E092E00E94880684E180
:1013700092E00E94880689E190E00E94950686E14D
:1013800092E00E94880681E090E00E94950687E145
:1013900092E00E9488068091E1030E9475060E94F7
:1013A00064084AE00E9434068EEF91E00E948806AD
:1013B00086E091E00E94880680E20E948A0682E030
:1013C00092E00E94880684E192E00E9488068DE106
:1013D00090E00E94950686E192E00E94880684E3F0
:1013E00092E00E94C3060E9464084AE00E9434060C
:1013F0008EEF91E00E94880686E091E00E948806C8
:1014000080E20E948A0682E092E00E94880684E1DF
:1014100092E00E9488068EE190E00E94950686E1A7
:1014200092E00E94880680E090E00E94950687E1A5
:1014300092E00E9488068091E2030E9475060E9455
:1014400064084AE00E9434068EEF91E00E9488060C
:1014500086E091E00E94880680E20E948A0682E08F
:1014600092E00E94880684E192E00E9488068FE163
:1014700090E00E94950686E192E00E94880681E055
:1014800090E00E94950687E192E00E948806809194
:10149000E3030E9475060E9464084AE00E94340635
:1014A0008EEF91E00E94880686E091E00E94880617
:1014B00080E20E948A0682E092E00E94880684E12F
:1014C00092E00E94880680E290E00E94950686E104
:1014D00092E00E94880682E090E00E94950687E1F3
:1014E00092E00E9488068091E4030E9475060E94A3
:1014F00064084AE00E9434068EEF91E00E9488065C
:1015000086E091E00E94880680E20E948A0682E0DE
:1015100092E00E94880684E192E00E94880681E2BF
:1015200090E00E94950686E192E00E94880683E0A2
:1015300090E00E94950687E192E00E9488068091E3
:10154000E5030E9475060E9464084AE00E94340682
:101550008EEF91E00E94880686E091E00E94880666
:1015600080E20E948A0682E092E00E94880684E17E
:1015700092E00E94880682E290E00E94950686E151
:1015800092E00E94880684E090E00E94950687E140
:1015900092E00E9488068091E6030E9475060E94F0
:1015A00064084AE00E9434068EEF91E00E948806AB
:1015B00086E091E00E94880680E20E948A0682E02E
:1015C00092E00E94880684E192E00E94880683E20D
:1015D00090E00E94950686E192E00E94880685E0F0
:1015E00090E00E94950687E192E00E948806809133
:1015F000E7030E9475068EED93E09093DB038093E2
:10160000DA0382ED93E00E94D1018091F10387FD1E
:1016100008C061E00E94030860E08091F1030E942D
:10162000B70781E08093EC038091F3039091F4037A
:10163000892B21F08BEE93E00E943B030E9464080B
:101640006093310370933203809333039093340398
:1016500082ED93E00E946C040E943F084B015C0104
:1016600082E3C82ED12CE12CF12C0E943F08DC0132
:10167000CB0188199909AA09BB09883E9340A105A5
:10168000B10558F021E0C21AD108E108F10888EE4E
:10169000880E83E0981EA11CB11CC114D104E10482
:1016A000F10419F70E946408C0903103D09032030E
:1016B000E0903303F0903403DC01CB018C199D09D9
:1016C000AE09BF0981379741A105B10508F47BC078
:1016D0000E9464084AE00E9434068EEF91E00E9466
:1016E00088068AE391E00E94880680E20E948A06CA
:1016F0008CE492E00E94880684E192E00E948806D1
:1017000085E490E00E94950686E192E00E948806BA
:1017100081E692E00E94C3060E9464084AE00E94AB
:1017200034068EEF91E00E9488068AE391E00E94E1
:10173000880680E20E948A068CE492E00E94880675
:1017400084E192E00E94880686E490E00E9495067B
:1017500086E192E00E94880681E792E00E94880676
:1017600087E192E00E948806609131037091320314
:1017700080913303909134034AE00E94340681E85B
:1017800092E00E9422060E946408609331037093E5
:10179000320380933303909334038091300381119B
:1017A00008C061E08DE00E94B70781E080933003BC
:1017B00006C060E08DE00E94B7071092300382ED12
:1017C00093E00E94D1010E94C10142CF8091F303B6
:1017D0009091F403009711F00E946A0D8091F1033B
:1017E00087FD03C060E00C9403080895109238034D
:1017F0001092370388EE93E0A0E0B0E080933903C5
:1018000090933A03A0933B03B0933C0388EC91E0A0
:10181000909336038093350385EC90E090934203D8
:101820008093410384EC90E09093440380934303BE
:1018300080EC90E0909346038093450381EC90E028
:10184000909348038093470382EC90E090934A037F
:101850008093490386EC90E090934C0380934B0374
:1018600010924E0310924F031092500310925103A6
:101870001092EC031092F2031092F9031092FA0303
:101880001092FB031092FC031092F8031092F503E0
:1018900081E08093F60392E09093F7038093EB034B
:1018A00086E990E09093F0038093EF030E94D50CBB
:1018B0009093F4038093F303009761F026E9FC0111
:1018C00011922A95E9F782E390E09093EE038093DA
:1018D000ED0308C01092F0031092EF031092EE0394
:1018E0001092ED0388E08093F1038091EC0388234C
:1018F00041F061E088E00E94030860E088E00E9417
:10190000B707ECEAF0E0E491F0E0EE0FFF1FE656D7
:10191000FF4F859194919093FE038093FD03EEE831
:10192000F0E0E491E093FF038AEF91E09093DF030E
:101930008093DE031092D4031092D5031092D60345
:101940001092D70386EE91E09093D3038093D20355
:101950001092DD031092DC030895A1E21A2EAA1B57
:10196000BB1BFD010DC0AA1FBB1FEE1FFF1FA2174F
:10197000B307E407F50720F0A21BB30BE40BF50B4C
:10198000661F771F881F991F1A9469F760957095D5
:10199000809590959B01AC01BD01CF010895EE0F9C
:1019A000FF1F0590F491E02D0994CF93DF938230CF
:1019B000910510F482E090E0E0910B04F0910C04AA
:1019C00020E030E0C0E0D0E0309711F1408151815B
:1019D00048175907C0F04817590761F4828193816D
:1019E000209719F09B838A832BC090930C048093DB
:1019F0000B0426C02115310519F04217530718F4BE
:101A00009A01BE01DF01EF010280F381E02DDCCFFE
:101A10002115310509F1281B390B2430310590F4CB
:101A200012968D919C9113976115710521F0FB0120
:101A30009383828304C090930C0480930B04FD0174
:101A4000329644C0FD01E20FF31F8193919322501F
:101A500031092D933C933AC02091090430910A0436
:101A6000232B41F4209102013091030130930A04A9
:101A700020930904209100013091010121153105C5
:101A800041F42DB73EB74091040150910501241B4C
:101A9000350BE0910904F0910A04E217F307A0F472
:101AA0002E1B3F0B2817390778F0AC014E5F5F4FB4
:101AB0002417350748F04E0F5F1F50930A044093D8
:101AC00009048193919302C0E0E0F0E0CF01DF913F
:101AD000CF9108950F931F93CF93DF93009709F44D
:101AE0008CC0FC0132971382128200910B0410917A
:101AF0000C040115110581F420813181820F931F9F
:101B00002091090430910A042817390779F5F093D8
:101B10000A04E093090471C0D80140E050E0AE1718
:101B2000BF0750F412962D913C911397AD012115EA
:101B3000310509F1D901F3CF9D01DA013383228305
:101B400060817181860F971F8217930769F4EC01FA
:101B500028813981260F371F2E5F3F4F3183208325
:101B60008A819B8193838283452B29F4F0930C0413
:101B7000E0930B0442C01396FC93EE931297ED0191
:101B8000499159919E01240F351FE217F30771F413
:101B900080819181840F951F029611969C938E935C
:101BA0008281938113969C938E931297E0E0F0E0EC
:101BB000D80112968D919C911397009719F0F80116
:101BC0008C01F6CF8D919C9198012E5F3F4F820F33
:101BD000931F2091090430910A042817390769F4EA
:101BE000309729F410920C0410920B0402C0138257
:101BF000128210930A0400930904DF91CF911F9180
:101C00000F91089581E090E0F8940C94070E10E095
:101C1000CDE5D0E004C0FE010E94CF0C2196CE3568
:081C2000D107C9F7F894FFCFCA
:101C280000000D048000766F696420546965466978
:101C380067687465723A3A73657455702875696E89
:101C480074385F742C2041646166727569745F4EE4
:101C5800656F506978656C2A2900766F6964206C15
:101C68006F6F702829007669727475616C20766FC1
:101C78006964205469654669676874657245787057
:101C88006C6F64653A3A7374617274536365656E18
:101C9800282900766F696420546965466967687405
:101CA80065724578706C6F64653A3A646F46616432
:101CB80065546F426C61636B282900766F696420F4
:101CC800546965466967687465724578706C6F64B5
:101CD800653A3A646F496E697469616C466C617300
:101CE8006828290000000000F4008800B7003B01C4
:101CF800B501C600DA000000000000000000E8009E
:101D0800E80000000000C605CD01D1016C04000008
:101D18000000C505CB0100000000C405CF013A5BF7
:101D280020002E2E5C546965466967687465722EBA
:101D3800637070003A005D202000506F7374206952
:101D48006E697420696E6E6572206C6967687420AC
:101D580069647300706F737420696E6974206F759D
:101D68007465724C69676874696473002E2E5C44EC
:101D78006561746853746172323031382E696E6FE0
:101D8800004B656570416C697665206669726564AB
:101D9800006B656570416C6976652076616C756568
:101DA800000D0A002E2E5C546965466967687465E3
:101DB800724578706C6F64652E6370700054696545
:101DC800466967687465724578706C6F64653A3AFD
:101DD8007374617274536365656E2829005469656C
:101DE800466967687465724578706C6F64653A3ADD
:101DF800646F496E697469616C466C6173682829FF
:101E080000546965466967687465724578706C6FD7
:101E180064653A3A646F46616465546F426C616305
:101E28006B28292020646F20776F726B00546965D6
:101E3800466967687465724578706C6F64653A3A8C
:101E480020736365656E20697320646F6E6500009A
:00000001FF
