:100000003DC100006CC100006AC1000068C1000071
:1000100066C1000064C1000062C1000060C1000050
:100020005EC100005CC100005AC1000058C1000060
:1000300056C1000054C1000052C1000050C1000070
:100040004EC100004CC100004AC1000048C1000080
:1000500046C1000044C1000042C100000C940011E0
:100060003EC100000C94F60B0C94CC0B38C1000080
:1000700036C1000034C1000032C1000030C10000B0
:100080002EC100002CC100002AC1000028C10000C0
:1000900026C1000024C1000022C1000020C10000D0
:1000A0001EC100001CC100001AC1000018C10000E0
:1000B00016C1000014C1000012C1000010C10000F0
:1000C0000EC100000CC100000AC1000008C1000000
:1000D00006C1000004C1000002C1000000C1000010
:1000E000FEC000002708A40822095F099309DF0960
:1000F0000E0A3A0F3D0F2C0F300F360F740F410FC1
:10010000450F4B0F4F0F530F590F5D0F610F740FBA
:10011000670F6B0F6F0F2F103410391043104D10F5
:10012000C61057105F10671071107B108510941067
:100130009E10C610A810B210BC1005A84CCDB2D4A9
:100140004EB93836A9020C50B9918688083CA6AA47
:10015000AA2ABE000000803F0000210024002700E2
:100160002A002D00300033000101000004010701C6
:100170000A0100002200250028002B002E0031007B
:10018000340002010000050108010B0100002000FD
:100190002300260029002C002F003200000100005F
:1001A00003010601090105050505070508080808FA
:1001B000020202020A0A08080404040401010101FF
:1001C00001010101030303030303030304070707FA
:1001D0000C0C0C0C0C0C0C0C02020202060606069F
:1001E000060606060B0B0B0B0B0B0B0B010210206C
:1001F000200808102040102040800201020108045D
:1002000002010102040810204080804020100804F0
:100210000201800402018040201008040201080449
:10022000020101020408102040800102040810208D
:10023000408000000A0B02090C0D0E0807030401A0
:1002400000000000000000000000000000000000AE
:10025000000000000000000000000000000012117B
:10026000100000000000000000000000000000007E
:10027000000000000000000008164A1111241FBEF3
:10028000CFEFD1E2DEBFCDBF00E00CBF15E0A0E0B4
:10029000B2E0ECEBF6E300E00BBF02C007900D927A
:1002A000A838B107D9F727E0A8E8B5E001C01D924A
:1002B000AA37B207E1F711E0CDE3D1E000E006C0D4
:1002C00021970109802FFE010E94341BCC33D107F6
:1002D00080E00807A9F70E9456110C944D1B90CEA0
:1002E000FC01918D228D892F90E0805C9F4F821BB5
:1002F00091098F739927089580E090E0892B21F070
:100300000E94590B811125C080E090E0892B41F0BB
:1003100080E090E0892B21F00E94000081111CC038
:1003200080E090E0892B41F080E090E0892B21F083
:100330000E940000811113C080E090E0892BA1F0A1
:1003400080E090E0892B81F00E94000081110AC0BA
:1003500008950E940000D8CF0E940000E1CF0E94C3
:100360000000EACF0C9400000895CF93DF93EC01D6
:1003700088859985009711F00E947D178E8187FDF1
:1003800005C060E0DF91CF910C94CC0FDF91CF914D
:1003900008950C947D178F929F92AF92BF92CF9247
:1003A000DF92EF92FF920F931F93CF93DF93EC01B5
:1003B000CA80DB80EC80FD800E94F4106C157D0506
:1003C0008E059F0508F494C08A859B858130910530
:1003D00009F44BC0C4F5892B09F08AC00E945E184D
:1003E00025E030E040E050E00E946A184B015C01DB
:1003F0002FEF821A920AA20AB20AE885F9850285CD
:1004000010E0015011090E94F4106B017C0120E9F9
:1004100031E0D8010E943C1BC60ED71EE81EF91E13
:10042000A0EDB7E0A50194010E948618DC01CB0184
:100430008C0D9D1DAE1DBF1D8A839B83AC83BD8328
:1004400081E090E02DC08230910569F1039709F0B9
:100450004FC00E94F410DC01CB01945AA94DBA4F51
:100460008A839B83AC83BD8343C060E088E20E94A3
:100470009D0F0E94F410DC01CB0188519C4FAF4FBF
:10048000BF4F8A839B83AC83BD838FEF8C87E885C6
:10049000F9856FEF70E085850E94081082E090E09A
:1004A0009B878A8725C060E088E20E949D0F0E949A
:1004B000F410DC01CB018896A11DB11D8A839B83BA
:1004C000AC83BD836C856E516C8770E0E885F985DF
:1004D00085850E9408108C85893250F41C86E88539
:1004E000F98560E070E085850E9408101B861A86F9
:1004F000DF91CF911F910F91FF90EF90DF90CF9000
:10050000BF90AF909F908F900895FC01848DDF0184
:10051000A80FB11DA35ABF4F2C91848D90E0019676
:100520008F739927848FA689B7892C93A089B18965
:100530008C9180648C93938D848D981306C002886F
:10054000F389E02D80818F7D808308954F925F92A3
:100550006F927F928F929F92AF92BF92CF92DF92D3
:10056000EF92FF920F931F93CF93DF93DC011296CC
:100570008D919C9113976817790708F0F9C01D9623
:100580008C911D971A96EC901A971896ED91FC9104
:10059000199717968C901797482F50E01B961C912F
:1005A0001B971C960C91EB018E1164C0CC0FDD1FC4
:1005B000C60FD71FCE0FDF1F882009F443C0912C30
:1005C000A12CB12CFE01E40FF51F608170E0762FA5
:1005D0006627072E000C880B990BA50194010E9439
:1005E0009618390155244424FE01E10FF11D608164
:1005F00070E0762F6627072E000C880B990BA5015B
:1006000094010E949618B42FA32F922F882773016C
:100610006201C82AD92AEA2AFB2AC00FD11D6881A3
:1006200070E0762F6627072E000C880B990BA5012A
:1006300094010E949618C701B601622B732B842B7C
:10064000952B99C0FE01E40FF51F2081FE01E10FFB
:10065000F11D6081862F90E0A0E0B0E0BA2FA92FB5
:10066000982F8827A22BC00FD11D2881BC01CD0156
:10067000622B81C0CC0FDD1FCC0FDD1FCE0FDF1F23
:10068000F12C882009F458C0912CA12CB12CFE012A
:10069000E40FF51F608170E0762F6627072E000CAF
:1006A000880B990BA50194010E949618722E66245E
:1006B00055244424FE01EE0DFF1D608170E0762F6D
:1006C0006627072E000C880B990BA50194010E9448
:1006D00096187901DD24CC24C428D528E628F728EB
:1006E000FE01E00FF11D608170E0762F6627072E76
:1006F000000C880B990BA50194010E949618C22A40
:10070000D32AE42AF52AC10FD11D688170E0762F23
:100710006627072E000C880B990BA50194010E94F7
:100720009618B42FA32F922F8827BC01CD016C29D6
:100730007D298E299F291FC0FE01E40FF51F20810E
:10074000FE01EE0DFF1D6081862F90E0A0E0B0E07D
:10075000DC0199278827B22BFE01E00FF11D2081D3
:10076000822BC10FD11D2881BC01CD01722B03C08A
:1007700060E070E0CB01DF91CF911F910F91FF906E
:10078000EF90DF90CF90BF90AF909F908F907F9031
:100790006F905F904F9008958F929F92AF92BF920B
:1007A000CF92DF92EF92FF920F931F93CF93DF933D
:1007B000FC01828193816817790708F04CC04A01D7
:1007C000AA24BB24B82DC32ED42EE52EFF24AC2D95
:1007D000922F8781882361F0889E40011124B92DD2
:1007E000C89E60011124AD2D289FE00111249D2F8A
:1007F000D584C285E084F184DC1208C09B01220FFD
:10080000331F620F731F6E0D7F1D16C0660F771F9B
:10081000660F771F6E0D7F1D052F112722273327A7
:10082000EB01CD0DD11D882329F0089F90011124E3
:10083000232F01C0202F28838285EB01C80FD11DF3
:10084000B8838385EB01C80FD11DA8838485FB0184
:10085000E80FF11D9083DF91CF911F910F91FF90D1
:10086000EF90DF90CF90BF90AF909F908F900895C2
:10087000CF92DF92EF92FF920F931F93CF93DF936C
:10088000CDB7DEB729970FB6F894DEBF0FBECDBF48
:100890008C01DC0118968D919C911997892B09F494
:1008A000A3C00E94CF10F801C684D784E088F188E5
:1008B000DC01CB018C199D09AE09BF098C32914036
:1008C000A105B10570F3F894D80114968D919C910F
:1008D00015979A8389831896ED91FC9119977F015A
:1008E000BFEFEB1AFB0A80818987F80190810288AB
:1008F000F389E02DD80154968C91992309F430C0E6
:100900009081982B98879081809589238F838F8100
:100910008C8388E08B8358856F8149853B812C814E
:1009200089819A81D701508347FD252F3A952083ED
:10093000262F39F0441F00C000006083000000C073
:10094000F2CF38E04D9160830000019761F7D80144
:100950005396FC93EE93529749873B832C833AC07E
:100960009081982B98879081809589238F838F81A0
:100970008E8388E08D8358856F8149853D812E81E6
:1009800089819A81D701508347FD252F00C000C07F
:10099000208300C000C000C000C000C06083000011
:1009A000262F3A9541F0441F000000C000C000C04F
:1009B00000C000C0E8CF38E04D9100C0608300C0A7
:1009C000019709F7D8015396FC93EE935297498704
:1009D0003D832E839A83898378940E94CF10F801F7
:1009E00066877787808B918B29960FB6F894DEBF48
:1009F0000FBECDBFDF91CF911F910F91FF90EF9070
:100A0000DF90CF900895CF92DF92EF92FF920F93F5
:100A10001F93CF93DF93EC010E94F4100E94360DD8
:100A20008AEF93E0ECD78AE092E0E9D780E2E8D75A
:100A30008EEF93E0E4D789E194E0E1D788E290E09B
:100A4000EAD78BE194E0DBD78FE194E0CCD708853F
:100A50001985F801628170E020E030E0A90183850A
:100A600094859ADEF801638170E020E030E0A9010E
:100A70008385948591DEE884F98487010C5F1F4F9C
:100A80006701FAE0CF0ED11CF80161918F0170E08F
:100A900020E030E0A901F701838594857DDE0C1507
:100AA0001D0591F7E885F98583859485E1DE1B8630
:100AB0001A861A821B821C821D82E885F98581E0D4
:100AC0008787DF91CF911F910F91FF90EF90DF907B
:100AD000CF900895CF93DF93EC018E8187FD07C0FF
:100AE00061E00E94CC0F60E08E810E949D0F81E04A
:100AF0008983DF91CF910895CF92DF92EF92FF9299
:100B00001F93CF93DF93EC017B01142F19821F8277
:100B10001E861F86188A198AC90146E09695879510
:100B20004A95E1F7482F43704D87C90154E09695E7
:100B300087955A95E1F783708A87B901769567950D
:100B40007695679563706B87922F93709C8791E081
:100B50002F3F310511F008F090E09883481719F005
:100B600084E090E002C083E090E08E9D60018F9D64
:100B7000D00C9E9DD00C1124DD82CC82C6010E9437
:100B8000E81699878887009741F0A60160E070E039
:100B90000E94461BFB82EA8204C01D821C821B82CB
:100BA0001A821E838981882341F061E0812F0E948F
:100BB000CC0F60E0812F0E949D0F812F90E0FC01FF
:100BC000EA55FE4FE491F0E0EE0FFF1FEE58FE4FA6
:100BD000259134913B8B2A8BFC01E451FE4FE4912B
:100BE000EC8BDF91CF911F91FF90EF90DF90CF9032
:100BF00008950895CF92DF92EF92FF920F931F9383
:100C0000CF93DF938C016A017B01C0E0D0E0A701A4
:100C10009601BE01F80182819381BEDD2196C83123
:100C2000D105A9F7F80182819381DF91CF911F91BE
:100C30000F91FF90EF90DF90CF901ACECF93DF937C
:100C4000EC010E94F4106F87788B898B9A8BE88572
:100C5000F98515821E861D861C861A821B821C82BF
:100C60001D820E94F41002D78AEF93E0C8D689E370
:100C700092E0C5D680E2C4D681E494E0C0D689E192
:100C800094E0BDD68FE290E0C6D68BE194E0B7D673
:100C900089E594E0DF91CF91A6C60C947D170C9462
:100CA0007D170C947D170C947D170C947D170C9474
:100CB0007D170C947D17CF92DF92EF92FF920F93E6
:100CC0001F93CF93DF938C016A017B01C0E0D0E0DA
:100CD000A7019601BE01F801828193815DDD219615
:100CE000C233D105A9F7F80182819381DF91CF91B9
:100CF0001F910F91FF90EF90DF90CF90B9CDCF92E1
:100D0000DF92EF92FF920F931F93CF93DF93EC014B
:100D1000CA80DB80EC80FD800E94F4106C157D059C
:100D20008E059F0508F4B7C08A859B8581309105A3
:100D300009F447C08230910509F47EC0892B09F07F
:100D4000AAC008851985F801628170E02FEF3FEF96
:100D50004FEF50E0838594851FDDF801638170E0DB
:100D60002FEF3FEF4FEF50E08385948515DDE8844A
:100D7000F98487010C5F1F4F6701FAE0CF0ED11C89
:100D8000F80161918F0170E020EF30EF4FEF50E0FC
:100D9000F7018385948500DD0C151D0589F7E8852D
:100DA000F9858385948564DD82E090E09B878A875E
:100DB0000E94F410DC01CB018C509E4FAF4FBF4F0F
:100DC00066C021EF3FEF41EF5FEF6FEF7FEF888568
:100DD000998526D7082F47EE5FEF67EE7FEF88856E
:100DE000998590D7182FE885F9858385948540DD0E
:100DF00061E089E20E949D0F0E94F410DC01CB01AA
:100E00000A96A11DB11D8A839B83AC83BD832E816D
:100E10003F81215031093F832E83100F09F03BC0E1
:100E200082E090E09B878A870E94F410DC01CB016E
:100E30000596A11DB11D2BC02CEE3FEF4CEE5FEFD0
:100E400066EF7FEF88859985EBD6082F42EE5FEF3E
:100E500062EE7FEF8885998555D7182FE885F9854B
:100E60008385948505DD0E94F410DC01CB01059695
:100E7000A11DB11D8A839B83AC83BD83100F59F4E0
:100E80000E94F410DC01CB01945AA94DBA4F8A8319
:100E90009B83AC83BD83DF91CF911F910F91FF9016
:100EA000EF90DF90CF900895CF93DF93EC011B86F6
:100EB0001A861A821B821C821D820E94F410D6D5CB
:100EC0008AEF93E09CD580E293E099D580E298D5B3
:100ED00088E794E094D589E194E091D588E290E0A8
:100EE0009AD58BE194E08BD581E994E07CD561E0E3
:100EF00089E20E949D0FE885F985178660E070E021
:100F00008585DF91CF910C940810CF92DF92EF92FC
:100F1000FF920F931F93CF93DF93EC01CA80DB8086
:100F2000EC80FD800E94F4106C157D058E059F05F8
:100F300088F18C859D85892B69F500E010E720E01C
:100F400030E047EE5FEF67EE7FEF88859985FCD54F
:100F5000E885F98584818F5F883110F4848301C02E
:100F60001482648170E020ED30ED40ED50E082812C
:100F7000938112DCE885F9858281938179DC0E9476
:100F8000F410DC01CB01C296A11DB11D8A839B83A5
:100F9000AC83BD83DF91CF911F910F91FF90EF90B4
:100FA000DF90CF900895CF93DF93EC011A821B82DC
:100FB0001C821D821D861C864FEF5FEF6FEF70E075
:100FC0008885998517DE40E85FEF6FEF70E08A85CE
:100FD0009B8571DE0E94F41049D58AEF93E00FD50E
:100FE00083EF92E00CD580E20BD581EB94E007D53E
:100FF00089E194E004D58CE290E00DD58BE194E09A
:10100000FED48AEC94E0DF91CF91EDC4CF92DF92D1
:10101000EF92FF920F931F93CF93DF93EC01CA805F
:10102000DB80EC80FD800E94F4106C157D058E0540
:101030009F0508F42CC2EC85FD85E730F10508F02A
:1010400026C28827EE58FF4F8F4F0C94341B0E9406
:10105000F41042E3C42ED12CE12CF12CA70196010F
:101060000E949618CA01B901A70196010E9496181C
:101070000E9460192BED3FE049E450E40E94EE1914
:1010800020E030E048E452E40E94C7180E94511A60
:1010900020E030E040E053E40E94EE190E942F1956
:1010A000AB01770F660B770BBA015527442788856C
:1010B0009985A0DD0E94F410DC01CB01C296A11D30
:1010C000B11D8A839B83AC83BD83CF84D888E98894
:1010D000FA8880EDC80E87E0D81EE11CF11C0E9442
:1010E000F410C616D706E806F90608F0D0C10E942B
:1010F000F4106F87788B898B9A8B1E8681E090E045
:101100009D878C870E94F410B1D48AEF93E077D446
:101110008EEC92E074D480E273D481E494E06FD4D6
:1011200089E194E06CD48CE790E075D48BE194E095
:1011300066D48AEE94E0DF91CF911F910F91FF90DA
:10114000EF90DF90CF904FC40E94F41022E3C22EA4
:10115000D12CE12CF12CA70196010E949618CA010E
:10116000B901A70196010E9496180E9460192BED03
:101170003FE049E450E40E94EE1920E030E048E40A
:1011800052E40E94C7180E94511A20E030E040E06B
:1011900053E40E94EE190E942F196B01770FEE089D
:1011A000FF087601DD24CC24B701A6018885998546
:1011B00021DD0E94F4100F85188929893A89601B66
:1011C000710B820B930B26E930E040E050E00E9467
:1011D00096182E8700E010E08E8590E0EA85FB856A
:1011E000081719074CF4A7019601B8018281938171
:1011F000D3DA0F5F1F4FF0CF8281938139DB8E8569
:10120000823310F081E38E87EFD7DC01CB01C296E9
:10121000A11DB11D8A839B83AC83BD83CF84D888F5
:10122000E988FA8888E2C80E83E2D81EE11CF11C26
:10123000DBD7C616D706E806F90608F028C182E013
:1012400090E01AC100E010E020E230E04CEE5FEFE9
:1012500068EF7FEF8885998577D4F82EE885F98542
:101260008281938105DB00E010E020E230E04CEE6B
:101270005FEF68EF7FEF8A859B85FAD3182FEA85A9
:10128000FB8582819381F4DAAFD7DC01CB01C29672
:10129000A11DB11D8A839B83AC83BD831F0D09F003
:1012A000F6C0A2D7DC01CB0188539F4FAF4FBF4F91
:1012B0008A839B83AC83BD8383E090E0DDC094D7B9
:1012C000D5D38AEF93E09BD38CEA92E098D380E267
:1012D00097D381E494E093D389E194E090D386EAB4
:1012E00090E099D38BE194E08AD382E095E07BD3C0
:1012F0004FEF5FEF6FEF70E0888599857BDC40E80A
:101300005FEF6FEF70E08A859B85D5DC6DD7DC01E0
:10131000CB014E96A11DB11D8A839B83AC83BD83F7
:1013200084E090E0A9C060D7A1D38AEF93E067D3AF
:1013300087E892E064D380E263D381E494E05FD3F2
:1013400089E194E05CD38FEA90E065D38BE194E08F
:1013500056D389E095E047D347D788D38AEF93E007
:101360004ED387E892E04BD380E24AD381E494E005
:1013700046D389E194E043D380EB90E04CD38BE1FA
:1013800094E03DD382E095E02ED340E050E0BA01F6
:10139000888599852FDC40E050E0BA018A859B85DD
:1013A0008ADC22D7DC01CB0180579E4FAF4FBF4F65
:1013B0008A839B83AC83BD8385E090E05DC014D7B6
:1013C00055D38AEF93E01BD385E692E018D380E2F1
:1013D00017D381E494E013D389E194E010D38AEB2E
:1013E00090E019D38BE194E00AD384E195E0FBD23D
:1013F0004FEF5FEF6FEF70E088859985FBDB40E88A
:101400005FEF6FEF70E08A859B8555DCEDD6DC01E0
:10141000CB0184549D4FAF4FBF4F28C000E010E078
:1014200098014CEE5FEF66EF7FEF888599858CD34E
:10143000F82EE885F985828193811ADA00E010E0C0
:10144000980141EF5FEF64EF7FEF8A859B8510D3B2
:10145000182FEA85FB85828193810ADA1F0D79F0C6
:10146000C3D6DC01CB018896A11DB11D8A839B8365
:10147000AC83BD8386E090E09D878C8708C080E0C8
:101480009CE5A6E2B5E08A839B83AC83BD83DF91B4
:10149000CF911F910F91FF90EF90DF90CF90089523
:1014A000FC0171876087A0D6E1D28AEF93E0A7D2D2
:1014B0008DE493E0A4D280E2A3D28EEF93E09FD29A
:1014C00089E194E09CD28BE190E0A5D28BE194E09D
:1014D00096D28BE195E087C208950895CF93DF936C
:1014E000EC018A85833009F445C0C8F4813081F16C
:1014F000823009F066C088E08D8780E28E878DE0BB
:101500008A838EE08B838AE08C838BE08D838CE0F2
:101510008E838FE08F8380E1888781E151C08430A2
:10152000E9F1853009F04DC08BE08D8783E28E872D
:101530008BE28A838CE28B8388E28C8389E28D83C1
:101540008AE28E838DE28F838EE288878FE238C0B5
:1015500097E09D872FE12E8723E02A8324E02B83C9
:101560001C828D8382E08E8385E08F8386E088876E
:10157000998727C089E08D8781E28E8787E18A83FA
:1015800088E18B8384E18C8385E18D8386E18E8382
:1015900089E18F838AE188878BE112C08AE08D8799
:1015A00082E28E8791E29A838B838EE18C838FE136
:1015B0008D8380E28E8383E28F8384E2888785E255
:1015C000898761E08D85E8D462E08E85DF91CF91D7
:1015D000E3C4FC01868589D421E0892B09F420E04D
:1015E000822F089508950895089508950895CF923B
:1015F000DF92EF92FF920F931F93CF93DF936C01D3
:101600007A018B01C0E0D0E0CE15DF0589F0D8016A
:101610006D918D01D601ED91FC910190F081E02D4D
:10162000C6011995892B11F47E0102C02196ECCFD9
:10163000C701DF91CF911F910F91FF90EF90DF9045
:10164000CF900895089580E090E00895FC01538DB7
:10165000448D252F30E0842F90E0821B930B54178C
:1016600010F0CF96089501970895FC01918D828D19
:10167000981761F0828DDF01A80FB11D5D968C91E6
:10168000928D9F5F9F73928F90E008958FEF9FEFF1
:101690000895FC01918D828D981731F0828DE80FAD
:1016A000F11D858D90E008958FEF9FEF08950E94C2
:1016B000421B89E995E00E94700121E0892B09F421
:1016C00020E0822F0895EF92FF920F931F93CF9304
:1016D000DF93EC0181E0888F9B8D8C8D981305C082
:1016E000E889F989808185FD24C0F62E0B8D10E0F4
:1016F0000F5F1F4F0F731127E02E8C8DE8120CC067
:101700000FB607FCFACFE889F989808185FFF5CF0C
:10171000CE010E948502F1CF8B8DFE01E80FF11DF5
:10172000E35AFF4FF0820B8FEA89FB898081806248
:1017300007C0EE89FF896083E889F9898081806428
:10174000808381E090E0DF91CF911F910F91FF9016
:10175000EF900895CF93DF93EC01888D8823C9F033
:10176000EA89FB89808185FD05C0A889B9898C91AA
:1017700086FD0FC00FB607FCF5CF808185FFF2CF45
:10178000A889B9898C9185FFEDCFCE010E94850291
:10179000E7CFDF91CF9108951F920F920FB60F926E
:1017A00011240BB60F922F933F934F935F936F9338
:1017B0007F938F939F93AF93BF93EF93FF9389E9A9
:1017C00095E00E948502FF91EF91BF91AF919F91AB
:1017D0008F917F916F915F914F913F912F910F90DA
:1017E0000BBE0F900FBE0F901F9018951F920F9277
:1017F0000FB60F9211240BB60F922F938F939F93D6
:10180000EF93FF93E091A905F091AA058081E09103
:10181000AF05F091B00582FD12C090818091B205B4
:101820008F5F8F732091B305821751F0E091B2055D
:10183000F0E0E756FA4F958F8093B20501C08081A2
:10184000FF91EF919F918F912F910F900BBE0F9071
:101850000FBE0F901F9018956F927F928F929F925C
:10186000AF92BF92CF92DF92EF92FF920F931F93AE
:10187000CF93DF9338017724812E922EA32EBB24A1
:10188000F401FF27D601BB278D2C9E2CAF2CBB2447
:101890005401BB24CE2DD0E0820F911D8C179D07E3
:1018A0003CF08F3F910529F024F08FEF90E001C0CC
:1018B000CE018F01060F171F0A151B053CF00F3FC5
:1018C000110529F024F00FEF10E001C08501460D4D
:1018D000571D4A175B073CF04F3F510529F024F094
:1018E0004FEF50E001C0AD01012E000C220B330B75
:1018F000322F212F102F0027092E000CAA0BBB0B13
:10190000DC0199278827802B912BA22BB32B052E46
:10191000000C660B770B8C019D01042B152B262BDD
:10192000372BC901B801DF91CF911F910F91FF9023
:10193000EF90DF90CF90BF90AF909F908F907F906F
:101940006F900895009761F0FC0101900020E9F785
:101950003197AF01481B590BBC0189E995E047CE8F
:1019600080E090E008958F929F92AF92BF920F9384
:101970001F93CF93DF93CDB7DEB7A1970FB6F8943F
:10198000DEBF0FBECDBF19A2423008F44AE08E017F
:101990000F5D1F4F842E912CA12CB12CA501940119
:1019A0000E949618E62FB901CA0101501109EA30C8
:1019B00014F4E05D01C0E95CD801EC93232B242BE7
:1019C000252B61F7C801BEDFA1960FB6F894DEBFE4
:1019D0000FBECDBFDF91CF911F910F91BF90AF9000
:1019E0009F908F900895CF93DF93ACDFEC0184E854
:1019F00095E0A8DF8C0F9D1FDF91CF910895A2CFB6
:101A0000E0919905F0919A050190F081E02D682F01
:101A100089E995E01994CF92DF92EF92FF92CF93EC
:101A2000DF936C01990FEE08FF08F7FE15C08DE2F9
:101A3000E7DFEC0166277727CB016C197D098E095A
:101A40009F094AE090DF8C0F9D1FDF91CF91FF909F
:101A5000EF90DF90CF9008954AE0C701B601DF9183
:101A6000CF91FF90EF90DF90CF907DCF4AE07BCF7A
:101A70002F923F924F925F926F927F928F929F929E
:101A8000AF92BF92CF92DF92EF92FF920F931F938C
:101A9000CF93DF93CDB7DEB728970FB6F894DEBFAC
:101AA0000FBECDBF9A8389835B011A010B831C8310
:101AB0002D833E8318861F82E981FA81828093807C
:101AC0006F817885C4010E94A6022B013C01CB8066
:101AD000DC80ED80FE808B019C014CEE5FEFB1015C
:101AE000C501BADE6B017C019B01AC016F81788579
:101AF000C4010E94CC038F819885019698878F83BB
:101B0000C297D1F681E090E04C145D046E047F042E
:101B100011F480E090E028960FB6F894DEBF0FBE77
:101B2000CDBFDF91CF911F910F91FF90EF90DF908C
:101B3000CF90BF90AF909F908F907F906F905F906D
:101B40004F903F902F9008952F923F924F925F9227
:101B50006F927F928F929F92AF92BF92CF92DF92BD
:101B6000EF92FF920F931F93CF93DF93CDB7DEB722
:101B700028970FB6F894DEBF0FBECDBF9A83898336
:101B80005B011A010B831C832D833E8318861F8201
:101B9000E981FA81828093806F817885C4010E94F7
:101BA000A6022B013C01CB80DC80ED80FE808B0106
:101BB0009C01A1016CEE7FEFC5014EDE6B017C0143
:101BC0009B01AC016F817885C4010E94CC038F8199
:101BD0009885019698878F834897D1F681E090E0A9
:101BE0004C145D046E047F0411F480E090E02896AC
:101BF0000FB6F894DEBF0FBECDBFDF91CF911F911E
:101C00000F91FF90EF90DF90CF90BF90AF909F909B
:101C10008F907F906F905F904F903F902F9008959E
:101C20002F923F924F925F926F927F928F929F92EC
:101C3000AF92BF92CF92DF92EF92FF920F931F93DA
:101C4000CF93DF93CDB7DEB72B970FB6F894DEBFF7
:101C50000FBECDBF5C017D836C835F834E8339876C
:101C600028871C0122E0220E311C04969B838A8364
:101C70001982F10181911F01282F30E03B872A87CB
:101C8000F50183849484B901C4010E94A6022B014A
:101C90003C01C12CD12C76018B019C0148855985D2
:101CA0006E817F818C819D81D7DD9B01AC014616C1
:101CB00057066806790611F0F1E0F9836A857B859D
:101CC000C4010E94CC032A813B812216330689F687
:101CD00089812B960FB6F894DEBF0FBECDBFDF9182
:101CE000CF911F910F91FF90EF90DF90CF90BF9019
:101CF000AF909F908F907F906F905F904F903F90AC
:101D00002F9008952F923F924F925F926F927F9201
:101D10008F929F92AF92BF92CF92DF92EF92FF92FB
:101D20000F931F93CF93DF93CDB7DEB729970FB6ED
:101D3000F894DEBF0FBECDBF5C017D836C835F83F3
:101D40004E831C0124E0220E311C0A969B838A8359
:101D50001982F10181911F01282F30E039872887EE
:101D6000F50183849484B901C4010E94A6022B0169
:101D70003C01C12CD12C76018B019C014E815F81ED
:101D80006C817D8181EF9FEF67DD9B01AC01461681
:101D900057066806790611F0F1E0F98368857985C0
:101DA000C4010E94CC032A813B812216330689F6A6
:101DB000898129960FB6F894DEBF0FBECDBFDF91A3
:101DC000CF911F910F91FF90EF90DF90CF90BF9038
:101DD000AF909F908F907F906F905F904F903F90CB
:101DE0002F900895CF92DF92EF92FF92CF93DF93DF
:101DF0006C01990FEE08FF08F7FE10C08DE200DEBF
:101E0000EC0166277727CB016C197D098E099F09A4
:101E10004AE0A9DD7C01EC0EFD1E05C04AE0C701C9
:101E2000B601A1DD7C0184E895E08CDD8E0D9F1D5F
:101E3000DF91CF91FF90EF90DF90CF90089590E0E9
:101E4000FC013197E231F10508F04EC08827E758D0
:101E5000FF4F8F4F0C94341B809180008F7703C00D
:101E6000809180008F7D8093800008958091800014
:101E7000877FF9CF84B58F7702C084B58F7D84BD0D
:101E800008958091B0008F7703C08091B0008F7D5E
:101E90008093B0000895809190008F7707C0809163
:101EA00090008F7D03C080919000877F8093900089
:101EB00008958091A0008F7707C08091A0008F7D4A
:101EC00003C08091A000877F8093A0000895809137
:101ED00020018F7707C0809120018F7D03C0809102
:101EE0002001877F809320010895CF93DF93282FCF
:101EF00030E0F901EE5CFD4F8491F901E451FE4FB1
:101F0000D491F901EA55FE4FC491CC2389F0811197
:101F100096DFEC2FF0E0EE0FFF1FE457FE4FA59188
:101F2000B491EC91ED2381E090E021F480E002C0D7
:101F300080E090E0DF91CF9108951F93CF93DF93DE
:101F4000282F30E0F901EE5CFD4F8491F901E45156
:101F5000FE4FD491F901EA55FE4FC491CC23C1F054
:101F6000162F81116CDFEC2FF0E0EE0FFF1FEE5803
:101F7000FE4FA591B4918FB7F894111105C09C91B3
:101F8000ED2FE095E92302C0EC91ED2BEC938FBF90
:101F9000DF91CF911F910895CF93DF9390E0FC01E3
:101FA000E451FE4F2491FC01EA55FE4F84918823B1
:101FB00061F190E0880F991FFC01E85AFE4FC5912E
:101FC000D491FC01EE58FE4FA591B491611109C066
:101FD0009FB7F8948881209582238883EC912E23E3
:101FE0000BC0623061F49FB7F8943881822F8095DE
:101FF00083238883EC912E2B2C939FBF06C08FB731
:10200000F894E8812E2B28838FBFDF91CF9108951C
:102010001F93CF93DF93182FEB0161E0BDDF209773
:1020200011F460E004C0CF3FD10531F461E0812FAD
:10203000DF91CF911F9181CFE12FF0E0EE5CFD4F5A
:10204000E4914E2F50E0FA013197E231F10508F0AA
:102050009DC08827E557FF4F8F4F0C94341B84B5E4
:10206000806884BDC7BD97C084B5806284BDC8BD8B
:1020700092C080918000806880938000D093890016
:10208000C093880088C08091800080628093800027
:10209000D0938B00C0938A007EC0809180008860BE
:1020A00080938000D0938D00C0938C0074C0809189
:1020B000B00080688093B000C093B3006CC0809182
:1020C000B00080628093B000C093B40064C080917F
:1020D0009000806880939000D0939900C0939800FE
:1020E0005AC080919000806280939000D0939B00B2
:1020F000C0939A0050C080919000886080939000B7
:10210000D0939D00C0939C0046C08091A000806841
:102110008093A0008091A0008F7B8093A000D0933B
:10212000A900C093A80037C08091A000806280936E
:10213000A000D093AB00C093AA002DC08091A00056
:1021400088608093A000D093AD00C093AC0023C002
:1021500080912001806880932001D0932901C09351
:10216000280119C080912001806280932001D093C2
:102170002B01C0932A010FC08091200188608093B9
:102180002001D0932D01C0932C0105C0C038D1058A
:102190000CF04CCF46CFDF91CF911F9108953FB700
:1021A000F8948091720790917307A0917407B09191
:1021B000750726B5A89B05C02F3F19F00196A11DF4
:1021C000B11D3FBFBA2FA92F982F8827820F911DCD
:1021D000A11DB11DBC01CD0142E0660F771F881F14
:1021E000991F4A95D1F708952FB7F89460916E071B
:1021F00070916F0780917007909171072FBF0895BC
:102200001F920F920FB60F9211242F933F938F932B
:102210009F93AF93BF9380916E0790916F07A091AA
:102220007007B091710730916D0723E0230F2D37B0
:1022300020F40196A11DB11D05C026E8230F0296CA
:10224000A11DB11D20936D0780936E0790936F07BA
:10225000A0937007B09371078091720790917307F4
:10226000A0917407B09175070196A11DB11D8093CF
:10227000720790937307A0937407B0937507BF918B
:10228000AF919F918F913F912F910F900FBE0F9023
:102290001F9018958EE297E00E94B50183E497E0C5
:1022A0000E94B50188E597E00C94B501CF93DF93C8
:1022B0001F921F92CDB7DEB7789484B5826084BD3B
:1022C00084B5816084BD85B5826085BD85B581603A
:1022D00085BD80916E00816080936E0010928100B8
:1022E0008091810082608093810080918100816073
:1022F0008093810080918000816080938000809134
:10230000B10084608093B1008091B00081608093BF
:10231000B000809191008260809391008091910043
:102320008160809391008091900081608093900003
:102330008091A10082608093A1008091A1008160C2
:102340008093A1008091A00081608093A000809183
:10235000210182608093210180912101816080931D
:1023600021018091200181608093200180917A0079
:10237000846080937A0080917A00826080937A00F2
:1023800080917A00816080937A0080917A008068E1
:1023900080937A001092C100E091A905F091AA05FE
:1023A00082E0E82EE082E091A505F091A60510827A
:1023B000E091A705F091A8058FEC80831092B105FC
:1023C000E091AD05F091AE0586E08083E091AB052C
:1023D000F091AC05808180618083E091AB05F09144
:1023E000AC05808188608083E091AB05F091AC05FD
:1023F000808180688083E091AB05F091AC0580819D
:102400008F7D808361E08DE0C7DD88E597E00E94E5
:102410006A0588E597E00E94380483E497E00E940B
:102420006A0583E497E00E9438048EE297E00E94F8
:102430006A058EE297E00E943804FF24F394F0923C
:10244000280708E517E010932A07009329078EE173
:1024500097E044D8E092180710931A0700931907E1
:102460008EE097E03BD883E08093080710930A073B
:10247000009309078EEF96E031D884E08093F80648
:102480001093FA060093F9068EEE96E027D885E0C1
:102490008093E8061093EA060093E9068EED96E035
:1024A0001DD88EE197E090939A06809399068EE06E
:1024B00097E090938E0680938D068EEF96E0909332
:1024C0008206809381068EEE96E090937606809346
:1024D00075068EED96E090936A06809369066EE12C
:1024E00077E081ED96E00E94500A6EE077E084ECA0
:1024F00096E00E94500A6EEF76E087EB96E00E942D
:10250000500A6EEE76E08AEA96E00E94500A6EED7E
:1025100076E08DE996E00E94500A0BE516E08EE227
:1025200097E090935E0680935D0610925F06F092AE
:10253000600662E084E230DD83E497E090935A061F
:102540008093590610933F0600933E0687E596E078
:1025500090934106809340061093520600935106D3
:1025600081ED96E0909398058093970584EC96E032
:10257000909396058093950587EB96E0909394054C
:10258000809393058AEA96E0909392058093910553
:102590008DE996E09093900580938F0589E496E00D
:1025A00090938E0580938D05E091D106F091D2062F
:1025B0000480F581E02D81ED96E0199580919505D7
:1025C00090919605DC01ED91FC910480F581E02D60
:1025D00019958091930590919405DC01ED91FC9102
:1025E0000480F581E02D19958091910590919205D7
:1025F000DC01ED91FC910480F581E02D199580912D
:102600008F0590919005DC01ED91FC910480F5819E
:10261000E02D199580918D0590918E05DC01ED914D
:10262000FC910480F581E02D1995DEDD609389052C
:1026300070938A0580938B0590938C059AEA292ED6
:1026400096E0392E2DE9422E26E0522E8E010F5FA4
:102650001F4F31E9632E36E0732EC8018A57974029
:102660007C0145E8C42E46E0D42E59E7A52E56E05D
:10267000B52E6DE6862E66E0962E80912D0781118F
:1026800006C08EE197E00E94E90A81115BC180914A
:102690001D07811106C08EE097E00E94E90A8111B2
:1026A0007FC180910D07811106C08EEF96E00E94D8
:1026B000E90A811185C18091FD06811106C08EEE67
:1026C00096E00E94E90A81118AC18091ED0681118C
:1026D00006C08EED96E00E94E90A81118FC18091BB
:1026E0002D07882309F45BC08EE197E00E94E90A78
:1026F000811155C079DDBAD98AEF93E080D980E89D
:1027000093E07DD980E27CD988E395E078D989E1AE
:1027100094E075D989EA90E07ED98BE194E06FD995
:102720008DE695E06CD98CE194E069D981E090E088
:1027300059DB5ADD9BD98AEF93E061D980E893E0B9
:102740005ED980E25DD988E395E059D989E194E0CA
:1027500056D98AEA90E05FD98BE194E050D98BE7B3
:1027600095E04DD98CE194E04AD98091760790911B
:102770007707009709F051C1FA82E98289819A812D
:1027800031DB7092980560929705E0919106F09187
:1027900092060480F581E02D81E996E019958091FB
:1027A0001D07882339F08EE097E00E94E90A88230C
:1027B00009F44EC180910D07882339F08EEF96E021
:1027C0000E94E90A882309F47AC18091FD068823D2
:1027D00039F08EEE96E00E94E90A882309F4A7C139
:1027E0008091ED06882339F08EED96E00E94E90A8B
:1027F000882309F4D4C180916006882389F184E29A
:1028000074DB892B69F5F0DC31D98AEF93E0F7D8D6
:1028100080E893E0F4D880E2F3D888E395E0EFD83D
:1028200089E194E0ECD88EEC90E0F5D88BE194E06F
:10283000E6D88DE495E0E3D88CE194E0E0D88CE52F
:1028400095E0D1D886E396E090938E0580938D0530
:10285000E0913606F09137060480F581E02D199558
:102860008091970590919805DC01ED91FC9106808F
:10287000F781E02D19958091950590919605DC01E1
:10288000ED91FC910680F781E02D199580919305DB
:1028900090919405DC01ED91FC910680F781E02D8B
:1028A00019958091910590919205DC01ED91FC9133
:1028B0000680F781E02D199580918F059091900504
:1028C000DC01ED91FC910680F781E02D1995809156
:1028D0008D0590918E05DC01ED91FC910680F781CC
:1028E000E02D199581DC2091890530918A05409170
:1028F0008B0550918C05DC01CB01821B930BA40B43
:10290000B50B893E9340A105B105C8F06DDC60931D
:10291000890570938A0580938B0590938C0580912F
:102920008805811107C061E08DE007DB81E08093BD
:10293000880505C060E08DE000DB109288050E94EC
:102940007C019BCE51DC92D88AEF93E058D880E886
:1029500093E055D880E254D888E395E050D889E1D7
:1029600094E04DD888E890E056D88BE194E047D8C1
:1029700081E695E044D88CE194E041D881E090E094
:1029800031DA81ED96E09093980580939705E09178
:10299000D106F091D2060480F581E02D199577CE0D
:1029A000A4ECB6E0B0939605A0939505E091C4061B
:1029B000F091C5060480F581E02DCD01199571CE09
:1029C00087EB96E09093940580939305E091B7068A
:1029D000F091B8060480F581E02D19956CCE309207
:1029E000920520929105E091AA06F091AB06048031
:1029F000F581E02D8AEA96E0199567CE5092900510
:102A000040928F05E0919D06F0919E060480F5812D
:102A1000E02D8DE996E0199562CEA801481B590B6F
:102A2000E0917807F091790780E090E0309759F0D5
:102A30009C012E5F3F4F80819181820F931F028006
:102A4000F381E02DF3CF840F951F9A83898396CE6F
:102A5000CBDB0CD88AEF93E00E94FF0C80E893E078
:102A60000E94FF0C80E20E94000D88E395E00E9426
:102A7000FF0C89E194E00E94FF0C81EB90E00E9442
:102A80000B0D8BE194E00E94FF0C8DE695E00E9417
:102A9000FF0C8CE194E00E94FF0C82E090E0A2D950
:102AA000D0929605C0929505E0918506F091860634
:102AB0000480F581E02D85E896E019957BCE94DBC6
:102AC0000E94360D8AEF93E00E94FF0C80E893E0AD
:102AD0000E94FF0C80E20E94000D88E395E00E94B6
:102AE000FF0C89E194E00E94FF0C87EB90E00E94CC
:102AF0000B0D8BE194E00E94FF0C8DE695E00E94A7
:102B0000FF0C8CE194E00E94FF0C83E090E06AD916
:102B1000B0929405A0929305E0917906F0917A061F
:102B20000480F581E02D89E796E019954ECE5CDBB7
:102B30000E94360D8AEF93E00E94FF0C80E893E03C
:102B40000E94FF0C80E20E94000D88E395E00E9445
:102B5000FF0C89E194E00E94FF0C8DEB90E00E9455
:102B60000B0D8BE194E00E94FF0C8DE695E00E9436
:102B7000FF0C8CE194E00E94FF0C84E090E032D9DD
:102B80009092920580929105E0916D06F0916E060B
:102B90000480F581E02D8DE696E0199521CE24DBA9
:102BA0000E94360D8AEF93E00E94FF0C80E893E0CC
:102BB0000E94FF0C80E20E94000D88E395E00E94D5
:102BC000FF0C89E194E00E94FF0C84EC90E00E94ED
:102BD0000B0D8BE194E00E94FF0C8DE695E00E94C6
:102BE000FF0C8CE194E00E94FF0C85E090E0FAD8A5
:102BF000A1E6B6E0B0939005A0938F05E091610641
:102C0000F09162060480F581E02DCD011995F3CD98
:102C1000E9E9F5E01382128288EE93E0A0E0B0E0EB
:102C200084839583A683B78380E993E0918380832F
:102C300085EC90E09587848784EC90E09787868781
:102C400080EC90E0918B808B81EC90E0938B828B79
:102C500082EC90E0958B848B86EC90E0978B868B52
:102C6000118E128E138E148E26E030E046E162E360
:102C700070E088E597E00E947C0526E030E047E1BF
:102C800062E370E083E497E00E947C0522E530E097
:102C900048E168E170E08EE297E00E947C0586EFF3
:102CA00093E090931F0780931E0790930F078093E4
:102CB0000E079093FF068093FE069093EF06809395
:102CC000EE069093DF068093DE06E1EDF6E01282D9
:102CD00013821482158282EE93E091838083E4EC68
:102CE000F6E0128213821482158291838083E7EBCF
:102CF000F6E0128213821482158291838083EAEABD
:102D0000F6E0128213821482158291838083EDE9AA
:102D1000F6E0128213821482158291838083E1E9A6
:102D2000F6E012821382148215828AEC93E091837A
:102D3000808313861286E5E8F6E0128213821482FD
:102D400015829183808313861286E9E7F6E012826A
:102D50001382148215829183808313861286EDE696
:102D6000F6E0128213821482158291838083138687
:102D70001286E1E6F6E012821382148215829183B4
:102D800080831386128682EC93E090935C06809396
:102D90005B068AEB93E09093580680935706E9E42C
:102DA000F6E012821382148215828EEA93E09183F8
:102DB0008083E6E3F6E0128213821482158282EAAF
:102DC00093E09183808381E090E0958784870895E4
:102DD000CF93DF938230910510F482E090E0E09190
:102DE0007807F091790720E030E0C0E0D0E030973C
:102DF00011F14081518148175907C0F04817590710
:102E000061F482819381209719F09B838A832BC080
:102E1000909379078093780726C02115310519F022
:102E20004217530718F49A01BE01DF01EF01028037
:102E3000F381E02DDCCF2115310509F1281B390B79
:102E40002430310590F412968D919C911397611561
:102E5000710521F0FB019383828304C0909379076D
:102E600080937807FD01329644C0FD01E20FF31F05
:102E700081939193225031092D933C933AC0209134
:102E8000760730917707232B41F42091020230918D
:102E90000302309377072093760720910002309148
:102EA00001022115310541F42DB73EB740910402CE
:102EB00050910502241B350BE0917607F0917707BE
:102EC000E217F307A0F42E1B3F0B2817390778F001
:102ED000AC014E5F5F4F2417350748F04E0F5F1F60
:102EE00050937707409376078193919302C0E0E077
:102EF000F0E0CF01DF91CF9108950F931F93CF930F
:102F0000DF93009709F48CC0FC0132971382128280
:102F100000917807109179070115110581F420813E
:102F20003181820F931F2091760730917707281700
:102F3000390779F5F0937707E093760771C0D801E8
:102F400040E050E0AE17BF0750F412962D913C912F
:102F50001397AD012115310509F1D901F3CF9D0179
:102F6000DA013383228360817181860F971F821774
:102F7000930769F4EC0128813981260F371F2E5FF2
:102F80003F4F318320838A819B8193838283452BAA
:102F900029F4F0937907E093780742C01396FC93E5
:102FA000EE931297ED01499159919E01240F351F1F
:102FB000E217F30771F480819181840F951F0296C7
:102FC00011969C938E938281938113969C938E93FA
:102FD0001297E0E0F0E0D80112968D919C91139742
:102FE000009719F0F8018C01F6CF8D919C91980112
:102FF0002E5F3F4F820F931F209176073091770706
:103000002817390769F4309729F41092790710923C
:10301000780702C013821282109377070093760715
:10302000DF91CF911F910F9108958F929F92AF9250
:10303000BF92CF92DF92EF92FF92CF93DF93EC019A
:10304000688179818A819B8161157105810591056E
:1030500021F464E279ED8BE597E02DE133EF41E077
:1030600050E038D049015A019B01AC01A7EAB1E414
:103070004DD06B017C01ACEEB4EFA501940152D0B0
:10308000DC01CB018C0D9D1DAE1DBF1DB7FF03C024
:103090000197A109B04888839983AA83BB83BC01A7
:1030A000CD019F77DF91CF91FF90EF90DF90CF9090
:1030B000BF90AF909F908F900895B7CF86E092E039
:1030C000B4CF609306027093070280930802909336
:1030D00009020895052E97FB16F400940FD057FDB2
:1030E00005D024D007FC02D046F408C05095409586
:1030F000309521953F4F4F4F5F4F089590958095A4
:10310000709561957F4F8F4F9F4F089531D0A59F48
:10311000900DB49F900DA49F800D911D11240895D2
:10312000B7FFF4CFF3DF821B930B0895A1E21A2EB1
:10313000AA1BBB1BFD010DC0AA1FBB1FEE1FFF1F5B
:10314000A217B307E407F50720F0A21BB30BE40BAB
:10315000F50B661F771F881F991F1A9469F76095F2
:103160007095809590959B01AC01BD01CF010895AC
:10317000A29FB001B39FC001A39F700D811D1124B8
:10318000911DB29F700D811D1124911D08950CD0C9
:10319000EBC0E3D040F0DAD030F021F45F3F19F01B
:1031A000CCC0511115C1CFC0F0D098F39923C9F309
:1031B0005523B1F3951B550BBB27AA27621773073D
:1031C000840738F09F5F5F4F220F331F441FAA1FF1
:1031D000A9F333D00E2E3AF0E0E830D091505040B1
:1031E000E695001CCAF729D0FE2F27D0660F771F5F
:1031F000881FBB1F261737074807AB07B0E809F041
:10320000BB0B802DBF01FF2793585F4F2AF09E3FD5
:10321000510568F092C0DCC05F3FECF3983EDCF3F0
:10322000869577956795B795F7959F5FC9F7880F4E
:10323000911D9695879597F90895E1E0660F771FA0
:10324000881FBB1F621773078407BA0720F0621B31
:10325000730B840BBA0BEE1F88F7E095089504D02A
:103260006894B111B5C0089598D088F09F5790F038
:10327000B92F9927B751A0F0D1F0660F771F881F9B
:10328000991F1AF0BA95C9F712C0B13081F09FD0DA
:10329000B1E008959CC0672F782F8827B85F39F078
:1032A000B93FCCF3869577956795B395D9F73EF4FA
:1032B00090958095709561957F4F8F4F9F4F0895A2
:1032C000E89409C097FB3EF49095809570956195C0
:1032D0007F4F8F4F9F4F9923A9F0F92F96E9BB2776
:1032E0009395F695879577956795B795F111F8CFF2
:1032F000FAF4BB0F11F460FF1BC06F5F7F4F8F4F5D
:103300009F4F16C0882311F096E911C0772321F052
:103310009EE8872F762F05C0662371F096E8862FEA
:1033200070E060E02AF09A95660F771F881FDAF741
:10333000880F9695879597F9089597F99F6780E884
:1033400070E060E008959FEF80EC089500240A94F7
:103350001616170618060906089500240A94121670
:103360001306140605060895092E0394000C11F4A3
:10337000882352F0BB0F40F4BF2B11F460FF04C050
:103380006F5F7F4F8F4F9F4F089557FD9058440FA9
:10339000551F59F05F3F71F04795880F97FB991FB4
:1033A00061F09F3F79F08795089512161306140671
:1033B000551FF2CF4695F1DF08C0161617061806FE
:1033C000991FF1CF86957105610508940895E894D9
:1033D000BB2766277727CB0197F908950BD0C4CF79
:1033E000B5DF28F0BADF18F0952309F0A6CFABCFF0
:1033F0001124EECFCADFA0F3959FD1F3950F50E0D3
:10340000551F629FF001729FBB27F00DB11D639F96
:10341000AA27F00DB11DAA1F649F6627B00DA11D3C
:10342000661F829F2227B00DA11D621F739FB00DE2
:10343000A11D621F839FA00D611D221F749F332752
:10344000A00D611D231F849F600D211D822F762FEB
:103450006A2F11249F5750408AF0E1F088234AF0E8
:10346000EE0FFF1FBB1F661F771F881F9150504034
:10347000A9F79E3F510570F060CFAACF5F3FECF3F4
:10348000983EDCF3869577956795B795F795E79520
:103490009F5FC1F7FE2B880F911D9695879597F931
:1034A00008959F9305D00F9007FCEE5F28C04BCF87
:1034B00074DFE8F3E894E0E0BB279F57F0F02AEDD3
:1034C0003FE049EC06C0EE0FBB0F661F771F881F59
:1034D00028F0B23A62077307840728F0B25A620BE9
:1034E000730B840BE3959A9572F7803830F49A95B4
:1034F000BB0F661F771F881FD2F7904873C0EF93EA
:10350000E0FF06C0A2EA2AED3FE049EC5FEB15D0F0
:103510002BDF0F90039401FC9058EAE3F1E06EC0BA
:1035200015DF30F01ADF20F031F49F3F11F41EF464
:103530000ACF0EF4E095E7FB00CFE92F26DF80F3FA
:10354000BA17620773078407950718F071F49EF5A0
:103550003ECF0EF4E0950B2EBA2FA02D0B01B90132
:1035600090010C01CA01A0011124FF27591B99F0F9
:10357000593F50F4503E68F11A16F040A22F232F05
:10358000342F4427585FF3CF469537952795A79555
:10359000F0405395C9F77EF41F16BA0B620B730BFC
:1035A000840BBAF09150A1F0FF0FBB1F661F771F6D
:1035B000881FC2F70EC0BA0F621F731F841F48F422
:1035C000879577956795B795F7959E3F08F0B3CFA8
:1035D0009395880F08F09927EE0F97958795089592
:1035E0009F3F31F0915020F4879577956795B79577
:1035F000880F911D9695879597F908959F938F93BE
:103600007F936F93FF93EF939B01AC01E7DEEF9104
:10361000FF9105D02F913F914F915F91DFCEDF93C6
:10362000CF931F930F93FF92EF92DF927B018C0158
:10363000689405C0DA2EEF01DDDEFE01E894A59165
:103640002591359145915591AEF3EF0176DFFE015D
:103650009701A801DA9479F7DF90EF90FF900F912E
:103660001F91CF91DF910895EE0FFF1F881F8BBF31
:103670000790F691E02D19947BDDB7FF0895821B2A
:10368000930B089581E090E0F89407C0DC0101C03D
:103690006D9341505040E0F7089511E0CDE3D1E043
:1036A00000E005C0802FFE01DFDF2196011DCE3333
:0C36B000D10780E00807B1F7F894FFCFC5
:1036BC0000007A0780000100000076697274756161
:1036CC006C20766F69642054696546696768746517
:1036DC0072506C61797347616D653A3A73746172BB
:1036EC0074536365656E2829007669727475616C14
:1036FC0020766F6964204465617468537461724507
:10370C0078706C6F64653A3A737461727453636564
:10371C00656E282900766F6964204465617468536E
:10372C007461724578706C6F64653A3A646F466C7C
:10373C0061736832282900766F696420446561746E
:10374C0068537461724578706C6F64653A3A646F53
:10375C0046617374426C61636B282900766F6964EF
:10376C00204465617468537461724578706C6F6441
:10377C00653A3A646F466C61736831282900766F3C
:10378C006964204465617468537461724578706C27
:10379C006F64653A3A646F52696E675468726F620F
:1037AC002829007669727475616C20766F696420C3
:1037BC00446561746853746172506C617947616DD2
:1037CC00653A3A7374617274536365656E282900A7
:1037DC007669727475616C20766F696420546965C2
:1037EC00466967687465724578706C6F64653A3ABF
:1037FC007374617274536365656E282900766F6902
:10380C00642054696546696768746572506C6179A7
:10381C007347616D653A3A6C696E6B46696768749B
:10382C00657228546965466967687465722A29004F
:10383C00766F6964206C6F6F70282900000000009F
:10384C00630BF70A260BAA0B7001350B490B000012
:10385C000000F60A59061E06060800000000F40ACD
:10386C005506D307850700000000F50A570600002F
:10387C000000F905C901000000006D0A510654074B
:10388C007F060000000000000000570B570B0000E3
:10389C0000006C0A4F060305CB0100000000F30A80
:1038AC004D0600000000F20A53063A5B20002E2E53
:1038BC005C54696546696768746572506C617973AC
:1038CC0047616D652E637070003A005D20200054D6
:1038DC00696546696768746572506C617973476194
:1038EC006D653A3A7374617274536365656E282919
:1038FC00002E2E5C44656174685374617245787057
:10390C006C6F64652E6370700044656174685374E9
:10391C0061724578706C6F64653A3A737461727455
:10392C00536365656E2829002E2E5C5469654669C3
:10393C0067687465724578706C6F64652E6370701F
:10394C0000546965466967687465724578706C6F78
:10395C0064653A3A7374617274536365656E2829B1
:10396C00002E2E5C446561746853746172506C61F6
:10397C007947616D652E637070004465617468539E
:10398C00746172506C617947616D653A3A73746118
:10399C007274536365656E28290072696E672054D2
:1039AC0068726F62206368616E67652073746174FE
:1039BC006500466C61736831004661737420426C1B
:1039CC0061636B00466C61736832005469654669CB
:1039DC006768746572506C61797347616D653A3ACA
:1039EC004C696E6B656420002E2E5C4465617468B6
:1039FC0053746172323031382E696E6F0056656EB9
:103A0C007420506F7274204869742000547275656C
:103A1C0000546172676574207570202000546172C7
:103A2C0067657420446F776E2020004672656520B0
:083A3C004D656D000D0A00004C
:00000001FF
