:100000003DC100006CC100006AC1000068C1000071
:1000100066C1000064C1000062C1000060C1000050
:100020005EC100005CC100005AC1000058C1000060
:1000300056C1000054C1000052C1000050C1000070
:100040004EC100004CC100004AC1000048C1000080
:1000500046C1000044C1000042C100000C94850E5E
:100060003EC100000C94F5110C94CC1138C1000075
:1000700036C1000034C1000032C1000030C10000B0
:100080002EC100002CC100002AC1000028C10000C0
:1000900026C1000024C1000022C1000020C10000D0
:1000A0001EC100001CC100001AC1000018C10000E0
:1000B00016C1000014C1000012C1000010C10000F0
:1000C0000EC100000CC100000AC1000008C1000000
:1000D00006C1000004C1000002C1000000C1000010
:1000E000FEC000003D06C80656079F07D40721083A
:1000F0005008090A0C0AFB09FF09050A430A100AFD
:10010000140A1A0A1E0A220A280A2C0A300A430A6A
:10011000360A3A0A3E0A4F0D540D590D630D6D0D06
:10012000E60D770D7F0D870D910D9B0DA50DB40D7F
:10013000BE0DE60DC80DD20DDC0D05A84CCDB2D418
:100140004EB93836A9020C50B9918688083CA6AA47
:10015000AA2ABE000000803F0000210024002700E2
:100160002A002D00300033000101000004010701C6
:100170000A0100002200250028002B002E0031007B
:10018000340002010000050108010B0100002000FD
:100190002300260029002C002F003200000100005F
:1001A00003010601090105050505070508080808FA
:1001B000020202020A0A08080404040401010101FF
:1001C00001010101030303030303030304070707FA
:1001D0000C0C0C0C0C0C0C0C02020202060606069F
:1001E000060606060B0B0B0B0B0B0B0B010210206C
:1001F000200808102040102040800201020108045D
:1002000002010102040810204080804020100804F0
:100210000201800402018040201008040201080449
:10022000020101020408102040800102040810208D
:10023000408000000A0B02090C0D0E0807030401A0
:1002400000000000000000000000000000000000AE
:10025000000000000000000000000000000012117B
:10026000100000000000000000000000000000007E
:1002700000000000000000002415161B11241FBE02
:10028000CFEFD1E2DEBFCDBF00E00CBF15E0A0E0B4
:10029000B2E0E4E3FFE300E00BBF02C007900D9281
:1002A000A03CB107D9F727E0A0ECB5E001C01D9252
:1002B000AB3EB207E1F711E0CDE3D1E000E006C0CC
:1002C00021970109802FFE010E94701FCC33D107B6
:1002D00080E00807A9F70E9418160C94891F90CE99
:1002E000CF93DF93EC010E94790E0E94D80A8BE233
:1002F00094E00E94A10A8AE092E00E94A10A80E2B2
:100300000E94A20A8FE294E00E94A10A87E494E08E
:100310000E94A10A8BE290E00E94AD0A89E494E079
:100320000E94A10A8DE494E00E94950A0E94790E31
:10033000688B798B8A8B9B8BE985FA8515821F8662
:100340001E861D861A821B821C821D820E94790EC7
:100350000E94D80A8BE294E00E94A10A8AE092E00F
:100360000E94A10A80E20E94A20A8FE294E00E9409
:10037000A10A87E494E00E94A10A83E390E00E942E
:10038000AD0A89E494E00E94A10A8DE494E0DF9133
:10039000CF910C94950A0C94B41B0C94B41B0C9440
:1003A000B41B0C94B41B0C94B41B0C94B41B0C9491
:1003B000B41B0C94B41BCF92DF92EF92FF920F9379
:1003C0001F93CF93DF938C016A017B01C0E0D0E0E3
:1003D000A7019601BE01F801828193810E94511309
:1003E0002196CE35D105A1F7F80182819381DF9165
:1003F000CF911F910F91FF90EF90DF90CF900C94D1
:10040000BD13CF92DF92EF92FF920F931F93CF9382
:10041000DF93EC01CA80DB80EC80FD800E94790EC6
:100420006C157D058E059F0508F4C2C08B859C85E3
:100430008130910509F44CC08230910509F486C0E1
:10044000892B09F0B5C0E984FA8487010E5F1F4F3C
:10045000670186E0C80ED11CF80161918F0170E040
:100460002FEF3FEF4FEF50E0F701858596850E9413
:1004700051130C151D0581F7E984FA8487010A5F81
:100480001F4F6701FCE0CF0ED11CF80161918F0175
:1004900070E020EF30EF4FEF50E0F7018585968553
:1004A0000E9451130C151D0581F7E985FA85858594
:1004B00096850E94BD1382E090E09C878B870E9406
:1004C000790EDC01CB018C509E4FAF4FBF4F6CC0FB
:1004D00021EF3FEF41EF5FEF6FEF7FEF89859A8567
:1004E0000E946C0B082F47EE5FEF67EE7FEF898568
:1004F0009A850E94EB0B182FE985FA8585859685EC
:100500000E94BD1361E089E20E94BD0C0E94790E39
:10051000DC01CB010A96A11DB11D8A839B83AC83AC
:10052000BD832E813F81215031093F832E83100FDF
:1005300009F03EC082E090E09C878B870E94790E94
:10054000DC01CB010596A11DB11D2EC02CEE3FEFA5
:100550004CEE5FEF66EF7FEF89859A850E946C0B0A
:10056000082F42EE5FEF62EE7FEF89859A850E9449
:10057000EB0B182FE985FA85858596850E94BD13BA
:100580000E94790EDC01CB010596A11DB11D8A8365
:100590009B83AC83BD83100F59F40E94790EDC015C
:1005A000CB01945AA94DBA4F8A839B83AC83BD83F8
:1005B000DF91CF911F910F91FF90EF90DF90CF903F
:1005C0000895CF93DF93EC011C861B861A821B8251
:1005D0001C821D820E94790EEBD78BE294E0B1D78A
:1005E00086E193E0AED780E2ADD78CE694E0A9D760
:1005F00087E494E0A6D788E290E0AFD789E494E05E
:10060000A0D785E894E091D761E089E20E94BD0C13
:10061000E985FA85118A60E070E08785DF91CF91E6
:100620000C94280DCF93DF93EC0140E850E86FEF76
:1006300070E089859A850E94271040E850E86FEFA6
:1006400070E08B859C85B7DE6CEB72E080E090E01B
:100650000E94EF0D40E050E0BA0189859A850E9422
:10066000271040E050E0BA018B859C85A4DE64EF42
:1006700071E080E090E0DF91CF910C94EF0DCF938B
:10068000DF93EC0140E850E86FEF70E089859A85D0
:100690000E94271040E850E86FEF70E08B859C8542
:1006A0008ADE6CE271E080E090E00E94EF0D40E0B5
:1006B00050E0BA0189859A850E94271040E050E0F9
:1006C000BA018B859C8577DE64EF71E080E090E075
:1006D000DF91CF910C94EF0DCF93DF93EC010E944B
:1006E000790E66D78BE294E02CD781EF92E029D780
:1006F00080E228D785EA94E024D787E494E021D7E4
:100700008AE290E02AD789E494E01BD78FE594E051
:100710000CD71A821B821C821D8240E050E0BA0175
:1007200089859A850E94271040E050E0BA018B85A8
:100730009C8541DE0E94790E6F87788B898B9A8B1E
:100740001E861D861886DF91CF910895CF93DF9383
:10075000EC010E94790E2CD78BE294E0F2D684EC67
:1007600092E0EFD680E2EED686EB94E0EAD687E41C
:1007700094E0E7D687E290E0F0D689E494E0E1D611
:100780008FEC94E0D2D61A821B821C821D821E86B8
:100790001D8640E050E0BA0189859A850E942710A5
:1007A00040E050E0BA018B859C8505DE0E94790E01
:1007B0006F87788B898B9A8B6F8B788F898F9A8FC5
:1007C0006B8B7C8B8D8B9E8BDF91CF9108958F925D
:1007D0009F92AF92BF92CF92DF92EF92FF920F93D0
:1007E0001F93CF93DF93EC018A809B80AC80BD8008
:1007F0000E94790E681579058A059B0508F4B6C034
:100800008D849E8481E08816910409F44BC082E0B7
:100810008816910409F466C0892809F0A7C0CE01A2
:1008200001DFCE012CDFCE01FDDECE0128DF64EF3B
:1008300071E080E090E00E94EF0DCE0120DFCE015C
:10084000F1DECE011CDFCE011ADF64EF71E080E043
:1008500090E00E94EF0DCE0112DFCE01E3DE64EFE7
:1008600071E080E090E00E94EF0DCE0108DFCE0144
:10087000D9DECE0104DF64EF71E080E090E00E94F9
:10088000EF0DCE01FCDE64EF71E080E090E00E94AD
:10089000EF0D68EE73E080E090E00E94EF0D81E0E4
:1008A00090E01DC04FEF50E060E070E089859A85D0
:1008B0000E9427104FEF50E060E070E08B859C8530
:1008C0007ADD0E94790EDC01CB018C509E4FAF4F38
:1008D000BF4F8A839B83AC83BD8382E090E09E8779
:1008E0008D8744C0AA24AA94BA2CCA2CD12CE12CFE
:1008F000F12C87012CEE3FEF4CEE5FEF66EF7FEFC0
:1009000089859A850E944B109C8B8B8BE985FA8593
:10091000828193810E94BD132CEE3FEF41EF5FEF88
:1009200064EF7FEF8B859C8545D62B893C89820FB0
:10093000931F9C8B8B8BEB85FC85828193810E941E
:10094000BD138B899C891816190674F40E94790EC0
:10095000DC01CB018896A11DB11D8A839B83AC83EA
:10096000BD839E868D8602C081E08887DF91CF910E
:100970001F910F91FF90EF90DF90CF90BF90AF90BD
:100980009F908F9008954F925F926F927F928F9277
:100990009F92AF92BF92CF92DF92EF92FF920F930E
:1009A0001F93CF93DF93EC01CA80DB80EC80FD8046
:1009B0000E94790E6C157D058E059F0508F429C1EE
:1009C0008D859E85892B09F024C140EFA42EBA2C79
:1009D000CA2CD12CE12C18E0F12E00E010E026EF1B
:1009E0003FEF49EF5FEF66EF7FEF89859A850E94C1
:1009F0004B10E985FA8584818F5F883110F48483F8
:100A000001C01482648170E020E230E240E250E0F4
:100A1000828193810E945113E985FA8582819381B5
:100A20000E94BD130E94790E2091CB073091CC0714
:100A300047E0429F6001439FD00C11240D2C000C15
:100A4000EE08FF08DC01CB018C199D09AE09BF0936
:100A5000C296A11DB11D8A839B83AC83BD8385E0B3
:100A6000829F2001839F500C11240E94790ECF8811
:100A7000D88CE98CFA8CC616D706E806F906C0F4BD
:100A8000E12CF12C8701B201609570959B01AB01BF
:100A90008B859C858FD50E94790EDC01CB01C29697
:100AA000A11DB11D8F8B988FA98FBA8F11E001C046
:100AB00010E00E94790ECB88DC88ED88FE88C6168F
:100AC000D706E806F90608F08CC092012E5C3F4F6D
:100AD000032E000C440B550B6AE070E080E090E0C0
:100AE0000E94CF0E4B015C018EE1480E511C052C7B
:100AF000000C66087708A301920160E070E0CB016A
:100B00000E94CF0E6B017C01A301920160E070E0B6
:100B1000CB010E94CF0ECB01770FAA0BBB0BBA2FD4
:100B2000A92F982F88270D2C000CEE08FF08C82A43
:100B3000D92AEA2AFB2AFE2CED2CDC2CCC24092C09
:100B4000000CAA08BB08C828D928EA28FB28B70146
:100B5000A6018B859C85A4D58091CB079091CC076D
:100B6000181619062CF4B701A6018B859C8598D51B
:100B70008091CB079091CC0702972CF0B701A6018A
:100B80008B859C858DD58091CB079091CC07039761
:100B90002CF0B701A6018B859C8582D58091CB076F
:100BA0009091CC0704972CF0B701A6018B859C850A
:100BB00077D58091CB079091CC0705972CF0B701A2
:100BC000A6018B859C856CD50E94790EDC01CB013A
:100BD000885E9E4FAF4FBF4F8B8B9C8BAD8BBE8B78
:100BE00002C01123B1F0EB85FC8582819381DF91F6
:100BF000CF911F910F91FF90EF90DF90CF90BF901A
:100C0000AF909F908F907F906F905F904F900C94DB
:100C1000BD13DF91CF911F910F91FF90EF90DF9067
:100C2000CF90BF90AF909F908F907F906F905F908C
:100C30004F900895AF92BF92CF92DF92EF92FF92C2
:100C40000F931F93CF93DF93EC01CA80DB80EC807E
:100C5000FD800E94790E6C157D058E059F0508F4B8
:100C600060C2ED85FE85E730F10508F05AC288279D
:100C7000EE58FF4F8F4F0C94701F0E94790E088919
:100C800019892A893B89601B710B820B930B0E9487
:100C9000FC1D2BED3FE049E450E40E948A1E20E059
:100CA00030E04AE754E40E94631D9B01AC010E94BE
:100CB000FF1C0E94ED1E20E030E040E85FE30E9450
:100CC000FF1C20E030E040EA52E40E948A1E2DEC36
:100CD0003CEC4CE45FE30E948A1E20E030E040E2FE
:100CE00052E40E94FF1C0E94CB1DAB01770F660BE4
:100CF000770BBA015527442789859A850E942710CA
:100D0000F8D7DC01CB01C296A11DB11D8A839B835C
:100D1000AC83BD83C888D988EA88FB8880EDC80E7B
:100D200087E0D81EE11CF11CE4D7C616D706E806FA
:100D3000F90608F0F6C1DDD7688B798B8A8B9B8B1F
:100D40001F8681E090E09E878D87D3D731D48BE2D8
:100D500094E0F7D38FE992E0F4D380E2F3D38FE20B
:100D600094E0EFD387E494E0ECD387E990E0F5D307
:100D700089E494E0E6D38FEE94E0DF91CF911F9168
:100D80000F91FF90EF90DF90CF90BF90AF90CDC3C9
:100D9000B0D7088919892A893B89601B710B820B9E
:100DA000930B0E94FC1D2BED3FE049E450E40E94B0
:100DB0008A1E20E030E04AE754E40E94631D9B0154
:100DC000AC010E94FF1C0E94ED1E20E030E040E8D4
:100DD0005FE30E94FF1C20E030E040EA52E40E9402
:100DE0008A1E2DEC3CEC4CE45FE30E948A1E20E05E
:100DF00030E040E252E40E94FF1C0E94CB1D6B01D8
:100E0000770FEE08FF087601DD24CC24B701A60198
:100E100089859A850E9427106CD7088919892A89A3
:100E20003B89601B710B820B930B24E630E040E0A2
:100E300050E00E94CD1C2F8700E010E08F8590E0ED
:100E4000EB85FC850817190754F4A7019601B80132
:100E5000828193810E9451130F5F1F4FEFCF8281D8
:100E600093810E94BD138F858E3510F08DE58F879D
:100E700040D7DC01CB01C296A11DB11D8A839B83A3
:100E8000AC83BD83C888D988EA88FB8880E1C80E16
:100E900087E2D81EE11CF11C2CD7C616D706E8063F
:100EA000F90608F03EC182E090E030C1AA24AA947D
:100EB000BA2CCA2CD12CE12CF12C00E210E021EF4D
:100EC0003FEF41EF5FEF6BEF7FEF89859A850E94DF
:100ED0004B10D82EE985FA85828193810E94BD133B
:100EE000E12CF12C08E010E021EF3FEF41EF5FEF44
:100EF0006BEF7FEF8B859C855DD3182FEB85FC8591
:100F0000828193810E94BD13F4D6DC01CB01C2968D
:100F1000A11DB11D8A839B83AC83BD831D0D09F088
:100F200000C1E7D6DC01CB01845D9E4FAF4FBF4FC0
:100F30008A839B83AC83BD8383E090E0E7C0D9D6EE
:100F400037D38BE294E0FDD28DE792E0FAD280E2D3
:100F5000F9D28FE294E0F5D287E494E0F2D284EC07
:100F600090E0FBD289E494E0ECD287E095E0DDD21A
:100F70004FEF5FEF6FEF70E089859A850E94271031
:100F800040E85FEF6FEF70E08B859C8514DAB1D697
:100F9000DC01CB014E96A11DB11D8A839B83AC83DE
:100FA000BD8384E090E0B2C0A4D602D38BE294E08B
:100FB000C8D288E592E0C5D280E2C4D28FE294E044
:100FC000C0D287E494E0BDD28DEC90E0C6D289E433
:100FD00094E0B7D28EE095E0A8D28BD6E9D28BE22E
:100FE00094E0AFD288E592E0ACD280E2ABD28FE25F
:100FF00094E0A7D287E494E0A4D28EEC90E0ADD246
:1010000089E494E09ED287E095E08FD240E050E002
:10101000BA0189859A850E94271040E050E0BA0104
:101020008B859C85C8D965D6DC01CB0180579E4F46
:10103000AF4FBF4F8A839B83AC83BD8385E090E035
:1010400065C057D6B5D28BE294E07BD286E392E0BE
:1010500078D280E277D28FE294E073D287E494E092
:1010600070D288ED90E079D289E494E06AD289E187
:1010700095E05BD24FEF5FEF6FEF70E089859A8567
:10108000E6D740E85FEF6FEF70E08B859C8593D9E2
:1010900030D6DC01CB0184549D4FAF4FBF4F30C0E1
:1010A000AA24AA94BA2CCA2CD12CE12CF12C8701A9
:1010B0002CEE3FEF4CEE5FEF66EF7FEF89859A8570
:1010C000EAD7D82EE985FA85828193810E94BD13E3
:1010D0002CEE3FEF41EF5FEF64EF7FEF8B859C8558
:1010E00069D2182FEB85FC85828193810E94BD1304
:1010F0001D0D79F0FED5DC01CB018896A11DB11D37
:101100008A839B83AC83BD8386E090E09E878D8736
:1011100008C080E09CE5A6E2B5E08A839B83AC83AF
:10112000BD83DF91CF911F910F91FF90EF90DF90E2
:10113000CF90BF90AF900895FC0172876187D9D599
:1011400037D28BE294E0FDD183E493E0FAD180E2E0
:10115000F9D180E295E0F5D187E494E0F2D18BE11A
:1011600090E0FBD189E494E0ECD18BE395E0DDC124
:1011700008950895CF93DF93EC018C85833009F4B3
:1011800052C0E8F48130C9F1823009F07BC088E0B8
:101190008F8780E2888B8DE08A838EE08B8382E16B
:1011A0008C8383E18D838AE08E838BE08F838CE058
:1011B00088878FE0898780E18A8781E162C08430F7
:1011C00009F449C0853009F05DC08BE08F8783E268
:1011D000888B8BE28A838CE28B8380E38C8381E330
:1011E0008D8388E28E8389E28F838AE288878DE20D
:1011F00089878EE28A878FE244C097E09F872FE13C
:10120000288B23E02A8324E02B8328E02C8329E009
:101210002D831E828F8382E0888785E0898786E020
:101220008A879B872FC089E08F8781E2888B87E13F
:101230008A8388E18B838CE18C838DE18D8384E1CB
:101240008E8385E18F8386E1888789E189878AE1BA
:101250008A878BE116C08AE08F8782E2888B91E2D1
:101260009A838B8386E28C8387E28D838EE18E83E3
:101270008FE18F8380E2888783E2898784E28A878F
:1012800085E28B8761E08F85A7D362E08889DF9153
:10129000CF91A2C3FC01808948D321E0892B09F4B6
:1012A00020E0822F0895089508952F923F924F9243
:1012B0005F926F927F928F929F92AF92BF92CF92E6
:1012C000DF92EF92FF920F931F93CF93DF93CDB7EF
:1012D000DEB72A970FB6F894DEBF0FBECDBF5A8790
:1012E0004987412E522E632E77244D825E826F8273
:1012F0007886160133244D2C5E2C6F2C7724F20156
:10130000FF27AE2DB0E0A40155275A834983FF245F
:10131000EB2CDA2CC92CDD24EA2CF12C820F911D48
:101320008A179B070CF4CD014D805E805524460E34
:10133000571E4E165F060CF42F01112769847A841C
:10134000060D171D021513050CF48101C414D504F4
:101350000CF42601052C000C66087708762C652C09
:10136000542C442429813A81201731070CF4890137
:10137000012E000C220B330B402A512A622A732AB9
:10138000E816F9060CF4C701092E000CAA0BBB0BDA
:10139000DC0199278827BC01CD016429752986299C
:1013A00097292A960FB6F894DEBF0FBECDBFDF9106
:1013B000CF911F910F91FF90EF90DF90CF90BF9052
:1013C000AF909F908F907F906F905F904F903F90E5
:1013D0002F900895089508950895089590E0FC01D0
:1013E0003197E231F10508F04EC08827E758FF4FEA
:1013F0008F4F0C94701F809180008F7703C0809175
:1014000080008F7D80938000089580918000877F89
:10141000F9CF84B58F7702C084B58F7D84BD0895E0
:101420008091B0008F7703C08091B0008F7D809352
:10143000B0000895809190008F7707C08091900050
:101440008F7D03C080919000877F809390000895E6
:101450008091A0008F7707C08091A0008F7D03C08E
:101460008091A000877F8093A00008958091200143
:101470008F7707C0809120018F7D03C0809120016C
:10148000877F809320010895009761F0FC0101900F
:101490000020E9F73197AF01481B590BBC0180ECE4
:1014A00095E0D5C380E090E008958F929F92AF922F
:1014B000BF920F931F93CF93DF93CDB7DEB7A19762
:1014C0000FB6F894DEBF0FBECDBF19A2423008F4AC
:1014D0004AE08E010F5D1F4F842E912CA12CB12C60
:1014E000A50194010E94CD1CE62FB901CA0101504B
:1014F0001109EA3014F4E05D01C0E95CD801EC9315
:10150000232B242B252B61F7C801BEDFA1960FB634
:10151000F894DEBF0FBECDBFDF91CF911F910F9129
:10152000BF90AF909F908F900895CF93DF93ACDFE3
:10153000EC0188E595E0A8DF8C0F9D1FDF91CF912E
:101540000895A2CFE091C005F091C1050190F0810E
:10155000E02D682F80EC95E01994CF92DF92EF9206
:10156000FF92CF93DF936C01990FEE08FF08F7FE0F
:1015700015C08DE2E7DFEC0166277727CB016C19F8
:101580007D098E099F094AE090DF8C0F9D1FDF9136
:10159000CF91FF90EF90DF90CF9008954AE0C70180
:1015A000B601DF91CF91FF90EF90DF90CF907DCF8C
:1015B0004AE07BCF2F923F924F925F926F927F9241
:1015C0008F929F92AF92BF92CF92DF92EF92FF9253
:1015D0000F931F93CF93DF93CDB7DEB72C970FB642
:1015E000F894DEBF0FBECDBF3C017A8369835C8374
:1015F0004B833E832D83EF82F88609871A871C86EA
:101600001B866B857C85F3018281938124D71B0126
:101610002C0188248A94982CA82CB12CCF80D884B3
:10162000E984FA84920181014D815E816B817C8124
:1016300089819A813ADE6B017C019B01AC016B854B
:101640007C85F301828193810E9451138B859C8557
:1016500001969C878B878E35910599F681E090E005
:101660002C143D044E045F0411F480E090E02C96AD
:101670000FB6F894DEBF0FBECDBFDF91CF911F91A3
:101680000F91FF90EF90DF90CF90BF90AF909F9021
:101690008F907F906F905F904F903F902F90089524
:1016A000CF92DF92EF92FF92CF93DF93EC016A012A
:1016B0007B012DE530E040E050E060E070E0CB01E0
:1016C0006ED3A70196018A819B81DF91CF91FF9014
:1016D000EF90DF90CF90E5C72F923F924F925F92AD
:1016E0006F927F928F929F92AF92BF92CF92DF9232
:1016F000EF92FF920F931F93CF93DF93CDB7DEB797
:101700002D970FB6F894DEBF0FBECDBF1C017F83AF
:101710006E83598748873B872A879C012E5F3F4FFE
:101720003D872C8706969D838C831982EC85FD85E9
:10173000FB83EA83608170E0F101858596858BD615
:101740002B013C0188248A94982CA82CB12CC12C04
:10175000D12C7601930182014A855B856885798564
:101760008E819F81A2DD9B01AC014616570668065B
:10177000790611F0F1E0F9838C859D8501969D87AE
:101780008C87EA81FB818081682F70E0F10185857B
:10179000968587D72C853D858C819D8128173907B3
:1017A00029F689812D960FB6F894DEBF0FBECDBF06
:1017B000DF91CF911F910F91FF90EF90DF90CF902D
:1017C000BF90AF909F908F907F906F905F904F9061
:1017D0003F902F9008952F923F924F925F926F9279
:1017E0007F928F929F92AF92BF92CF92DF92EF92B1
:1017F000FF920F931F93CF93DF93CDB7DEB72B9755
:101800000FB6F894DEBF0FBECDBF1C017F836E8381
:10181000598748879C012A5F3F4F3B872A870C9650
:101820009D838C831982EA85FB85FB83EA83608133
:1018300070E0F101858596850ED62B013C01882448
:101840008A94982CA82CB12CC12CD12C7601930110
:101850008201488559856E817F8181EF9FEF25DD6B
:101860009B01AC01461657066806790611F0F1E0B7
:10187000F9838A859B8501969B878A87EA81FB810C
:101880008081682F70E0F101858596850AD72A85C9
:101890003B858C819D812817390729F689812B96F4
:1018A0000FB6F894DEBF0FBECDBFDF91CF911F9171
:1018B0000F91FF90EF90DF90CF90BF90AF909F90EF
:1018C0008F907F906F905F904F903F902F900895F2
:1018D000CF92DF92EF92FF92CF93DF936C01990F3B
:1018E000EE08FF08F7FE10C08DE22CDEEC01662743
:1018F0007727CB016C197D098E099F094AE0D5DD58
:101900007C01EC0EFD1E05C04AE0C701B601CDDD2D
:101910007C0188E595E0B8DD8E0D9F1DDF91CF91AC
:10192000FF90EF90DF90CF900895CF93DF93282F13
:1019300030E0F901EE5CFD4F8491F901E451FE4F76
:10194000D491F901EA55FE4FC491CC2389F081115D
:1019500045DDEC2FF0E0EE0FFF1FE457FE4FA591A1
:10196000B491EC91ED2381E090E021F480E002C09D
:1019700080E090E0DF91CF9108951F93CF93DF93A4
:10198000282F30E0F901EE5CFD4F8491F901E4511C
:10199000FE4FD491F901EA55FE4FC491CC23C1F01A
:1019A000162F81111BDDEC2FF0E0EE0FFF1FEE581C
:1019B000FE4FA591B4918FB7F894111105C09C9179
:1019C000ED2FE095E92302C0EC91ED2BEC938FBF56
:1019D000DF91CF911F910895CF93DF9390E0FC01A9
:1019E000E451FE4F2491FC01EA55FE4F8491882377
:1019F00061F190E0880F991FFC01E85AFE4FC591F4
:101A0000D491FC01EE58FE4FA591B491611109C02B
:101A10009FB7F8948881209582238883EC912E23A8
:101A20000BC0623061F49FB7F8943881822F8095A3
:101A300083238883EC912E2B2C939FBF06C08FB7F6
:101A4000F894E8812E2B28838FBFDF91CF910895E2
:101A50001F93CF93DF93182FEB0161E0BDDF209739
:101A600011F460E004C0CF3FD10531F461E0812F73
:101A7000DF91CF911F9181CFE12FF0E0EE5CFD4F20
:101A8000E4914E2F50E0FA013197E231F10508F070
:101A90009DC08827E557FF4F8F4F0C94701F84B56A
:101AA000806884BDC7BD97C084B5806284BDC8BD51
:101AB00092C080918000806880938000D0938900DC
:101AC000C093880088C080918000806280938000ED
:101AD000D0938B00C0938A007EC080918000886084
:101AE00080938000D0938D00C0938C0074C080914F
:101AF000B00080688093B000C093B3006CC0809148
:101B0000B00080628093B000C093B40064C0809144
:101B10009000806880939000D0939900C0939800C3
:101B20005AC080919000806280939000D0939B0077
:101B3000C0939A0050C0809190008860809390007C
:101B4000D0939D00C0939C0046C08091A000806807
:101B50008093A0008091A0008F7B8093A000D09301
:101B6000A900C093A80037C08091A0008062809334
:101B7000A000D093AB00C093AA002DC08091A0001C
:101B800088608093A000D093AD00C093AC0023C0C8
:101B900080912001806880932001D0932901C09317
:101BA000280119C080912001806280932001D09388
:101BB0002B01C0932A010FC080912001886080937F
:101BC0002001D0932D01C0932C0105C0C038D10550
:101BD0000CF04CCF46CFDF91CF911F9108958F929B
:101BE0009F92AF92BF92CF92DF92EF92FF926B01E2
:101BF0007C015AD04B015C01C114D104E104F10411
:101C0000E9F052D0DC01CB0188199909AA09BB0976
:101C1000883E9340A105B10578F321E0C21AD108AE
:101C2000E108F10888EE880E83E0981EA11CB11C23
:101C3000C114D104E104F10421F7DECFFF90EF904D
:101C4000DF90CF90BF90AF909F908F900895CF92EC
:101C5000DF92EF92FF920F931F93CF93DF936C016C
:101C60007A018B01C0E0D0E0CE15DF0589F0D80104
:101C70006D918D01D601ED91FC910190F081E02DE7
:101C8000C6011995892B11F47E0102C02196ECCF73
:101C9000C701DF91CF911F910F91FF90EF90DF90DF
:101CA000CF9008950E947E1F3FB7F8948091E3077C
:101CB0009091E407A091E507B091E60726B5A89BAF
:101CC00005C02F3F19F00196A11DB11D3FBFBA2FCE
:101CD000A92F982F8827820F911DA11DB11DBC012E
:101CE000CD0142E0660F771F881F991F4A95D1F7F3
:101CF00008952FB7F8946091DF077091E007809105
:101D0000E1079091E2072FBF08951F920F920FB63F
:101D10000F9211242F933F938F939F93AF93BF9371
:101D20008091DF079091E007A091E107B091E20771
:101D30003091DE0723E0230F2D3720F40196A11DFB
:101D4000B11D05C026E8230F0296A11DB11D2093E9
:101D5000DE078093DF079093E007A093E107B0933D
:101D6000E2078091E3079091E407A091E507B09125
:101D7000E6070196A11DB11D8093E3079093E40748
:101D8000A093E507B093E607BF91AF919F918F9124
:101D90003F912F910F900FBE0F901F901895CF92EB
:101DA000DF92EF92FF920F931F93CF93DF9300D0B8
:101DB0001F92CDB7DEB76217730784079507FCF44F
:101DC00089019A016B017C01A9019801261B370B3F
:101DD000480B590B69F029833A834B835C830E943B
:101DE000951C29813A814B815C810E94A11C03C012
:101DF00060E070E0CB016C0D7D1D8E1D9F1D0F906E
:101E00000F900F900F90DF91CF911F910F91FF9046
:101E1000EF90DF90CF9008950C94B41B8F929F9217
:101E2000AF92BF92CF92DF92EF92FF920F931F93E8
:101E3000CF93DF93EC01CA80DB80EC80FD8059DF1B
:101E40006C157D058E059F0508F48BC08B859C85E0
:101E50008130910509F449C0BCF5892B09F081C096
:101E60000E94951C25E030E040E050E00E94A11C5B
:101E70004B015C012FEF821A920AA20AB20AE9858D
:101E8000FA85048510E00150110933DF6B017C01F4
:101E900020E931E0D8010E94781FC60ED71EE81E47
:101EA000F91EA0EDB7E0A50194010E94BD1CDC0164
:101EB000CB018C0D9D1DAE1DBF1D8A839B83AC8302
:101EC000BD8381E090E029C08230910549F10397FC
:101ED00009F047C00EDFDC01CB01945AA94DBA4F7F
:101EE0008A839B83AC83BD833CC060E088E245DD90
:101EF00000DFDC01CB0188519C4FAF4FBF4F8A837D
:101F00009B83AC83BD838FEF8D87E985FA856FEF67
:101F100070E087859DDD82E090E09C878B8721C003
:101F200060E088E22ADDE5DEDC01CB018896A11DB8
:101F3000B11D8A839B83AC83BD836D856E516D8794
:101F400070E0E985FA85878583DD8D85893248F4DF
:101F50001D86E985FA8560E070E0878579DD1C865D
:101F60001B86DF91CF911F910F91FF90EF90DF9033
:101F7000CF90BF90AF909F908F900895CF92DF92B7
:101F8000EF92FF920F931F93CF93DF93EC01B1DE9B
:101F90000FDB8BE294E0D5DA8CEF93E0D2DA80E2CB
:101FA000D1DA80E295E0CDDA87E494E0CADA88E21B
:101FB00090E0D3DA89E494E0C4DA8EE995E0B5DA0A
:101FC000E984FA8487010E5F1F4F670186E0C80E1F
:101FD000D11CF80161918F0170E020E030E0A9018F
:101FE000F701858596855DD30C151D0591F7E9846C
:101FF000FA8487010A5F1F4F6701FCE0CF0ED11CF6
:10200000F80161918F0170E020E030E0A901F70153
:102010008585968546D30C151D0591F7E985FA85CA
:1020200085859685AAD31C861B861A821B821C82F4
:102030001D82E985FA8581E0818BDF91CF911F9127
:102040000F91FF90EF90DF90CF9008950895CF9279
:10205000DF92EF92FF920F931F93CF93DF938C0148
:102060006A017B01C0E0D0E0A7019601BE01F80142
:102070008281938116D32196C831D105A9F7F80141
:1020800082819381DF91CF911F910F91FF90EF900B
:10209000DF90CF9072C32F923F924F925F926F92D8
:1020A0007F928F929F92AF92BF92CF92DF92EF92E8
:1020B000FF920F931F93CF93DF93CDB7DEB7609757
:1020C0000FB6F894DEBF0FBECDBF3C017A836983A3
:1020D0005C834B833E832D83EF82F88609871A87C2
:1020E000AB86BC86CD86DE86188A1F866F8578898A
:1020F000F30182819381AFD11B012C018B849C84DD
:10210000AD84BE84CF80D884E984FA848B019C019D
:102110004D815E816B817C8189819A81C6D86B01FA
:102120007C019B01AC016F857889F30182819381E9
:10213000B8D28F8598890196988B8F874897B1F68A
:1021400081E090E02C143D044E045F0411F480E023
:1021500090E060960FB6F894DEBF0FBECDBFDF9162
:10216000CF911F910F91FF90EF90DF90CF90BF9094
:10217000AF909F908F907F906F905F904F903F9027
:102180002F900895089580E090E00895FC01538D0C
:10219000448D252F30E0842F90E0821B930B541741
:1021A00010F0CF96089501970895FC01918D828DCE
:1021B000981761F0828DDF01A80FB11D5D968C919B
:1021C000928D9F5F9F73928F90E008958FEF9FEFA6
:1021D0000895FC01918D828D981731F0828DE80F62
:1021E000F11D858D90E008958FEF9FEF0895FC011C
:1021F000918D228D892F90E0805C9F4F821B9109E9
:102200008F739927089580EC95E0F1DF21E0892B09
:1022100009F420E0822F0895FC01848DDF01A80FCE
:10222000B11DA35ABF4F2C91848D90E001968F73FE
:102230009927848FA689B7892C93A089B1898C911D
:1022400080648C93938D848D981306C00288F389E3
:10225000E02D80818F7D80830895EF92FF920F9310
:102260001F93CF93DF93EC0181E0888F9B8D8C8D42
:10227000981305C0E889F989808185FD23C0F62E71
:102280000B8D10E00F5F1F4F0F731127E02E8C8D09
:10229000E8120BC00FB607FCFACFE889F9898081F4
:1022A00085FFF5CFCE01B8DFF2CF8B8DFE01E80FB1
:1022B000F11DE35AFF4FF0820B8FEA89FB89808181
:1022C000806207C0EE89FF896083E889F98980818F
:1022D0008064808381E090E0DF91CF911F910F9126
:1022E000FF90EF900895CF93DF93EC01888D8823C2
:1022F000C1F0EA89FB89808185FD05C0A889B9897B
:102300008C9186FD0EC00FB607FCF5CF808185FF4E
:10231000F2CFA889B9898C9185FFEDCFCE017CDF02
:10232000E8CFDF91CF91089580E090E0892B19F0FC
:102330006ADF811125C080E090E0892B41F080E0C8
:1023400090E0892B21F00E94000081111CC080E0E8
:1023500090E0892B41F080E090E0892B21F00E94F1
:102360000000811113C080E090E0892BA1F080E093
:1023700090E0892B81F00E94000081110AC008952D
:102380000E940000D8CF0E940000E1CF0E94000010
:10239000EACF0C94000008951F920F920FB60F928F
:1023A00011240BB60F922F933F934F935F936F932C
:1023B0007F938F939F93AF93BF93EF93FF9380ECA3
:1023C00095E02ADFFF91EF91BF91AF919F918F919F
:1023D0007F916F915F914F913F912F910F900BBE25
:1023E0000F900FBE0F901F9018951F920F920FB66F
:1023F0000F9211240BB60F922F938F939F93EF930D
:10240000FF93E091D005F091D1058081E091D60550
:10241000F091D70582FD12C090818091D9058F5F20
:102420008F732091DA05821751F0E091D905F0E021
:10243000E054FA4F958F8093D90501C08081FF91B8
:10244000EF919F918F912F910F900BBE0F900FBE28
:102450000F901F9018954F925F926F927F928F927C
:102460009F92AF92BF92CF92DF92EF92FF920F9323
:102470001F93CF93DF93DC0112968D919C9113975C
:102480006817790708F0F9C01D968C911D971A9668
:10249000EC901A971896ED91FC91199717968C90DD
:1024A0001797482F50E01B961C911B971C960C9178
:1024B000EB018E1164C0CC0FDD1FC60FD71FCE0FEE
:1024C000DF1F882009F443C0912CA12CB12CFE0100
:1024D000E40FF51F608170E0762F6627072E000C51
:1024E000880B990BA50194010E94CD1C390155243C
:1024F0004424FE01E10FF11D608170E0762F662714
:10250000072E000C880B990BA50194010E94CD1C8D
:10251000B42FA32F922F882773016201C82AD92ACA
:10252000EA2AFB2AC00FD11D688170E0762F66274A
:10253000072E000C880B990BA50194010E94CD1C5D
:10254000C701B601622B732B842B952B99C0FE011A
:10255000E40FF51F2081FE01E10FF11D6081862F40
:1025600090E0A0E0B0E0BA2FA92F982F8827A22BE7
:10257000C00FD11D2881BC01CD01622B81C0CC0FC1
:10258000DD1FCC0FDD1FCE0FDF1FF12C882009F4DB
:1025900058C0912CA12CB12CFE01E40FF51F6081D5
:1025A00070E0762F6627072E000C880B990BA5018B
:1025B00094010E94CD1C722E662455244424FE01F1
:1025C000EE0DFF1D608170E0762F6627072E000C50
:1025D000880B990BA50194010E94CD1C7901DD2483
:1025E000CC24C428D528E628F728FE01E00FF11DE9
:1025F000608170E0762F6627072E000C880B990B00
:10260000A50194010E94CD1CC22AD32AE42AF52AEE
:10261000C10FD11D688170E0762F6627072E000C50
:10262000880B990BA50194010E94CD1CB42FA32FF8
:10263000922F8827BC01CD016C297D298E299F29E5
:102640001FC0FE01E40FF51F2081FE01EE0DFF1DEE
:102650006081862F90E0A0E0B0E0DC019927882718
:10266000B22BFE01E00FF11D2081822BC10FD11D85
:102670002881BC01CD01722B03C060E070E0CB016A
:10268000DF91CF911F910F91FF90EF90DF90CF904E
:10269000BF90AF909F908F907F906F905F904F9082
:1026A00008958F929F92AF92BF92CF92DF92EF9256
:1026B000FF920F931F93CF93DF93FC01828193814D
:1026C0006817790708F04CC04A01AA24BB24B82D2A
:1026D000C32ED42EE52EFF24AC2D922F8781882384
:1026E00061F0889E40011124B92DC89E600111241B
:1026F000AD2D289FE00111249D2FD584C285E08453
:10270000F184DC1208C09B01220F331F620F731F7C
:102710006E0D7F1D16C0660F771F660F771F6E0D3B
:102720007F1D052F112722273327EB01CD0DD11D4A
:10273000882329F0089F90011124232F01C0202F06
:1027400028838285EB01C80FD11DB8838385EB01F7
:10275000C80FD11DA8838485FB01E80FF11D90836C
:10276000DF91CF911F910F91FF90EF90DF90CF906D
:10277000BF90AF909F908F900895CF92DF92EF928D
:10278000FF920F931F93CF93DF93CDB7DEB72997B7
:102790000FB6F894DEBF0FBECDBF8C01DC011896DA
:1027A0008D919C911997892B09F4A1C07DDAF801CC
:1027B000C684D784E088F188DC01CB018C199D099F
:1027C000AE09BF098C329140A105B10578F3F894A8
:1027D000D80114968D919C9115979A8389831896A8
:1027E000ED91FC9119977F01BFEFEB1AFB0A8081F5
:1027F0008987F80190810288F389E02DD8015496E9
:102800008C91992309F430C09081982B98879081FE
:10281000809589238F838F818C8388E08B83588573
:102820006F8149853B812C8189819A81D7015083B1
:1028300047FD252F3A952083262F39F0441F00C0ED
:1028400000006083000000C0F2CF38E04D9160834B
:102850000000019761F7D8015396FC93EE935297CD
:1028600049873B832C833AC09081982B988790812D
:10287000809589238F838F818E8388E08D8358850F
:102880006F8149853D812E8189819A81D70150834D
:1028900047FD252F00C000C0208300C000C000C03D
:1028A00000C000C060830000262F3A9541F0441F0D
:1028B000000000C000C000C000C000C0E8CF38E089
:1028C0004D9100C0608300C0019709F7D80153966D
:1028D000FC93EE93529749873D832E839A83898395
:1028E0007894E2D9F80166877787808B918B299657
:1028F0000FB6F894DEBF0FBECDBFDF91CF911F9111
:102900000F91FF90EF90DF90CF900895CF93DF93DA
:10291000EC018E8187FD05C061E05ED860E08E81AC
:102920002CD881E08983DF91CF910895CF93DF93F5
:10293000EC0188859985009709F016D78E8187FD6F
:1029400004C060E0DF91CF9147C8DF91CF91089537
:10295000CF92DF92EF92FF921F93CF93DF93EC0120
:102960007B01142F19821F821E861F86188A198ADE
:10297000C90146E0969587954A95E1F7482F43703F
:102980004D87C90154E0969587955A95E1F7837074
:102990008A87B901769567957695679563706B8799
:1029A000922F93709C8791E02F3F310511F008F032
:1029B00090E09883481719F084E090E002C083E02B
:1029C00090E08E9D60018F9DD00C9E9DD00C1124B7
:1029D000DD82CC82C60133D699878887009741F083
:1029E000A60160E070E00E94821FFB82EA8204C0C0
:1029F0001D821C821B821A821E838981882341F0DA
:102A000061E0812F0E94EC0C60E0812F0E94BD0CE0
:102A1000812F90E0FC01EA55FE4FE491F0E0EE0FCB
:102A2000FF1FEE58FE4F259134913B8B2A8BFC0102
:102A3000E451FE4FE491EC8BDF91CF911F91FF9019
:102A4000EF90DF90CF900895E0ECF5E013821282D2
:102A500088EE93E0A0E0B0E084839583A683B783FB
:102A60008AE793E09183808385EC90E09587848763
:102A700084EC90E09787868780EC90E0918B808B48
:102A800081EC90E0938B828B82EC90E0958B848B31
:102A900086EC90E0978B868B118E128E138E148E9F
:102AA00026E030E046E162E370E086EB97E050DF3D
:102AB00026E030E047E16EE570E081EA97E048DF2C
:102AC00022E530E048E168E170E08CE897E040DF23
:102AD0008CEE93E090937B0780937A07909369073D
:102AE0008093680790935707809356079093450704
:102AF000809344079093330780933207E4E2F7E032
:102B00001282138214821582108688ED93E09183DD
:102B10008083E6E1F7E01282138214821582108628
:102B200091838083E8E0F7E0128213821482158299
:102B3000108691838083EAEFF6E01282138214827A
:102B40001582108691838083ECEEF6E01282138268
:102B500014821582108691838083EFEDF6E0128255
:102B6000138214821582108680EC93E09183808317
:102B700014861386E2EDF6E0128213821482158227
:102B800010869183808314861386E5ECF6E012822A
:102B90001382148215821086918380831486138693
:102BA000E8EBF6E01282138214821582108691837C
:102BB000808314861386EBEAF6E012821382148275
:102BC000158210869183808314861386E6E9F6E0E9
:102BD0001282138214821582108684EB93E0918313
:102BE00080838CEA93E0909391068093900684EA28
:102BF00093E090938D0680938C06E1E7F6E01282D5
:102C0000138214821582108688E993E09183808371
:102C1000EDE5F6E0128213821482158210868CE8AC
:102C200093E09183808381E090E096878587089583
:102C3000789484B5826084BD84B5816084BD85B597
:102C4000826085BD85B5816085BD80916E008160A3
:102C500080936E0010928100809181008260809349
:102C6000810080918100816080938100809180004B
:102C70008160809380008091B10084608093B10076
:102C80008091B00081608093B0008091910082605B
:102C90008093910080919100816080939100809158
:102CA00090008160809390008091A1008260809369
:102CB000A1008091A10081608093A1008091A0007B
:102CC00081608093A0008091210182608093210126
:102CD0008091210181608093210180912001816098
:102CE0008093200180917A00846080937A008091A3
:102CF0007A00826080937A0080917A00816080936C
:102D00007A0080917A00806880937A001092C100E6
:102D1000E091D005F091D10502E00083E091CC056F
:102D2000F091CD051082E091CE05F091CF058FECAA
:102D300080831092D805E091D405F091D50586E006
:102D40008083E091D205F091D305808180618083FA
:102D5000E091D205F091D305808188608083E09175
:102D6000D205F091D305808180688083E091D205FF
:102D7000F091D30580818F7D808361E08DE00E949A
:102D8000EC0C86EB97E0C2DD86EB97E0F6DC81EA9F
:102D900097E0BCDD81EA97E0F0DC8CE897E0B6DDF7
:102DA0008CE897E0EADC11E010938607C6EBD7E0E9
:102DB000D0938807C09387078AE797E00E94BA08F4
:102DC00000937407D0937607C093750788E697E061
:102DD0000E94BA0883E080936207D0936407C0938F
:102DE000630786E597E00E94BA0884E08093500765
:102DF000D0935207C093510784E497E00E94BA0829
:102E000085E080933E07D0934007C0933F0782E35D
:102E100097E00E94BA088AE797E09093E9068093CA
:102E2000E80688E697E09093DC068093DB0686E56B
:102E300097E09093CF068093CE0684E497E090933A
:102E4000C2068093C10682E397E09093B506809313
:102E5000B4066AE777E084E297E00E949C0868E69F
:102E600077E086E197E00E949C0866E577E088E0DD
:102E700097E00E949C0864E477E08AEF96E00E9465
:102E80009C0862E377E08CEE96E00E949C08C0E923
:102E9000D6E08CE897E09093930680939206109288
:102EA00094061093950662E084E20E94EC0C8CE894
:102EB00096E021EA37E030938F0620938E06D09378
:102EC0006706C093660690936906809368069093A0
:102ED0007D0680937C06D0937B06C0937A06909300
:102EE000A2068093A106D093A006C0939F0684E219
:102EF00097E09093DD078093DC0786E197E090935D
:102F0000DB078093DA0788E097E09093D9078093F6
:102F1000D8078AEF96E09093D7078093D6078CEE78
:102F200096E09093D5078093D40786E996E0909336
:102F3000D3078093D207E0912407F09125070480FE
:102F4000F581E02D84E297E019958091DA07909160
:102F5000DB07DC01ED91FC910480F581E02D1995F2
:102F60008091D8079091D907DC01ED91FC91048004
:102F7000F581E02D19958091D6079091D707DC0156
:102F8000ED91FC910480F581E02D19958091D40795
:102F90009091D507DC01ED91FC910480F581E02D45
:102FA00019958091D2079091D307DC01ED91FC91A6
:102FB0000480F581E02D19950E94790E6093CE076B
:102FC0007093CF078093D0079093D10788E0282E85
:102FD00087E0382E9AEF492E96E0592E2CEE622E7D
:102FE00026E0722ECFEDD6E002ED16E035ECE32EB2
:102FF00036E0F32E48EBC42E46E0D42E5DE5A52E38
:1030000056E0B52E61E7862E66E0962E80918B07FE
:10301000811106C08AE797E00E944A0981116DC1BB
:1030200080917907811106C088E697E00E944A09DD
:1030300081119DC180916707811106C086E597E0E7
:103040000E944A098111A3C180915507811106C0D0
:1030500084E497E00E944A098111A8C18091430746
:10306000811106C082E397E00E944A098111ADC137
:1030700080918B07882339F08AE797E00E944A09FC
:10308000882309F4B1C180917907882339F088E653
:1030900097E00E944A09882309F4E0C180916707FC
:1030A000882339F086E597E00E944A09882309F4CD
:1030B0000FC280915507882339F084E497E00E947D
:1030C0004A09882309F43EC280914307882339F0D6
:1030D00082E397E00E944A09882309F46DC2809137
:1030E00095068823F1F184E20E94950C892BC9F59D
:1030F0000E94790E0E94D80A8BE294E00E94A10AF5
:1031000080EF93E00E94A10A80E20E94A20A8BE570
:1031100095E00E94A10A87E494E00E94A10A81EE52
:1031200090E00E94AD0A89E494E00E94A10A80E741
:1031300095E00E94A10A8AE494E00E94A10A8FE728
:1031400095E00E94950AB092D307A092D207E09131
:103150005D06F0915E060480F581E02D8DE596E038
:1031600019951092CC071092CB078AE797E00E943E
:103170004A09811106C081E090E09093CC078093CA
:10318000CB0788E697E00E944A09811109C0809127
:10319000CB079091CC0701969093CC078093CB07F7
:1031A00086E597E00E944A09811109C08091CB070A
:1031B0009091CC0701969093CC078093CB0784E441
:1031C00097E00E944A09811109C08091CB07909134
:1031D000CC0701969093CC078093CB0782E397E0CE
:1031E0000E944A09811109C08091CB079091CC07B8
:1031F00001969093CC078093CB078091DC07909148
:10320000DD07DC01ED91FC910680F781E02D199539
:103210008091DA079091DB07DC01ED91FC9106804B
:10322000F781E02D19958091D8079091D907DC019D
:10323000ED91FC910680F781E02D19958091D607DC
:103240009091D707DC01ED91FC910680F781E02D8C
:1032500019958091D4079091D507DC01ED91FC91EF
:103260000680F781E02D19958091D2079091D307C0
:10327000DC01ED91FC910680F781E02D1995E0913C
:10328000D207F091D3078085882321F09092D3074D
:103290008092D2070E94790E2091CE073091CF07FD
:1032A0004091D0075091D107DC01CB01821B930BD9
:1032B000A40BB50B893E9340A105B105E0F00E9437
:1032C000790E6093CE077093CF078093D0079093C9
:1032D000D1078091CD07811108C061E08DE00E9487
:1032E000BD0C81E08093CD0706C060E08DE00E94B8
:1032F000BD0C1092CD0718D889CE0E94790E0E947D
:10330000D80A8BE294E00E94A10A80EF93E00E9429
:10331000A10A80E20E94A20A8BE595E00E94A10A20
:1033200087E494E00E94A10A8BE990E00E94AD0A34
:1033300089E494E00E94A10A84E895E00E94A10A31
:103340008AE494E00E94A10A81E090E00E94680C67
:1033500084E297E09093DD078093DC07E0912407F7
:10336000F09125070480F581E02D199559CEA6E14D
:10337000B7E0B093DB07A093DA07E0911607F0916E
:1033800017070480F581E02DCD01199553CE3092B9
:10339000D9072092D807E0910807F0910907048027
:1033A000F581E02D88E097E019954ECE5092D70731
:1033B0004092D607E091FA06F091FB060480F58171
:1033C000E02D8AEF96E0199549CE7092D50760926C
:1033D000D407E091EC06F091ED060480F581E02D34
:1033E0008CEE96E0199544CE0E94790E0E94D80A80
:1033F0008BE294E00E94A10A80EF93E00E94A10A70
:1034000080E20E94A20A8BE595E00E94A10A87E46F
:1034100094E00E94A10A8CEB90E00E94AD0A89E43E
:1034200094E00E94A10A80E995E00E94A10A8AE442
:1034300094E00E94A10A81E090E00E94680CD09381
:10344000DD07C093DC07E091DF06F091E006048021
:10345000F581E02D8FED96E0199515CE0E94790E3D
:103460000E94D80A8BE294E00E94A10A80EF93E0C8
:103470000E94A10A80E20E94A20A8BE595E00E94C8
:10348000A10A87E494E00E94A10A84EC90E00E94E3
:10349000AD0A89E494E00E94A10A80E995E00E94C7
:1034A000A10A8AE494E00E94A10A82E090E00E94CE
:1034B000680C1093DB070093DA07E091D206F091D5
:1034C000D3060480F581E02D82ED96E01995E6CDD6
:1034D0000E94790E0E94D80A8BE294E00E94A10A11
:1034E00080EF93E00E94A10A80E20E94A20A8BE58D
:1034F00095E00E94A10A87E494E00E94A10A8AEC68
:1035000090E00E94AD0A89E494E00E94A10A80E95B
:1035100095E00E94A10A8AE494E00E94A10A83E057
:1035200090E00E94680CF092D907E092D807E091F1
:10353000C506F091C6060480F581E02D85EC96E085
:103540001995B7CD0E94790E0E94D80A8BE294E0BB
:103550000E94A10A80EF93E00E94A10A80E20E94EB
:10356000A20A8BE595E00E94A10A87E494E00E94FC
:10357000A10A80ED90E00E94AD0A89E494E00E94E7
:10358000A10A80E995E00E94A10A8AE494E00E94E1
:10359000A10A84E090E00E94680CD092D707C09204
:1035A000D607E091B806F091B9060480F581E02DC8
:1035B00088EB96E0199588CD0E94790E0E94D80A72
:1035C0008BE294E00E94A10A80EF93E00E94A10A9E
:1035D00080E20E94A20A8BE595E00E94A10A87E49E
:1035E00094E00E94A10A87ED90E00E94AD0A89E470
:1035F00094E00E94A10A80E995E00E94A10A8AE471
:1036000094E00E94A10A85E090E00E94680C8BEA99
:1036100096E09093D5078093D407E091AB06F091A4
:10362000AC060480F581E02D199559CD8CE897E022
:103630007DD981EA97E07AD986EB97E077C9CF9375
:10364000DF938230910510F482E090E0E091E90789
:10365000F091EA0720E030E0C0E0D0E0309711F1CF
:103660004081518148175907C0F04817590761F444
:1036700082819381209719F09B838A832BC090933A
:10368000EA078093E90726C02115310519F0421792
:10369000530718F49A01BE01DF01EF010280F381A4
:1036A000E02DDCCF2115310509F1281B390B243021
:1036B000310590F412968D919C91139761157105C7
:1036C00021F0FB019383828304C09093EA078093E7
:1036D000E907FD01329644C0FD01E20FF31F81931B
:1036E0009193225031092D933C933AC02091E707E2
:1036F0003091E807232B41F420910202309103021C
:103700003093E8072093E7072091000230910102EF
:103710002115310541F42DB73EB740910402509177
:103720000502241B350BE091E707F091E807E2174B
:10373000F307A0F42E1B3F0B2817390778F0AC01D4
:103740004E5F5F4F2417350748F04E0F5F1F5093B1
:10375000E8074093E7078193919302C0E0E0F0E02F
:10376000CF01DF91CF9108950F931F93CF93DF93F4
:10377000009709F48CC0FC013297138212820091E9
:10378000E9071091EA070115110581F420813181C3
:10379000820F931F2091E7073091E8072817390718
:1037A00079F5F093E807E093E70771C0D80140E0AE
:1037B00050E0AE17BF0750F412962D913C9113972D
:1037C000AD012115310509F1D901F3CF9D01DA01D0
:1037D0003383228360817181860F971F821793073D
:1037E00069F4EC0128813981260F371F2E5F3F4F86
:1037F000318320838A819B8193838283452B29F4A3
:10380000F093EA07E093E90742C01396FC93EE9326
:103810001297ED01499159919E01240F351FE2172E
:10382000F30771F480819181840F951F02961196A0
:103830009C938E938281938113969C938E9312977F
:10384000E0E0F0E0D80112968D919C9113970097DB
:1038500019F0F8018C01F6CF8D919C9198012E5FA3
:103860003F4F820F931F2091E7073091E8072817F9
:10387000390769F4309729F41092EA071092E907A2
:1038800002C0138212821093E8070093E707DF91CA
:10389000CF911F910F9108958F929F92AF92BF92F7
:1038A000CF92DF92EF92FF92CF93DF93EC0168818A
:1038B00079818A819B81611571058105910521F4CA
:1038C00064E279ED8BE597E02DE133EF41E050E0E4
:1038D00038D049015A019B01AC01A7EAB1E44DD0AF
:1038E0006B017C01ACEEB4EFA501940152D0DC0178
:1038F000CB018C0D9D1DAE1DBF1DB7FF03C00197F1
:10390000A109B04888839983AA83BB83BC01CD01F8
:103910009F77DF91CF91FF90EF90DF90CF90BF9096
:10392000AF909F908F900895B7CF86E092E0B4CF8C
:103930006093060270930702809308029093090235
:103940000895052E97FB16F400940FD057FD05D06F
:1039500024D007FC02D046F408C05095409530951D
:1039600021953F4F4F4F5F4F0895909580957095EB
:1039700061957F4F8F4F9F4F089531D0A59F900D38
:10398000B49F900DA49F800D911D11240895B7FF41
:10399000F4CFF3DF821B930B0895A1E21A2EAA1B2A
:1039A000BB1BFD010DC0AA1FBB1FEE1FFF1FA217EF
:1039B000B307E407F50720F0A21BB30BE40BF50BEC
:1039C000661F771F881F991F1A9469F76095709575
:1039D000809590959B01AC01BD01CF010895A29FF8
:1039E000B001B39FC001A39F700D811D1124911DD3
:1039F000B29F700D811D1124911D08955058BB2751
:103A0000AA270ED04DC13ED130F043D120F031F481
:103A10009F3F11F41EF433C10EF4E095E7FB29C17A
:103A2000E92F4FD180F3BA17620773078407950710
:103A300018F071F49EF567C10EF4E0950B2EBA2FC5
:103A4000A02D0B01B90190010C01CA01A0011124A4
:103A5000FF27591B99F0593F50F4503E68F11A1650
:103A6000F040A22F232F342F4427585FF3CF4695E1
:103A700037952795A795F0405395C9F77EF41F1603
:103A8000BA0B620B730B840BBAF09150A1F0FF0FCD
:103A9000BB1F661F771F881FC2F70EC0BA0F621FB9
:103AA000731F841F48F4879577956795B795F795A9
:103AB0009E3F08F0B3CF9395880F08F09927EE0F3B
:103AC0009795879508950CD0EBC0E3D040F0DAD0FD
:103AD00030F021F45F3F19F0CCC0511115C1CFC0B7
:103AE000F0D098F39923C9F35523B1F3951B550BE7
:103AF000BB27AA2762177307840738F09F5F5F4FC1
:103B0000220F331F441FAA1FA9F333D00E2E3AF001
:103B1000E0E830D091505040E695001CCAF729D01B
:103B2000FE2F27D0660F771F881FBB1F261737076A
:103B30004807AB07B0E809F0BB0B802DBF01FF279A
:103B400093585F4F2AF09E3F510568F092C0DCC049
:103B50005F3FECF3983EDCF3869577956795B795D4
:103B6000F7959F5FC9F7880F911D9695879597F9EF
:103B70000895E1E0660F771F881FBB1F6217730768
:103B80008407BA0720F0621B730B840BBA0BEE1F7D
:103B900088F7E095089504D06894B111B5C00895F0
:103BA00098D088F09F5790F0B92F9927B751A0F07F
:103BB000D1F0660F771F881F991F1AF0BA95C9F7C1
:103BC00012C0B13081F09FD0B1E008959CC0672F42
:103BD000782F8827B85F39F0B93FCCF38695779571
:103BE0006795B395D9F73EF490958095709561955A
:103BF0007F4F8F4F9F4F0895E89409C097FB3EF485
:103C000090958095709561957F4F8F4F9F4F992329
:103C1000A9F0F92F96E9BB279395F69587957795A7
:103C20006795B795F111F8CFFAF4BB0F11F460FF67
:103C30001BC06F5F7F4F8F4F9F4F16C0882311F0BF
:103C400096E911C0772321F09EE8872F762F05C0D3
:103C5000662371F096E8862F70E060E02AF09A956E
:103C6000660F771F881FDAF7880F9695879597F963
:103C7000089597F99F6780E870E060E008959FEFEE
:103C800080EC089500240A941616170618060906F3
:103C9000089500240A9412161306140605060895C2
:103CA000092E0394000C11F4882352F0BB0F40F44A
:103CB000BF2B11F460FF04C06F5F7F4F8F4F9F4F8A
:103CC000089557FD9058440F551F59F05F3F71F00C
:103CD0004795880F97FB991F61F09F3F79F0879573
:103CE0000895121613061406551FF2CF4695F1DFFC
:103CF00008C0161617061806991FF1CF869571058C
:103D0000610508940895E894BB2766277727CB01BF
:103D100097F908950BD0C4CFB5DF28F0BADF18F0BB
:103D2000952309F0A6CFABCF1124EECFCADFA0F3C5
:103D3000959FD1F3950F50E0551F629FF001729F40
:103D4000BB27F00DB11D639FAA27F00DB11DAA1F5F
:103D5000649F6627B00DA11D661F829F2227B00DAC
:103D6000A11D621F739FB00DA11D621F839FA00D37
:103D7000611D221F749F3327A00D611D231F849F87
:103D8000600D211D822F762F6A2F11249F575040DE
:103D90008AF0E1F088234AF0EE0FFF1FBB1F661F79
:103DA000771F881F91505040A9F79E3F510570F032
:103DB00060CFAACF5F3FECF3983EDCF38695779512
:103DC0006795B795F795E7959F5FC1F7FE2B880F2D
:103DD000911D9695879597F908959F9305D00F901B
:103DE00007FCEE5F28C04BCF74DFE8F3E894E0E017
:103DF000BB279F57F0F02AED3FE049EC06C0EE0FDD
:103E0000BB0F661F771F881F28F0B23A620773073F
:103E1000840728F0B25A620B730B840BE3959A95D2
:103E200072F7803830F49A95BB0F661F771F881F92
:103E3000D2F7904813C0EF93E0FF06C0A2EA2AED44
:103E40003FE049EC5FEBECDD2BDF0F90039401FCCE
:103E50009058EAE3F1E00EC09F3F31F0915020F41A
:103E6000879577956795B795880F911D9695879556
:103E700097F908959F938F937F936F93FF93EF9399
:103E80009B01AC0147DFEF91FF9105D02F913F914E
:103E90004F915F913FCFDF93CF931F930F93FF928B
:103EA000EF92DF927B018C01689405C0DA2EEF015E
:103EB0003DDFFE01E894A5912591359145915591FD
:103EC000AEF3EF01ADDDFE019701A801DA9479F7B9
:103ED000DF90EF90FF900F911F91CF91DF910895A8
:103EE000EE0FFF1F881F8BBF0790F691E02D1994EE
:103EF00076DDB7FF0895821B930B089581E090E073
:103F0000F89407C0DC0101C06D9341505040E0F7C8
:103F1000089511E0CDE3D1E000E005C0802FFE015F
:103F2000DFDF2196011DCE33D10780E00807B1F70E
:043F3000F894FFCF33
:103F34000000EB078000010000007669727475616F
:103F44006C20766F6964204465617468537461728F
:103F54004578706C6F64653A3A7374617274536334
:103F640065656E282900766F69642044656174680C
:103F7400537461724578706C6F64653A3A646F4645
:103F84006C61736832282900766F69642044656126
:103F94007468537461724578706C6F64653A3A64FE
:103FA4006F46617374426C61636B282900766F6994
:103FB40064204465617468537461724578706C6FF1
:103FC40064653A3A646F466C6173683128290076F7
:103FD4006F696420446561746853746172457870D4
:103FE4006C6F64653A3A646F52696E675468726FB5
:103FF400622829007669727475616C20766F696431
:1040040020446561746853746172506C61794761CE
:104014006D653A3A7374617274536365656E2829E9
:10402400007669727475616C20766F6964204D6FD7
:10403400727365436F64653A3A737461727453635F
:1040440065656E2829007669727475616C20766FD7
:104054006964205469654669676874657245787057
:104064006C6F64653A3A7374617274536365656E18
:10407400282900766F696420546965466967687405
:104084006572506C61797347616D653A3A6C696E1B
:104094006B46696768746572285469654669676820
:1040A4007465722A2900000000002D11270EC61025
:1040B4007311F710D510E91000000000ED09D701C5
:1040C40070011A0600000000EB09CB01A603C3042B
:1040D40000000000EC09D5010000000026100C0FC0
:1040E40000000000EA09D3016C03E70300000000AC
:1040F400B908CF01E1020102000000000000000045
:10410400520E520E00000000B808CD01BE0F0E0F73
:10411400000000005409D901000000005309D10136
:10412400766F6964206C6F6F7028290076697274E9
:1041340075616C20766F69642054696546696768A7
:10414400746572506C61797347616D653A3A737442
:10415400617274536365656E2829003A5B20002EF2
:104164002E5C4465617468537461724578706C6F39
:1041740064652E637070003A005D20200044656120
:104184007468537461724578706C6F64653A3A73FD
:1041940074617274536365656E2829002E2E5C5415
:1041A4006965466967687465724578706C6F6465A3
:1041B4002E6370700054696546696768746572455A
:1041C40078706C6F64653A3A7374617274536365A2
:1041D400656E2829002E2E5C4D6F727365436F64E3
:1041E400652E637070002E2E5C4465617468537490
:1041F4006172506C617947616D652E637070004423
:104204006561746853746172506C617947616D655E
:104214003A3A7374617274536365656E2829007247
:10422400696E67205468726F62206368616E6765A7
:1042340020737461746500466C6173683100466173
:10424400737420426C61636B00466C617368320066
:104254002E2E5C54696546696768746572506C619A
:10426400797347616D652E637070005469654669A2
:104274006768746572506C61797347616D653A3A29
:104284004C696E6B656420000D0A002E2E5C44653B
:1042940061746853746172323031382E696E6F0004
:1042A40056656E7420506F727420486974200054EF
:1042B4007275650054617267657420757020200002
:1042C40054617267657420446F776E2020005469CE
:1042D4006546696768746572506C61797347616D8E
:1042E400653A3A7374617274536365656E28290084
:00000001FF
