:100000001AC1000049C1000047C1000045C10000FD
:1000100043C1000041C100003FC100003DC10000DC
:100020003BC1000039C1000037C1000035C10000EC
:1000300033C1000031C100002FC100002DC10000FC
:100040002BC1000029C1000027C1000025C100000C
:1000500023C1000021C100001FC100000C9417093A
:100060001BC100000C948A090C94610915C10000A1
:1000700013C1000011C100000FC100000DC100003C
:100080000BC1000009C1000007C1000005C100004C
:1000900003C1000001C10000FFC00000FDC000005E
:1000A000FBC00000F9C00000F7C00000F5C0000070
:1000B000F3C00000F1C00000EFC00000EDC0000080
:1000C000EBC00000E9C00000E7C00000E5C0000090
:1000D000E3C00000E1C00000DFC00000DDC00000A0
:1000E000DBC000004E06510640064406480688065E
:1000F000550659065F06630667066D0671067506A6
:1001000088067B067F068306FF0604070907130798
:100110001D07960727072F07370741074B07550786
:1001200064076E079607780782078C070000210096
:10013000240027002A002D003000330001010000B8
:10014000040107010A0100002200250028002B00FD
:100150002E003100340002010000050108010B01EE
:1001600005050505070508080808020202020A0A33
:100170000808040404040101010101010101030351
:10018000030303030303040707070C0C0C0C0C0CFC
:100190000C0C0202020206060606060606060B0BF9
:1001A0000B0B0B0B0B0B010210202008081020403A
:1001B000102040800201020108040201010204082B
:1001C00010204080804020100804020180040201B9
:1001D0008040201008040201080402010102040802
:1001E00010204080010204081020408000000A0B0B
:1001F00002090C0D0E0807030401000000000000B6
:1002000000000000000000000000000000000000EE
:1002100000000000000000001211100000000000AB
:1002200000000000000000000000000000000000CE
:100230000000760C6E0C11241FBECFEFD1E2DEBFA2
:10024000CDBF00E00CBF14E0A0E0B2E0E8EAF3E2CA
:1002500000E00BBF02C007900D92A433B107D9F79D
:1002600025E0A4E3B4E001C01D92A93FB207E1F785
:1002700011E0CAE1D1E000E006C021970109802F1A
:10028000FE010E948310C931D10780E00807A9F759
:100290000E94670D0C94C311B3CECF93DF93EC0192
:1002A00088859985009711F00E9420118E8187FD25
:1002B00004C060E0DF91CF913FC5DF91CF910895F9
:1002C0000C9420110C9420110C9420110C942011EA
:1002D0000C9420110C9420110C94201155C6CF922F
:1002E000DF92EF92FF92CF93DF93EC01CA80DB8025
:1002F000EC80FD8049D66C157D058E059F0508F4C0
:1003000075C08A859B858130910589F1FCF4892B24
:1003100009F06CC039D66B017C010E941A1028E5E7
:100320003BE140E050E00E942610DC01CB0180530D
:10033000984FAF4FBF4FC80ED91EEA1EFB1ECA8290
:10034000DB82EC82FD8281E090E029C08230910561
:1003500049F1039709F04AC017D6DC01CB01945A42
:10036000A94DBA4F8A839B83AC83BD833FC060E0B5
:1003700088E265D409D6DC01CB0188519C4FAF4F90
:10038000BF4F8A839B83AC83BD838FEF8C87E885C7
:10039000F9856FEF70E085850BD582E090E09B8753
:1003A0008A8724C060E088E24AD4EED5DC01CB0124
:1003B0000596A11DB11D8A839B83AC83BD836C858B
:1003C00070E075956795759567956C87E885F985F3
:1003D0008585EED48C85823248F41C86E885F985C3
:1003E00060E070E08585E4D41B861A86DF91CF91AA
:1003F000FF90EF90DF90CF900895FC011386128656
:10040000128213821482158261E089E218C4CF93AC
:10041000DF93EC01B9D54AE046D287E393E042D2BC
:1004200086E992E03FD280E27ED28BE393E03AD23B
:1004300086E593E037D287E290E080D288E593E0CA
:1004400031D28CE593E022D21B861A861A821B8257
:100450001C821D82DF91CF910895FC0112821382CC
:1004600014821582138612868FD54AE01CD287E348
:1004700093E018D286E392E015D280E254D28EE760
:1004800093E010D286E593E00DD286E290E056D25A
:1004900088E593E007D287E993E0F8C1FC01128276
:1004A000138214821582138612866ED54AE0FBD120
:1004B00087E393E0F7D18AE092E0F4D180E233D28F
:1004C00087EB93E0EFD186E593E0ECD189E290E011
:1004D00035D288E593E0E6D18FEC93E0D7C1CF9297
:1004E000DF92EF92FF920F931F93CF93DF93EC0174
:1004F000CA80DB80EC80FD8047D56C157D058E05BC
:100500009F0508F4A2C08A859B858130910509F476
:100510004AC08230910509F474C0892B09F095C056
:1005200008851985F801628170E02FEF3FEF4FEFEA
:1005300050E0838594850E94D30AF801638170E0BE
:100540002FEF3FEF4FEF50E0838594850E94D30A51
:10055000E884F98487010C5F1F4F6701FAE0CF0E32
:10056000D11CF80161918F0170E020EF30EF4FEF67
:1005700050E0F701838594850E94D30A0C151D0570
:1005800081F7E885F985838594850E946E0B82E06A
:1005900090E09B878A87F8D4DC01CB01845D9E4F75
:1005A000AF4FBF4F4EC08885998569D2082F888587
:1005B0009985D5D2182FE885F985838594850E9481
:1005C0006E0B61E089E23BD3DFD4DC01CB01059601
:1005D000A11DB11D8A839B83AC83BD832E813F8186
:1005E000215031093F832E83100F79F582E090E08E
:1005F0009B878A87C9D4DC01CB010596A11DB11D5B
:1006000020C0888599853BD2082F88859985A7D2F7
:10061000182FE885F985838594850E946E0BB4D4E4
:10062000DC01CB010596A11DB11D8A839B83AC83A0
:10063000BD83100F51F4A8D4DC01CB01945AA94D0D
:10064000BA4F8A839B83AC83BD83DF91CF911F9187
:100650000F91FF90EF90DF90CF9008958F929F922F
:10066000AF92BF92CF92DF92EF92FF920F931F93C0
:10067000CF93DF93EC018A809B80AC80BD8084D4D3
:10068000681579058A059B0508F455C08A859B8500
:10069000892B09F050C088849984A12CB12CF401D5
:1006A00082819381FC0122813381A216B30628F452
:1006B000B50166D68B019C0103C000E010E09801F3
:1006C000C12C80E7D82EE12CF12C47EE5FEF6CEEC9
:1006D0007FEF87EE9FEF5DD19B01AC01B501F40187
:1006E0008281938160D7FFEFAF1ABF0A88E1A81615
:1006F000B104A9F6E885F98584818F5F883110F40B
:10070000848301C01482648170E020ED30ED40EDFF
:1007100050E08281938147D7E885F9858281938172
:10072000DDD732D4DC01CB010396A11DB11D8A8334
:100730009B83AC83BD83DF91CF911F910F91FF907D
:10074000EF90DF90CF90BF90AF909F908F900895E3
:100750000895089508950895089508950895FC0151
:100760007187608711D44AE09ED087E393E09AD0E6
:1007700083E692E097D080E2D6D08BE393E092D0EC
:1007800086E593E08FD08AE190E0D8D088E593E0C9
:1007900089D08EEE93E07AC0FC018285833071F1BE
:1007A00028F4813049F08230B9F008958430C1F1E5
:1007B000853009F447C0089597E0958723E02283A8
:1007C00024E023831482858382E0868385E0878307
:1007D00086E080879187089588E085878DE0828311
:1007E0008EE083838AE084838BE085838CE086833C
:1007F0008FE0878380E1808781E135C089E085874C
:1008000087E1828388E1838384E1848385E1858332
:1008100086E1868389E187838AE180878BE123C033
:100820008AE0858781E2828382E283838EE184830A
:100830008FE1858380E2868383E2878384E28087F9
:1008400085E211C08BE085878BE282838CE2838313
:1008500088E2848389E285838AE286838DE28783C6
:100860008EE280878FE281870895009761F0FC0116
:1008700001900020E9F73197AF01481B590BBC01EB
:100880008CE394E08DC380E090E00895CF93DF93F4
:10089000ECDFEC018BE094E0E8DF8C0F9D1FDF9133
:1008A000CF910895E2CF8F929F92AF92BF920F9314
:1008B0001F93CF93DF93CDB7DEB7A1970FB6F89410
:1008C000DEBF0FBECDBF19A2423008F44AE08E0150
:1008D0000F5D1F4F842E912CA12CB12CA5019401EA
:1008E0000E945210E62FB901CA0101501109EA30E5
:1008F00014F4E05D01C0E95CD801EC93232B242BB8
:10090000252B61F7C801B1DFA1960FB6F894DEBFC1
:100910000FBECDBFDF91CF911F910F91BF90AF90D0
:100920009F908F900895E0913C04F0913D040190D8
:10093000F081E02D682F8CE394E01994CF92DF9240
:10094000EF92FF92CF93DF936C01990FEE08FF08AF
:10095000F7FE15C08DE2E7DFEC0166277727CB01B4
:100960006C197D098E099F094AE09DDF8C0F9D1F40
:10097000DF91CF91FF90EF90DF90CF9008954AE004
:10098000C701B601DF91CF91FF90EF90DF90CF903C
:100990008ACF6F927F928F929F92AF92BF92CF92A7
:1009A000DF92EF92FF920F931F93CF93DF93380163
:1009B0007724812E922EA32EBB24F401FF27D6018B
:1009C000BB278D2C9E2CAF2CBB245401BB24CE2DD9
:1009D000D0E0820F911D8C179D073CF08F3F910551
:1009E00029F024F08FEF90E001C0CE018F01060FB7
:1009F000171F0A151B053CF00F3F110529F024F0C5
:100A00000FEF10E001C08501460D571D4A175B0727
:100A10003CF04F3F510529F024F04FEF50E001C06A
:100A2000AD01012E000C220B330B322F212F102F82
:100A30000027092E000CAA0BBB0BDC019927882785
:100A4000802B912BA22BB32B052E000C660B770B62
:100A50008C019D01042B152B262B372BC901B801C6
:100A6000DF91CF911F910F91FF90EF90DF90CF908A
:100A7000BF90AF909F908F907F906F9008952F922E
:100A80003F924F925F926F927F928F929F92AF921E
:100A9000BF92CF92DF92EF92FF920F931F93CF936B
:100AA000DF9300D01F921F92CDB7DEB74C011C011F
:100AB00022E0220E311C04969B838A831982F10165
:100AC00081911F01282F30E03D832C83F401A38402
:100AD000B484F501828193812817390730F4B90174
:100AE000C5014ED42B013C0103C0412C512C3201D5
:100AF000C12CD12C76019301820146EE5FEF66EEA8
:100B00007FEF8CEE9FEF45DF9B01AC014616570649
:100B10006806790611F0F1E0F9836C817D81C501E9
:100B200042D52A813B812216330649F689810F90EE
:100B30000F900F900F900F90DF91CF911F910F9119
:100B4000FF90EF90DF90CF90BF90AF909F908F90ED
:100B50007F906F905F904F903F902F9008952F92CD
:100B60003F924F925F926F927F928F929F92AF923D
:100B7000BF92CF92DF92EF92FF920F931F93CF938A
:100B8000DF9300D01F921F92CDB7DEB74C011C013E
:100B900024E0220E311C0A969B838A831982F1017C
:100BA00081911F01282F30E03D832C83F401A38421
:100BB000B484F501828193812817390730F4B90193
:100BC000C501DED32B013C0103C0412C512C320165
:100BD000C12CD12C76019301820142EE5FEF62EECF
:100BE0007FEF82EE9FEFD5DE9B01AC0146165706E4
:100BF0006806790611F0F1E0F9836C817D81C50109
:100C0000D2D42A813B812216330649F689810F907E
:100C10000F900F900F900F90DF91CF911F910F9138
:100C2000FF90EF90DF90CF90BF90AF909F908F900C
:100C30007F906F905F904F903F902F900895362F48
:100C400090E0FC01E451FE4F4491FC01EA55FE4F57
:100C50002491FC01E05AFE4F9491992309F46BC052
:100C6000442309F455C050E0FA013197E231F1050F
:100C700008F04EC08827EE58FF4F8F4F0C9483101A
:100C8000809180008F7707C0809180008F7D03C0A6
:100C900080918000877F809380003AC084B58F77F1
:100CA00002C084B58F7D84BD33C08091B0008F7742
:100CB00003C08091B0008F7D8093B00029C08091E7
:100CC00090008F7707C0809190008F7D03C0809146
:100CD0009000877F809390001BC08091A0008F7749
:100CE00007C08091A0008F7D03C08091A000877F06
:100CF0008093A0000DC0809120018F7707C0809164
:100D000020018F7D03C080912001877F8093200187
:100D1000E92FF0E0EE0FFF1FEA5BFE4FA591B491C3
:100D20008FB7F894EC91311103C020952E2301C0A8
:100D30002E2B2C938FBF0895CF93DF9390E0FC016F
:100D4000EA55FE4F2491FC01E05AFE4F849188231E
:100D500061F190E0880F991FFC01E45DFE4FC591A1
:100D6000D491FC01EA5BFE4FA591B491611109C0D9
:100D70009FB7F8948881209582238883EC912E2355
:100D80000BC0623061F49FB7F8943881822F809550
:100D900083238883EC912E2B2C939FBF06C08FB7A3
:100DA000F894E8812E2B28838FBFDF91CF9108958F
:100DB0001F93CF93DF93182FEB0161E0BDDF2097E6
:100DC00011F460E004C0CF3FD10531F461E0812F20
:100DD000DF91CF911F9133CFE12FF0E0E451FE4F2F
:100DE000E4914E2F50E0FA013197E231F10508F01D
:100DF0009DC08827EC57FF4F8F4F0C94831084B50C
:100E0000806884BDC7BD97C084B5806284BDC8BDFD
:100E100092C080918000806880938000D093890088
:100E2000C093880088C08091800080628093800099
:100E3000D0938B00C0938A007EC080918000886030
:100E400080938000D0938D00C0938C0074C08091FB
:100E5000B00080688093B000C093B3006CC08091F4
:100E6000B00080628093B000C093B40064C08091F1
:100E70009000806880939000D0939900C093980070
:100E80005AC080919000806280939000D0939B0024
:100E9000C0939A0050C08091900088608093900029
:100EA000D0939D00C0939C0046C08091A0008068B4
:100EB0008093A0008091A0008F7B8093A000D093AE
:100EC000A900C093A80037C08091A00080628093E1
:100ED000A000D093AB00C093AA002DC08091A000C9
:100EE00088608093A000D093AD00C093AC0023C075
:100EF00080912001806880932001D0932901C093C4
:100F0000280119C080912001806280932001D09334
:100F10002B01C0932A010FC080912001886080932B
:100F20002001D0932D01C0932C0105C0C038D105FC
:100F30000CF04CCF46CFDF91CF911F9108953FB772
:100F4000F8948091380490913904A0913A04B091BA
:100F50003B0426B5A89B05C02F3F19F00196A11DA3
:100F6000B11D3FBFBA2FA92F982F8827820F911D3F
:100F7000A11DB11DBC01CD0142E0660F771F881F86
:100F8000991F4A95D1F708952FB7F89460913404CA
:100F90007091350480913604909137042FBF0895E5
:100FA000CF92DF92EF92FF920F931F93CF93DF9335
:100FB0006C017A018B01C0E0D0E0CE15DF0589F02D
:100FC000D8016D918D01D601ED91FC910190F081D8
:100FD000E02DC6011995892B11F47E0102C02196DE
:100FE000ECCFC701DF91CF911F910F91FF90EF9050
:100FF000DF90CF900895089580E090E00895FC017F
:10100000538D448D252F30E0842F90E0821B930B6D
:10101000541710F0CF96089501970895FC01918D13
:10102000828D981761F0828DDF01A80FB11D5D964A
:101030008C91928D9F5F9F73928F90E008958FEFB8
:101040009FEF0895FC01918D828D981731F0828D6C
:10105000E80FF11D858D90E008958FEF9FEF0895C3
:10106000FC01918D228D892F90E0805C9F4F821B27
:1010700091098F73992708958CE394E0F1DF21E0C3
:10108000892B09F420E0822F0895FC01848DDF0173
:10109000A80FB11DA35ABF4F2C91848D90E00196EB
:1010A0008F739927848FA689B7892C93A089B189DA
:1010B0008C9180648C93938D848D981306C00288E4
:1010C000F389E02D80818F7D80830895EF92FF92D8
:1010D0000F931F93CF93DF93EC0181E0888F9B8D5B
:1010E0008C8D981305C0E889F989808185FD23C01E
:1010F000F62E0B8D10E00F5F1F4F0F731127E02EA0
:101100008C8DE8120BC00FB607FCFACFE889F9897D
:10111000808185FFF5CFCE01B8DFF2CF8B8DFE0148
:10112000E80FF11DE35AFF4FF0820B8FEA89FB892C
:101130008081806207C0EE89FF896083E889F98930
:1011400080818064808381E090E0DF91CF911F9166
:101150000F91FF90EF900895CF93DF93EC01888D6E
:101160008823C1F0EA89FB89808185FD05C0A889B3
:10117000B9898C9186FD0EC00FB607FCF5CF808132
:1011800085FFF2CFA889B9898C9185FFEDCFCE017B
:101190007CDFE8CFDF91CF91089580E090E0892B4C
:1011A00019F06ADF811125C080E090E0892B41F0C1
:1011B00080E090E0892B21F00E94000081111CC08A
:1011C00080E090E0892B41F080E090E0892B21F0D5
:1011D0000E940000811113C080E090E0892BA1F0F3
:1011E00080E090E0892B81F00E94000081110AC00C
:1011F00008950E940000D8CF0E940000E1CF0E9415
:101200000000EACF0C9400000895CF93DF93EC0127
:101210008E8187FD05C061E08FDD60E08E810FDD8E
:1012200081E08983DF91CF9108950E94B8111F92C8
:101230000F920FB60F9211242F933F938F939F938A
:10124000AF93BF938091340490913504A0913604FC
:10125000B09137043091F40523E0230F2D3720F4AB
:101260000196A11DB11D05C026E8230F0296A11D00
:10127000B11D2093F4058093340490933504A0931A
:101280003604B09337048091380490913904A091CA
:101290003A04B0913B040196A11DB11D809338041E
:1012A00090933904A0933A04B0933B04BF91AF915B
:1012B0009F918F913F912F910F900FBE0F901F9094
:1012C00018951F920F920FB60F9211240BB60F9222
:1012D0002F933F934F935F936F937F938F939F933E
:1012E000AF93BF93EF93FF938CE394E0CEDEFF9137
:1012F000EF91BF91AF919F918F917F916F915F918E
:101300004F913F912F910F900BBE0F900FBE0F90FA
:101310001F9018951F920F920FB60F9211240BB6C3
:101320000F922F938F939F93EF93FF93E0914C0431
:10133000F0914D048081E0915204F091530482FDBC
:1013400012C09081809155048F5F8F732091560455
:10135000821751F0E0915504F0E0E45CFB4F958F6B
:101360008093550401C08081FF91EF919F918F91EF
:101370002F910F900BBE0F900FBE0F901F901895DE
:101380004F925F926F927F928F929F92AF92BF9295
:10139000CF92DF92EF92FF920F931F93CF93DF9341
:1013A000DC011D968C911D971A96EC901A97189651
:1013B000ED91FC91199717968C901797482F50E054
:1013C0001B961C911B971C960C91EB018E1161C012
:1013D000CC0FDD1FC60FD71FCE0FDF1F882009F4EB
:1013E00040C0912CA12CB12CFE01E40FF51F6081AF
:1013F00070E0762F6627072E000C880B990BA5014D
:10140000940150D6390155244424FE01E10FF11D09
:10141000608170E0762F6627072E000C880B990BF1
:10142000A50194013FD6B42FA32F922F88277301D3
:101430006201C82AD92AEA2AFB2AC00FD11D688175
:1014400070E0762F6627072E000C880B990BA501FC
:10145000940128D6C701B601622B732B842B952BE0
:1014600091C0FE01E40FF51F2081FE01E10FF11D87
:101470006081862F90E0A0E0B0E0BA2FA92F982FCE
:101480008827A22BC00FD11D2881BC01CD01622B62
:1014900079C0CC0FDD1FCC0FDD1FCE0FDF1FF12C6D
:1014A000882009F454C0912CA12CB12CFE01E40F2A
:1014B000F51F608170E0762F6627072E000C880BE1
:1014C000990BA5019401EED5722E6624552444246F
:1014D000FE01EE0DFF1D608170E0762F6627072E5E
:1014E000000C880B990BA5019401DCD57901DD2452
:1014F000CC24C428D528E628F728FE01E00FF11DEA
:10150000608170E0762F6627072E000C880B990B00
:10151000A5019401C7D5C22AD32AE42AF52AC10F0E
:10152000D11D688170E0762F6627072E000C880B8E
:10153000990BA5019401B6D5B42FA32F922F88271C
:10154000BC01CD016C297D298E299F291BC0FE017C
:10155000E40FF51F2081FE01EE0DFF1D6081862F37
:1015600090E0A0E0B0E0DC0199278827B22BFE01D3
:10157000E00FF11D2081822BC10FD11D2881BC01FC
:10158000CD01722BDF91CF911F910F91FF90EF90C2
:10159000DF90CF90BF90AF909F908F907F906F9093
:1015A0005F904F9008958F929F92AF92BF92CF928B
:1015B000DF92EF92FF920F931F93CF93DF93FC0183
:1015C000828193816817790708F04CC04A01AA24E8
:1015D000BB24B82DC32ED42EE52EFF24AC2D922F84
:1015E0008781882361F0889E40011124B92DC89E0F
:1015F00060011124AD2D289FE00111249D2FD58479
:10160000C285E084F184DC1208C09B01220F331FE5
:10161000620F731F6E0D7F1D16C0660F771F660F5A
:10162000771F6E0D7F1D052F112722273327EB0112
:10163000CD0DD11D882329F0089F90011124232F5F
:1016400001C0202F28838285EB01C80FD11DB883EC
:101650008385EB01C80FD11DA8838485FB01E80FAA
:10166000F11D9083DF91CF911F910F91FF90EF902B
:10167000DF90CF90BF90AF909F908F9008951F9371
:10168000CF93DF93EC01162F8981882329F08E8177
:1016900087FD02C060E050DB1E838981882331F022
:1016A00061E0812F49DB60E0812FC9DA812F90E072
:1016B000FC01E05AFE4FE491F0E0EE0FFF1FEA5B01
:1016C000FE4F259134913B8B2A8BFC01EA55FE4F4E
:1016D000E491EC8BDF91CF911F910895CF92DF922F
:1016E000EF92FF920F931F93CF93DF93CDB7DEB7A7
:1016F00029970FB6F894DEBF0FBECDBF8C01DC0179
:1017000018968D919C911997892B09F4A1C017DC2B
:10171000F801C684D784E088F188DC01CB018C19FC
:101720009D09AE09BF098C329140A105B10578F33E
:10173000F894D80114968D919C9115979A8389837A
:101740001896ED91FC9119977F01BFEFEB1AFB0AF8
:1017500080818987F80190810288F389E02DD80182
:1017600054968C91992309F430C09081982B9887D6
:101770009081809589238F838F818C8388E08B83F0
:1017800058856F8149853B812C8189819A81D70158
:10179000508347FD252F3A952083262F39F0441F8B
:1017A00000C000006083000000C0F2CF38E04D911F
:1017B00060830000019761F7D8015396FC93EE9384
:1017C000529749873B832C833AC09081982B988706
:1017D0009081809589238F838F818E8388E08D838C
:1017E00058856F8149853D812E8189819A81D701F4
:1017F000508347FD252F00C000C0208300C000C0DB
:1018000000C000C000C060830000262F3A9541F060
:10181000441F000000C000C000C000C000C0E8CFEE
:1018200038E04D9100C0608300C0019709F7D801EE
:101830005396FC93EE93529749873D832E839A8368
:10184000898378947CDBF80166877787808B918B1E
:1018500029960FB6F894DEBF0FBECDBFDF91CF91B2
:101860001F910F91FF90EF90DF90CF900895EF922E
:10187000FF920F931F93CF93DF93EC017B01888539
:101880009985009709F0DCD49D858A85981719F011
:1018900084E090E002C083E090E08E9D80018F9D07
:1018A000100D9E9D100D11241D830C83C80133D48F
:1018B00099878887009739F0A80160E070E05CD5CF
:1018C000FB82EA8204C01D821C821B821A82DF9185
:1018D000CF911F910F91FF90EF90089589EB95E0C4
:1018E0000E944D018EEC95E00C944D01CF93DF9357
:1018F000ECE3F4E01382128288EE93E0A0E0B0E023
:1019000084839583A683B78389EC92E09183808357
:1019100085EC90E09587848784EC90E097878687B4
:1019200080EC90E0918B808B81EC90E0938B828BAC
:1019300082EC90E0958B848B86EC90E0978B868B85
:10194000118E128E138E148EEEECF5E0118217823A
:101950001186108616861786108A118A15861286B9
:10196000C1E0C387D2E0D487C08362E370E0CF01D7
:101970007EDF66E18EEC95E082DEE9EBF5E0118238
:1019800017821186108616861786108A118AC587D7
:10199000C2871386D487C08368E170E0CF0167DF18
:1019A00068E189EB95E06BDE87E293E09093AC050C
:1019B0008093AB0590939E0580939D059093900531
:1019C00080938F0590938205809381059093740591
:1019D00080937305E6E6F5E0128213821482158285
:1019E00083E193E091838083E9E5F5E0128213823D
:1019F0001482158291838083ECE4F5E012821382D5
:101A00001482158291838083EFE3F5E012821382C2
:101A10001482158291838083E2E3F5E012821382BF
:101A20001482158291838083E6E2F5E012821382AC
:101A3000148215828BEF92E0918380831386128645
:101A4000EAE1F5E012821382148215829183808389
:101A500013861286EEE0F5E012821382148215825C
:101A60009183808313861286E2E0F5E0128213826E
:101A7000148215829183808313861286E6EFF4E048
:101A800012821382148215829183808313861286B8
:101A900083EF92E09093F2048093F104E5EEF4E09A
:101AA000128213821482158287EE92E091838083E2
:101AB000E9EDF4E012821382148215828BED92E03C
:101AC0009183808313861286DF91CF910895789455
:101AD00084B5826084BD84B5816084BD85B5826033
:101AE00085BD85B5816085BD80916E0081608093E4
:101AF0006E0010928100809181008260809381004D
:101B0000809181008160809381008091800081605C
:101B1000809380008091B10084608093B1008091B7
:101B2000B00081608093B0008091910082608093CA
:101B3000910080919100816080939100809190004C
:101B40008160809390008091A10082608093A100C9
:101B50008091A10081608093A1008091A0008160AC
:101B60008093A00080912101826080932101809167
:101B70002101816080932101809120018160809307
:101B8000200180917A00846080937A0080917A00AD
:101B9000826080937A0080917A00816080937A00DD
:101BA00080917A00806880937A001092C100E09161
:101BB0004C04F0914D0412E01083E0914804F09140
:101BC00049041082E0914A04F0914B048FEC808329
:101BD00010925404E0915004F091510486E0808307
:101BE000E0914E04F0914F04808180618083E09108
:101BF0004E04F0914F04808188608083E0914E0410
:101C0000F0914F04808180688083E0914E04F091D0
:101C10004F0480818F7D808361E08DE08DD88EECD4
:101C200095E0F3DA8EEC95E059DD89EB95E0EDDA9D
:101C300089EB95E053DD81E08093B505CEECD5E0EE
:101C4000D093B705C093B6058BEA95E00E94CC030C
:101C50001093A705D093A905C093A8058DE995E039
:101C60000E94CC0383E080939905D0939B05C09399
:101C70009A058FE895E00E94CC0384E080938B0561
:101C8000D0938D05C0938C0581E895E00E94CC032C
:101C900085E080937D05D0937F05C0937E0583E723
:101CA00095E00E94CC038BEA95E090932F058093FA
:101CB0002E058DE995E090932305809322058FE80A
:101CC00095E0909317058093160581E895E0909331
:101CD0000B0580930A0583E795E09093FF048093BA
:101CE000FE046BEA75E086E695E00E94AF036DE9BD
:101CF00075E089E595E00E94AF036FE875E08CE43C
:101D000095E00E94AF0361E875E08FE395E00E94E3
:101D1000AF0363E775E082E395E00E94AF0381EFD4
:101D200094E029EB35E03093F4042093F30410920F
:101D3000F5049093E2048093E1049093EE04809381
:101D4000ED0486E695E09093F3058093F20589E52E
:101D500095E09093EA058093E9058CE495E09093F3
:101D6000E8058093E7058FE395E09093E60580937F
:101D7000E50582E395E09093E4058093E30585EE25
:101D800094E09093F1058093F00561E087E00E9474
:101D90009C0661E088E00E949C0661E089E00E9468
:101DA0009C0661E08AE00E949C0661E08BE00E9454
:101DB0009C06E0916605F09167050480F581E02DB1
:101DC00086E695E019958091E9059091EA05DC0198
:101DD000ED91FC910480F581E02D19958091E70546
:101DE0009091E805DC01ED91FC910480F581E02DF6
:101DF00019958091E5059091E605DC01ED91FC9146
:101E00000480F581E02D19958091E3059091E4051A
:101E1000DC01ED91FC910480F581E02D1995809114
:101E2000F0059091F105DC01ED91FC910480F581C4
:101E3000E02D1995A9D86093EC057093ED0580937A
:101E4000EE059093EF05C6E2D5E00AE115E080913A
:101E5000F2059091F305DC01ED91FC910680F7818C
:101E6000E02D19958091F0059091F105DC01ED913F
:101E7000FC910680F781E02D199561D84B015C013A
:101E800084E6C82ED12CE12CF12C59D8DC01CB01F1
:101E900088199909AA09BB09883E9340A105B10593
:101EA00058F0B1E0CB1AD108E108F10828EE820E13
:101EB00023E0921EA11CB11CC114D104E104F10461
:101EC00021F762D8C090EC05D090ED05E090EE05CA
:101ED000F090EF05DC01CB018C199D09AE09BF091B
:101EE00081309748A349B34008F459C04DD84AE01F
:101EF0000E94530487E393E00E9452048BE293E034
:101F00000E94520480E20E9493048EE094E00E94BA
:101F1000520486E593E00E94520485E990E00E9415
:101F20009E0488E593E00E94520483E294E00E94BC
:101F300046042AD86093EC057093ED058093EE0576
:101F40009093EF058091EB05811115C061E08DE064
:101F50000E941F0681E08093EB051093EA05009331
:101F6000E905E0911A05F0911B050480F581E02D4B
:101F70008AE195E013C060E08DE00E941F06109298
:101F8000EB05D093F305C093F205E0912605F0919F
:101F900027050480F581E02D86E295E01995FDD8AE
:101FA00056CF8F929F92AF92BF92CF92DF92EF92D5
:101FB000FF92CF93DF93EC01688179818A819B81C5
:101FC000611571058105910521F464E279ED8BE5D8
:101FD00097E02DE133EF41E050E038D049015A015C
:101FE0009B01AC01A7EAB1E44DD06B017C01ACEEE2
:101FF000B4EFA501940152D0DC01CB018C0D9D1DE5
:10200000AE1DBF1DB7FF03C00197A109B04888836B
:102010009983AA83BB83BC01CD019F77DF91CF91C8
:10202000FF90EF90DF90CF90BF90AF909F908F90F8
:102030000895B7CF80E092E0B4CF60930002709330
:10204000010280930202909303020895052E97FBEC
:1020500016F400940FD057FD05D024D007FC02D011
:1020600046F408C050954095309521953F4F4F4F0D
:102070005F4F089590958095709561957F4F8F4F34
:102080009F4F089531D0A59F900DB49F900DA49FB0
:10209000800D911D11240895B7FFF4CFF3DF821B4B
:1020A000930B0895A1E21A2EAA1BBB1BFD010DC0C4
:1020B000AA1FBB1FEE1FFF1FA217B307E407F507F8
:1020C00020F0A21BB30BE40BF50B661F771F881FD4
:1020D000991F1A9469F760957095809590959B016A
:1020E000AC01BD01CF010895A29FB001B39FC00113
:1020F000A39F700D811D1124911DB29F700D811D34
:102100001124911D0895EE0FFF1F881F8BBF0790AC
:10211000F691E02D1994CF93DF938230910510F45E
:1021200082E090E0E091F705F091F80520E030E0E2
:10213000C0E0D0E0309711F1408151814817590734
:10214000C0F04817590761F482819381209719F0F4
:102150009B838A832BC09093F8058093F70526C054
:102160002115310519F04217530718F49A01BE01E1
:10217000DF01EF010280F381E02DDCCF2115310575
:1021800009F1281B390B2430310590F412968D91FA
:102190009C9113976115710521F0FB019383828354
:1021A00004C09093F8058093F705FD01329644C072
:1021B000FD01E20FF31F81939193225031092D937A
:1021C0003C933AC02091F5053091F605232B41F45C
:1021D00020910602309107023093F6052093F50511
:1021E00020910402309105022115310541F42DB7EB
:1021F0003EB74091080250910902241B350BE09133
:10220000F505F091F605E217F307A0F42E1B3F0B3E
:102210002817390778F0AC014E5F5F4F2417350758
:1022200048F04E0F5F1F5093F6054093F5058193DC
:10223000919302C0E0E0F0E0CF01DF91CF910895EB
:102240000F931F93CF93DF93009709F48CC0FC0189
:102250003297138212820091F7051091F80501154B
:10226000110581F420813181820F931F2091F505A2
:102270003091F6052817390779F5F093F605E093C4
:10228000F50571C0D80140E050E0AE17BF0750F42B
:1022900012962D913C911397AD012115310509F14D
:1022A000D901F3CF9D01DA013383228360817181EB
:1022B000860F971F8217930769F4EC0128813981F3
:1022C000260F371F2E5F3F4F318320838A819B81EA
:1022D00093838283452B29F4F093F805E093F70567
:1022E00042C01396FC93EE931297ED0149915991D8
:1022F0009E01240F351FE217F30771F4808191814D
:10230000840F951F029611969C938E9382819381E0
:1023100013969C938E931297E0E0F0E0D80112960A
:102320008D919C911397009719F0F8018C01F6CFCD
:102330008D919C9198012E5F3F4F820F931F2091AA
:10234000F5053091F6052817390769F4309729F417
:102350001092F8051092F70502C0138212821093B2
:10236000F6050093F505DF91CF911F910F91089528
:1023700081E090E0F89407C0DC0101C06D9341500A
:102380005040E0F7089511E0CAE1D1E000E005C057
:10239000802FFE01B8DE2196011DCB31D10780E0F0
:0823A0000807B1F7F894FFCF24
:1023A800010000000000F90580007669727475610B
:1023B8006C20766F69642044656174685374617237
:1023C8004578706C6F64653A3A73746172745363DC
:1023D80065656E2829007669727475616C20766F60
:1023E800696420446561746853746172506C6179E2
:1023F80047616D653A3A7374617274536365656ECB
:10240800282900766F69642054696546696768748D
:102418006572506C61797347616D653A3A6C696EA3
:102428006B466967687465722854696546696768A8
:102438007465722A29007669727475616C20766FEA
:1024480069642054696546696768746572506C618F
:10245800797347616D653A3A737461727453636551
:10246800656E282900000000006608D007FF07AC49
:102478000830080E08220800000000AE036A014E6A
:10248800026E0100000000AD0368012D022E03005A
:10249800000000AC03600100000000AB036401FD14
:1024A800016F020000000000000000150915090076
:1024B800000000AA03620107026F0100000000A9E2
:1024C800036C0100000000A8036601766F696420B0
:1024D8006C6F6F702829003A5B20002E2E5C5469BF
:1024E8006546696768746572506C61797347616D98
:1024F800652E637070003A005D20200054696546BF
:10250800696768746572506C61797347616D653A83
:102518003A7374617274536365656E2829002E2EB0
:102528005C446561746853746172506C6179476189
:102538006D652E63707000446561746853746172D0
:10254800506C617947616D653A3A7374617274537E
:102558006365656E2829002E2E5C44656174685396
:102568007461724578706C6F64652E637070004496
:1025780065617468537461724578706C6F64653A0C
:102588003A7374617274536365656E2829005469DF
:102598006546696768746572506C61797347616DE7
:1025A800653A3A4C696E6B656420000D0A002E2E60
:1025B8005C446561746853746172323031382E69D5
:1025C8006E6F004B656570416C697665206669724F
:0425D8006564000036
:00000001FF
