:100000003DC100006CC100006AC1000068C1000071
:1000100066C1000064C1000062C1000060C1000050
:100020005EC100005CC100005AC1000058C1000060
:1000300056C1000054C1000052C1000050C1000070
:100040004EC100004CC100004AC1000048C1000080
:1000500046C1000044C1000042C100000C94EA15F2
:100060003EC10000F0C20000C5C2000038C100005F
:1000700036C1000034C1000032C1000030C10000B0
:100080002EC100002CC100002AC1000028C10000C0
:1000900026C1000024C1000022C1000020C10000D0
:1000A0001EC100001CC100001AC1000018C10000E0
:1000B00016C1000014C1000012C1000010C10000F0
:1000C0000EC100000CC100000AC1000008C1000000
:1000D00006C1000004C1000002C1000000C1000010
:1000E000FEC00000E209710A000B480B7E0BCD0B2D
:1000F000310C93119611851189118F11CD119A111F
:100100009E11A411A811AC11B211B611BA11CD11E2
:10011000C011C411C811E114E614EB14F514FF1456
:10012000781509151115191523152D1537154615AF
:10013000501578155A1564156E1505A84CCDB2D416
:100140004EB93836A9020C50B9918688083CA6AA47
:10015000AA2ABE000000803F0000210024002700E2
:100160002A002D00300033000101000004010701C6
:100170000A0100002200250028002B002E0031007B
:10018000340002010000050108010B0100002000FD
:100190002300260029002C002F003200000100005F
:1001A00003010601090105050505070508080808FA
:1001B000020202020A0A08080404040401010101FF
:1001C00001010101030303030303030304070707FA
:1001D0000C0C0C0C0C0C0C0C02020202060606069F
:1001E000060606060B0B0B0B0B0B0B0B010210206C
:1001F000200808102040102040800201020108045D
:1002000002010102040810204080804020100804F0
:100210000201800402018040201008040201080449
:10022000020101020408102040800102040810208D
:10023000408000000A0B02090C0D0E0807030401A0
:1002400000000000000000000000000000000000AE
:10025000000000000000000000000000000012117B
:10026000100000000000000000000000000000007E
:1002700000000000000000005F1C531C11241FBE82
:10028000CFEFD1E2DEBFCDBF00E00CBF16E0A0E0B3
:10029000B2E0ECEEF3E400E00BBF02C007900D9279
:1002A000A23FB107D9F729E0A2EFB6E001C01D9245
:1002B000AF34B207E1F711E0CDE3D1E000E006C0D2
:1002C00021970109802FFE010E94CC21CC33D10758
:1002D00080E00807A9F70E9434160C94E52190CE1F
:1002E000CF92DF92EF92FF920F931F93CF93DF9302
:1002F0006C017A018B01C0E0D0E0CE15DF0589F0FA
:10030000D8016D918D01D601ED91FC910190F081A4
:10031000E02DC6011995892B11F47E0102C02196AA
:10032000ECCFC701DF91CF911F910F91FF90EF901C
:10033000DF90CF900895089580E090E00895FC014B
:10034000538D448D252F30E0842F90E0821B930B3A
:10035000541710F0CF96089501970895FC01918DE0
:10036000828D981761F0828DDF01A80FB11D5D9617
:100370008C91928D9F5F9F73928F90E008958FEF85
:100380009FEF0895FC01918D828D981731F0828D39
:10039000E80FF11D858D90E008958FEF9FEF089590
:1003A000FC01918D228D892F90E0805C9F4F821BF4
:1003B00091098F739927089585E097E0F1DF21E097
:1003C000892B09F420E0822F0895FC01848DDF0140
:1003D000A80FB11DA35ABF4F2C91848D90E00196B8
:1003E0008F739927848FA689B7892C93A089B189A7
:1003F0008C9180648C93938D848D981306C00288B1
:10040000F389E02D80818F7D80830895EF92FF92A4
:100410000F931F93CF93DF93EC0181E0888F9B8D27
:100420008C8D981305C0E889F989808185FD23C0EA
:10043000F62E0B8D10E00F5F1F4F0F731127E02E6C
:100440008C8DE8120BC00FB607FCFACFE889F9894A
:10045000808185FFF5CFCE01B8DFF2CF8B8DFE0115
:10046000E80FF11DE35AFF4FF0820B8FEA89FB89F9
:100470008081806207C0EE89FF896083E889F989FD
:1004800080818064808381E090E0DF91CF911F9133
:100490000F91FF90EF900895CF93DF93EC01888D3B
:1004A0008823C1F0EA89FB89808185FD05C0A88980
:1004B000B9898C9186FD0EC00FB607FCF5CF8081FF
:1004C00085FFF2CFA889B9898C9185FFEDCFCE0148
:1004D0007CDFE8CFDF91CF91089580E090E0892B19
:1004E00019F06ADF811125C080E090E0892B41F08E
:1004F00080E090E0892B21F00E94000081111CC057
:1005000080E090E0892B41F080E090E0892B21F0A1
:100510000E940000811113C080E090E0892BA1F0BF
:1005200080E090E0892B81F00E94000081110AC0D8
:1005300008950E940000D8CF0E940000E1CF0E94E1
:100540000000EACF0C94000008950E94DA21CF93B6
:10055000DF93EC0188859985009711F00E94101EA9
:100560008E8187FD05C060E0DF91CF910C947E14F1
:10057000DF91CF9108950C94101ECF92DF92EF92ED
:10058000FF920F931F93CF93DF9300D01F92CDB7AD
:10059000DEB76217730784079507FCF489019A0197
:1005A0006B017C01A9019801261B370B480B590BE5
:1005B00069F029833A834B835C830E94F11E298171
:1005C0003A814B815C810E94FD1E03C060E070E0B7
:1005D000CB016C0D7D1D8E1D9F1D0F900F900F90F8
:1005E0000F90DF91CF911F910F91FF90EF90DF90CF
:1005F000CF9008951F920F920FB60F9211240BB651
:100600000F922F933F934F935F936F937F938F93AB
:100610009F93AF93BF93EF93FF9385E097E0D5DE71
:10062000FF91EF91BF91AF919F918F917F916F91CA
:100630005F914F913F912F910F900BBE0F900FBE86
:100640000F901F9018951F920F920FB60F921124C2
:100650000BB60F922F938F939F93EF93FF93E0919D
:100660001507F09116078081E0911B07F0911C0798
:1006700082FD12C0908180911E078F5F8F73209141
:100680001F07821751F0E0911E07F0E0EB5FF84F73
:10069000958F80931E0701C08081FF91EF919F91FC
:1006A0008F912F910F900BBE0F900FBE0F901F9048
:1006B00018954F925F926F927F928F929F92AF9216
:1006C000BF92CF92DF92EF92FF920F931F93CF933F
:1006D000DF93DC0112968D919C911397681779072F
:1006E00008F0F9C01D968C911D971A96EC901A97F8
:1006F0001896ED91FC91199717968C901797482FA3
:1007000050E01B961C911B971C960C91EB018E11CF
:1007100064C0CC0FDD1FC60FD71FCE0FDF1F882090
:1007200009F443C0912CA12CB12CFE01E40FF51F5C
:10073000608170E0762F6627072E000C880B990BDE
:10074000A50194010E94291F390155244424FE016A
:10075000E10FF11D608170E0762F6627072E000CF7
:10076000880B990BA50194010E94291FB42FA32F78
:10077000922F882773016201C82AD92AEA2AFB2A04
:10078000C00FD11D688170E0762F6627072E000C00
:10079000880B990BA50194010E94291FC701B6017E
:1007A000622B732B842B952B99C0FE01E40FF51F50
:1007B0002081FE01E10FF11D6081862F90E0A0E015
:1007C000B0E0BA2FA92F982F8827A22BC00FD11DD8
:1007D0002881BC01CD01622B81C0CC0FDD1FCC0F65
:1007E000DD1FCE0FDF1FF12C882009F458C0912C9B
:1007F000A12CB12CFE01E40FF51F608170E0762F73
:100800006627072E000C880B990BA50194010E9406
:10081000291F722E662455244424FE01EE0DFF1D6F
:10082000608170E0762F6627072E000C880B990BED
:10083000A50194010E94291F7901DD24CC24C4283C
:10084000D528E628F728FE01E00FF11D608170E051
:10085000762F6627072E000C880B990BA5019401B3
:100860000E94291FC22AD32AE42AF52AC10FD11DCA
:10087000688170E0762F6627072E000C880B990B95
:10088000A50194010E94291FB42FA32F922F88271E
:10089000BC01CD016C297D298E299F291FC0FE0135
:1008A000E40FF51F2081FE01EE0DFF1D6081862FF4
:1008B00090E0A0E0B0E0DC0199278827B22BFE0190
:1008C000E00FF11D2081822BC10FD11D2881BC01B9
:1008D000CD01722B03C060E070E0CB01DF91CF91BE
:1008E0001F910F91FF90EF90DF90CF90BF90AF904E
:1008F0009F908F907F906F905F904F9008958F9210
:100900009F92AF92BF92CF92DF92EF92FF920F939E
:100910001F93CF93DF93FC0182819381681779073E
:1009200008F04CC04A01AA24BB24B82DC32ED42EF3
:10093000E52EFF24AC2D922F8781882361F0889EBD
:1009400040011124B92DC89E60011124AD2D289FAE
:10095000E00111249D2FD584C285E084F184DC124E
:1009600008C09B01220F331F620F731F6E0D7F1D86
:1009700016C0660F771F660F771F6E0D7F1D052F40
:10098000112722273327EB01CD0DD11D882329F014
:10099000089F90011124232F01C0202F28838285D6
:1009A000EB01C80FD11DB8838385EB01C80FD11DA2
:1009B000A8838485FB01E80FF11D9083DF91CF911F
:1009C0001F910F91FF90EF90DF90CF90BF90AF906D
:1009D0009F908F900895CF92DF92EF92FF920F93A6
:1009E0001F93CF93DF93CDB7DEB729970FB6F89457
:1009F000DEBF0FBECDBF8C01DC0118968D919C919E
:100A00001997892B09F4A3C00E948115F801C684A7
:100A1000D784E088F188DC01CB018C199D09AE09EF
:100A2000BF098C329140A105B10570F3F894D8014B
:100A300014968D919C9115979A8389831896ED91C0
:100A4000FC9119977F01BFEFEB1AFB0A8081898720
:100A5000F80190810288F389E02DD80154968C9199
:100A6000992309F430C09081982B988790818095C4
:100A700089238F838F818C8388E08B8358856F8156
:100A800049853B812C8189819A81D701508347FD1B
:100A9000252F3A952083262F39F0441F00C00000EF
:100AA0006083000000C0F2CF38E04D916083000009
:100AB000019761F7D8015396FC93EE9352974987BB
:100AC0003B832C833AC09081982B988790818095A6
:100AD00089238F838F818E8388E08D8358856F81F2
:100AE00049853D812E8189819A81D701508347FDB7
:100AF000252F00C000C0208300C000C000C000C07F
:100B000000C060830000262F3A9541F0441F00008A
:100B100000C000C000C000C000C0E8CF38E04D9168
:100B200000C0608300C0019709F7D8015396FC9379
:100B3000EE93529749873D832E839A8389837894D5
:100B40000E948115F80166877787808B918B2996A3
:100B50000FB6F894DEBF0FBECDBFDF91CF911F91CE
:100B60000F91FF90EF90DF90CF900895CF93DF9398
:100B7000EC018E8187FD07C061E00E947E1460E079
:100B80008E810E944F1481E08983DF91CF91089577
:100B9000CF92DF92EF92FF921F93CF93DF93EC01FE
:100BA0007B01142F19821F821E861F86188A198ABC
:100BB000C90146E0969587954A95E1F7482F43701D
:100BC0004D87C90154E0969587955A95E1F7837052
:100BD0008A87B901769567957695679563706B8777
:100BE000922F93709C8791E02F3F310511F008F010
:100BF00090E09883481719F084E090E002C083E009
:100C000090E08E9D60018F9DD00C9E9DD00C112494
:100C1000DD82CC82C6010E947B1D99878887009760
:100C200041F0A60160E070E00E94DE21FB82EA82D2
:100C300004C01D821C821B821A821E838981882324
:100C400041F061E0812F0E947E1460E0812F0E94BC
:100C50004F14812F90E0FC01EA55FE4FE491F0E043
:100C6000EE0FFF1FEE58FE4F259134913B8B2A8BE0
:100C7000FC01E451FE4FE491EC8BDF91CF911F9189
:100C8000FF90EF90DF90CF900895CF92DF92EF9298
:100C9000FF920F931F93CF93DF938C016A017B0127
:100CA000C0E0D0E0A7019601BE01F80182819381E6
:100CB00026DE2196C831D105A9F7F80182819381FA
:100CC000DF91CF911F910F91FF90EF90DF90CF9028
:100CD00082CE2F923F924F925F926F927F928F922D
:100CE0009F92AF92BF92CF92DF92EF92FF920F93BB
:100CF0001F93CF93DF93CDB7DEB760970FB6F8940D
:100D0000DEBF0FBECDBF3C017A8369835C834B831A
:100D10003E832D83EF82F88609871A87AB86BC86CF
:100D2000CD86DE86188A1F866F857889F3018281D9
:100D30009381BFDC1B012C018B849C84AD84BE8419
:100D4000CF80D884E984FA848B019C014D815E8137
:100D50006B817C8189819A810E94E3106B017C0107
:100D60009B01AC016F857889F30182819381C7DD96
:100D70008F8598890196988B8F874897A9F681E08F
:100D800090E02C143D044E045F0411F480E090E0E8
:100D900060960FB6F894DEBF0FBECDBFDF91CF9146
:100DA0001F910F91FF90EF90DF90CF90BF90AF9089
:100DB0009F908F907F906F905F904F903F902F907B
:100DC0000895CF93DF93EC010E94DE150E94631219
:100DD0008AE395E00E942C1286EB92E00E942C128E
:100DE00080E20E942D128AEA95E00E942C1280E592
:100DF00095E00E942C128AE290E00E94381282E56F
:100E000095E00E942C1282EC95E00E9420120E9434
:100E1000DE15688B798B8A8B9B8BE985FA85158229
:100E20001F861E861D861A821B821C821D820E94BE
:100E3000DE150E9463128AE395E00E942C1286EB75
:100E400092E00E942C1280E20E942D128AEA95E024
:100E50000E942C1280E595E00E942C1282E390E023
:100E60000E94381282E595E00E942C1282EC95E0F7
:100E7000DF91CF910C9420120C94101E0C94101E34
:100E80000C94101E0C94101E0C94101E4F925F9226
:100E90006F927F928F929F92AF92BF92CF92DF928A
:100EA000EF92FF920F931F93CF93DF93EC01CA80D1
:100EB000DB80EC80FD800E94DE156C157D058E05C3
:100EC0009F0508F49AC18D859E85892B09F095C1EF
:100ED00030EFA32EBA2CCA2CD12CE12C18E0F12E25
:100EE00000E010E026EF3FEF49EF5FEF66EF7FEFA6
:100EF00089859A85EEDEE985FA8584818F5F883160
:100F000010F4848301C01482648170E020E230E236
:100F100040E250E082819381F2DCE985FA858281AA
:100F2000938159DD0E94DE15A090F206B090F30681
:100F300027E02A9D60012B9DD00C11240D2C000C64
:100F4000EE08FF08DC01CB018C199D09AE09BF0931
:100F5000C296A11DB11D8A839B83AC83BD830E9471
:100F6000DE15CF88D88CE98CFA8CC616D706E80631
:100F7000F906F0F4B501660F771F660F771F6095CD
:100F80007095E12CF12C87019B01AB018B859C8531
:100F90000E9465120E94DE15DC01CB01855B9F4F2C
:100FA000AF4FBF4F8F8B988FA98FBA8F11E001C0C1
:100FB00010E00E94DE15CB88DC88ED88FE88C6161E
:100FC000D706E806F90608F001C185E08A9D6001B0
:100FD0008B9DD00C112496012E5C3F4F032E000CEC
:100FE000440B550B6AE070E080E090E0C6DA4B01FC
:100FF0005C018EE1C80ED11C0D2C000CEE08FF0820
:10100000A701960160E070E0CB01B7DA2B013C014B
:10101000A701960160E070E0CB01AFDA6B01770FBA
:10102000EE08FF08FE2CED2CDC2CCC24052C000C4B
:10103000660877084C285D286E287F28762C652C5A
:10104000542C44246401990CEE08FF08C428D528C8
:10105000E628F728B701A6018B859C850E94DC1243
:101060008091F2069091F3061816190634F4B70130
:10107000A6018B859C850E94DC128091F2069091DE
:10108000F306029734F0B701A6018B859C850E9478
:10109000DC128091F2069091F306029734F0B701CA
:1010A000A6018B859C850E94DC128091F2069091AE
:1010B000F306039734F0B701A6018B859C850E9447
:1010C000DC128091F2069091F306039734F0B70199
:1010D000A6018B859C850E94DC128091F20690917E
:1010E000F306039734F0B701A6018B859C850E9417
:1010F000DC128091F2069091F306049734F0B70168
:10110000A6018B859C850E94DC128091F20690914D
:10111000F306049734F0B701A6018B859C850E94E5
:10112000DC128091F2069091F306049734F0B70137
:10113000A6018B859C850E94DC128091F20690911D
:10114000F306059734F0B701A6018B859C850E94B4
:10115000DC128091F2069091F306059734F0B70106
:10116000A6018B859C850E94DC128091F2069091ED
:10117000F306059734F0B701A6018B859C850E9484
:10118000DC128091F2069091F306059734F0B701D6
:10119000A6018B859C850E94DC128091F2069091BD
:1011A000F306059734F0B701A6018B859C850E9454
:1011B000DC120E94DE15DC01CB01885E9E4FAF4F32
:1011C000BF4F8B8B9C8BAD8BBE8B02C01123A9F0C4
:1011D000EB85FC8582819381DF91CF911F910F91E7
:1011E000FF90EF90DF90CF90BF90AF909F908F9047
:1011F0007F906F905F904F90EECBDF91CF911F91DA
:101200000F91FF90EF90DF90CF90BF90AF909F90A5
:101210008F907F906F905F904F90089508950895FC
:10122000CF92DF92EF92FF920F931F93CF93DF93B2
:101230008C016A017B01C0E0D0E0A7019601BE01EC
:10124000F801828193815BDB2196CE35D105A9F728
:10125000F80182819381DF91CF911F910F91FF90CF
:10126000EF90DF90CF90B7CBCF93DF93EC010E944C
:10127000DE150E9463128AE395E00E942C1282EC34
:1012800093E00E942C1280E20E942D1281EE95E0E4
:101290000E942C1280E595E00E942C1289E290E0D9
:1012A0000E94381282E595E00E942C1284ED95E0B0
:1012B0000E9420121A821B821C821D8240E050E094
:1012C000BA0189859A85E1DC40E050E0BA018B855E
:1012D0009C85A6DF0E94DE156F87788B898B9A8BA1
:1012E0001E861D861886DF91CF910895CF93DF93D8
:1012F000EC010E94DE150E9463128AE395E00E94D1
:101300002C1285E993E00E942C1280E20E942D129B
:1013100082EF95E00E942C1280E595E00E942C124D
:1013200087E290E00E94381282E595E00E942C123C
:101330008BE096E00E9420121A821B821C821D8282
:101340001E861D8640E050E0BA0189859A859DDCA5
:1013500040E050E0BA018B859C8562DF0E94DE157B
:101360006F87788B898B9A8B6F8B788F898F9A8F09
:101370006B8B7C8B8D8B9E8BDF91CF910895AF9281
:10138000BF92CF92DF92EF92FF920F931F93CF9372
:10139000DF93EC01CA80DB80EC80FD800E94DE15CB
:1013A0006C157D058E059F0508F49BC2ED85FE85B5
:1013B000E730F10508F095C28827EE58FF4F8F4FB0
:1013C0000C94CC210E94DE15088919892A893B8951
:1013D000601B710B820B930B0E9458202BED3FE09A
:1013E00049E450E40E94E62020E030E04AE754E47B
:1013F0000E94BF1F9B01AC010E945B1F0E944921FC
:1014000020E030E040E85FE30E945B1F20E030E036
:1014100040EA52E40E94E6202DEC3CEC4CE45FE311
:101420000E94E62020E030E040E252E40E945B1F90
:101430000E942720AB01770F660B770BBA01552767
:10144000442789859A8521DC0E94DE15DC01CB01C9
:10145000C296A11DB11D8A839B83AC83BD83C888BE
:10146000D988EA88FB8880EDC80E87E0D81EE11C89
:10147000F11C0E94DE15C616D706E806F90608F02C
:1014800030C20E94DE15688B798B8A8B9B8B1F86FE
:1014900081E090E09E878D870E94DE150E94631296
:1014A0008AE395E0D9D780E793E0D6D780E2D5D715
:1014B0008AEA95E0D1D780E595E0CED786E990E03D
:1014C000D7D782E595E0C8D78BE296E0DF91CF9140
:1014D0001F910F91FF90EF90DF90CF90BF90AF9052
:1014E000AFC70E94DE15088919892A893B89601BCC
:1014F000710B820B930B0E9458202BED3FE049E4C7
:1015000050E40E94E62020E030E04AE754E40E94E4
:10151000BF1F9B01AC010E945B1F0E94492120E07C
:1015200030E040E85FE30E945B1F20E030E040EAEB
:1015300052E40E94E6202DEC3CEC4CE45FE30E9478
:10154000E62020E030E040E252E40E945B1F0E946F
:1015500027206B01770FEE08FF087601DD24CC24ED
:10156000B701A60189859A8590DB0E94DE1508895E
:1015700019892A893B89601B710B820B930B24E626
:1015800030E040E050E00E94291F2F8700E010E08B
:101590008F8590E0EB85FC85081719074CF4A701AF
:1015A0009601B80182819381AAD90F5F1F4FF0CFB6
:1015B0008281938110DA8F858E3510F08DE58F87CB
:1015C0000E94DE15DC01CB01C296A11DB11D8A83EC
:1015D0009B83AC83BD83C888D988EA88FB88E0E117
:1015E000CE0EE7E2DE1EE11CF11C0E94DE15C616DF
:1015F000D706E806F90608F074C182E090E066C1FB
:10160000AA24AA94BA2CCA2CD12CE12CF12C00E2E9
:1016100010E021EF3FEF41EF5FEF6BEF7FEF898548
:101620009A8557DBD82EE985FA8582819381D3D9B3
:10163000E12CF12C08E010E021EF3FEF41EF5FEFEC
:101640006BEF7FEF8B859C8540D7182FEB85FC8552
:1016500082819381C0D90E94DE15DC01CB01C29644
:10166000A11DB11D8A839B83AC83BD831D0D09F031
:1016700038C10E94DE15DC01CB01845D9E4FAF4F67
:10168000BF4F8A839B83AC83BD8383E090E01EC100
:101690000E94DE1518D78AE395E0DED68EE493E04B
:1016A000DBD680E2DAD68AEA95E0D6D680E595E008
:1016B000D3D683EC90E0DCD682E595E0CDD683E40A
:1016C00096E0BED64FEF5FEF6FEF70E089859A85A9
:1016D000DCDA40E85FEF6FEF70E08B859C85A0DD82
:1016E0000E94DE15DC01CB014E96A11DB11D8A833F
:1016F0009B83AC83BD8384E090E0E8C00E94DE154C
:10170000E2D68AE395E0A8D689E293E0A5D680E206
:10171000A4D68AEA95E0A0D680E595E09DD68CEC2B
:1017200090E0A6D682E595E097D68AE496E088D642
:101730000E94DE15C8D68AE395E08ED689E293E052
:101740008BD680E28AD68AEA95E086D680E595E057
:1017500083D68DEC90E08CD682E595E07DD683E44F
:1017600096E06ED640E050E0BA0189859A858DDA20
:1017700040E050E0BA018B859C8552DD0E94DE1569
:10178000DC01CB0180579E4FAF4FBF4F8A839B83B5
:10179000AC83BD8385E090E099C00E94DE1593D6AE
:1017A0008AE395E059D687E093E056D680E255D695
:1017B0008AEA95E051D680E595E04ED687ED90E037
:1017C00057D682E595E048D685E596E039D6EB8593
:1017D000FC85048115810E94DE1575D68AE395E0AB
:1017E0003BD682EE92E038D680E237D68EE395E0A3
:1017F00033D680E595E030D682E590E039D682E5B3
:1018000095E02AD681E695E01BD660E082E00E9452
:101810004F140E94DE15F801C280D380E480F58069
:10182000DC01CB018C0D9D1DAE1DBF1D808F918FE6
:10183000A28FB38F4FEF5FEF6FEF70E089859A85CE
:1018400024DA40E85FEF6FEF70E08B859C85E8DC81
:101850000E94DE15DC01CB0184549D4FAF4FBF4F7A
:101860002FC0AA24AA94BA2CCA2CD12CE12CF12C7A
:1018700087012CEE3FEF4CEE5FEF66EF7FEF89853F
:101880009A8527DAD82EE985FA8582819381A3D8B3
:101890002CEE3FEF41EF5FEF64EF7FEF8B859C8590
:1018A00014D6182FEB85FC858281938194D81D0D69
:1018B00081F00E94DE15DC01CB018896A11DB11DCF
:1018C0008A839B83AC83BD8386E090E09E878D876F
:1018D00008C080E09CE5A6E2B5E08A839B83AC83E8
:1018E000BD83DF91CF911F910F91FF90EF90DF901B
:1018F000CF90BF90AF9008950895089508958F9266
:101900009F92AF92BF92CF92DF92EF92FF920F938E
:101910001F93CF93DF93EC01CA80DB80EC80FD80C6
:101920000E94DE156C157D058E059F0508F4DCC050
:101930008B859C858130910509F44CC0C4F5892BB9
:1019400009F0D2C00E94F11E25E030E040E050E0F6
:101950000E94FD1E4B015C012FEF821A920AA20A1F
:10196000B20AE985FA85048510E0015011090E9448
:10197000DE156B017C0120E931E0D8010E94D42101
:10198000C60ED71EE81EF91EA0EDB7E0A501940112
:101990000E94191FDC01CB018C0D9D1DAE1DBF1DCA
:1019A0008A839B83AC83BD8381E090E07BC08230DF
:1019B000910509F47AC0039709F096C00E94DE15DC
:1019C000DC01CB01945AA94DBA4F8A839B83AC8327
:1019D000BD838AC0E985FA85028913890E94DE15D4
:1019E00072D58AE395E038D58CE994E035D580E26C
:1019F00034D58EE395E030D580E595E02DD581E7AF
:101A000090E036D582E595E027D581E695E018D5BA
:101A10000E94DE1558D58AE395E01ED58CE994E046
:101A20001BD580E21AD58EE395E016D580E595E0CA
:101A300013D583E790E01CD582E595E00DD58CE5C4
:101A400095E00AD583E595E007D586E090E0D2D50C
:101A500060E086E024D70E94DE15F801C280D380C2
:101A6000E480F580DC01CB018C0D9D1DAE1DBF1DFA
:101A700080A391A3A2A3B3A30E94DE15DC01CB0136
:101A800088519C4FAF4FBF4F8A839B83AC83BD83EC
:101A90008FEF8D87E985FA856FEF70E087856AD7CC
:101AA00082E090E09C878B871FC00E94DE15DC01DE
:101AB000CB018896A11DB11D8A839B83AC83BD8316
:101AC0006D856E516D8770E0E985FA85878552D7FF
:101AD0008D85893248F41D86E985FA8560E070E0DD
:101AE000878548D71C861B86DF91CF911F910F9168
:101AF000FF90EF90DF90CF90BF90AF909F908F902E
:101B00000895CF92DF92EF92FF920F931F93CF939E
:101B1000DF93EC011C861B861A821B821C821D82AD
:101B20000E94DE15D0D48AE395E096D48DE094E04F
:101B300093D480E292D48CE596E08ED480E595E053
:101B40008BD489E290E094D482E595E085D485E752
:101B500096E076D4E985FA85028913890E94DE151C
:101B6000B2D48AE395E078D487EE93E075D480E22E
:101B700074D48EE395E070D480E595E06DD480E672
:101B800090E076D482E595E067D481E695E058D47C
:101B90000E94DE1598D48AE395E05ED487EE93E048
:101BA0005BD480E25AD48EE395E056D480E595E08C
:101BB00053D482E690E05CD482E595E04DD48CE588
:101BC00095E04AD483E595E047D485E090E012D5CE
:101BD00060E085E064D6F2D7F801C280D380E4806B
:101BE000F580DC01CB018C0D9D1DAE1DBF1D848FCA
:101BF000958FA68FB78FE985FA85118A60E070E02E
:101C00008785DF91CF911F910F91FF90EF90DF902B
:101C1000CF90B0C6CF92DF92EF92FF920F931F93B7
:101C2000CF93DF93EC01CAD74ED48AE395E014D466
:101C30008DE694E011D480E210D485E996E00CD4CE
:101C400080E595E009D489E290E012D482E595E040
:101C500003D480EB96E0F4D3E984FA8487010E5F25
:101C60001F4F670187E0C80ED11CF80161918F01F9
:101C700070E020E030E0A901F701858596850E949B
:101C80007F040C151D0589F7E984FA848701095F33
:101C90001F4F6701FCE0CF0ED11CF80161918F014D
:101CA00070E020E030E0A901F701858596850E946B
:101CB0007F040C151D0589F7E985FA8585859685CC
:101CC0000E94EB041C861B861A821B821C821D82CA
:101CD000E985FA8581E0818BDF91CF911F910F918A
:101CE000FF90EF90DF90CF9008950C94101E0C940D
:101CF000101E0C94101ECF92DF92EF92FF920F9362
:101D00001F93CF93DF93EC01CA80DB80EC80FD80D2
:101D100055D76C157D058E059F0508F4B5C08B85DC
:101D20009C858130910509F44BC08230910509F4FE
:101D30007DC0892B09F0A8C0E984FA8487010E5F71
:101D40001F4F670187E0C80ED11CF80161918F0118
:101D500070E02FEF3FEF4FEF50E0F701858596855C
:101D60000E947F040C151D0581F7E984FA84870120
:101D7000095F1F4F6701FCE0CF0ED11CF801619194
:101D80008F0170E020EF30EF4FEF50E0F7018585D5
:101D900096850E947F040C151D0581F7E985FA855B
:101DA000858596850E94EB0482E090E09C878B8776
:101DB00005D7DC01CB018C509E4FAF4FBF4F60C0A9
:101DC00021EF3FEF41EF5FEF6FEF7FEF89859A855E
:101DD0003ED4082F47EE5FEF67EE7FEF89859A8547
:101DE000B7D4182FE985FA85858596850E94EB047E
:101DF000E5D6DC01CB010A96A11DB11D8A839B8328
:101E0000AC83BD832E813F81215031093F832E83D6
:101E1000100F09F039C082E090E09C878B87CED606
:101E2000DC01CB010596A11DB11D2AC02CEE3FEFB0
:101E30004CEE5FEF66EF7FEF89859A8508D4082F17
:101E400042EE5FEF62EE7FEF89859A8581D4182F8D
:101E5000E985FA85858596850E94EB04AFD6DC017D
:101E6000CB010596A11DB11D8A839B83AC83BD83E5
:101E7000100F51F4A3D6DC01CB01945AA94DBA4FEF
:101E80008A839B83AC83BD83DF91CF911F910F9198
:101E9000FF90EF90DF90CF900895CF93DF93EC0108
:101EA00040E850E86FEF70E089859A850E9445060A
:101EB00040E850E86FEF70E08B859C85B1D96CEB02
:101EC00072E080E090E042D640E050E0BA018985BF
:101ED0009A850E94450640E050E0BA018B859C85BA
:101EE0009FD964EF71E080E090E0DF91CF912EC642
:101EF000CF93DF93EC0140E850E86FEF70E0898505
:101F00009A850E94450640E850E86FEF70E08B85A7
:101F10009C8586D96CE271E080E090E017D640E0C5
:101F200050E0BA0189859A850E94450640E050E05C
:101F3000BA018B859C8574D964EF71E080E090E0F4
:101F4000DF91CF9103C68F929F92AF92BF92CF92B3
:101F5000DF92EF92FF920F931F93CF93DF93EC01E9
:101F60008A809B80AC80BD8029D6681579058A055A
:101F70009B0508F4AEC08D849E8481E08816910490
:101F800009F445C082E08816910409F45FC08928ED
:101F900009F09FC0CE0181DFCE01AADFCE017DDF37
:101FA000CE01A6DF64EF71E080E090E0CFD5CE01F6
:101FB0009FDFCE0172DFCE019BDFCE0199DF64EFA0
:101FC00071E080E090E0C2D5CE0192DFCE0165DF06
:101FD00064EF71E080E090E0B9D5CE0189DFCE01F9
:101FE0005CDFCE0185DF64EF71E080E090E0AED58C
:101FF000CE017EDF64EF71E080E090E0A7D568EE6F
:1020000073E080E090E0A2D581E090E01CC04FEF4B
:1020100050E060E070E089859A850E9445064FEFA8
:1020200050E060E070E08B859C85FAD8C7D5DC0174
:10203000CB018C509E4FAF4FBF4F8A839B83AC83A5
:10204000BD8382E090E09E878D8743C0AA24AA9436
:10205000BA2CCA2CD12CE12CF12C87012CEE3FEFAD
:102060004CEE5FEF66EF7FEF89859A850E946906E7
:102070009C8B8B8BE985FA85828193810E94EB048E
:102080002CEE3FEF41EF5FEF64EF7FEF8B859C8598
:102090001CD22B893C89820F931F9C8B8B8BEB85E9
:1020A000FC85828193810E94EB048B899C891816A0
:1020B00019066CF483D5DC01CB018896A11DB11DF6
:1020C0008A839B83AC83BD839E868D8602C081E01C
:1020D0008887DF91CF911F910F91FF90EF90DF9054
:1020E000CF90BF90AF909F908F9008950895FC017E
:1020F0007287618763D5E7D18AE395E0ADD18AE342
:1021000094E0AAD180E2A9D185E996E0A5D180E545
:1021100095E0A2D18CE190E0ABD182E595E09CD135
:1021200082ED96E08DC108950895CF93DF93EC0181
:102130008C858330D9F050F4813091F0823009F5EC
:102140008BE18F8783E2888B88E21CC0843099F012
:102150008530B9F48EE18F8786E2888B84E112C0E6
:102160008AE18F8782E2888B8EE10CC08CE18F87B9
:1021700084E2888B06C08DE18F8785E2888B8AE0B8
:1021800001C080E0FE0137969E01245F3F4F81939E
:10219000DF01169791E0980F9C938E5FE217F3078B
:1021A000B1F761E08F85AAD362E08889DF91CF9192
:1021B000A5C3FC0180894BD321E0892B09F420E0E1
:1021C000822F089508952F923F924F925F926F92BF
:1021D0007F928F929F92AF92BF92CF92DF92EF92B7
:1021E000FF920F931F93CF93DF93CDB7DEB72A975C
:1021F0000FB6F894DEBF0FBECDBF5A874987412E78
:10220000522E632E77244D825E826F82788616016D
:1022100033244D2C5E2C6F2C7724F201FF27AE2D3A
:10222000B0E0A40155275A834983FF24EB2CDA2C14
:10223000C92CDD24EA2CF12C820F911D8A179B07F3
:102240000CF4CD014D805E805524460E571E4E166F
:102250005F060CF42F01112769847A84060D171D7F
:10226000021513050CF48101C414D5040CF42601E5
:10227000052C000C66087708762C652C542C442419
:1022800029813A81201731070CF48901012E000CB5
:10229000220B330B402A512A622A732AE816F906C8
:1022A0000CF4C701092E000CAA0BBB0BDC0199270B
:1022B0008827BC01CD0164297529862997292A968A
:1022C0000FB6F894DEBF0FBECDBFDF91CF911F9147
:1022D0000F91FF90EF90DF90CF90BF90AF909F90C5
:1022E0008F907F906F905F904F903F902F900895C8
:1022F00090E0FC013197E231F10508F04EC08827EB
:10230000E758FF4F8F4F0C94CC21809180008F773E
:1023100003C0809180008F7D80938000089580911C
:102320008000877FF9CF84B58F7702C084B58F7D19
:1023300084BD08958091B0008F7703C08091B00074
:102340008F7D8093B0000895809190008F7707C0B3
:10235000809190008F7D03C080919000877F809353
:10236000900008958091A0008F7707C08091A00011
:102370008F7D03C08091A000877F8093A000089587
:10238000809120018F7707C0809120018F7D03C04D
:1023900080912001877F809320010895009769F044
:1023A000FC0101900020E9F73197AF01481B590B60
:1023B000BC0185E097E00C94700180E090E0089506
:1023C0008F929F92AF92BF920F931F93CF93DF9301
:1023D000CDB7DEB7A1970FB6F894DEBF0FBECDBF65
:1023E00019A2423008F44AE08E010F5D1F4F842E7F
:1023F000912CA12CB12CA50194010E94291FE62F3C
:10240000B901CA0101501109EA3014F4E05D01C0BC
:10241000E95CD801EC93232B242B252B61F7C80111
:10242000BDDFA1960FB6F894DEBF0FBECDBFDF9122
:10243000CF911F910F91BF90AF909F908F90089573
:10244000CF93DF93ABDFEC018FEE96E0A7DF8C0F2D
:102450009D1FDF91CF910895A1CFE0910507F091E5
:1024600006070190F081E02D682F85E097E0199430
:10247000CF92DF92EF92FF92CF93DF936C01990F8F
:10248000EE08FF08F7FE15C08DE2E7DFEC016627D6
:102490007727CB016C197D098E099F094AE090DFEF
:1024A0008C0F9D1FDF91CF91FF90EF90DF90CF9029
:1024B00008954AE0C701B601DF91CF91FF90EF90F8
:1024C000DF90CF907DCF4AE07BCF2F923F924F920B
:1024D0005F926F927F928F929F92AF92BF92CF92B4
:1024E000DF92EF92FF920F931F93CF93DF93CDB7BD
:1024F000DEB72C970FB6F894DEBF0FBECDBF3C0100
:102500007A8369835C834B833E832D83EF82F886D5
:1025100009871A871C861B866B857C85F30182815F
:1025200093810E9459031B012C0188248A94982CC2
:10253000A82CB12CCF80D884E984FA84920181013F
:102540004D815E816B817C8189819A813CDE6B014A
:102550007C019B01AC016B857C85F30182819381B9
:102560000E947F048B859C8501969C878B878E3586
:10257000910591F681E090E02C143D044E045F0437
:1025800011F480E090E02C960FB6F894DEBF0FBEF9
:10259000CDBFDF91CF911F910F91FF90EF90DF9012
:1025A000CF90BF90AF909F908F907F906F905F90F3
:1025B0004F903F902F900895CF92DF92EF92FF922D
:1025C000CF93DF93EC016A017B012DE530E040E021
:1025D00050E060E070E0CB010E94BD02A7019601CF
:1025E0008A819B81DF91CF91FF90EF90DF90CF9018
:1025F0000C947F04CF92DF92EF92FF92CF93DF9300
:102600006C01990FEE08FF08F7FE10C08DE225DF80
:10261000EC0166277727CB016C197D098E099F098C
:102620004AE0CEDE7C01EC0EFD1E05C04AE0C7018B
:10263000B601C6DE7C018FEE96E0B0DE8E0D9F1DEA
:10264000DF91CF91FF90EF90DF90CF9008952F9280
:102650003F924F925F926F927F928F929F92AF9232
:10266000BF92CF92DF92EF92FF920F931F93CF937F
:10267000DF93CDB7DEB72D970FB6F894DEBF0FBE50
:10268000CDBF1C017F836E83598748873B872A878C
:102690009C012E5F3F4F3D872C8707969D838C833F
:1026A0001982EC85FD85FB83EA83608170E0F1018E
:1026B000858596850E9459032B013C0188248A94C4
:1026C000982CA82CB12CC12CD12C7601930182011D
:1026D0004A855B85688579858E819F8174DD9B0144
:1026E000AC01461657066806790611F0F1E0F98349
:1026F0008C859D8501969D878C87EA81FB818081F1
:10270000682F70E0F101858596850E947F042C85F5
:102710003D858C819D812817390719F689812D9671
:102720000FB6F894DEBF0FBECDBFDF91CF911F91E2
:102730000F91FF90EF90DF90CF90BF90AF909F9060
:102740008F907F906F905F904F903F902F90089563
:102750002F923F924F925F926F927F928F929F92B1
:10276000AF92BF92CF92DF92EF92FF920F931F939F
:10277000CF93DF93CDB7DEB72B970FB6F894DEBFBC
:102780000FBECDBF1C017F836E83598748879C0194
:10279000295F3F4F3B872A870C969D838C83198244
:1027A000EA85FB85FB83EA83608170E0F101858522
:1027B00096850E9459032B013C0188248A94982C09
:1027C000A82CB12CC12CD12C760193018201488513
:1027D00059856E817F8181EF9FEFF5DC9B01AC0114
:1027E000461657066806790611F0F1E0F9838A85E6
:1027F0009B8501969B878A87EA81FB818081682F70
:1028000070E0F101858596850E947F042A853B85CD
:102810008C819D812817390719F689812B960FB66F
:10282000F894DEBF0FBECDBFDF91CF911F910F9106
:10283000FF90EF90DF90CF90BF90AF909F908F90E0
:102840007F906F905F904F903F902F900895CF931F
:10285000DF93282F30E0F901EE5CFD4F8491F90100
:10286000E451FE4FD491F901EA55FE4FC491CC23B7
:1028700089F081113DDDEC2FF0E0EE0FFF1FE457F2
:10288000FE4FA591B491EC91ED2381E090E021F40D
:1028900080E002C080E090E0DF91CF9108951F9327
:1028A000CF93DF93282F30E0F901EE5CFD4F849148
:1028B000F901E451FE4FD491F901EA55FE4FC4915C
:1028C000CC23C1F0162F811113DDEC2FF0E0EE0FB9
:1028D000FF1FEE58FE4FA591B4918FB7F8941111D8
:1028E00005C09C91ED2FE095E92302C0EC91ED2B02
:1028F000EC938FBFDF91CF911F910895CF93DF931A
:1029000090E0FC01E451FE4F2491FC01EA55FE4F9A
:102910008491882361F190E0880F991FFC01E85AA7
:10292000FE4FC591D491FC01EE58FE4FA591B49194
:10293000611109C09FB7F89488812095822388830C
:10294000EC912E230BC0623061F49FB7F89438816C
:10295000822F809583238883EC912E2B2C939FBF0D
:1029600006C08FB7F894E8812E2B28838FBFDF91A4
:10297000CF9108951F93CF93DF93182FEB0161E060
:10298000BDDF209711F460E004C0CF3FD10531F4E2
:1029900061E0812FDF91CF911F9181CFE12FF0E096
:1029A000EE5CFD4FE4914E2F50E0FA013197E23199
:1029B000F10508F09DC08827E557FF4F8F4F0C9415
:1029C000CC2184B5806884BDC7BD97C084B58062C2
:1029D00084BDC8BD92C080918000806880938000D3
:1029E000D0938900C093880088C080918000806265
:1029F00080938000D0938B00C0938A007EC080912A
:102A00008000886080938000D0938D00C0938C00FC
:102A100074C08091B00080688093B000C093B30010
:102A20006CC08091B00080628093B000C093B4000D
:102A300064C080919000806880939000D09399004A
:102A4000C09398005AC0809190008062809390005B
:102A5000D0939B00C0939A0050C0809190008860F2
:102A600080939000D0939D00C0939C0046C08091BD
:102A7000A00080688093A0008091A0008F7B80934D
:102A8000A000D093A900C093A80037C08091A000F7
:102A900080628093A000D093AB00C093AA002DC0A9
:102AA0008091A00088608093A000D093AD00C09377
:102AB000AC0023C080912001806880932001D093D6
:102AC0002901C093280119C0809120018062809360
:102AD0002001D0932B01C0932A010FC080912001C7
:102AE000886080932001D0932D01C0932C0105C0F4
:102AF000C038D1050CF04CCF46CFDF91CF911F915C
:102B000008953FB7F8948091470990914809A091A2
:102B10004909B0914A0926B5A89B05C02F3F19F075
:102B20000196A11DB11D3FBFBA2FA92F982F88274D
:102B3000820F911DA11DB11DBC01CD0142E0660FA8
:102B4000771F881F991F4A95D1F708958F929F92FA
:102B5000AF92BF92CF92DF92EF92FF926B017C0116
:102B6000D0DF4B015C01C114D104E104F104E9F0B0
:102B7000C8DFDC01CB0188199909AA09BB09883E85
:102B80009340A105B10578F321E0C21AD108E1080C
:102B9000F10888EE880E83E0981EA11CB11CC114B8
:102BA000D104E104F10421F7DECFFF90EF90DF9034
:102BB000CF90BF90AF909F908F9008952FB7F894CB
:102BC00060914309709144098091450990914609AB
:102BD0002FBF08951F920F920FB60F9211242F93BB
:102BE0003F938F939F93AF93BF93809143099091AD
:102BF0004409A0914509B09146093091420923E06A
:102C0000230F2D3720F40196A11DB11D05C026E824
:102C1000230F0296A11DB11D209342098093430901
:102C200090934409A0934509B093460980914709C0
:102C300090914809A0914909B0914A090196A11DB6
:102C4000B11D8093470990934809A0934909B09317
:102C50004A09BF91AF919F918F913F912F910F9012
:102C60000FBE0F901F901895789484B5826084BD34
:102C700084B5816084BD85B5826085BD85B5816080
:102C800085BD80916E00816080936E0010928100FE
:102C900080918100826080938100809181008160B9
:102CA000809381008091800081608093800080917A
:102CB000B10084608093B1008091B0008160809306
:102CC000B00080919100826080939100809191008A
:102CD000816080939100809190008160809390004A
:102CE0008091A10082608093A1008091A100816009
:102CF0008093A1008091A00081608093A0008091CA
:102D00002101826080932101809121018160809363
:102D100021018091200181608093200180917A00BF
:102D2000846080937A0080917A00826080937A0038
:102D300080917A00816080937A0080917A00806827
:102D400080937A001092C100E0911507F091160768
:102D500082E08083E0911107F09112071082E091E8
:102D60001307F09114078FEC808310921D07E091F8
:102D70001907F0911A0786E08083E0911707F09118
:102D80001807808180618083E0911707F091180710
:102D9000808188608083E0911707F0911807808117
:102DA00080688083E0911707F091180780818F7DFC
:102DB000808361E08DE0A2DDC0E08091000262E0EE
:102DC0008C0F9CDDCF5FC630C1F7C0E0D0E08091B2
:102DD00000028C0F3CDD892B21F4D0930202C093BA
:102DE00001022196C630D10591F7E8DE6CDB8AE35B
:102DF00095E032DB8DE092E02FDB80E22EDB8EE38C
:102E000095E02ADB80E595E027DB87E290E030DB88
:102E100082E595E021DB86E595E012DB80E092E03B
:102E20009093020980930109E12CF12CCDEDD8E0BB
:102E30000091DD081091DE080E0D1F1DBFDE43DB83
:102E40008AE395E009DB8DE092E006DB80E205DBBA
:102E50008EE395E001DB80E595E0FEDA8CE290E020
:102E600007DB82E595E0F8DA8CE595E0F5DA83E5B5
:102E700095E0F2DAC801BEDB61E0802F3FDD61E062
:102E8000802F0DDD8FEFE81AF80A98E0E916F104BB
:102E900009F0CCCF80E09CE5A6E2B5E08093F50890
:102EA0009093F608A093F708B093F8088093F90878
:102EB0009093FA08A093FB08B093FC088093FD0858
:102EC0009093FE08A093FF08B09300098DE299E06B
:102ED0000E94B6058DE299E00E94EB0488E199E03A
:102EE0000E94B60588E199E00E94EB0483E099E036
:102EF0000E94B60583E099E00E94EB04D093DC08C1
:102F0000C093DB08FF24F394F092D5080DE219E09A
:102F10001093D7080093D60889EC98E006D9D0938F
:102F2000C808C093C70882E08093C1081093C30803
:102F30000093C20885EB98E0F8D8D093B408C0930A
:102F4000B30883E08093AD081093AF080093AE08F8
:102F500081EA98E0EAD8D093A008C0939F0884E063
:102F60008093990810939B0800939A088DE898E045
:102F7000DCD8D0938C08C0938B0885E080938508BB
:102F8000109387080093860889E798E0CED889ECEB
:102F900098E09093300880932F0885EB98E0909309
:102FA00023088093220881EA98E090931608809382
:102FB00015088DE898E0909309088093080889E740
:102FC00098E09093FC078093FB0769EC78E08BE630
:102FD00098E08DD865EB78E08DE598E088D861EAD7
:102FE00078E08FE498E083D86DE878E081E498E0B9
:102FF0007ED869E778E083E398E079D807ED17E0B9
:1030000083E099E09093DA078093D9071092DB0769
:10301000F092DC0762E087E271DC81ED97E028E165
:1030200039E03093D4072093D307D093D607C093C9
:10303000D5071093AC070093AB079093AE0780932E
:10304000AD079093C2078093C1071093C007009308
:10305000BF079093E9078093E8071093E707009371
:10306000E6078BE698E090930407809303078DE5CD
:1030700098E090930207809301078FE498E0909383
:1030800000078093FF0681E498E09093FE0680930A
:10309000FD0683E398E09093FC068093FB0686EBA5
:1030A00097E09093FA068093F9068091010290913F
:1030B0000202069731F48DED97E09093FA06809323
:1030C000F906E0916B08F0916C080480F581E02D21
:1030D0008BE698E019958091010790910207DC0139
:1030E000ED91FC910480F581E02D19958091FF060A
:1030F00090910007DC01ED91FC910480F581E02DB9
:1031000019958091FD069091FE06DC01ED91FC91F0
:103110000480F581E02D19958091FB069091FC06C5
:10312000DC01ED91FC910480F581E02D19958091F1
:10313000F9069091FA06DC01ED91FC910480F5818D
:10314000E02D19953BDD6093F5067093F6068093AC
:10315000F7069093F806812C8CE5982E86E2A82E2F
:1031600085E0B82E99E1292E98E0392ECCE0D8E000
:103170000FEF17E022EAE22E27E0F22E36EBC32E05
:1031800037E0D32E1BDD2B013C018091F508909197
:10319000F608A091F708B091F80884159505A605E2
:1031A000B70520F50BDD8FD98AE395E055D981E885
:1031B00092E052D980E251D98EE395E04DD980E575
:1031C00095E04AD989E590E053D982E595E044D964
:1031D00081E695E035D961E082E061DB8092F50817
:1031E0009092F608A092F708B092F8088091F9083A
:1031F0009091FA08A091FB08B091FC088415950500
:10320000A605B70520F5DADC5ED98AE395E024D976
:1032100088E592E021D980E220D98EE395E01CD99F
:1032200080E595E019D98AE690E022D982E595E01B
:1032300013D981E695E004D961E085E030DB809226
:10324000F9089092FA08A092FB08B092FC088091CD
:10325000FD089091FE08A091FF08B0910009841527
:103260009505A605B70520F5A9DC2DD98AE395E0DB
:10327000F3D881E392E0F0D880E2EFD88EE395E0D6
:10328000EBD880E595E0E8D88CE790E0F1D882E5CE
:1032900095E0E2D881E695E0D3D861E086E0FFDAF8
:1032A0008092FD089092FE08A092FF08B09200095B
:1032B0008091DA08811106C089EC98E00E94D9104B
:1032C00081115DC18091C608811106C085EB98E02F
:1032D0000E94D91081118BC18091B208811106C062
:1032E00081EA98E00E94D910811191C180919E08D5
:1032F000811106C08DE898E00E94D910811196C115
:1033000080918A08811106C089E798E00E94D9104F
:1033100081119CC18091DA08882339F089EC98E00A
:103320000E94D910882309F4A0C18091C60888237F
:1033300039F085EB98E00E94D910882309F4CFC1B9
:103340008091B208882339F081EA98E00E94D91070
:10335000882309F4FDC180919E08882339F08DE807
:1033600098E00E94D910882309F42BC280918A0822
:10337000882339F089E798E00E94D910882309F45E
:1033800059C28091DC07882389F187E260DA892BB2
:1033900069F514DC98D88AE395E05ED88AEA92E071
:1033A0005BD880E25AD887E695E056D880E595E06C
:1033B00053D88CEE90E05CD882E595E04DD88CE750
:1033C00095E04AD883E595E047D88BE895E038D872
:1033D000F092FA06E092F906E091A207F091A307B5
:1033E0000480F581E02D82EA97E019951092F306AA
:1033F0001092F20689EC98E00E94D910811106C063
:1034000081E090E09093F3068093F20685EB98E0DC
:103410000E94D910811109C08091F2069091F306A3
:1034200001969093F3068093F20681EA98E00E9459
:10343000D910811109C08091F2069091F30601968E
:103440009093F3068093F2068DE898E00E94D910DD
:10345000811109C08091F2069091F3060196909334
:10346000F3068093F20689E798E00E94D910811153
:1034700009C08091F2069091F30601969093F306AD
:103480008093F2068091030790910407DC01ED918F
:10349000FC910680F781E02D1995809101079091AC
:1034A0000207DC01ED91FC910680F781E02D199572
:1034B0008091FF0690910007DC01ED91FC91068060
:1034C000F781E02D19958091FD069091FE06DC01B3
:1034D000ED91FC910680F781E02D19958091FB0616
:1034E0009091FC06DC01ED91FC910680F781E02DC6
:1034F00019958091F9069091FA06DC01ED91FC9105
:103500000680F781E02D1995E091F906F091FA0611
:103510008085882321F0D092FA06C092F9064EDB0E
:103520004090F5065090F6066090F7067090F80609
:10353000DC01CB0184199509A609B709893E93409E
:10354000A105B105C8F03ADB6093F5067093F60665
:103550008093F7069093F8068091F406811107C0D6
:1035600061E08DE09CD981E08093F40605C060E0C5
:103570008DE095D91092F4060E946D0203CE1EDBF9
:103580000E9463128AE395E00E942C128AEA92E07C
:103590000E942C1280E20E942D1287E695E00E9484
:1035A0002C1280E595E00E942C1286EA90E00E94A1
:1035B000381282E595E00E942C1280E995E00E9485
:1035C0002C1283E595E00E942C1281E090E012D845
:1035D0008BE698E09093040780930307E0916B08D3
:1035E000F0916C080480F581E02D19956BCEADE566
:1035F000B8E0B0930207A0930107E0915D08F09155
:103600005E080480F581E02DCD01199565CE8FE42B
:1036100098E0909300078093FF06E0914F08F091A7
:1036200050080480F581E02D199560CEA1E4B8E042
:10363000B093FE06A093FD06E0914108F091420888
:103640000480F581E02DCD0119955ACE83E398E0F1
:103650009093FC068093FB06E0913308F0913408C8
:103660000480F581E02D199555CEA8DA0E946312E9
:103670008AE395E00E942C128AEA92E00E942C12C2
:1036800080E20E942D1287E695E00E942C1280E5D0
:1036900095E00E942C1287EC90E00E94381282E59F
:1036A00095E00E942C128CE995E00E942C1283E593
:1036B00095E00E942C1281E090E00E94FA12A6E2AE
:1036C000B8E0B0930407A0930307E0912608F091B7
:1036D00027080480F581E02DCD01199526CE6EDAFC
:1036E0000E9463128AE395E00E942C128AEA92E01B
:1036F0000E942C1280E20E942D1287E695E00E9423
:103700002C1280E595E00E942C128FEC90E00E9434
:10371000381282E595E00E942C128CE995E00E9417
:103720002C1283E595E00E942C1282E090E00E942A
:10373000FA123092020720920107E0911908F091E5
:103740001A080480F581E02D89E198E01995F8CDFB
:1037500035DA0E9463128AE395E00E942C128AEA0D
:1037600092E00E942C1280E20E942D1287E695E0E2
:103770000E942C1280E595E00E942C1285ED90E0CD
:103780000E94381282E595E00E942C128CE995E0A7
:103790000E942C1283E595E00E942C1283E090E0B9
:1037A0000E94FA12D0930007C093FF06E0910C0824
:1037B000F0910D080480F581E02D8CE098E01995DA
:1037C000CACDFCD90E9463128AE395E00E942C12B4
:1037D0008AEA92E00E942C1280E20E942D1287E673
:1037E00095E00E942C1280E595E00E942C128BED52
:1037F00090E00E94381282E595E00E942C128CE93C
:1038000095E00E942C1283E595E00E942C1284E042
:1038100090E00E94FA121093FE060093FD06E091DC
:10382000FF07F09100080480F581E02D8FEF97E00D
:1038300019959CCDC3D90E9463128AE395E00E943A
:103840002C128AEA92E00E942C1280E20E942D1231
:1038500087E695E00E942C1280E595E00E942C12EC
:1038600082EE90E00E94381282E595E00E942C12D0
:103870008CE995E00E942C1283E595E00E942C12C1
:1038800085E090E00E94FA1282EF97E09093FC06A8
:103890008093FB06E091F207F091F3070480F58135
:1038A000E02D19956ECD83E099E00E94A70288E192
:1038B00099E00E94A7028DE299E00C94A702E5E04E
:1038C000F7E01382128288EE93E0A0E0B0E08483F8
:1038D0009583A683B78384EC94E09183808385EC01
:1038E00090E09587848784EC90E09787868780ECCA
:1038F00090E0918B808B81EC90E0938B828B82ECBB
:1039000090E0958B848B86EC90E0978B868B118E64
:10391000128E138E148E26E030E049E262E370E0EE
:103920008DE299E00E94C80526E030E048E26EE5AD
:1039300070E088E199E00E94C80522E530E04AE2A3
:1039400068E170E083E099E00E94C805EDEDF8E0E1
:1039500086E2DF011D928A95E9F782E890E0A0E017
:10396000B0E082839383A483B58321E030E0318784
:10397000208782E090E09387828783E090E09587BC
:10398000848784E090E09787868785E090E0918B3C
:10399000808B86E090E0938B828B86E395E090931A
:1039A000CA088093C9089093B6088093B50890938D
:1039B000A2088093A10890938E0880938D0890931D
:1039C0007A0880937908EBE6F8E012821382148279
:1039D0001582108682E295E091838083EDE5F8E020
:1039E0001282138214821582108691838083EFE401
:1039F000F8E01282138214821582108691838083EC
:103A0000E1E4F8E012821382148215821086918319
:103A10008083E3E3F8E01282138214821582108619
:103A200091838083E6E2F8E0128213821482158289
:103A300010868AE095E09183808314861386E9E1FD
:103A4000F8E012821382148215821086918380839B
:103A500014861386ECE0F8E0128213821482158239
:103A600010869183808314861386EFEFF7E012822D
:103A700013821482158210869183808314861386A4
:103A8000E2EFF7E01282138214821582108691838E
:103A9000808314861386EDEDF7E012821382148280
:103AA000158210868EEF94E09183808386EF94E0F8
:103AB0009093D8078093D7078EEE94E09093D20727
:103AC0008093D107E6EBF7E012821382148215820D
:103AD000108682EE94E091838083E2EAF7E012821E
:103AE000138214821582108686ED94E09183808380
:103AF000368725870895CF93DF938230910510F4A0
:103B000082E090E0E0914D09F0914E0920E030E034
:103B1000C0E0D0E0309711F140815181481759073A
:103B2000C0F04817590761F482819381209719F0FA
:103B30009B838A832BC090934E0980934D0926C0A6
:103B40002115310519F04217530718F49A01BE01E7
:103B5000DF01EF010280F381E02DDCCF211531057B
:103B600009F1281B390B2430310590F412968D9100
:103B70009C9113976115710521F0FB01938382835A
:103B800004C090934E0980934D09FD01329644C0C4
:103B9000FD01E20FF31F81939193225031092D9380
:103BA0003C933AC020914B0930914C09232B41F4AE
:103BB000209105023091060230934C0920934B0965
:103BC00020910302309104022115310541F42DB7F3
:103BD0003EB74091070250910802241B350BE0913B
:103BE0004B09F0914C09E217F307A0F42E1B3F0B91
:103BF0002817390778F0AC014E5F5F4F241735075F
:103C000048F04E0F5F1F50934C0940934B0981932E
:103C1000919302C0E0E0F0E0CF01DF91CF910895F1
:103C20000F931F93CF93DF93009709F48CC0FC018F
:103C300032971382128200914D0910914E0901159D
:103C4000110581F420813181820F931F20914B094E
:103C500030914C092817390779F5F0934C09E09316
:103C60004B0971C0D80140E050E0AE17BF0750F4D7
:103C700012962D913C911397AD012115310509F153
:103C8000D901F3CF9D01DA013383228360817181F1
:103C9000860F971F8217930769F4EC0128813981F9
:103CA000260F371F2E5F3F4F318320838A819B81F0
:103CB00093838283452B29F4F0934E09E0934D09B9
:103CC00042C01396FC93EE931297ED0149915991DE
:103CD0009E01240F351FE217F30771F48081918153
:103CE000840F951F029611969C938E9382819381E7
:103CF00013969C938E931297E0E0F0E0D801129611
:103D00008D919C911397009719F0F8018C01F6CFD3
:103D10008D919C9198012E5F3F4F820F931F2091B0
:103D20004B0930914C092817390769F4309729F469
:103D300010924E0910924D0902C013821282109304
:103D40004C0900934B09DF91CF911F910F9108957A
:103D50008F929F92AF92BF92CF92DF92EF92FF929B
:103D6000CF93DF93EC01688179818A819B81611512
:103D700071058105910521F464E279ED8BE597E009
:103D80002DE133EF41E050E038D049015A019B0169
:103D9000AC01A7EAB1E44DD06B017C01ACEEB4EF0D
:103DA000A501940152D0DC01CB018C0D9D1DAE1DEF
:103DB000BF1DB7FF03C00197A109B048888399834D
:103DC000AA83BB83BC01CD019F77DF91CF91FF9088
:103DD000EF90DF90CF90BF90AF909F908F9008951D
:103DE000B7CF89E092E0B4CF6093090270930A02E2
:103DF00080930B0290930C020895052E97FB16F406
:103E000000940FD057FD05D024D007FC02D046F413
:103E100008C050954095309521953F4F4F4F5F4FCB
:103E2000089590958095709561957F4F8F4F9F4F26
:103E3000089531D0A59F900DB49F900DA49F800D43
:103E4000911D11240895B7FFF4CFF3DF821B930B6C
:103E50000895A1E21A2EAA1BBB1BFD010DC0AA1FCB
:103E6000BB1FEE1FFF1FA217B307E407F50720F0E3
:103E7000A21BB30BE40BF50B661F771F881F991F5E
:103E80001A9469F760957095809590959B01AC01A7
:103E9000BD01CF010895A29FB001B39FC001A39FB0
:103EA000700D811D1124911DB29F700D811D112473
:103EB000911D08955058BB27AA270ED04DC13ED161
:103EC00030F043D120F031F49F3F11F41EF433C1A0
:103ED0000EF4E095E7FB29C1E92F4FD180F3BA1723
:103EE000620773078407950718F071F49EF567C1A0
:103EF0000EF4E0950B2EBA2FA02D0B01B901900105
:103F00000C01CA01A0011124FF27591B99F0593F48
:103F100050F4503E68F11A16F040A22F232F342F90
:103F20004427585FF3CF469537952795A795F040DE
:103F30005395C9F77EF41F16BA0B620B730B840BF3
:103F4000BAF09150A1F0FF0FBB1F661F771F881FAB
:103F5000C2F70EC0BA0F621F731F841F48F4879503
:103F600077956795B795F7959E3F08F0B3CF9395F2
:103F7000880F08F09927EE0F9795879508950CD034
:103F8000EBC0E3D040F0DAD030F021F45F3F19F01D
:103F9000CCC0511115C1CFC0F0D098F39923C9F30B
:103FA0005523B1F3951B550BBB27AA27621773073F
:103FB000840738F09F5F5F4F220F331F441FAA1FF3
:103FC000A9F333D00E2E3AF0E0E830D091505040B3
:103FD000E695001CCAF729D0FE2F27D0660F771F61
:103FE000881FBB1F261737074807AB07B0E809F043
:103FF000BB0B802DBF01FF2793585F4F2AF09E3FD8
:10400000510568F092C0DCC05F3FECF3983EDCF3F2
:10401000869577956795B795F7959F5FC9F7880F50
:10402000911D9695879597F90895E1E0660F771FA2
:10403000881FBB1F621773078407BA0720F0621B33
:10404000730B840BBA0BEE1F88F7E095089504D02C
:104050006894B111B5C0089598D088F09F5790F03A
:10406000B92F9927B751A0F0D1F0660F771F881F9D
:10407000991F1AF0BA95C9F712C0B13081F09FD0DC
:10408000B1E008959CC0672F782F8827B85F39F07A
:10409000B93FCCF3869577956795B395D9F73EF4FC
:1040A00090958095709561957F4F8F4F9F4F0895A4
:1040B000E89409C097FB3EF49095809570956195C2
:1040C0007F4F8F4F9F4F9923A9F0F92F96E9BB2778
:1040D0009395F695879577956795B795F111F8CFF4
:1040E000FAF4BB0F11F460FF1BC06F5F7F4F8F4F5F
:1040F0009F4F16C0882311F096E911C0772321F055
:104100009EE8872F762F05C0662371F096E8862FEC
:1041100070E060E02AF09A95660F771F881FDAF743
:10412000880F9695879597F9089597F99F6780E886
:1041300070E060E008959FEF80EC089500240A94F9
:104140001616170618060906089500240A94121672
:104150001306140605060895092E0394000C11F4A5
:10416000882352F0BB0F40F4BF2B11F460FF04C052
:104170006F5F7F4F8F4F9F4F089557FD9058440FAB
:10418000551F59F05F3F71F04795880F97FB991FB6
:1041900061F09F3F79F08795089512161306140673
:1041A000551FF2CF4695F1DF08C016161706180600
:1041B000991FF1CF86957105610508940895E894DB
:1041C000BB2766277727CB0197F908950BD0C4CF7B
:1041D000B5DF28F0BADF18F0952309F0A6CFABCFF2
:1041E0001124EECFCADFA0F3959FD1F3950F50E0D5
:1041F000551F629FF001729FBB27F00DB11D639F99
:10420000AA27F00DB11DAA1F649F6627B00DA11D3E
:10421000661F829F2227B00DA11D621F739FB00DE4
:10422000A11D621F839FA00D611D221F749F332754
:10423000A00D611D231F849F600D211D822F762FED
:104240006A2F11249F5750408AF0E1F088234AF0EA
:10425000EE0FFF1FBB1F661F771F881F9150504036
:10426000A9F79E3F510570F060CFAACF5F3FECF3F6
:10427000983EDCF3869577956795B795F795E79522
:104280009F5FC1F7FE2B880F911D9695879597F933
:1042900008959F9305D00F9007FCEE5F28C04BCF89
:1042A00074DFE8F3E894E0E0BB279F57F0F02AEDD5
:1042B0003FE049EC06C0EE0FBB0F661F771F881F5B
:1042C00028F0B23A62077307840728F0B25A620BEB
:1042D000730B840BE3959A9572F7803830F49A95B6
:1042E000BB0F661F771F881FD2F7904813C0EF934C
:1042F000E0FF06C0A2EA2AED3FE049EC5FEBECDD0F
:104300002BDF0F90039401FC9058EAE3F1E00EC01C
:104310009F3F31F0915020F4879577956795B79539
:10432000880F911D9695879597F908959F938F9380
:104330007F936F93FF93EF939B01AC0147DFEF9166
:10434000FF9105D02F913F914F915F913FCFDF9328
:10435000CF931F930F93FF92EF92DF927B018C011B
:10436000689405C0DA2EEF013DDFFE01E894A591C7
:104370002591359145915591AEF3EF01ADDDFE01EB
:104380009701A801DA9479F7DF90EF90FF900F91F1
:104390001F91CF91DF910895EE0FFF1F881F8BBFF4
:1043A0000790F691E02D199476DDB7FF0895821BF2
:1043B000930B089581E090E0F89407C0DC0101C000
:1043C0006D9341505040E0F7089511E0CDE3D1E006
:1043D00000E005C0802FFE01DFDF2196011DCE33F6
:0C43E000D10780E00807B1F7F894FFCF88
:1043EC000E000000004F09800001000000766F698C
:1043FC006420536F756E64426F6172643A3A7365F0
:10440C00747570284D6F64655377697463682A29D5
:10441C0000766F696420536F756E64426F617264CD
:10442C003A3A656E64546965466967687465725397
:10443C00686F6F7473282900766F696420536F75E9
:10444C006E64426F6172643A3A656E645469654693
:10445C006967687465724578706C6F646573282938
:10446C0000766F696420536F756E64426F6172647D
:10447C003A3A656E6444656174685374617274454C
:10448C0078706C6F646573282900766F6964206C92
:10449C006F6F702829007669727475616C20766F65
:1044AC006964204465617468537461724578706CFA
:1044BC006F64653A3A7374617274536365656E2800
:1044CC002900766F696420536F756E64426F617258
:1044DC00643A3A6465617468537461724578706CBF
:1044EC006F646573282900766F6964204465617474
:1044FC0068537461724578706C6F64653A3A646F96
:10450C00466C61736832282900766F6964204465B3
:10451C00617468537461724578706C6F64653A3A73
:10452C00646F46617374426C61636B282900766F0B
:10453C006964204465617468537461724578706C69
:10454C006F64653A3A646F466C6173683128290070
:10455C00766F696420446561746853746172457840
:10456C00706C6F64653A3A646F52696E6754687226
:10457C006F622829007669727475616C20766F6998
:10458C006420446561746853746172506C6179473E
:10459C00616D653A3A7374617274536365656E2824
:1045AC0029007669727475616C20766F6964204D90
:1045BC006F727365436F64653A3A737461727453C6
:1045CC006365656E282900766F696420536F756E7C
:1045DC0064426F6172643A3A7469654669676874DB
:1045EC0065724578706C6F64657328290076697202
:1045FC007475616C20766F696420546965466967CF
:10460C00687465724578706C6F64653A3A7374615E
:10461C007274536365656E282900766F6964205443
:10462C00696546696768746572506C617973476136
:10463C006D653A3A6C696E6B466967687465722889
:10464C00546965466967687465722A2900766972CF
:10465C007475616C20766F6964205469654669676E
:10466C0068746572506C61797347616D653A3A7321
:10467C0074617274536365656E282900766F696482
:10468C0020536F756E64426F6172643A3A74696557
:10469C004669676874657253686F6F747328290074
:1046AC0000000000060270019F014C02D001AE0117
:1046BC00C201000000007E0C4407E106BF090000A7
:1046CC0000000F09400776094607000000007C0C2B
:1046DC004207000000007610BB02000000000E092B
:1046EC003E073409A30F000000009410770E810DD3
:1046FC007B0E0000000000000000A502A5020000D7
:10470C0000009310750E0A0E7F0C000000007D0C4B
:10471C003C0700000000E210790E3A5B20002E2EC0
:10472C005C536F756E64426F6172642E63707000BF
:10473C003A005D20200073657475700070696E20FE
:10474C0000536F756E64002E2E5C44656174685363
:10475C00746172323031382E696E6F0056656E742A
:10476C0020506F7274204869742000547275650073
:10477C0054617267657420757020200054617267F3
:10478C00657420446F776E2020002E2E5C4465618A
:10479C007468537461724578706C6F64652E6370C5
:1047AC0070004465617468537461724578706C6F05
:1047BC0064653A3A7374617274536365656E282943
:1047CC00002E2E5C4D6F727365436F64652E6370A3
:1047DC0070002E2E5C446561746853746172506C69
:1047EC00617947616D652E63707000446561746812
:1047FC0053746172506C617947616D653A3A7374A8
:10480C00617274536365656E28290072696E672046
:10481C005468726F62206368616E6765207374619F
:10482C00746500466C617368310046617374204294
:10483C006C61636B00466C61736832002E2E5C54A5
:10484C006965466967687465724578706C6F6465F4
:10485C002E637070005469654669676874657245AB
:10486C0078706C6F64653A3A7374617274536365F3
:10487C00656E2829002E2E5C54696546696768743C
:10488C006572506C61797347616D652E6370700051
:10489C0054696546696768746572506C61797347D1
:1048AC00616D653A3A7374617274536365656E2811
:1048BC00290054696546696768746572506C617942
:1048CC007347616D653A3A4C696E6B656420000DF7
:0248DC000A00D0
:00000001FF
