:100000000C945E000C9486000C9486000C94860080
:100010000C9486000C9486000C9486000C94860048
:100020000C9486000C9486000C9486000C94860038
:100030000C9486000C9486000C9486000C94860028
:100040000C9443080C9486000C94B3080C948D080F
:100050000C9486000C9486000C9486000C94860008
:100060000C9486000C9486000000000024002700F9
:100070002A0000000008000201000003040700003D
:10008000000000000000010204081020408001026E
:1000900004081020010204081020000000002500C0
:1000A00028002B00040404040404040402020202D5
:1000B0000202030303030303E508810A11241FBEA0
:1000C000CFEFD8E0DEBFCDBF12E0A0E0B1E0E0EFBF
:1000D000F7E102C005900D92A83DB107D9F723E0E2
:1000E000A8EDB2E001C01D92A03BB207E1F710E01D
:1000F000CDE5D0E004C02197FE010E94B30ACC35C3
:10010000D107C9F70E94A4090C94EB0B0C940000D2
:100110006F927F928F929F92AF92BF92CF92DF9217
:10012000EF92FF920F931F93CF93DF93E801DD27A8
:1001300048015901E4E0B694A79497948794EA950E
:10014000D1F7F401FF27D601BB2746015701689478
:1001500013F8B694A794979487941694D1F7340122
:100160007724CD2CDE2CEF2CFF24DD24812E922E43
:10017000A32EBB2499248401080F191F0C151D05FB
:100180003CF00F3F110529F024F00FEF10E001C003
:100190008601CF01860F971F861597053CF08F3F8C
:1001A000910529F024F08FEF90E001C0C3014C0FBE
:1001B0005D1F4A175B073CF04F3F510529F024F0C3
:1001C0004FEF50E001C0AD01092E000CAA0BBB0B94
:1001D000BA2FA92F982F8827012E000C220B330B42
:1001E000980111270027802B912BA22BB32B052ED2
:1001F000000C660B770B8C019D01042B152B262B15
:10020000372BC901B801DF91CF911F910F91FF905A
:10021000EF90DF90CF90BF90AF909F908F907F90A6
:100220006F900895E091E102F091E2020190F08177
:10023000E02D682F81EE92E0099490E0FC01EE58E9
:10024000FF4F2491FC01EA57FF4F3491FC01EC551C
:10025000FF4FE491EE23B9F1222339F1233091F0DD
:1002600038F42130A9F0223001F584B58F7D12C019
:10027000273091F02830A1F02430B9F4809180002B
:100280008F7D03C0809180008F77809380000DC0A8
:1002900084B58F7784BD09C08091B0008F7703C08B
:1002A0008091B0008F7D8093B000F0E0EE0FFF1FD3
:1002B000E656FF4FA591B4918FB7F894EC91309525
:1002C0003E233C938FBF0895CF93DF9390E0FC01D2
:1002D000EA57FF4F2491FC01EC55FF4F849188238E
:1002E00061F190E0880F991FFC01E859FF4FC5911B
:1002F000D491FC01E656FF4FA591B491611109C05C
:100300009FB7F8948881209582238883EC912E23CF
:100310000BC0623061F49FB7F8943881822F8095CA
:1003200083238883EC912E2B2C939FBF06C08FB71D
:10033000F894E8812E2B28838FBFDF91CF91089509
:100340003FB7F8948091DD029091DE02A091DF0228
:10035000B091E00226B5A89B05C02F3F19F0019689
:10036000A11DB11D3FBFBA2FA92F982F8827820F3B
:10037000911DA11DB11DBC01CD0142E0660F771F8B
:10038000881F991F4A95D1F708952FB7F894609167
:10039000D9027091DA028091DB029091DC022FBFCA
:1003A0000895CF92DF92EF92FF920F931F93CF9316
:1003B000DF936C017A018B01C0E0D0E0CE15DF0540
:1003C00089F0D8016D918D01D601ED91FC910190DC
:1003D000F081E02DC6010995892B11F47E0102C040
:1003E0002196ECCFC701DF91CF911F910F91FF9024
:1003F000EF90DF90CF900895089580E090E0089509
:10040000FC01538D448D252F30E0842F90E0821B1A
:10041000930B541710F0CF96089501970895FC019F
:10042000918D828D981761F0828DDF01A80FB11D2B
:100430005D968C91928D9F5F9F73928F90E008954F
:100440008FEF9FEF0895FC01918D828D981731F009
:10045000828DE80FF11D858D90E008958FEF9FEF5D
:100460000895FC01918D228D892F90E0805C9F4F33
:10047000821B91098F739927089581EE92E00E9463
:10048000310221E0892B09F420E0822F0895FC013C
:10049000848DDF01A80FB11DA35ABF4F2C91848D0D
:1004A00090E001968F739927848FA689B7892C9342
:1004B000A089B1898C9180648C93938D848D9813DD
:1004C00006C00288F389E02D80818F7D80830895A6
:1004D000EF92FF920F931F93CF93DF93EC0181E094
:1004E000888F9B8D8C8D981305C0E889F989808150
:1004F00085FD24C0F62E0B8D10E00F5F1F4F0F738C
:100500001127E02E8C8DE8120CC00FB607FCFACF35
:10051000E889F989808185FFF5CFCE010E944702E5
:10052000F1CF8B8DFE01E80FF11DE35AFF4FF082F2
:100530000B8FEA89FB898081806207C0EE89FF8981
:100540006083E889F98980818064808381E090E01C
:10055000DF91CF911F910F91FF90EF900895CF936E
:10056000DF93EC01888D8823C9F0EA89FB898081BB
:1005700085FD05C0A889B9898C9186FD0FC00FB68D
:1005800007FCF5CF808185FFF2CFA889B9898C91CE
:1005900085FFEDCFCE010E944702E7CFDF91CF91DB
:1005A000089580E090E0892B29F00E943D0281119E
:1005B0000C94000008954F925F926F927F928F92F9
:1005C0009F92AF92BF92CF92DF92EF92FF920F93E2
:1005D0001F93CF93DF93DC011D968C911D971A9684
:1005E000EC901A971896ED91FC91199717968C90AC
:1005F0001797482F50E01B961C911B971C960C9147
:10060000EB018E1164C0CC0FDD1FC60FD71FCE0FBC
:10061000DF1F882009F443C0912CA12CB12CFE01CE
:10062000E40FF51F608170E0762F6627072E000C1F
:10063000880B990BA50194010E94910A3901552458
:100640004424FE01E10FF11D608170E0762F6627E2
:10065000072E000C880B990BA50194010E94910AAA
:10066000B42FA32F922F882773016201C82AD92A99
:10067000EA2AFB2AC00FD11D688170E0762F662719
:10068000072E000C880B990BA50194010E94910A7A
:10069000C701B601622B732B842B952B95C0FE01ED
:1006A000E40FF51F2081FE01E10FF11D6081862F0F
:1006B00090E0A0E0B0E0BA2FA92F982F8827A22BB6
:1006C000C00FD11D2881BC01CD01622B7DC0CC0F94
:1006D000DD1FCC0FDD1FCE0FDF1FF12C882009F4AA
:1006E00058C0912CA12CB12CFE01E40FF51F6081A4
:1006F00070E0762F6627072E000C880B990BA5015A
:1007000094010E94910A722E662455244424FE010D
:10071000EE0DFF1D608170E0762F6627072E000C1E
:10072000880B990BA50194010E94910A7901DD249F
:10073000CC24C428D528E628F728FE01E00FF11DB7
:10074000608170E0762F6627072E000C880B990BCE
:10075000A50194010E94910AC22AD32AE42AF52A0B
:10076000C10FD11D688170E0762F6627072E000C1F
:10077000880B990BA50194010E94910AB42FA32F15
:10078000922F8827BC01CD016C297D298E299F29B4
:100790001BC0FE01E40FF51F2081FE01EE0DFF1DC1
:1007A0006081862F90E0A0E0B0E0DC0199278827E7
:1007B000B22BFE01E00FF11D2081822BC10FD11D54
:1007C0002881BC01CD01722BDF91CF911F910F9138
:1007D000FF90EF90DF90CF90BF90AF909F908F9061
:1007E0007F906F905F904F900895CF92DF92EF923D
:1007F000FF920F931F93CF93DF93CDB7DEB7299767
:100800000FB6F894DEBF0FBECDBF8C010E94A001D1
:10081000D8011E96CD90DD90ED90FC905197DC01B3
:10082000CB018C199D09AE09BF098C329140A105FD
:10083000B10560F3F894D80114968D919C911597A9
:100840009A8389831896ED91FC9119977F01BFEFE8
:10085000EB1AFB0A80818B83F80190810288F3896F
:10086000E02DD80154968C91992309F430C09081E1
:10087000982B9C839081809589238D838D818E8395
:1008800088E08F835C816D814B813F812E818981DE
:100890009A81D701508347FD252F3A952083262F33
:1008A00039F0441F00C000006083000000C0F2CF98
:1008B00038E04D9160830000019761F7D8015396AD
:1008C000FC93EE9352974B833F832E833AC09081E3
:1008D000982B9C839081809589238D838D81888737
:1008E00088E089875C816D814B8139852885898184
:1008F0009A81D701508347FD252F00C000C0208377
:1009000000C000C000C000C000C060830000262FEF
:100910003A9541F0441F000000C000C000C000C074
:1009200000C0E8CF38E04D9100C0608300C001975F
:1009300009F7D8015396FC93EE9352974B8339876E
:1009400028879A83898378940E94A001F80166879A
:100950007787808B918B29960FB6F894DEBF0FBEF8
:10096000CDBFDF91CF911F910F91FF90EF90DF905E
:10097000CF9008958F929F92AF92BF92CF92DF92C5
:10098000EF92FF920F931F93CF93DF93FC0182812D
:1009900093816817790708F04CC04A01AA24BB2448
:1009A000B82DC32ED42EE52EFF24AC2D922F878197
:1009B000882361F0889E40011124B92DC89E6001F2
:1009C0001124AD2D289FE00111249D2FD584C285CF
:1009D000E084F184DC1208C09B01220F331F620FF8
:1009E000731F6E0D7F1D16C0660F771F660F771F72
:1009F0006E0D7F1D052F112722273327EB01CD0D0B
:100A0000D11D882329F0089F90011124232F01C0B4
:100A1000202F28838285EB01C80FD11DB8838385E1
:100A2000EB01C80FD11DA8838485FB01E80FF11DE0
:100A30009083DF91CF911F910F91FF90EF90DF9006
:100A4000CF90BF90AF909F908F9008952F923F923C
:100A50004F925F926F927F928F929F92AF92BF92CE
:100A6000CF92DF92EF92FF920F931F93CF93DF937A
:100A700000D000D0CDB7DEB74C012A013B011C01EC
:100A800022E0220E311C04969A838983F101819120
:100A90001F01282F30E03C832B83F401A384B4840E
:100AA000F501828193812817390738F4B901C5010E
:100AB0000E94DB028B019C0103C000E010E0980162
:100AC000730162014CEE5FEF6CEE7FEF8CEE9FEFF7
:100AD0000E9488009B01AC016B817C81C5010E9452
:100AE000BA0429813A812216330681F60F900F90BD
:100AF0000F900F90DF91CF911F910F91FF90EF908A
:100B0000DF90CF90BF90AF909F908F907F906F902D
:100B10005F904F903F902F9008952F923F924F9269
:100B20005F926F927F928F929F92AF92BF92CF927D
:100B3000DF92EF92FF920F931F93CF93DF93CDB786
:100B4000DEB72A970FB6F894DEBF0FBECDBF4C01BB
:100B50007C836B835E834D8338872F832701380125
:100B60001C0124E0220E311C0A969A838983F1012C
:100B700081911F01282F30E03A872987F401A3844F
:100B8000B484F501828193812817390738F4B901BB
:100B9000C5010E94DB028B019C0103C000E010E054
:100BA0009801730162014F8158856D817E818B812F
:100BB0009C810E9488009B01AC0169857A85C501F2
:100BC0000E94BA0429813A812216330681F62A96B8
:100BD0000FB6F894DEBF0FBECDBFDF91CF911F914E
:100BE0000F91FF90EF90DF90CF90BF90AF909F90CC
:100BF0008F907F906F905F904F903F902F900895CF
:100C00000895089508950C944E0B0C944E0B0C947B
:100C10004E0B009769F0FC0101900020E9F7319735
:100C2000AF01481B590BBC0181EE92E00C94D1013D
:100C300080E090E00895CF93DF930E940906EC01D5
:100C400086EF91E00E9409068C0F9D1FDF91CF91E6
:100C500008958F929F92AF92BF920F931F93CF935D
:100C6000DF93CDB7DEB7A1970FB6F894DEBF0FBE06
:100C7000CDBF19A2423008F44AE08E010F5D1F4F2C
:100C8000842E912CA12CB12CA50194010E94910AD3
:100C9000E62FB901CA0101501109EA3014F4E05DF0
:100CA00001C0E95CD801EC93232B242B252B61F7A1
:100CB000C8010E940906A1960FB6F894DEBF0FBEC8
:100CC000CDBFDF91CF911F910F91BF90AF909F90BB
:100CD0008F900895CF92DF92EF92FF92CF93DF93A0
:100CE0006C01990FEE08FF08F7FE17C08DE20E9415
:100CF0001201EC0166277727CB016C197D098E095B
:100D00009F094AE00E9429068C0F9D1FDF91CF9119
:100D1000FF90EF90DF90CF9008954AE0C701B601B1
:100D2000DF91CF91FF90EF90DF90CF900C94290648
:100D30000C940906CF92DF92EF92FF920F931F93CC
:100D4000CF93DF93EC01CA80DB80EC80FD800E94B2
:100D5000C5016C157D058E059F0508F464C10E94D0
:100D6000C5014AE00E94290689EF91E00E94980699
:100D70008AEA91E00E94980680E20E9412018CEFBC
:100D800091E00E9498068AE30E94120186E390E0B7
:100D90000E946A0680E20E94120185E192E00E94B0
:100DA0001B068A859B858130910509F476C08230C7
:100DB000910509F4BCC0892B09F035C10E94C50119
:100DC0004AE00E94290689EF91E00E94980681E896
:100DD00091E00E94980680E20E9412018CEF91E05F
:100DE0000E9498068AE30E94120182E590E00E9428
:100DF0006A0680E20E9412018EE292E00E941B06C7
:100E000008851985F801628170E02FEF3FEF4FEF01
:100E100050E0838594850E94BA04F801638170E0F4
:100E20002FEF3FEF4FEF50E0838594850E94BA0487
:100E3000E884F98487010C5F1F4F6701FAE0CF0E49
:100E4000D11CF80161918F0170E020EF30EF4FEF7E
:100E500050E0F701838594850E94BA040C151D05A6
:100E600081F7E885F98583859485FC0120853185A6
:100E7000232B11F00E94F50381E090E09B878A8785
:100E800084E690E09F838E830E94C501DC01CB0144
:100E9000845D9E4FAF4FBF4FC2C08E819F81181699
:100EA000190684F082E090E09B878A8784E690E0D0
:100EB0009F838E830E94C501DC01CB014496A11D56
:100EC000B11DADC00E94C5014AE00E94290689EF0C
:100ED00091E00E9498068BE591E00E94980680E2DE
:100EE0000E9412018CEF91E00E9498068AE30E9412
:100EF000120185E790E00E946A0680E20E941201DA
:100F000082E592E00E941B0640E050E06FEF70E047
:100F1000888599850E942605E12CF12C00E810E0D7
:100F200024EC3FEF44EC5FEF64EC7FEF61C08E8117
:100F30009F811816190654F10E94C5014AE00E94CB
:100F4000290689EF91E00E94980683E391E00E94D0
:100F5000980680E20E9412018CEF91E00E949806B0
:100F60008AE30E94120182E890E00E946A0680E211
:100F70000E94120183E792E00E941B060E94C501B5
:100F8000DC01CB01945AA94DBA4F49C00E94C5015A
:100F90004AE00E94290689EF91E00E94980683E3C7
:100FA00091E00E94980680E20E9412018CEF91E08D
:100FB0000E9498068AE30E94120186E890E00E944F
:100FC0006A0680E20E94120185E992E00E941B06F7
:100FD00040E050E0BA01888599850E942605E12C01
:100FE000F12C870122EE3FEF42EE5FEF62EE7FEFE2
:100FF000888599850E948D05E885F9858385948586
:10100000FC0120853185232B11F00E94F5030E94FD
:10101000C501DC01CB01805B9F4FAF4FBF4F8A837F
:101020009B83AC83BD83DF91CF911F910F91FF9084
:10103000EF90DF90CF900895FC01138612860E94F6
:10104000C5014AE00E94290689EF91E00E949806B6
:1010500086E091E00E94980680E20E9412018CEFE7
:1010600091E00E9498068AE30E94120185E290E0D6
:101070000E946A0680E20E94120188EB92E00C94C2
:101080001B060E94E60B1F920F920FB60F921124BF
:101090002F933F938F939F93AF93BF938091D902E8
:1010A0009091DA02A091DB02B091DC023091D8027B
:1010B00023E0230F2D3720F40196A11DB11D05C09B
:1010C00026E8230F0296A11DB11D2093D80280931C
:1010D000D9029093DA02A093DB02B093DC028091F4
:1010E000DD029091DE02A091DF02B091E002019654
:1010F000A11DB11D8093DD029093DE02A093DF025B
:10110000B093E002BF91AF919F918F913F912F914A
:101110000F900FBE0F901F9018951F920F920FB651
:101120000F9211242F933F934F935F936F937F936D
:101130008F939F93AF93BF93EF93FF9381EE92E0D2
:101140000E944702FF91EF91BF91AF919F918F91C4
:101150007F916F915F914F913F912F910F900FBEB3
:101160000F901F9018951F920F920FB60F92112497
:101170002F938F939F93EF93FF93E091F102F09160
:10118000F2028081E091F702F091F80282FD12C034
:1011900090818091FA028F5F8F732091FB028217FA
:1011A00051F0E091FA02F0E0EF51FD4F958F8093FE
:1011B000FA0201C08081FF91EF919F918F912F9151
:1011C0000F900FBE0F901F9018951092E40210928E
:1011D000E30288EE93E0A0E0B0E08093E502909314
:1011E000E602A093E702B093E80284ED91E09093C9
:1011F000E2028093E10285EC90E09093EE0280930E
:10120000ED0284EC90E09093F0028093EF0280EC8A
:1012100090E09093F2028093F10281EC90E0909341
:10122000F4028093F30282EC90E09093F6028093B4
:10123000F50286EC90E09093F8028093F70210920A
:10124000FA021092FB021092FC021092FD02109220
:10125000980310929E031092A5031092A603109279
:10126000A7031092A80381E08093A4038093A103B5
:101270001092A20392E09093A3038093970386E9D0
:1012800090E090939C0380939B030E94B90A9093F3
:10129000A00380939F03009761F026E9FC0111925F
:1012A0002A95E9F782E390E090939A03809399035B
:1012B00008C010929C0310929B0310929A03109204
:1012C000990388E080939D0380919803882339F0E7
:1012D00061E088E00E94640188E00E941D01ECEA60
:1012E000F0E0E491F0E0EE0FFF1FE656FF4F85912E
:1012F00094919093AA038093A903EEE8F0E0E4911F
:10130000E093AB0382EF91E090938B0380938A0389
:1013100081E08093940387E993E090939603809310
:101320009503109280031092810310928203109211
:10133000830386EE91E090937F0380937E03109267
:101340008903109288030895789484B5826084BDDF
:1013500084B5816084BD85B5826085BD85B58160B9
:1013600085BD80916E00816080936E001092810037
:1013700080918100826080938100809181008160F2
:1013800080938100809180008160809380008091B3
:10139000B10084608093B1008091B000816080933F
:1013A000B00080917A00846080937A0080917A0006
:1013B000826080937A0080917A00816080937A00C5
:1013C00080917A00806880937A001092C100E09149
:1013D000F102F091F20282E08083E091ED02F0915F
:1013E000EE021082E091EF02F091F0028FEC808328
:1013F0001092F902E091F502F091F60286E0808306
:10140000E091F302F091F402808180618083E091A9
:10141000F302F091F402808188608083E091F3020E
:10142000F091F402808180688083E091F302F09172
:10143000F40280818F7D808361E08DE00E946401F1
:101440008AE893E090938703809386038EE793E086
:101450000E941C0880919D0387FD07C061E00E94E7
:10146000640180919D030E941D0181E08093980397
:1014700080919F039091A003892B21F087E993E04D
:101480000E94F5038EE793E00E949A068091800304
:1014900090918103A0918203B0918303813797419A
:1014A000A105B10558F10E94A0014B015C0180E744
:1014B000C82E87E1D82EE12CF12C0E94A001DC017E
:1014C000CB0188199909AA09BB09883E9340A10557
:1014D000B10558F081E0C81AD108E108F10828EEFA
:1014E000820E23E0921EA11CB11CC114D104E104A0
:1014F000F10419F78EE793E00E941C080E94D102C4
:10150000C1CF80919F039091A003009711F00E949A
:101510004E0B80919D0387FD03C060E00C94640135
:101520000895A1E21A2EAA1BBB1BFD010DC0AA1F24
:10153000BB1FEE1FFF1FA217B307E407F50720F03C
:10154000A21BB30BE40BF50B661F771F881F991FB7
:101550001A9469F760957095809590959B01AC0100
:10156000BD01CF010895EE0FFF1F0590F491E02D0E
:101570000994CF93DF938230910510F482E090E0DC
:10158000E091AE03F091AF0320E030E0C0E0D0E0A6
:10159000309711F14081518148175907C0F0481721
:1015A000590761F482819381209719F09B838A8384
:1015B0002BC09093AF038093AE0326C02115310555
:1015C00019F04217530718F49A01BE01DF01EF0129
:1015D0000280F381E02DDCCF2115310509F1281BB4
:1015E000390B2430310590F412968D919C9113970C
:1015F0006115710521F0FB019383828304C09093F0
:10160000AF038093AE03FD01329644C0FD01E20FAB
:10161000F31F81939193225031092D933C933AC04B
:101620002091AC033091AD03232B41F420910201B2
:10163000309103013093AD032093AC03209100015E
:10164000309101012115310541F42DB73EB740918C
:10165000040150910501241B350BE091AC03F0917E
:10166000AD03E217F307A0F42E1B3F0B2817390731
:1016700078F0AC014E5F5F4F2417350748F04E0FEE
:101680005F1F5093AD034093AC038193919302C0CD
:10169000E0E0F0E0CF01DF91CF9108950F931F9329
:1016A000CF93DF93009709F48CC0FC01329713822B
:1016B00012820091AE031091AF030115110581F460
:1016C00020813181820F931F2091AC033091AD03B3
:1016D0002817390779F5F093AD03E093AC0371C097
:1016E000D80140E050E0AE17BF0750F412962D919C
:1016F0003C911397AD012115310509F1D901F3CFC3
:101700009D01DA013383228360817181860F971FE7
:101710008217930769F4EC0128813981260F371F5E
:101720002E5F3F4F318320838A819B819383828305
:10173000452B29F4F093AF03E093AE0342C0139618
:10174000FC93EE931297ED01499159919E01240F5C
:10175000351FE217F30771F480819181840F951F83
:10176000029611969C938E938281938113969C93FB
:101770008E931297E0E0F0E0D80112968D919C9143
:101780001397009719F0F8018C01F6CF8D919C9179
:1017900098012E5F3F4F820F931F2091AC03309131
:1017A000AD032817390769F4309729F41092AF0375
:1017B0001092AE0302C0138212821093AD03009305
:1017C000AC03DF91CF911F910F91089581E090E0DC
:1017D000F8940C94EB0B10E0CDE5D0E004C0FE01D2
:1017E0000E94B30A2196CE35D107C9F7F894FFCFEE
:1017F0000000B00380007669727475616C20766FAA
:1018000069642054696546696768746572457870D3
:101810006C6F64653A3A7374617274536365656E94
:10182000282900766F696420546965466967687481
:1018300065724578706C6F64653A3A646F466164AE
:1018400065546F426C61636B282900766F69642070
:10185000546965466967687465724578706C6F6431
:10186000653A3A646F46616465546F52656428292D
:1018700000766F69642054696546696768746572AB
:101880004578706C6F64653A3A646F496E69746943
:10189000616C466C617368282900766972747561A1
:1018A0006C20766F69642054696546696768746561
:1018B000724578706C6F64653A3A72756E282900CB
:1018C000000000006802D1010002AF0231020F02E5
:1018D000230200000000020605061C089A0600000C
:1018E0000000010607060D0A003A20002E2E5C5467
:1018F0006965466967687465724578706C6F646580
:101900002E63707000546965466967687465724536
:1019100078706C6F64653A3A72756E282900546964
:1019200065466967687465724578706C6F64653A7E
:101930003A646F496E697469616C466C61736828BA
:101940002900546965466967687465724578706CEA
:101950006F64653A3A646F46616465546F526564BA
:10196000282900546965466967687465724578700E
:101970006C6F64653A3A20736365656E2069732005
:10198000646F6E6500546965466967687465724581
:1019900078706C6F64653A3A646F46616465546F41
:1019A000426C61636B2829005469654669676874F5
:1019B00065724578706C6F64653A3A7374617274DD
:0819C000536365656E282900E0
:00000001FF
