:100000000C945E000C9486000C9486000C94860080
:100010000C9486000C9486000C9486000C94860048
:100020000C9486000C9486000C9486000C94860038
:100030000C9486000C9486000C9486000C94860028
:100040000C949C050C9486000C940C060C94E6050C
:100050000C9486000C9486000C9486000C94860008
:100060000C9486000C9486000000000024002700F9
:100070002A0000000008000201000003040700003D
:10008000000000000000010204081020408001026E
:1000900004081020010204081020000000002500C0
:1000A00028002B00040404040404040402020202D5
:1000B00002020303030303034609C70A11241FBEF8
:1000C000CFEFD8E0DEBFCDBF13E0A0E0B1E0ECE7BA
:1000D000F8E102C005900D92A035B107D9F724E0F0
:1000E000A0E5B3E001C01D92A832B207E1F710E02D
:1000F000CDE5D0E004C02197FE010E94F90ACC357D
:10010000D107C9F70E94050A0C94310C0C94000029
:100110006F927F928F929F92AF92BF92CF92DF9217
:10012000EF92FF920F931F93CF93DF93E801DD27A8
:1001300048015901E4E0B694A79497948794EA950E
:10014000D1F7F401FF27D601BB2746015701689478
:1001500013F8B694A794979487941694D1F7340122
:100160007724CD2CDE2CEF2CFF24DD24812E922E43
:10017000A32EBB2499248401080F191F0C151D05FB
:100180003CF00F3F110529F024F00FEF10E001C003
:100190008601CF01860F971F861597053CF08F3F8C
:1001A000910529F024F08FEF90E001C0C3014C0FBE
:1001B0005D1F4A175B073CF04F3F510529F024F0C3
:1001C0004FEF50E001C0AD01092E000CAA0BBB0B94
:1001D000BA2FA92F982F8827012E000C220B330B42
:1001E000980111270027802B912BA22BB32B052ED2
:1001F000000C660B770B8C019D01042B152B262B15
:10020000372BC901B801DF91CF911F910F91FF905A
:10021000EF90DF90CF90BF90AF909F908F907F90A6
:100220006F90089590E0FC01EE58FF4F2491FC017F
:10023000EA57FF4F3491FC01EC55FF4FE491EE2358
:10024000B9F1222339F1233091F038F42130A9F0AB
:10025000223001F584B58F7D12C0273091F028300F
:10026000A1F02430B9F4809180008F7D03C080918B
:1002700080008F77809380000DC084B58F7784BD18
:1002800009C08091B0008F7703C08091B0008F7D4E
:100290008093B000F0E0EE0FFF1FE656FF4FA591F0
:1002A000B4918FB7F894EC9130953E233C938FBF77
:1002B0000895CF92DF92EF92FF920F931F93CF9307
:1002C000DF936C017A018B01C0E0D0E0CE15DF0531
:1002D00089F0D8016D918D01D601ED91FC910190CD
:1002E000F081E02DC6010995892B11F47E0102C031
:1002F0002196ECCFC701DF91CF911F910F91FF9015
:10030000EF90DF90CF900895089580E090E00895F9
:10031000FC01538D448D252F30E0842F90E0821B0B
:10032000930B541710F0CF96089501970895FC0190
:10033000918D828D981761F0828DDF01A80FB11D1C
:100340005D968C91928D9F5F9F73928F90E0089540
:100350008FEF9FEF0895FC01918D828D981731F0FA
:10036000828DE80FF11D858D90E008958FEF9FEF4E
:100370000895FC01918D228D892F90E0805C9F4F24
:10038000821B91098F739927089580E593E00E945D
:10039000B90121E0892B09F420E0822F0895FC01A6
:1003A000848DDF01A80FB11DA35ABF4F2C91848DFE
:1003B00090E001968F739927848FA689B7892C9333
:1003C000A089B1898C9180648C93938D848D9813CE
:1003D00006C00288F389E02D80818F7D8083089597
:1003E000EF92FF920F931F93CF93DF93EC0181E085
:1003F000888F9B8D8C8D981305C0E889F989808141
:1004000085FD24C0F62E0B8D10E00F5F1F4F0F737C
:100410001127E02E8C8DE8120CC00FB607FCFACF26
:10042000E889F989808185FFF5CFCE010E94CF014F
:10043000F1CF8B8DFE01E80FF11DE35AFF4FF082E3
:100440000B8FEA89FB898081806207C0EE89FF8972
:100450006083E889F98980818064808381E090E00D
:10046000DF91CF911F910F91FF90EF900895CF935F
:10047000DF93EC01888D8823C9F0EA89FB898081AC
:1004800085FD05C0A889B9898C9186FD0FC00FB67E
:1004900007FCF5CF808185FFF2CFA889B9898C91BF
:1004A00085FFEDCFCE010E94CF01E7CFDF91CF9145
:1004B000089580E090E0892B29F00E94C501811108
:1004C0000C94000008954F925F926F927F928F92EA
:1004D0009F92AF92BF92CF92DF92EF92FF920F93D3
:1004E0001F93CF93DF93DC011D968C911D971A9675
:1004F000EC901A971896ED91FC91199717968C909D
:100500001797482F50E01B961C911B971C960C9137
:10051000EB018E1164C0CC0FDD1FC60FD71FCE0FAD
:10052000DF1F882009F443C0912CA12CB12CFE01BF
:10053000E40FF51F608170E0762F6627072E000C10
:10054000880B990BA50194010E94D70A3901552403
:100550004424FE01E10FF11D608170E0762F6627D3
:10056000072E000C880B990BA50194010E94D70A55
:10057000B42FA32F922F882773016201C82AD92A8A
:10058000EA2AFB2AC00FD11D688170E0762F66270A
:10059000072E000C880B990BA50194010E94D70A25
:1005A000C701B601622B732B842B952B95C0FE01DE
:1005B000E40FF51F2081FE01E10FF11D6081862F00
:1005C00090E0A0E0B0E0BA2FA92F982F8827A22BA7
:1005D000C00FD11D2881BC01CD01622B7DC0CC0F85
:1005E000DD1FCC0FDD1FCE0FDF1FF12C882009F49B
:1005F00058C0912CA12CB12CFE01E40FF51F608195
:1006000070E0762F6627072E000C880B990BA5014A
:1006100094010E94D70A722E662455244424FE01B8
:10062000EE0DFF1D608170E0762F6627072E000C0F
:10063000880B990BA50194010E94D70A7901DD244A
:10064000CC24C428D528E628F728FE01E00FF11DA8
:10065000608170E0762F6627072E000C880B990BBF
:10066000A50194010E94D70AC22AD32AE42AF52AB6
:10067000C10FD11D688170E0762F6627072E000C10
:10068000880B990BA50194010E94D70AB42FA32FC0
:10069000922F8827BC01CD016C297D298E299F29A5
:1006A0001BC0FE01E40FF51F2081FE01EE0DFF1DB2
:1006B0006081862F90E0A0E0B0E0DC0199278827D8
:1006C000B22BFE01E00FF11D2081822BC10FD11D45
:1006D0002881BC01CD01722BDF91CF911F910F9129
:1006E000FF90EF90DF90CF90BF90AF909F908F9052
:1006F0007F906F905F904F900895009769F0FC0194
:1007000001900020E9F73197AF01481B590BBC015C
:1007100080E593E00C94590180E090E008950E94F8
:100720002C0CCF93DF930E947D03EC0189E392E0D0
:100730000E947D038C0F9D1FDF91CF910895E09162
:100740005003F09151030190F081E02D682F80E576
:1007500093E009948F929F92AF92BF920F931F9351
:10076000CF93DF93CDB7DEB7A1970FB6F894DEBF76
:100770000FBECDBF19A2423008F44AE08E010F5DD2
:100780001F4F842E912CA12CB12CA50194010E9405
:10079000D70AE62FB901CA0101501109EA3014F451
:1007A000E05D01C0E95CD801EC93232B242B252BC1
:1007B00061F7C8010E947D03A1960FB6F894DEBFD1
:1007C0000FBECDBFDF91CF911F910F91BF90AF9022
:1007D0009F908F900895CF92DF92EF92FF92CF93E8
:1007E000DF936C01990FEE08FF08F7FE17C08DE24A
:1007F0000E949F03EC0166277727CB016C197D09C6
:100800008E099F094AE00E94AA038C0F9D1FDF9169
:10081000CF91FF90EF90DF90CF9008954AE0C7010D
:10082000B601DF91CF91FF90EF90DF90CF900C94C5
:10083000AA030C947D032F923F924F925F926F9286
:100840007F928F929F92AF92BF92CF92DF92EF9260
:10085000FF920F931F93CF93DF9300D000D0CDB7BB
:10086000DEB74C012A013B011C0122E0220E311CA3
:1008700004969A838983F10181911F01282F30E02A
:100880003C832B83F401A384B484F501828193819A
:100890002817390738F4B901C5010E9463028B019A
:1008A0009C0103C000E010E09801730162014CEE6E
:1008B0005FEF6CEE7FEF8CEE9FEF0E9488009B0154
:1008C000AC016B817C81C5010E94320729813A818C
:1008D0002216330681F60F900F900F900F90DF9144
:1008E000CF911F910F91FF90EF90DF90CF90BF902D
:1008F000AF909F908F907F906F905F904F903F90C0
:100900002F9008952F923F924F925F926F927F9215
:100910008F929F92AF92BF92CF92DF92EF92FF920F
:100920000F931F93CF93DF93CDB7DEB72A970FB600
:10093000F894DEBF0FBECDBF4C017C836B835E831A
:100940004D8338872F83270138011C0124E0220EB4
:10095000311C0A969A838983F10181911F01282F06
:1009600030E03A872987F401A384B484F5018281B9
:1009700093812817390738F4B901C5010E94630231
:100980008B019C0103C000E010E09801730162013B
:100990004F8158856D817E818B819C810E9488006A
:1009A0009B01AC0169857A85C5010E9432072981C6
:1009B0003A812216330681F62A960FB6F894DEBFE6
:1009C0000FBECDBFDF91CF911F910F91FF90EF90A0
:1009D000DF90CF90BF90AF909F908F907F906F905F
:1009E0005F904F903F902F900895CF93DF9390E0CA
:1009F000FC01EA57FF4F2491FC01EC55FF4F849115
:100A0000882361F190E0880F991FFC01E859FF4F9E
:100A1000C591D491FC01E656FF4FA591B4916111A7
:100A200009C09FB7F8948881209582238883EC9130
:100A30002E230BC0623061F49FB7F8943881822F67
:100A4000809583238883EC912E2B2C939FBF06C027
:100A50008FB7F894E8812E2B28838FBFDF91CF9139
:100A600008953FB7F8948091200490912104A091BB
:100A70002204B091230426B5A89B05C02F3F19F08E
:100A80000196A11DB11D3FBFBA2FA92F982F88270E
:100A9000820F911DA11DB11DBC01CD0142E0660F69
:100AA000771F881F991F4A95D1F708958F929F92BB
:100AB000AF92BF92CF92DF92EF92FF926B017C01D7
:100AC0000E9431054B015C01C114D104E104F10421
:100AD000F1F00E943105DC01CB0188199909AA09BE
:100AE000BB09883E9340A105B10570F321E0C21A0D
:100AF000D108E108F10888EE880E83E0981EA11C59
:100B0000B11CC114D104E104F10419F7DDCFFF9049
:100B1000EF90DF90CF90BF90AF909F908F9008950F
:100B20002FB7F89460911C0470911D0480911E04ED
:100B300090911F042FBF08951F920F920FB60F922E
:100B400011242F933F938F939F93AF93BF938091E3
:100B50001C0490911D04A0911E04B0911F043091BB
:100B60001B0423E0230F2D3720F40196A11DB11D96
:100B700005C026E8230F0296A11DB11D20931B047A
:100B800080931C0490931D04A0931E04B0931F0433
:100B90008091200490912104A0912204B09123041B
:100BA0000196A11DB11D8093200490932104A09370
:100BB0002204B0932304BF91AF919F918F913F91F5
:100BC0002F910F900FBE0F901F9018951F920F92AC
:100BD0000FB60F9211242F933F934F935F936F9310
:100BE0007F938F939F93AF93BF93EF93FF9380E592
:100BF00093E00E94CF01FF91EF91BF91AF919F9140
:100C00008F917F916F915F914F913F912F910F90B5
:100C10000FBE0F901F9018951F920F920FB60F9254
:100C200011242F938F939F93EF93FF93E091600391
:100C3000F09161038081E0916603F091670382FD8A
:100C400012C09081809169038F5F8F7320916A0336
:100C5000821751F0E0916903F0E0E05BFC4F958F63
:100C60008093690301C08081FF91EF919F918F91E3
:100C70002F910F900FBE0F901F9018950C94940B0E
:100C80000C94940B0C94940BFC0113861286128224
:100C90001382148215820E9490054AE00E94AA03E2
:100CA0008CE392E00E94190480E491E00E94190410
:100CB00080E20E949F038FE392E00E9419048AE37E
:100CC0000E949F0386E290E00E94EB0380E20E9474
:100CD0009F0388E592E00C949103CF92DF92EF920C
:100CE000FF920F931F93CF93DF93CDB7DEB7299772
:100CF0000FB6F894DEBF0FBECDBF8C010E94310548
:100D0000D8011E96CD90DD90ED90FC905197DC01BE
:100D1000CB018C199D09AE09BF098C329140A10508
:100D2000B10560F3F894D80114968D919C911597B4
:100D30009A8389831896ED91FC9119977F01BFEFF3
:100D4000EB1AFB0A80818B83F80190810288F3897A
:100D5000E02DD80154968C91992309F430C09081EC
:100D6000982B9C839081809589238D838D818E83A0
:100D700088E08F835C816D814B813F812E818981E9
:100D80009A81D701508347FD252F3A952083262F3E
:100D900039F0441F00C000006083000000C0F2CFA3
:100DA00038E04D9160830000019761F7D8015396B8
:100DB000FC93EE9352974B833F832E833AC09081EE
:100DC000982B9C839081809589238D838D81888742
:100DD00088E089875C816D814B813985288589818F
:100DE0009A81D701508347FD252F00C000C0208382
:100DF00000C000C000C000C000C060830000262FFB
:100E00003A9541F0441F000000C000C000C000C07F
:100E100000C0E8CF38E04D9100C0608300C001976A
:100E200009F7D8015396FC93EE9352974B83398779
:100E300028879A83898378940E943105F801668710
:100E40007787808B918B29960FB6F894DEBF0FBE03
:100E5000CDBFDF91CF911F910F91FF90EF90DF9069
:100E6000CF9008958F929F92AF92BF92CF92DF92D0
:100E7000EF92FF920F931F93CF93DF93FC01828138
:100E800093816817790708F04CC04A01AA24BB2453
:100E9000B82DC32ED42EE52EFF24AC2D922F8781A2
:100EA000882361F0889E40011124B92DC89E6001FD
:100EB0001124AD2D289FE00111249D2FD584C285DA
:100EC000E084F184DC1208C09B01220F331F620F03
:100ED000731F6E0D7F1D16C0660F771F660F771F7D
:100EE0006E0D7F1D052F112722273327EB01CD0D16
:100EF000D11D882329F0089F90011124232F01C0C0
:100F0000202F28838285EB01C80FD11DB8838385EC
:100F1000EB01C80FD11DA8838485FB01E80FF11DEB
:100F20009083DF91CF911F910F91FF90EF90DF9011
:100F3000CF90BF90AF909F908F900895CF92DF9207
:100F4000EF92FF920F931F93CF93DF93EC01CA8030
:100F5000DB80EC80FD800E9490056C157D058E0580
:100F60009F0508F487C10E9490054AE00E94AA03E9
:100F70008CE392E00E94190483E192E00E9419043C
:100F800080E20E949F038FE392E00E9419048AE3AB
:100F90000E949F0387E390E00E94EB0380E20E949F
:100FA0009F0388E792E00E9491038A859B858130A8
:100FB000910509F499C08230910509F4DFC0892BAD
:100FC00009F058C10E9490054AE00E94AA038CE3F0
:100FD00092E00E9419048AEE91E00E94190480E2D6
:100FE0000E949F038FE392E00E9419048AE30E940B
:100FF0009F0383E590E00E94EB0380E20E949F0341
:1010000081E992E00E949103E884F98487010E5FF0
:101010001F4F670184E0C80ED11CF80161918F0158
:1010200070E02FEF3FEF4FEF50E0F701838594859D
:101030000E9432070E9490054AE00E94AA038CE3B6
:1010400092E00E9419048BEB91E00E94190480E267
:101050000E949F0385EB92E00E9419048AE30E949C
:101060009F0383E690E00E94EB0380E20E949F03CF
:1010700087EC92E00E9491030C151D0571F6E8843F
:10108000F98487010C5F1F4F6701FAE0CF0ED11C76
:10109000F80161918F0170E020EF30EF4FEF50E0E9
:1010A000F701838594850E9432070C151D0581F791
:1010B000E885F98583859485FC0120853185232B7E
:1010C00011F00E946D0681E090E09B878A8784E69C
:1010D00090E09F838E830E949005DC01CB01845DAC
:1010E0009E4FAF4FBF4FC2C08E819F811816190609
:1010F00084F082E090E09B878A8784E690E09F837B
:101100008E830E949005DC01CB014496A11DB11D88
:10111000ADC00E9490054AE00E94AA038CE392E0D1
:101120000E94190485E991E00E94190480E20E945E
:101130009F038FE392E00E9419048AE30E949F03B9
:1011400086E790E00E94EB0380E20E949F0389EE15
:1011500092E00E94910340E050E06FEF70E08885DC
:1011600099850E941B04E12CF12C00E810E024EC8E
:101170003FEF44EC5FEF64EC7FEF61C08E819F81B5
:101180001816190654F10E9490054AE00E94AA031D
:101190008CE392E00E9419048DE691E00E9419040C
:1011A00080E20E949F038FE392E00E9419048AE389
:1011B0000E949F0383E890E00E94EB0380E20E947C
:1011C0009F038AE093E00E9491030E949005DC0156
:1011D000CB01945AA94DBA4F49C00E9490054AE0EC
:1011E0000E94AA038CE392E00E9419048DE691E02C
:1011F0000E94190480E20E949F038FE392E00E9404
:1012000019048AE30E949F0387E890E00E94EB03A1
:1012100080E20E949F038CE293E00E94910340E0F1
:1012200050E0BA01888599850E941B04E12CF12CBD
:10123000870122EE3FEF42EE5FEF62EE7FEF88859F
:1012400099850E948204E885F98583859485FC014F
:1012500020853185232B11F00E946D060E94900598
:10126000DC01CB01805B9F4FAF4FBF4F8A839B83D5
:10127000AC83BD83DF91CF911F910F91FF90EF90D1
:10128000DF90CF9008950895089508951092530324
:101290001092520388EE93E0A0E0B0E080935403F4
:1012A00090935503A0935603B09357038AE091E0BF
:1012B000909351038093500385EC90E090935D03ED
:1012C00080935C0384EC90E090935F0380935E03D3
:1012D00080EC90E0909361038093600381EC90E058
:1012E000909363038093620382EC90E09093650394
:1012F0008093640386EC90E0909367038093660389
:101300001092690310926A0310926B0310926C039F
:101310001092070410920D041092140410921504F8
:10132000109216041092170481E0809313048093A6
:1013300010041092110492E090931204809306041A
:1013400086E990E090930B0480930A040E94FF0AC0
:1013500090930F0480930E04009761F026E9FC013E
:1013600011922A95E9F782E390E090930904809323
:10137000080408C010920B0410920A041092090489
:101380001092080488E080930C048091070488235D
:1013900039F061E088E00E94F50488E00E941201C3
:1013A000ECEAF0E0E491F0E0EE0FFF1FE656FF4FAD
:1013B000859194919093190480931804EEE8F0E0DD
:1013C000E491E0931A048CE391E09093FA03809304
:1013D000F90381E08093030486E094E09093050490
:1013E000809304041092EF031092F0031092F10323
:1013F0001092F20388E291E09093EE038093ED0364
:101400001092F8031092F7030895789484B58260DF
:1014100084BD84B5816084BD85B5826085BD85B598
:10142000816085BD80916E00816080936E00109216
:101430008100809181008260809381008091810091
:101440008160809381008091800081608093800022
:101450008091B10084608093B1008091B000816080
:101460008093B00080917A00846080937A008091AC
:101470007A00826080937A0080917A008160809304
:101480007A0080917A00806880937A001092C1007F
:10149000E0916003F091610382E08083E0915C035E
:1014A000F0915D031082E0915E03F0915F038FEC99
:1014B000808310926803E0916403F091650386E0F5
:1014C0008083E0916203F091630380818061808377
:1014D000E0916203F0916303808188608083E091F2
:1014E0006203F0916303808180688083E0916203EE
:1014F000F091630380818F7D808361E08DE00E94A5
:10150000F50489EF93E09093F6038093F5038DEE55
:1015100093E00E94440680910C0487FD07C061E0BF
:101520000E94F50480910C040E94120181E08093D6
:10153000070480910E0490910F04892B21F086E01E
:1015400094E00E946D0664EF71E080E090E00E94FC
:1015500056058DEE93E00E949E078091EF039091D7
:10156000F003A091F103B091F20381379741A105F7
:10157000B10550F060E777E180E090E00E94560509
:101580008DEE93E00E9444060E945902DCCF8091C8
:101590000E0490910F04009711F00E94940B80911B
:1015A0000C0487FD03C060E00C94F5040895A1E2EB
:1015B0001A2EAA1BBB1BFD010DC0AA1FBB1FEE1FCD
:1015C000FF1FA217B307E407F50720F0A21BB30B18
:1015D000E40BF50B661F771F881F991F1A9469F794
:1015E00060957095809590959B01AC01BD01CF01F0
:1015F0000895EE0FFF1F0590F491E02D0994CF930D
:10160000DF938230910510F482E090E0E0912604AF
:10161000F091270420E030E0C0E0D0E0309711F1F5
:101620004081518148175907C0F04817590761F4A4
:1016300082819381209719F09B838A832BC090939A
:1016400027048093260426C02115310519F042177E
:10165000530718F49A01BE01DF01EF010280F38104
:10166000E02DDCCF2115310509F1281B390B243081
:10167000310590F412968D919C9113976115710527
:1016800021F0FB019383828304C09093270480930D
:101690002604FD01329644C0FD01E20FF31F819341
:1016A0009193225031092D933C933AC02091240408
:1016B00030912504232B41F4209102013091030144
:1016C00030932504209324042091000130910101DE
:1016D0002115310541F42DB73EB7409104015091D9
:1016E0000501241B350BE0912404F0912504E21739
:1016F000F307A0F42E1B3F0B2817390778F0AC0135
:101700004E5F5F4F2417350748F04E0F5F1F509311
:101710002504409324048193919302C0E0E0F0E01B
:10172000CF01DF91CF9108950F931F93CF93DF9354
:10173000009709F48CC0FC01329713821282009149
:101740002604109127040115110581F420813181AF
:10175000820F931F20912404309125042817390704
:1017600079F5F0932504E093240471C0D80140E09A
:1017700050E0AE17BF0750F412962D913C9113978D
:10178000AD012115310509F1D901F3CF9D01DA0130
:101790003383228360817181860F971F821793079D
:1017A00069F4EC0128813981260F371F2E5F3F4FE6
:1017B000318320838A819B8193838283452B29F403
:1017C000F0932704E093260442C01396FC93EE9313
:1017D0001297ED01499159919E01240F351FE2178F
:1017E000F30771F480819181840F951F0296119601
:1017F0009C938E938281938113969C938E931297E0
:10180000E0E0F0E0D80112968D919C91139700973B
:1018100019F0F8018C01F6CF8D919C9198012E5F03
:101820003F4F820F931F20912404309125042817E5
:10183000390769F4309729F410922704109226048E
:1018400002C0138212821093250400932404DF91B6
:10185000CF911F910F91089581E090E0F8940C943E
:10186000310C10E0CDE5D0E004C0FE010E94F90A81
:0C1870002196CE35D107C9F7F894FFCFC0
:10187C0000002804800000000000F00159018801DC
:10188C003702B9019701AB01000000000000000015
:10189C008F038F03000000004509400644069E0795
:1018AC0000000000440942060000000043093E0607
:1018BC007669727475616C20766F69642054696501
:1018CC00466967687465724578706C6F64653A3AFE
:1018DC007374617274536365656E282900766F6941
:1018EC006420546965466967687465724578706CE4
:1018FC006F64653A3A646F46616465546F426C611B
:10190C00636B282900766F696420546965466967A2
:10191C00687465724578706C6F64653A3A646F46AA
:10192C00616465546F526564282900766F69642080
:10193C00546965466967687465723A3A7365744CA4
:10194C0069676E74496E6E65724E6F53686F772857
:10195C0075696E7433325F742900766F6964205434
:10196C006965466967687465724578706C6F646503
:10197C003A3A646F496E697469616C466C6173685C
:10198C002829007669727475616C20766F69642001
:10199C00546965466967687465724578706C6F64E4
:1019AC00653A3A72756E2829000D0A003A20002E0D
:1019BC002E5C546965466967687465724578706C0D
:1019CC006F64652E6370700054696546696768744E
:1019DC0065724578706C6F64653A3A7374617274B1
:1019EC00536365656E282900546965466967687498
:1019FC0065724578706C6F64653A3A72756E282919
:101A0C0000546965466967687465724578706C6FD7
:101A1C0064653A3A646F496E697469616C466C61CD
:101A2C0073682829002E2E5C5469654669676874B2
:101A3C0065722E63707000546965466967687465D9
:101A4C00723A3A7365744C69676E74496E6E65725E
:101A5C004E6F53686F77282900546965466967682B
:101A6C007465724578706C6F64653A3A646F466160
:101A7C006465546F5265642829005469654669672A
:101A8C00687465724578706C6F64653A3A2073635C
:101A9C0065656E20697320646F6E650054696546D8
:101AAC006967687465724578706C6F64653A3A64FE
:101ABC006F46616465546F426C61636B282900004A
:00000001FF
