:100000003DC100006CC100006AC1000068C1000071
:1000100066C1000064C1000062C1000060C1000050
:100020005EC100005CC100005AC1000058C1000060
:1000300056C1000054C1000052C1000050C1000070
:100040004EC100004CC100004AC1000048C1000080
:1000500046C1000044C1000042C100000C94420BA4
:100060003EC10000EDC20000C2C2000038C1000065
:1000700036C1000034C1000032C1000030C10000B0
:100080002EC100002CC100002AC1000028C10000C0
:1000900026C1000024C1000022C1000020C10000D0
:1000A0001EC100001CC100001AC1000018C10000E0
:1000B00016C1000014C1000012C1000010C10000F0
:1000C0000EC100000CC100000AC1000008C1000000
:1000D00006C1000004C1000002C1000000C1000010
:1000E000FEC00000F206F506E406E806EE062C0760
:1000F000F906FD06030707070B0711071507190780
:100100002C071F0723072707370A3C0A410A4B0A17
:10011000550ACE0A5F0A670A6F0A790A830A8D0AAE
:100120009C0AA60ACE0AB00ABA0AC40A2B13C21342
:100130005414A014E0144215971505A84CCDB2D460
:100140004EB93836A9020C50B9918688083CA6AA47
:10015000AA2ABE000000803F0000210024002700E2
:100160002A002D00300033000101000004010701C6
:100170000A0100002200250028002B002E0031007B
:10018000340002010000050108010B0100002000FD
:100190002300260029002C002F003200000100005F
:1001A00003010601090105050505070508080808FA
:1001B000020202020A0A08080404040401010101FF
:1001C00001010101030303030303030304070707FA
:1001D0000C0C0C0C0C0C0C0C02020202060606069F
:1001E000060606060B0B0B0B0B0B0B0B010210206C
:1001F000200808102040102040800201020108045D
:1002000002010102040810204080804020100804F0
:100210000201800402018040201008040201080449
:10022000020101020408102040800102040810208D
:10023000408000000A0B02090C0D0E0807030401A0
:1002400000000000000000000000000000000000AE
:10025000000000000000000000000000000012117B
:10026000100000000000000000000000000000007E
:100270000000000000000000F515E91511241FBE64
:10028000CFEFD1E2DEBFCDBF00E00CBF15E0A0E0B4
:10029000B2E0E6E3F2E400E00BBF02C007900D928B
:1002A000A63DB107D9F728E0A6EDB5E001C01D9243
:1002B000A333B207E1F711E0CDE3D1E000E006C0DF
:1002C00021970109802FFE010E94F120CC33D10734
:1002D00080E00807A9F70E9413170C940A2190CE1A
:1002E000CF92DF92EF92FF920F931F93CF93DF9302
:1002F0006C017A018B01C0E0D0E0CE15DF0589F0FA
:10030000D8016D918D01D601ED91FC910190F081A4
:10031000E02DC6011995892B11F47E0102C02196AA
:10032000ECCFC701DF91CF911F910F91FF90EF901C
:10033000DF90CF900895089580E090E00895FC014B
:10034000538D448D252F30E0842F90E0821B930B3A
:10035000541710F0CF96089501970895FC01918DE0
:10036000828D981761F0828DDF01A80FB11D5D9617
:100370008C91928D9F5F9F73928F90E008958FEF85
:100380009FEF0895FC01918D828D981731F0828D39
:10039000E80FF11D858D90E008958FEF9FEF089590
:1003A000FC01918D228D892F90E0805C9F4F821BF4
:1003B00091098F739927089586ED95E0F1DF21E08B
:1003C000892B09F420E0822F0895FC01848DDF0140
:1003D000A80FB11DA35ABF4F2C91848D90E00196B8
:1003E0008F739927848FA689B7892C93A089B189A7
:1003F0008C9180648C93938D848D981306C00288B1
:10040000F389E02D80818F7D80830895EF92FF92A4
:100410000F931F93CF93DF93EC0181E0888F9B8D27
:100420008C8D981305C0E889F989808185FD23C0EA
:10043000F62E0B8D10E00F5F1F4F0F731127E02E6C
:100440008C8DE8120BC00FB607FCFACFE889F9894A
:10045000808185FFF5CFCE01B8DFF2CF8B8DFE0115
:10046000E80FF11DE35AFF4FF0820B8FEA89FB89F9
:100470008081806207C0EE89FF896083E889F989FD
:1004800080818064808381E090E0DF91CF911F9133
:100490000F91FF90EF900895CF93DF93EC01888D3B
:1004A0008823C1F0EA89FB89808185FD05C0A88980
:1004B000B9898C9186FD0EC00FB607FCF5CF8081FF
:1004C00085FFF2CFA889B9898C9185FFEDCFCE0148
:1004D0007CDFE8CFDF91CF91089580E090E0892B19
:1004E00019F06ADF811125C080E090E0892B41F08E
:1004F00080E090E0892B21F00E94000081111CC057
:1005000080E090E0892B41F080E090E0892B21F0A1
:100510000E940000811113C080E090E0892BA1F0BF
:1005200080E090E0892B81F00E94000081110AC0D8
:1005300008950E940000D8CF0E940000E1CF0E94E1
:100540000000EACF0C9400000895CF93DF93EC01F4
:1005500088859985009711F00E94351D8E8187FD51
:1005600004C060E0DF91CF911FC7DF91CF91089564
:100570000C94351DCF92DF92EF92FF920F931F9351
:10058000CF93DF9300D01F92CDB7DEB7621773070A
:1005900084079507FCF489019A016B017C01A9018C
:1005A0009801261B370B480B590B69F029833A83B6
:1005B0004B835C830E94161E29813A814B815C81AA
:1005C0000E94221E03C060E070E0CB016C0D7D1D17
:1005D0008E1D9F1D0F900F900F900F90DF91CF9168
:1005E0001F910F91FF90EF90DF90CF9008951F9291
:1005F0000F920FB60F9211240BB60F922F933F93C9
:100600004F935F936F937F938F939F93AF93BF931A
:10061000EF93FF9386ED95E0D8DEFF91EF91BF91C8
:10062000AF919F918F917F916F915F914F913F918A
:100630002F910F900BBE0F900FBE0F901F9018952B
:100640001F920F920FB60F9211240BB60F922F9399
:100650008F939F93EF93FF93E091E605F091E70569
:100660008081E091EC05F091ED0582FD12C0908152
:100670008091EF058F5F8F732091F005821751F005
:10068000E091EF05F0E0EA52FA4F958F8093EF0585
:1006900001C08081FF91EF919F918F912F910F90D9
:1006A0000BBE0F900FBE0F901F9018954F925F9248
:1006B0006F927F928F929F92AF92BF92CF92DF9272
:1006C000EF92FF920F931F93CF93DF93DC0112966B
:1006D0008D919C9113976817790708F0F9C01D96C2
:1006E0008C911D971A96EC901A971896ED91FC91A3
:1006F000199717968C901797482F50E01B961C91CE
:100700001B971C960C91EB018E1164C0CC0FDD1F62
:10071000C60FD71FCE0FDF1F882009F443C0912CCE
:10072000A12CB12CFE01E40FF51F608170E0762F43
:100730006627072E000C880B990BA50194010E94D7
:100740004E1E390155244424FE01E10FF11D608144
:1007500070E0762F6627072E000C880B990BA501F9
:1007600094010E944E1EB42FA32F922F882773014D
:100770006201C82AD92AEA2AFB2AC00FD11D688142
:1007800070E0762F6627072E000C880B990BA501C9
:1007900094010E944E1EC701B601622B732B842B5D
:1007A000952B99C0FE01E40FF51F2081FE01E10F9A
:1007B000F11D6081862F90E0A0E0B0E0BA2FA92F54
:1007C000982F8827A22BC00FD11D2881BC01CD01F5
:1007D000622B81C0CC0FDD1FCC0FDD1FCE0FDF1FC2
:1007E000F12C882009F458C0912CA12CB12CFE01C9
:1007F000E40FF51F608170E0762F6627072E000C4E
:10080000880B990BA50194010E944E1E722E66243E
:1008100055244424FE01EE0DFF1D608170E0762F0B
:100820006627072E000C880B990BA50194010E94E6
:100830004E1E7901DD24CC24C428D528E628F728CB
:10084000FE01E00FF11D608170E0762F6627072E14
:10085000000C880B990BA50194010E944E1EC22A20
:10086000D32AE42AF52AC10FD11D688170E0762FC2
:100870006627072E000C880B990BA50194010E9496
:100880004E1EB42FA32F922F8827BC01CD016C29B7
:100890007D298E299F291FC0FE01E40FF51F2081AD
:1008A000FE01EE0DFF1D6081862F90E0A0E0B0E01C
:1008B000DC0199278827B22BFE01E00FF11D208172
:1008C000822BC10FD11D2881BC01CD01722B03C029
:1008D00060E070E0CB01DF91CF911F910F91FF900D
:1008E000EF90DF90CF90BF90AF909F908F907F90D0
:1008F0006F905F904F9008958F929F92AF92BF92AA
:10090000CF92DF92EF92FF920F931F93CF93DF93DB
:10091000FC01828193816817790708F04CC04A0175
:10092000AA24BB24B82DC32ED42EE52EFF24AC2D33
:10093000922F8781882361F0889E40011124B92D70
:10094000C89E60011124AD2D289FE00111249D2F28
:10095000D584C285E084F184DC1208C09B01220F9B
:10096000331F620F731F6E0D7F1D16C0660F771F3A
:10097000660F771F6E0D7F1D052F11272227332746
:10098000EB01CD0DD11D882329F0089F9001112482
:10099000232F01C0202F28838285EB01C80FD11D92
:1009A000B8838385EB01C80FD11DA8838485FB0123
:1009B000E80FF11D9083DF91CF911F910F91FF9070
:1009C000EF90DF90CF90BF90AF909F908F90089561
:1009D000CF92DF92EF92FF920F931F93CF93DF930B
:1009E000CDB7DEB729970FB6F894DEBF0FBECDBFE7
:1009F0008C01DC0118968D919C911997892B09F433
:100A0000A1C0D7D5F801C684D784E088F188DC017D
:100A1000CB018C199D09AE09BF098C329140A1050B
:100A2000B10578F3F894D80114968D919C9115979F
:100A30009A8389831896ED91FC9119977F01BFEFF6
:100A4000EB1AFB0A80818987F80190810288F3897B
:100A5000E02DD80154968C91992309F430C09081EF
:100A6000982B98879081809589238F838F818C83A1
:100A700088E08B8358856F8149853B812C818981F2
:100A80009A81D701508347FD252F3A952083262F41
:100A900039F0441F00C000006083000000C0F2CFA6
:100AA00038E04D9160830000019761F7D8015396BB
:100AB000FC93EE93529749873B832C833AC09081F5
:100AC000982B98879081809589238F838F818E833F
:100AD00088E08D8358856F8149853D812E8189818C
:100AE0009A81D701508347FD252F00C000C0208385
:100AF00000C000C000C000C000C060830000262FFE
:100B00003A9541F0441F000000C000C000C000C082
:100B100000C0E8CF38E04D9100C0608300C001976D
:100B200009F7D8015396FC93EE93529749873D837A
:100B30002E839A83898378943CD5F80166877787DA
:100B4000808B918B29960FB6F894DEBF0FBECDBF78
:100B5000DF91CF911F910F91FF90EF90DF90CF9099
:100B60000895CF93DF93EC018E8187FD05C061E08E
:100B70001BD460E08E81E9D381E08983DF91CF913E
:100B80000895CF92DF92EF92FF921F93CF93DF935E
:100B9000EC017B01142F19821F821E861F86188A82
:100BA000198AC90146E0969587954A95E1F7482F3D
:100BB00043704D87C90154E0969587955A95E1F7A2
:100BC00083708A87B9017695679576956795637086
:100BD0006B87922F93709C8791E02F3F310511F026
:100BE00008F090E09883481719F084E090E002C084
:100BF00083E090E08E9D60018F9DD00C9E9DD00C77
:100C00001124DD82CC82C6010E94A01C99878887AE
:100C1000009741F0A60160E070E00E940321FB8292
:100C2000EA8204C01D821C821B821A821E83898173
:100C3000882331F061E0812FB7D360E0812F85D325
:100C4000812F90E0FC01EA55FE4FE491F0E0EE0FB9
:100C5000FF1FEE58FE4F259134913B8B2A8BFC01F0
:100C6000E451FE4FE491EC8BDF91CF911F91FF9007
:100C7000EF90DF90CF900895CF92DF92EF92FF92A6
:100C80000F931F93CF93DF938C016A017B01C0E028
:100C9000D0E0A7019601BE01F801828193812CDE8C
:100CA0002196C831D105A9F7F80182819381DF919E
:100CB000CF911F910F91FF90EF90DF90CF9088CE52
:100CC0002F923F924F925F926F927F928F929F925C
:100CD000AF92BF92CF92DF92EF92FF920F931F934A
:100CE000CF93DF93CDB7DEB760970FB6F894DEBF32
:100CF0000FBECDBF3C017A8369835C834B833E8307
:100D00002D83EF82F88609871A87AB86BC86CD864D
:100D1000DE86188A1F866F857889F3018281938128
:100D2000C5DC1B012C018B849C84AD84BE84CF80E8
:100D3000D884E984FA848B019C014D815E816B81AA
:100D40007C8189819A81ECD76B017C019B01AC018C
:100D50006F857889F30182819381CEDD8F859889B3
:100D60000196988B8F874897B1F681E090E02C141C
:100D70003D044E045F0411F480E090E060960FB6ED
:100D8000F894DEBF0FBECDBFDF91CF911F910F91C1
:100D9000FF90EF90DF90CF90BF90AF909F908F909B
:100DA0007F906F905F904F903F902F90089590E0CC
:100DB000FC013197E231F10508F04EC08827EE586A
:100DC000FF4F8F4F0C94F120809180008F7703C0EC
:100DD000809180008F7D80938000089580918000B5
:100DE000877FF9CF84B58F7702C084B58F7D84BDAE
:100DF00008958091B0008F7703C08091B0008F7DFF
:100E00008093B0000895809190008F7707C0809103
:100E100090008F7D03C080919000877F8093900029
:100E200008958091A0008F7707C08091A0008F7DEA
:100E300003C08091A000877F8093A00008958091D7
:100E400020018F7707C0809120018F7D03C08091A2
:100E50002001877F809320010895009761F0FC01B5
:100E600001900020E9F73197AF01481B590BBC01F5
:100E700086ED95E035CA80E090E008958F929F92CC
:100E8000AF92BF920F931F93CF93DF93CDB7DEB78F
:100E9000A1970FB6F894DEBF0FBECDBF19A24230A6
:100EA00008F44AE08E010F5D1F4F842E912CA12C77
:100EB000B12CA50194010E944E1EE62FB901CA0172
:100EC00001501109EA3014F4E05D01C0E95CD80179
:100ED000EC93232B242B252B61F7C801BEDFA196B1
:100EE0000FB6F894DEBF0FBECDBFDF91CF911F913B
:100EF0000F91BF90AF909F908F900895CF93DF9305
:100F0000ACDFEC0183E394E0A8DF8C0F9D1FDF9141
:100F1000CF910895A2CFE091D605F091D705019029
:100F2000F081E02D682F86ED95E01994CF92DF9245
:100F3000EF92FF92CF93DF936C01990FEE08FF08B9
:100F4000F7FE15C08DE2E7DFEC0166277727CB01BE
:100F50006C197D098E099F094AE090DF8C0F9D1F57
:100F6000DF91CF91FF90EF90DF90CF9008954AE00E
:100F7000C701B601DF91CF91FF90EF90DF90CF9046
:100F80007DCF4AE07BCF2F923F924F925F926F923C
:100F90007F928F929F92AF92BF92CF92DF92EF9209
:100FA000FF920F931F93CF93DF93CDB7DEB72C97AC
:100FB0000FB6F894DEBF0FBECDBF3C017A836983C4
:100FC0005C834B833E832D83EF82F88609871A87E3
:100FD0001C861B866B857C85F3018281938166DB91
:100FE0001B012C0188248A94982CA82CB12CCF802A
:100FF000D884E984FA84920181014D815E816B81FC
:101000007C8189819A818CD66B017C019B01AC012A
:101010006B857C85F301828193816EDC8B859C8559
:1010200001969C878B878E359105A1F681E090E033
:101030002C143D044E045F0411F480E090E02C96E3
:101040000FB6F894DEBF0FBECDBFDF91CF911F91D9
:101050000F91FF90EF90DF90CF90BF90AF909F9057
:101060008F907F906F905F904F903F902F9008955A
:10107000CF92DF92EF92FF92CF93DF93EC016A0160
:101080007B012DE530E040E050E060E070E0CB0116
:1010900071DAA70196018A819B81DF91CF91FF9040
:1010A000EF90DF90CF9028CC2F923F924F925F929B
:1010B0006F927F928F929F92AF92BF92CF92DF9268
:1010C000EF92FF920F931F93CF93DF93CDB7DEB7CD
:1010D0002D970FB6F894DEBF0FBECDBF1C017F83E6
:1010E0006E83598748873B872A879C012E5F3F4F35
:1010F0003D872C8707969D838C831982EC85FD851F
:10110000FB83EA83608170E0F10185859685CEDA04
:101110002B013C0188248A94982CA82CB12CC12C3A
:10112000D12C7601930182014A855B85688579859A
:101130008E819F81F5D59B01AC0146165706680646
:10114000790611F0F1E0F9838C859D8501969D87E4
:101150008C87EA81FB818081682F70E0F1018585B1
:101160009685CADB2C853D858C819D8128173907A2
:1011700029F689812D960FB6F894DEBF0FBECDBF3C
:10118000DF91CF911F910F91FF90EF90DF90CF9063
:10119000BF90AF909F908F907F906F905F904F9097
:1011A0003F902F9008952F923F924F925F926F92AF
:1011B0007F928F929F92AF92BF92CF92DF92EF92E7
:1011C000FF920F931F93CF93DF93CDB7DEB72B978B
:1011D0000FB6F894DEBF0FBECDBF1C017F836E83B8
:1011E000598748879C01295F3F4F3B872A870C9688
:1011F0009D838C831982EA85FB85FB83EA8360816A
:1012000070E0F1018585968551DA2B013C01882437
:101210008A94982CA82CB12CC12CD12C7601930146
:101220008201488559856E817F8181EF9FEF78D556
:101230009B01AC01461657066806790611F0F1E0ED
:10124000F9838A859B8501969B878A87EA81FB8142
:101250008081682F70E0F101858596854DDB2A85B8
:101260003B858C819D812817390729F689812B962A
:101270000FB6F894DEBF0FBECDBFDF91CF911F91A7
:101280000F91FF90EF90DF90CF90BF90AF909F9025
:101290008F907F906F905F904F903F902F90089528
:1012A000CF92DF92EF92FF92CF93DF936C01990F71
:1012B000EE08FF08F7FE10C08DE22DDEEC01662778
:1012C0007727CB016C197D098E099F094AE0D6DD8D
:1012D0007C01EC0EFD1E05C04AE0C701B601CEDD63
:1012E0007C0183E394E0B9DD8E0D9F1DDF91CF91EA
:1012F000FF90EF90DF90CF900895CF93DF93282F4A
:1013000030E0F901EE5CFD4F8491F901E451FE4FAC
:10131000D491F901EA55FE4FC491CC2389F0811193
:1013200046DDEC2FF0E0EE0FFF1FE457FE4FA591D6
:10133000B491EC91ED2381E090E021F480E002C0D3
:1013400080E090E0DF91CF9108951F93CF93DF93DA
:10135000282F30E0F901EE5CFD4F8491F901E45152
:10136000FE4FD491F901EA55FE4FC491CC23C1F050
:10137000162F81111CDDEC2FF0E0EE0FFF1FEE5851
:10138000FE4FA591B4918FB7F894111105C09C91AF
:10139000ED2FE095E92302C0EC91ED2BEC938FBF8C
:1013A000DF91CF911F910895CF93DF9390E0FC01DF
:1013B000E451FE4F2491FC01EA55FE4F84918823AD
:1013C00061F190E0880F991FFC01E85AFE4FC5912A
:1013D000D491FC01EE58FE4FA591B491611109C062
:1013E0009FB7F8948881209582238883EC912E23DF
:1013F0000BC0623061F49FB7F8943881822F8095DA
:1014000083238883EC912E2B2C939FBF06C08FB72C
:10141000F894E8812E2B28838FBFDF91CF91089518
:101420001F93CF93DF93182FEB0161E0BDDF20976F
:1014300011F460E004C0CF3FD10531F461E0812FA9
:10144000DF91CF911F9181CFE12FF0E0EE5CFD4F56
:10145000E4914E2F50E0FA013197E231F10508F0A6
:101460009DC08827EC57FF4F8F4F0C94F12084B517
:10147000806884BDC7BD97C084B5806284BDC8BD87
:1014800092C080918000806880938000D093890012
:10149000C093880088C08091800080628093800023
:1014A000D0938B00C0938A007EC0809180008860BA
:1014B00080938000D0938D00C0938C0074C0809185
:1014C000B00080688093B000C093B3006CC080917E
:1014D000B00080628093B000C093B40064C080917B
:1014E0009000806880939000D0939900C0939800FA
:1014F0005AC080919000806280939000D0939B00AE
:10150000C0939A0050C080919000886080939000B2
:10151000D0939D00C0939C0046C08091A00080683D
:101520008093A0008091A0008F7B8093A000D09337
:10153000A900C093A80037C08091A000806280936A
:10154000A000D093AB00C093AA002DC08091A00052
:1015500088608093A000D093AD00C093AC0023C0FE
:1015600080912001806880932001D0932901C0934D
:10157000280119C080912001806280932001D093BE
:101580002B01C0932A010FC08091200188608093B5
:101590002001D0932D01C0932C0105C0C038D10586
:1015A0000CF04CCF46CFDF91CF911F9108950E9450
:1015B000FF203FB7F89480912B0890912C08A091C0
:1015C0002D08B0912E0826B5A89B05C02F3F19F015
:1015D0000196A11DB11D3FBFBA2FA92F982F8827B3
:1015E000820F911DA11DB11DBC01CD0142E0660F0E
:1015F000771F881F991F4A95D1F708958F929F9260
:10160000AF92BF92CF92DF92EF92FF926B017C017B
:10161000D0DF4B015C01C114D104E104F104E9F015
:10162000C8DFDC01CB0188199909AA09BB09883EEA
:101630009340A105B10578F321E0C21AD108E10871
:10164000F10888EE880E83E0981EA11CB11CC1141D
:10165000D104E104F10421F7DECFFF90EF90DF9099
:10166000CF90BF90AF909F908F9008952FB7F89430
:1016700060912708709128088091290890912A0884
:101680002FBF08951F920F920FB60F9211242F9320
:101690003F938F939F93AF93BF938091270890912F
:1016A0002808A0912908B0912A083091260823E043
:1016B000230F2D3720F40196A11DB11D05C026E88A
:1016C000230F0296A11DB11D2093260880932708A1
:1016D00090932808A0932908B0932A0880912B089A
:1016E00090912C08A0912D08B0912E080196A11D73
:1016F000B11D80932B0890932C08A0932D08B093D4
:101700002E08BF91AF919F918F913F912F910F9094
:101710000FBE0F901F901895CF92DF92EF92FF921D
:101720000F931F93CF93DF93EC01A0DF2ADC86E3B6
:1017300094E0F0DB88E193E0EDDB80E2ECDB81E933
:1017400094E0E8DB8FE494E0E5DB89E290E0EEDB17
:1017500081E594E0DFDB8CEA94E0D0DBE984FA8475
:1017600087010E5F1F4F670187E0C80ED11CF8018B
:1017700061918F0170E020E030E0A901F7018585DB
:101780009685BAD80C151D0591F7E984FA8487016E
:10179000095F1F4F6701FCE0CF0ED11CF80161917A
:1017A0008F0170E020E030E0A901F7018585968582
:1017B000A3D80C151D0591F7E985FA8585859685D1
:1017C00007D91C861B861A821B821C821D82E98512
:1017D000FA8581E0818BDF91CF911F910F91FF906E
:1017E000EF90DF90CF9008950C94351D0C94351D2B
:1017F0000C94351D0C94351DCF92DF92EF92FF9221
:101800000F931F93CF93DF93EC01CA80DB80EC80B2
:10181000FD802CDF6C157D058E059F0508F4B0C09A
:101820008B859C858130910509F448C082309105F3
:1018300009F479C0892B09F0A3C0E984FA848701EF
:101840000E5F1F4F670187E0C80ED11CF801619140
:101850008F0170E02FEF3FEF4FEF50E0F7018585EC
:1018600096854AD80C151D0589F7E984FA84870105
:10187000095F1F4F6701FCE0CF0ED11CF801619199
:101880008F0170E020EF30EF4FEF50E0F7018585DA
:10189000968532D80C151D0589F7E985FA85858569
:1018A000968596D882E090E09C878B87DFDEDC010E
:1018B000CB018C509E4FAF4FBF4F5EC021EF3FEF2B
:1018C00041EF5FEF6FEF7FEF89859A85EDDB082FA2
:1018D00047EE5FEF67EE7FEF89859A8564DC182F0E
:1018E000E985FA858585968573D8C0DEDC01CB0154
:1018F0000A96A11DB11D8A839B83AC83BD832E8173
:101900003F81215031093F832E83100F09F038C0E9
:1019100082E090E09C878B87A9DEDC01CB010596F5
:10192000A11DB11D29C02CEE3FEF4CEE5FEF66EF1D
:101930007FEF89859A85B8DB082F42EE5FEF62EE74
:101940007FEF89859A852FDC182FE985FA858585B3
:1019500096853ED88BDEDC01CB010596A11DB11D1D
:101960008A839B83AC83BD83100F51F47FDEDC013F
:10197000CB01945AA94DBA4F8A839B83AC83BD8314
:10198000DF91CF911F910F91FF90EF90DF90CF905B
:101990000895CF93DF93EC0140E850E86FEF70E0DB
:1019A00089859A8569D940E850E86FEF70E08B85AA
:1019B0009C85C1D56CEB72E080E090E01FDE40E0DA
:1019C00050E0BA0189859A8557D940E050E0BA01C4
:1019D0008B859C85B0D564EF71E080E090E0DF916D
:1019E000CF910CCECF93DF93EC0140E850E86FEF3E
:1019F00070E089859A8540D940E850E86FEF70E043
:101A00008B859C8598D56CE271E080E090E0F6DDF6
:101A100040E050E0BA0189859A852ED940E050E037
:101A2000BA018B859C8587D564EF71E080E090E0FA
:101A3000DF91CF91E3CDCF93DF93EC0117DEA1DAF5
:101A400086E394E067DA83E992E064DA80E263DABD
:101A50008EEC94E05FDA8FE494E05CDA89E290E067
:101A600065DA81E594E056DA8FE595E047DA1A8287
:101A70001B821C821D8240E050E0BA0189859A8554
:101A8000FBD840E050E0BA018B859C8554D5EEDD53
:101A90006F87788B898B9A8B1E861D861886DF91BF
:101AA000CF9108958F929F92AF92BF92CF92DF9283
:101AB000EF92FF920F931F93CF93DF93EC018A80F5
:101AC0009B80AC80BD80D2DD681579058A059B05B9
:101AD00008F4ACC08D849E8481E08816910409F4DA
:101AE00045C082E08816910409F45EC0892809F097
:101AF0009DC0CE014EDFCE0175DFCE014ADFCE01A3
:101B000071DF64EF71E080E090E078DDCE016ADFA4
:101B1000CE013FDFCE0166DFCE0164DF64EF71E00E
:101B200080E090E06BDDCE015DDFCE0132DF64EF5F
:101B300071E080E090E062DDCE0154DFCE0129DF6C
:101B4000CE0150DF64EF71E080E090E057DDCE0120
:101B500049DF64EF71E080E090E050DD68EE73E013
:101B600080E090E04BDD81E090E01BC04FEF50E063
:101B700060E070E089859A857FD84FEF50E060E0A3
:101B800070E08B859C85D7D471DDDC01CB018C5056
:101B90009E4FAF4FBF4F8A839B83AC83BD8382E050
:101BA00090E09E878D8742C0AA24AA94BA2CCA2CA2
:101BB000D12CE12CF12C87012CEE3FEF4CEE5FEFA6
:101BC00066EF7FEF89859A857BD89C8B8B8BE98527
:101BD000FA85828193810E94E8042CEE3FEF41EF69
:101BE0005FEF64EF7FEF8B859C85CDD92B893C8996
:101BF000820F931F9C8B8B8BEB85FC85828193815D
:101C00000E94E8048B899C89181619066CF42EDD55
:101C1000DC01CB018896A11DB11D8A839B83AC8317
:101C2000BD839E868D8602C081E08887DF91CF913B
:101C30001F910F91FF90EF90DF90CF90BF90AF90EA
:101C40009F908F9008950895FC01728761870EDD43
:101C500098D986E394E05ED985EE92E05BD980E284
:101C60005AD981E994E056D98FE494E053D98CE1B4
:101C700090E05CD981E594E04DD98FED94E03EC9C8
:101C800008950895CF93DF93EC018C858330D9F0CC
:101C900050F4813091F0823009F58BE18F8783E237
:101CA000888B88E21CC0843099F08530B9F48EE1CD
:101CB0008F8786E2888B84E112C08AE18F8782E277
:101CC000888B8EE10CC08CE18F8784E2888B06C004
:101CD0008DE18F8785E2888B8AE001C080E0FE017C
:101CE00037969E01245F3F4F8193DF01169791E065
:101CF000980F9C938E5FE217F307B1F761E08F8531
:101D000053DB62E08889DF91CF914ECBFC01808963
:101D1000F4DA21E0892B09F420E0822F0895089558
:101D20002F923F924F925F926F927F928F929F92EB
:101D3000AF92BF92CF92DF92EF92FF920F931F93D9
:101D4000CF93DF93CDB7DEB72A970FB6F894DEBFF7
:101D50000FBECDBF5A874987412E522E632E77245E
:101D60004D825E826F827886160133244D2C5E2C64
:101D70006F2C7724F201FF27AE2DB0E0A401552788
:101D80005A834983FF24EB2CDA2CC92CDD24EA2C5E
:101D9000F12C820F911D8A179B070CF4CD014D8009
:101DA0005E805524460E571E4E165F060CF42F011A
:101DB000112769847A84060D171D021513050CF48A
:101DC0008101C414D5040CF42601052C000C66080E
:101DD0007708762C652C542C442429813A812017CD
:101DE00031070CF48901012E000C220B330B402A21
:101DF000512A622A732AE816F9060CF4C701092E43
:101E0000000CAA0BBB0BDC0199278827BC01CD0174
:101E100064297529862997292A960FB6F894DEBF7A
:101E20000FBECDBFDF91CF911F910F91FF90EF902B
:101E3000DF90CF90BF90AF909F908F907F906F90EA
:101E40005F904F903F902F90089508950F931F93A8
:101E5000CF93DF938C01C0E0D0E0F80180818C0F3C
:101E60004CDA892B19F4F801D283C1832196C6304C
:101E7000D10599F7DF91CF911F910F910895CF92DE
:101E8000DF92EF92FF920F931F93CF93DF93EC01BA
:101E90001C861B861A821B821C821D82E7DB71D87E
:101EA00086E394E037D888EB92E034D880E233D8E8
:101EB0008CEF94E02FD88FE494E02CD889E290E066
:101EC00035D881E594E026D885E195E017D8E985F5
:101ED000FA8502891389F801E4A0F5A0C701B6DFED
:101EE000F701818192810497029710F482E001C08A
:101EF00081E060E02ADABADBF801C280D380E480B6
:101F0000F580DC01CB018C0D9D1DAE1DBF1D848FA6
:101F1000958FA68FB78FE985FA85118A60E070E00A
:101F20008785DF91CF911F910F91FF90EF90DF9008
:101F3000CF9076CA8F929F92AF92BF92CF92DF924C
:101F4000EF92FF920F931F93CF93DF93EC01CA8020
:101F5000DB80EC80FD808ADB6C157D058E059F059E
:101F600008F4B2C08B859C858130910509F44AC084
:101F7000BCF5892B09F0A8C00E94161E25E030E0B0
:101F800040E050E00E94221E4B015C012FEF821ABC
:101F9000920AA20AB20AE985FA85048510E0015086
:101FA000110964DB6B017C0120E931E0D8010E945A
:101FB000F920C60ED71EE81EF91EA0EDB7E0A50158
:101FC00094010E943E1EDC01CB018C0D9D1DAE1DB7
:101FD000BF1D8A839B83AC83BD8381E090E053C0A7
:101FE0008230910509F452C0039709F06DC03EDBC1
:101FF000DC01CB01945AA94DBA4F8A839B83AC83F1
:10200000BD8362C0E985FA8502891389F801E4A0DD
:10201000F5A0C7011BDFF70181819281019785300F
:10202000910540F4FC01E95BFC4F8081082E000C17
:10203000990B02C081E090E060E087D917DBF801DE
:10204000C280D380E480F580DC01CB018C0D9D1D26
:10205000AE1DBF1D80A391A3A2A3B3A307DBDC0128
:10206000CB0188519C4FAF4FBF4F8A839B83AC837A
:10207000BD838FEF8D87E985FA856FEF70E08785E7
:10208000CFD982E090E09C878B871EC0EFDADC011D
:10209000CB018896A11DB11D8A839B83AC83BD8330
:1020A0006D856E516D8770E0E985FA858785B8D9B1
:1020B0008D85893248F41D86E985FA8560E070E0F7
:1020C0008785AED91C861B86DF91CF911F910F911A
:1020D000FF90EF90DF90CF90BF90AF909F908F9048
:1020E00008954F925F926F927F928F929F92AF92DC
:1020F000BF92CF92DF92EF92FF920F931F93CF93F5
:10210000DF93EC01CA80DB80EC80FD80AFDA6C15D8
:102110007D058E059F0508F49CC18D859E85892BC4
:1021200009F097C130EFA32EBA2CCA2CD12CE12C88
:1021300018E0F12E00E010E026EF3FEF49EF5FEFEF
:1021400066EF7FEF89859A850E946006E985FA85AA
:1021500084818F5F883110F4848301C0148264818C
:1021600070E020E230E240E250E0828193810E9400
:102170007C04E985FA85828193810E94E80476DAFD
:10218000A0901308B090140827E02A9D60012B9DB1
:10219000D00C11240D2C000CEE08FF08DC01CB0143
:1021A0008C199D09AE09BF09C296A11DB11D8A8374
:1021B0009B83AC83BD835ADACF88D88CE98CFA8CA8
:1021C000C616D706E806F906E8F4B501660F771FCC
:1021D000660F771F60957095E12CF12C87019B01AC
:1021E000AB018B859C850E94C30740DADC01CB01E3
:1021F000855B9F4FAF4FBF4F8F8B988FA98FBA8F43
:1022000011E001C010E032DACB88DC88ED88FE886E
:10221000C616D706E806F90608F003C185E08A9DD0
:1022200060018B9DD00C112496012E5C3F4F032E34
:10223000000C440B550B6AE070E080E090E00E94D7
:10224000BA024B015C018EE1C80ED11C0D2C000CB2
:10225000EE08FF08A701960160E070E0CB010E9444
:10226000BA022B013C01A701960160E070E0CB01AE
:102270000E94BA026B01770FEE08FF08FE2CED2CCE
:10228000DC2CCC24052C000C660877084C285D2833
:102290006E287F28762C652C542C44246401990CDC
:1022A000EE08FF08C428D528E628F728B701A601BC
:1022B0008B859C850E9438088091130890911408A2
:1022C0001816190634F4B701A6018B859C850E9467
:1022D00038088091130890911408029734F0B701E0
:1022E000A6018B859C850E943808809113089091E7
:1022F0001408029734F0B701A6018B859C850E94D3
:1023000038088091130890911408039734F0B701AE
:10231000A6018B859C850E943808809113089091B6
:102320001408039734F0B701A6018B859C850E94A1
:1023300038088091130890911408039734F0B7017E
:10234000A6018B859C850E94380880911308909186
:102350001408049734F0B701A6018B859C850E9470
:1023600038088091130890911408049734F0B7014D
:10237000A6018B859C850E94380880911308909156
:102380001408049734F0B701A6018B859C850E9440
:1023900038088091130890911408059734F0B7011C
:1023A000A6018B859C850E94380880911308909126
:1023B0001408059734F0B701A6018B859C850E940F
:1023C00038088091130890911408059734F0B701EC
:1023D000A6018B859C850E943808809113089091F6
:1023E0001408059734F0B701A6018B859C850E94DF
:1023F00038088091130890911408059734F0B701BC
:10240000A6018B859C850E94380830D9DC01CB0160
:10241000885E9E4FAF4FBF4F8B8B9C8BAD8BBE8B1F
:1024200002C01123B1F0EB85FC8582819381DF919D
:10243000CF911F910F91FF90EF90DF90CF90BF90C1
:10244000AF909F908F907F906F905F904F900C9483
:10245000E804DF91CF911F910F91FF90EF90DF90F3
:10246000CF90BF90AF909F908F907F906F905F9034
:102470004F900895CF93DF93EC01F8D80E94C107E5
:1024800086E394E00E948A078CE493E00E948A0726
:1024900080E20E948B0785E395E00E948A078FE423
:1024A00094E00E948A078AE290E00E94960781E504
:1024B00094E00E948A078DE495E00E947E07D6D8BA
:1024C000688B798B8A8B9B8BE985FA8515821F86B1
:1024D0001E861D861A821B821C821D82C7D80E94FE
:1024E000C10786E394E00E948A078CE493E00E948F
:1024F0008A0780E20E948B0785E395E00E948A07A5
:102500008FE494E00E948A0782E390E00E9496079D
:1025100081E594E00E948A078DE495E0DF91CF91F8
:102520000C947E070C94351D0C94351D0C94351DB0
:102530000C94351D0895CF92DF92EF92FF920F9386
:102540001F93CF93DF938C016A017B01C0E0D0E041
:10255000A7019601BE01F801828193810E947C044B
:102560002196CE35D105A1F7F80182819381DF91C3
:10257000CF911F910F91FF90EF90DF90CF900C942F
:10258000E804CF93DF93EC0171D80E94C10786E382
:1025900094E00E948A0786E094E00E948A0780E225
:1025A0000E948B078CE695E00E948A078FE494E0F6
:1025B0000E948A0787E290E00E94960781E594E0F6
:1025C0000E948A0785E895E00E947E071A821B8296
:1025D0001C821D821E861D8640E050E0BA0189855E
:1025E0009A850E943C0640E050E0BA018B859C85AC
:1025F000A2DF3CD86F87788B898B9A8B6F8B788F13
:10260000898F9A8F6B8B7C8B8D8B9E8BDF91CF917B
:102610000895AF92BF92CF92DF92EF92FF920F9305
:102620001F93CF93DF93EC01CA80DB80EC80FD80A9
:102630001DD86C157D058E059F0508F4BCC2ED857F
:10264000FE85E730F10508F0B6C28827EA56FF4F4D
:102650008F4F0C94F1200AD8088919892A893B895F
:10266000601B710B820B930B0E947D1F2BED3FE0D3
:1026700049E450E40E940B2020E030E04AE754E4B3
:102680000E94E41E9B01AC010E94801E0E946E20ED
:1026900020E030E040E85FE30E94801E20E030E070
:1026A00040EA52E40E940B202DEC3CEC4CE45FE34A
:1026B0000E940B2020E030E040E252E40E94801EA5
:1026C0000E944C1FAB01770F660B770BBA015527A1
:1026D000442789859A850E943C060E94360BDC01BE
:1026E000CB01C296A11DB11D8A839B83AC83BD83A0
:1026F000C888D988EA88FB8880EDC80E87E0D81E94
:10270000E11CF11C0E94360BC616D706E806F90636
:1027100008F051C20E94360B688B798B8A8B9B8B99
:102720001F8681E090E09E878D870E94360B0E9475
:10273000C10786E394E00E948A0781EE93E00E943D
:102740008A0780E20E948B0785E395E00E948A0752
:102750008FE494E00E948A0786E990E00E94960741
:1027600081E594E00E948A0785EA95E0DF91CF91A8
:102770001F910F91FF90EF90DF90CF90BF90AF909F
:102780000C947E070E94360B088919892A893B8997
:10279000601B710B820B930B0E947D1F2BED3FE0A2
:1027A00049E450E40E940B2020E030E04AE754E482
:1027B0000E94E41E9B01AC010E94801E0E946E20BC
:1027C00020E030E040E85FE30E94801E20E030E03F
:1027D00040EA52E40E940B202DEC3CEC4CE45FE319
:1027E0000E940B2020E030E040E252E40E94801E74
:1027F0000E944C1F6B01770FEE08FF087601DD2465
:10280000CC24B701A60189859A850E943C060E94C6
:10281000360B088919892A893B89601B710B820B49
:10282000930B24E630E040E050E00E944E1E2F87DC
:1028300000E010E08F8590E0EB85FC850817190714
:1028400054F4A7019601B801828193810E947C040F
:102850000F5F1F4FEFCF828193810E94E8048F8525
:102860008E3510F08DE58F870E94360BDC01CB0191
:10287000C296A11DB11D8A839B83AC83BD83C8888A
:10288000D988EA88FB88E0E1CE0EE7E2DE1EE11C93
:10289000F11C0E94360BC616D706E806F90608F0AA
:1028A0008AC182E090E07CC1AA24AA94BA2CCA2CE6
:1028B000D12CE12CF12C00E210E021EF3FEF41EFB1
:1028C0005FEF6BEF7FEF89859A850E946006D82EB7
:1028D000E985FA85828193810E94E804E12CF12C3C
:1028E00008E010E021EF3FEF41EF5FEF6BEF7FEF8C
:1028F0008B859C850E94C307182FEB85FC85828100
:1029000093810E94E8040E94360BDC01CB01C29641
:10291000A11DB11D8A839B83AC83BD831D0D09F06E
:102920004AC10E94360BDC01CB01845D9E4FAF4F44
:10293000BF4F8A839B83AC83BD8383E090E030C12B
:102940000E94360B0E94C10786E394E00E948A072A
:102950008FEB93E00E948A0780E20E948B0785E359
:1029600095E00E948A078FE494E00E948A0783EC36
:1029700090E00E94960781E594E00E948A078DEB23
:1029800095E00E947E074FEF5FEF6FEF70E0898563
:102990009A850E943C0640E85FEF6FEF70E08B8500
:1029A0009C85C9DD0E94360BDC01CB014E96A11D32
:1029B000B11D8A839B83AC83BD8384E090E0F0C02B
:1029C0000E94360B0E94C10786E394E00E948A07AA
:1029D0008AE993E00E948A0780E20E948B0785E3E0
:1029E00095E00E948A078FE494E00E948A078CECAD
:1029F00090E00E94960781E594E00E948A0784ECAB
:102A000095E00E947E070E94360B0E94C10786E374
:102A100094E00E948A078AE993E00E948A0780E294
:102A20000E948B0785E395E00E948A078FE494E07B
:102A30000E948A078DEC90E00E94960781E594E061
:102A40000E948A078DEB95E00E947E0740E050E0EF
:102A5000BA0189859A850E943C0640E050E0BA019F
:102A60008B859C8568DD0E94360BDC01CB0180578D
:102A70009E4FAF4FBF4F8A839B83AC83BD8385E05E
:102A800090E08EC00E94360B0E94C10786E394E05E
:102A90000E948A0788E793E00E948A0780E20E94EA
:102AA0008B0785E395E00E948A078FE494E00E94FB
:102AB0008A0787ED90E00E94960781E594E00E94E6
:102AC0008A078FEC95E00E947E07EB85FC850481E8
:102AD000158160E0F80180810E94A5090E94360BF3
:102AE000F801C280D380E480F580DC01CB018C0D3D
:102AF0009D1DAE1DBF1D808F918FA28FB38F4FEF95
:102B00005FEF6FEF70E089859A850E943C0640E890
:102B10005FEF6FEF70E08B859C850DDD0E94360BBB
:102B2000DC01CB0184549D4FAF4FBF4F33C0AA246B
:102B3000AA94BA2CCA2CD12CE12CF12C87012CEEB2
:102B40003FEF4CEE5FEF66EF7FEF89859A850E943D
:102B50006006D82EE985FA85828193810E94E80477
:102B60002CEE3FEF41EF5FEF64EF7FEF8B859C85AD
:102B70000E94C307182FEB85FC85828193810E94F8
:102B8000E8041D0D81F00E94360BDC01CB01889614
:102B9000A11DB11D8A839B83AC83BD8386E090E039
:102BA0009E878D8708C080E09CE5A6E2B5E08A8319
:102BB0009B83AC83BD83DF91CF911F910F91FF90D9
:102BC000EF90DF90CF90BF90AF9008950895089553
:102BD000089584ED97E00E94A50289EE97E00E9497
:102BE000A5028EEF97E00C94A502E6EDF5E01382C6
:102BF000128288EE93E0A0E0B0E084839583A68300
:102C0000B78381E192E09183808385EC90E09587A2
:102C1000848784EC90E09787868780EC90E0918BA6
:102C2000808B81EC90E0938B828B82EC90E0958B93
:102C3000848B86EC90E0978B868B118E128E138E90
:102C4000148E26E030E049E262E370E08EEF97E018
:102C50000E94C10526E030E048E26EE570E089EEB2
:102C600097E00E94C10522E530E04AE268E170E0A9
:102C700084ED97E00E94C105EEEAF7E086E2DF010D
:102C80001D928A95E9F786E090E09183808342E87F
:102C900050E060E070E0428353836483758321E0F9
:102CA00030E03187208742E050E05387428743E09D
:102CB00050E05587448744E050E05787468745E019
:102CC00050E0518B408B938B828B83E892E0909302
:102CD0009B0780939A07909387078093860790932A
:102CE00073078093720790935F0780935E079093BA
:102CF0004B0780934A07ECE3F7E0128213821482B9
:102D0000158210868FE692E091838083EEE2F7E0F1
:102D10001282138214821582108691838083E0E2EE
:102D2000F7E01282138214821582108691838083C9
:102D3000E2E1F7E0128213821482158210869183F9
:102D40008083E4E0F7E012821382148215821086F9
:102D500091838083E7EFF6E012821382148215825A
:102D6000108687E592E09183808314861386EAEECD
:102D7000F6E012821382148215821086918380837A
:102D800014861386EDEDF6E012821382148215820A
:102D900010869183808314861386E0EDF6E012821C
:102DA0001382148215821086918380831486138681
:102DB000E3ECF6E01282138214821582108691836E
:102DC000808314861386EEEAF6E012821382148260
:102DD000158210868BE492E09183808383E492E0F5
:102DE0009093A9068093A8068BE392E09093A306A4
:102DF0008093A206E7E8F6E012821382148215821D
:102E000010868FE292E091838083E3E7F6E01282FE
:102E1000138214821582108683E292E0918380836C
:102E2000368725870895789484B5826084BD84B5FB
:102E3000816084BD85B5826085BD85B5816085BDB5
:102E400080916E00816080936E001092810080916D
:102E500081008260809381008091810081608093F5
:102E60008100809180008160809380008091B1001A
:102E700084608093B1008091B00081608093B00045
:102E80008091910082608093910080919100816097
:102E90008093910080919000816080939000809158
:102EA000A10082608093A1008091A1008160809345
:102EB000A1008091A00081608093A00080912101F9
:102EC00082608093210180912101816080932101A2
:102ED0008091200181608093200180917A0084603C
:102EE00080937A0080917A00826080937A0080914A
:102EF0007A00816080937A0080917A008068809364
:102F00007A001092C100E091E605F091E70582E0B9
:102F10008083E091E205F091E3051082E091E40501
:102F2000F091E5058FEC80831092EE05E091EA05C3
:102F3000F091EB0586E08083E091E805F091E905EA
:102F4000808180618083E091E805F091E9058081CE
:102F500088608083E091E805F091E90580818068D0
:102F60008083E091E805F091E90580818F7D808381
:102F700061E08DE00E94D409C0E08091000262E02F
:102F80008C0F0E94D409CF5FC630B9F780E092E081
:102F90000E94260F80E092E09093D3078093D2079F
:102FA00010E0CEEAD7E08091AE0761E0810F0E9489
:102FB000D4098091AE0761E0810F0E94A5091F5FCF
:102FC000183079F780E09CE5A6E2B5E08093C6076B
:102FD0009093C707A093C807B093C9078093CA0707
:102FE0009093CB07A093CC07B093CD078093CE07E7
:102FF0009093CF07A093D007B093D1078EEF97E0BF
:103000000E94B1058EEF97E00E94E80489EE97E0F8
:103010000E94B10589EE97E00E94E80484ED97E0F4
:103020000E94B10584ED97E00E94E804D093AD07BB
:10303000C093AC07FF24F394F092A6070EEF17E0BD
:103040001093A8070093A7078AE997E00E94420E11
:10305000D0939907C093980782E0809392071093CA
:1030600094070093930786E897E00E94420ED0935E
:103070008507C093840783E080937E0710938007C1
:1030800000937F0782E797E00E94420ED09371077A
:10309000C093700784E080936A0710936C070093D5
:1030A0006B078EE597E00E94420ED0935D07C093B8
:1030B0005C0785E0809356071093580700935707E5
:1030C0008AE497E00E94420E8AE997E09093010714
:1030D0008093000786E897E09093F4068093F306C8
:1030E00082E797E09093E7068093E6068EE597E007
:1030F0009093DA068093D9068AE497E09093CD0600
:103100008093CC066AE977E08CE397E00E94240E76
:1031100066E877E08EE297E00E94240E62E777E0AF
:1031200080E297E00E94240E6EE577E082E197E06E
:103130000E94240E6AE477E084E097E00E94240E67
:1031400008EA16E084ED97E09093AB068093AA0618
:103150001092AC06F092AD0662E087E20E94D409BC
:1031600082EA96E029EE37E03093A5062093A40684
:10317000D093A706C093A60610937D0600937C0605
:1031800090937F0680937E06909393068093920699
:1031900010939106009390069093BA068093B90617
:1031A0001093B8060093B7068CE397E09093250838
:1031B000809324088EE297E090932308809322085E
:1031C00080E297E0909321088093200882E197E0C5
:1031D00090931F0880931E0884E097E090931D0849
:1031E00080931C088EEA96E090931B0880931A083F
:1031F000E0913C07F0913D070480F581E02D8CE3E0
:1032000097E019958091220890912308DC01ED91B7
:10321000FC910480F581E02D199580912008909112
:103220002108DC01ED91FC910480F581E02D1995D8
:1032300080911E0890911F08DC01ED91FC910480A3
:10324000F581E02D199580911C0890911D08DC01F5
:10325000ED91FC910480F581E02D199580911A087B
:1032600090911B08DC01ED91FC910480F581E02D2B
:1032700019950E94360B6093160870931708809377
:1032800018089093190880E2282E87E0382E92E1E2
:10329000492E97E0592E24E0622E27E0722EC7EFC8
:1032A000D6E00AEE16E03DEDE32E36E0F32E40EDDB
:1032B000C42E46E0D42E53E7A52E56E0B52E67E87F
:1032C000862E66E0962E8091AB07811106C08AE9B2
:1032D00097E00E94860E81119AC180919707811113
:1032E00006C086E897E00E94860E8111CAC18091CF
:1032F0008307811106C082E797E00E94860E811144
:10330000D0C180916F07811106C08EE597E00E94C1
:10331000860E8111D5C180915B07811106C08AE4B8
:1033200097E00E94860E8111DAC18091AB07882355
:1033300039F08AE997E00E94860E882309F4DEC1FD
:1033400080919707882339F086E897E00E94860EDF
:10335000882309F40DC280918307882339F082E71E
:1033600097E00E94860E882309F43CC280916F0783
:10337000882339F08EE597E00E94860E882309F4B1
:103380006BC280915B07882339F08AE497E00E9442
:10339000860E882309F49AC28091AD068823F1F144
:1033A00087E20E947D09892BC9F50E94360B0E9495
:1033B000C10786E394E00E948A0787E892E00E94B2
:1033C0008A0780E20E948B078AE394E00E948A07C2
:1033D0008FE494E00E948A0788EE90E00E949607AE
:1033E00081E594E00E948A0785E594E00E948A07BF
:1033F00082E594E00E948A0784E694E00E947E07BA
:10340000B0921B08A0921A08E0917306F09174061E
:103410000480F581E02D83E796E019951092140859
:10342000109213088AE997E00E94860E811106C067
:1034300081E090E0909314088093130886E897E069
:103440000E94860E811109C0809113089091140882
:103450000196909314088093130882E797E00E94E6
:10346000860E811109C0809113089091140801966D
:1034700090931408809313088EE597E00E94860EBF
:10348000811109C0809113089091140801969093BE
:103490001408809313088AE497E00E94860E811135
:1034A00009C0809113089091140801969093140814
:1034B000809313088091240890912508DC01ED91F8
:1034C000FC910680F781E02D19958091220890915A
:1034D0002308DC01ED91FC910680F781E02D199520
:1034E0008091200890912108DC01ED91FC910680EB
:1034F000F781E02D199580911E0890911F08DC013D
:10350000ED91FC910680F781E02D199580911C08C2
:1035100090911D08DC01ED91FC910680F781E02D72
:10352000199580911A0890911B08DC01ED91FC918E
:103530000680F781E02D1995E0911A08F0911B089B
:103540008085882321F090921B0880921A080E949F
:10355000360B2091160830911708409118085091A9
:103560001908DC01CB01821B930BA40BB50B893E20
:103570009340A105B10508F447C00E94360B609343
:103580001608709317088093180890931908809173
:103590001508811133C061E08DE00E94A50981E02A
:1035A000809315080E94360B0E94C10786E394E0C1
:1035B0000E948A0787E892E00E948A0780E20E94C0
:1035C0008B078AE394E00E948A078FE494E00E94CC
:1035D0008A0780E191E00E94960781E594E00E94CD
:1035E0008A0789E694E00E948A0782E594E00E94B7
:1035F0008A0781E090E00E94500906C060E08DE0FB
:103600000E94A509109215080E946D025CCE0E94CE
:10361000360B0E94C10786E394E00E948A0787E880
:1036200092E00E948A0780E20E948B078AE394E07E
:103630000E948A078FE494E00E948A0782EA90E061
:103640000E94960781E594E00E948A0787E794E04C
:103650000E948A0782E594E00E948A0781E090E058
:103660000E9450098CE397E09093250880932408EA
:10367000E0913C07F0913D070480F581E02D19951C
:103680002CCEAEE2B7E0B0932308A0932208E091DD
:103690002E07F0912F070480F581E02DCD011995BB
:1036A00026CE3092210820922008E0912007F09148
:1036B00021070480F581E02D80E297E0199521CE65
:1036C00050921F0840921E08E0911207F0911307D4
:1036D0000480F581E02D82E197E019951CCE70926F
:1036E0001D0860921C08E0910407F0910507048012
:1036F000F581E02D84E097E0199517CE0E94360BF6
:103700000E94C10786E394E00E948A0787E892E05E
:103710000E948A0780E20E948B078AE394E00E945D
:103720008A078FE494E00E948A0783EC90E00E946D
:10373000960781E594E00E948A0783E894E00E945E
:103740008A0782E594E00E948A0781E090E00E9467
:103750005009D0932508C0932408E091F706F09112
:10376000F8060480F581E02D87EF96E01995E8CD05
:103770000E94360B0E94C10786E394E00E948A07EC
:1037800087E892E00E948A0780E20E948B078AE322
:1037900094E00E948A078FE494E00E948A078BECF1
:1037A00090E00E94960781E594E00E948A0783E8F2
:1037B00094E00E948A0782E594E00E948A0782E0F2
:1037C00090E00E9450091093230800932208E09192
:1037D000EA06F091EB060480F581E02D8AEE96E092
:1037E0001995B9CD0E94360B0E94C10786E394E07B
:1037F0000E948A0787E892E00E948A0780E20E947E
:103800008B078AE394E00E948A078FE494E00E9489
:103810008A0781ED90E00E94960781E594E00E947E
:103820008A0783E894E00E948A0782E594E00E9478
:103830008A0783E090E00E945009F0922108E0920C
:103840002008E091DD06F091DE060480F581E02D90
:103850008DED96E019958ACD0E94360B0E94C10726
:1038600086E394E00E948A0787E892E00E948A0734
:1038700080E20E948B078AE394E00E948A078FE42B
:1038800094E00E948A0787ED90E00E94960781E508
:1038900094E00E948A0783E894E00E948A0782E508
:1038A00094E00E948A0784E090E00E945009D09240
:1038B0001F08C0921E08E091D006F091D106048046
:1038C000F581E02D80ED96E019955BCD0E94360BD9
:1038D0000E94C10786E394E00E948A0787E892E08D
:1038E0000E948A0780E20E948B078AE394E00E948C
:1038F0008A078FE494E00E948A078EED90E00E9490
:10390000960781E594E00E948A0783E894E00E948C
:103910008A0782E594E00E948A0785E090E00E9491
:10392000500983EC96E090931D0880931C08E09169
:10393000C306F091C4060480F581E02D19952CCDC5
:10394000CF93DF938230910510F482E090E0E09114
:103950003108F091320820E030E0C0E0D0E030974C
:1039600011F14081518148175907C0F04817590794
:1039700061F482819381209719F09B838A832BC005
:10398000909332088093310826C02115310519F033
:103990004217530718F49A01BE01DF01EF010280BC
:1039A000F381E02DDCCF2115310509F1281B390BFE
:1039B0002430310590F412968D919C9113976115E6
:1039C000710521F0FB019383828304C09093320838
:1039D00080933108FD01329644C0FD01E20FF31FD0
:1039E00081939193225031092D933C933AC02091B9
:1039F0002F0830913008232B41F42091050230919B
:103A000006023093300820932F0820910302309152
:103A100004022115310541F42DB73EB7409107024C
:103A200050910802241B350BE0912F08F0913008CB
:103A3000E217F307A0F42E1B3F0B2817390778F085
:103A4000AC014E5F5F4F2417350748F04E0F5F1FE4
:103A50005093300840932F088193919302C0E0E087
:103A6000F0E0CF01DF91CF9108950F931F93CF9393
:103A7000DF93009709F48CC0FC0132971382128205
:103A800000913108109132080115110581F420814F
:103A90003181820F931F20912F0830913008281711
:103AA000390779F5F0933008E0932F0871C0D801F9
:103AB00040E050E0AE17BF0750F412962D913C91B4
:103AC0001397AD012115310509F1D901F3CF9D01FE
:103AD000DA013383228360817181860F971F8217F9
:103AE000930769F4EC0128813981260F371F2E5F77
:103AF0003F4F318320838A819B8193838283452B2F
:103B000029F4F0933208E093310842C01396FC93F5
:103B1000EE931297ED01499159919E01240F351FA3
:103B2000E217F30771F480819181840F951F02964B
:103B300011969C938E938281938113969C938E937E
:103B40001297E0E0F0E0D80112968D919C911397C6
:103B5000009719F0F8018C01F6CF8D919C91980196
:103B60002E5F3F4F820F931F20912F083091300816
:103B70002817390769F4309729F410923208109207
:103B8000310802C0138212821093300800932F086C
:103B9000DF91CF911F910F9108958F929F92AF92D5
:103BA000BF92CF92DF92EF92FF92CF93DF93EC011F
:103BB000688179818A819B816115710581059105F3
:103BC00021F464E279ED8BE597E02DE133EF41E0FC
:103BD00050E038D049015A019B01AC01A7EAB1E499
:103BE0004DD06B017C01ACEEB4EFA501940152D035
:103BF000DC01CB018C0D9D1DAE1DBF1DB7FF03C0A9
:103C00000197A109B04888839983AA83BB83BC012B
:103C1000CD019F77DF91CF91FF90EF90DF90CF9014
:103C2000BF90AF909F908F900895B7CF89E092E0BA
:103C3000B4CF6093090270930A0280930B029093B1
:103C40000C020895052E97FB16F400940FD057FD33
:103C500005D024D007FC02D046F408C0509540950A
:103C6000309521953F4F4F4F5F4F08959095809528
:103C7000709561957F4F8F4F9F4F089531D0A59FCD
:103C8000900DB49F900DA49F800D911D1124089557
:103C9000B7FFF4CFF3DF821B930B0895A1E21A2E36
:103CA000AA1BBB1BFD010DC0AA1FBB1FEE1FFF1FE0
:103CB000A217B307E407F50720F0A21BB30BE40B30
:103CC000F50B661F771F881F991F1A9469F7609577
:103CD0007095809590959B01AC01BD01CF01089531
:103CE000A29FB001B39FC001A39F700D811D11243D
:103CF000911DB29F700D811D1124911D0895505882
:103D0000BB27AA270ED04DC13ED130F043D120F0C1
:103D100031F49F3F11F41EF433C10EF4E095E7FB3C
:103D200029C1E92F4FD180F3BA17620773078407BF
:103D3000950718F071F49EF567C10EF4E0950B2E0F
:103D4000BA2FA02D0B01B90190010C01CA01A001ED
:103D50001124FF27591B99F0593F50F4503E68F148
:103D60001A16F040A22F232F342F4427585FF3CF89
:103D7000469537952795A795F0405395C9F77EF45A
:103D80001F16BA0B620B730B840BBAF09150A1F0A3
:103D9000FF0FBB1F661F771F881FC2F70EC0BA0F29
:103DA000621F731F841F48F4879577956795B795B1
:103DB000F7959E3F08F0B3CF9395880F08F09927A9
:103DC000EE0F9795879508950CD0EBC0E3D040F0A7
:103DD000DAD030F021F45F3F19F0CCC0511115C199
:103DE000CFC0F0D098F39923C9F35523B1F3951BB5
:103DF000550BBB27AA2762177307840738F09F5F0C
:103E00005F4F220F331F441FAA1FA9F333D00E2E7A
:103E10003AF0E0E830D091505040E695001CCAF7E7
:103E200029D0FE2F27D0660F771F881FBB1F2617AC
:103E300037074807AB07B0E809F0BB0B802DBF017F
:103E4000FF2793585F4F2AF09E3F510568F092C0BC
:103E5000DCC05F3FECF3983EDCF386957795679581
:103E6000B795F7959F5FC9F7880F911D9695879530
:103E700097F90895E1E0660F771F881FBB1F62174F
:103E800073078407BA0720F0621B730B840BBA0B0D
:103E9000EE1F88F7E095089504D06894B111B5C07D
:103EA000089598D088F09F5790F0B92F9927B7516F
:103EB000A0F0D1F0660F771F881F991F1AF0BA95EE
:103EC000C9F712C0B13081F09FD0B1E008959CC015
:103ED000672F782F8827B85F39F0B93FCCF38695E4
:103EE00077956795B395D9F73EF490958095709541
:103EF00061957F4F8F4F9F4F0895E89409C097FBBE
:103F00003EF490958095709561957F4F8F4F9F4FB0
:103F10009923A9F0F92F96E9BB279395F6958795F4
:103F200077956795B795F111F8CFFAF4BB0F11F4B7
:103F300060FF1BC06F5F7F4F8F4F9F4F16C088235E
:103F400011F096E911C0772321F09EE8872F762F94
:103F500005C0662371F096E8862F70E060E02AF0D5
:103F60009A95660F771F881FDAF7880F96958795C1
:103F700097F9089597F99F6780E870E060E00895E9
:103F80009FEF80EC089500240A9416161706180671
:103F90000906089500240A9412161306140605064D
:103FA0000895092E0394000C11F4882352F0BB0FDE
:103FB00040F4BF2B11F460FF04C06F5F7F4F8F4F41
:103FC0009F4F089557FD9058440F551F59F05F3F7C
:103FD00071F04795880F97FB991F61F09F3F79F02B
:103FE00087950895121613061406551FF2CF4695AD
:103FF000F1DF08C0161617061806991FF1CF86952F
:104000007105610508940895E894BB276627772712
:10401000CB0197F908950BD0C4CFB5DF28F0BADFF4
:1040200018F0952309F0A6CFABCF1124EECFCADF4D
:10403000A0F3959FD1F3950F50E0551F629FF001BB
:10404000729FBB27F00DB11D639FAA27F00DB11D14
:10405000AA1F649F6627B00DA11D661F829F22279D
:10406000B00DA11D621F739FB00DA11D621F839F24
:10407000A00D611D221F749F3327A00D611D231FFA
:10408000849F600D211D822F762F6A2F11249F5748
:1040900050408AF0E1F088234AF0EE0FFF1FBB1F6B
:1040A000661F771F881F91505040A9F79E3F51050A
:1040B00070F060CFAACF5F3FECF3983EDCF38695BB
:1040C00077956795B795F795E7959F5FC1F7FE2BB5
:1040D000880F911D9695879597F908959F9305D020
:1040E0000F9007FCEE5F28C04BCF74DFE8F3E89435
:1040F000E0E0BB279F57F0F02AED3FE049EC06C017
:10410000EE0FBB0F661F771F881F28F0B23A6207B9
:104110007307840728F0B25A620B730B840BE39584
:104120009A9572F7803830F49A95BB0F661F771F07
:10413000881FD2F7904813C0EF93E0FF06C0A2EAB1
:104140002AED3FE049EC5FEBECDD2BDF0F900394B1
:1041500001FC9058EAE3F1E00EC09F3F31F091502E
:1041600020F4879577956795B795880F911D96955B
:10417000879597F908959F938F937F936F93FF93FC
:10418000EF939B01AC0147DFEF91FF9105D02F9199
:104190003F914F915F913FCFDF93CF931F930F9349
:1041A000FF92EF92DF927B018C01689405C0DA2EBA
:1041B000EF013DDFFE01E894A591259135914591F0
:1041C0005591AEF3EF01ADDDFE019701A801DA9440
:1041D00079F7DF90EF90FF900F911F91CF91DF91D2
:1041E0000895EE0FFF1F881F8BBF0790F691E02DFB
:1041F000199476DDB7FF0895821B930B089581E033
:1042000090E0F89407C0DC0101C06D93415050402C
:10421000E0F7089511E0CDE3D1E000E005C0802F84
:10422000FE01DFDF2196011DCE33D10780E00807B4
:06423000B1F7F894FFCF86
:104236000E000000003308800001000000000000AE
:1042460000060270019F014C02D001AE01C20100BE
:10425600000000E81596123A120913000000009AB1
:10426600129212C112711000000000E6159412009D
:10427600000000230EB80200000000250FFA0B1BF9
:104286000D520D00000000410EF60B3F0FFC0B0017
:1042960000000000000000D70AD70A000000004016
:1042A6000EF40B8C0B9A0F00000000E71598120015
:1042B6000000008F0EF80B766F6964206C6F6F70CC
:1042C6002829007669727475616C20766F6964209E
:1042D6004D6F727365436F64653A3A7374617274B5
:1042E600536365656E2829007669727475616C2062
:1042F600766F6964205469654669676874657245B6
:1043060078706C6F64653A3A73746172745363655E
:10431600656E282900766F69642054696546696769
:1043260068746572506C61797347616D653A3A6C71
:10433600696E6B4669676874657228546965466973
:1043460067687465722A29007669727475616C20D3
:10435600766F69642054696546696768746572504A
:104366006C61797347616D653A3A7374617274531F
:104376006365656E28290003040504057669727471
:1043860075616C20766F6964204465617468537446
:1043960061724578706C6F64653A3A7374617274D1
:1043A600536365656E282900766F696420446561EC
:1043B6007468537461724578706C6F64653A3A64D8
:1043C6006F466C61736832282900766F69642044F1
:1043D60065617468537461724578706C6F64653A90
:1043E6003A646F46617374426C61636B2829007688
:1043F6006F696420446561746853746172457870AE
:104406006C6F64653A3A646F466C6173683128294B
:1044160000766F69642044656174685374617245FF
:1044260078706C6F64653A3A646F52696E67546867
:10443600726F622829007669727475616C20766FD6
:10444600696420446561746853746172506C617963
:1044560047616D653A3A7374617274536365656E4C
:104466002829000D0A003A5B20002E2E5C44656167
:10447600746853746172323031382E696E6F003A47
:10448600005D20200056656E7420506F72742048BF
:104496006974200054727565006B65657020616CE7
:1044A60069766520484200546172676574207570AC
:1044B60020200054617267657420446F776E202057
:1044C600002E2E5C54696546696768746572506C87
:1044D60061797347616D652E637070005469654636
:1044E600696768746572506C61797347616D653A86
:1044F6003A7374617274536365656E2829002E2EB3
:104506005C4D6F727365436F64652E637070005403
:10451600696546696768746572506C61797347614D
:104526006D653A3A4C696E6B656420002E2E5C54BC
:104536006965466967687465724578706C6F64650D
:104546002E637070005469654669676874657245C4
:1045560078706C6F64653A3A73746172745363650C
:10456600656E2829002E2E5C44656174685374615B
:10457600724578706C6F64652E6370700044656177
:104586007468537461724578706C6F64653A3A73F7
:1045960074617274536365656E2829002E2E5C441F
:1045A6006561746853746172506C617947616D65B9
:1045B6002E63707000446561746853746172506C48
:1045C600617947616D653A3A7374617274536365D4
:1045D600656E28290072696E67205468726F6220C2
:1045E6006368616E676520737461746500466C610B
:1045F600736831004661737420426C61636B0046D8
:064606006C6173683200D4
:00000001FF
