:1000000008C1000037C1000035C1000033C1000045
:1000100031C100002FC100002DC100002BC1000024
:1000200029C1000027C1000025C1000023C1000034
:1000300021C100001FC100001DC100001BC1000044
:1000400019C1000017C1000015C1000013C1000054
:1000500011C100000FC100000DC100003CC500002F
:1000600009C10000ABC5000080C5000003C100004D
:1000700001C10000FFC00000FDC00000FBC0000087
:10008000F9C00000F7C00000F5C00000F3C0000098
:10009000F1C00000EFC00000EDC00000EBC00000A8
:1000A000E9C00000E7C00000E5C00000E3C00000B8
:1000B000E1C00000DFC00000DDC00000DBC00000C8
:1000C000D9C00000D7C00000D5C00000D3C00000D8
:1000D000D1C00000CFC00000CDC00000CBC00000E8
:1000E000C9C0000020032303120316031A035A0396
:1000F00027032B033103350339033F03430347032E
:100100005A034D035103550300002100240027002A
:100110002A002D0030003300010100000401070116
:100120000A0100002200250028002B002E003100CB
:10013000340002010000050108010B010505050559
:10014000070508080808020202020A0A080804044F
:10015000040401010101010101010303030303037D
:100160000303040707070C0C0C0C0C0C0C0C02020C
:10017000020206060606060606060B0B0B0B0B0B09
:100180000B0B010210202008081020401020408096
:10019000020102010804020101020408102040804B
:1001A00080402010080402018004020180402010D9
:1001B0000804020108040201010204081020408022
:1001C000010204081020408000000A0B02090C0DF7
:1001D0000E080703040100000000000000000000FA
:1001E000000000000000000000000000000000000F
:1001F00000000000121110000000000000000000CC
:100200000000000000000000000000000000470D9A
:10021000410D11241FBECFEFD1E2DEBFCDBF00E004
:100220000CBF13E0A0E0B2E0EAEEFEE100E00BBF9D
:1002300002C007900D92AE36B107D9F724E0AEE6C2
:10024000B3E001C01D92AA3DB207E1F711E0C8E09A
:10025000D1E000E006C021970109802FFE010E9435
:10026000240EC730D10780E00807A9F70E94D30BFE
:100270000C94640FC5CECF92DF92EF92FF920F9352
:100280001F93CF93DF936C017A018B01C0E0D0E024
:10029000CE15DF0589F0D8016D918D01D601ED9164
:1002A000FC910190F081E02DC6011995892B11F484
:1002B0007E0102C02196ECCFC701DF91CF911F9143
:1002C0000F91FF90EF90DF90CF900895089580E018
:1002D00090E00895FC01538D448D252F30E0842F4C
:1002E00090E0821B930B541710F0CF96089501975E
:1002F0000895FC01918D828D981761F0828DDF0148
:10030000A80FB11D5D968C91928D9F5F9F73928F08
:1003100090E008958FEF9FEF0895FC01918D828DFD
:10032000981731F0828DE80FF11D858D90E00895CA
:100330008FEF9FEF08950E94590F8CE793E074D4DC
:1003400021E0892B09F420E0822F0895EF92FF929B
:100350000F931F93CF93DF93EC0181E0888F9B8DE8
:100360008C8D981305C0E889F989808185FD23C0AB
:10037000F62E0B8D10E00F5F1F4F0F731127E02E2D
:100380008C8DE8120BC00FB607FCFACFE889F9890B
:10039000808185FFF5CFCE01D2D4F2CF8B8DFE01C7
:1003A000E80FF11DE35AFF4FF0820B8FEA89FB89BA
:1003B0008081806207C0EE89FF896083E889F989BE
:1003C00080818064808381E090E0DF91CF911F91F4
:1003D0000F91FF90EF900895CF93DF93EC01888DFC
:1003E0008823C1F0EA89FB89808185FD05C0A88941
:1003F000B9898C9186FD0EC00FB607FCF5CF8081C0
:1004000085FFF2CFA889B9898C9185FFEDCFCE0108
:1004100096D4E8CFDF91CF9108952F923F924F92DB
:100420005F926F927F928F929F92AF92BF92CF9284
:10043000DF92EF92FF920F931F93CF93DF9300D041
:10044000CDB7DEB75C0102969B838A83150194E0E9
:10045000290E311C19828A809B80F401608170E032
:10046000F50183859485FC0122813381621773072E
:1004700020F486D42B013C0103C0412C512C3201C5
:10048000C12CD12C76019301820146EE5FEF66EE1E
:100490007FEF8CEE9FEF0E944C0B9B01AC01461648
:1004A00057066806790611F0F1E0F9838A819B818D
:1004B00001969B838A83F4018081682F70E0F501A7
:1004C0008385948570D58A819B818215930519F661
:1004D00089810F900F900F90DF91CF911F910F9115
:1004E000FF90EF90DF90CF90BF90AF909F908F9054
:1004F0007F906F905F904F903F902F9008952F9234
:100500003F924F925F926F927F928F929F92AF92A3
:10051000BF92CF92DF92EF92FF920F931F93CF93F0
:10052000DF9300D0CDB7DEB75C0104969B838A834E
:1005300015019AE0290E311C19828A809B80F401F2
:10054000608170E0F50183859485FC01228133810F
:100550006217730720F414D42B013C0103C0412C13
:10056000512C3201C12CD12C76019301820142EE33
:100570005FEF62EE7FEF82EE9FEF0E944C0B9B01DC
:10058000AC01461657066806790611F0F1E0F983CA
:100590008A819B8101969B838A83F4018081682FE5
:1005A00070E0F50183859485FED48A819B81821554
:1005B000930519F689810F900F900F90DF91CF91DD
:1005C0001F910F91FF90EF90DF90CF90BF90AF9071
:1005D0009F908F907F906F905F904F903F902F9063
:1005E0000895362F90E0FC01E853FE4F4491FC0142
:1005F000EE57FE4F2491FC01E45CFE4F9491992349
:1006000009F46BC0442309F455C050E0FA01319756
:10061000E231F10508F04EC08827EE58FF4F8F4FAA
:100620000C94240E809180008F7707C08091800009
:100630008F7D03C080918000877F809380003AC0C7
:1006400084B58F7702C084B58F7D84BD33C080911F
:10065000B0008F7703C08091B0008F7D8093B00091
:1006600029C0809190008F7707C0809190008F7D86
:1006700003C080919000877F809390001BC0809181
:10068000A0008F7707C08091A0008F7D03C080916C
:10069000A000877F8093A0000DC0809120018F77FC
:1006A00007C0809120018F7D03C080912001877F4A
:1006B00080932001E92FF0E0EE0FFF1FEE5DFE4F6B
:1006C000A591B4918FB7F894EC91311103C02095A6
:1006D0002E2301C02E2B2C938FBF0895CF93DF9331
:1006E00090E0FC01EE57FE4F2491FC01E45CFE4FCC
:1006F0008491882361F190E0880F991FFC01E85FE5
:10070000FE4FC591D491FC01EE5DFE4FA591B491D1
:10071000611109C09FB7F89488812095822388834E
:10072000EC912E230BC0623061F49FB7F8943881AE
:10073000822F809583238883EC912E2B2C939FBF4F
:1007400006C08FB7F894E8812E2B28838FBFDF91E6
:10075000CF9108953FB7F8948091780390917903F1
:10076000A0917A03B0917B0326B5A89B05C02F3FCB
:1007700019F00196A11DB11D3FBFBA2FA92F982FC7
:100780008827820F911DA11DB11DBC01CD0142E042
:10079000660F771F881F991F4A95D1F708952FB7C5
:1007A000F894609174037091750380917603909131
:1007B00077032FBF0895CF93DF93EC016A8781EC15
:1007C00094E09C878B876330F1F1B8F4613061F17C
:1007D000623009F05CC088E08D878DE08A838EE00E
:1007E0008B838AE08C838BE08D838CE08E838FE01B
:1007F0008F8380E1888781E149C06430B1F1653041
:1008000009F045C08BE08D878BE28A838CE28B8375
:1008100088E28C8389E28D838AE28E838DE28F83E6
:100820008EE288878FE232C087E08D8793E09A83DB
:1008300094E09B831C826D8392E09E8395E09F836E
:1008400096E0988723C089E08D8787E18A8388E1D5
:100850008B8384E18C8385E18D8386E18E8389E1BE
:100860008F838AE188878BE111C08AE08D8781E2DE
:100870008A8382E28B838EE18C838FE18D8380E299
:100880008E8383E28F8384E2888785E2898787DF8E
:1008900001D780EC92E0C7D682E192E0C4D680E234
:1008A000C3D684EC92E0BFD686ED92E0BCD687E159
:1008B00090E0C5D688ED92E0B6D68CED92E0A7D652
:1008C0006EDFE8D680EC92E0AED682E192E0ABD665
:1008D00080E2AAD684EC92E0A6D686ED92E0A3D67A
:1008E00088E190E0ACD688ED92E09DD680E090E083
:1008F000A6D689ED92E097D68A8144D750DFCAD632
:1009000080EC92E090D682E192E08DD680E28CD6A7
:1009100084EC92E088D686ED92E085D689E190E07D
:100920008ED688ED92E07FD681E090E088D689ED82
:1009300092E079D68B8126D732DFACD680EC92E07C
:1009400072D682E192E06FD680E26ED684EC92E0BD
:100950006AD686ED92E067D68CE190E070D688ED9D
:1009600092E061D686EF92E052D619DF93D680EC02
:1009700092E059D682E192E056D680E255D684ECD8
:1009800092E051D686ED92E04ED68DE190E057D6BA
:1009900088ED92E048D680E090E051D689ED92E073
:1009A00042D68C81EFD6FBDE75D680EC92E03BD64A
:1009B00082E192E038D680E237D684EC92E033D6FA
:1009C00086ED92E030D68EE190E039D688ED92E067
:1009D0002AD681E090E033D689ED92E024D68D814D
:1009E000D1D6DDDE57D680EC92E01DD682E192E0D2
:1009F0001AD680E219D684EC92E015D686ED92E004
:100A000012D68FE190E01BD688ED92E00CD682E002
:100A100090E015D689ED92E006D68E81B3D6BFDE82
:100A200039D680EC92E0FFD582E192E0FCD580E2FD
:100A3000FBD584EC92E0F7D586ED92E0F4D580E228
:100A400090E0FDD588ED92E0EED583E090E0F7D51B
:100A500089ED92E0E8D58F8195D6A1DE1BD680EC9A
:100A600092E0E1D582E192E0DED580E2DDD584EC52
:100A700092E0D9D586ED92E0D6D581E290E0DFD53F
:100A800088ED92E0D0D584E090E0D9D589ED92E070
:100A9000CAD5888577D683DEFDD580EC92E0C3D5B4
:100AA00082E192E0C0D580E2BFD584EC92E0BBD574
:100AB00086ED92E0B8D582E290E0C1D588ED92E073
:100AC000B2D585E090E0BBD589ED92E0ACD58985C3
:100AD000DF91CF9157C61F920F920FB60F9211243C
:100AE0002F933F938F939F93AF93BF938091740302
:100AF00090917503A0917603B091770330917303C1
:100B000023E0230F2D3720F40196A11DB11D05C050
:100B100026E8230F0296A11DB11D20937303809335
:100B2000740390937503A0937603B0937703809139
:100B3000780390917903A0917A03B0917B03019699
:100B4000A11DB11D8093780390937903A0937A033C
:100B5000B0937B03BF91AF919F918F913F912F9164
:100B60000F900FBE0F901F9018951F920F920FB607
:100B70000F9211240BB60F922F933F934F935F93D5
:100B80006F937F938F939F93AF93BF93EF93FF9355
:100B90008CE793E0D4D0FF91EF91BF91AF919F91FB
:100BA0008F917F916F915F914F913F912F910F9016
:100BB0000BBE0F900FBE0F901F9018951F920F92B3
:100BC0000FB60F9211240BB60F922F938F939F9312
:100BD000EF93FF93E0918C03F0918D038081E0917E
:100BE0009203F091930382FD12C09081809195034E
:100BF0008F5F8F7320919603821751F0E0919503D8
:100C0000F0E0E458FC4F958F8093950301C08081FC
:100C1000FF91EF919F918F912F910F900BBE0F90AD
:100C20000FBE0F901F901895FC01918D228D892F7A
:100C300090E0805C9F4F821B91098F7399270895E4
:100C400080E090E0892B19F078DB811125C080E0ED
:100C500090E0892B41F080E090E0892B21F00E9408
:100C6000000081111CC080E090E0892B41F080E001
:100C700090E0892B21F00E940000811113C080E0D8
:100C800090E0892BA1F080E090E0892B81F00E9418
:100C9000000081110AC008950E940000D8CF0E9470
:100CA0000000E1CF0E940000EACF0C9400000895FC
:100CB000FC0113861286128213821482158261E06F
:100CC00089E28FCCCF93DF93EC01888599850097DB
:100CD00011F00E94C10E8E8187FD04C060E0DF919B
:100CE000CF91FCCCDF91CF9108950C94C10E0C9460
:100CF000C10E0C94C10E0C94C10E0C94C10EFC01DB
:100D000012821382148215821386128648DDC2D4A1
:100D100080EC92E088D486E492E085D480E284D4AA
:100D200083E393E080D486ED92E07DD487E290E087
:100D300086D488ED92E077D48BE493E068C4FC011C
:100D4000848DDF01A80FB11DA35ABF4F2C91848D54
:100D500090E001968F739927848FA689B7892C9389
:100D6000A089B1898C9180648C93938D848D981324
:100D700006C00288F389E02D80818F7D80830895ED
:100D80004F925F926F927F928F929F92AF92BF929B
:100D9000CF92DF92EF92FF920F931F93CF93DF9347
:100DA000DC011D968C911D971A96EC901A97189657
:100DB000ED91FC91199717968C901797482F50E05A
:100DC0001B961C911B971C960C91EB018E1161C018
:100DD000CC0FDD1FC60FD71FCE0FDF1F882009F4F1
:100DE00040C0912CA12CB12CFE01E40FF51F6081B5
:100DF00070E0762F6627072E000C880B990BA50153
:100E0000940100D7390155244424FE01E10FF11D5E
:100E1000608170E0762F6627072E000C880B990BF7
:100E2000A5019401EFD6B42FA32F922F8827730129
:100E30006201C82AD92AEA2AFB2AC00FD11D68817B
:100E400070E0762F6627072E000C880B990BA50102
:100E50009401D8D6C701B601622B732B842B952B36
:100E600091C0FE01E40FF51F2081FE01E10FF11D8D
:100E70006081862F90E0A0E0B0E0BA2FA92F982FD4
:100E80008827A22BC00FD11D2881BC01CD01622B68
:100E900079C0CC0FDD1FCC0FDD1FCE0FDF1FF12C73
:100EA000882009F454C0912CA12CB12CFE01E40F30
:100EB000F51F608170E0762F6627072E000C880BE7
:100EC000990BA50194019ED6722E662455244424C4
:100ED000FE01EE0DFF1D608170E0762F6627072E64
:100EE000000C880B990BA50194018CD67901DD24A7
:100EF000CC24C428D528E628F728FE01E00FF11DF0
:100F0000608170E0762F6627072E000C880B990B06
:100F1000A501940177D6C22AD32AE42AF52AC10F63
:100F2000D11D688170E0762F6627072E000C880B94
:100F3000990BA501940166D6B42FA32F922F882771
:100F4000BC01CD016C297D298E299F291BC0FE0182
:100F5000E40FF51F2081FE01EE0DFF1D6081862F3D
:100F600090E0A0E0B0E0DC0199278827B22BFE01D9
:100F7000E00FF11D2081822BC10FD11D2881BC0102
:100F8000CD01722BDF91CF911F910F91FF90EF90C8
:100F9000DF90CF90BF90AF909F908F907F906F9099
:100FA0005F904F9008958F929F92AF92BF92CF9291
:100FB000DF92EF92FF920F931F93CF93DF93FC0189
:100FC000828193816817790708F04CC04A01AA24EE
:100FD000BB24B82DC32ED42EE52EFF24AC2D922F8A
:100FE0008781882361F0889E40011124B92DC89E15
:100FF00060011124AD2D289FE00111249D2FD5847F
:10100000C285E084F184DC1208C09B01220F331FEB
:10101000620F731F6E0D7F1D16C0660F771F660F60
:10102000771F6E0D7F1D052F112722273327EB0118
:10103000CD0DD11D882329F0089F90011124232F65
:1010400001C0202F28838285EB01C80FD11DB883F2
:101050008385EB01C80FD11DA8838485FB01E80FB0
:10106000F11D9083DF91CF911F910F91FF90EF9031
:10107000DF90CF90BF90AF909F908F9008951F9377
:10108000CF93DF93EC01162F8981882329F08E817D
:1010900087FD02C060E022DB1E838981882331F056
:1010A00061E0812F1BDB60E0812F9BDA812F90E0D4
:1010B000FC01E45CFE4FE491F0E0EE0FFF1FEE5DFB
:1010C000FE4F259134913B8B2A8BFC01EE57FE4F4E
:1010D000E491EC8BDF91CF911F910895CF92DF9235
:1010E000EF92FF920F931F93CF93DF93CDB7DEB7AD
:1010F00029970FB6F894DEBF0FBECDBF8C01DC017F
:1011000018968D919C911997892B09F4A1C022DB27
:10111000F801C684D784E088F188DC01CB018C1902
:101120009D09AE09BF098C329140A105B10578F344
:10113000F894D80114968D919C9115979A83898380
:101140001896ED91FC9119977F01BFEFEB1AFB0AFE
:1011500080818987F80190810288F389E02DD80188
:1011600054968C91992309F430C09081982B9887DC
:101170009081809589238F838F818C8388E08B83F6
:1011800058856F8149853B812C8189819A81D7015E
:10119000508347FD252F3A952083262F39F0441F91
:1011A00000C000006083000000C0F2CF38E04D9125
:1011B00060830000019761F7D8015396FC93EE938A
:1011C000529749873B832C833AC09081982B98870C
:1011D0009081809589238F838F818E8388E08D8392
:1011E00058856F8149853D812E8189819A81D701FA
:1011F000508347FD252F00C000C0208300C000C0E1
:1012000000C000C000C060830000262F3A9541F066
:10121000441F000000C000C000C000C000C0E8CFF4
:1012200038E04D9100C0608300C0019709F7D801F4
:101230005396FC93EE93529749873D832E839A836E
:101240008983789487DAF80166877787808B918B1A
:1012500029960FB6F894DEBF0FBECDBFDF91CF91B8
:101260001F910F91FF90EF90DF90CF900895CF9254
:10127000DF92EF92FF920F931F93CF93DF93EC01D6
:10128000CA80DB80EC80FD808ADA6C157D058E05D6
:101290009F0508F49CC08A859B858130910509F4DF
:1012A00046C08230910509F46FC0892B09F08FC0C8
:1012B00008851985F801628170E02FEF3FEF4FEF4D
:1012C00050E0838594856FDEF801638170E02FEF35
:1012D0003FEF4FEF50E08385948565DEE884F98425
:1012E00087010C5F1F4F6701FAE0CF0ED11CF80198
:1012F00061918F0170E020EF30EF4FEF50E0F70188
:101300008385948550DE0C151D0589F7E885F985E0
:1013100083859485E3DE82E090E09B878A873FDACD
:10132000DC01CB01845D9E4FAF4FBF4F4CC0888521
:10133000998573D8082F88859985E1D8182FE88575
:10134000F98583859485CADE61E089E24AD927DA86
:10135000DC01CB010596A11DB11D8A839B83AC8363
:10136000BD832E813F81215031093F832E83100F91
:1013700071F582E090E09B878A8711DADC01CB016E
:101380000596A11DB11D1FC08885998546D8082FD7
:1013900088859985B4D8182FE885F9858385948543
:1013A0009DDEFDD9DC01CB010596A11DB11D8A830F
:1013B0009B83AC83BD83100F51F4F1D9DC01CB01C9
:1013C000945AA94DBA4F8A839B83AC83BD83DF9126
:1013D000CF911F910F91FF90EF90DF90CF900895E4
:1013E0008F929F92AF92BF92CF92DF92EF92FF9235
:1013F0000F931F93CF93DF93EC018A809B80AC8087
:10140000BD80CDD9681579058A059B0508F455C0BE
:101410008A859B85892B09F050C088849984A12CEA
:10142000B12CF40182819381FC0122813381A216C7
:10143000B30628F4B501A4DC8B019C0103C000E0D5
:1014400010E09801C12C80E7D82EE12CF12C47EE5A
:101450005FEF6CEE7FEF87EE9FEF1ED19B01AC013B
:10146000B501F401828193819EDDFFEFAF1ABF0ABF
:1014700088E1A816B104A9F6E885F98584818F5F13
:10148000883110F4848301C01482648170E020EDFF
:1014900030ED40ED50E08281938185DDE885F9856E
:1014A000828193811BDE7BD9DC01CB010396A11DD8
:1014B000B11D8A839B83AC83BD83DF91CF911F9144
:1014C0000F91FF90EF90DF90CF90BF90AF909F90E3
:1014D0008F900895EF92FF920F931F93CF93DF9316
:1014E000EC017B0188859985009709F04AD49D8598
:1014F0008A85981719F084E090E002C083E090E0BC
:101500008E9D80018F9D100D9E9D100D11241D83B9
:101510000C83C801A1D399878887009739F0A80167
:1015200060E070E0CAD4FB82EA8204C01D821C82A3
:101530001B821A82DF91CF911F910F91FF90EF9044
:101540000895CF93DF93EC018E8187FD05C061E0A4
:10155000C5D860E08E8145D881E08983DF91CF9145
:10156000089508950895089508950895009769F0DD
:10157000FC0101900020E9F73197AF01481B590B9E
:10158000BC018CE793E00C943B0180E090E008956F
:101590008F929F92AF92BF920F931F93CF93DF933F
:1015A000CDB7DEB7A1970FB6F894DEBF0FBECDBFA3
:1015B00019A2423008F44AE08E010F5D1F4F842EBD
:1015C000912CA12CB12CA50194011CD3E62FB901BB
:1015D000CA0101501109EA3014F4E05D01C0E95C70
:1015E000D801EC93232B242B252B69F7C801BEDFF0
:1015F000A1960FB6F894DEBF0FBECDBFDF91CF919D
:101600001F910F91BF90AF909F908F900895CF93AF
:10161000DF93ACDFEC018AE693E0A8DF8C0F9D1F1F
:10162000DF91CF910895A2CFE0917C03F0917D03EB
:101630000190F081E02D682F8CE793E01994CF9210
:10164000DF92EF92FF92CF93DF936C01990FEE0838
:10165000FF08F7FE15C08DE2E7DFEC01662777276C
:10166000CB016C197D098E099F094AE091DF8C0F2F
:101670009D1FDF91CF91FF90EF90DF90CF90089565
:101680004AE0C701B601DF91CF91FF90EF90DF9064
:10169000CF907ECF4AE07CCF6F927F928F929F92C5
:1016A000AF92BF92CF92DF92EF92FF920F931F9370
:1016B000CF93DF9338017724812E922EA32EBB2463
:1016C000F401FF27D601BB278D2C9E2CAF2CBB2409
:1016D0005401BB24CE2DD0E0820F911D8C179D07A5
:1016E0003CF08F3F910529F024F08FEF90E001C08E
:1016F000CE018F01060F171F0A151B053CF00F3F87
:10170000110529F024F00FEF10E001C08501460D0E
:10171000571D4A175B073CF04F3F510529F024F055
:101720004FEF50E001C0AD01012E000C220B330B36
:10173000322F212F102F0027092E000CAA0BBB0BD4
:10174000DC0199278827802B912BA22BB32B052E08
:10175000000C660B770B8C019D01042B152B262B9F
:10176000372BC901B801DF91CF911F910F91FF90E5
:10177000EF90DF90CF90BF90AF909F908F907F9031
:101780006F900895CF93DF93682F70E080E090E032
:101790004AE0FEDEEC018AE693E0E8DE8C0F9D1F56
:1017A000DF91CF910895789484B5826084BD84B52B
:1017B000816084BD85B5826085BD85B5816085BD4C
:1017C00080916E00816080936E0010928100809104
:1017D000810082608093810080918100816080938C
:1017E0008100809180008160809380008091B100B1
:1017F00084608093B1008091B00081608093B000DC
:10180000809191008260809391008091910081602D
:1018100080939100809190008160809390008091EE
:10182000A10082608093A1008091A10081608093DB
:10183000A1008091A00081608093A000809121018F
:101840008260809321018091210181608093210138
:101850008091200181608093200180917A008460D2
:1018600080937A0080917A00826080937A008091E0
:101870007A00816080937A0080917A0080688093FA
:101880007A001092C100E0918C03F0918D0382E008
:101890008083E0918803F09189031082E0918A03AC
:1018A000F0918B038FEC808310929403E09190036E
:1018B000F091910386E08083E0918E03F0918F0395
:1018C000808180618083E0918E03F0918F0380811D
:1018D00088608083E0918E03F0918F03808180681F
:1018E0008083E0918E03F0918F0380818F7D8083D0
:1018F00061E08DE00E946E0381EC94E022DE81ECD9
:1019000094E0ECDB8CEA94E01CDE8CEA94E0E6DB0D
:1019100061E08EE994E00E94DB038EE994E090930D
:101920009B0480939A0482E994E0C2D962E084E83F
:1019300094E00E94DB0384E894E090938104809318
:10194000800488E794E0B4D98CEA94E0909328046A
:10195000809327041092290485E294E09093220456
:101960008093210489E194E0CAD90E94CF03609357
:101970006F0370937003809371039093720382E9F5
:1019800094E075DC88E794E072DC89E194E028DD7E
:101990000E94AA034B015C0182E3C82ED12CE12CEA
:1019A000F12C0E94AA03DC01CB0188199909AA092C
:1019B000BB09883E9340A105B10558F021E0C21A49
:1019C000D108E108F10888EE880E83E0981EA11C7A
:1019D000B11CC114D104E104F10419F70E94CF0332
:1019E000C0906F03D0907003E0907103F090720389
:1019F000DC01CB018C199D09AE09BF0981379741E4
:101A0000A105B10508F43BC00E94CF0343DE80EC82
:101A100092E009DE86E092E006DE80E205DE8EE0FE
:101A200093E001DE86ED92E0FEDD84E790E007DEE4
:101A300088ED92E0F8DD83E293E0E9DD0E94CF03D8
:101A400060936F037093700380937103909372039C
:101A500080916E0381110AC061E08DE00E94F10265
:101A600081E080936E0388E794E008C060E08DE039
:101A70000E94F10210926E0382E994E019D9E0D835
:101A80007ECF8CEA94E01ED981EC94E01BC9CF9301
:101A9000DF93ECE7F3E01382128288EE93E0A0E09C
:101AA000B0E084839583A683B78386E792E0918331
:101AB000808385EC90E09587848784EC90E097871D
:101AC000868780EC90E0918B808B81EC90E0938B0B
:101AD000828B82EC90E0958B848B86EC90E0978BE8
:101AE000868B118E128E138E148EE1ECF4E011822F
:101AF00017821186108616861786108A118A158617
:101B00001286C1E0C387D2E0D487C08362E370E06D
:101B1000CF01E0DC66E181EC94E0B1DAECEAF4E0DC
:101B2000118217821186108616861786108A118AEE
:101B3000C587C2871386D487C08368E170E0CF0170
:101B4000C9DC68E18CEA94E09ADA2CEB32E030935D
:101B50009F0420939E04E2E9F4E01282138214822F
:101B6000158288EA92E091838083138612863093EF
:101B7000850420938404E8E7F4E01282138214823F
:101B80001582918380831386128630936B04209391
:101B90006A04EEE5F4E012821382148215829183C6
:101BA0008083138612863093510420935004E4E41A
:101BB000F4E012821382148215829183808313864B
:101BC00012863093370420933604EAE2F4E012825E
:101BD000138214821582918380831386128684E98E
:101BE00092E09093260480932504E9E1F4E01282C8
:101BF00013821482158288E892E091838083DF91BA
:101C0000CF910895A1E21A2EAA1BBB1BFD010DC0A6
:101C1000AA1FBB1FEE1FFF1FA217B307E407F5079C
:101C200020F0A21BB30BE40BF50B661F771F881F78
:101C3000991F1A9469F760957095809590959B010E
:101C4000AC01BD01CF010895EE0FFF1F881F8BBFB0
:101C50000790F691E02D1994CF93DF938230910590
:101C600010F482E090E0E091D804F091D90420E0F3
:101C700030E0C0E0D0E0309711F140815181481749
:101C80005907C0F04817590761F482819381209762
:101C900019F09B838A832BC09093D9048093D80436
:101CA00026C02115310519F04217530718F49A017F
:101CB000BE01DF01EF010280F381E02DDCCF2115B1
:101CC000310509F1281B390B2430310590F41296A7
:101CD0008D919C9113976115710521F0FB01938300
:101CE000828304C09093D9048093D804FD01329676
:101CF00044C0FD01E20FF31F8193919322503109FB
:101D00002D933C933AC02091D6043091D704232BD5
:101D100041F420910202309103023093D7042093C2
:101D2000D60420910002309101022115310541F4C1
:101D30002DB73EB74091040250910502241B350B8C
:101D4000E091D604F091D704E217F307A0F42E1B1C
:101D50003F0B2817390778F0AC014E5F5F4F24170F
:101D6000350748F04E0F5F1F5093D7044093D604B9
:101D70008193919302C0E0E0F0E0CF01DF91CF9139
:101D800008950F931F93CF93DF93009709F48CC0AE
:101D9000FC013297138212820091D8041091D90469
:101DA0000115110581F420813181820F931F20914B
:101DB000D6043091D7042817390779F5F093D70462
:101DC000E093D60471C0D80140E050E0AE17BF07E1
:101DD00050F412962D913C911397AD0121153105C8
:101DE00009F1D901F3CF9D01DA01338322836081A8
:101DF0007181860F971F8217930769F4EC01288180
:101E00003981260F371F2E5F3F4F318320838A8110
:101E10009B8193838283452B29F4F093D904E0932B
:101E2000D80442C01396FC93EE931297ED014991AA
:101E300059919E01240F351FE217F30771F4808139
:101E40009181840F951F029611969C938E938281A7
:101E5000938113969C938E931297E0E0F0E0D80163
:101E600012968D919C911397009719F0F8018C01AF
:101E7000F6CF8D919C9198012E5F3F4F820F931F5B
:101E80002091D6043091D7042817390769F4309788
:101E900029F41092D9041092D80402C0138212823D
:101EA0001093D7040093D604DF91CF911F910F9127
:101EB000089581E090E0F89407C0DC0101C06D93C3
:101EC00041505040E0F7089511E0C8E0D1E000E053
:101ED00005C0802FFE01B8DE2196011DC930D10753
:0A1EE00080E00807B1F7F894FFCF87
:101EEA000000DA048000766F6964206C6F6F7028D6
:101EFA002900766F69642054696546696768746564
:101F0A00723A3A73657455702875696E74385F74DD
:101F1A002C2041646166727569745F4E656F506901
:101F2A0078656C2A29007669727475616C20766FFF
:101F3A006964204465617468537461724578706C91
:101F4A006F64653A3A7374617274536365656E2897
:101F5A00290000000000A6013B016A01EC011406F9
:101F6A0079018D0100000000B50A7D067F06F0099F
:101F7A0000000000B40A770600000000000000001C
:101F8A009B019B0100000000B30A79065806370935
:101F9A0000000000B20A750600000000B10A7B06C4
:101FAA003A5B20002E2E5C54696546696768746541
:101FBA00722E637070003A005D202000506F7374B7
:101FCA0020696E697420696E6E6572206C69676833
:101FDA00742069647300706F737420696E69742069
:101FEA006F757465724C69676874696473002E2E24
:101FFA005C446561746853746172323031382E6999
:10200A006E6F004B656570416C6976652066697212
:10201A006564002E2E5C4465617468537461724570
:10202A0078706C6F64652E637070004465617468C3
:10203A00537461724578706C6F64653A3A7374616F
:0E204A007274536365656E2829000D0A00004C
:00000001FF
