:100000001AC1000049C1000047C1000045C10000FD
:1000100043C1000041C100003FC100003DC10000DC
:100020003BC1000039C1000037C1000035C10000EC
:1000300033C1000031C100002FC100002DC10000FC
:100040002BC1000029C1000027C1000025C100000C
:1000500023C1000021C100001FC100000C943A0917
:100060001BC100000C94AD090C94840915C100005B
:1000700013C1000011C100000FC100000DC100003C
:100080000BC1000009C1000007C1000005C100004C
:1000900003C1000001C10000FFC00000FDC000005E
:1000A000FBC00000F9C00000F7C00000F5C0000070
:1000B000F3C00000F1C00000EFC00000EDC0000080
:1000C000EBC00000E9C00000E7C00000E5C0000090
:1000D000E3C00000E1C00000DFC00000DDC00000A0
:1000E000DBC00000B807BB07AA07AE07B207F207DC
:1000F000BF07C307C907CD07D107D707DB07DF074E
:10010000F207E507E907ED0769086E0873087D083F
:100110008708000991089908A108AB08B508BF082D
:10012000CE08D8080009E208EC08F6080000210013
:10013000240027002A002D003000330001010000B8
:10014000040107010A0100002200250028002B00FD
:100150002E003100340002010000050108010B01EE
:1001600005050505070508080808020202020A0A33
:100170000808040404040101010101010101030351
:10018000030303030303040707070C0C0C0C0C0CFC
:100190000C0C0202020206060606060606060B0BF9
:1001A0000B0B0B0B0B0B010210202008081020403A
:1001B000102040800201020108040201010204082B
:1001C00010204080804020100804020180040201B9
:1001D0008040201008040201080402010102040802
:1001E00010204080010204081020408000000A0B0B
:1001F00002090C0D0E0807030401000000000000B6
:1002000000000000000000000000000000000000EE
:1002100000000000000000001211100000000000AB
:1002200000000000000000000000000000000000CE
:1002300000003A0FE20C11241FBECFEFD1E2DEBF67
:10024000CDBF00E00CBF14E0A0E0B2E0E4E6F4E2D1
:1002500000E00BBF02C007900D92A433B107D9F79D
:1002600026E0A4E3B4E001C01D92A330B207E1F799
:1002700011E0CAE1D1E000E006C021970109802F1A
:10028000FE010E94E110C931D10780E00807A9F7FB
:100290000E94EA0C0C942112B3CEFC011386128644
:1002A000128213821482158261E089E232C6CF93F2
:1002B000DF93EC0188859985009711F00E947E11EB
:1002C0008E8187FD04C060E0DF91CF919FC6DF91F2
:1002D000CF9108950C947E110C947E110C947E1194
:1002E0000C947E110C947E110C947E110C947E1152
:1002F000B5C7CF92DF92EF92FF920F931F93CF93E8
:10030000DF9300D01F92CDB7DEB78C01DC011296CF
:10031000CD90DD90ED90FC901597A0D76C157D05E4
:100320008E059F0508F4AAC0F80182859385813067
:10033000910509F458C00CF044C0892B09F09EC007
:100340000E94781029E030E040E050E00E948410E4
:10035000AB01BC014F5F5F4F6F4F7F4FD8011896C5
:10036000ED91FC911997828590E00197880F991F74
:10037000880F991F092E000CAA0BBB0B9A01AB0129
:10038000280F391F4A1F5B1F29833A834B835C83E5
:1003900065D76B017C01A2E3B0E029813A814B81F2
:1003A0005C810E94A010C60ED71EE81EF91EF8013F
:1003B000C282D382E482F58281E090E093878287D3
:1003C0005DC08230910579F1039709F057C046D797
:1003D000DC01CB01945AA94DBA4FF8018283938373
:1003E000A483B5834BC060E088E293D537D7DC01A6
:1003F000CB0188519C4FAF4FBF4FF801828393834D
:10040000A483B5838FEF84870084F185E02D6FEF9F
:1004100070E0858537D682E090E0D8011B969C93EA
:100420008E931A972BC060E088E273D517D7DC0152
:10043000CB018896A11DB11DF80182839383A4830B
:10044000B58364856E51648770E00084F185E02D8A
:10045000858518D6D8011C968C911C97893270F42A
:100460001C961C921C971896ED91FC91199760E0D0
:1004700070E0858507D6F801138612860F900F90DD
:100480000F900F90DF91CF911F910F91FF90EF9000
:10049000DF90CF900895CF93DF93EC01DFD64AE051
:1004A0000E94860B87E393E00E94850B86E992E029
:1004B0000E94850B80E20E94C50B8BE393E00E94B3
:1004C000850B86E593E00E94850B87E290E00E9411
:1004D000D00B88E593E00E94850B8CE593E00E94A9
:1004E000790B1B861A861A821B821C821D82E88564
:1004F000F98581E08787DF91CF910895FC01128211
:1005000013821482158213861286A8D64AE00E94AE
:10051000860B87E393E00E94850B86E392E00E94BE
:10052000850B80E20E94C50B8EE793E00E94850B4D
:1005300086E593E00E94850B86E290E00E94D00B56
:1005400088E593E00E94850B87E993E00C94790B92
:10055000FC011282138214821582138612867ED6C3
:100560004AE00E94860B87E393E00E94850B8AE0B5
:1005700092E00E94850B80E20E94C50B87EB93E01E
:100580000E94850B86E593E00E94850B89E290E04E
:100590000E94D00B88E593E00E94850B8FEC93E0DE
:1005A0000C94790B8F929F92AF92BF92CF92DF9271
:1005B000EF92FF920F931F93CF93DF93FC01828101
:1005C00093816817790708F04CC04A01AA24BB241C
:1005D000B82DC32ED42EE52EFF24AC2D922F87816B
:1005E000882361F0889E40011124B92DC89E6001C6
:1005F0001124AD2D289FE00111249D2FD584C285A3
:10060000E084F184DC1208C09B01220F331F620FCB
:10061000731F6E0D7F1D16C0660F771F660F771F45
:100620006E0D7F1D052F112722273327EB01CD0DDE
:10063000D11D882329F0089F90011124232F01C088
:10064000202F28838285EB01C80FD11DB8838385B5
:10065000EB01C80FD11DA8838485FB01E80FF11DB4
:100660009083DF91CF911F910F91FF90EF90DF90DA
:10067000CF90BF90AF909F908F9008951F93CF938E
:10068000DF93EC01162F8981882329F08E8187FD65
:1006900002C060E0BBD41E838981882331F061E011
:1006A000812FB4D460E0812F34D4812F90E0FC01FD
:1006B000E05AFE4FE491F0E0EE0FFF1FEA5BFE4FC1
:1006C000259134913B8B2A8BFC01EA55FE4FE49136
:1006D000EC8BDF91CF911F910895CF92DF92EF9233
:1006E000FF920F931F93CF93DF93CDB7DEB7299778
:1006F0000FB6F894DEBF0FBECDBF8C01DC0118969B
:100700008D919C911997892B09F4A1C082D5F8018C
:10071000C684D784E088F188DC01CB018C199D095F
:10072000AE09BF098C329140A105B10578F3F89468
:10073000D80114968D919C9115979A838983189668
:10074000ED91FC9119977F01BFEFEB1AFB0A8081B5
:100750008987F80190810288F389E02DD8015496A9
:100760008C91992309F430C09081982B98879081BF
:10077000809589238F838F818C8388E08B83588534
:100780006F8149853B812C8189819A81D701508372
:1007900047FD252F3A952083262F39F0441F00C0AE
:1007A00000006083000000C0F2CF38E04D9160830C
:1007B0000000019761F7D8015396FC93EE9352978E
:1007C00049873B832C833AC09081982B98879081EE
:1007D000809589238F838F818E8388E08D835885D0
:1007E0006F8149853D812E8189819A81D70150830E
:1007F00047FD252F00C000C0208300C000C000C0FE
:1008000000C000C060830000262F3A9541F0441FCD
:10081000000000C000C000C000C000C0E8CF38E049
:100820004D9100C0608300C0019709F7D80153962D
:10083000FC93EE93529749873D832E839A83898355
:100840007894E7D4F80166877787808B918B299617
:100850000FB6F894DEBF0FBECDBFDF91CF911F91D1
:100860000F91FF90EF90DF90CF900895CF92DF929D
:10087000EF92FF920F931F93CF93DF93EC01CA8007
:10088000DB80EC80FD80EAD46C157D058E059F052C
:1008900008F49CC08A859B858130910509F446C087
:1008A0008230910509F46FC0892B09F08FC008854B
:1008B0001985F801628170E02FEF3FEF4FEF50E0B4
:1008C000838594856FDEF801638170E02FEF3FEF41
:1008D0004FEF50E08385948565DEE884F9848701D5
:1008E0000C5F1F4F6701FAE0CF0ED11CF801619138
:1008F0008F0170E020EF30EF4FEF50E0F70183857C
:10090000948550DE0C151D0589F7E885F9858385EA
:100910009485E3DE82E090E09B878A879FD4DC01A8
:10092000CB01845D9E4FAF4FBF4F4CC088859985EA
:10093000D8D7082F8885998559D6182FE885F98545
:1009400083859485CADE61E089E2E3D287D4DC0145
:10095000CB010596A11DB11D8A839B83AC83BD830A
:100960002E813F81215031093F832E83100F71F575
:1009700082E090E09B878A8771D4DC01CB010596E9
:10098000A11DB11D1FC088859985ABD7082F88850B
:1009900099852CD6182FE885F985838594859DDE69
:1009A0005DD4DC01CB010596A11DB11D8A839B831B
:1009B000AC83BD83100F51F451D4DC01CB01945AA8
:1009C000A94DBA4F8A839B83AC83BD83DF91CF91BE
:1009D0001F910F91FF90EF90DF90CF9008958F922D
:1009E0009F92AF92BF92CF92DF92EF92FF920F93BE
:1009F0001F93CF93DF93EC018A809B80AC80BD80F6
:100A00002DD4681579058A059B0508F455C08A859B
:100A10009B85892B09F050C088849984A12CB12C26
:100A2000F40182819381FC0122813381A216B306F5
:100A300028F4B501C8D48B019C0103C000E010E08C
:100A40009801C12C80E7D82EE12CF12C47EE5FEF06
:100A50006CEE7FEF87EE9FEFCED69B01AC01B50128
:100A6000F401828193819EDDFFEFAF1ABF0A88E116
:100A7000A816B104A9F6E885F98584818F5F8831CD
:100A800010F4848301C01482648170E020ED30EDA5
:100A900040ED50E08281938185DDE885F985828192
:100AA00093811BDEDBD3DC01CB01C296A11DB11DFE
:100AB0008A839B83AC83BD83DF91CF911F910F917C
:100AC000FF90EF90DF90CF90BF90AF909F908F906E
:100AD0000895EF92FF920F931F93CF93DF93EC0152
:100AE0007B0188859985009711F00E947E119D8574
:100AF0008A85981719F084E090E002C083E090E0C6
:100B00008E9D80018F9D100D9E9D100D11241D83C3
:100B10000C83C8010E94E91099878887009741F0EB
:100B2000A80160E070E00E941A12FB82EA8204C011
:100B30001D821C821B821A82DF91CF911F910F911F
:100B4000FF90EF900895CF93DF93EC018E8187FDA6
:100B500005C061E05BD260E08E81DBD181E08983FA
:100B6000DF91CF9108950895089508950895089507
:100B700008950895FC017187608770D34AE0C6D557
:100B800087E393E0C2D583E692E0BFD580E2FDD54E
:100B90008BE393E0BAD586E593E0B7D58AE190E0A0
:100BA000FFD588E593E0B1D58EEE93E0A2C5CF9353
:100BB000DF93EC018A85833009F445C0C8F48130A5
:100BC00081F1823009F066C088E08D8780E28E87EF
:100BD0008DE08A838EE08B838AE08C838BE08D832B
:100BE0008CE08E838FE08F8380E1888781E151C024
:100BF0008430E9F1853009F04DC08BE08D8783E2C8
:100C00008E878BE28A838CE28B8388E28C8389E2F5
:100C10008D838AE28E838DE28F838EE288878FE2D6
:100C200038C097E09D872FE12E8723E02A8324E0B8
:100C30002B831C828D8382E08E8385E08F8386E008
:100C40008887998727C089E08D8781E28E8787E131
:100C50008A8388E18B8384E18C8385E18D8386E1BF
:100C60008E8389E18F838AE188878BE112C08AE0D5
:100C70008D8782E28E8791E29A838B838EE18C83CB
:100C80008FE18D8380E28E8383E28F8384E2888785
:100C900085E2898761E08D85B9D162E08E85DF913B
:100CA000CF91B4C1CF92DF92EF92FF920F931F9337
:100CB000CF93DF936C017A018B01C0E0D0E0CE15B9
:100CC000DF0589F0D8016D918D01D601ED91FC9180
:100CD0000190F081E02DC6011995892B11F47E0158
:100CE00002C02196ECCFC701DF91CF911F910F91E8
:100CF000FF90EF90DF90CF900895089580E090E00E
:100D00000895FC01538D448D252F30E0842F90E011
:100D1000821B930B541710F0CF96089501970895F6
:100D2000FC01918D828D981761F0828DDF01A80FF3
:100D3000B11D5D968C91928D9F5F9F73928F90E015
:100D400008958FEF9FEF0895FC01918D828D981784
:100D500031F0828DE80FF11D858D90E008958FEFC1
:100D60009FEF0895FC01918D228D892F90E0805C8A
:100D70009F4F821B91098F73992708958EE494E009
:100D8000F1DF21E0892B09F420E0822F0895FC0196
:100D9000848DDF01A80FB11DA35ABF4F2C91848D04
:100DA00090E001968F739927848FA689B7892C9339
:100DB000A089B1898C9180648C93938D848D9813D4
:100DC00006C00288F389E02D80818F7D808308959D
:100DD000EF92FF920F931F93CF93DF93EC0181E08B
:100DE000888F9B8D8C8D981305C0E889F989808147
:100DF00085FD23C0F62E0B8D10E00F5F1F4F0F7384
:100E00001127E02E8C8DE8120BC00FB607FCFACF2D
:100E1000E889F989808185FFF5CFCE01B8DFF2CF6F
:100E20008B8DFE01E80FF11DE35AFF4FF0820B8F0F
:100E3000EA89FB898081806207C0EE89FF8960832F
:100E4000E889F98980818064808381E090E0DF9186
:100E5000CF911F910F91FF90EF900895CF93DF9363
:100E6000EC01888D8823C1F0EA89FB89808185FDAA
:100E700005C0A889B9898C9186FD0EC00FB607FC04
:100E8000F5CF808185FFF2CFA889B9898C9185FF44
:100E9000EDCFCE017CDFE8CFDF91CF91089580E0E8
:100EA00090E0892B19F06ADF811125C080E090E085
:100EB000892B41F080E090E0892B21F00E94000016
:100EC00081111CC080E090E0892B41F080E090E02F
:100ED000892B21F00E940000811113C080E090E076
:100EE000892BA1F080E090E0892B81F00E94000026
:100EF00081110AC008950E940000D8CF0E9400000E
:100F0000E1CF0E940000EACF0C94000008950E94F7
:100F10001612362F90E0FC01E451FE4F4491FC0183
:100F2000EA55FE4F2491FC01E05AFE4F949199231B
:100F300009F46BC0442309F455C050E0FA0131971D
:100F4000E231F10508F04EC08827EE58FF4F8F4F71
:100F50000C94E110809180008F7707C08091800011
:100F60008F7D03C080918000877F809380003AC08E
:100F700084B58F7702C084B58F7D84BD33C08091E6
:100F8000B0008F7703C08091B0008F7D8093B00058
:100F900029C0809190008F7707C0809190008F7D4D
:100FA00003C080919000877F809390001BC0809148
:100FB000A0008F7707C08091A0008F7D03C0809133
:100FC000A000877F8093A0000DC0809120018F77C3
:100FD00007C0809120018F7D03C080912001877F11
:100FE00080932001E92FF0E0EE0FFF1FEA5BFE4F38
:100FF000A591B4918FB7F894EC91311103C020956D
:101000002E2301C02E2B2C938FBF0895CF93DF93F7
:1010100090E0FC01EA55FE4F2491FC01E05AFE4F9E
:101020008491882361F190E0880F991FFC01E45DB1
:10103000FE4FC591D491FC01EA5BFE4FA591B4919E
:10104000611109C09FB7F894888120958223888315
:10105000EC912E230BC0623061F49FB7F894388175
:10106000822F809583238883EC912E2B2C939FBF16
:1010700006C08FB7F894E8812E2B28838FBFDF91AD
:10108000CF9108951F93CF93DF93182FEB0161E069
:10109000BDDF209711F460E004C0CF3FD10531F4EB
:1010A00061E0812FDF91CF911F9133CFE12FF0E0ED
:1010B000E451FE4FE4914E2F50E0FA013197E231B6
:1010C000F10508F09DC08827EC57FF4F8F4F0C9417
:1010D000E11084B5806884BDC7BD97C084B58062C7
:1010E00084BDC8BD92C080918000806880938000DC
:1010F000D0938900C093880088C08091800080626E
:1011000080938000D0938B00C0938A007EC0809132
:101110008000886080938000D0938D00C0938C0005
:1011200074C08091B00080688093B000C093B30019
:101130006CC08091B00080628093B000C093B40016
:1011400064C080919000806880939000D093990053
:10115000C09398005AC08091900080628093900064
:10116000D0939B00C0939A0050C0809190008860FB
:1011700080939000D0939D00C0939C0046C08091C6
:10118000A00080688093A0008091A0008F7B809356
:10119000A000D093A900C093A80037C08091A00000
:1011A00080628093A000D093AB00C093AA002DC0B2
:1011B0008091A00088608093A000D093AD00C09380
:1011C000AC0023C080912001806880932001D093DF
:1011D0002901C093280119C0809120018062809369
:1011E0002001D0932B01C0932A010FC080912001D0
:1011F000886080932001D0932D01C0932C0105C0FD
:10120000C038D1050CF04CCF46CFDF91CF911F9164
:1012100008953FB7F89480914A0490914B04A091AF
:101220004C04B0914D0426B5A89B05C02F3F19F082
:101230000196A11DB11D3FBFBA2FA92F982F882756
:10124000820F911DA11DB11DBC01CD0142E0660FB1
:10125000771F881F991F4A95D1F708952FB7F894E3
:10126000609146047091470480914804909149042C
:101270002FBF08951F920F920FB60F9211242F9334
:101280003F938F939F93AF93BF9380914604909128
:101290004704A0914804B09149043091450423E0EB
:1012A000230F2D3720F40196A11DB11D05C026E89E
:1012B000230F0296A11DB11D20934504809346047F
:1012C00090934704A0934804B093490480914A0442
:1012D00090914B04A0914C04B0914D040196A11D36
:1012E000B11D80934A0490934B04A0934C04B09397
:1012F0004D04BF91AF919F918F913F912F910F908E
:101300000FBE0F901F9018951F920F920FB60F925D
:1013100011240BB60F922F933F934F935F936F93CC
:101320007F938F939F93AF93BF93EF93FF938EE43D
:1013300094E02DDDFF91EF91BF91AF919F918F913F
:101340007F916F915F914F913F912F910F900BBEC5
:101350000F900FBE0F901F9018951F920F920FB60F
:101360000F9211240BB60F922F938F939F93EF93AD
:10137000FF93E0915E04F0915F048081E09164044A
:10138000F091650482FD12C09081809167048F5FA7
:101390008F7320916804821751F0E0916704F0E0A8
:1013A000E25BFB4F958F8093670401C08081FF91C2
:1013B000EF919F918F912F910F900BBE0F900FBEC9
:1013C0000F901F9018954F925F926F927F928F921D
:1013D0009F92AF92BF92CF92DF92EF92FF920F93C4
:1013E0001F93CF93DF93DC011D968C911D971A9666
:1013F000EC901A971896ED91FC91199717968C908E
:101400001797482F50E01B961C911B971C960C9128
:10141000EB018E1161C0CC0FDD1FC60FD71FCE0FA1
:10142000DF1F882009F440C0912CA12CB12CFE01B3
:10143000E40FF51F608170E0762F6627072E000C01
:10144000880B990BA50194018BD6390155244424AE
:10145000FE01E10FF11D608170E0762F6627072EF7
:10146000000C880B990BA50194017AD6B42FA32FF9
:10147000922F882773016201C82AD92AEA2AFB2AF7
:10148000C00FD11D688170E0762F6627072E000CF3
:10149000880B990BA501940163D6C701B601622B95
:1014A000732B842B952B91C0FE01E40FF51F208137
:1014B000FE01E10FF11D6081862F90E0A0E0B0E019
:1014C000BA2FA92F982F8827A22BC00FD11D2881B2
:1014D000BC01CD01622B79C0CC0FDD1FCC0FDD1F0D
:1014E000CE0FDF1FF12C882009F454C0912CA12CC1
:1014F000B12CFE01E40FF51F608170E0762F6627A6
:10150000072E000C880B990BA501940129D6722E89
:10151000662455244424FE01EE0DFF1D608170E019
:10152000762F6627072E000C880B990BA5019401D6
:1015300017D67901DD24CC24C428D528E628F7283D
:10154000FE01E00FF11D608170E0762F6627072E07
:10155000000C880B990BA501940102D6C22AD32A4C
:10156000E42AF52AC10FD11D688170E0762F662725
:10157000072E000C880B990BA5019401F1D5B42F0F
:10158000A32F922F8827BC01CD016C297D298E299C
:101590009F291BC0FE01E40FF51F2081FE01EE0D07
:1015A000FF1D6081862F90E0A0E0B0E0DC0199276C
:1015B0008827B22BFE01E00FF11D2081822BC10F85
:1015C000D11D2881BC01CD01722BDF91CF911F91DC
:1015D0000F91FF90EF90DF90CF90BF90AF909F90D2
:1015E0008F907F906F905F904F9008952F923F92D1
:1015F0004F925F926F927F928F929F92AF92BF9223
:10160000CF92DF92EF92FF920F931F93CF93DF93CE
:1016100000D0CDB7DEB75C0104969B838A831501A9
:101620009AE0290E311C19828A809B80F401608126
:1016300070E0F50183859485FC0122813381621776
:10164000730720F4C0DE2B013C0103C0412C512C58
:101650003201C12CD12C76019301820142EE5FEF61
:1016600062EE7FEF82EE9FEFC6D09B01AC01461683
:1016700057066806790611F0F1E0F9838A819B81AB
:1016800001969B838A83F4018081682F70E0F501C5
:10169000838594850E94D2028A819B81821593055D
:1016A00019F689810F900F900F90DF91CF911F91C4
:1016B0000F91FF90EF90DF90CF90BF90AF909F90F1
:1016C0008F907F906F905F904F903F902F900895F4
:1016D000009761F0FC0101900020E9F73197AF011C
:1016E000481B590BBC018EE494E0DCCA80E090E01A
:1016F0000895CF93DF93ECDFEC0180E394E0E8DF23
:101700008C0F9D1FDF91CF910895E2CF8F929F9212
:10171000AF92BF920F931F93CF93DF93CDB7DEB7F6
:10172000A1970FB6F894DEBF0FBECDBF19A242300D
:1017300008F44AE08E010F5D1F4F842E912CA12CDE
:10174000B12CA50194010CD5E62FB901CA010150B5
:101750001109EA3014F4E05D01C0E95CD801EC93B2
:10176000232B242B252B69F7C801B2DFA1960FB6D6
:10177000F894DEBF0FBECDBFDF91CF911F910F91C7
:10178000BF90AF909F908F900895E0914E04F0919C
:101790004F040190F081E02D682F8EE494E01994BD
:1017A000CF92DF92EF92FF92CF93DF936C01990F6C
:1017B000EE08FF08F7FE15C08DE2E7DFEC016627B3
:1017C0007727CB016C197D098E099F094AE09EDFBE
:1017D0008C0F9D1FDF91CF91FF90EF90DF90CF9006
:1017E00008954AE0C701B601DF91CF91FF90EF90D5
:1017F000DF90CF908BCF6F927F928F929F92AF921C
:10180000BF92CF92DF92EF92FF920F931F93CF93ED
:10181000DF9338017724812E922EA32EBB24F4016E
:10182000FF27D601BB278D2C9E2CAF2CBB24540147
:10183000BB24CE2DD0E0820F911D8C179D073CF06C
:101840008F3F910529F024F08FEF90E001C0CE0189
:101850008F01060F171F0A151B053CF00F3F1105DE
:1018600029F024F00FEF10E001C08501460D571D4F
:101870004A175B073CF04F3F510529F024F04FEF2A
:1018800050E001C0AD01012E000C220B330B322FB2
:10189000212F102F0027092E000CAA0BBB0BDC01F7
:1018A00099278827802B912BA22BB32B052E000C78
:1018B000660B770B8C019D01042B152B262B372BE8
:1018C000C901B801DF91CF911F910F91FF90EF9067
:1018D000DF90CF90BF90AF909F908F907F906F9050
:1018E00008952F923F924F925F926F927F928F92C4
:1018F0009F92AF92BF92CF92DF92EF92FF920F939F
:101900001F93CF93DF9300D01F921F92CDB7DEB706
:101910004C011C0122E0220E311C04969B838A8319
:101920001982F10181911F01282F30E03D832C8322
:10193000F401A384B484F5018281938128173907C7
:1019400030F4B901C5013FDD2B013C0103C0412C3E
:10195000512C3201C12CD12C76019301820146EE2B
:101960005FEF66EE7FEF8CEE9FEF45DF9B01AC01F2
:10197000461657066806790611F0F1E0F9836C8186
:101980007D81C5010E94D2022A813B812216330645
:1019900041F689810F900F900F900F900F90DF917B
:1019A000CF911F910F91FF90EF90DF90CF90BF905C
:1019B000AF909F908F907F906F905F904F903F90EF
:1019C0002F90089585ED95E00E9457018AEE95E0ED
:1019D0000C945701789484B5826084BD84B581608D
:1019E00084BD85B5826085BD85B5816085BD8091EA
:1019F0006E00816080936E00109281008091810062
:101A00008260809381008091810081608093810059
:101A1000809180008160809380008091B10084601B
:101A20008093B1008091B00081608093B00080917C
:101A300091008260809391008091910081608093F9
:101A40009100809190008160809390008091A1002E
:101A500082608093A1008091A10081608093A100A9
:101A60008091A00081608093A0008091210182601C
:101A700080932101809121018160809321018091D7
:101A8000200181608093200180917A00846080939E
:101A90007A0080917A00826080937A0080917A0047
:101AA000816080937A0080917A00806880937A00C8
:101AB0001092C100E0915E04F0915F0412E0108387
:101AC000E0915A04F0915B041082E0915C04F09183
:101AD0005D048FEC808310926604E0916204F091C3
:101AE000630486E08083E0916004F091610480816A
:101AF00080618083E0916004F0916104808188605E
:101B00008083E0916004F09161048081806880832B
:101B1000E0916004F091610480818F7D808361E0B9
:101B20008DE074DA8AEE95E00ED88AEE95E00E9498
:101B30006D0385ED95E007D885ED95E00E946D0376
:101B400081E08093CF05CAEED5E0D093D105C09354
:101B5000D00585EC95E02BD81093BF05D093C10537
:101B6000C093C00585EB95E022D883E08093AF0554
:101B7000D093B105C093B00585EA95E018D884E00C
:101B800080939F05D093A105C093A00585E995E0BA
:101B90000ED885E080938F05D0939105C093900572
:101BA00085E895E004D885EC95E090934105809315
:101BB000400585EB95E0909335058093340585EAE3
:101BC00095E0909329058093280585E995E0909309
:101BD0001D0580931C0585E895E090931105809381
:101BE000100565EC75E088E795E00E94BA0565EBA5
:101BF00075E08BE695E00E94BA0565EA75E08EE532
:101C000095E00E94BA0565E975E081E595E00E94DE
:101C1000BA0565E875E084E495E00E94BA0583E0C2
:101C200095E025ED35E030930605209305051092EB
:101C300007059093F4048093F30490930005809338
:101C4000FF0488E795E090934404809343048BE677
:101C500095E090934204809341048EE595E0909343
:101C6000400480933F0481E595E090933E04809387
:101C70003D0484E495E090933C0480933B0487EF1B
:101C800094E090933A0480933904E0917805F091C0
:101C900079050480F581E02D88E795E0199580911C
:101CA000410490914204DC01ED91FC910480F581A6
:101CB000E02D199580913F0490914004DC01ED9155
:101CC000FC910480F581E02D199580913D0490915F
:101CD0003E04DC01ED91FC910480F581E02D199525
:101CE00080913B0490913C04DC01ED91FC910480D7
:101CF000F581E02D19958091390490913A04DC0129
:101D0000ED91FC910480F581E02D1995A7DA60939F
:101D10003504709336048093370490933804C8E3F5
:101D2000D5E00CE215E08091430490914404DC017D
:101D3000ED91FC910680F781E02D19958091410489
:101D400090914204DC01ED91FC910680F781E02D39
:101D5000199580913F0490914004DC01ED91FC9134
:101D60000680F781E02D199580913D0490913E0405
:101D7000DC01ED91FC910680F781E02D19958091B1
:101D80003B0490913C04DC01ED91FC910680F781CD
:101D9000E02D19958091390490913A04DC01ED9180
:101DA000FC910680F781E02D199558DAC090350432
:101DB000D0903604E0903704F0903804DC01CB0179
:101DC0008C199D09AE09BF0981309748A349B340DA
:101DD00008F44EC043DA4AE099DC87E393E095DCEF
:101DE00085EC92E092DC80E2D0DC8BE094E08DDC4C
:101DF00086E593E08ADC8EE890E0D2DC88E593E02B
:101E000084DC80E294E075DC29DA60933504709319
:101E10003604809337049093380480913404811100
:101E200014C061E08DE075D881E080933404109394
:101E3000420400934104E0912C05F0912D050480AB
:101E4000F581E02D8CE295E012C060E08DE061D874
:101E500010923404D0934404C0934304E0913805B5
:101E6000F09139050480F581E02D88E395E019951E
:101E700016D859CFCF93DF93EEE4F4E013821282A9
:101E800088EE93E0A0E0B0E084839583A683B783D7
:101E900085ED92E09183808385EC90E0958784873F
:101EA00084EC90E09787868780EC90E0918B808B24
:101EB00081EC90E0938B828B82EC90E0958B848B0D
:101EC00086EC90E0978B868B118E128E138E148E7B
:101ED000EAEEF5E0118217821186108616861786C3
:101EE000108A118A15861286C1E0C387D2E0D48792
:101EF000C08362E370E0CF010E94690566E18AEE6B
:101F000095E00E943E03E5EDF5E01182178211860F
:101F1000108616861786108A118AC587C28713868F
:101F2000D487C08368E170E0CF010E94690568E151
:101F300085ED95E00E943E0383E393E09093C60510
:101F40008093C5059093B6058093B5059093A6053B
:101F50008093A505909396058093950590938605AB
:101F600080938505E8E7F5E01282138214821582DA
:101F70008FE193E091838083EBE6F5E01282138298
:101F80001482158291838083EEE5F5E0128213823C
:101F90001482158291838083E1E5F5E01282138239
:101FA0001482158291838083E4E4F5E01282138227
:101FB0001482158291838083E8E3F5E01282138214
:101FC0001482158287E093E09183808313861286C2
:101FD000ECE2F5E0128213821482158291838083F1
:101FE00013861286E0E2F5E01282138214821582D3
:101FF0009183808313861286E4E1F5E012821382D6
:10200000148215829183808313861286E8E0F5E0BE
:102010001282138214821582918380831386128622
:102020008FEF92E09093040580930305E7EFF4E0CF
:10203000128213821482158283EF92E0918380834F
:10204000EBEEF4E0128213821482158287EE92E0A6
:102050009183808313861286DF91CF9108958F92AA
:102060009F92AF92BF92CF92DF92EF92FF92CF9367
:10207000DF93EC01688179818A819B81611571050B
:102080008105910521F464E279ED8BE597E02DE17E
:1020900033EF41E050E038D049015A019B01AC01D7
:1020A000A7EAB1E44DD06B017C01ACEEB4EFA50121
:1020B000940152D0DC01CB018C0D9D1DAE1DBF1DC6
:1020C000B7FF03C00197A109B04888839983AA8309
:1020D000BB83BC01CD019F77DF91CF91FF90EF9043
:1020E000DF90CF90BF90AF909F908F900895B7CF23
:1020F00080E092E0B4CF609300027093010280937D
:102100000202909303020895052E97FB16F40094A3
:102110000FD057FD05D024D007FC02D046F408C0EC
:1021200050954095309521953F4F4F4F5F4F089503
:1021300090958095709561957F4F8F4F9F4F089533
:1021400031D0A59F900DB49F900DA49F800D911D3F
:1021500011240895B7FFF4CFF3DF821B930B08958A
:10216000A1E21A2EAA1BBB1BFD010DC0AA1FBB1F9B
:10217000EE1FFF1FA217B307E407F50720F0A21B0D
:10218000B30BE40BF50B661F771F881F991F1A947A
:1021900069F760957095809590959B01AC01BD01A4
:1021A000CF010895A29FB001B39FC001A39F700DFE
:1021B000811D1124911DB29F700D811D1124911D4F
:1021C0000895EE0FFF1F881F8BBF0790F691E02D3B
:1021D0001994CF93DF938230910510F482E090E060
:1021E000E0910106F091020620E030E0C0E0D0E08E
:1021F000309711F14081518148175907C0F04817B5
:10220000590761F482819381209719F09B838A8317
:102210002BC0909302068093010626C0211531053C
:1022200019F04217530718F49A01BE01DF01EF01BC
:102230000280F381E02DDCCF2115310509F1281B47
:10224000390B2430310590F412968D919C9113979F
:102250006115710521F0FB019383828304C0909383
:10226000020680930106FD01329644C0FD01E20F93
:10227000F31F81939193225031092D933C933AC0DF
:102280002091FF0530910006232B41F42091060296
:1022900030910702309300062093FF05209104023D
:1022A000309105022115310541F42DB73EB740911B
:1022B000080250910902241B350BE091FF05F091B3
:1022C0000006E217F307A0F42E1B3F0B281739076F
:1022D00078F0AC014E5F5F4F2417350748F04E0F82
:1022E0005F1F509300064093FF058193919302C0B6
:1022F000E0E0F0E0CF01DF91CF9108950F931F93BD
:10230000CF93DF93009709F48CC0FC0132971382BE
:10231000128200910106109102060115110581F447
:1023200020813181820F931F2091FF05309100069B
:102330002817390779F5F0930006E093FF0571C07F
:10234000D80140E050E0AE17BF0750F412962D912F
:102350003C911397AD012115310509F1D901F3CF56
:102360009D01DA013383228360817181860F971F7B
:102370008217930769F4EC0128813981260F371FF2
:102380002E5F3F4F318320838A819B819383828399
:10239000452B29F4F0930206E093010642C0139600
:1023A000FC93EE931297ED01499159919E01240FF0
:1023B000351FE217F30771F480819181840F951F17
:1023C000029611969C938E938281938113969C938F
:1023D0008E931297E0E0F0E0D80112968D919C91D7
:1023E0001397009719F0F8018C01F6CF8D919C910D
:1023F00098012E5F3F4F820F931F2091FF05309170
:1024000000062817390769F4309729F4109202065C
:102410001092010602C013821282109300060093EC
:10242000FF05DF91CF911F910F91089581E090E01A
:10243000F89407C0DC0101C06D9341505040E0F7B3
:10244000089511E0CAE1D1E000E005C0802FFE014F
:10245000B8DE2196011DCB31D10780E00807B1F726
:04246000F894FFCF1E
:102464000100000000000306800076697274756143
:102474006C20766F6964204465617468537461727A
:102484004578706C6F64653A3A737461727453631F
:1024940065656E2829007669727475616C20766FA3
:1024A400696420446561746853746172506C617925
:1024B40047616D653A3A7374617274536365656E0E
:1024C400282900766F6964205469654669676874D1
:1024D4006572506C61797347616D653A3A6C696EE7
:1024E4006B466967687465722854696546696768EC
:1024F4007465722A29007669727475616C20766F2E
:1025040069642054696546696768746572506C61D2
:10251400797347616D653A3A737461727453636594
:10252400656E282900766F6964206C6F6F702829A6
:102534000000000000E806520681062E07B206904D
:1025440006A40600000000B9057601A8027801007F
:10255400000000B80574017E02EF0400000000B71B
:10256400056C0100000000B60570014D0136040041
:10257400000000000000008707870700000000B586
:10258400056E014B02790100000000B4056A0100E8
:10259400000000B30572013A5B20002E2E5C5469E2
:1025A4006546696768746572506C61797347616DDB
:1025B400652E637070003A005D2020005469654602
:1025C400696768746572506C61797347616D653AC7
:1025D4003A7374617274536365656E2829002E2EF4
:1025E4005C446561746853746172506C61794761CD
:1025F4006D652E6370700044656174685374617214
:10260400506C617947616D653A3A737461727453C1
:102614006365656E2829002E2E5C446561746853D9
:102624007461724578706C6F64652E6370700044D9
:1026340065617468537461724578706C6F64653A4F
:102644003A7374617274536365656E282900546922
:102654006546696768746572506C61797347616D2A
:10266400653A3A4C696E6B656420002E2E5C4465B5
:1026740061746853746172323031382E696E6F0040
:102684004B656570416C69766520666972656400A6
:042694000D0A00002B
:00000001FF
