:100000000C945E000C9486000C9486000C94860080
:100010000C9486000C9486000C9486000C94860048
:100020000C9486000C9486000C9486000C94860038
:100030000C9486000C9486000C9486000C94860028
:100040000C94E80B0C9486000C94B9010C94930169
:100050000C9486000C9486000C9486000C94860008
:100060000C9486000C9486000000000024002700F9
:100070002A0000000008000201000003040700003D
:10008000000000000000010204081020408001026E
:1000900004081020010204081020000000002500C0
:1000A00028002B00040404040404040402020202D5
:1000B00002020303030303035311320C11241FBE76
:1000C000CFEFD8E0DEBFCDBF15E0A0E0B1E0E2EEBB
:1000D000F6E202C005900D92A438B107D9F726E0E8
:1000E000A4E8B5E001C01D92A136B207E1F710E027
:1000F000CDE5D0E004C02197FE010E942C12CC3542
:10010000D107C9F70E94420C0C9464130C940000B0
:10011000089580E090E00895FC01538D448D252FD3
:1001200030E0842F90E0821B930B541710F0CF9691
:10013000089501970895FC01918D828D981761F0C3
:10014000828DDF01A80FB11D5D968C91928D9F5F0E
:100150009F73928F90E008958FEF9FEF0895FC01B9
:10016000918D828D981731F0828DE80FF11D858D6C
:1001700090E008958FEF9FEF0895FC01918D228DFF
:10018000892F90E0805C9F4F821B91098F73992784
:100190000895FC01848DDF01A80FB11DA35ABF4F44
:1001A0002C91848D90E001968F739927848FA68976
:1001B000B7892C93A089B1898C9180648C93938D9D
:1001C000848D981306C00288F389E02D80818F7D8D
:1001D00080830895EF92FF920F931F93CF93DF9345
:1001E000EC0181E0888F9B8D8C8D981305C0E88988
:1001F000F989808185FD24C0F62E0B8D10E00F5FFC
:100200001F4F0F731127E02E8C8DE8120CC00FB614
:1002100007FCFACFE889F989808185FFF5CFCE0107
:100220000E94C900F1CF8B8DFE01E80FF11DE35A4A
:10023000FF4FF0820B8FEA89FB898081806207C0C3
:10024000EE89FF896083E889F989808180648083F1
:1002500081E090E0DF91CF911F910F91FF90EF909F
:100260000895CF93DF93EC01888D8823C9F0EA8944
:10027000FB89808185FD05C0A889B9898C9186FD9F
:100280000FC00FB607FCF5CF808185FFF2CFA8899C
:10029000B9898C9185FFEDCFCE010E94C900E7CFCF
:1002A000DF91CF91089580E090E0892B29F00E94A2
:1002B000880781110C94000008950C94C7120C94C7
:1002C000C7120C94C712FC01138612861282138285
:1002D000148215820E94DC0B4AE050E00E945B0809
:1002E0008EEF92E00E947D0886E091E00E947D08FA
:1002F00080E20E947F0882E093E00E947D088BE10B
:1003000093E00E947D0888E290E00E948A088DE1D7
:1003100093E00E947D0881E293E00E94080A61E078
:1003200085E10C942F0B1F920F920FB60F921124A0
:100330002F933F934F935F936F937F938F939F93ED
:10034000AF93BF93EF93FF938DE895E00E94C900B0
:10035000FF91EF91BF91AF919F918F917F916F919D
:100360005F914F913F912F910F900FBE0F901F9073
:1003700018951F920F920FB60F9211242F938F93FF
:100380009F93EF93FF93E0919D05F0919E058081EF
:10039000E091A305F091A40582FD12C090818091A7
:1003A000A6058F5F8F732091A705821751F0E0910A
:1003B000A605F0E0E357FA4F958F8093A60501C09C
:1003C0008081FF91EF919F918F912F910F900FBEA0
:1003D0000F901F9018954F925F926F927F928F921D
:1003E0009F92AF92BF92CF92DF92EF92FF920F93C4
:1003F0001F93CF93DF93DC011D968C911D971A9666
:10040000EC901A971896ED91FC91199717968C908D
:100410001797482F50E01B961C911B971C960C9128
:10042000EB018E1164C0CC0FDD1FC60FD71FCE0F9E
:10043000DF1F882009F443C0912CA12CB12CFE01B0
:10044000E40FF51F608170E0762F6627072E000C01
:10045000880B990BA50194010E940A1239015524B9
:100460004424FE01E10FF11D608170E0762F6627C4
:10047000072E000C880B990BA50194010E940A120B
:10048000B42FA32F922F882773016201C82AD92A7B
:10049000EA2AFB2AC00FD11D688170E0762F6627FB
:1004A000072E000C880B990BA50194010E940A12DB
:1004B000C701B601622B732B842B952B95C0FE01CF
:1004C000E40FF51F2081FE01E10FF11D6081862FF1
:1004D00090E0A0E0B0E0BA2FA92F982F8827A22B98
:1004E000C00FD11D2881BC01CD01622B7DC0CC0F76
:1004F000DD1FCC0FDD1FCE0FDF1FF12C882009F48C
:1005000058C0912CA12CB12CFE01E40FF51F608185
:1005100070E0762F6627072E000C880B990BA5013B
:1005200094010E940A12722E662455244424FE016E
:10053000EE0DFF1D608170E0762F6627072E000C00
:10054000880B990BA50194010E940A127901DD2400
:10055000CC24C428D528E628F728FE01E00FF11D99
:10056000608170E0762F6627072E000C880B990BB0
:10057000A50194010E940A12C22AD32AE42AF52A6C
:10058000C10FD11D688170E0762F6627072E000C01
:10059000880B990BA50194010E940A12B42FA32F76
:1005A000922F8827BC01CD016C297D298E299F2996
:1005B0001BC0FE01E40FF51F2081FE01EE0DFF1DA3
:1005C0006081862F90E0A0E0B0E0DC0199278827C9
:1005D000B22BFE01E00FF11D2081822BC10FD11D36
:1005E0002881BC01CD01722BDF91CF911F910F911A
:1005F000FF90EF90DF90CF90BF90AF909F908F9043
:100600007F906F905F904F900895CF92DF92EF921E
:10061000FF920F931F93CF93DF93CDB7DEB7299748
:100620000FB6F894DEBF0FBECDBF8C010E94B70B92
:10063000D8011E96CD90DD90ED90FC905197DC0195
:10064000CB018C199D09AE09BF098C329140A105DF
:10065000B10560F3F894D80114968D919C9115978B
:100660009A8389831896ED91FC9119977F01BFEFCA
:10067000EB1AFB0A80818B83F80190810288F38951
:10068000E02DD80154968C91992309F430C09081C3
:10069000982B9C839081809589238D838D818E8377
:1006A00088E08F835C816D814B813F812E818981C0
:1006B0009A81D701508347FD252F3A952083262F15
:1006C00039F0441F00C000006083000000C0F2CF7A
:1006D00038E04D9160830000019761F7D80153968F
:1006E000FC93EE9352974B833F832E833AC09081C5
:1006F000982B9C839081809589238D838D81888719
:1007000088E089875C816D814B8139852885898165
:100710009A81D701508347FD252F00C000C0208358
:1007200000C000C000C000C000C060830000262FD1
:100730003A9541F0441F000000C000C000C000C056
:1007400000C0E8CF38E04D9100C0608300C0019741
:1007500009F7D8015396FC93EE9352974B83398750
:1007600028879A83898378940E94B70BF80166875B
:100770007787808B918B29960FB6F894DEBF0FBEDA
:10078000CDBFDF91CF911F910F91FF90EF90DF9040
:10079000CF9008958F929F92AF92BF92CF92DF92A7
:1007A000EF92FF920F931F93CF93DF93FC0182810F
:1007B00093816817790708F04CC04A01AA24BB242A
:1007C000B82DC32ED42EE52EFF24AC2D922F878179
:1007D000882361F0889E40011124B92DC89E6001D4
:1007E0001124AD2D289FE00111249D2FD584C285B1
:1007F000E084F184DC1208C09B01220F331F620FDA
:10080000731F6E0D7F1D16C0660F771F660F771F53
:100810006E0D7F1D052F112722273327EB01CD0DEC
:10082000D11D882329F0089F90011124232F01C096
:10083000202F28838285EB01C80FD11DB8838385C3
:10084000EB01C80FD11DA8838485FB01E80FF11DC2
:100850009083DF91CF911F910F91FF90EF90DF90E8
:10086000CF90BF90AF909F908F900895AF92BF921E
:10087000CF92DF92EF92FF920F931F93CF93DF936C
:10088000EC01CA80DB80EC80FD800E94DC0B6C15E3
:100890007D058E059F0508F400C30E94DC0B4AE02D
:1008A00050E00E945B088EEF92E00E947D0888E095
:1008B00092E00E947D0880E20E947F0882E093E03F
:1008C0000E947D088BE193E00E947D088BE390E01D
:1008D0000E948A088DE193E00E947D0881E493E004
:1008E0000E94080A8A859B858130910509F490C190
:1008F0008230910509F4FDC1892B09F0CEC20E9416
:10090000DC0B4AE050E00E945B088EEF92E00E9410
:100910007D088FED91E00E947D0880E20E947F08B3
:1009200082E093E00E947D088BE193E00E947D08C5
:1009300087E590E00E948A088DE193E00E947D089F
:100940008AE593E00E94080AE884F98487010E5F33
:100950001F4F670184E0C80ED11C5801F801619156
:100960008F0170E02FEF3FEF4FEF50E0F7018385ED
:1009700094850E94CA030E94DC0B4AE050E00E946A
:100980005B088EEF92E00E947D0881E891E00E9472
:100990007D0880E20E947F088EE793E00E947D0838
:1009A0008BE193E00E947D088AEB90E00E948A0828
:1009B0008DE193E00E947D0880E993E00E947D082C
:1009C0008EE193E00E947D086AE070E0F50180818D
:1009D0000E946A080E94DC0B4AE050E00E945B081B
:1009E0008EEF92E00E947D0881E891E00E947D08F0
:1009F00080E20E947F088EE793E00E947D088BE1F1
:100A000093E00E947D088BEB90E00E948A088DE1C4
:100A100093E00E947D088BEB93E00E947D088EE1BD
:100A200093E00E947D0840E150E06FEF7FEF8FEF91
:100A300090E00E94160A0C151D0509F08ECFC8849F
:100A4000D9847601F4E0EF0EF11C00E010E05701CC
:100A5000F70161917F0170E020EF30EF4FEF50E040
:100A6000F601838594850E94CA030E94DC0B4AE04C
:100A700050E00E945B088EEF92E00E947D0880EBC0
:100A800091E00E947D0880E20E947F088EE793E05B
:100A90000E947D088BE193E00E947D0889EC90E044
:100AA0000E948A088DE193E00E947D0884EC93E027
:100AB0000E94080A0E94DC0B4AE050E00E945B089A
:100AC0008EEF92E00E947D0880EB91E00E947D080D
:100AD00080E20E947F088EE793E00E947D088BE110
:100AE00093E00E947D088AEC90E00E948A088DE1E4
:100AF00093E00E947D0886EE93E00E947D088EE1DF
:100B000093E00E947D08C8010E94240A0E94DC0B29
:100B10004AE050E00E945B088EEF92E00E947D0860
:100B200080EB91E00E947D0880E20E947F088EE7C2
:100B300093E00E947D088BE193E00E947D088BEC9E
:100B400090E00E948A088DE193E00E947D088AE08F
:100B500094E00E947D088EE193E00E947D086AE0A7
:100B600070E0F50180810E946A080E94DC0B4AE077
:100B700050E00E945B088EEF92E00E947D0880EBBF
:100B800091E00E947D0880E20E947F088EE793E05A
:100B90000E947D088BE193E00E947D088CEC90E040
:100BA0000E948A088DE193E00E947D088BEB93E020
:100BB0000E947D088EE193E00E947D0840E150E0B4
:100BC00060EF70EF8FEF90E00E94160A0F5F1F4FEB
:100BD0000630110509F03BCFE885F98583859485BA
:100BE000FC0120853185232B11F00E94050381E053
:100BF00090E09B878A8784E690E09F838E830E94A3
:100C0000DC0BDC01CB01845D9E4FAF4FBF4F41C178
:100C10008E819F811816190684F082E090E09B87F0
:100C20008A8784E690E09F838E830E94DC0BDC0140
:100C3000CB014496A11DB11D2CC10E94DC0B4AE0E2
:100C400050E00E945B088EEF92E00E947D088BE5E9
:100C500091E00E947D0880E20E947F0882E093E09C
:100C60000E947D088BE193E00E947D0889E790E077
:100C70000E948A088DE193E00E947D0885E394E05C
:100C80000E94080A40E050E06FEF70E08885998587
:100C90000E94550AE12CF12C00E810E024EC3FEF13
:100CA00044EC5FEF64EC7FEF888599850E94BC0A75
:100CB000E885F98583859485FC0120853185232B82
:100CC00011F00E94050361E085E10E942F0B0E9454
:100CD000DC0BDC01CB01805B9F4FAF4FBF4F8A83A2
:100CE0009B83AC83BD838E819F8101979F838E837D
:100CF000D4C00E94DC0B4AE050E00E945B088EEFFB
:100D000092E00E947D0883E391E00E947D0880E2EA
:100D10000E947F0882E093E00E947D088BE193E0CF
:100D20000E947D0886E890E00E948A088DE193E0A9
:100D30000E947D088FE594E00E94080A0E94DC0B67
:100D40004AE050E00E945B088EEF92E00E947D082E
:100D500083E391E00E947D0880E20E947F0882E0A8
:100D600093E00E947D088BE193E00E947D0887E874
:100D700090E00E948A088DE193E00E947D0882E85D
:100D800094E00E947D088EE193E00E947D088E81B0
:100D90009F810E94240A8E819F81181619066CF18A
:100DA0000E94DC0B4AE050E00E945B088EEF92E06C
:100DB0000E947D0883E391E00E947D0880E20E940A
:100DC0007F0882E093E00E947D088BE193E00E941F
:100DD0007D088AE890E00E948A088DE193E00E94F5
:100DE0007D0885E994E00E94080A0E94DC0BDC0182
:100DF000CB01945AA94DBA4F4CC00E94DC0B4AE07B
:100E000050E00E945B088EEF92E00E947D0883E331
:100E100091E00E947D0880E20E947F0882E093E0DA
:100E20000E947D088BE193E00E947D088EE890E0AF
:100E30000E948A088DE193E00E947D0887EB94E090
:100E40000E94080A40E050E0BA01888599850E9416
:100E5000550AE12CF12C870122EE3FEF42EE5FEFC5
:100E600062EE7FEF888599850E94BC0AE885F98546
:100E700083859485FC0120853185232B11F00E9408
:100E800005030E94DC0BDC01CB01805B9F4FAF4F61
:100E9000BF4F8A839B83AC83BD83DF91CF911F912A
:100EA0000F91FF90EF90DF90CF90BF90AF9008959B
:100EB000089508950895CF92DF92EF92FF920F93D5
:100EC0001F93CF93DF936C017A018B01C0E0D0E0D8
:100ED000CE15DF0589F0D8016D918D01D601ED9118
:100EE000FC910190F081E02DC6010995892B11F448
:100EF0007E0102C02196ECCFC701DF91CF911F91F7
:100F00000F91FF90EF90DF90CF9008950E945F13B4
:100F10008DE895E00E94BD0021E0892B09F420E0D6
:100F2000822F08956F927F928F929F92AF92BF927D
:100F3000CF92DF92EF92FF920F931F93CF93DF93A5
:100F400038017724812E922EA32EBB24F401FF2793
:100F5000D601BB278D2C9E2CAF2CBB245401BB2467
:100F6000CE2DD0E0820F911D8C179D073CF08F3F56
:100F7000910529F024F08FEF90E001C0CE018F01A0
:100F8000060F171F0A151B053CF00F3F110529F02E
:100F900024F00FEF10E001C08501460D571D4A17E0
:100FA0005B073CF04F3F510529F024F04FEF50E034
:100FB00001C0AD01012E000C220B330B322F212F6B
:100FC000102F0027092E000CAA0BBB0BDC01992760
:100FD0008827802B912BA22BB32B052E000C660BA0
:100FE000770B8C019D01042B152B262B372BC90168
:100FF000B801DF91CF911F910F91FF90EF90DF909B
:10100000CF90BF90AF909F908F907F906F900895FA
:10101000009769F0FC0101900020E9F73197AF01DA
:10102000481B590BBC018DE895E00C945B0780E0F0
:1010300090E008958F929F92AF92BF920F931F936B
:10104000CF93DF93CDB7DEB7A1970FB6F894DEBF8D
:101050000FBECDBF19A2423008F44AE08E010F5DE9
:101060001F4F842E912CA12CB12CA50194010E941C
:101070000A12E62FB901CA0101501109EA3014F42D
:10108000E05D01C0E95CD801EC93232B242B252BD8
:1010900061F7C8010E940808A1960FB6F894DEBF58
:1010A0000FBECDBFDF91CF911F910F91BF90AF9039
:1010B0009F908F9008954115510551F4E0918D0551
:1010C000F0918E050190F081E02D8DE895E0099476
:1010D0000C941A08CF93DF93AB01682F70E080E087
:1010E00090E00E945B08EC018AE695E00E94080807
:1010F0008C0F9D1FDF91CF9108950C940808E0910B
:101100008D05F0918E050190F081E02D682F8DE81E
:1011100095E00994CF92DF92EF92FF92CF93DF9305
:101120006C01990FEE08FF08F7FE17C08DE20E94D0
:101130007F08EC0166277727CB016C197D098E09A2
:101140009F094AE00E941A088C0F9D1FDF91CF91E2
:10115000FF90EF90DF90CF9008954AE0C701B6016D
:10116000DF91CF91FF90EF90DF90CF900C941A0811
:101170001F93CF93DF93182FC6E3D6E0E82FF0E05C
:10118000EA5CF94F64830E94DC0B4AE050E00E9465
:101190005B088EEF92E00E947D0880E992E00E9459
:1011A0007D0880E20E947F088EE793E00E947D0820
:1011B0008BE193E00E947D088FE690E00E948A0810
:1011C0008DE193E00E947D088DE695E00E947D0808
:1011D0008EE193E00E947D086AE070E0812F0E941A
:1011E0006A080E94DC0B4AE050E00E945B088EEF28
:1011F00092E00E947D0880E992E00E947D0880E2F2
:101200000E947F088EE793E00E947D088BE193E0C7
:101210000E947D0880E790E00E948A088DE193E0BB
:101220000E947D0880E090E00E948A088EE193E0B1
:101230000E947D0860E170E08C810E946A080E9433
:10124000DC0B4AE050E00E945B088EEF92E00E94C7
:101250007D0880E992E00E947D0880E20E947F087C
:101260008EE793E00E947D088BE193E00E947D0869
:1012700081E790E00E948A088DE193E00E947D085A
:1012800081E090E00E948A088EE193E00E947D0850
:1012900060E170E08D810E946A080E94DC0B4AE0E8
:1012A00050E00E945B088EEF92E00E947D0880E98A
:1012B00092E00E947D0880E20E947F088EE793E022
:1012C0000E947D088BE193E00E947D0882E790E018
:1012D0000E948A088DE193E00E947D0882E090E000
:1012E0000E948A088EE193E00E947D0860E170E030
:1012F0008E810E946A080E94DC0B4AE050E00E9446
:101300005B088EEF92E00E947D0880E992E00E94E7
:101310007D0880E20E947F088EE793E00E947D08AE
:101320008BE193E00E947D0883E790E00E948A08A9
:101330008DE193E00E947D0883E090E00E948A089E
:101340008EE193E00E947D0860E170E08F810E9451
:101350006A080E94DC0B4AE050E00E945B088EEFB6
:1013600092E00E947D0880E992E00E947D0880E280
:101370000E947F088EE793E00E947D088BE193E056
:101380000E947D0884E790E00E948A088DE193E046
:101390000E947D0884E090E00E948A088EE193E03C
:1013A0000E947D0860E170E088850E946A080E94C2
:1013B000DC0B4AE050E00E945B088EEF92E00E9456
:1013C0007D0880E992E00E947D0880E20E947F080B
:1013D0008EE793E00E947D088BE193E00E947D08F8
:1013E00085E790E00E948A088DE193E00E947D08E5
:1013F00085E090E00E948A088EE193E00E947D08DB
:1014000060E170E08985DF91CF911F910C946A08AB
:10141000CF93DF930E940808EC018AE695E00E94D2
:1014200008088C0F9D1FDF91CF910895CF93DF9314
:101430000E945B08EC018AE695E00E9408088C0F88
:101440009D1FDF91CF910895CF92DF92EF92FF928F
:10145000CF93DF936C01990FEE08FF08F7FE12C0DF
:101460008DE20E947F08EC0166277727CB016C197B
:101470007D098E099F094AE00E941A087C01EC0E42
:10148000FD1E06C04AE0C701B6010E941A087C0191
:101490008AE695E00E9408088E0D9F1DDF91CF918E
:1014A000FF90EF90DF90CF9008952F923F924F9250
:1014B0005F926F927F928F929F92AF92BF92CF92E4
:1014C000DF92EF92FF920F931F93CF93DF9300D0A1
:1014D00000D0CDB7DEB74C012A013B011C0122E050
:1014E000220E311C04969A838983F10181911F0198
:1014F000282F30E03C832B83F401A384B484F501CE
:10150000828193812817390738F4B901C5010E94F7
:10151000EB018B019C0103C000E010E09801730116
:1015200062014CEE5FEF6CEE7FEF8CEE9FEF0E945E
:1015300092079B01AC016B817C81C5010E94CA03AB
:1015400029813A812216330681F60F900F900F9071
:101550000F90DF91CF911F910F91FF90EF90DF904F
:10156000CF90BF90AF909F908F907F906F905F9043
:101570004F903F902F9008952F923F924F925F92FD
:101580006F927F928F929F92AF92BF92CF92DF9293
:10159000EF92FF920F931F93CF93DF93CDB7DEB7F8
:1015A0002A970FB6F894DEBF0FBECDBF4C017C83E7
:1015B0006B835E834D8338872F83270138011C019D
:1015C00024E0220E311C0A969A838983F1018191CD
:1015D0001F01282F30E03A872987F401A384B484BF
:1015E000F501828193812817390738F4B901C501C3
:1015F0000E94EB018B019C0103C000E010E0980108
:10160000730162014F8158856D817E818B819C8140
:101610000E9492079B01AC0169857A85C5010E94F1
:10162000CA0329813A812216330681F62A960FB61B
:10163000F894DEBF0FBECDBFDF91CF911F910F9108
:10164000FF90EF90DF90CF90BF90AF909F908F90E2
:101650007F906F905F904F903F902F90089590E013
:10166000FC01EE58FF4F3491FC01EA57FF4F2491E3
:10167000FC01EC55FF4FE491EE2309F43BC033230A
:1016800039F1333091F038F43130A9F0323001F5CE
:1016900084B58F7D12C0373091F03830A1F03430EE
:1016A000B9F4809180008F7D03C0809180008F7796
:1016B000809380000DC084B58F7784BD09C0809170
:1016C000B0008F7703C08091B0008F7D8093B00011
:1016D000F0E0EE0FFF1FE656FF4FA591B4918FB7D4
:1016E000F894EC91611103C020952E2301C02E2B9C
:1016F0002C938FBF0895CF93DF9390E0FC01EA57BE
:10170000FF4F2491FC01EC55FF4F8491882361F138
:1017100090E0880F991FFC01E859FF4FC591D491C3
:10172000FC01E656FF4FA591B491611109C09FB726
:10173000F8948881209582238883EC912E230BC016
:10174000623061F49FB7F8943881822F80958323AB
:101750008883EC912E2B2C939FBF06C08FB7F894F3
:10176000E8812E2B28838FBFDF91CF9108953FB75B
:10177000F8948091890590918A05A0918B05B0918C
:101780008C0526B5A89B05C02F3F19F00196A11D19
:10179000B11D3FBFBA2FA92F982F8827820F911D07
:1017A000A11DB11DBC01CD0142E0660F771F881F4E
:1017B000991F4A95D1F708952FB7F894609159066B
:1017C00070915A0680915B0690915C062FBF089538
:1017D0001F920F920FB60F9211242F933F938F9366
:1017E0009F93AF93BF938091590690915A06A09111
:1017F0005B06B0915C063091580623E0230F2D372D
:1018000020F40196A11DB11D05C026E8230F029604
:10181000A11DB11D209358068093590690935A0636
:10182000A0935B06B0935C068091890590918A0530
:10183000A0918B05B0918C050196A11DB11D8093DF
:10184000890590938A05A0938B05B0938C05BF9171
:10185000AF919F918F913F912F910F900FBE0F905D
:101860001F90189580914B0690914C06009711F0AF
:101870000E94C7128091490687FD03C060E00C9466
:101880007B0B0895789484B5826084BD84B58160B3
:1018900084BD85B5826085BD85B5816085BD80913B
:1018A0006E00816080936E001092810080918100B3
:1018B00082608093810080918100816080938100AB
:1018C000809180008160809380008091B10084606D
:1018D0008093B1008091B00081608093B0008091CE
:1018E0007A00846080937A0080917A00826080938D
:1018F0007A0080917A00816080937A0080917A00EA
:10190000806880937A001092C100E0919D05F0916B
:101910009E0582E08083E0919905F0919A051082FE
:10192000E0919B05F0919C058FEC80831092A505BA
:10193000E091A105F091A20586E08083E0919F05EA
:10194000F091A005808180618083E0919F05F091F6
:10195000A005808188608083E0919F05F091A005BB
:10196000808180688083E0919F05F091A00580814F
:101970008F7D808361E08DE00E947B0B81E080930E
:10198000400683E496E0909342068093410684E00B
:101990008093380685E08093390660E080E00E94FD
:1019A000B80861E081E00E94B80862E082E00E942D
:1019B000B80863E083E00E94B80866E084E00E9413
:1019C000B80867E085E00E94B8080E94DC0B4AE096
:1019D00050E00E945B088EEF92E00E947D088EE24C
:1019E00092E00E947D0880E20E947F088EE793E0EB
:1019F0000E947D088BE193E00E947D0881E590E0E4
:101A00000E948A088DE193E00E947D0883EE94E0B5
:101A10000E94080A0E94DC0B4AE050E00E945B082A
:101A20008EEF92E00E947D088EE292E00E947D0897
:101A300080E20E947F088EE793E00E947D088BE1A0
:101A400093E00E947D0882E590E00E948A088DE183
:101A500093E00E947D0880E090E00E948A088EE179
:101A600093E00E947D0860E170E0809138060E945A
:101A70006A080E94DC0B4AE050E00E945B088EEF8F
:101A800092E00E947D088EE292E00E947D0880E252
:101A90000E947F088EE793E00E947D088BE193E02F
:101AA0000E947D0883E590E00E948A088DE193E022
:101AB0000E947D0881E090E00E948A088EE193E018
:101AC0000E947D0860E170E0809139060E946A08FA
:101AD0000E94DC0B4AE050E00E945B088EEF92E02F
:101AE0000E947D088EE292E00E947D0880E20E94C2
:101AF0007F088EE793E00E947D088BE193E00E94CF
:101B00007D0886E590E00E948A088DE193E00E94BE
:101B10007D0883EF94E00E94080A0E94DC0B4AE0F3
:101B200050E00E945B088EEF92E00E947D088EE2FA
:101B300092E00E947D0880E20E947F088EE793E099
:101B40000E947D088BE193E00E947D0887E590E08C
:101B50000E948A088DE193E00E947D0880E090E079
:101B60000E948A088EE193E00E947D0860E170E0A7
:101B700080913A060E946A080E94DC0B4AE050E01D
:101B80000E945B088EEF92E00E947D088EE292E058
:101B90000E947D0880E20E947F088EE793E00E9409
:101BA0007D088BE193E00E947D0888E590E00E942B
:101BB0008A088DE193E00E947D0881E090E00E9418
:101BC0008A088EE193E00E947D0860E170E08091D8
:101BD0003B060E946A080E94DC0B4AE050E00E942B
:101BE0005B088EEF92E00E947D088EE292E00E94F8
:101BF0007D0880E20E947F088EE793E00E947D08C6
:101C00008BE193E00E947D0889E590E00E948A08BC
:101C10008DE193E00E947D0882E090E00E948A08B6
:101C20008EE193E00E947D0860E170E080913C06C7
:101C30000E946A080E94DC0B4AE050E00E945B08A8
:101C40008EEF92E00E947D088EE292E00E947D0875
:101C500080E20E947F088EE793E00E947D088BE17E
:101C600093E00E947D088AE590E00E948A088DE159
:101C700093E00E947D0883E090E00E948A088EE154
:101C800093E00E947D0860E170E080913D060E9433
:101C90006A080E94DC0B4AE050E00E945B088EEF6D
:101CA00092E00E947D088EE292E00E947D0880E230
:101CB0000E947F088EE793E00E947D088BE193E00D
:101CC0000E947D088BE590E00E948A088DE193E0F8
:101CD0000E947D0884E090E00E948A088EE193E0F3
:101CE0000E947D0860E170E080913E060E946A08D3
:101CF0000E94DC0B4AE050E00E945B088EEF92E00D
:101D00000E947D088EE292E00E947D0880E20E949F
:101D10007F088EE793E00E947D088BE193E00E94AC
:101D20007D088CE590E00E948A088DE193E00E9496
:101D30007D0885E090E00E948A088EE193E00E9491
:101D40007D0860E170E080913F060E946A080E9471
:101D5000DC0B4AE050E00E945B088EEF92E00E94AC
:101D60007D0880E592E00E947D0880E20E947F0865
:101D70008EE793E00E947D088BE193E00E947D084E
:101D800087E190E00E948A088DE193E00E947D083F
:101D900083E095E00E94080A0E94DC0B4AE050E0D4
:101DA0000E945B088EEF92E00E947D0880E592E041
:101DB0000E947D0880E20E947F088EE793E00E94E7
:101DC0007D088BE193E00E947D0888E190E00E940D
:101DD0008A088DE193E00E947D0880E090E00E94F7
:101DE0008A088EE193E00E947D0860E170E08091B6
:101DF00038060E946A080E94DC0B4AE050E00E940C
:101E00005B088EEF92E00E947D0880E592E00E94E0
:101E10007D0880E20E947F088EE793E00E947D08A3
:101E20008BE193E00E947D0889E190E00E948A089E
:101E30008DE193E00E947D0881E090E00E948A0895
:101E40008EE193E00E947D0860E170E080913906A8
:101E50000E946A080E94DC0B4AE050E00E945B0886
:101E60008EEF92E00E947D0880E592E00E947D085E
:101E700080E20E947F088EE793E00E947D088BE15C
:101E800093E00E947D088DE190E00E948A088DE138
:101E900093E00E947D088DE195E00E94080A0E946F
:101EA000DC0B4AE050E00E945B088EEF92E00E945B
:101EB0007D0880E592E00E947D0880E20E947F0814
:101EC0008EE793E00E947D088BE193E00E947D08FD
:101ED0008EE190E00E948A088DE193E00E947D08E7
:101EE00080E090E00E948A088EE193E00E947D08E5
:101EF00060E170E080913A060E946A080E94DC0B63
:101F00004AE050E00E945B088EEF92E00E947D085C
:101F100080E592E00E947D0880E20E947F088EE7C3
:101F200093E00E947D088BE193E00E947D088FE1A1
:101F300090E00E948A088DE193E00E947D0881E094
:101F400090E00E948A088EE193E00E947D0860E1A3
:101F500070E080913B060E946A080E94DC0B4AE018
:101F600050E00E945B088EEF92E00E947D0880E5C1
:101F700092E00E947D0880E20E947F088EE793E055
:101F80000E947D088BE193E00E947D0880E290E052
:101F90000E948A088DE193E00E947D0882E090E033
:101FA0000E948A088EE193E00E947D0860E170E063
:101FB00080913C060E946A080E94DC0B4AE050E0D7
:101FC0000E945B088EEF92E00E947D0880E592E01F
:101FD0000E947D0880E20E947F088EE793E00E94C5
:101FE0007D088BE193E00E947D0881E290E00E94F1
:101FF0008A088DE193E00E947D0883E090E00E94D2
:102000008A088EE193E00E947D0860E170E0809193
:102010003D060E946A080E94DC0B4AE050E00E94E4
:102020005B088EEF92E00E947D0880E592E00E94BE
:102030007D0880E20E947F088EE793E00E947D0881
:102040008BE193E00E947D0882E290E00E948A0882
:102050008DE193E00E947D0884E090E00E948A0870
:102060008EE193E00E947D0860E170E080913E0681
:102070000E946A080E94DC0B4AE050E00E945B0864
:102080008EEF92E00E947D0880E592E00E947D083C
:1020900080E20E947F088EE793E00E947D088BE13A
:1020A00093E00E947D0883E290E00E948A088DE11F
:1020B00093E00E947D0885E090E00E948A088EE10E
:1020C00093E00E947D0860E170E080913F060E94ED
:1020D0006A0886E396E090933306809332068AE29C
:1020E00096E00E9463018091490687FD08C061E087
:1020F0000E947B0B60E0809149060E942F0B81E0DB
:102100008093440680914B0690914C06892B21F0D8
:1021100083E496E00E9405030E94DC0B6093850532
:102120007093860580938705909388058AE296E0F0
:102130000E9436040E94B70B4B015C0182E3C82E5B
:10214000D12CE12CF12C0E94B70BDC01CB018819BA
:102150009909AA09BB09883E9340A105B10558F029
:1021600021E0C21AD108E108F10888EE880E83E068
:10217000981EA11CB11CC114D104E104F10419F78B
:102180000E94DC0BC0908505D0908605E090870505
:10219000F0908805DC01CB018C199D09AE09BF09BF
:1021A00081379741A105B10508F47AC00E94DC0B84
:1021B0004AE050E00E945B088EEF92E00E947D08AA
:1021C00084E892E00E947D0880E20E947F0885E317
:1021D00095E00E947D088BE193E00E947D0885E4F4
:1021E00090E00E948A088DE193E00E947D088AE4D5
:1021F00095E00E94080A0E94DC0B4AE050E00E9431
:102200005B088EEF92E00E947D0884E892E00E94D5
:102210007D0880E20E947F0885E395E00E947D08AA
:102220008BE193E00E947D0886E490E00E948A089A
:102230008DE193E00E947D088AE595E00E947D088B
:102240008EE193E00E947D0860918505709186057E
:1022500080918705909188054AE050E00E94160A17
:102260000E94DC0B6093850570938605809387053B
:102270009093880580918405811108C061E08DE00C
:102280000E942F0B81E08093840506C060E08DE002
:102290000E942F0B109284058AE296E00E9463014F
:1022A0000E94530143CF1092900510928F0588EE43
:1022B00093E0A0E0B0E08093910590939205A09305
:1022C0009305B093940588EC92E090938E058093EB
:1022D0008D0585EC90E090939A058093990584ECA8
:1022E00090E090939C0580939B0580EC90E0909308
:1022F0009E0580939D0581EC90E09093A0058093CE
:102300009F0582EC90E09093A2058093A10586EC56
:1023100090E09093A4058093A3051092A6051092D7
:10232000A7051092A8051092A905109244061092D4
:102330004A061092510610925206109253061092BD
:10234000540681E08093500680934D0610924E060D
:1023500092E090934F068093430686E990E0909335
:102360004806809347060E94321290934C06809351
:102370004B06009761F026E9FC0111922A95E9F7D6
:1023800082E390E0909346068093450608C0109241
:10239000480610924706109246061092450688E0BD
:1023A0008093490680914406882341F061E088E0EB
:1023B0000E947B0B60E088E00E942F0BECEAF0E0CB
:1023C000E491F0E0EE0FFF1FE656FF4F85919491E8
:1023D0009093560680935506EEE8F0E0E491E09382
:1023E00057068AEF92E09093370680933606109254
:1023F0002C0610922D0610922E0610922F0686EEB5
:1024000092E090932B0680932A0610923506109244
:1024100034060895A1E21A2EAA1BBB1BFD010DC0B4
:10242000AA1FBB1FEE1FFF1FA217B307E407F50784
:1024300020F0A21BB30BE40BF50B661F771F881F60
:10244000991F1A9469F760957095809590959B01F6
:10245000AC01BD01CF010895EE0FFF1F0590F4916F
:10246000E02D0994CF93DF938230910510F482E040
:1024700090E0E0915F06F091600620E030E0C0E07F
:10248000D0E0309711F14081518148175907C0F0D1
:102490004817590761F482819381209719F09B8333
:1024A0008A832BC09093600680935F0626C0211517
:1024B000310519F04217530718F49A01BE01DF01E4
:1024C000EF010280F381E02DDCCF2115310509F108
:1024D000281B390B2430310590F412968D919C9174
:1024E00013976115710521F0FB019383828304C06A
:1024F0009093600680935F06FD01329644C0FD0113
:10250000E20FF31F81939193225031092D933C9355
:102510003AC020915D0630915E06232B41F4209154
:1025200002013091030130935E0620935D062091F5
:102530000001309101012115310541F42DB73EB75D
:102540004091040150910501241B350BE0915D067B
:10255000F0915E06E217F307A0F42E1B3F0B28173D
:10256000390778F0AC014E5F5F4F2417350748F00C
:102570004E0F5F1F50935E0640935D0681939193CB
:1025800002C0E0E0F0E0CF01DF91CF9108950F931A
:102590001F93CF93DF93009709F48CC0FC0132970F
:1025A0001382128200915F061091600601151105D9
:1025B00081F420813181820F931F20915D0630913B
:1025C0005E062817390779F5F0935E06E0935D06FD
:1025D00071C0D80140E050E0AE17BF0750F412962A
:1025E0002D913C911397AD012115310509F1D901C8
:1025F000F3CF9D01DA013383228360817181860FDD
:10260000971F8217930769F4EC0128813981260FFF
:10261000371F2E5F3F4F318320838A819B819383B5
:102620008283452B29F4F0936006E0935F0642C055
:102630001396FC93EE931297ED01499159919E01E7
:10264000240F351FE217F30771F480819181840F05
:10265000951F029611969C938E9382819381139677
:102660009C938E931297E0E0F0E0D80112968D9142
:102670009C911397009719F0F8018C01F6CF8D917A
:102680009C9198012E5F3F4F820F931F20915D0612
:1026900030915E062817390769F4309729F41092B3
:1026A000600610925F0602C01382128210935E06CB
:1026B00000935D06DF91CF911F910F91089581E006
:1026C00090E0F8940C94641310E0CDE5D0E004C0E1
:1026D000FE010E942C122196CE35D107C9F7F8943D
:0226E000FFCF2A
:1026E2000000610680007669727475616C20766FF5
:1026F20069642054696546696768746572457870D3
:102702006C6F64653A3A7374617274536365656E93
:10271200282900766F696420546965466967687480
:1027220065724578706C6F64653A3A646F466164AD
:1027320065546F426C61636B282900766F6964206F
:10274200546965466967687465724578706C6F6430
:10275200653A3A646F46616465546F52656428292C
:1027620000766F69642054696546696768746572AA
:102772003A3A7365744C69676E74496E6E65724E4F
:102782006F53686F772875696E7433325F742900EE
:10279200766F696420546965466967687465723A40
:1027A2003A7365744C69676E744F757465724E6FD7
:1027B20053686F772875696E7433325F74290076B7
:1027C2006F69642054696546696768746572457803
:1027D200706C6F64653A3A646F496E697469616CD2
:1027E200466C6173682829007669727475616C2081
:1027F200766F6964205469654669676874657245D5
:1028020078706C6F64653A3A72756E282900766F3B
:10281200696420546965466967687465723A3A6901
:102822006E697441747472696275746573282900E3
:10283200766F696420546965466967687465723A9F
:102842003A73657455702875696E74385F742C20FC
:1028520041646166727569745F4E656F506978652F
:102862006C2A2900766F6964206C6F6F70282900CA
:10287200766F696420546965466967687465723A5F
:102882003A7365744C696768744964734F7574650B
:10289200722875696E74385F742C2075696E74388D
:1028A2005F74290000000000EA005B078C00310120
:1028B200BD009B00AF000000000000000000860782
:1028C2008607000000005A075F016301360400001A
:1028D2000000590761010000000058075D013A5BE2
:1028E20020002E2E5C5469654669676874657245DE
:1028F20078706C6F64652E637070003A005D202002
:1029020000546965466967687465724578706C6FD2
:1029120064653A3A7374617274536365656E28290B
:1029220000546965466967687465724578706C6FB2
:1029320064653A3A72756E2829005469654669677A
:10294200687465724578706C6F64653A3A646F4971
:102952006E697469616C466C6173682829002E2E59
:102962005C546965466967687465722E63707000AD
:10297200546965466967687465723A3A7365744C5E
:1029820069676E74496E6E65724E6F53686F772811
:1029920029206C6967687420494400736574566124
:1029A2006C756500546965466967687465723A3A80
:1029B2007365744C69676E744F757465724E6F53AC
:1029C200686F77282900546965466967687465727B
:1029D2003A3A7365744C69676E744F757465724EDA
:1029E2006F53686F772829206900546965466967C3
:1029F200687465723A3A7365744C69676E744F75A0
:102A02007465724E6F53686F772829206C69676806
:102A12007420494400546965466967687465724563
:102A220078706C6F64653A3A646F46616465546F9E
:102A320052656428292020646F20776F726B0054DE
:102A42006965466967687465724578706C6F64651C
:102A52003A3A646F46616465546F426C61636B28F5
:102A6200290073746570497465726174696F6E438D
:102A72006F756E740054696546696768746572455E
:102A820078706C6F64653A3A20736365656E20698D
:102A92007320646F6E650054696546696768746582
:102AA200724578706C6F64653A3A646F466164652A
:102AB200546F426C61636B28292020646F20776F0A
:102AC200726B00696E6E65724C696768747320730D
:102AD2006574006F757465724C69676874732073EE
:102AE200657400506F737420696E697420696E6E2C
:102AF2006572206C696768742069647300706F7313
:102B02007420696E6974206F757465724C696768A8
:102B120074696473002E2E5C446561746853746139
:102B220072323031382E696E6F004B656570416CC0
:102B3200697665206669726564006B656570416CD3
:102B42006976652076616C7565000D0A007365749F
:102B52004C696768744964734F7574657220696E55
:042B6200646578002E
:00000001FF
